{
	"contracts/ProofOfClick.sol": {
		"POC": {
			"abi": [
				{
					"inputs": [
						{
							"internalType": "address",
							"name": "vrfCoordinatorAddress",
							"type": "address"
						},
						{
							"internalType": "address",
							"name": "_vaultAddress",
							"type": "address"
						}
					],
					"stateMutability": "nonpayable",
					"type": "constructor"
				},
				{
					"inputs": [
						{
							"internalType": "address",
							"name": "spender",
							"type": "address"
						},
						{
							"internalType": "uint256",
							"name": "allowance",
							"type": "uint256"
						},
						{
							"internalType": "uint256",
							"name": "needed",
							"type": "uint256"
						}
					],
					"name": "ERC20InsufficientAllowance",
					"type": "error"
				},
				{
					"inputs": [
						{
							"internalType": "address",
							"name": "sender",
							"type": "address"
						},
						{
							"internalType": "uint256",
							"name": "balance",
							"type": "uint256"
						},
						{
							"internalType": "uint256",
							"name": "needed",
							"type": "uint256"
						}
					],
					"name": "ERC20InsufficientBalance",
					"type": "error"
				},
				{
					"inputs": [
						{
							"internalType": "address",
							"name": "approver",
							"type": "address"
						}
					],
					"name": "ERC20InvalidApprover",
					"type": "error"
				},
				{
					"inputs": [
						{
							"internalType": "address",
							"name": "receiver",
							"type": "address"
						}
					],
					"name": "ERC20InvalidReceiver",
					"type": "error"
				},
				{
					"inputs": [
						{
							"internalType": "address",
							"name": "sender",
							"type": "address"
						}
					],
					"name": "ERC20InvalidSender",
					"type": "error"
				},
				{
					"inputs": [
						{
							"internalType": "address",
							"name": "spender",
							"type": "address"
						}
					],
					"name": "ERC20InvalidSpender",
					"type": "error"
				},
				{
					"inputs": [],
					"name": "FeeTooLow",
					"type": "error"
				},
				{
					"inputs": [],
					"name": "FeeTransferFailed",
					"type": "error"
				},
				{
					"inputs": [],
					"name": "InsufficientContractBalance",
					"type": "error"
				},
				{
					"inputs": [],
					"name": "NothingToBurn",
					"type": "error"
				},
				{
					"inputs": [
						{
							"internalType": "address",
							"name": "sender",
							"type": "address"
						},
						{
							"internalType": "address",
							"name": "coordinator",
							"type": "address"
						}
					],
					"name": "OnlyVRFCoordinator",
					"type": "error"
				},
				{
					"inputs": [],
					"name": "RefundFailed",
					"type": "error"
				},
				{
					"inputs": [],
					"name": "TransferFailed",
					"type": "error"
				},
				{
					"anonymous": false,
					"inputs": [
						{
							"indexed": true,
							"internalType": "address",
							"name": "owner",
							"type": "address"
						},
						{
							"indexed": true,
							"internalType": "address",
							"name": "spender",
							"type": "address"
						},
						{
							"indexed": false,
							"internalType": "uint256",
							"name": "value",
							"type": "uint256"
						}
					],
					"name": "Approval",
					"type": "event"
				},
				{
					"anonymous": false,
					"inputs": [
						{
							"indexed": true,
							"internalType": "address",
							"name": "burner",
							"type": "address"
						},
						{
							"indexed": false,
							"internalType": "uint256",
							"name": "amount",
							"type": "uint256"
						},
						{
							"indexed": false,
							"internalType": "uint256",
							"name": "ethOut",
							"type": "uint256"
						}
					],
					"name": "Burned",
					"type": "event"
				},
				{
					"anonymous": false,
					"inputs": [
						{
							"indexed": true,
							"internalType": "uint256",
							"name": "roundId",
							"type": "uint256"
						},
						{
							"indexed": true,
							"internalType": "address",
							"name": "player",
							"type": "address"
						}
					],
					"name": "Clicked",
					"type": "event"
				},
				{
					"anonymous": false,
					"inputs": [
						{
							"indexed": true,
							"internalType": "uint256",
							"name": "requestId",
							"type": "uint256"
						},
						{
							"indexed": true,
							"internalType": "uint256",
							"name": "roundId",
							"type": "uint256"
						},
						{
							"indexed": false,
							"internalType": "uint256",
							"name": "playersCount",
							"type": "uint256"
						},
						{
							"indexed": false,
							"internalType": "uint256",
							"name": "reward",
							"type": "uint256"
						}
					],
					"name": "RoundRequested",
					"type": "event"
				},
				{
					"anonymous": false,
					"inputs": [
						{
							"indexed": true,
							"internalType": "address",
							"name": "from",
							"type": "address"
						},
						{
							"indexed": true,
							"internalType": "address",
							"name": "to",
							"type": "address"
						},
						{
							"indexed": false,
							"internalType": "uint256",
							"name": "value",
							"type": "uint256"
						}
					],
					"name": "Transfer",
					"type": "event"
				},
				{
					"anonymous": false,
					"inputs": [
						{
							"indexed": true,
							"internalType": "uint256",
							"name": "requestId",
							"type": "uint256"
						},
						{
							"indexed": true,
							"internalType": "uint256",
							"name": "roundId",
							"type": "uint256"
						},
						{
							"indexed": true,
							"internalType": "address",
							"name": "winner",
							"type": "address"
						},
						{
							"indexed": false,
							"internalType": "uint256",
							"name": "amount",
							"type": "uint256"
						}
					],
					"name": "WinnerMinted",
					"type": "event"
				},
				{
					"inputs": [],
					"name": "CALLBACK_GAS_LIMIT",
					"outputs": [
						{
							"internalType": "uint32",
							"name": "",
							"type": "uint32"
						}
					],
					"stateMutability": "view",
					"type": "function"
				},
				{
					"inputs": [],
					"name": "Click",
					"outputs": [],
					"stateMutability": "payable",
					"type": "function"
				},
				{
					"inputs": [],
					"name": "FEE",
					"outputs": [
						{
							"internalType": "uint256",
							"name": "",
							"type": "uint256"
						}
					],
					"stateMutability": "view",
					"type": "function"
				},
				{
					"inputs": [],
					"name": "HALVING_INTERVAL_ROUNDS",
					"outputs": [
						{
							"internalType": "uint256",
							"name": "",
							"type": "uint256"
						}
					],
					"stateMutability": "view",
					"type": "function"
				},
				{
					"inputs": [],
					"name": "INITIAL_REWARD",
					"outputs": [
						{
							"internalType": "uint256",
							"name": "",
							"type": "uint256"
						}
					],
					"stateMutability": "view",
					"type": "function"
				},
				{
					"inputs": [],
					"name": "LIQUIDITY_SHARE",
					"outputs": [
						{
							"internalType": "uint256",
							"name": "",
							"type": "uint256"
						}
					],
					"stateMutability": "view",
					"type": "function"
				},
				{
					"inputs": [],
					"name": "ROUND_DURATION",
					"outputs": [
						{
							"internalType": "uint256",
							"name": "",
							"type": "uint256"
						}
					],
					"stateMutability": "view",
					"type": "function"
				},
				{
					"inputs": [
						{
							"internalType": "address",
							"name": "owner",
							"type": "address"
						},
						{
							"internalType": "address",
							"name": "spender",
							"type": "address"
						}
					],
					"name": "allowance",
					"outputs": [
						{
							"internalType": "uint256",
							"name": "",
							"type": "uint256"
						}
					],
					"stateMutability": "view",
					"type": "function"
				},
				{
					"inputs": [
						{
							"internalType": "address",
							"name": "spender",
							"type": "address"
						},
						{
							"internalType": "uint256",
							"name": "value",
							"type": "uint256"
						}
					],
					"name": "approve",
					"outputs": [
						{
							"internalType": "bool",
							"name": "",
							"type": "bool"
						}
					],
					"stateMutability": "nonpayable",
					"type": "function"
				},
				{
					"inputs": [
						{
							"internalType": "address",
							"name": "account",
							"type": "address"
						}
					],
					"name": "balanceOf",
					"outputs": [
						{
							"internalType": "uint256",
							"name": "",
							"type": "uint256"
						}
					],
					"stateMutability": "view",
					"type": "function"
				},
				{
					"inputs": [
						{
							"internalType": "uint256",
							"name": "amount",
							"type": "uint256"
						}
					],
					"name": "burn",
					"outputs": [],
					"stateMutability": "nonpayable",
					"type": "function"
				},
				{
					"inputs": [],
					"name": "currentReward",
					"outputs": [
						{
							"internalType": "uint256",
							"name": "",
							"type": "uint256"
						}
					],
					"stateMutability": "view",
					"type": "function"
				},
				{
					"inputs": [],
					"name": "decimals",
					"outputs": [
						{
							"internalType": "uint8",
							"name": "",
							"type": "uint8"
						}
					],
					"stateMutability": "view",
					"type": "function"
				},
				{
					"inputs": [
						{
							"internalType": "uint256",
							"name": "_roundId",
							"type": "uint256"
						}
					],
					"name": "getPlayersCountInRound",
					"outputs": [
						{
							"internalType": "uint256",
							"name": "",
							"type": "uint256"
						}
					],
					"stateMutability": "view",
					"type": "function"
				},
				{
					"inputs": [],
					"name": "lastHalvingRound",
					"outputs": [
						{
							"internalType": "uint256",
							"name": "",
							"type": "uint256"
						}
					],
					"stateMutability": "view",
					"type": "function"
				},
				{
					"inputs": [],
					"name": "lastRoundTs",
					"outputs": [
						{
							"internalType": "uint256",
							"name": "",
							"type": "uint256"
						}
					],
					"stateMutability": "view",
					"type": "function"
				},
				{
					"inputs": [],
					"name": "liquidityVault",
					"outputs": [
						{
							"internalType": "address",
							"name": "",
							"type": "address"
						}
					],
					"stateMutability": "view",
					"type": "function"
				},
				{
					"inputs": [],
					"name": "maxSupply",
					"outputs": [
						{
							"internalType": "uint256",
							"name": "",
							"type": "uint256"
						}
					],
					"stateMutability": "view",
					"type": "function"
				},
				{
					"inputs": [],
					"name": "name",
					"outputs": [
						{
							"internalType": "string",
							"name": "",
							"type": "string"
						}
					],
					"stateMutability": "view",
					"type": "function"
				},
				{
					"inputs": [],
					"name": "nextHalvingRound",
					"outputs": [
						{
							"internalType": "uint256",
							"name": "",
							"type": "uint256"
						}
					],
					"stateMutability": "view",
					"type": "function"
				},
				{
					"inputs": [
						{
							"internalType": "uint256",
							"name": "",
							"type": "uint256"
						}
					],
					"name": "playerCount",
					"outputs": [
						{
							"internalType": "uint256",
							"name": "",
							"type": "uint256"
						}
					],
					"stateMutability": "view",
					"type": "function"
				},
				{
					"inputs": [
						{
							"internalType": "uint256",
							"name": "",
							"type": "uint256"
						},
						{
							"internalType": "uint256",
							"name": "",
							"type": "uint256"
						}
					],
					"name": "players",
					"outputs": [
						{
							"internalType": "address",
							"name": "",
							"type": "address"
						}
					],
					"stateMutability": "view",
					"type": "function"
				},
				{
					"inputs": [
						{
							"internalType": "uint256",
							"name": "requestId",
							"type": "uint256"
						},
						{
							"internalType": "uint256[]",
							"name": "randomWords",
							"type": "uint256[]"
						}
					],
					"name": "rawFulfillRandomWords",
					"outputs": [],
					"stateMutability": "nonpayable",
					"type": "function"
				},
				{
					"inputs": [],
					"name": "roundId",
					"outputs": [
						{
							"internalType": "uint256",
							"name": "",
							"type": "uint256"
						}
					],
					"stateMutability": "view",
					"type": "function"
				},
				{
					"inputs": [],
					"name": "symbol",
					"outputs": [
						{
							"internalType": "string",
							"name": "",
							"type": "string"
						}
					],
					"stateMutability": "view",
					"type": "function"
				},
				{
					"inputs": [],
					"name": "totalSupply",
					"outputs": [
						{
							"internalType": "uint256",
							"name": "",
							"type": "uint256"
						}
					],
					"stateMutability": "view",
					"type": "function"
				},
				{
					"inputs": [
						{
							"internalType": "address",
							"name": "to",
							"type": "address"
						},
						{
							"internalType": "uint256",
							"name": "value",
							"type": "uint256"
						}
					],
					"name": "transfer",
					"outputs": [
						{
							"internalType": "bool",
							"name": "",
							"type": "bool"
						}
					],
					"stateMutability": "nonpayable",
					"type": "function"
				},
				{
					"inputs": [
						{
							"internalType": "address",
							"name": "from",
							"type": "address"
						},
						{
							"internalType": "address",
							"name": "to",
							"type": "address"
						},
						{
							"internalType": "uint256",
							"name": "value",
							"type": "uint256"
						}
					],
					"name": "transferFrom",
					"outputs": [
						{
							"internalType": "bool",
							"name": "",
							"type": "bool"
						}
					],
					"stateMutability": "nonpayable",
					"type": "function"
				}
			],
			"devdoc": {
				"errors": {
					"ERC20InsufficientAllowance(address,uint256,uint256)": [
						{
							"details": "Indicates a failure with the `spender`’s `allowance`. Used in transfers.",
							"params": {
								"allowance": "Amount of tokens a `spender` is allowed to operate with.",
								"needed": "Minimum amount required to perform a transfer.",
								"spender": "Address that may be allowed to operate on tokens without being their owner."
							}
						}
					],
					"ERC20InsufficientBalance(address,uint256,uint256)": [
						{
							"details": "Indicates an error related to the current `balance` of a `sender`. Used in transfers.",
							"params": {
								"balance": "Current balance for the interacting account.",
								"needed": "Minimum amount required to perform a transfer.",
								"sender": "Address whose tokens are being transferred."
							}
						}
					],
					"ERC20InvalidApprover(address)": [
						{
							"details": "Indicates a failure with the `approver` of a token to be approved. Used in approvals.",
							"params": {
								"approver": "Address initiating an approval operation."
							}
						}
					],
					"ERC20InvalidReceiver(address)": [
						{
							"details": "Indicates a failure with the token `receiver`. Used in transfers.",
							"params": {
								"receiver": "Address to which tokens are being transferred."
							}
						}
					],
					"ERC20InvalidSender(address)": [
						{
							"details": "Indicates a failure with the token `sender`. Used in transfers.",
							"params": {
								"sender": "Address whose tokens are being transferred."
							}
						}
					],
					"ERC20InvalidSpender(address)": [
						{
							"details": "Indicates a failure with the `spender` to be approved. Used in approvals.",
							"params": {
								"spender": "Address that may be allowed to operate on tokens without being their owner."
							}
						}
					],
					"OnlyVRFCoordinator(address,address)": [
						{
							"details": "Error thrown when a function restricted to the VRF coordinator is called by another address",
							"params": {
								"coordinator": "The address of the authorized VRF coordinator",
								"sender": "The address that attempted to call the function"
							}
						}
					]
				},
				"events": {
					"Approval(address,address,uint256)": {
						"details": "Emitted when the allowance of a `spender` for an `owner` is set by a call to {approve}. `value` is the new allowance."
					},
					"Transfer(address,address,uint256)": {
						"details": "Emitted when `value` tokens are moved from one account (`from`) to another (`to`). Note that `value` may be zero."
					}
				},
				"kind": "dev",
				"methods": {
					"allowance(address,address)": {
						"details": "Returns the remaining number of tokens that `spender` will be allowed to spend on behalf of `owner` through {transferFrom}. This is zero by default. This value changes when {approve} or {transferFrom} are called."
					},
					"approve(address,uint256)": {
						"details": "See {IERC20-approve}. NOTE: If `value` is the maximum `uint256`, the allowance is not updated on `transferFrom`. This is semantically equivalent to an infinite approval. Requirements: - `spender` cannot be the zero address."
					},
					"balanceOf(address)": {
						"details": "Returns the value of tokens owned by `account`."
					},
					"decimals()": {
						"details": "Returns the number of decimals used to get its user representation. For example, if `decimals` equals `2`, a balance of `505` tokens should be displayed to a user as `5.05` (`505 / 10 ** 2`). Tokens usually opt for a value of 18, imitating the relationship between Ether and Wei. This is the default value returned by this function, unless it's overridden. NOTE: This information is only used for _display_ purposes: it in no way affects any of the arithmetic of the contract, including {IERC20-balanceOf} and {IERC20-transfer}."
					},
					"name()": {
						"details": "Returns the name of the token."
					},
					"rawFulfillRandomWords(uint256,uint256[])": {
						"details": "Callback function called by the VRF coordinator to deliver random wordsSpecial care should be taken when overriding this function. Use `_fulfillRandomWords()` instead.",
						"params": {
							"randomWords": "The array of random words for the request",
							"requestId": "The ID of the request to which these random words belong"
						}
					},
					"symbol()": {
						"details": "Returns the symbol of the token, usually a shorter version of the name."
					},
					"totalSupply()": {
						"details": "Returns the value of tokens in existence."
					},
					"transfer(address,uint256)": {
						"details": "See {IERC20-transfer}. Requirements: - `to` cannot be the zero address. - the caller must have a balance of at least `value`."
					},
					"transferFrom(address,address,uint256)": {
						"details": "See {IERC20-transferFrom}. Skips emitting an {Approval} event indicating an allowance update. This is not required by the ERC. See {xref-ERC20-_approve-address-address-uint256-bool-}[_approve]. NOTE: Does not update the allowance if the current allowance is the maximum `uint256`. Requirements: - `from` and `to` cannot be the zero address. - `from` must have a balance of at least `value`. - the caller must have allowance for ``from``'s tokens of at least `value`."
					}
				},
				"version": 1
			},
			"evm": {
				"assembly": "    /* \"contracts/ProofOfClick.sol\":257:5771  contract POC is PaintswapVRFConsumer, ERC20 {... */\n  mstore(0x40, 0xa0)\n    /* \"contracts/ProofOfClick.sol\":1694:2085  constructor(address vrfCoordinatorAddress, address _vaultAddress)... */\n  callvalue\n  dup1\n  iszero\n  tag_1\n  jumpi\n  revert(0x00, 0x00)\ntag_1:\n  pop\n  mload(0x40)\n  sub(codesize, bytecodeSize)\n  dup1\n  bytecodeSize\n  dup4\n  codecopy\n  dup2\n  dup2\n  add\n  0x40\n  mstore\n  dup2\n  add\n  swap1\n  tag_2\n  swap2\n  swap1\n  tag_3\n  jump\t// in\ntag_2:\n    /* \"@openzeppelin/contracts/token/ERC20/ERC20.sol\":1582:1695  constructor(string memory name_, string memory symbol_) {... */\n  mload(0x40)\n  dup1\n  0x40\n  add\n  0x40\n  mstore\n  dup1\n  0x12\n  dup2\n  mstore\n  0x20\n  add\n  0x536174616e47616d6573205320546f6b656e0000000000000000000000000000\n  dup2\n  mstore\n  pop\n  mload(0x40)\n  dup1\n  0x40\n  add\n  0x40\n  mstore\n  dup1\n  0x03\n  dup2\n  mstore\n  0x20\n  add\n  0x7367530000000000000000000000000000000000000000000000000000000000\n  dup2\n  mstore\n  pop\n    /* \"contracts/ProofOfClick.sol\":1834:1855  vrfCoordinatorAddress */\n  dup4\n    /* \"@paintswap/vrf/contracts/PaintswapVRFConsumer.sol\":1653:1667  vrfCoordinator */\n  dup1\n    /* \"@paintswap/vrf/contracts/PaintswapVRFConsumer.sol\":1610:1668  _vrfCoordinator = IPaintswapVRFCoordinator(vrfCoordinator) */\n  0xffffffffffffffffffffffffffffffffffffffff\n  and\n  0x80\n  dup2\n  0xffffffffffffffffffffffffffffffffffffffff\n  and\n  dup2\n  mstore\n  pop\n  pop\n    /* \"@paintswap/vrf/contracts/PaintswapVRFConsumer.sol\":1568:1673  constructor(address vrfCoordinator) {... */\n  pop\n    /* \"@openzeppelin/contracts/token/ERC20/ERC20.sol\":1656:1661  name_ */\n  dup2\n    /* \"@openzeppelin/contracts/token/ERC20/ERC20.sol\":1648:1653  _name */\n  0x03\n    /* \"@openzeppelin/contracts/token/ERC20/ERC20.sol\":1648:1661  _name = name_ */\n  swap1\n  dup2\n  tag_9\n  swap2\n  swap1\n  tag_10\n  jump\t// in\ntag_9:\n  pop\n    /* \"@openzeppelin/contracts/token/ERC20/ERC20.sol\":1681:1688  symbol_ */\n  dup1\n    /* \"@openzeppelin/contracts/token/ERC20/ERC20.sol\":1671:1678  _symbol */\n  0x04\n    /* \"@openzeppelin/contracts/token/ERC20/ERC20.sol\":1671:1688  _symbol = symbol_ */\n  swap1\n  dup2\n  tag_11\n  swap2\n  swap1\n  tag_10\n  jump\t// in\ntag_11:\n  pop\n    /* \"@openzeppelin/contracts/token/ERC20/ERC20.sol\":1582:1695  constructor(string memory name_, string memory symbol_) {... */\n  pop\n  pop\n    /* \"contracts/ProofOfClick.sol\":1885:1902  66_666_666 * 1e18 */\n  0x372537349a396a28680000\n    /* \"contracts/ProofOfClick.sol\":1873:1882  maxSupply */\n  0x05\n    /* \"contracts/ProofOfClick.sol\":1873:1902  maxSupply = 66_666_666 * 1e18 */\n  dup2\n  swap1\n  sstore\n  pop\n    /* \"contracts/ProofOfClick.sol\":746:756  666 * 1e18 */\n  0x241a9b4f617a280000\n    /* \"contracts/ProofOfClick.sol\":1913:1926  currentReward */\n  0x06\n    /* \"contracts/ProofOfClick.sol\":1913:1943  currentReward = INITIAL_REWARD */\n  dup2\n  swap1\n  sstore\n  pop\n    /* \"contracts/ProofOfClick.sol\":1971:1984  _vaultAddress */\n  dup1\n    /* \"contracts/ProofOfClick.sol\":1954:1968  liquidityVault */\n  0x0a\n  0x00\n    /* \"contracts/ProofOfClick.sol\":1954:1984  liquidityVault = _vaultAddress */\n  0x0100\n  exp\n  dup2\n  sload\n  dup2\n  0xffffffffffffffffffffffffffffffffffffffff\n  mul\n  not\n  and\n  swap1\n  dup4\n  0xffffffffffffffffffffffffffffffffffffffff\n  and\n  mul\n  or\n  swap1\n  sstore\n  pop\n    /* \"contracts/ProofOfClick.sol\":2009:2024  block.timestamp */\n  timestamp\n    /* \"contracts/ProofOfClick.sol\":1995:2006  lastRoundTs */\n  0x09\n    /* \"contracts/ProofOfClick.sol\":1995:2024  lastRoundTs = block.timestamp */\n  dup2\n  swap1\n  sstore\n  pop\n    /* \"contracts/ProofOfClick.sol\":2045:2046  0 */\n  0x00\n    /* \"contracts/ProofOfClick.sol\":2035:2042  roundId */\n  0x07\n    /* \"contracts/ProofOfClick.sol\":2035:2046  roundId = 0 */\n  dup2\n  swap1\n  sstore\n  pop\n    /* \"contracts/ProofOfClick.sol\":2076:2077  0 */\n  0x00\n    /* \"contracts/ProofOfClick.sol\":2057:2073  lastHalvingRound */\n  0x08\n    /* \"contracts/ProofOfClick.sol\":2057:2077  lastHalvingRound = 0 */\n  dup2\n  swap1\n  sstore\n  pop\n    /* \"contracts/ProofOfClick.sol\":1694:2085  constructor(address vrfCoordinatorAddress, address _vaultAddress)... */\n  pop\n  pop\n    /* \"contracts/ProofOfClick.sol\":257:5771  contract POC is PaintswapVRFConsumer, ERC20 {... */\n  jump(tag_13)\n    /* \"#utility.yul\":88:205   */\ntag_15:\n    /* \"#utility.yul\":197:198   */\n  0x00\n    /* \"#utility.yul\":194:195   */\n  0x00\n    /* \"#utility.yul\":187:199   */\n  revert\n    /* \"#utility.yul\":334:460   */\ntag_17:\n    /* \"#utility.yul\":371:378   */\n  0x00\n    /* \"#utility.yul\":411:453   */\n  0xffffffffffffffffffffffffffffffffffffffff\n    /* \"#utility.yul\":404:409   */\n  dup3\n    /* \"#utility.yul\":400:454   */\n  and\n    /* \"#utility.yul\":389:454   */\n  swap1\n  pop\n    /* \"#utility.yul\":334:460   */\n  swap2\n  swap1\n  pop\n  jump\t// out\n    /* \"#utility.yul\":466:562   */\ntag_18:\n    /* \"#utility.yul\":503:510   */\n  0x00\n    /* \"#utility.yul\":532:556   */\n  tag_47\n    /* \"#utility.yul\":550:555   */\n  dup3\n    /* \"#utility.yul\":532:556   */\n  tag_17\n  jump\t// in\ntag_47:\n    /* \"#utility.yul\":521:556   */\n  swap1\n  pop\n    /* \"#utility.yul\":466:562   */\n  swap2\n  swap1\n  pop\n  jump\t// out\n    /* \"#utility.yul\":568:690   */\ntag_19:\n    /* \"#utility.yul\":641:665   */\n  tag_49\n    /* \"#utility.yul\":659:664   */\n  dup2\n    /* \"#utility.yul\":641:665   */\n  tag_18\n  jump\t// in\ntag_49:\n    /* \"#utility.yul\":634:639   */\n  dup2\n    /* \"#utility.yul\":631:666   */\n  eq\n    /* \"#utility.yul\":621:684   */\n  tag_50\n  jumpi\n    /* \"#utility.yul\":680:681   */\n  0x00\n    /* \"#utility.yul\":677:678   */\n  0x00\n    /* \"#utility.yul\":670:682   */\n  revert\n    /* \"#utility.yul\":621:684   */\ntag_50:\n    /* \"#utility.yul\":568:690   */\n  pop\n  jump\t// out\n    /* \"#utility.yul\":696:839   */\ntag_20:\n    /* \"#utility.yul\":753:758   */\n  0x00\n    /* \"#utility.yul\":784:790   */\n  dup2\n    /* \"#utility.yul\":778:791   */\n  mload\n    /* \"#utility.yul\":769:791   */\n  swap1\n  pop\n    /* \"#utility.yul\":800:833   */\n  tag_52\n    /* \"#utility.yul\":827:832   */\n  dup2\n    /* \"#utility.yul\":800:833   */\n  tag_19\n  jump\t// in\ntag_52:\n    /* \"#utility.yul\":696:839   */\n  swap3\n  swap2\n  pop\n  pop\n  jump\t// out\n    /* \"#utility.yul\":845:1352   */\ntag_3:\n    /* \"#utility.yul\":924:930   */\n  0x00\n    /* \"#utility.yul\":932:938   */\n  0x00\n    /* \"#utility.yul\":981:983   */\n  0x40\n    /* \"#utility.yul\":969:978   */\n  dup4\n    /* \"#utility.yul\":960:967   */\n  dup6\n    /* \"#utility.yul\":956:979   */\n  sub\n    /* \"#utility.yul\":952:984   */\n  slt\n    /* \"#utility.yul\":949:1068   */\n  iszero\n  tag_54\n  jumpi\n    /* \"#utility.yul\":987:1066   */\n  tag_55\n  tag_15\n  jump\t// in\ntag_55:\n    /* \"#utility.yul\":949:1068   */\ntag_54:\n    /* \"#utility.yul\":1107:1108   */\n  0x00\n    /* \"#utility.yul\":1132:1196   */\n  tag_56\n    /* \"#utility.yul\":1188:1195   */\n  dup6\n    /* \"#utility.yul\":1179:1185   */\n  dup3\n    /* \"#utility.yul\":1168:1177   */\n  dup7\n    /* \"#utility.yul\":1164:1186   */\n  add\n    /* \"#utility.yul\":1132:1196   */\n  tag_20\n  jump\t// in\ntag_56:\n    /* \"#utility.yul\":1122:1196   */\n  swap3\n  pop\n    /* \"#utility.yul\":1078:1206   */\n  pop\n    /* \"#utility.yul\":1245:1247   */\n  0x20\n    /* \"#utility.yul\":1271:1335   */\n  tag_57\n    /* \"#utility.yul\":1327:1334   */\n  dup6\n    /* \"#utility.yul\":1318:1324   */\n  dup3\n    /* \"#utility.yul\":1307:1316   */\n  dup7\n    /* \"#utility.yul\":1303:1325   */\n  add\n    /* \"#utility.yul\":1271:1335   */\n  tag_20\n  jump\t// in\ntag_57:\n    /* \"#utility.yul\":1261:1335   */\n  swap2\n  pop\n    /* \"#utility.yul\":1216:1345   */\n  pop\n    /* \"#utility.yul\":845:1352   */\n  swap3\n  pop\n  swap3\n  swap1\n  pop\n  jump\t// out\n    /* \"#utility.yul\":1358:1457   */\ntag_21:\n    /* \"#utility.yul\":1410:1416   */\n  0x00\n    /* \"#utility.yul\":1444:1449   */\n  dup2\n    /* \"#utility.yul\":1438:1450   */\n  mload\n    /* \"#utility.yul\":1428:1450   */\n  swap1\n  pop\n    /* \"#utility.yul\":1358:1457   */\n  swap2\n  swap1\n  pop\n  jump\t// out\n    /* \"#utility.yul\":1463:1643   */\ntag_22:\n    /* \"#utility.yul\":1511:1588   */\n  0x4e487b7100000000000000000000000000000000000000000000000000000000\n    /* \"#utility.yul\":1508:1509   */\n  0x00\n    /* \"#utility.yul\":1501:1589   */\n  mstore\n    /* \"#utility.yul\":1608:1612   */\n  0x41\n    /* \"#utility.yul\":1605:1606   */\n  0x04\n    /* \"#utility.yul\":1598:1613   */\n  mstore\n    /* \"#utility.yul\":1632:1636   */\n  0x24\n    /* \"#utility.yul\":1629:1630   */\n  0x00\n    /* \"#utility.yul\":1622:1637   */\n  revert\n    /* \"#utility.yul\":1649:1829   */\ntag_23:\n    /* \"#utility.yul\":1697:1774   */\n  0x4e487b7100000000000000000000000000000000000000000000000000000000\n    /* \"#utility.yul\":1694:1695   */\n  0x00\n    /* \"#utility.yul\":1687:1775   */\n  mstore\n    /* \"#utility.yul\":1794:1798   */\n  0x22\n    /* \"#utility.yul\":1791:1792   */\n  0x04\n    /* \"#utility.yul\":1784:1799   */\n  mstore\n    /* \"#utility.yul\":1818:1822   */\n  0x24\n    /* \"#utility.yul\":1815:1816   */\n  0x00\n    /* \"#utility.yul\":1808:1823   */\n  revert\n    /* \"#utility.yul\":1835:2155   */\ntag_24:\n    /* \"#utility.yul\":1879:1885   */\n  0x00\n    /* \"#utility.yul\":1916:1917   */\n  0x02\n    /* \"#utility.yul\":1910:1914   */\n  dup3\n    /* \"#utility.yul\":1906:1918   */\n  div\n    /* \"#utility.yul\":1896:1918   */\n  swap1\n  pop\n    /* \"#utility.yul\":1963:1964   */\n  0x01\n    /* \"#utility.yul\":1957:1961   */\n  dup3\n    /* \"#utility.yul\":1953:1965   */\n  and\n    /* \"#utility.yul\":1984:2002   */\n  dup1\n    /* \"#utility.yul\":1974:2055   */\n  tag_62\n  jumpi\n    /* \"#utility.yul\":2040:2044   */\n  0x7f\n    /* \"#utility.yul\":2032:2038   */\n  dup3\n    /* \"#utility.yul\":2028:2045   */\n  and\n    /* \"#utility.yul\":2018:2045   */\n  swap2\n  pop\n    /* \"#utility.yul\":1974:2055   */\ntag_62:\n    /* \"#utility.yul\":2102:2104   */\n  0x20\n    /* \"#utility.yul\":2094:2100   */\n  dup3\n    /* \"#utility.yul\":2091:2105   */\n  lt\n    /* \"#utility.yul\":2071:2089   */\n  dup2\n    /* \"#utility.yul\":2068:2106   */\n  sub\n    /* \"#utility.yul\":2065:2149   */\n  tag_63\n  jumpi\n    /* \"#utility.yul\":2121:2139   */\n  tag_64\n  tag_23\n  jump\t// in\ntag_64:\n    /* \"#utility.yul\":2065:2149   */\ntag_63:\n    /* \"#utility.yul\":1886:2155   */\n  pop\n    /* \"#utility.yul\":1835:2155   */\n  swap2\n  swap1\n  pop\n  jump\t// out\n    /* \"#utility.yul\":2161:2302   */\ntag_25:\n    /* \"#utility.yul\":2210:2214   */\n  0x00\n    /* \"#utility.yul\":2233:2236   */\n  dup2\n    /* \"#utility.yul\":2225:2236   */\n  swap1\n  pop\n    /* \"#utility.yul\":2256:2259   */\n  dup2\n    /* \"#utility.yul\":2253:2254   */\n  0x00\n    /* \"#utility.yul\":2246:2260   */\n  mstore\n    /* \"#utility.yul\":2290:2294   */\n  0x20\n    /* \"#utility.yul\":2287:2288   */\n  0x00\n    /* \"#utility.yul\":2277:2295   */\n  keccak256\n    /* \"#utility.yul\":2269:2295   */\n  swap1\n  pop\n    /* \"#utility.yul\":2161:2302   */\n  swap2\n  swap1\n  pop\n  jump\t// out\n    /* \"#utility.yul\":2308:2401   */\ntag_26:\n    /* \"#utility.yul\":2345:2351   */\n  0x00\n    /* \"#utility.yul\":2392:2394   */\n  0x20\n    /* \"#utility.yul\":2387:2389   */\n  0x1f\n    /* \"#utility.yul\":2380:2385   */\n  dup4\n    /* \"#utility.yul\":2376:2390   */\n  add\n    /* \"#utility.yul\":2372:2395   */\n  div\n    /* \"#utility.yul\":2362:2395   */\n  swap1\n  pop\n    /* \"#utility.yul\":2308:2401   */\n  swap2\n  swap1\n  pop\n  jump\t// out\n    /* \"#utility.yul\":2407:2514   */\ntag_27:\n    /* \"#utility.yul\":2451:2459   */\n  0x00\n    /* \"#utility.yul\":2501:2506   */\n  dup3\n    /* \"#utility.yul\":2495:2499   */\n  dup3\n    /* \"#utility.yul\":2491:2507   */\n  shl\n    /* \"#utility.yul\":2470:2507   */\n  swap1\n  pop\n    /* \"#utility.yul\":2407:2514   */\n  swap3\n  swap2\n  pop\n  pop\n  jump\t// out\n    /* \"#utility.yul\":2520:2913   */\ntag_28:\n    /* \"#utility.yul\":2589:2595   */\n  0x00\n    /* \"#utility.yul\":2639:2640   */\n  0x08\n    /* \"#utility.yul\":2627:2637   */\n  dup4\n    /* \"#utility.yul\":2623:2641   */\n  mul\n    /* \"#utility.yul\":2662:2759   */\n  tag_69\n    /* \"#utility.yul\":2692:2758   */\n  0xffffffffffffffffffffffffffffffffffffffffffffffffffffffffffffffff\n    /* \"#utility.yul\":2681:2690   */\n  dup3\n    /* \"#utility.yul\":2662:2759   */\n  tag_27\n  jump\t// in\ntag_69:\n    /* \"#utility.yul\":2780:2819   */\n  tag_70\n    /* \"#utility.yul\":2810:2818   */\n  dup7\n    /* \"#utility.yul\":2799:2808   */\n  dup4\n    /* \"#utility.yul\":2780:2819   */\n  tag_27\n  jump\t// in\ntag_70:\n    /* \"#utility.yul\":2768:2819   */\n  swap6\n  pop\n    /* \"#utility.yul\":2852:2856   */\n  dup1\n    /* \"#utility.yul\":2848:2857   */\n  not\n    /* \"#utility.yul\":2841:2846   */\n  dup5\n    /* \"#utility.yul\":2837:2858   */\n  and\n    /* \"#utility.yul\":2828:2858   */\n  swap4\n  pop\n    /* \"#utility.yul\":2901:2905   */\n  dup1\n    /* \"#utility.yul\":2891:2899   */\n  dup7\n    /* \"#utility.yul\":2887:2906   */\n  and\n    /* \"#utility.yul\":2880:2885   */\n  dup5\n    /* \"#utility.yul\":2877:2907   */\n  or\n    /* \"#utility.yul\":2867:2907   */\n  swap3\n  pop\n    /* \"#utility.yul\":2596:2913   */\n  pop\n  pop\n    /* \"#utility.yul\":2520:2913   */\n  swap4\n  swap3\n  pop\n  pop\n  pop\n  jump\t// out\n    /* \"#utility.yul\":2919:2996   */\ntag_29:\n    /* \"#utility.yul\":2956:2963   */\n  0x00\n    /* \"#utility.yul\":2985:2990   */\n  dup2\n    /* \"#utility.yul\":2974:2990   */\n  swap1\n  pop\n    /* \"#utility.yul\":2919:2996   */\n  swap2\n  swap1\n  pop\n  jump\t// out\n    /* \"#utility.yul\":3002:3062   */\ntag_30:\n    /* \"#utility.yul\":3030:3033   */\n  0x00\n    /* \"#utility.yul\":3051:3056   */\n  dup2\n    /* \"#utility.yul\":3044:3056   */\n  swap1\n  pop\n    /* \"#utility.yul\":3002:3062   */\n  swap2\n  swap1\n  pop\n  jump\t// out\n    /* \"#utility.yul\":3068:3210   */\ntag_31:\n    /* \"#utility.yul\":3118:3127   */\n  0x00\n    /* \"#utility.yul\":3151:3204   */\n  tag_74\n    /* \"#utility.yul\":3169:3203   */\n  tag_75\n    /* \"#utility.yul\":3178:3202   */\n  tag_76\n    /* \"#utility.yul\":3196:3201   */\n  dup5\n    /* \"#utility.yul\":3178:3202   */\n  tag_29\n  jump\t// in\ntag_76:\n    /* \"#utility.yul\":3169:3203   */\n  tag_30\n  jump\t// in\ntag_75:\n    /* \"#utility.yul\":3151:3204   */\n  tag_29\n  jump\t// in\ntag_74:\n    /* \"#utility.yul\":3138:3204   */\n  swap1\n  pop\n    /* \"#utility.yul\":3068:3210   */\n  swap2\n  swap1\n  pop\n  jump\t// out\n    /* \"#utility.yul\":3216:3291   */\ntag_32:\n    /* \"#utility.yul\":3259:3262   */\n  0x00\n    /* \"#utility.yul\":3280:3285   */\n  dup2\n    /* \"#utility.yul\":3273:3285   */\n  swap1\n  pop\n    /* \"#utility.yul\":3216:3291   */\n  swap2\n  swap1\n  pop\n  jump\t// out\n    /* \"#utility.yul\":3297:3566   */\ntag_33:\n    /* \"#utility.yul\":3407:3446   */\n  tag_79\n    /* \"#utility.yul\":3438:3445   */\n  dup4\n    /* \"#utility.yul\":3407:3446   */\n  tag_31\n  jump\t// in\ntag_79:\n    /* \"#utility.yul\":3468:3559   */\n  tag_80\n    /* \"#utility.yul\":3517:3558   */\n  tag_81\n    /* \"#utility.yul\":3541:3557   */\n  dup3\n    /* \"#utility.yul\":3517:3558   */\n  tag_32\n  jump\t// in\ntag_81:\n    /* \"#utility.yul\":3509:3515   */\n  dup5\n    /* \"#utility.yul\":3502:3506   */\n  dup5\n    /* \"#utility.yul\":3496:3507   */\n  sload\n    /* \"#utility.yul\":3468:3559   */\n  tag_28\n  jump\t// in\ntag_80:\n    /* \"#utility.yul\":3462:3466   */\n  dup3\n    /* \"#utility.yul\":3455:3560   */\n  sstore\n    /* \"#utility.yul\":3373:3566   */\n  pop\n    /* \"#utility.yul\":3297:3566   */\n  pop\n  pop\n  pop\n  jump\t// out\n    /* \"#utility.yul\":3572:3645   */\ntag_34:\n    /* \"#utility.yul\":3617:3620   */\n  0x00\n    /* \"#utility.yul\":3638:3639   */\n  0x00\n    /* \"#utility.yul\":3631:3639   */\n  swap1\n  pop\n    /* \"#utility.yul\":3572:3645   */\n  swap1\n  jump\t// out\n    /* \"#utility.yul\":3651:3840   */\ntag_35:\n    /* \"#utility.yul\":3728:3760   */\n  tag_84\n  tag_34\n  jump\t// in\ntag_84:\n    /* \"#utility.yul\":3769:3834   */\n  tag_85\n    /* \"#utility.yul\":3827:3833   */\n  dup2\n    /* \"#utility.yul\":3819:3825   */\n  dup5\n    /* \"#utility.yul\":3813:3817   */\n  dup5\n    /* \"#utility.yul\":3769:3834   */\n  tag_33\n  jump\t// in\ntag_85:\n    /* \"#utility.yul\":3704:3840   */\n  pop\n    /* \"#utility.yul\":3651:3840   */\n  pop\n  pop\n  jump\t// out\n    /* \"#utility.yul\":3846:4032   */\ntag_36:\n    /* \"#utility.yul\":3906:4026   */\ntag_87:\n    /* \"#utility.yul\":3923:3926   */\n  dup2\n    /* \"#utility.yul\":3916:3921   */\n  dup2\n    /* \"#utility.yul\":3913:3927   */\n  lt\n    /* \"#utility.yul\":3906:4026   */\n  iszero\n  tag_89\n  jumpi\n    /* \"#utility.yul\":3977:4016   */\n  tag_90\n    /* \"#utility.yul\":4014:4015   */\n  0x00\n    /* \"#utility.yul\":4007:4012   */\n  dup3\n    /* \"#utility.yul\":3977:4016   */\n  tag_35\n  jump\t// in\ntag_90:\n    /* \"#utility.yul\":3950:3951   */\n  0x01\n    /* \"#utility.yul\":3943:3948   */\n  dup2\n    /* \"#utility.yul\":3939:3952   */\n  add\n    /* \"#utility.yul\":3930:3952   */\n  swap1\n  pop\n    /* \"#utility.yul\":3906:4026   */\n  jump(tag_87)\ntag_89:\n    /* \"#utility.yul\":3846:4032   */\n  pop\n  pop\n  jump\t// out\n    /* \"#utility.yul\":4038:4581   */\ntag_37:\n    /* \"#utility.yul\":4139:4141   */\n  0x1f\n    /* \"#utility.yul\":4134:4137   */\n  dup3\n    /* \"#utility.yul\":4131:4142   */\n  gt\n    /* \"#utility.yul\":4128:4574   */\n  iszero\n  tag_92\n  jumpi\n    /* \"#utility.yul\":4173:4211   */\n  tag_93\n    /* \"#utility.yul\":4205:4210   */\n  dup2\n    /* \"#utility.yul\":4173:4211   */\n  tag_25\n  jump\t// in\ntag_93:\n    /* \"#utility.yul\":4257:4286   */\n  tag_94\n    /* \"#utility.yul\":4275:4285   */\n  dup5\n    /* \"#utility.yul\":4257:4286   */\n  tag_26\n  jump\t// in\ntag_94:\n    /* \"#utility.yul\":4247:4255   */\n  dup2\n    /* \"#utility.yul\":4243:4287   */\n  add\n    /* \"#utility.yul\":4440:4442   */\n  0x20\n    /* \"#utility.yul\":4428:4438   */\n  dup6\n    /* \"#utility.yul\":4425:4443   */\n  lt\n    /* \"#utility.yul\":4422:4471   */\n  iszero\n  tag_95\n  jumpi\n    /* \"#utility.yul\":4461:4469   */\n  dup2\n    /* \"#utility.yul\":4446:4469   */\n  swap1\n  pop\n    /* \"#utility.yul\":4422:4471   */\ntag_95:\n    /* \"#utility.yul\":4484:4564   */\n  tag_96\n    /* \"#utility.yul\":4540:4562   */\n  tag_97\n    /* \"#utility.yul\":4558:4561   */\n  dup6\n    /* \"#utility.yul\":4540:4562   */\n  tag_26\n  jump\t// in\ntag_97:\n    /* \"#utility.yul\":4530:4538   */\n  dup4\n    /* \"#utility.yul\":4526:4563   */\n  add\n    /* \"#utility.yul\":4513:4524   */\n  dup3\n    /* \"#utility.yul\":4484:4564   */\n  tag_36\n  jump\t// in\ntag_96:\n    /* \"#utility.yul\":4143:4574   */\n  pop\n  pop\n    /* \"#utility.yul\":4128:4574   */\ntag_92:\n    /* \"#utility.yul\":4038:4581   */\n  pop\n  pop\n  pop\n  jump\t// out\n    /* \"#utility.yul\":4587:4704   */\ntag_38:\n    /* \"#utility.yul\":4641:4649   */\n  0x00\n    /* \"#utility.yul\":4691:4696   */\n  dup3\n    /* \"#utility.yul\":4685:4689   */\n  dup3\n    /* \"#utility.yul\":4681:4697   */\n  shr\n    /* \"#utility.yul\":4660:4697   */\n  swap1\n  pop\n    /* \"#utility.yul\":4587:4704   */\n  swap3\n  swap2\n  pop\n  pop\n  jump\t// out\n    /* \"#utility.yul\":4710:4879   */\ntag_39:\n    /* \"#utility.yul\":4754:4760   */\n  0x00\n    /* \"#utility.yul\":4787:4838   */\n  tag_100\n    /* \"#utility.yul\":4835:4836   */\n  0x00\n    /* \"#utility.yul\":4831:4837   */\n  not\n    /* \"#utility.yul\":4823:4828   */\n  dup5\n    /* \"#utility.yul\":4820:4821   */\n  0x08\n    /* \"#utility.yul\":4816:4829   */\n  mul\n    /* \"#utility.yul\":4787:4838   */\n  tag_38\n  jump\t// in\ntag_100:\n    /* \"#utility.yul\":4783:4839   */\n  not\n    /* \"#utility.yul\":4868:4872   */\n  dup1\n    /* \"#utility.yul\":4862:4866   */\n  dup4\n    /* \"#utility.yul\":4858:4873   */\n  and\n    /* \"#utility.yul\":4848:4873   */\n  swap2\n  pop\n    /* \"#utility.yul\":4761:4879   */\n  pop\n    /* \"#utility.yul\":4710:4879   */\n  swap3\n  swap2\n  pop\n  pop\n  jump\t// out\n    /* \"#utility.yul\":4884:5179   */\ntag_40:\n    /* \"#utility.yul\":4960:4964   */\n  0x00\n    /* \"#utility.yul\":5106:5135   */\n  tag_102\n    /* \"#utility.yul\":5131:5134   */\n  dup4\n    /* \"#utility.yul\":5125:5129   */\n  dup4\n    /* \"#utility.yul\":5106:5135   */\n  tag_39\n  jump\t// in\ntag_102:\n    /* \"#utility.yul\":5098:5135   */\n  swap2\n  pop\n    /* \"#utility.yul\":5168:5171   */\n  dup3\n    /* \"#utility.yul\":5165:5166   */\n  0x02\n    /* \"#utility.yul\":5161:5172   */\n  mul\n    /* \"#utility.yul\":5155:5159   */\n  dup3\n    /* \"#utility.yul\":5152:5173   */\n  or\n    /* \"#utility.yul\":5144:5173   */\n  swap1\n  pop\n    /* \"#utility.yul\":4884:5179   */\n  swap3\n  swap2\n  pop\n  pop\n  jump\t// out\n    /* \"#utility.yul\":5184:6579   */\ntag_10:\n    /* \"#utility.yul\":5301:5338   */\n  tag_104\n    /* \"#utility.yul\":5334:5337   */\n  dup3\n    /* \"#utility.yul\":5301:5338   */\n  tag_21\n  jump\t// in\ntag_104:\n    /* \"#utility.yul\":5403:5421   */\n  0xffffffffffffffff\n    /* \"#utility.yul\":5395:5401   */\n  dup2\n    /* \"#utility.yul\":5392:5422   */\n  gt\n    /* \"#utility.yul\":5389:5445   */\n  iszero\n  tag_105\n  jumpi\n    /* \"#utility.yul\":5425:5443   */\n  tag_106\n  tag_22\n  jump\t// in\ntag_106:\n    /* \"#utility.yul\":5389:5445   */\ntag_105:\n    /* \"#utility.yul\":5469:5507   */\n  tag_107\n    /* \"#utility.yul\":5501:5505   */\n  dup3\n    /* \"#utility.yul\":5495:5506   */\n  sload\n    /* \"#utility.yul\":5469:5507   */\n  tag_24\n  jump\t// in\ntag_107:\n    /* \"#utility.yul\":5554:5621   */\n  tag_108\n    /* \"#utility.yul\":5614:5620   */\n  dup3\n    /* \"#utility.yul\":5606:5612   */\n  dup3\n    /* \"#utility.yul\":5600:5604   */\n  dup6\n    /* \"#utility.yul\":5554:5621   */\n  tag_37\n  jump\t// in\ntag_108:\n    /* \"#utility.yul\":5648:5649   */\n  0x00\n    /* \"#utility.yul\":5672:5676   */\n  0x20\n    /* \"#utility.yul\":5659:5676   */\n  swap1\n  pop\n    /* \"#utility.yul\":5704:5706   */\n  0x1f\n    /* \"#utility.yul\":5696:5702   */\n  dup4\n    /* \"#utility.yul\":5693:5707   */\n  gt\n    /* \"#utility.yul\":5721:5722   */\n  0x01\n    /* \"#utility.yul\":5716:6334   */\n  dup2\n  eq\n  tag_110\n  jumpi\n    /* \"#utility.yul\":6378:6379   */\n  0x00\n    /* \"#utility.yul\":6395:6401   */\n  dup5\n    /* \"#utility.yul\":6392:6469   */\n  iszero\n  tag_111\n  jumpi\n    /* \"#utility.yul\":6444:6453   */\n  dup3\n    /* \"#utility.yul\":6439:6442   */\n  dup8\n    /* \"#utility.yul\":6435:6454   */\n  add\n    /* \"#utility.yul\":6429:6455   */\n  mload\n    /* \"#utility.yul\":6420:6455   */\n  swap1\n  pop\n    /* \"#utility.yul\":6392:6469   */\ntag_111:\n    /* \"#utility.yul\":6495:6562   */\n  tag_112\n    /* \"#utility.yul\":6555:6561   */\n  dup6\n    /* \"#utility.yul\":6548:6553   */\n  dup3\n    /* \"#utility.yul\":6495:6562   */\n  tag_40\n  jump\t// in\ntag_112:\n    /* \"#utility.yul\":6489:6493   */\n  dup7\n    /* \"#utility.yul\":6482:6563   */\n  sstore\n    /* \"#utility.yul\":6351:6573   */\n  pop\n    /* \"#utility.yul\":5686:6573   */\n  jump(tag_109)\n    /* \"#utility.yul\":5716:6334   */\ntag_110:\n    /* \"#utility.yul\":5768:5772   */\n  0x1f\n    /* \"#utility.yul\":5764:5773   */\n  not\n    /* \"#utility.yul\":5756:5762   */\n  dup5\n    /* \"#utility.yul\":5752:5774   */\n  and\n    /* \"#utility.yul\":5802:5839   */\n  tag_113\n    /* \"#utility.yul\":5834:5838   */\n  dup7\n    /* \"#utility.yul\":5802:5839   */\n  tag_25\n  jump\t// in\ntag_113:\n    /* \"#utility.yul\":5861:5862   */\n  0x00\n    /* \"#utility.yul\":5875:6083   */\ntag_114:\n    /* \"#utility.yul\":5889:5896   */\n  dup3\n    /* \"#utility.yul\":5886:5887   */\n  dup2\n    /* \"#utility.yul\":5883:5897   */\n  lt\n    /* \"#utility.yul\":5875:6083   */\n  iszero\n  tag_116\n  jumpi\n    /* \"#utility.yul\":5968:5977   */\n  dup5\n    /* \"#utility.yul\":5963:5966   */\n  dup10\n    /* \"#utility.yul\":5959:5978   */\n  add\n    /* \"#utility.yul\":5953:5979   */\n  mload\n    /* \"#utility.yul\":5945:5951   */\n  dup3\n    /* \"#utility.yul\":5938:5980   */\n  sstore\n    /* \"#utility.yul\":6019:6020   */\n  0x01\n    /* \"#utility.yul\":6011:6017   */\n  dup3\n    /* \"#utility.yul\":6007:6021   */\n  add\n    /* \"#utility.yul\":5997:6021   */\n  swap2\n  pop\n    /* \"#utility.yul\":6066:6068   */\n  0x20\n    /* \"#utility.yul\":6055:6064   */\n  dup6\n    /* \"#utility.yul\":6051:6069   */\n  add\n    /* \"#utility.yul\":6038:6069   */\n  swap5\n  pop\n    /* \"#utility.yul\":5912:5916   */\n  0x20\n    /* \"#utility.yul\":5909:5910   */\n  dup2\n    /* \"#utility.yul\":5905:5917   */\n  add\n    /* \"#utility.yul\":5900:5917   */\n  swap1\n  pop\n    /* \"#utility.yul\":5875:6083   */\n  jump(tag_114)\ntag_116:\n    /* \"#utility.yul\":6111:6117   */\n  dup7\n    /* \"#utility.yul\":6102:6109   */\n  dup4\n    /* \"#utility.yul\":6099:6118   */\n  lt\n    /* \"#utility.yul\":6096:6275   */\n  iszero\n  tag_117\n  jumpi\n    /* \"#utility.yul\":6169:6178   */\n  dup5\n    /* \"#utility.yul\":6164:6167   */\n  dup10\n    /* \"#utility.yul\":6160:6179   */\n  add\n    /* \"#utility.yul\":6154:6180   */\n  mload\n    /* \"#utility.yul\":6212:6260   */\n  tag_118\n    /* \"#utility.yul\":6254:6258   */\n  0x1f\n    /* \"#utility.yul\":6246:6252   */\n  dup10\n    /* \"#utility.yul\":6242:6259   */\n  and\n    /* \"#utility.yul\":6231:6240   */\n  dup3\n    /* \"#utility.yul\":6212:6260   */\n  tag_39\n  jump\t// in\ntag_118:\n    /* \"#utility.yul\":6204:6210   */\n  dup4\n    /* \"#utility.yul\":6197:6261   */\n  sstore\n    /* \"#utility.yul\":6119:6275   */\n  pop\n    /* \"#utility.yul\":6096:6275   */\ntag_117:\n    /* \"#utility.yul\":6321:6322   */\n  0x01\n    /* \"#utility.yul\":6317:6318   */\n  0x02\n    /* \"#utility.yul\":6309:6315   */\n  dup9\n    /* \"#utility.yul\":6305:6319   */\n  mul\n    /* \"#utility.yul\":6301:6323   */\n  add\n    /* \"#utility.yul\":6295:6299   */\n  dup9\n    /* \"#utility.yul\":6288:6324   */\n  sstore\n    /* \"#utility.yul\":5723:6334   */\n  pop\n  pop\n  pop\n    /* \"#utility.yul\":5686:6573   */\ntag_109:\n  pop\n    /* \"#utility.yul\":5276:6579   */\n  pop\n  pop\n  pop\n    /* \"#utility.yul\":5184:6579   */\n  pop\n  pop\n  jump\t// out\n    /* \"contracts/ProofOfClick.sol\":257:5771  contract POC is PaintswapVRFConsumer, ERC20 {... */\ntag_13:\n  mload(0x80)\n  codecopy(0x00, dataOffset(sub_0), dataSize(sub_0))\n  0x00\n  assignImmutable(\"0x4c4fd4da8ae1c1f2895da0cdd646517e3d75688175eb5d33ccff8a0b8439df64\")\n  return(0x00, dataSize(sub_0))\nstop\n\nsub_0: assembly {\n        /* \"contracts/ProofOfClick.sol\":257:5771  contract POC is PaintswapVRFConsumer, ERC20 {... */\n      mstore(0x40, 0x80)\n      jumpi(tag_1, lt(calldatasize, 0x04))\n      shr(0xe0, calldataload(0x00))\n      dup1\n      0x43270d56\n      gt\n      tag_30\n      jumpi\n      dup1\n      0x967372a3\n      gt\n      tag_31\n      jumpi\n      dup1\n      0xc57981b5\n      gt\n      tag_32\n      jumpi\n      dup1\n      0xc57981b5\n      eq\n      tag_26\n      jumpi\n      dup1\n      0xd5abeb01\n      eq\n      tag_27\n      jumpi\n      dup1\n      0xdd62ed3e\n      eq\n      tag_28\n      jumpi\n      dup1\n      0xf68c2bfd\n      eq\n      tag_29\n      jumpi\n      jump(tag_1)\n    tag_32:\n      dup1\n      0x967372a3\n      eq\n      tag_23\n      jumpi\n      dup1\n      0x998f1b80\n      eq\n      tag_24\n      jumpi\n      dup1\n      0xa9059cbb\n      eq\n      tag_25\n      jumpi\n      jump(tag_1)\n    tag_31:\n      dup1\n      0x708666ad\n      gt\n      tag_33\n      jumpi\n      dup1\n      0x708666ad\n      eq\n      tag_19\n      jumpi\n      dup1\n      0x70a08231\n      eq\n      tag_20\n      jumpi\n      dup1\n      0x8cd221c9\n      eq\n      tag_21\n      jumpi\n      dup1\n      0x95d89b41\n      eq\n      tag_22\n      jumpi\n      jump(tag_1)\n    tag_33:\n      dup1\n      0x43270d56\n      eq\n      tag_16\n      jumpi\n      dup1\n      0x47fec1a2\n      eq\n      tag_17\n      jumpi\n      dup1\n      0x6641ea08\n      eq\n      tag_18\n      jumpi\n      jump(tag_1)\n    tag_30:\n      dup1\n      0x23b872dd\n      gt\n      tag_34\n      jumpi\n      dup1\n      0x33d608f1\n      gt\n      tag_35\n      jumpi\n      dup1\n      0x33d608f1\n      eq\n      tag_12\n      jumpi\n      dup1\n      0x36667e7f\n      eq\n      tag_13\n      jumpi\n      dup1\n      0x36bcf7d6\n      eq\n      tag_14\n      jumpi\n      dup1\n      0x42966c68\n      eq\n      tag_15\n      jumpi\n      jump(tag_1)\n    tag_35:\n      dup1\n      0x23b872dd\n      eq\n      tag_9\n      jumpi\n      dup1\n      0x2566c9ea\n      eq\n      tag_10\n      jumpi\n      dup1\n      0x313ce567\n      eq\n      tag_11\n      jumpi\n      jump(tag_1)\n    tag_34:\n      dup1\n      0x18160ddd\n      gt\n      tag_36\n      jumpi\n      dup1\n      0x18160ddd\n      eq\n      tag_5\n      jumpi\n      dup1\n      0x1d6ad8e2\n      eq\n      tag_6\n      jumpi\n      dup1\n      0x1d729c5a\n      eq\n      tag_7\n      jumpi\n      dup1\n      0x1fe543e3\n      eq\n      tag_8\n      jumpi\n      jump(tag_1)\n    tag_36:\n      dup1\n      0x06fdde03\n      eq\n      tag_2\n      jumpi\n      dup1\n      0x07621eca\n      eq\n      tag_3\n      jumpi\n      dup1\n      0x095ea7b3\n      eq\n      tag_4\n      jumpi\n    tag_1:\n      revert(0x00, 0x00)\n        /* \"@openzeppelin/contracts/token/ERC20/ERC20.sol\":1760:1849  function name() public view virtual returns (string memory) {... */\n    tag_2:\n      callvalue\n      dup1\n      iszero\n      tag_37\n      jumpi\n      revert(0x00, 0x00)\n    tag_37:\n      pop\n      tag_38\n      tag_39\n      jump\t// in\n    tag_38:\n      mload(0x40)\n      tag_40\n      swap2\n      swap1\n      tag_41\n      jump\t// in\n    tag_40:\n      mload(0x40)\n      dup1\n      swap2\n      sub\n      swap1\n      return\n        /* \"contracts/ProofOfClick.sol\":523:551  uint256 public currentReward */\n    tag_3:\n      callvalue\n      dup1\n      iszero\n      tag_42\n      jumpi\n      revert(0x00, 0x00)\n    tag_42:\n      pop\n      tag_43\n      tag_44\n      jump\t// in\n    tag_43:\n      mload(0x40)\n      tag_45\n      swap2\n      swap1\n      tag_46\n      jump\t// in\n    tag_45:\n      mload(0x40)\n      dup1\n      swap2\n      sub\n      swap1\n      return\n        /* \"@openzeppelin/contracts/token/ERC20/ERC20.sol\":3902:4088  function approve(address spender, uint256 value) public virtual returns (bool) {... */\n    tag_4:\n      callvalue\n      dup1\n      iszero\n      tag_47\n      jumpi\n      revert(0x00, 0x00)\n    tag_47:\n      pop\n      tag_48\n      0x04\n      dup1\n      calldatasize\n      sub\n      dup2\n      add\n      swap1\n      tag_49\n      swap2\n      swap1\n      tag_50\n      jump\t// in\n    tag_49:\n      tag_51\n      jump\t// in\n    tag_48:\n      mload(0x40)\n      tag_52\n      swap2\n      swap1\n      tag_53\n      jump\t// in\n    tag_52:\n      mload(0x40)\n      dup1\n      swap2\n      sub\n      swap1\n      return\n        /* \"@openzeppelin/contracts/token/ERC20/ERC20.sol\":2803:2900  function totalSupply() public view virtual returns (uint256) {... */\n    tag_5:\n      callvalue\n      dup1\n      iszero\n      tag_54\n      jumpi\n      revert(0x00, 0x00)\n    tag_54:\n      pop\n      tag_55\n      tag_56\n      jump\t// in\n    tag_55:\n      mload(0x40)\n      tag_57\n      swap2\n      swap1\n      tag_46\n      jump\t// in\n    tag_57:\n      mload(0x40)\n      dup1\n      swap2\n      sub\n      swap1\n      return\n        /* \"contracts/ProofOfClick.sol\":2093:4025  function Click() external payable {... */\n    tag_6:\n      tag_58\n      tag_59\n      jump\t// in\n    tag_58:\n      stop\n        /* \"contracts/ProofOfClick.sol\":5640:5768  function nextHalvingRound() external view returns (uint256) {... */\n    tag_7:\n      callvalue\n      dup1\n      iszero\n      tag_60\n      jumpi\n      revert(0x00, 0x00)\n    tag_60:\n      pop\n      tag_61\n      tag_62\n      jump\t// in\n    tag_61:\n      mload(0x40)\n      tag_63\n      swap2\n      swap1\n      tag_46\n      jump\t// in\n    tag_63:\n      mload(0x40)\n      dup1\n      swap2\n      sub\n      swap1\n      return\n        /* \"@paintswap/vrf/contracts/PaintswapVRFConsumer.sol\":3923:4105  function rawFulfillRandomWords(... */\n    tag_8:\n      callvalue\n      dup1\n      iszero\n      tag_64\n      jumpi\n      revert(0x00, 0x00)\n    tag_64:\n      pop\n      tag_65\n      0x04\n      dup1\n      calldatasize\n      sub\n      dup2\n      add\n      swap1\n      tag_66\n      swap2\n      swap1\n      tag_67\n      jump\t// in\n    tag_66:\n      tag_68\n      jump\t// in\n    tag_65:\n      stop\n        /* \"@openzeppelin/contracts/token/ERC20/ERC20.sol\":4680:4924  function transferFrom(address from, address to, uint256 value) public virtual returns (bool) {... */\n    tag_9:\n      callvalue\n      dup1\n      iszero\n      tag_69\n      jumpi\n      revert(0x00, 0x00)\n    tag_69:\n      pop\n      tag_70\n      0x04\n      dup1\n      calldatasize\n      sub\n      dup2\n      add\n      swap1\n      tag_71\n      swap2\n      swap1\n      tag_72\n      jump\t// in\n    tag_71:\n      tag_73\n      jump\t// in\n    tag_70:\n      mload(0x40)\n      tag_74\n      swap2\n      swap1\n      tag_53\n      jump\t// in\n    tag_74:\n      mload(0x40)\n      dup1\n      swap2\n      sub\n      swap1\n      return\n        /* \"contracts/ProofOfClick.sol\":1143:1189  mapping(uint256 => uint256) public playerCount */\n    tag_10:\n      callvalue\n      dup1\n      iszero\n      tag_75\n      jumpi\n      revert(0x00, 0x00)\n    tag_75:\n      pop\n      tag_76\n      0x04\n      dup1\n      calldatasize\n      sub\n      dup2\n      add\n      swap1\n      tag_77\n      swap2\n      swap1\n      tag_78\n      jump\t// in\n    tag_77:\n      tag_79\n      jump\t// in\n    tag_76:\n      mload(0x40)\n      tag_80\n      swap2\n      swap1\n      tag_46\n      jump\t// in\n    tag_80:\n      mload(0x40)\n      dup1\n      swap2\n      sub\n      swap1\n      return\n        /* \"@openzeppelin/contracts/token/ERC20/ERC20.sol\":2688:2770  function decimals() public view virtual returns (uint8) {... */\n    tag_11:\n      callvalue\n      dup1\n      iszero\n      tag_81\n      jumpi\n      revert(0x00, 0x00)\n    tag_81:\n      pop\n      tag_82\n      tag_83\n      jump\t// in\n    tag_82:\n      mload(0x40)\n      tag_84\n      swap2\n      swap1\n      tag_85\n      jump\t// in\n    tag_84:\n      mload(0x40)\n      dup1\n      swap2\n      sub\n      swap1\n      return\n        /* \"contracts/ProofOfClick.sol\":1008:1065  uint32  public constant CALLBACK_GAS_LIMIT      = 200_000 */\n    tag_12:\n      callvalue\n      dup1\n      iszero\n      tag_86\n      jumpi\n      revert(0x00, 0x00)\n    tag_86:\n      pop\n      tag_87\n      tag_88\n      jump\t// in\n    tag_87:\n      mload(0x40)\n      tag_89\n      swap2\n      swap1\n      tag_90\n      jump\t// in\n    tag_89:\n      mload(0x40)\n      dup1\n      swap2\n      sub\n      swap1\n      return\n        /* \"contracts/ProofOfClick.sol\":763:818  uint256 public constant HALVING_INTERVAL_ROUNDS = 50050 */\n    tag_13:\n      callvalue\n      dup1\n      iszero\n      tag_91\n      jumpi\n      revert(0x00, 0x00)\n    tag_91:\n      pop\n      tag_92\n      tag_93\n      jump\t// in\n    tag_92:\n      mload(0x40)\n      tag_94\n      swap2\n      swap1\n      tag_46\n      jump\t// in\n    tag_94:\n      mload(0x40)\n      dup1\n      swap2\n      sub\n      swap1\n      return\n        /* \"contracts/ProofOfClick.sol\":696:756  uint256 public constant INITIAL_REWARD          = 666 * 1e18 */\n    tag_14:\n      callvalue\n      dup1\n      iszero\n      tag_95\n      jumpi\n      revert(0x00, 0x00)\n    tag_95:\n      pop\n      tag_96\n      tag_97\n      jump\t// in\n    tag_96:\n      mload(0x40)\n      tag_98\n      swap2\n      swap1\n      tag_46\n      jump\t// in\n    tag_98:\n      mload(0x40)\n      dup1\n      swap2\n      sub\n      swap1\n      return\n        /* \"contracts/ProofOfClick.sol\":4033:4678  function burn(uint256 amount) external {... */\n    tag_15:\n      callvalue\n      dup1\n      iszero\n      tag_99\n      jumpi\n      revert(0x00, 0x00)\n    tag_99:\n      pop\n      tag_100\n      0x04\n      dup1\n      calldatasize\n      sub\n      dup2\n      add\n      swap1\n      tag_101\n      swap2\n      swap1\n      tag_78\n      jump\t// in\n    tag_101:\n      tag_102\n      jump\t// in\n    tag_100:\n      stop\n        /* \"contracts/ProofOfClick.sol\":950:1001  uint256 public constant LIQUIDITY_SHARE         = 5 */\n    tag_16:\n      callvalue\n      dup1\n      iszero\n      tag_103\n      jumpi\n      revert(0x00, 0x00)\n    tag_103:\n      pop\n      tag_104\n      tag_105\n      jump\t// in\n    tag_104:\n      mload(0x40)\n      tag_106\n      swap2\n      swap1\n      tag_46\n      jump\t// in\n    tag_106:\n      mload(0x40)\n      dup1\n      swap2\n      sub\n      swap1\n      return\n        /* \"contracts/ProofOfClick.sol\":625:651  uint256 public lastRoundTs */\n    tag_17:\n      callvalue\n      dup1\n      iszero\n      tag_107\n      jumpi\n      revert(0x00, 0x00)\n    tag_107:\n      pop\n      tag_108\n      tag_109\n      jump\t// in\n    tag_108:\n      mload(0x40)\n      tag_110\n      swap2\n      swap1\n      tag_46\n      jump\t// in\n    tag_110:\n      mload(0x40)\n      dup1\n      swap2\n      sub\n      swap1\n      return\n        /* \"contracts/ProofOfClick.sol\":825:877  uint256 public constant ROUND_DURATION          = 60 */\n    tag_18:\n      callvalue\n      dup1\n      iszero\n      tag_111\n      jumpi\n      revert(0x00, 0x00)\n    tag_111:\n      pop\n      tag_112\n      tag_113\n      jump\t// in\n    tag_112:\n      mload(0x40)\n      tag_114\n      swap2\n      swap1\n      tag_46\n      jump\t// in\n    tag_114:\n      mload(0x40)\n      dup1\n      swap2\n      sub\n      swap1\n      return\n        /* \"contracts/ProofOfClick.sol\":658:687  address public liquidityVault */\n    tag_19:\n      callvalue\n      dup1\n      iszero\n      tag_115\n      jumpi\n      revert(0x00, 0x00)\n    tag_115:\n      pop\n      tag_116\n      tag_117\n      jump\t// in\n    tag_116:\n      mload(0x40)\n      tag_118\n      swap2\n      swap1\n      tag_119\n      jump\t// in\n    tag_118:\n      mload(0x40)\n      dup1\n      swap2\n      sub\n      swap1\n      return\n        /* \"@openzeppelin/contracts/token/ERC20/ERC20.sol\":2933:3049  function balanceOf(address account) public view virtual returns (uint256) {... */\n    tag_20:\n      callvalue\n      dup1\n      iszero\n      tag_120\n      jumpi\n      revert(0x00, 0x00)\n    tag_120:\n      pop\n      tag_121\n      0x04\n      dup1\n      calldatasize\n      sub\n      dup2\n      add\n      swap1\n      tag_122\n      swap2\n      swap1\n      tag_123\n      jump\t// in\n    tag_122:\n      tag_124\n      jump\t// in\n    tag_121:\n      mload(0x40)\n      tag_125\n      swap2\n      swap1\n      tag_46\n      jump\t// in\n    tag_125:\n      mload(0x40)\n      dup1\n      swap2\n      sub\n      swap1\n      return\n        /* \"contracts/ProofOfClick.sol\":558:580  uint256 public roundId */\n    tag_21:\n      callvalue\n      dup1\n      iszero\n      tag_126\n      jumpi\n      revert(0x00, 0x00)\n    tag_126:\n      pop\n      tag_127\n      tag_128\n      jump\t// in\n    tag_127:\n      mload(0x40)\n      tag_129\n      swap2\n      swap1\n      tag_46\n      jump\t// in\n    tag_129:\n      mload(0x40)\n      dup1\n      swap2\n      sub\n      swap1\n      return\n        /* \"@openzeppelin/contracts/token/ERC20/ERC20.sol\":1962:2055  function symbol() public view virtual returns (string memory) {... */\n    tag_22:\n      callvalue\n      dup1\n      iszero\n      tag_130\n      jumpi\n      revert(0x00, 0x00)\n    tag_130:\n      pop\n      tag_131\n      tag_132\n      jump\t// in\n    tag_131:\n      mload(0x40)\n      tag_133\n      swap2\n      swap1\n      tag_41\n      jump\t// in\n    tag_133:\n      mload(0x40)\n      dup1\n      swap2\n      sub\n      swap1\n      return\n        /* \"contracts/ProofOfClick.sol\":587:618  uint256 public lastHalvingRound */\n    tag_23:\n      callvalue\n      dup1\n      iszero\n      tag_134\n      jumpi\n      revert(0x00, 0x00)\n    tag_134:\n      pop\n      tag_135\n      tag_136\n      jump\t// in\n    tag_135:\n      mload(0x40)\n      tag_137\n      swap2\n      swap1\n      tag_46\n      jump\t// in\n    tag_137:\n      mload(0x40)\n      dup1\n      swap2\n      sub\n      swap1\n      return\n        /* \"contracts/ProofOfClick.sol\":1074:1136  mapping(uint256 => mapping(uint256 => address)) public players */\n    tag_24:\n      callvalue\n      dup1\n      iszero\n      tag_138\n      jumpi\n      revert(0x00, 0x00)\n    tag_138:\n      pop\n      tag_139\n      0x04\n      dup1\n      calldatasize\n      sub\n      dup2\n      add\n      swap1\n      tag_140\n      swap2\n      swap1\n      tag_141\n      jump\t// in\n    tag_140:\n      tag_142\n      jump\t// in\n    tag_139:\n      mload(0x40)\n      tag_143\n      swap2\n      swap1\n      tag_119\n      jump\t// in\n    tag_143:\n      mload(0x40)\n      dup1\n      swap2\n      sub\n      swap1\n      return\n        /* \"@openzeppelin/contracts/token/ERC20/ERC20.sol\":3244:3422  function transfer(address to, uint256 value) public virtual returns (bool) {... */\n    tag_25:\n      callvalue\n      dup1\n      iszero\n      tag_144\n      jumpi\n      revert(0x00, 0x00)\n    tag_144:\n      pop\n      tag_145\n      0x04\n      dup1\n      calldatasize\n      sub\n      dup2\n      add\n      swap1\n      tag_146\n      swap2\n      swap1\n      tag_50\n      jump\t// in\n    tag_146:\n      tag_147\n      jump\t// in\n    tag_145:\n      mload(0x40)\n      tag_148\n      swap2\n      swap1\n      tag_53\n      jump\t// in\n    tag_148:\n      mload(0x40)\n      dup1\n      swap2\n      sub\n      swap1\n      return\n        /* \"contracts/ProofOfClick.sol\":884:943  uint256 public constant FEE                     = 0.1 ether */\n    tag_26:\n      callvalue\n      dup1\n      iszero\n      tag_149\n      jumpi\n      revert(0x00, 0x00)\n    tag_149:\n      pop\n      tag_150\n      tag_151\n      jump\t// in\n    tag_150:\n      mload(0x40)\n      tag_152\n      swap2\n      swap1\n      tag_46\n      jump\t// in\n    tag_152:\n      mload(0x40)\n      dup1\n      swap2\n      sub\n      swap1\n      return\n        /* \"contracts/ProofOfClick.sol\":492:516  uint256 public maxSupply */\n    tag_27:\n      callvalue\n      dup1\n      iszero\n      tag_153\n      jumpi\n      revert(0x00, 0x00)\n    tag_153:\n      pop\n      tag_154\n      tag_155\n      jump\t// in\n    tag_154:\n      mload(0x40)\n      tag_156\n      swap2\n      swap1\n      tag_46\n      jump\t// in\n    tag_156:\n      mload(0x40)\n      dup1\n      swap2\n      sub\n      swap1\n      return\n        /* \"@openzeppelin/contracts/token/ERC20/ERC20.sol\":3455:3595  function allowance(address owner, address spender) public view virtual returns (uint256) {... */\n    tag_28:\n      callvalue\n      dup1\n      iszero\n      tag_157\n      jumpi\n      revert(0x00, 0x00)\n    tag_157:\n      pop\n      tag_158\n      0x04\n      dup1\n      calldatasize\n      sub\n      dup2\n      add\n      swap1\n      tag_159\n      swap2\n      swap1\n      tag_160\n      jump\t// in\n    tag_159:\n      tag_161\n      jump\t// in\n    tag_158:\n      mload(0x40)\n      tag_162\n      swap2\n      swap1\n      tag_46\n      jump\t// in\n    tag_162:\n      mload(0x40)\n      dup1\n      swap2\n      sub\n      swap1\n      return\n        /* \"contracts/ProofOfClick.sol\":5503:5632  function getPlayersCountInRound(uint256 _roundId) external view returns (uint256) {... */\n    tag_29:\n      callvalue\n      dup1\n      iszero\n      tag_163\n      jumpi\n      revert(0x00, 0x00)\n    tag_163:\n      pop\n      tag_164\n      0x04\n      dup1\n      calldatasize\n      sub\n      dup2\n      add\n      swap1\n      tag_165\n      swap2\n      swap1\n      tag_78\n      jump\t// in\n    tag_165:\n      tag_166\n      jump\t// in\n    tag_164:\n      mload(0x40)\n      tag_167\n      swap2\n      swap1\n      tag_46\n      jump\t// in\n    tag_167:\n      mload(0x40)\n      dup1\n      swap2\n      sub\n      swap1\n      return\n        /* \"@openzeppelin/contracts/token/ERC20/ERC20.sol\":1760:1849  function name() public view virtual returns (string memory) {... */\n    tag_39:\n        /* \"@openzeppelin/contracts/token/ERC20/ERC20.sol\":1805:1818  string memory */\n      0x60\n        /* \"@openzeppelin/contracts/token/ERC20/ERC20.sol\":1837:1842  _name */\n      0x03\n        /* \"@openzeppelin/contracts/token/ERC20/ERC20.sol\":1830:1842  return _name */\n      dup1\n      sload\n      tag_169\n      swap1\n      tag_170\n      jump\t// in\n    tag_169:\n      dup1\n      0x1f\n      add\n      0x20\n      dup1\n      swap2\n      div\n      mul\n      0x20\n      add\n      mload(0x40)\n      swap1\n      dup2\n      add\n      0x40\n      mstore\n      dup1\n      swap3\n      swap2\n      swap1\n      dup2\n      dup2\n      mstore\n      0x20\n      add\n      dup3\n      dup1\n      sload\n      tag_171\n      swap1\n      tag_170\n      jump\t// in\n    tag_171:\n      dup1\n      iszero\n      tag_172\n      jumpi\n      dup1\n      0x1f\n      lt\n      tag_173\n      jumpi\n      0x0100\n      dup1\n      dup4\n      sload\n      div\n      mul\n      dup4\n      mstore\n      swap2\n      0x20\n      add\n      swap2\n      jump(tag_172)\n    tag_173:\n      dup3\n      add\n      swap2\n      swap1\n      0x00\n      mstore\n      keccak256(0x00, 0x20)\n      swap1\n    tag_174:\n      dup2\n      sload\n      dup2\n      mstore\n      swap1\n      0x01\n      add\n      swap1\n      0x20\n      add\n      dup1\n      dup4\n      gt\n      tag_174\n      jumpi\n      dup3\n      swap1\n      sub\n      0x1f\n      and\n      dup3\n      add\n      swap2\n    tag_172:\n      pop\n      pop\n      pop\n      pop\n      pop\n      swap1\n      pop\n        /* \"@openzeppelin/contracts/token/ERC20/ERC20.sol\":1760:1849  function name() public view virtual returns (string memory) {... */\n      swap1\n      jump\t// out\n        /* \"contracts/ProofOfClick.sol\":523:551  uint256 public currentReward */\n    tag_44:\n      sload(0x06)\n      dup2\n      jump\t// out\n        /* \"@openzeppelin/contracts/token/ERC20/ERC20.sol\":3902:4088  function approve(address spender, uint256 value) public virtual returns (bool) {... */\n    tag_51:\n        /* \"@openzeppelin/contracts/token/ERC20/ERC20.sol\":3975:3979  bool */\n      0x00\n        /* \"@openzeppelin/contracts/token/ERC20/ERC20.sol\":3991:4004  address owner */\n      0x00\n        /* \"@openzeppelin/contracts/token/ERC20/ERC20.sol\":4007:4019  _msgSender() */\n      tag_176\n        /* \"@openzeppelin/contracts/token/ERC20/ERC20.sol\":4007:4017  _msgSender */\n      tag_177\n        /* \"@openzeppelin/contracts/token/ERC20/ERC20.sol\":4007:4019  _msgSender() */\n      jump\t// in\n    tag_176:\n        /* \"@openzeppelin/contracts/token/ERC20/ERC20.sol\":3991:4019  address owner = _msgSender() */\n      swap1\n      pop\n        /* \"@openzeppelin/contracts/token/ERC20/ERC20.sol\":4029:4060  _approve(owner, spender, value) */\n      tag_178\n        /* \"@openzeppelin/contracts/token/ERC20/ERC20.sol\":4038:4043  owner */\n      dup2\n        /* \"@openzeppelin/contracts/token/ERC20/ERC20.sol\":4045:4052  spender */\n      dup6\n        /* \"@openzeppelin/contracts/token/ERC20/ERC20.sol\":4054:4059  value */\n      dup6\n        /* \"@openzeppelin/contracts/token/ERC20/ERC20.sol\":4029:4037  _approve */\n      tag_179\n        /* \"@openzeppelin/contracts/token/ERC20/ERC20.sol\":4029:4060  _approve(owner, spender, value) */\n      jump\t// in\n    tag_178:\n        /* \"@openzeppelin/contracts/token/ERC20/ERC20.sol\":4077:4081  true */\n      0x01\n        /* \"@openzeppelin/contracts/token/ERC20/ERC20.sol\":4070:4081  return true */\n      swap2\n      pop\n      pop\n        /* \"@openzeppelin/contracts/token/ERC20/ERC20.sol\":3902:4088  function approve(address spender, uint256 value) public virtual returns (bool) {... */\n      swap3\n      swap2\n      pop\n      pop\n      jump\t// out\n        /* \"@openzeppelin/contracts/token/ERC20/ERC20.sol\":2803:2900  function totalSupply() public view virtual returns (uint256) {... */\n    tag_56:\n        /* \"@openzeppelin/contracts/token/ERC20/ERC20.sol\":2855:2862  uint256 */\n      0x00\n        /* \"@openzeppelin/contracts/token/ERC20/ERC20.sol\":2881:2893  _totalSupply */\n      sload(0x02)\n        /* \"@openzeppelin/contracts/token/ERC20/ERC20.sol\":2874:2893  return _totalSupply */\n      swap1\n      pop\n        /* \"@openzeppelin/contracts/token/ERC20/ERC20.sol\":2803:2900  function totalSupply() public view virtual returns (uint256) {... */\n      swap1\n      jump\t// out\n        /* \"contracts/ProofOfClick.sol\":2093:4025  function Click() external payable {... */\n    tag_59:\n        /* \"contracts/ProofOfClick.sol\":934:943  0.1 ether */\n      0x016345785d8a0000\n        /* \"contracts/ProofOfClick.sol\":2142:2151  msg.value */\n      callvalue\n        /* \"contracts/ProofOfClick.sol\":2142:2157  msg.value < FEE */\n      lt\n        /* \"contracts/ProofOfClick.sol\":2138:2177  if (msg.value < FEE) revert FeeTooLow() */\n      iszero\n      tag_182\n      jumpi\n        /* \"contracts/ProofOfClick.sol\":2166:2177  FeeTooLow() */\n      mload(0x40)\n      0x732f941300000000000000000000000000000000000000000000000000000000\n      dup2\n      mstore\n      0x04\n      add\n      mload(0x40)\n      dup1\n      swap2\n      sub\n      swap1\n      revert\n        /* \"contracts/ProofOfClick.sol\":2138:2177  if (msg.value < FEE) revert FeeTooLow() */\n    tag_182:\n        /* \"contracts/ProofOfClick.sol\":2190:2203  bool timeIsUp */\n      0x00\n        /* \"contracts/ProofOfClick.sol\":875:877  60 */\n      0x3c\n        /* \"contracts/ProofOfClick.sol\":2226:2237  lastRoundTs */\n      sload(0x09)\n        /* \"contracts/ProofOfClick.sol\":2226:2254  lastRoundTs + ROUND_DURATION */\n      tag_183\n      swap2\n      swap1\n      tag_184\n      jump\t// in\n    tag_183:\n        /* \"contracts/ProofOfClick.sol\":2207:2222  block.timestamp */\n      timestamp\n        /* \"contracts/ProofOfClick.sol\":2207:2254  block.timestamp >= lastRoundTs + ROUND_DURATION */\n      lt\n      iszero\n        /* \"contracts/ProofOfClick.sol\":2190:2255  bool timeIsUp = (block.timestamp >= lastRoundTs + ROUND_DURATION) */\n      swap1\n      pop\n        /* \"contracts/ProofOfClick.sol\":2266:2281  bool hasPlayers */\n      0x00\n        /* \"contracts/ProofOfClick.sol\":2308:2309  0 */\n      0x00\n        /* \"contracts/ProofOfClick.sol\":2285:2296  playerCount */\n      0x0c\n        /* \"contracts/ProofOfClick.sol\":2285:2305  playerCount[roundId] */\n      0x00\n        /* \"contracts/ProofOfClick.sol\":2297:2304  roundId */\n      sload(0x07)\n        /* \"contracts/ProofOfClick.sol\":2285:2305  playerCount[roundId] */\n      dup2\n      mstore\n      0x20\n      add\n      swap1\n      dup2\n      mstore\n      0x20\n      add\n      0x00\n      keccak256\n      sload\n        /* \"contracts/ProofOfClick.sol\":2285:2309  playerCount[roundId] > 0 */\n      gt\n        /* \"contracts/ProofOfClick.sol\":2266:2310  bool hasPlayers = (playerCount[roundId] > 0) */\n      swap1\n      pop\n        /* \"contracts/ProofOfClick.sol\":2327:2335  timeIsUp */\n      dup2\n        /* \"contracts/ProofOfClick.sol\":2327:2349  timeIsUp && hasPlayers */\n      dup1\n      iszero\n      tag_185\n      jumpi\n      pop\n        /* \"contracts/ProofOfClick.sol\":2339:2349  hasPlayers */\n      dup1\n        /* \"contracts/ProofOfClick.sol\":2327:2349  timeIsUp && hasPlayers */\n    tag_185:\n        /* \"contracts/ProofOfClick.sol\":2323:3449  if (timeIsUp && hasPlayers) {... */\n      iszero\n      tag_186\n      jumpi\n        /* \"contracts/ProofOfClick.sol\":2366:2380  uint256 vrfFee */\n      0x00\n        /* \"contracts/ProofOfClick.sol\":2408:2423  _vrfCoordinator */\n      immutable(\"0x4c4fd4da8ae1c1f2895da0cdd646517e3d75688175eb5d33ccff8a0b8439df64\")\n        /* \"contracts/ProofOfClick.sol\":2383:2452  IPaintswapVRFCoordinator(_vrfCoordinator).calculateRequestPriceNative */\n      0xffffffffffffffffffffffffffffffffffffffff\n      and\n      0xc66d3d18\n        /* \"contracts/ProofOfClick.sol\":1058:1065  200_000 */\n      0x030d40\n        /* \"contracts/ProofOfClick.sol\":2383:2472  IPaintswapVRFCoordinator(_vrfCoordinator).calculateRequestPriceNative(CALLBACK_GAS_LIMIT) */\n      mload(0x40)\n      dup3\n      0xffffffff\n      and\n      0xe0\n      shl\n      dup2\n      mstore\n      0x04\n      add\n      tag_187\n      swap2\n      swap1\n      tag_188\n      jump\t// in\n    tag_187:\n      0x20\n      mload(0x40)\n      dup1\n      dup4\n      sub\n      dup2\n      dup7\n      gas\n      staticcall\n      iszero\n      dup1\n      iszero\n      tag_190\n      jumpi\n      returndatacopy(0x00, 0x00, returndatasize)\n      revert(0x00, returndatasize)\n    tag_190:\n      pop\n      pop\n      pop\n      pop\n      mload(0x40)\n      returndatasize\n      not(0x1f)\n      0x1f\n      dup3\n      add\n      and\n      dup3\n      add\n      dup1\n      0x40\n      mstore\n      pop\n      dup2\n      add\n      swap1\n      tag_191\n      swap2\n      swap1\n      tag_192\n      jump\t// in\n    tag_191:\n        /* \"contracts/ProofOfClick.sol\":2366:2472  uint256 vrfFee = IPaintswapVRFCoordinator(_vrfCoordinator).calculateRequestPriceNative(CALLBACK_GAS_LIMIT) */\n      swap1\n      pop\n        /* \"contracts/ProofOfClick.sol\":2515:2521  vrfFee */\n      dup1\n        /* \"contracts/ProofOfClick.sol\":2491:2512  address(this).balance */\n      selfbalance\n        /* \"contracts/ProofOfClick.sol\":2491:2521  address(this).balance < vrfFee */\n      lt\n        /* \"contracts/ProofOfClick.sol\":2487:2559  if (address(this).balance < vrfFee) revert InsufficientContractBalance() */\n      iszero\n      tag_193\n      jumpi\n        /* \"contracts/ProofOfClick.sol\":2530:2559  InsufficientContractBalance() */\n      mload(0x40)\n      0x786e0a9900000000000000000000000000000000000000000000000000000000\n      dup2\n      mstore\n      0x04\n      add\n      mload(0x40)\n      dup1\n      swap2\n      sub\n      swap1\n      revert\n        /* \"contracts/ProofOfClick.sol\":2487:2559  if (address(this).balance < vrfFee) revert InsufficientContractBalance() */\n    tag_193:\n        /* \"contracts/ProofOfClick.sol\":2576:2589  uint256 count */\n      0x00\n        /* \"contracts/ProofOfClick.sol\":2592:2603  playerCount */\n      0x0c\n        /* \"contracts/ProofOfClick.sol\":2592:2612  playerCount[roundId] */\n      0x00\n        /* \"contracts/ProofOfClick.sol\":2604:2611  roundId */\n      sload(0x07)\n        /* \"contracts/ProofOfClick.sol\":2592:2612  playerCount[roundId] */\n      dup2\n      mstore\n      0x20\n      add\n      swap1\n      dup2\n      mstore\n      0x20\n      add\n      0x00\n      keccak256\n      sload\n        /* \"contracts/ProofOfClick.sol\":2576:2612  uint256 count = playerCount[roundId] */\n      swap1\n      pop\n        /* \"contracts/ProofOfClick.sol\":2627:2649  uint256 rewardForRound */\n      0x00\n        /* \"contracts/ProofOfClick.sol\":2652:2666  rewardPerRound */\n      0x0e\n        /* \"contracts/ProofOfClick.sol\":2652:2675  rewardPerRound[roundId] */\n      0x00\n        /* \"contracts/ProofOfClick.sol\":2667:2674  roundId */\n      sload(0x07)\n        /* \"contracts/ProofOfClick.sol\":2652:2675  rewardPerRound[roundId] */\n      dup2\n      mstore\n      0x20\n      add\n      swap1\n      dup2\n      mstore\n      0x20\n      add\n      0x00\n      keccak256\n      sload\n        /* \"contracts/ProofOfClick.sol\":2627:2675  uint256 rewardForRound = rewardPerRound[roundId] */\n      swap1\n      pop\n        /* \"contracts/ProofOfClick.sol\":2712:2713  0 */\n      0x00\n        /* \"contracts/ProofOfClick.sol\":2694:2708  rewardForRound */\n      dup2\n        /* \"contracts/ProofOfClick.sol\":2694:2713  rewardForRound == 0 */\n      sub\n        /* \"contracts/ProofOfClick.sol\":2690:2745  if (rewardForRound == 0) rewardForRound = currentReward */\n      tag_194\n      jumpi\n        /* \"contracts/ProofOfClick.sol\":2732:2745  currentReward */\n      sload(0x06)\n        /* \"contracts/ProofOfClick.sol\":2715:2745  rewardForRound = currentReward */\n      swap1\n      pop\n        /* \"contracts/ProofOfClick.sol\":2690:2745  if (rewardForRound == 0) rewardForRound = currentReward */\n    tag_194:\n        /* \"contracts/ProofOfClick.sol\":2762:2779  uint256 requestId */\n      0x00\n        /* \"contracts/ProofOfClick.sol\":2807:2822  _vrfCoordinator */\n      immutable(\"0x4c4fd4da8ae1c1f2895da0cdd646517e3d75688175eb5d33ccff8a0b8439df64\")\n        /* \"contracts/ProofOfClick.sol\":2782:2870  IPaintswapVRFCoordinator(_vrfCoordinator)... */\n      0xffffffffffffffffffffffffffffffffffffffff\n      and\n      0xcb9bb27f\n        /* \"contracts/ProofOfClick.sol\":2878:2884  vrfFee */\n      dup6\n        /* \"contracts/ProofOfClick.sol\":1058:1065  200_000 */\n      0x030d40\n        /* \"contracts/ProofOfClick.sol\":2949:2950  1 */\n      0x01\n        /* \"contracts/ProofOfClick.sol\":2981:2985  this */\n      address\n        /* \"contracts/ProofOfClick.sol\":2782:3005  IPaintswapVRFCoordinator(_vrfCoordinator)... */\n      mload(0x40)\n      dup6\n      0xffffffff\n      and\n      0xe0\n      shl\n      dup2\n      mstore\n      0x04\n      add\n      tag_195\n      swap4\n      swap3\n      swap2\n      swap1\n      tag_196\n      jump\t// in\n    tag_195:\n      0x20\n      mload(0x40)\n      dup1\n      dup4\n      sub\n      dup2\n      dup6\n      dup9\n      gas\n      call\n      iszero\n      dup1\n      iszero\n      tag_198\n      jumpi\n      returndatacopy(0x00, 0x00, returndatasize)\n      revert(0x00, returndatasize)\n    tag_198:\n      pop\n      pop\n      pop\n      pop\n      pop\n      mload(0x40)\n      returndatasize\n      not(0x1f)\n      0x1f\n      dup3\n      add\n      and\n      dup3\n      add\n      dup1\n      0x40\n      mstore\n      pop\n      dup2\n      add\n      swap1\n      tag_199\n      swap2\n      swap1\n      tag_192\n      jump\t// in\n    tag_199:\n        /* \"contracts/ProofOfClick.sol\":2762:3005  uint256 requestId = IPaintswapVRFCoordinator(_vrfCoordinator)... */\n      swap1\n      pop\n        /* \"contracts/ProofOfClick.sol\":3052:3059  roundId */\n      sload(0x07)\n        /* \"contracts/ProofOfClick.sol\":3022:3038  requestToRoundId */\n      0x0d\n        /* \"contracts/ProofOfClick.sol\":3022:3049  requestToRoundId[requestId] */\n      0x00\n        /* \"contracts/ProofOfClick.sol\":3039:3048  requestId */\n      dup4\n        /* \"contracts/ProofOfClick.sol\":3022:3049  requestToRoundId[requestId] */\n      dup2\n      mstore\n      0x20\n      add\n      swap1\n      dup2\n      mstore\n      0x20\n      add\n      0x00\n      keccak256\n        /* \"contracts/ProofOfClick.sol\":3022:3059  requestToRoundId[requestId] = roundId */\n      dup2\n      swap1\n      sstore\n      pop\n        /* \"contracts/ProofOfClick.sol\":3100:3114  rewardForRound */\n      dup2\n        /* \"contracts/ProofOfClick.sol\":3074:3088  rewardPerRound */\n      0x0e\n        /* \"contracts/ProofOfClick.sol\":3074:3097  rewardPerRound[roundId] */\n      0x00\n        /* \"contracts/ProofOfClick.sol\":3089:3096  roundId */\n      sload(0x07)\n        /* \"contracts/ProofOfClick.sol\":3074:3097  rewardPerRound[roundId] */\n      dup2\n      mstore\n      0x20\n      add\n      swap1\n      dup2\n      mstore\n      0x20\n      add\n      0x00\n      keccak256\n        /* \"contracts/ProofOfClick.sol\":3074:3114  rewardPerRound[roundId] = rewardForRound */\n      dup2\n      swap1\n      sstore\n      pop\n        /* \"contracts/ProofOfClick.sol\":3160:3167  roundId */\n      sload(0x07)\n        /* \"contracts/ProofOfClick.sol\":3149:3158  requestId */\n      dup2\n        /* \"contracts/ProofOfClick.sol\":3134:3191  RoundRequested(requestId, roundId, count, rewardForRound) */\n      0xa77018cfa060263f92c58b53277f73d2eade9d69e943460421e26e648eed9f33\n        /* \"contracts/ProofOfClick.sol\":3169:3174  count */\n      dup6\n        /* \"contracts/ProofOfClick.sol\":3176:3190  rewardForRound */\n      dup6\n        /* \"contracts/ProofOfClick.sol\":3134:3191  RoundRequested(requestId, roundId, count, rewardForRound) */\n      mload(0x40)\n      tag_200\n      swap3\n      swap2\n      swap1\n      tag_201\n      jump\t// in\n    tag_200:\n      mload(0x40)\n      dup1\n      swap2\n      sub\n      swap1\n      log3\n        /* \"contracts/ProofOfClick.sol\":813:818  50050 */\n      0xc382\n        /* \"contracts/ProofOfClick.sol\":3223:3239  lastHalvingRound */\n      sload(0x08)\n        /* \"contracts/ProofOfClick.sol\":3223:3265  lastHalvingRound + HALVING_INTERVAL_ROUNDS */\n      tag_202\n      swap2\n      swap1\n      tag_184\n      jump\t// in\n    tag_202:\n        /* \"contracts/ProofOfClick.sol\":3212:3219  roundId */\n      sload(0x07)\n        /* \"contracts/ProofOfClick.sol\":3212:3265  roundId >= lastHalvingRound + HALVING_INTERVAL_ROUNDS */\n      lt\n        /* \"contracts/ProofOfClick.sol\":3208:3365  if (roundId >= lastHalvingRound + HALVING_INTERVAL_ROUNDS) {... */\n      tag_203\n      jumpi\n        /* \"contracts/ProofOfClick.sol\":3303:3304  2 */\n      0x02\n        /* \"contracts/ProofOfClick.sol\":3286:3299  currentReward */\n      0x06\n      0x00\n        /* \"contracts/ProofOfClick.sol\":3286:3304  currentReward /= 2 */\n      dup3\n      dup3\n      sload\n      tag_204\n      swap2\n      swap1\n      tag_205\n      jump\t// in\n    tag_204:\n      swap3\n      pop\n      pop\n      dup2\n      swap1\n      sstore\n      pop\n        /* \"contracts/ProofOfClick.sol\":3342:3349  roundId */\n      sload(0x07)\n        /* \"contracts/ProofOfClick.sol\":3323:3339  lastHalvingRound */\n      0x08\n        /* \"contracts/ProofOfClick.sol\":3323:3349  lastHalvingRound = roundId */\n      dup2\n      swap1\n      sstore\n      pop\n        /* \"contracts/ProofOfClick.sol\":3208:3365  if (roundId >= lastHalvingRound + HALVING_INTERVAL_ROUNDS) {... */\n    tag_203:\n        /* \"contracts/ProofOfClick.sol\":3392:3393  1 */\n      0x01\n        /* \"contracts/ProofOfClick.sol\":3381:3388  roundId */\n      0x07\n      0x00\n        /* \"contracts/ProofOfClick.sol\":3381:3393  roundId += 1 */\n      dup3\n      dup3\n      sload\n      tag_206\n      swap2\n      swap1\n      tag_184\n      jump\t// in\n    tag_206:\n      swap3\n      pop\n      pop\n      dup2\n      swap1\n      sstore\n      pop\n        /* \"contracts/ProofOfClick.sol\":3422:3437  block.timestamp */\n      timestamp\n        /* \"contracts/ProofOfClick.sol\":3408:3419  lastRoundTs */\n      0x09\n        /* \"contracts/ProofOfClick.sol\":3408:3437  lastRoundTs = block.timestamp */\n      dup2\n      swap1\n      sstore\n      pop\n        /* \"contracts/ProofOfClick.sol\":2351:3449  {... */\n      pop\n      pop\n      pop\n      pop\n        /* \"contracts/ProofOfClick.sol\":2323:3449  if (timeIsUp && hasPlayers) {... */\n    tag_186:\n        /* \"contracts/ProofOfClick.sol\":3461:3472  uint256 idx */\n      0x00\n        /* \"contracts/ProofOfClick.sol\":3475:3486  playerCount */\n      0x0c\n        /* \"contracts/ProofOfClick.sol\":3475:3495  playerCount[roundId] */\n      0x00\n        /* \"contracts/ProofOfClick.sol\":3487:3494  roundId */\n      sload(0x07)\n        /* \"contracts/ProofOfClick.sol\":3475:3495  playerCount[roundId] */\n      dup2\n      mstore\n      0x20\n      add\n      swap1\n      dup2\n      mstore\n      0x20\n      add\n      0x00\n      keccak256\n      sload\n        /* \"contracts/ProofOfClick.sol\":3461:3495  uint256 idx = playerCount[roundId] */\n      swap1\n      pop\n        /* \"contracts/ProofOfClick.sol\":3530:3540  msg.sender */\n      caller\n        /* \"contracts/ProofOfClick.sol\":3506:3513  players */\n      0x0b\n        /* \"contracts/ProofOfClick.sol\":3506:3522  players[roundId] */\n      0x00\n        /* \"contracts/ProofOfClick.sol\":3514:3521  roundId */\n      sload(0x07)\n        /* \"contracts/ProofOfClick.sol\":3506:3522  players[roundId] */\n      dup2\n      mstore\n      0x20\n      add\n      swap1\n      dup2\n      mstore\n      0x20\n      add\n      0x00\n      keccak256\n        /* \"contracts/ProofOfClick.sol\":3506:3527  players[roundId][idx] */\n      0x00\n        /* \"contracts/ProofOfClick.sol\":3523:3526  idx */\n      dup4\n        /* \"contracts/ProofOfClick.sol\":3506:3527  players[roundId][idx] */\n      dup2\n      mstore\n      0x20\n      add\n      swap1\n      dup2\n      mstore\n      0x20\n      add\n      0x00\n      keccak256\n      0x00\n        /* \"contracts/ProofOfClick.sol\":3506:3540  players[roundId][idx] = msg.sender */\n      0x0100\n      exp\n      dup2\n      sload\n      dup2\n      0xffffffffffffffffffffffffffffffffffffffff\n      mul\n      not\n      and\n      swap1\n      dup4\n      0xffffffffffffffffffffffffffffffffffffffff\n      and\n      mul\n      or\n      swap1\n      sstore\n      pop\n        /* \"contracts/ProofOfClick.sol\":3580:3581  1 */\n      0x01\n        /* \"contracts/ProofOfClick.sol\":3574:3577  idx */\n      dup2\n        /* \"contracts/ProofOfClick.sol\":3574:3581  idx + 1 */\n      tag_207\n      swap2\n      swap1\n      tag_184\n      jump\t// in\n    tag_207:\n        /* \"contracts/ProofOfClick.sol\":3551:3562  playerCount */\n      0x0c\n        /* \"contracts/ProofOfClick.sol\":3551:3571  playerCount[roundId] */\n      0x00\n        /* \"contracts/ProofOfClick.sol\":3563:3570  roundId */\n      sload(0x07)\n        /* \"contracts/ProofOfClick.sol\":3551:3571  playerCount[roundId] */\n      dup2\n      mstore\n      0x20\n      add\n      swap1\n      dup2\n      mstore\n      0x20\n      add\n      0x00\n      keccak256\n        /* \"contracts/ProofOfClick.sol\":3551:3581  playerCount[roundId] = idx + 1 */\n      dup2\n      swap1\n      sstore\n      pop\n        /* \"contracts/ProofOfClick.sol\":3616:3626  msg.sender */\n      caller\n        /* \"contracts/ProofOfClick.sol\":3599:3627  Clicked(roundId, msg.sender) */\n      0xffffffffffffffffffffffffffffffffffffffff\n      and\n        /* \"contracts/ProofOfClick.sol\":3607:3614  roundId */\n      sload(0x07)\n        /* \"contracts/ProofOfClick.sol\":3599:3627  Clicked(roundId, msg.sender) */\n      0x66f19fb732c3e13893ea1bb5573839d7d0b41effc0aef6b59283c15ea5a0dbf9\n      mload(0x40)\n      mload(0x40)\n      dup1\n      swap2\n      sub\n      swap1\n      log3\n        /* \"contracts/ProofOfClick.sol\":3640:3663  uint256 liquidityAmount */\n      0x00\n        /* \"contracts/ProofOfClick.sol\":3692:3695  100 */\n      0x64\n        /* \"contracts/ProofOfClick.sol\":1000:1001  5 */\n      0x05\n        /* \"contracts/ProofOfClick.sol\":934:943  0.1 ether */\n      0x016345785d8a0000\n        /* \"contracts/ProofOfClick.sol\":3667:3688  FEE * LIQUIDITY_SHARE */\n      tag_208\n      swap2\n      swap1\n      tag_209\n      jump\t// in\n    tag_208:\n        /* \"contracts/ProofOfClick.sol\":3666:3695  (FEE * LIQUIDITY_SHARE) / 100 */\n      tag_210\n      swap2\n      swap1\n      tag_205\n      jump\t// in\n    tag_210:\n        /* \"contracts/ProofOfClick.sol\":3640:3695  uint256 liquidityAmount = (FEE * LIQUIDITY_SHARE) / 100 */\n      swap1\n      pop\n        /* \"contracts/ProofOfClick.sol\":3707:3714  bool ok */\n      0x00\n        /* \"contracts/ProofOfClick.sol\":3728:3742  liquidityVault */\n      0x0a\n      0x00\n      swap1\n      sload\n      swap1\n      0x0100\n      exp\n      swap1\n      div\n      0xffffffffffffffffffffffffffffffffffffffff\n      and\n        /* \"contracts/ProofOfClick.sol\":3720:3748  payable(liquidityVault).call */\n      0xffffffffffffffffffffffffffffffffffffffff\n      and\n        /* \"contracts/ProofOfClick.sol\":3756:3771  liquidityAmount */\n      dup3\n        /* \"contracts/ProofOfClick.sol\":3720:3776  payable(liquidityVault).call{value: liquidityAmount}(\"\") */\n      mload(0x40)\n      tag_211\n      swap1\n      tag_212\n      jump\t// in\n    tag_211:\n      0x00\n      mload(0x40)\n      dup1\n      dup4\n      sub\n      dup2\n      dup6\n      dup8\n      gas\n      call\n      swap3\n      pop\n      pop\n      pop\n      returndatasize\n      dup1\n      0x00\n      dup2\n      eq\n      tag_215\n      jumpi\n      mload(0x40)\n      swap2\n      pop\n      and(add(returndatasize, 0x3f), not(0x1f))\n      dup3\n      add\n      0x40\n      mstore\n      returndatasize\n      dup3\n      mstore\n      returndatasize\n      0x00\n      0x20\n      dup5\n      add\n      returndatacopy\n      jump(tag_214)\n    tag_215:\n      0x60\n      swap2\n      pop\n    tag_214:\n      pop\n        /* \"contracts/ProofOfClick.sol\":3706:3776  (bool ok, ) = payable(liquidityVault).call{value: liquidityAmount}(\"\") */\n      pop\n      swap1\n      pop\n        /* \"contracts/ProofOfClick.sol\":3792:3794  ok */\n      dup1\n        /* \"contracts/ProofOfClick.sol\":3787:3822  if (!ok) revert FeeTransferFailed() */\n      tag_216\n      jumpi\n        /* \"contracts/ProofOfClick.sol\":3803:3822  FeeTransferFailed() */\n      mload(0x40)\n      0x4033e4e300000000000000000000000000000000000000000000000000000000\n      dup2\n      mstore\n      0x04\n      add\n      mload(0x40)\n      dup1\n      swap2\n      sub\n      swap1\n      revert\n        /* \"contracts/ProofOfClick.sol\":3787:3822  if (!ok) revert FeeTransferFailed() */\n    tag_216:\n        /* \"contracts/ProofOfClick.sol\":3835:3849  uint256 change */\n      0x00\n        /* \"contracts/ProofOfClick.sol\":934:943  0.1 ether */\n      0x016345785d8a0000\n        /* \"contracts/ProofOfClick.sol\":3852:3861  msg.value */\n      callvalue\n        /* \"contracts/ProofOfClick.sol\":3852:3867  msg.value - FEE */\n      tag_217\n      swap2\n      swap1\n      tag_218\n      jump\t// in\n    tag_217:\n        /* \"contracts/ProofOfClick.sol\":3835:3867  uint256 change = msg.value - FEE */\n      swap1\n      pop\n        /* \"contracts/ProofOfClick.sol\":3891:3892  0 */\n      0x00\n        /* \"contracts/ProofOfClick.sol\":3882:3888  change */\n      dup2\n        /* \"contracts/ProofOfClick.sol\":3882:3892  change > 0 */\n      gt\n        /* \"contracts/ProofOfClick.sol\":3878:4018  if (change > 0) {... */\n      iszero\n      tag_219\n      jumpi\n        /* \"contracts/ProofOfClick.sol\":3926:3936  msg.sender */\n      caller\n        /* \"contracts/ProofOfClick.sol\":3918:3942  payable(msg.sender).call */\n      0xffffffffffffffffffffffffffffffffffffffff\n      and\n        /* \"contracts/ProofOfClick.sol\":3950:3956  change */\n      dup2\n        /* \"contracts/ProofOfClick.sol\":3918:3961  payable(msg.sender).call{value: change}(\"\") */\n      mload(0x40)\n      tag_220\n      swap1\n      tag_212\n      jump\t// in\n    tag_220:\n      0x00\n      mload(0x40)\n      dup1\n      dup4\n      sub\n      dup2\n      dup6\n      dup8\n      gas\n      call\n      swap3\n      pop\n      pop\n      pop\n      returndatasize\n      dup1\n      0x00\n      dup2\n      eq\n      tag_223\n      jumpi\n      mload(0x40)\n      swap2\n      pop\n      and(add(returndatasize, 0x3f), not(0x1f))\n      dup3\n      add\n      0x40\n      mstore\n      returndatasize\n      dup3\n      mstore\n      returndatasize\n      0x00\n      0x20\n      dup5\n      add\n      returndatacopy\n      jump(tag_222)\n    tag_223:\n      0x60\n      swap2\n      pop\n    tag_222:\n      pop\n        /* \"contracts/ProofOfClick.sol\":3909:3961  (ok, ) = payable(msg.sender).call{value: change}(\"\") */\n      pop\n      dup1\n      swap3\n      pop\n      pop\n        /* \"contracts/ProofOfClick.sol\":3981:3983  ok */\n      dup2\n        /* \"contracts/ProofOfClick.sol\":3976:4006  if (!ok) revert RefundFailed() */\n      tag_224\n      jumpi\n        /* \"contracts/ProofOfClick.sol\":3992:4006  RefundFailed() */\n      mload(0x40)\n      0xf0c49d4400000000000000000000000000000000000000000000000000000000\n      dup2\n      mstore\n      0x04\n      add\n      mload(0x40)\n      dup1\n      swap2\n      sub\n      swap1\n      revert\n        /* \"contracts/ProofOfClick.sol\":3976:4006  if (!ok) revert RefundFailed() */\n    tag_224:\n        /* \"contracts/ProofOfClick.sol\":3878:4018  if (change > 0) {... */\n    tag_219:\n        /* \"contracts/ProofOfClick.sol\":2127:4025  {... */\n      pop\n      pop\n      pop\n      pop\n      pop\n      pop\n        /* \"contracts/ProofOfClick.sol\":2093:4025  function Click() external payable {... */\n      jump\t// out\n        /* \"contracts/ProofOfClick.sol\":5640:5768  function nextHalvingRound() external view returns (uint256) {... */\n    tag_62:\n        /* \"contracts/ProofOfClick.sol\":5691:5698  uint256 */\n      0x00\n        /* \"contracts/ProofOfClick.sol\":813:818  50050 */\n      0xc382\n        /* \"contracts/ProofOfClick.sol\":5718:5734  lastHalvingRound */\n      sload(0x08)\n        /* \"contracts/ProofOfClick.sol\":5718:5760  lastHalvingRound + HALVING_INTERVAL_ROUNDS */\n      tag_226\n      swap2\n      swap1\n      tag_184\n      jump\t// in\n    tag_226:\n        /* \"contracts/ProofOfClick.sol\":5711:5760  return lastHalvingRound + HALVING_INTERVAL_ROUNDS */\n      swap1\n      pop\n        /* \"contracts/ProofOfClick.sol\":5640:5768  function nextHalvingRound() external view returns (uint256) {... */\n      swap1\n      jump\t// out\n        /* \"@paintswap/vrf/contracts/PaintswapVRFConsumer.sol\":3923:4105  function rawFulfillRandomWords(... */\n    tag_68:\n        /* \"@paintswap/vrf/contracts/PaintswapVRFConsumer.sol\":1291:1306  _vrfCoordinator */\n      immutable(\"0x4c4fd4da8ae1c1f2895da0cdd646517e3d75688175eb5d33ccff8a0b8439df64\")\n        /* \"@paintswap/vrf/contracts/PaintswapVRFConsumer.sol\":1269:1307  msg.sender != address(_vrfCoordinator) */\n      0xffffffffffffffffffffffffffffffffffffffff\n      and\n        /* \"@paintswap/vrf/contracts/PaintswapVRFConsumer.sol\":1269:1279  msg.sender */\n      caller\n        /* \"@paintswap/vrf/contracts/PaintswapVRFConsumer.sol\":1269:1307  msg.sender != address(_vrfCoordinator) */\n      0xffffffffffffffffffffffffffffffffffffffff\n      and\n      eq\n        /* \"@paintswap/vrf/contracts/PaintswapVRFConsumer.sol\":1265:1387  if (msg.sender != address(_vrfCoordinator)) {... */\n      tag_228\n      jumpi\n        /* \"@paintswap/vrf/contracts/PaintswapVRFConsumer.sol\":1343:1353  msg.sender */\n      caller\n        /* \"@paintswap/vrf/contracts/PaintswapVRFConsumer.sol\":1363:1378  _vrfCoordinator */\n      immutable(\"0x4c4fd4da8ae1c1f2895da0cdd646517e3d75688175eb5d33ccff8a0b8439df64\")\n        /* \"@paintswap/vrf/contracts/PaintswapVRFConsumer.sol\":1324:1380  OnlyVRFCoordinator(msg.sender, address(_vrfCoordinator)) */\n      mload(0x40)\n      0x20138a9f00000000000000000000000000000000000000000000000000000000\n      dup2\n      mstore\n      0x04\n      add\n      tag_229\n      swap3\n      swap2\n      swap1\n      tag_230\n      jump\t// in\n    tag_229:\n      mload(0x40)\n      dup1\n      swap2\n      sub\n      swap1\n      revert\n        /* \"@paintswap/vrf/contracts/PaintswapVRFConsumer.sol\":1265:1387  if (msg.sender != address(_vrfCoordinator)) {... */\n    tag_228:\n        /* \"@paintswap/vrf/contracts/PaintswapVRFConsumer.sol\":4057:4100  _fulfillRandomWords(requestId, randomWords) */\n      tag_232\n        /* \"@paintswap/vrf/contracts/PaintswapVRFConsumer.sol\":4077:4086  requestId */\n      dup4\n        /* \"@paintswap/vrf/contracts/PaintswapVRFConsumer.sol\":4088:4099  randomWords */\n      dup4\n      dup4\n        /* \"@paintswap/vrf/contracts/PaintswapVRFConsumer.sol\":4057:4076  _fulfillRandomWords */\n      tag_233\n        /* \"@paintswap/vrf/contracts/PaintswapVRFConsumer.sol\":4057:4100  _fulfillRandomWords(requestId, randomWords) */\n      jump\t// in\n    tag_232:\n        /* \"@paintswap/vrf/contracts/PaintswapVRFConsumer.sol\":3923:4105  function rawFulfillRandomWords(... */\n      pop\n      pop\n      pop\n      jump\t// out\n        /* \"@openzeppelin/contracts/token/ERC20/ERC20.sol\":4680:4924  function transferFrom(address from, address to, uint256 value) public virtual returns (bool) {... */\n    tag_73:\n        /* \"@openzeppelin/contracts/token/ERC20/ERC20.sol\":4767:4771  bool */\n      0x00\n        /* \"@openzeppelin/contracts/token/ERC20/ERC20.sol\":4783:4798  address spender */\n      0x00\n        /* \"@openzeppelin/contracts/token/ERC20/ERC20.sol\":4801:4813  _msgSender() */\n      tag_235\n        /* \"@openzeppelin/contracts/token/ERC20/ERC20.sol\":4801:4811  _msgSender */\n      tag_177\n        /* \"@openzeppelin/contracts/token/ERC20/ERC20.sol\":4801:4813  _msgSender() */\n      jump\t// in\n    tag_235:\n        /* \"@openzeppelin/contracts/token/ERC20/ERC20.sol\":4783:4813  address spender = _msgSender() */\n      swap1\n      pop\n        /* \"@openzeppelin/contracts/token/ERC20/ERC20.sol\":4823:4860  _spendAllowance(from, spender, value) */\n      tag_236\n        /* \"@openzeppelin/contracts/token/ERC20/ERC20.sol\":4839:4843  from */\n      dup6\n        /* \"@openzeppelin/contracts/token/ERC20/ERC20.sol\":4845:4852  spender */\n      dup3\n        /* \"@openzeppelin/contracts/token/ERC20/ERC20.sol\":4854:4859  value */\n      dup6\n        /* \"@openzeppelin/contracts/token/ERC20/ERC20.sol\":4823:4838  _spendAllowance */\n      tag_237\n        /* \"@openzeppelin/contracts/token/ERC20/ERC20.sol\":4823:4860  _spendAllowance(from, spender, value) */\n      jump\t// in\n    tag_236:\n        /* \"@openzeppelin/contracts/token/ERC20/ERC20.sol\":4870:4896  _transfer(from, to, value) */\n      tag_238\n        /* \"@openzeppelin/contracts/token/ERC20/ERC20.sol\":4880:4884  from */\n      dup6\n        /* \"@openzeppelin/contracts/token/ERC20/ERC20.sol\":4886:4888  to */\n      dup6\n        /* \"@openzeppelin/contracts/token/ERC20/ERC20.sol\":4890:4895  value */\n      dup6\n        /* \"@openzeppelin/contracts/token/ERC20/ERC20.sol\":4870:4879  _transfer */\n      tag_239\n        /* \"@openzeppelin/contracts/token/ERC20/ERC20.sol\":4870:4896  _transfer(from, to, value) */\n      jump\t// in\n    tag_238:\n        /* \"@openzeppelin/contracts/token/ERC20/ERC20.sol\":4913:4917  true */\n      0x01\n        /* \"@openzeppelin/contracts/token/ERC20/ERC20.sol\":4906:4917  return true */\n      swap2\n      pop\n      pop\n        /* \"@openzeppelin/contracts/token/ERC20/ERC20.sol\":4680:4924  function transferFrom(address from, address to, uint256 value) public virtual returns (bool) {... */\n      swap4\n      swap3\n      pop\n      pop\n      pop\n      jump\t// out\n        /* \"contracts/ProofOfClick.sol\":1143:1189  mapping(uint256 => uint256) public playerCount */\n    tag_79:\n      mstore(0x20, 0x0c)\n      dup1\n      0x00\n      mstore\n      keccak256(0x00, 0x40)\n      0x00\n      swap2\n      pop\n      swap1\n      pop\n      sload\n      dup2\n      jump\t// out\n        /* \"@openzeppelin/contracts/token/ERC20/ERC20.sol\":2688:2770  function decimals() public view virtual returns (uint8) {... */\n    tag_83:\n        /* \"@openzeppelin/contracts/token/ERC20/ERC20.sol\":2737:2742  uint8 */\n      0x00\n        /* \"@openzeppelin/contracts/token/ERC20/ERC20.sol\":2761:2763  18 */\n      0x12\n        /* \"@openzeppelin/contracts/token/ERC20/ERC20.sol\":2754:2763  return 18 */\n      swap1\n      pop\n        /* \"@openzeppelin/contracts/token/ERC20/ERC20.sol\":2688:2770  function decimals() public view virtual returns (uint8) {... */\n      swap1\n      jump\t// out\n        /* \"contracts/ProofOfClick.sol\":1008:1065  uint32  public constant CALLBACK_GAS_LIMIT      = 200_000 */\n    tag_88:\n        /* \"contracts/ProofOfClick.sol\":1058:1065  200_000 */\n      0x030d40\n        /* \"contracts/ProofOfClick.sol\":1008:1065  uint32  public constant CALLBACK_GAS_LIMIT      = 200_000 */\n      dup2\n      jump\t// out\n        /* \"contracts/ProofOfClick.sol\":763:818  uint256 public constant HALVING_INTERVAL_ROUNDS = 50050 */\n    tag_93:\n        /* \"contracts/ProofOfClick.sol\":813:818  50050 */\n      0xc382\n        /* \"contracts/ProofOfClick.sol\":763:818  uint256 public constant HALVING_INTERVAL_ROUNDS = 50050 */\n      dup2\n      jump\t// out\n        /* \"contracts/ProofOfClick.sol\":696:756  uint256 public constant INITIAL_REWARD          = 666 * 1e18 */\n    tag_97:\n        /* \"contracts/ProofOfClick.sol\":746:756  666 * 1e18 */\n      0x241a9b4f617a280000\n        /* \"contracts/ProofOfClick.sol\":696:756  uint256 public constant INITIAL_REWARD          = 666 * 1e18 */\n      dup2\n      jump\t// out\n        /* \"contracts/ProofOfClick.sol\":4033:4678  function burn(uint256 amount) external {... */\n    tag_102:\n        /* \"contracts/ProofOfClick.sol\":4097:4098  0 */\n      0x00\n        /* \"contracts/ProofOfClick.sol\":4087:4093  amount */\n      dup2\n        /* \"contracts/ProofOfClick.sol\":4087:4098  amount == 0 */\n      sub\n        /* \"contracts/ProofOfClick.sol\":4083:4122  if (amount == 0) revert NothingToBurn() */\n      tag_242\n      jumpi\n        /* \"contracts/ProofOfClick.sol\":4107:4122  NothingToBurn() */\n      mload(0x40)\n      0x98642b8600000000000000000000000000000000000000000000000000000000\n      dup2\n      mstore\n      0x04\n      add\n      mload(0x40)\n      dup1\n      swap2\n      sub\n      swap1\n      revert\n        /* \"contracts/ProofOfClick.sol\":4083:4122  if (amount == 0) revert NothingToBurn() */\n    tag_242:\n        /* \"contracts/ProofOfClick.sol\":4135:4158  uint256 contractBalance */\n      0x00\n        /* \"contracts/ProofOfClick.sol\":4161:4182  address(this).balance */\n      selfbalance\n        /* \"contracts/ProofOfClick.sol\":4135:4182  uint256 contractBalance = address(this).balance */\n      swap1\n      pop\n        /* \"contracts/ProofOfClick.sol\":4216:4217  0 */\n      0x00\n        /* \"contracts/ProofOfClick.sol\":4197:4212  contractBalance */\n      dup2\n        /* \"contracts/ProofOfClick.sol\":4197:4217  contractBalance == 0 */\n      sub\n        /* \"contracts/ProofOfClick.sol\":4193:4255  if (contractBalance == 0) revert InsufficientContractBalance() */\n      tag_243\n      jumpi\n        /* \"contracts/ProofOfClick.sol\":4226:4255  InsufficientContractBalance() */\n      mload(0x40)\n      0x786e0a9900000000000000000000000000000000000000000000000000000000\n      dup2\n      mstore\n      0x04\n      add\n      mload(0x40)\n      dup1\n      swap2\n      sub\n      swap1\n      revert\n        /* \"contracts/ProofOfClick.sol\":4193:4255  if (contractBalance == 0) revert InsufficientContractBalance() */\n    tag_243:\n        /* \"contracts/ProofOfClick.sol\":4268:4282  uint256 supply */\n      0x00\n        /* \"contracts/ProofOfClick.sol\":4285:4298  totalSupply() */\n      tag_244\n        /* \"contracts/ProofOfClick.sol\":4285:4296  totalSupply */\n      tag_56\n        /* \"contracts/ProofOfClick.sol\":4285:4298  totalSupply() */\n      jump\t// in\n    tag_244:\n        /* \"contracts/ProofOfClick.sol\":4268:4298  uint256 supply = totalSupply() */\n      swap1\n      pop\n        /* \"contracts/ProofOfClick.sol\":4323:4324  0 */\n      0x00\n        /* \"contracts/ProofOfClick.sol\":4313:4319  supply */\n      dup2\n        /* \"contracts/ProofOfClick.sol\":4313:4324  supply == 0 */\n      sub\n        /* \"contracts/ProofOfClick.sol\":4309:4362  if (supply == 0) revert InsufficientContractBalance() */\n      tag_245\n      jumpi\n        /* \"contracts/ProofOfClick.sol\":4333:4362  InsufficientContractBalance() */\n      mload(0x40)\n      0x786e0a9900000000000000000000000000000000000000000000000000000000\n      dup2\n      mstore\n      0x04\n      add\n      mload(0x40)\n      dup1\n      swap2\n      sub\n      swap1\n      revert\n        /* \"contracts/ProofOfClick.sol\":4309:4362  if (supply == 0) revert InsufficientContractBalance() */\n    tag_245:\n        /* \"contracts/ProofOfClick.sol\":4375:4389  uint256 ethOut */\n      0x00\n        /* \"contracts/ProofOfClick.sol\":4421:4427  supply */\n      dup2\n        /* \"contracts/ProofOfClick.sol\":4402:4417  contractBalance */\n      dup4\n        /* \"contracts/ProofOfClick.sol\":4393:4399  amount */\n      dup6\n        /* \"contracts/ProofOfClick.sol\":4393:4417  amount * contractBalance */\n      tag_246\n      swap2\n      swap1\n      tag_209\n      jump\t// in\n    tag_246:\n        /* \"contracts/ProofOfClick.sol\":4392:4427  (amount * contractBalance) / supply */\n      tag_247\n      swap2\n      swap1\n      tag_205\n      jump\t// in\n    tag_247:\n        /* \"contracts/ProofOfClick.sol\":4375:4427  uint256 ethOut = (amount * contractBalance) / supply */\n      swap1\n      pop\n        /* \"contracts/ProofOfClick.sol\":4440:4465  _burn(msg.sender, amount) */\n      tag_248\n        /* \"contracts/ProofOfClick.sol\":4446:4456  msg.sender */\n      caller\n        /* \"contracts/ProofOfClick.sol\":4458:4464  amount */\n      dup6\n        /* \"contracts/ProofOfClick.sol\":4440:4445  _burn */\n      tag_249\n        /* \"contracts/ProofOfClick.sol\":4440:4465  _burn(msg.sender, amount) */\n      jump\t// in\n    tag_248:\n        /* \"contracts/ProofOfClick.sol\":4489:4495  amount */\n      dup4\n        /* \"contracts/ProofOfClick.sol\":4476:4485  maxSupply */\n      0x05\n      0x00\n        /* \"contracts/ProofOfClick.sol\":4476:4495  maxSupply -= amount */\n      dup3\n      dup3\n      sload\n      tag_250\n      swap2\n      swap1\n      tag_218\n      jump\t// in\n    tag_250:\n      swap3\n      pop\n      pop\n      dup2\n      swap1\n      sstore\n      pop\n        /* \"contracts/ProofOfClick.sol\":4509:4521  bool success */\n      0x00\n        /* \"contracts/ProofOfClick.sol\":4535:4545  msg.sender */\n      caller\n        /* \"contracts/ProofOfClick.sol\":4527:4551  payable(msg.sender).call */\n      0xffffffffffffffffffffffffffffffffffffffff\n      and\n        /* \"contracts/ProofOfClick.sol\":4559:4565  ethOut */\n      dup3\n        /* \"contracts/ProofOfClick.sol\":4527:4570  payable(msg.sender).call{value: ethOut}(\"\") */\n      mload(0x40)\n      tag_251\n      swap1\n      tag_212\n      jump\t// in\n    tag_251:\n      0x00\n      mload(0x40)\n      dup1\n      dup4\n      sub\n      dup2\n      dup6\n      dup8\n      gas\n      call\n      swap3\n      pop\n      pop\n      pop\n      returndatasize\n      dup1\n      0x00\n      dup2\n      eq\n      tag_254\n      jumpi\n      mload(0x40)\n      swap2\n      pop\n      and(add(returndatasize, 0x3f), not(0x1f))\n      dup3\n      add\n      0x40\n      mstore\n      returndatasize\n      dup3\n      mstore\n      returndatasize\n      0x00\n      0x20\n      dup5\n      add\n      returndatacopy\n      jump(tag_253)\n    tag_254:\n      0x60\n      swap2\n      pop\n    tag_253:\n      pop\n        /* \"contracts/ProofOfClick.sol\":4508:4570  (bool success, ) = payable(msg.sender).call{value: ethOut}(\"\") */\n      pop\n      swap1\n      pop\n        /* \"contracts/ProofOfClick.sol\":4586:4593  success */\n      dup1\n        /* \"contracts/ProofOfClick.sol\":4581:4618  if (!success) revert TransferFailed() */\n      tag_255\n      jumpi\n        /* \"contracts/ProofOfClick.sol\":4602:4618  TransferFailed() */\n      mload(0x40)\n      0x90b8ec1800000000000000000000000000000000000000000000000000000000\n      dup2\n      mstore\n      0x04\n      add\n      mload(0x40)\n      dup1\n      swap2\n      sub\n      swap1\n      revert\n        /* \"contracts/ProofOfClick.sol\":4581:4618  if (!success) revert TransferFailed() */\n    tag_255:\n        /* \"contracts/ProofOfClick.sol\":4643:4653  msg.sender */\n      caller\n        /* \"contracts/ProofOfClick.sol\":4636:4670  Burned(msg.sender, amount, ethOut) */\n      0xffffffffffffffffffffffffffffffffffffffff\n      and\n      0x23ff0e75edf108e3d0392d92e13e8c8a868ef19001bd49f9e94876dc46dff87f\n        /* \"contracts/ProofOfClick.sol\":4655:4661  amount */\n      dup7\n        /* \"contracts/ProofOfClick.sol\":4663:4669  ethOut */\n      dup5\n        /* \"contracts/ProofOfClick.sol\":4636:4670  Burned(msg.sender, amount, ethOut) */\n      mload(0x40)\n      tag_256\n      swap3\n      swap2\n      swap1\n      tag_201\n      jump\t// in\n    tag_256:\n      mload(0x40)\n      dup1\n      swap2\n      sub\n      swap1\n      log2\n        /* \"contracts/ProofOfClick.sol\":4072:4678  {... */\n      pop\n      pop\n      pop\n      pop\n        /* \"contracts/ProofOfClick.sol\":4033:4678  function burn(uint256 amount) external {... */\n      pop\n      jump\t// out\n        /* \"contracts/ProofOfClick.sol\":950:1001  uint256 public constant LIQUIDITY_SHARE         = 5 */\n    tag_105:\n        /* \"contracts/ProofOfClick.sol\":1000:1001  5 */\n      0x05\n        /* \"contracts/ProofOfClick.sol\":950:1001  uint256 public constant LIQUIDITY_SHARE         = 5 */\n      dup2\n      jump\t// out\n        /* \"contracts/ProofOfClick.sol\":625:651  uint256 public lastRoundTs */\n    tag_109:\n      sload(0x09)\n      dup2\n      jump\t// out\n        /* \"contracts/ProofOfClick.sol\":825:877  uint256 public constant ROUND_DURATION          = 60 */\n    tag_113:\n        /* \"contracts/ProofOfClick.sol\":875:877  60 */\n      0x3c\n        /* \"contracts/ProofOfClick.sol\":825:877  uint256 public constant ROUND_DURATION          = 60 */\n      dup2\n      jump\t// out\n        /* \"contracts/ProofOfClick.sol\":658:687  address public liquidityVault */\n    tag_117:\n      0x0a\n      0x00\n      swap1\n      sload\n      swap1\n      0x0100\n      exp\n      swap1\n      div\n      0xffffffffffffffffffffffffffffffffffffffff\n      and\n      dup2\n      jump\t// out\n        /* \"@openzeppelin/contracts/token/ERC20/ERC20.sol\":2933:3049  function balanceOf(address account) public view virtual returns (uint256) {... */\n    tag_124:\n        /* \"@openzeppelin/contracts/token/ERC20/ERC20.sol\":2998:3005  uint256 */\n      0x00\n        /* \"@openzeppelin/contracts/token/ERC20/ERC20.sol\":3024:3033  _balances */\n      0x00\n        /* \"@openzeppelin/contracts/token/ERC20/ERC20.sol\":3024:3042  _balances[account] */\n      0x00\n        /* \"@openzeppelin/contracts/token/ERC20/ERC20.sol\":3034:3041  account */\n      dup4\n        /* \"@openzeppelin/contracts/token/ERC20/ERC20.sol\":3024:3042  _balances[account] */\n      0xffffffffffffffffffffffffffffffffffffffff\n      and\n      0xffffffffffffffffffffffffffffffffffffffff\n      and\n      dup2\n      mstore\n      0x20\n      add\n      swap1\n      dup2\n      mstore\n      0x20\n      add\n      0x00\n      keccak256\n      sload\n        /* \"@openzeppelin/contracts/token/ERC20/ERC20.sol\":3017:3042  return _balances[account] */\n      swap1\n      pop\n        /* \"@openzeppelin/contracts/token/ERC20/ERC20.sol\":2933:3049  function balanceOf(address account) public view virtual returns (uint256) {... */\n      swap2\n      swap1\n      pop\n      jump\t// out\n        /* \"contracts/ProofOfClick.sol\":558:580  uint256 public roundId */\n    tag_128:\n      sload(0x07)\n      dup2\n      jump\t// out\n        /* \"@openzeppelin/contracts/token/ERC20/ERC20.sol\":1962:2055  function symbol() public view virtual returns (string memory) {... */\n    tag_132:\n        /* \"@openzeppelin/contracts/token/ERC20/ERC20.sol\":2009:2022  string memory */\n      0x60\n        /* \"@openzeppelin/contracts/token/ERC20/ERC20.sol\":2041:2048  _symbol */\n      0x04\n        /* \"@openzeppelin/contracts/token/ERC20/ERC20.sol\":2034:2048  return _symbol */\n      dup1\n      sload\n      tag_259\n      swap1\n      tag_170\n      jump\t// in\n    tag_259:\n      dup1\n      0x1f\n      add\n      0x20\n      dup1\n      swap2\n      div\n      mul\n      0x20\n      add\n      mload(0x40)\n      swap1\n      dup2\n      add\n      0x40\n      mstore\n      dup1\n      swap3\n      swap2\n      swap1\n      dup2\n      dup2\n      mstore\n      0x20\n      add\n      dup3\n      dup1\n      sload\n      tag_260\n      swap1\n      tag_170\n      jump\t// in\n    tag_260:\n      dup1\n      iszero\n      tag_261\n      jumpi\n      dup1\n      0x1f\n      lt\n      tag_262\n      jumpi\n      0x0100\n      dup1\n      dup4\n      sload\n      div\n      mul\n      dup4\n      mstore\n      swap2\n      0x20\n      add\n      swap2\n      jump(tag_261)\n    tag_262:\n      dup3\n      add\n      swap2\n      swap1\n      0x00\n      mstore\n      keccak256(0x00, 0x20)\n      swap1\n    tag_263:\n      dup2\n      sload\n      dup2\n      mstore\n      swap1\n      0x01\n      add\n      swap1\n      0x20\n      add\n      dup1\n      dup4\n      gt\n      tag_263\n      jumpi\n      dup3\n      swap1\n      sub\n      0x1f\n      and\n      dup3\n      add\n      swap2\n    tag_261:\n      pop\n      pop\n      pop\n      pop\n      pop\n      swap1\n      pop\n        /* \"@openzeppelin/contracts/token/ERC20/ERC20.sol\":1962:2055  function symbol() public view virtual returns (string memory) {... */\n      swap1\n      jump\t// out\n        /* \"contracts/ProofOfClick.sol\":587:618  uint256 public lastHalvingRound */\n    tag_136:\n      sload(0x08)\n      dup2\n      jump\t// out\n        /* \"contracts/ProofOfClick.sol\":1074:1136  mapping(uint256 => mapping(uint256 => address)) public players */\n    tag_142:\n      mstore(0x20, 0x0b)\n      dup2\n      0x00\n      mstore\n      mstore(0x20, keccak256(0x00, 0x40))\n      dup1\n      0x00\n      mstore\n      keccak256(0x00, 0x40)\n      0x00\n      swap2\n      pop\n      swap2\n      pop\n      swap1\n      sload\n      swap1\n      0x0100\n      exp\n      swap1\n      div\n      0xffffffffffffffffffffffffffffffffffffffff\n      and\n      dup2\n      jump\t// out\n        /* \"@openzeppelin/contracts/token/ERC20/ERC20.sol\":3244:3422  function transfer(address to, uint256 value) public virtual returns (bool) {... */\n    tag_147:\n        /* \"@openzeppelin/contracts/token/ERC20/ERC20.sol\":3313:3317  bool */\n      0x00\n        /* \"@openzeppelin/contracts/token/ERC20/ERC20.sol\":3329:3342  address owner */\n      0x00\n        /* \"@openzeppelin/contracts/token/ERC20/ERC20.sol\":3345:3357  _msgSender() */\n      tag_265\n        /* \"@openzeppelin/contracts/token/ERC20/ERC20.sol\":3345:3355  _msgSender */\n      tag_177\n        /* \"@openzeppelin/contracts/token/ERC20/ERC20.sol\":3345:3357  _msgSender() */\n      jump\t// in\n    tag_265:\n        /* \"@openzeppelin/contracts/token/ERC20/ERC20.sol\":3329:3357  address owner = _msgSender() */\n      swap1\n      pop\n        /* \"@openzeppelin/contracts/token/ERC20/ERC20.sol\":3367:3394  _transfer(owner, to, value) */\n      tag_266\n        /* \"@openzeppelin/contracts/token/ERC20/ERC20.sol\":3377:3382  owner */\n      dup2\n        /* \"@openzeppelin/contracts/token/ERC20/ERC20.sol\":3384:3386  to */\n      dup6\n        /* \"@openzeppelin/contracts/token/ERC20/ERC20.sol\":3388:3393  value */\n      dup6\n        /* \"@openzeppelin/contracts/token/ERC20/ERC20.sol\":3367:3376  _transfer */\n      tag_239\n        /* \"@openzeppelin/contracts/token/ERC20/ERC20.sol\":3367:3394  _transfer(owner, to, value) */\n      jump\t// in\n    tag_266:\n        /* \"@openzeppelin/contracts/token/ERC20/ERC20.sol\":3411:3415  true */\n      0x01\n        /* \"@openzeppelin/contracts/token/ERC20/ERC20.sol\":3404:3415  return true */\n      swap2\n      pop\n      pop\n        /* \"@openzeppelin/contracts/token/ERC20/ERC20.sol\":3244:3422  function transfer(address to, uint256 value) public virtual returns (bool) {... */\n      swap3\n      swap2\n      pop\n      pop\n      jump\t// out\n        /* \"contracts/ProofOfClick.sol\":884:943  uint256 public constant FEE                     = 0.1 ether */\n    tag_151:\n        /* \"contracts/ProofOfClick.sol\":934:943  0.1 ether */\n      0x016345785d8a0000\n        /* \"contracts/ProofOfClick.sol\":884:943  uint256 public constant FEE                     = 0.1 ether */\n      dup2\n      jump\t// out\n        /* \"contracts/ProofOfClick.sol\":492:516  uint256 public maxSupply */\n    tag_155:\n      sload(0x05)\n      dup2\n      jump\t// out\n        /* \"@openzeppelin/contracts/token/ERC20/ERC20.sol\":3455:3595  function allowance(address owner, address spender) public view virtual returns (uint256) {... */\n    tag_161:\n        /* \"@openzeppelin/contracts/token/ERC20/ERC20.sol\":3535:3542  uint256 */\n      0x00\n        /* \"@openzeppelin/contracts/token/ERC20/ERC20.sol\":3561:3572  _allowances */\n      0x01\n        /* \"@openzeppelin/contracts/token/ERC20/ERC20.sol\":3561:3579  _allowances[owner] */\n      0x00\n        /* \"@openzeppelin/contracts/token/ERC20/ERC20.sol\":3573:3578  owner */\n      dup5\n        /* \"@openzeppelin/contracts/token/ERC20/ERC20.sol\":3561:3579  _allowances[owner] */\n      0xffffffffffffffffffffffffffffffffffffffff\n      and\n      0xffffffffffffffffffffffffffffffffffffffff\n      and\n      dup2\n      mstore\n      0x20\n      add\n      swap1\n      dup2\n      mstore\n      0x20\n      add\n      0x00\n      keccak256\n        /* \"@openzeppelin/contracts/token/ERC20/ERC20.sol\":3561:3588  _allowances[owner][spender] */\n      0x00\n        /* \"@openzeppelin/contracts/token/ERC20/ERC20.sol\":3580:3587  spender */\n      dup4\n        /* \"@openzeppelin/contracts/token/ERC20/ERC20.sol\":3561:3588  _allowances[owner][spender] */\n      0xffffffffffffffffffffffffffffffffffffffff\n      and\n      0xffffffffffffffffffffffffffffffffffffffff\n      and\n      dup2\n      mstore\n      0x20\n      add\n      swap1\n      dup2\n      mstore\n      0x20\n      add\n      0x00\n      keccak256\n      sload\n        /* \"@openzeppelin/contracts/token/ERC20/ERC20.sol\":3554:3588  return _allowances[owner][spender] */\n      swap1\n      pop\n        /* \"@openzeppelin/contracts/token/ERC20/ERC20.sol\":3455:3595  function allowance(address owner, address spender) public view virtual returns (uint256) {... */\n      swap3\n      swap2\n      pop\n      pop\n      jump\t// out\n        /* \"contracts/ProofOfClick.sol\":5503:5632  function getPlayersCountInRound(uint256 _roundId) external view returns (uint256) {... */\n    tag_166:\n        /* \"contracts/ProofOfClick.sol\":5576:5583  uint256 */\n      0x00\n        /* \"contracts/ProofOfClick.sol\":5603:5614  playerCount */\n      0x0c\n        /* \"contracts/ProofOfClick.sol\":5603:5624  playerCount[_roundId] */\n      0x00\n        /* \"contracts/ProofOfClick.sol\":5615:5623  _roundId */\n      dup4\n        /* \"contracts/ProofOfClick.sol\":5603:5624  playerCount[_roundId] */\n      dup2\n      mstore\n      0x20\n      add\n      swap1\n      dup2\n      mstore\n      0x20\n      add\n      0x00\n      keccak256\n      sload\n        /* \"contracts/ProofOfClick.sol\":5596:5624  return playerCount[_roundId] */\n      swap1\n      pop\n        /* \"contracts/ProofOfClick.sol\":5503:5632  function getPlayersCountInRound(uint256 _roundId) external view returns (uint256) {... */\n      swap2\n      swap1\n      pop\n      jump\t// out\n        /* \"@openzeppelin/contracts/utils/Context.sol\":656:752  function _msgSender() internal view virtual returns (address) {... */\n    tag_177:\n        /* \"@openzeppelin/contracts/utils/Context.sol\":709:716  address */\n      0x00\n        /* \"@openzeppelin/contracts/utils/Context.sol\":735:745  msg.sender */\n      caller\n        /* \"@openzeppelin/contracts/utils/Context.sol\":728:745  return msg.sender */\n      swap1\n      pop\n        /* \"@openzeppelin/contracts/utils/Context.sol\":656:752  function _msgSender() internal view virtual returns (address) {... */\n      swap1\n      jump\t// out\n        /* \"@openzeppelin/contracts/token/ERC20/ERC20.sol\":8630:8758  function _approve(address owner, address spender, uint256 value) internal {... */\n    tag_179:\n        /* \"@openzeppelin/contracts/token/ERC20/ERC20.sol\":8714:8751  _approve(owner, spender, value, true) */\n      tag_271\n        /* \"@openzeppelin/contracts/token/ERC20/ERC20.sol\":8723:8728  owner */\n      dup4\n        /* \"@openzeppelin/contracts/token/ERC20/ERC20.sol\":8730:8737  spender */\n      dup4\n        /* \"@openzeppelin/contracts/token/ERC20/ERC20.sol\":8739:8744  value */\n      dup4\n        /* \"@openzeppelin/contracts/token/ERC20/ERC20.sol\":8746:8750  true */\n      0x01\n        /* \"@openzeppelin/contracts/token/ERC20/ERC20.sol\":8714:8722  _approve */\n      tag_272\n        /* \"@openzeppelin/contracts/token/ERC20/ERC20.sol\":8714:8751  _approve(owner, spender, value, true) */\n      jump\t// in\n    tag_271:\n        /* \"@openzeppelin/contracts/token/ERC20/ERC20.sol\":8630:8758  function _approve(address owner, address spender, uint256 value) internal {... */\n      pop\n      pop\n      pop\n      jump\t// out\n        /* \"contracts/ProofOfClick.sol\":4686:5495  function _fulfillRandomWords(uint256 requestId, uint256[] calldata randomWords) internal override {... */\n    tag_233:\n        /* \"contracts/ProofOfClick.sol\":4795:4816  uint256 resolvedRound */\n      0x00\n        /* \"contracts/ProofOfClick.sol\":4819:4835  requestToRoundId */\n      0x0d\n        /* \"contracts/ProofOfClick.sol\":4819:4846  requestToRoundId[requestId] */\n      0x00\n        /* \"contracts/ProofOfClick.sol\":4836:4845  requestId */\n      dup6\n        /* \"contracts/ProofOfClick.sol\":4819:4846  requestToRoundId[requestId] */\n      dup2\n      mstore\n      0x20\n      add\n      swap1\n      dup2\n      mstore\n      0x20\n      add\n      0x00\n      keccak256\n      sload\n        /* \"contracts/ProofOfClick.sol\":4795:4846  uint256 resolvedRound = requestToRoundId[requestId] */\n      swap1\n      pop\n        /* \"contracts/ProofOfClick.sol\":4864:4880  requestToRoundId */\n      0x0d\n        /* \"contracts/ProofOfClick.sol\":4864:4891  requestToRoundId[requestId] */\n      0x00\n        /* \"contracts/ProofOfClick.sol\":4881:4890  requestId */\n      dup6\n        /* \"contracts/ProofOfClick.sol\":4864:4891  requestToRoundId[requestId] */\n      dup2\n      mstore\n      0x20\n      add\n      swap1\n      dup2\n      mstore\n      0x20\n      add\n      0x00\n      keccak256\n        /* \"contracts/ProofOfClick.sol\":4857:4891  delete requestToRoundId[requestId] */\n      0x00\n      swap1\n      sstore\n        /* \"contracts/ProofOfClick.sol\":4904:4913  uint256 n */\n      0x00\n        /* \"contracts/ProofOfClick.sol\":4916:4927  playerCount */\n      0x0c\n        /* \"contracts/ProofOfClick.sol\":4916:4942  playerCount[resolvedRound] */\n      0x00\n        /* \"contracts/ProofOfClick.sol\":4928:4941  resolvedRound */\n      dup4\n        /* \"contracts/ProofOfClick.sol\":4916:4942  playerCount[resolvedRound] */\n      dup2\n      mstore\n      0x20\n      add\n      swap1\n      dup2\n      mstore\n      0x20\n      add\n      0x00\n      keccak256\n      sload\n        /* \"contracts/ProofOfClick.sol\":4904:4942  uint256 n = playerCount[resolvedRound] */\n      swap1\n      pop\n        /* \"contracts/ProofOfClick.sol\":4961:4962  0 */\n      0x00\n        /* \"contracts/ProofOfClick.sol\":4957:4958  n */\n      dup2\n        /* \"contracts/ProofOfClick.sol\":4957:4962  n > 0 */\n      gt\n        /* \"contracts/ProofOfClick.sol\":4953:5488  if (n > 0) {... */\n      iszero\n      tag_274\n      jumpi\n        /* \"contracts/ProofOfClick.sol\":4979:4990  uint256 idx */\n      0x00\n        /* \"contracts/ProofOfClick.sol\":5010:5011  n */\n      dup2\n        /* \"contracts/ProofOfClick.sol\":4993:5004  randomWords */\n      dup6\n      dup6\n        /* \"contracts/ProofOfClick.sol\":5005:5006  0 */\n      0x00\n        /* \"contracts/ProofOfClick.sol\":4993:5007  randomWords[0] */\n      dup2\n      dup2\n      lt\n      tag_275\n      jumpi\n      tag_276\n      tag_277\n      jump\t// in\n    tag_276:\n    tag_275:\n      swap1\n      pop\n      0x20\n      mul\n      add\n      calldataload\n        /* \"contracts/ProofOfClick.sol\":4993:5011  randomWords[0] % n */\n      tag_278\n      swap2\n      swap1\n      tag_279\n      jump\t// in\n    tag_278:\n        /* \"contracts/ProofOfClick.sol\":4979:5011  uint256 idx = randomWords[0] % n */\n      swap1\n      pop\n        /* \"contracts/ProofOfClick.sol\":5026:5040  address winner */\n      0x00\n        /* \"contracts/ProofOfClick.sol\":5043:5050  players */\n      0x0b\n        /* \"contracts/ProofOfClick.sol\":5043:5065  players[resolvedRound] */\n      0x00\n        /* \"contracts/ProofOfClick.sol\":5051:5064  resolvedRound */\n      dup6\n        /* \"contracts/ProofOfClick.sol\":5043:5065  players[resolvedRound] */\n      dup2\n      mstore\n      0x20\n      add\n      swap1\n      dup2\n      mstore\n      0x20\n      add\n      0x00\n      keccak256\n        /* \"contracts/ProofOfClick.sol\":5043:5070  players[resolvedRound][idx] */\n      0x00\n        /* \"contracts/ProofOfClick.sol\":5066:5069  idx */\n      dup4\n        /* \"contracts/ProofOfClick.sol\":5043:5070  players[resolvedRound][idx] */\n      dup2\n      mstore\n      0x20\n      add\n      swap1\n      dup2\n      mstore\n      0x20\n      add\n      0x00\n      keccak256\n      0x00\n      swap1\n      sload\n      swap1\n      0x0100\n      exp\n      swap1\n      div\n      0xffffffffffffffffffffffffffffffffffffffff\n      and\n        /* \"contracts/ProofOfClick.sol\":5026:5070  address winner = players[resolvedRound][idx] */\n      swap1\n      pop\n        /* \"contracts/ProofOfClick.sol\":5087:5101  uint256 reward */\n      0x00\n        /* \"contracts/ProofOfClick.sol\":5104:5118  rewardPerRound */\n      0x0e\n        /* \"contracts/ProofOfClick.sol\":5104:5133  rewardPerRound[resolvedRound] */\n      0x00\n        /* \"contracts/ProofOfClick.sol\":5119:5132  resolvedRound */\n      dup7\n        /* \"contracts/ProofOfClick.sol\":5104:5133  rewardPerRound[resolvedRound] */\n      dup2\n      mstore\n      0x20\n      add\n      swap1\n      dup2\n      mstore\n      0x20\n      add\n      0x00\n      keccak256\n      sload\n        /* \"contracts/ProofOfClick.sol\":5087:5133  uint256 reward = rewardPerRound[resolvedRound] */\n      swap1\n      pop\n        /* \"contracts/ProofOfClick.sol\":5162:5163  0 */\n      0x00\n        /* \"contracts/ProofOfClick.sol\":5152:5158  reward */\n      dup2\n        /* \"contracts/ProofOfClick.sol\":5152:5163  reward == 0 */\n      sub\n        /* \"contracts/ProofOfClick.sol\":5148:5187  if (reward == 0) reward = currentReward */\n      tag_280\n      jumpi\n        /* \"contracts/ProofOfClick.sol\":5174:5187  currentReward */\n      sload(0x06)\n        /* \"contracts/ProofOfClick.sol\":5165:5187  reward = currentReward */\n      swap1\n      pop\n        /* \"contracts/ProofOfClick.sol\":5148:5187  if (reward == 0) reward = currentReward */\n    tag_280:\n        /* \"contracts/ProofOfClick.sol\":5233:5242  maxSupply */\n      sload(0x05)\n        /* \"contracts/ProofOfClick.sol\":5224:5230  reward */\n      dup2\n        /* \"contracts/ProofOfClick.sol\":5208:5221  totalSupply() */\n      tag_281\n        /* \"contracts/ProofOfClick.sol\":5208:5219  totalSupply */\n      tag_56\n        /* \"contracts/ProofOfClick.sol\":5208:5221  totalSupply() */\n      jump\t// in\n    tag_281:\n        /* \"contracts/ProofOfClick.sol\":5208:5230  totalSupply() + reward */\n      tag_282\n      swap2\n      swap1\n      tag_184\n      jump\t// in\n    tag_282:\n        /* \"contracts/ProofOfClick.sol\":5208:5242  totalSupply() + reward > maxSupply */\n      gt\n        /* \"contracts/ProofOfClick.sol\":5204:5313  if (totalSupply() + reward > maxSupply) {... */\n      iszero\n      tag_283\n      jumpi\n        /* \"contracts/ProofOfClick.sol\":5284:5297  totalSupply() */\n      tag_284\n        /* \"contracts/ProofOfClick.sol\":5284:5295  totalSupply */\n      tag_56\n        /* \"contracts/ProofOfClick.sol\":5284:5297  totalSupply() */\n      jump\t// in\n    tag_284:\n        /* \"contracts/ProofOfClick.sol\":5272:5281  maxSupply */\n      sload(0x05)\n        /* \"contracts/ProofOfClick.sol\":5272:5297  maxSupply - totalSupply() */\n      tag_285\n      swap2\n      swap1\n      tag_218\n      jump\t// in\n    tag_285:\n        /* \"contracts/ProofOfClick.sol\":5263:5297  reward = maxSupply - totalSupply() */\n      swap1\n      pop\n        /* \"contracts/ProofOfClick.sol\":5204:5313  if (totalSupply() + reward > maxSupply) {... */\n    tag_283:\n        /* \"contracts/ProofOfClick.sol\":5340:5341  0 */\n      0x00\n        /* \"contracts/ProofOfClick.sol\":5331:5337  reward */\n      dup2\n        /* \"contracts/ProofOfClick.sol\":5331:5341  reward > 0 */\n      gt\n        /* \"contracts/ProofOfClick.sol\":5327:5477  if (reward > 0) {... */\n      iszero\n      tag_286\n      jumpi\n        /* \"contracts/ProofOfClick.sol\":5362:5383  _mint(winner, reward) */\n      tag_287\n        /* \"contracts/ProofOfClick.sol\":5368:5374  winner */\n      dup3\n        /* \"contracts/ProofOfClick.sol\":5376:5382  reward */\n      dup3\n        /* \"contracts/ProofOfClick.sol\":5362:5367  _mint */\n      tag_288\n        /* \"contracts/ProofOfClick.sol\":5362:5383  _mint(winner, reward) */\n      jump\t// in\n    tag_287:\n        /* \"contracts/ProofOfClick.sol\":5446:5452  winner */\n      dup2\n        /* \"contracts/ProofOfClick.sol\":5407:5461  WinnerMinted(requestId, resolvedRound, winner, reward) */\n      0xffffffffffffffffffffffffffffffffffffffff\n      and\n        /* \"contracts/ProofOfClick.sol\":5431:5444  resolvedRound */\n      dup6\n        /* \"contracts/ProofOfClick.sol\":5420:5429  requestId */\n      dup10\n        /* \"contracts/ProofOfClick.sol\":5407:5461  WinnerMinted(requestId, resolvedRound, winner, reward) */\n      0xdd7933a060407298571fe36223f480ee3508053fdb7238a1fe246f52b62c8e73\n        /* \"contracts/ProofOfClick.sol\":5454:5460  reward */\n      dup5\n        /* \"contracts/ProofOfClick.sol\":5407:5461  WinnerMinted(requestId, resolvedRound, winner, reward) */\n      mload(0x40)\n      tag_289\n      swap2\n      swap1\n      tag_46\n      jump\t// in\n    tag_289:\n      mload(0x40)\n      dup1\n      swap2\n      sub\n      swap1\n      log4\n        /* \"contracts/ProofOfClick.sol\":5327:5477  if (reward > 0) {... */\n    tag_286:\n        /* \"contracts/ProofOfClick.sol\":4964:5488  {... */\n      pop\n      pop\n      pop\n        /* \"contracts/ProofOfClick.sol\":4953:5488  if (n > 0) {... */\n    tag_274:\n        /* \"contracts/ProofOfClick.sol\":4784:5495  {... */\n      pop\n      pop\n        /* \"contracts/ProofOfClick.sol\":4686:5495  function _fulfillRandomWords(uint256 requestId, uint256[] calldata randomWords) internal override {... */\n      pop\n      pop\n      pop\n      jump\t// out\n        /* \"@openzeppelin/contracts/token/ERC20/ERC20.sol\":10319:10795  function _spendAllowance(address owner, address spender, uint256 value) internal virtual {... */\n    tag_237:\n        /* \"@openzeppelin/contracts/token/ERC20/ERC20.sol\":10418:10442  uint256 currentAllowance */\n      0x00\n        /* \"@openzeppelin/contracts/token/ERC20/ERC20.sol\":10445:10470  allowance(owner, spender) */\n      tag_291\n        /* \"@openzeppelin/contracts/token/ERC20/ERC20.sol\":10455:10460  owner */\n      dup5\n        /* \"@openzeppelin/contracts/token/ERC20/ERC20.sol\":10462:10469  spender */\n      dup5\n        /* \"@openzeppelin/contracts/token/ERC20/ERC20.sol\":10445:10454  allowance */\n      tag_161\n        /* \"@openzeppelin/contracts/token/ERC20/ERC20.sol\":10445:10470  allowance(owner, spender) */\n      jump\t// in\n    tag_291:\n        /* \"@openzeppelin/contracts/token/ERC20/ERC20.sol\":10418:10470  uint256 currentAllowance = allowance(owner, spender) */\n      swap1\n      pop\n        /* \"@openzeppelin/contracts/token/ERC20/ERC20.sol\":10503:10520  type(uint256).max */\n      0xffffffffffffffffffffffffffffffffffffffffffffffffffffffffffffffff\n        /* \"@openzeppelin/contracts/token/ERC20/ERC20.sol\":10484:10500  currentAllowance */\n      dup2\n        /* \"@openzeppelin/contracts/token/ERC20/ERC20.sol\":10484:10520  currentAllowance < type(uint256).max */\n      lt\n        /* \"@openzeppelin/contracts/token/ERC20/ERC20.sol\":10480:10789  if (currentAllowance < type(uint256).max) {... */\n      iszero\n      tag_292\n      jumpi\n        /* \"@openzeppelin/contracts/token/ERC20/ERC20.sol\":10559:10564  value */\n      dup2\n        /* \"@openzeppelin/contracts/token/ERC20/ERC20.sol\":10540:10556  currentAllowance */\n      dup2\n        /* \"@openzeppelin/contracts/token/ERC20/ERC20.sol\":10540:10564  currentAllowance < value */\n      lt\n        /* \"@openzeppelin/contracts/token/ERC20/ERC20.sol\":10536:10666  if (currentAllowance < value) {... */\n      iszero\n      tag_293\n      jumpi\n        /* \"@openzeppelin/contracts/token/ERC20/ERC20.sol\":10618:10625  spender */\n      dup3\n        /* \"@openzeppelin/contracts/token/ERC20/ERC20.sol\":10627:10643  currentAllowance */\n      dup2\n        /* \"@openzeppelin/contracts/token/ERC20/ERC20.sol\":10645:10650  value */\n      dup4\n        /* \"@openzeppelin/contracts/token/ERC20/ERC20.sol\":10591:10651  ERC20InsufficientAllowance(spender, currentAllowance, value) */\n      mload(0x40)\n      0xfb8f41b200000000000000000000000000000000000000000000000000000000\n      dup2\n      mstore\n      0x04\n      add\n      tag_294\n      swap4\n      swap3\n      swap2\n      swap1\n      tag_295\n      jump\t// in\n    tag_294:\n      mload(0x40)\n      dup1\n      swap2\n      sub\n      swap1\n      revert\n        /* \"@openzeppelin/contracts/token/ERC20/ERC20.sol\":10536:10666  if (currentAllowance < value) {... */\n    tag_293:\n        /* \"@openzeppelin/contracts/token/ERC20/ERC20.sol\":10707:10764  _approve(owner, spender, currentAllowance - value, false) */\n      tag_296\n        /* \"@openzeppelin/contracts/token/ERC20/ERC20.sol\":10716:10721  owner */\n      dup5\n        /* \"@openzeppelin/contracts/token/ERC20/ERC20.sol\":10723:10730  spender */\n      dup5\n        /* \"@openzeppelin/contracts/token/ERC20/ERC20.sol\":10751:10756  value */\n      dup5\n        /* \"@openzeppelin/contracts/token/ERC20/ERC20.sol\":10732:10748  currentAllowance */\n      dup5\n        /* \"@openzeppelin/contracts/token/ERC20/ERC20.sol\":10732:10756  currentAllowance - value */\n      sub\n        /* \"@openzeppelin/contracts/token/ERC20/ERC20.sol\":10758:10763  false */\n      0x00\n        /* \"@openzeppelin/contracts/token/ERC20/ERC20.sol\":10707:10715  _approve */\n      tag_272\n        /* \"@openzeppelin/contracts/token/ERC20/ERC20.sol\":10707:10764  _approve(owner, spender, currentAllowance - value, false) */\n      jump\t// in\n    tag_296:\n        /* \"@openzeppelin/contracts/token/ERC20/ERC20.sol\":10480:10789  if (currentAllowance < type(uint256).max) {... */\n    tag_292:\n        /* \"@openzeppelin/contracts/token/ERC20/ERC20.sol\":10408:10795  {... */\n      pop\n        /* \"@openzeppelin/contracts/token/ERC20/ERC20.sol\":10319:10795  function _spendAllowance(address owner, address spender, uint256 value) internal virtual {... */\n      pop\n      pop\n      pop\n      jump\t// out\n        /* \"@openzeppelin/contracts/token/ERC20/ERC20.sol\":5297:5597  function _transfer(address from, address to, uint256 value) internal {... */\n    tag_239:\n        /* \"@openzeppelin/contracts/token/ERC20/ERC20.sol\":5396:5397  0 */\n      0x00\n        /* \"@openzeppelin/contracts/token/ERC20/ERC20.sol\":5380:5398  from == address(0) */\n      0xffffffffffffffffffffffffffffffffffffffff\n      and\n        /* \"@openzeppelin/contracts/token/ERC20/ERC20.sol\":5380:5384  from */\n      dup4\n        /* \"@openzeppelin/contracts/token/ERC20/ERC20.sol\":5380:5398  from == address(0) */\n      0xffffffffffffffffffffffffffffffffffffffff\n      and\n      sub\n        /* \"@openzeppelin/contracts/token/ERC20/ERC20.sol\":5376:5462  if (from == address(0)) {... */\n      tag_298\n      jumpi\n        /* \"@openzeppelin/contracts/token/ERC20/ERC20.sol\":5448:5449  0 */\n      0x00\n        /* \"@openzeppelin/contracts/token/ERC20/ERC20.sol\":5421:5451  ERC20InvalidSender(address(0)) */\n      mload(0x40)\n      0x96c6fd1e00000000000000000000000000000000000000000000000000000000\n      dup2\n      mstore\n      0x04\n      add\n      tag_299\n      swap2\n      swap1\n      tag_119\n      jump\t// in\n    tag_299:\n      mload(0x40)\n      dup1\n      swap2\n      sub\n      swap1\n      revert\n        /* \"@openzeppelin/contracts/token/ERC20/ERC20.sol\":5376:5462  if (from == address(0)) {... */\n    tag_298:\n        /* \"@openzeppelin/contracts/token/ERC20/ERC20.sol\":5489:5490  0 */\n      0x00\n        /* \"@openzeppelin/contracts/token/ERC20/ERC20.sol\":5475:5491  to == address(0) */\n      0xffffffffffffffffffffffffffffffffffffffff\n      and\n        /* \"@openzeppelin/contracts/token/ERC20/ERC20.sol\":5475:5477  to */\n      dup3\n        /* \"@openzeppelin/contracts/token/ERC20/ERC20.sol\":5475:5491  to == address(0) */\n      0xffffffffffffffffffffffffffffffffffffffff\n      and\n      sub\n        /* \"@openzeppelin/contracts/token/ERC20/ERC20.sol\":5471:5557  if (to == address(0)) {... */\n      tag_300\n      jumpi\n        /* \"@openzeppelin/contracts/token/ERC20/ERC20.sol\":5543:5544  0 */\n      0x00\n        /* \"@openzeppelin/contracts/token/ERC20/ERC20.sol\":5514:5546  ERC20InvalidReceiver(address(0)) */\n      mload(0x40)\n      0xec442f0500000000000000000000000000000000000000000000000000000000\n      dup2\n      mstore\n      0x04\n      add\n      tag_301\n      swap2\n      swap1\n      tag_119\n      jump\t// in\n    tag_301:\n      mload(0x40)\n      dup1\n      swap2\n      sub\n      swap1\n      revert\n        /* \"@openzeppelin/contracts/token/ERC20/ERC20.sol\":5471:5557  if (to == address(0)) {... */\n    tag_300:\n        /* \"@openzeppelin/contracts/token/ERC20/ERC20.sol\":5566:5590  _update(from, to, value) */\n      tag_302\n        /* \"@openzeppelin/contracts/token/ERC20/ERC20.sol\":5574:5578  from */\n      dup4\n        /* \"@openzeppelin/contracts/token/ERC20/ERC20.sol\":5580:5582  to */\n      dup4\n        /* \"@openzeppelin/contracts/token/ERC20/ERC20.sol\":5584:5589  value */\n      dup4\n        /* \"@openzeppelin/contracts/token/ERC20/ERC20.sol\":5566:5573  _update */\n      tag_303\n        /* \"@openzeppelin/contracts/token/ERC20/ERC20.sol\":5566:5590  _update(from, to, value) */\n      jump\t// in\n    tag_302:\n        /* \"@openzeppelin/contracts/token/ERC20/ERC20.sol\":5297:5597  function _transfer(address from, address to, uint256 value) internal {... */\n      pop\n      pop\n      pop\n      jump\t// out\n        /* \"@openzeppelin/contracts/token/ERC20/ERC20.sol\":7888:8094  function _burn(address account, uint256 value) internal {... */\n    tag_249:\n        /* \"@openzeppelin/contracts/token/ERC20/ERC20.sol\":7977:7978  0 */\n      0x00\n        /* \"@openzeppelin/contracts/token/ERC20/ERC20.sol\":7958:7979  account == address(0) */\n      0xffffffffffffffffffffffffffffffffffffffff\n      and\n        /* \"@openzeppelin/contracts/token/ERC20/ERC20.sol\":7958:7965  account */\n      dup3\n        /* \"@openzeppelin/contracts/token/ERC20/ERC20.sol\":7958:7979  account == address(0) */\n      0xffffffffffffffffffffffffffffffffffffffff\n      and\n      sub\n        /* \"@openzeppelin/contracts/token/ERC20/ERC20.sol\":7954:8043  if (account == address(0)) {... */\n      tag_305\n      jumpi\n        /* \"@openzeppelin/contracts/token/ERC20/ERC20.sol\":8029:8030  0 */\n      0x00\n        /* \"@openzeppelin/contracts/token/ERC20/ERC20.sol\":8002:8032  ERC20InvalidSender(address(0)) */\n      mload(0x40)\n      0x96c6fd1e00000000000000000000000000000000000000000000000000000000\n      dup2\n      mstore\n      0x04\n      add\n      tag_306\n      swap2\n      swap1\n      tag_119\n      jump\t// in\n    tag_306:\n      mload(0x40)\n      dup1\n      swap2\n      sub\n      swap1\n      revert\n        /* \"@openzeppelin/contracts/token/ERC20/ERC20.sol\":7954:8043  if (account == address(0)) {... */\n    tag_305:\n        /* \"@openzeppelin/contracts/token/ERC20/ERC20.sol\":8052:8087  _update(account, address(0), value) */\n      tag_307\n        /* \"@openzeppelin/contracts/token/ERC20/ERC20.sol\":8060:8067  account */\n      dup3\n        /* \"@openzeppelin/contracts/token/ERC20/ERC20.sol\":8077:8078  0 */\n      0x00\n        /* \"@openzeppelin/contracts/token/ERC20/ERC20.sol\":8081:8086  value */\n      dup4\n        /* \"@openzeppelin/contracts/token/ERC20/ERC20.sol\":8052:8059  _update */\n      tag_303\n        /* \"@openzeppelin/contracts/token/ERC20/ERC20.sol\":8052:8087  _update(account, address(0), value) */\n      jump\t// in\n    tag_307:\n        /* \"@openzeppelin/contracts/token/ERC20/ERC20.sol\":7888:8094  function _burn(address account, uint256 value) internal {... */\n      pop\n      pop\n      jump\t// out\n        /* \"@openzeppelin/contracts/token/ERC20/ERC20.sol\":9605:10037  function _approve(address owner, address spender, uint256 value, bool emitEvent) internal virtual {... */\n    tag_272:\n        /* \"@openzeppelin/contracts/token/ERC20/ERC20.sol\":9734:9735  0 */\n      0x00\n        /* \"@openzeppelin/contracts/token/ERC20/ERC20.sol\":9717:9736  owner == address(0) */\n      0xffffffffffffffffffffffffffffffffffffffff\n      and\n        /* \"@openzeppelin/contracts/token/ERC20/ERC20.sol\":9717:9722  owner */\n      dup5\n        /* \"@openzeppelin/contracts/token/ERC20/ERC20.sol\":9717:9736  owner == address(0) */\n      0xffffffffffffffffffffffffffffffffffffffff\n      and\n      sub\n        /* \"@openzeppelin/contracts/token/ERC20/ERC20.sol\":9713:9802  if (owner == address(0)) {... */\n      tag_309\n      jumpi\n        /* \"@openzeppelin/contracts/token/ERC20/ERC20.sol\":9788:9789  0 */\n      0x00\n        /* \"@openzeppelin/contracts/token/ERC20/ERC20.sol\":9759:9791  ERC20InvalidApprover(address(0)) */\n      mload(0x40)\n      0xe602df0500000000000000000000000000000000000000000000000000000000\n      dup2\n      mstore\n      0x04\n      add\n      tag_310\n      swap2\n      swap1\n      tag_119\n      jump\t// in\n    tag_310:\n      mload(0x40)\n      dup1\n      swap2\n      sub\n      swap1\n      revert\n        /* \"@openzeppelin/contracts/token/ERC20/ERC20.sol\":9713:9802  if (owner == address(0)) {... */\n    tag_309:\n        /* \"@openzeppelin/contracts/token/ERC20/ERC20.sol\":9834:9835  0 */\n      0x00\n        /* \"@openzeppelin/contracts/token/ERC20/ERC20.sol\":9815:9836  spender == address(0) */\n      0xffffffffffffffffffffffffffffffffffffffff\n      and\n        /* \"@openzeppelin/contracts/token/ERC20/ERC20.sol\":9815:9822  spender */\n      dup4\n        /* \"@openzeppelin/contracts/token/ERC20/ERC20.sol\":9815:9836  spender == address(0) */\n      0xffffffffffffffffffffffffffffffffffffffff\n      and\n      sub\n        /* \"@openzeppelin/contracts/token/ERC20/ERC20.sol\":9811:9901  if (spender == address(0)) {... */\n      tag_311\n      jumpi\n        /* \"@openzeppelin/contracts/token/ERC20/ERC20.sol\":9887:9888  0 */\n      0x00\n        /* \"@openzeppelin/contracts/token/ERC20/ERC20.sol\":9859:9890  ERC20InvalidSpender(address(0)) */\n      mload(0x40)\n      0x94280d6200000000000000000000000000000000000000000000000000000000\n      dup2\n      mstore\n      0x04\n      add\n      tag_312\n      swap2\n      swap1\n      tag_119\n      jump\t// in\n    tag_312:\n      mload(0x40)\n      dup1\n      swap2\n      sub\n      swap1\n      revert\n        /* \"@openzeppelin/contracts/token/ERC20/ERC20.sol\":9811:9901  if (spender == address(0)) {... */\n    tag_311:\n        /* \"@openzeppelin/contracts/token/ERC20/ERC20.sol\":9940:9945  value */\n      dup2\n        /* \"@openzeppelin/contracts/token/ERC20/ERC20.sol\":9910:9921  _allowances */\n      0x01\n        /* \"@openzeppelin/contracts/token/ERC20/ERC20.sol\":9910:9928  _allowances[owner] */\n      0x00\n        /* \"@openzeppelin/contracts/token/ERC20/ERC20.sol\":9922:9927  owner */\n      dup7\n        /* \"@openzeppelin/contracts/token/ERC20/ERC20.sol\":9910:9928  _allowances[owner] */\n      0xffffffffffffffffffffffffffffffffffffffff\n      and\n      0xffffffffffffffffffffffffffffffffffffffff\n      and\n      dup2\n      mstore\n      0x20\n      add\n      swap1\n      dup2\n      mstore\n      0x20\n      add\n      0x00\n      keccak256\n        /* \"@openzeppelin/contracts/token/ERC20/ERC20.sol\":9910:9937  _allowances[owner][spender] */\n      0x00\n        /* \"@openzeppelin/contracts/token/ERC20/ERC20.sol\":9929:9936  spender */\n      dup6\n        /* \"@openzeppelin/contracts/token/ERC20/ERC20.sol\":9910:9937  _allowances[owner][spender] */\n      0xffffffffffffffffffffffffffffffffffffffff\n      and\n      0xffffffffffffffffffffffffffffffffffffffff\n      and\n      dup2\n      mstore\n      0x20\n      add\n      swap1\n      dup2\n      mstore\n      0x20\n      add\n      0x00\n      keccak256\n        /* \"@openzeppelin/contracts/token/ERC20/ERC20.sol\":9910:9945  _allowances[owner][spender] = value */\n      dup2\n      swap1\n      sstore\n      pop\n        /* \"@openzeppelin/contracts/token/ERC20/ERC20.sol\":9959:9968  emitEvent */\n      dup1\n        /* \"@openzeppelin/contracts/token/ERC20/ERC20.sol\":9955:10031  if (emitEvent) {... */\n      iszero\n      tag_313\n      jumpi\n        /* \"@openzeppelin/contracts/token/ERC20/ERC20.sol\":10005:10012  spender */\n      dup3\n        /* \"@openzeppelin/contracts/token/ERC20/ERC20.sol\":9989:10020  Approval(owner, spender, value) */\n      0xffffffffffffffffffffffffffffffffffffffff\n      and\n        /* \"@openzeppelin/contracts/token/ERC20/ERC20.sol\":9998:10003  owner */\n      dup5\n        /* \"@openzeppelin/contracts/token/ERC20/ERC20.sol\":9989:10020  Approval(owner, spender, value) */\n      0xffffffffffffffffffffffffffffffffffffffff\n      and\n      0x8c5be1e5ebec7d5bd14f71427d1e84f3dd0314c0f7b2291e5b200ac8c7c3b925\n        /* \"@openzeppelin/contracts/token/ERC20/ERC20.sol\":10014:10019  value */\n      dup5\n        /* \"@openzeppelin/contracts/token/ERC20/ERC20.sol\":9989:10020  Approval(owner, spender, value) */\n      mload(0x40)\n      tag_314\n      swap2\n      swap1\n      tag_46\n      jump\t// in\n    tag_314:\n      mload(0x40)\n      dup1\n      swap2\n      sub\n      swap1\n      log3\n        /* \"@openzeppelin/contracts/token/ERC20/ERC20.sol\":9955:10031  if (emitEvent) {... */\n    tag_313:\n        /* \"@openzeppelin/contracts/token/ERC20/ERC20.sol\":9605:10037  function _approve(address owner, address spender, uint256 value, bool emitEvent) internal virtual {... */\n      pop\n      pop\n      pop\n      pop\n      jump\t// out\n        /* \"@openzeppelin/contracts/token/ERC20/ERC20.sol\":7362:7570  function _mint(address account, uint256 value) internal {... */\n    tag_288:\n        /* \"@openzeppelin/contracts/token/ERC20/ERC20.sol\":7451:7452  0 */\n      0x00\n        /* \"@openzeppelin/contracts/token/ERC20/ERC20.sol\":7432:7453  account == address(0) */\n      0xffffffffffffffffffffffffffffffffffffffff\n      and\n        /* \"@openzeppelin/contracts/token/ERC20/ERC20.sol\":7432:7439  account */\n      dup3\n        /* \"@openzeppelin/contracts/token/ERC20/ERC20.sol\":7432:7453  account == address(0) */\n      0xffffffffffffffffffffffffffffffffffffffff\n      and\n      sub\n        /* \"@openzeppelin/contracts/token/ERC20/ERC20.sol\":7428:7519  if (account == address(0)) {... */\n      tag_316\n      jumpi\n        /* \"@openzeppelin/contracts/token/ERC20/ERC20.sol\":7505:7506  0 */\n      0x00\n        /* \"@openzeppelin/contracts/token/ERC20/ERC20.sol\":7476:7508  ERC20InvalidReceiver(address(0)) */\n      mload(0x40)\n      0xec442f0500000000000000000000000000000000000000000000000000000000\n      dup2\n      mstore\n      0x04\n      add\n      tag_317\n      swap2\n      swap1\n      tag_119\n      jump\t// in\n    tag_317:\n      mload(0x40)\n      dup1\n      swap2\n      sub\n      swap1\n      revert\n        /* \"@openzeppelin/contracts/token/ERC20/ERC20.sol\":7428:7519  if (account == address(0)) {... */\n    tag_316:\n        /* \"@openzeppelin/contracts/token/ERC20/ERC20.sol\":7528:7563  _update(address(0), account, value) */\n      tag_318\n        /* \"@openzeppelin/contracts/token/ERC20/ERC20.sol\":7544:7545  0 */\n      0x00\n        /* \"@openzeppelin/contracts/token/ERC20/ERC20.sol\":7548:7555  account */\n      dup4\n        /* \"@openzeppelin/contracts/token/ERC20/ERC20.sol\":7557:7562  value */\n      dup4\n        /* \"@openzeppelin/contracts/token/ERC20/ERC20.sol\":7528:7535  _update */\n      tag_303\n        /* \"@openzeppelin/contracts/token/ERC20/ERC20.sol\":7528:7563  _update(address(0), account, value) */\n      jump\t// in\n    tag_318:\n        /* \"@openzeppelin/contracts/token/ERC20/ERC20.sol\":7362:7570  function _mint(address account, uint256 value) internal {... */\n      pop\n      pop\n      jump\t// out\n        /* \"@openzeppelin/contracts/token/ERC20/ERC20.sol\":5912:7019  function _update(address from, address to, uint256 value) internal virtual {... */\n    tag_303:\n        /* \"@openzeppelin/contracts/token/ERC20/ERC20.sol\":6017:6018  0 */\n      0x00\n        /* \"@openzeppelin/contracts/token/ERC20/ERC20.sol\":6001:6019  from == address(0) */\n      0xffffffffffffffffffffffffffffffffffffffff\n      and\n        /* \"@openzeppelin/contracts/token/ERC20/ERC20.sol\":6001:6005  from */\n      dup4\n        /* \"@openzeppelin/contracts/token/ERC20/ERC20.sol\":6001:6019  from == address(0) */\n      0xffffffffffffffffffffffffffffffffffffffff\n      and\n      sub\n        /* \"@openzeppelin/contracts/token/ERC20/ERC20.sol\":5997:6537  if (from == address(0)) {... */\n      tag_320\n      jumpi\n        /* \"@openzeppelin/contracts/token/ERC20/ERC20.sol\":6153:6158  value */\n      dup1\n        /* \"@openzeppelin/contracts/token/ERC20/ERC20.sol\":6137:6149  _totalSupply */\n      0x02\n      0x00\n        /* \"@openzeppelin/contracts/token/ERC20/ERC20.sol\":6137:6158  _totalSupply += value */\n      dup3\n      dup3\n      sload\n      tag_321\n      swap2\n      swap1\n      tag_184\n      jump\t// in\n    tag_321:\n      swap3\n      pop\n      pop\n      dup2\n      swap1\n      sstore\n      pop\n        /* \"@openzeppelin/contracts/token/ERC20/ERC20.sol\":5997:6537  if (from == address(0)) {... */\n      jump(tag_322)\n    tag_320:\n        /* \"@openzeppelin/contracts/token/ERC20/ERC20.sol\":6189:6208  uint256 fromBalance */\n      0x00\n        /* \"@openzeppelin/contracts/token/ERC20/ERC20.sol\":6211:6220  _balances */\n      0x00\n        /* \"@openzeppelin/contracts/token/ERC20/ERC20.sol\":6211:6226  _balances[from] */\n      0x00\n        /* \"@openzeppelin/contracts/token/ERC20/ERC20.sol\":6221:6225  from */\n      dup6\n        /* \"@openzeppelin/contracts/token/ERC20/ERC20.sol\":6211:6226  _balances[from] */\n      0xffffffffffffffffffffffffffffffffffffffff\n      and\n      0xffffffffffffffffffffffffffffffffffffffff\n      and\n      dup2\n      mstore\n      0x20\n      add\n      swap1\n      dup2\n      mstore\n      0x20\n      add\n      0x00\n      keccak256\n      sload\n        /* \"@openzeppelin/contracts/token/ERC20/ERC20.sol\":6189:6226  uint256 fromBalance = _balances[from] */\n      swap1\n      pop\n        /* \"@openzeppelin/contracts/token/ERC20/ERC20.sol\":6258:6263  value */\n      dup2\n        /* \"@openzeppelin/contracts/token/ERC20/ERC20.sol\":6244:6255  fromBalance */\n      dup2\n        /* \"@openzeppelin/contracts/token/ERC20/ERC20.sol\":6244:6263  fromBalance < value */\n      lt\n        /* \"@openzeppelin/contracts/token/ERC20/ERC20.sol\":6240:6355  if (fromBalance < value) {... */\n      iszero\n      tag_323\n      jumpi\n        /* \"@openzeppelin/contracts/token/ERC20/ERC20.sol\":6315:6319  from */\n      dup4\n        /* \"@openzeppelin/contracts/token/ERC20/ERC20.sol\":6321:6332  fromBalance */\n      dup2\n        /* \"@openzeppelin/contracts/token/ERC20/ERC20.sol\":6334:6339  value */\n      dup4\n        /* \"@openzeppelin/contracts/token/ERC20/ERC20.sol\":6290:6340  ERC20InsufficientBalance(from, fromBalance, value) */\n      mload(0x40)\n      0xe450d38c00000000000000000000000000000000000000000000000000000000\n      dup2\n      mstore\n      0x04\n      add\n      tag_324\n      swap4\n      swap3\n      swap2\n      swap1\n      tag_295\n      jump\t// in\n    tag_324:\n      mload(0x40)\n      dup1\n      swap2\n      sub\n      swap1\n      revert\n        /* \"@openzeppelin/contracts/token/ERC20/ERC20.sol\":6240:6355  if (fromBalance < value) {... */\n    tag_323:\n        /* \"@openzeppelin/contracts/token/ERC20/ERC20.sol\":6507:6512  value */\n      dup2\n        /* \"@openzeppelin/contracts/token/ERC20/ERC20.sol\":6493:6504  fromBalance */\n      dup2\n        /* \"@openzeppelin/contracts/token/ERC20/ERC20.sol\":6493:6512  fromBalance - value */\n      sub\n        /* \"@openzeppelin/contracts/token/ERC20/ERC20.sol\":6475:6484  _balances */\n      0x00\n        /* \"@openzeppelin/contracts/token/ERC20/ERC20.sol\":6475:6490  _balances[from] */\n      0x00\n        /* \"@openzeppelin/contracts/token/ERC20/ERC20.sol\":6485:6489  from */\n      dup7\n        /* \"@openzeppelin/contracts/token/ERC20/ERC20.sol\":6475:6490  _balances[from] */\n      0xffffffffffffffffffffffffffffffffffffffff\n      and\n      0xffffffffffffffffffffffffffffffffffffffff\n      and\n      dup2\n      mstore\n      0x20\n      add\n      swap1\n      dup2\n      mstore\n      0x20\n      add\n      0x00\n      keccak256\n        /* \"@openzeppelin/contracts/token/ERC20/ERC20.sol\":6475:6512  _balances[from] = fromBalance - value */\n      dup2\n      swap1\n      sstore\n      pop\n        /* \"@openzeppelin/contracts/token/ERC20/ERC20.sol\":6175:6537  {... */\n      pop\n        /* \"@openzeppelin/contracts/token/ERC20/ERC20.sol\":5997:6537  if (from == address(0)) {... */\n    tag_322:\n        /* \"@openzeppelin/contracts/token/ERC20/ERC20.sol\":6565:6566  0 */\n      0x00\n        /* \"@openzeppelin/contracts/token/ERC20/ERC20.sol\":6551:6567  to == address(0) */\n      0xffffffffffffffffffffffffffffffffffffffff\n      and\n        /* \"@openzeppelin/contracts/token/ERC20/ERC20.sol\":6551:6553  to */\n      dup3\n        /* \"@openzeppelin/contracts/token/ERC20/ERC20.sol\":6551:6567  to == address(0) */\n      0xffffffffffffffffffffffffffffffffffffffff\n      and\n      sub\n        /* \"@openzeppelin/contracts/token/ERC20/ERC20.sol\":6547:6972  if (to == address(0)) {... */\n      tag_325\n      jumpi\n        /* \"@openzeppelin/contracts/token/ERC20/ERC20.sol\":6730:6735  value */\n      dup1\n        /* \"@openzeppelin/contracts/token/ERC20/ERC20.sol\":6714:6726  _totalSupply */\n      0x02\n      0x00\n        /* \"@openzeppelin/contracts/token/ERC20/ERC20.sol\":6714:6735  _totalSupply -= value */\n      dup3\n      dup3\n      sload\n      sub\n      swap3\n      pop\n      pop\n      dup2\n      swap1\n      sstore\n      pop\n        /* \"@openzeppelin/contracts/token/ERC20/ERC20.sol\":6547:6972  if (to == address(0)) {... */\n      jump(tag_326)\n    tag_325:\n        /* \"@openzeppelin/contracts/token/ERC20/ERC20.sol\":6942:6947  value */\n      dup1\n        /* \"@openzeppelin/contracts/token/ERC20/ERC20.sol\":6925:6934  _balances */\n      0x00\n        /* \"@openzeppelin/contracts/token/ERC20/ERC20.sol\":6925:6938  _balances[to] */\n      0x00\n        /* \"@openzeppelin/contracts/token/ERC20/ERC20.sol\":6935:6937  to */\n      dup5\n        /* \"@openzeppelin/contracts/token/ERC20/ERC20.sol\":6925:6938  _balances[to] */\n      0xffffffffffffffffffffffffffffffffffffffff\n      and\n      0xffffffffffffffffffffffffffffffffffffffff\n      and\n      dup2\n      mstore\n      0x20\n      add\n      swap1\n      dup2\n      mstore\n      0x20\n      add\n      0x00\n      keccak256\n      0x00\n        /* \"@openzeppelin/contracts/token/ERC20/ERC20.sol\":6925:6947  _balances[to] += value */\n      dup3\n      dup3\n      sload\n      add\n      swap3\n      pop\n      pop\n      dup2\n      swap1\n      sstore\n      pop\n        /* \"@openzeppelin/contracts/token/ERC20/ERC20.sol\":6547:6972  if (to == address(0)) {... */\n    tag_326:\n        /* \"@openzeppelin/contracts/token/ERC20/ERC20.sol\":7002:7004  to */\n      dup2\n        /* \"@openzeppelin/contracts/token/ERC20/ERC20.sol\":6987:7012  Transfer(from, to, value) */\n      0xffffffffffffffffffffffffffffffffffffffff\n      and\n        /* \"@openzeppelin/contracts/token/ERC20/ERC20.sol\":6996:7000  from */\n      dup4\n        /* \"@openzeppelin/contracts/token/ERC20/ERC20.sol\":6987:7012  Transfer(from, to, value) */\n      0xffffffffffffffffffffffffffffffffffffffff\n      and\n      0xddf252ad1be2c89b69c2b068fc378daa952ba7f163c4a11628f55a4df523b3ef\n        /* \"@openzeppelin/contracts/token/ERC20/ERC20.sol\":7006:7011  value */\n      dup4\n        /* \"@openzeppelin/contracts/token/ERC20/ERC20.sol\":6987:7012  Transfer(from, to, value) */\n      mload(0x40)\n      tag_327\n      swap2\n      swap1\n      tag_46\n      jump\t// in\n    tag_327:\n      mload(0x40)\n      dup1\n      swap2\n      sub\n      swap1\n      log3\n        /* \"@openzeppelin/contracts/token/ERC20/ERC20.sol\":5912:7019  function _update(address from, address to, uint256 value) internal virtual {... */\n      pop\n      pop\n      pop\n      jump\t// out\n        /* \"#utility.yul\":7:106   */\n    tag_328:\n        /* \"#utility.yul\":59:65   */\n      0x00\n        /* \"#utility.yul\":93:98   */\n      dup2\n        /* \"#utility.yul\":87:99   */\n      mload\n        /* \"#utility.yul\":77:99   */\n      swap1\n      pop\n        /* \"#utility.yul\":7:106   */\n      swap2\n      swap1\n      pop\n      jump\t// out\n        /* \"#utility.yul\":112:281   */\n    tag_329:\n        /* \"#utility.yul\":196:207   */\n      0x00\n        /* \"#utility.yul\":230:236   */\n      dup3\n        /* \"#utility.yul\":225:228   */\n      dup3\n        /* \"#utility.yul\":218:237   */\n      mstore\n        /* \"#utility.yul\":270:274   */\n      0x20\n        /* \"#utility.yul\":265:268   */\n      dup3\n        /* \"#utility.yul\":261:275   */\n      add\n        /* \"#utility.yul\":246:275   */\n      swap1\n      pop\n        /* \"#utility.yul\":112:281   */\n      swap3\n      swap2\n      pop\n      pop\n      jump\t// out\n        /* \"#utility.yul\":287:426   */\n    tag_330:\n        /* \"#utility.yul\":376:382   */\n      dup3\n        /* \"#utility.yul\":371:374   */\n      dup2\n        /* \"#utility.yul\":366:369   */\n      dup4\n        /* \"#utility.yul\":360:383   */\n      mcopy\n        /* \"#utility.yul\":417:418   */\n      0x00\n        /* \"#utility.yul\":408:414   */\n      dup4\n        /* \"#utility.yul\":403:406   */\n      dup4\n        /* \"#utility.yul\":399:415   */\n      add\n        /* \"#utility.yul\":392:419   */\n      mstore\n        /* \"#utility.yul\":287:426   */\n      pop\n      pop\n      pop\n      jump\t// out\n        /* \"#utility.yul\":432:534   */\n    tag_331:\n        /* \"#utility.yul\":473:479   */\n      0x00\n        /* \"#utility.yul\":524:526   */\n      0x1f\n        /* \"#utility.yul\":520:527   */\n      not\n        /* \"#utility.yul\":515:517   */\n      0x1f\n        /* \"#utility.yul\":508:513   */\n      dup4\n        /* \"#utility.yul\":504:518   */\n      add\n        /* \"#utility.yul\":500:528   */\n      and\n        /* \"#utility.yul\":490:528   */\n      swap1\n      pop\n        /* \"#utility.yul\":432:534   */\n      swap2\n      swap1\n      pop\n      jump\t// out\n        /* \"#utility.yul\":540:917   */\n    tag_332:\n        /* \"#utility.yul\":628:631   */\n      0x00\n        /* \"#utility.yul\":656:695   */\n      tag_374\n        /* \"#utility.yul\":689:694   */\n      dup3\n        /* \"#utility.yul\":656:695   */\n      tag_328\n      jump\t// in\n    tag_374:\n        /* \"#utility.yul\":711:782   */\n      tag_375\n        /* \"#utility.yul\":775:781   */\n      dup2\n        /* \"#utility.yul\":770:773   */\n      dup6\n        /* \"#utility.yul\":711:782   */\n      tag_329\n      jump\t// in\n    tag_375:\n        /* \"#utility.yul\":704:782   */\n      swap4\n      pop\n        /* \"#utility.yul\":791:856   */\n      tag_376\n        /* \"#utility.yul\":849:855   */\n      dup2\n        /* \"#utility.yul\":844:847   */\n      dup6\n        /* \"#utility.yul\":837:841   */\n      0x20\n        /* \"#utility.yul\":830:835   */\n      dup7\n        /* \"#utility.yul\":826:842   */\n      add\n        /* \"#utility.yul\":791:856   */\n      tag_330\n      jump\t// in\n    tag_376:\n        /* \"#utility.yul\":881:910   */\n      tag_377\n        /* \"#utility.yul\":903:909   */\n      dup2\n        /* \"#utility.yul\":881:910   */\n      tag_331\n      jump\t// in\n    tag_377:\n        /* \"#utility.yul\":876:879   */\n      dup5\n        /* \"#utility.yul\":872:911   */\n      add\n        /* \"#utility.yul\":865:911   */\n      swap2\n      pop\n        /* \"#utility.yul\":632:917   */\n      pop\n        /* \"#utility.yul\":540:917   */\n      swap3\n      swap2\n      pop\n      pop\n      jump\t// out\n        /* \"#utility.yul\":923:1236   */\n    tag_41:\n        /* \"#utility.yul\":1036:1040   */\n      0x00\n        /* \"#utility.yul\":1074:1076   */\n      0x20\n        /* \"#utility.yul\":1063:1072   */\n      dup3\n        /* \"#utility.yul\":1059:1077   */\n      add\n        /* \"#utility.yul\":1051:1077   */\n      swap1\n      pop\n        /* \"#utility.yul\":1123:1132   */\n      dup2\n        /* \"#utility.yul\":1117:1121   */\n      dup2\n        /* \"#utility.yul\":1113:1133   */\n      sub\n        /* \"#utility.yul\":1109:1110   */\n      0x00\n        /* \"#utility.yul\":1098:1107   */\n      dup4\n        /* \"#utility.yul\":1094:1111   */\n      add\n        /* \"#utility.yul\":1087:1134   */\n      mstore\n        /* \"#utility.yul\":1151:1229   */\n      tag_379\n        /* \"#utility.yul\":1224:1228   */\n      dup2\n        /* \"#utility.yul\":1215:1221   */\n      dup5\n        /* \"#utility.yul\":1151:1229   */\n      tag_332\n      jump\t// in\n    tag_379:\n        /* \"#utility.yul\":1143:1229   */\n      swap1\n      pop\n        /* \"#utility.yul\":923:1236   */\n      swap3\n      swap2\n      pop\n      pop\n      jump\t// out\n        /* \"#utility.yul\":1242:1319   */\n    tag_333:\n        /* \"#utility.yul\":1279:1286   */\n      0x00\n        /* \"#utility.yul\":1308:1313   */\n      dup2\n        /* \"#utility.yul\":1297:1313   */\n      swap1\n      pop\n        /* \"#utility.yul\":1242:1319   */\n      swap2\n      swap1\n      pop\n      jump\t// out\n        /* \"#utility.yul\":1325:1443   */\n    tag_334:\n        /* \"#utility.yul\":1412:1436   */\n      tag_382\n        /* \"#utility.yul\":1430:1435   */\n      dup2\n        /* \"#utility.yul\":1412:1436   */\n      tag_333\n      jump\t// in\n    tag_382:\n        /* \"#utility.yul\":1407:1410   */\n      dup3\n        /* \"#utility.yul\":1400:1437   */\n      mstore\n        /* \"#utility.yul\":1325:1443   */\n      pop\n      pop\n      jump\t// out\n        /* \"#utility.yul\":1449:1671   */\n    tag_46:\n        /* \"#utility.yul\":1542:1546   */\n      0x00\n        /* \"#utility.yul\":1580:1582   */\n      0x20\n        /* \"#utility.yul\":1569:1578   */\n      dup3\n        /* \"#utility.yul\":1565:1583   */\n      add\n        /* \"#utility.yul\":1557:1583   */\n      swap1\n      pop\n        /* \"#utility.yul\":1593:1664   */\n      tag_384\n        /* \"#utility.yul\":1661:1662   */\n      0x00\n        /* \"#utility.yul\":1650:1659   */\n      dup4\n        /* \"#utility.yul\":1646:1663   */\n      add\n        /* \"#utility.yul\":1637:1643   */\n      dup5\n        /* \"#utility.yul\":1593:1664   */\n      tag_334\n      jump\t// in\n    tag_384:\n        /* \"#utility.yul\":1449:1671   */\n      swap3\n      swap2\n      pop\n      pop\n      jump\t// out\n        /* \"#utility.yul\":1758:1875   */\n    tag_336:\n        /* \"#utility.yul\":1867:1868   */\n      0x00\n        /* \"#utility.yul\":1864:1865   */\n      0x00\n        /* \"#utility.yul\":1857:1869   */\n      revert\n        /* \"#utility.yul\":1881:1998   */\n    tag_337:\n        /* \"#utility.yul\":1990:1991   */\n      0x00\n        /* \"#utility.yul\":1987:1988   */\n      0x00\n        /* \"#utility.yul\":1980:1992   */\n      revert\n        /* \"#utility.yul\":2004:2130   */\n    tag_338:\n        /* \"#utility.yul\":2041:2048   */\n      0x00\n        /* \"#utility.yul\":2081:2123   */\n      0xffffffffffffffffffffffffffffffffffffffff\n        /* \"#utility.yul\":2074:2079   */\n      dup3\n        /* \"#utility.yul\":2070:2124   */\n      and\n        /* \"#utility.yul\":2059:2124   */\n      swap1\n      pop\n        /* \"#utility.yul\":2004:2130   */\n      swap2\n      swap1\n      pop\n      jump\t// out\n        /* \"#utility.yul\":2136:2232   */\n    tag_339:\n        /* \"#utility.yul\":2173:2180   */\n      0x00\n        /* \"#utility.yul\":2202:2226   */\n      tag_390\n        /* \"#utility.yul\":2220:2225   */\n      dup3\n        /* \"#utility.yul\":2202:2226   */\n      tag_338\n      jump\t// in\n    tag_390:\n        /* \"#utility.yul\":2191:2226   */\n      swap1\n      pop\n        /* \"#utility.yul\":2136:2232   */\n      swap2\n      swap1\n      pop\n      jump\t// out\n        /* \"#utility.yul\":2238:2360   */\n    tag_340:\n        /* \"#utility.yul\":2311:2335   */\n      tag_392\n        /* \"#utility.yul\":2329:2334   */\n      dup2\n        /* \"#utility.yul\":2311:2335   */\n      tag_339\n      jump\t// in\n    tag_392:\n        /* \"#utility.yul\":2304:2309   */\n      dup2\n        /* \"#utility.yul\":2301:2336   */\n      eq\n        /* \"#utility.yul\":2291:2354   */\n      tag_393\n      jumpi\n        /* \"#utility.yul\":2350:2351   */\n      0x00\n        /* \"#utility.yul\":2347:2348   */\n      0x00\n        /* \"#utility.yul\":2340:2352   */\n      revert\n        /* \"#utility.yul\":2291:2354   */\n    tag_393:\n        /* \"#utility.yul\":2238:2360   */\n      pop\n      jump\t// out\n        /* \"#utility.yul\":2366:2505   */\n    tag_341:\n        /* \"#utility.yul\":2412:2417   */\n      0x00\n        /* \"#utility.yul\":2450:2456   */\n      dup2\n        /* \"#utility.yul\":2437:2457   */\n      calldataload\n        /* \"#utility.yul\":2428:2457   */\n      swap1\n      pop\n        /* \"#utility.yul\":2466:2499   */\n      tag_395\n        /* \"#utility.yul\":2493:2498   */\n      dup2\n        /* \"#utility.yul\":2466:2499   */\n      tag_340\n      jump\t// in\n    tag_395:\n        /* \"#utility.yul\":2366:2505   */\n      swap3\n      swap2\n      pop\n      pop\n      jump\t// out\n        /* \"#utility.yul\":2511:2633   */\n    tag_342:\n        /* \"#utility.yul\":2584:2608   */\n      tag_397\n        /* \"#utility.yul\":2602:2607   */\n      dup2\n        /* \"#utility.yul\":2584:2608   */\n      tag_333\n      jump\t// in\n    tag_397:\n        /* \"#utility.yul\":2577:2582   */\n      dup2\n        /* \"#utility.yul\":2574:2609   */\n      eq\n        /* \"#utility.yul\":2564:2627   */\n      tag_398\n      jumpi\n        /* \"#utility.yul\":2623:2624   */\n      0x00\n        /* \"#utility.yul\":2620:2621   */\n      0x00\n        /* \"#utility.yul\":2613:2625   */\n      revert\n        /* \"#utility.yul\":2564:2627   */\n    tag_398:\n        /* \"#utility.yul\":2511:2633   */\n      pop\n      jump\t// out\n        /* \"#utility.yul\":2639:2778   */\n    tag_343:\n        /* \"#utility.yul\":2685:2690   */\n      0x00\n        /* \"#utility.yul\":2723:2729   */\n      dup2\n        /* \"#utility.yul\":2710:2730   */\n      calldataload\n        /* \"#utility.yul\":2701:2730   */\n      swap1\n      pop\n        /* \"#utility.yul\":2739:2772   */\n      tag_400\n        /* \"#utility.yul\":2766:2771   */\n      dup2\n        /* \"#utility.yul\":2739:2772   */\n      tag_342\n      jump\t// in\n    tag_400:\n        /* \"#utility.yul\":2639:2778   */\n      swap3\n      swap2\n      pop\n      pop\n      jump\t// out\n        /* \"#utility.yul\":2784:3258   */\n    tag_50:\n        /* \"#utility.yul\":2852:2858   */\n      0x00\n        /* \"#utility.yul\":2860:2866   */\n      0x00\n        /* \"#utility.yul\":2909:2911   */\n      0x40\n        /* \"#utility.yul\":2897:2906   */\n      dup4\n        /* \"#utility.yul\":2888:2895   */\n      dup6\n        /* \"#utility.yul\":2884:2907   */\n      sub\n        /* \"#utility.yul\":2880:2912   */\n      slt\n        /* \"#utility.yul\":2877:2996   */\n      iszero\n      tag_402\n      jumpi\n        /* \"#utility.yul\":2915:2994   */\n      tag_403\n      tag_336\n      jump\t// in\n    tag_403:\n        /* \"#utility.yul\":2877:2996   */\n    tag_402:\n        /* \"#utility.yul\":3035:3036   */\n      0x00\n        /* \"#utility.yul\":3060:3113   */\n      tag_404\n        /* \"#utility.yul\":3105:3112   */\n      dup6\n        /* \"#utility.yul\":3096:3102   */\n      dup3\n        /* \"#utility.yul\":3085:3094   */\n      dup7\n        /* \"#utility.yul\":3081:3103   */\n      add\n        /* \"#utility.yul\":3060:3113   */\n      tag_341\n      jump\t// in\n    tag_404:\n        /* \"#utility.yul\":3050:3113   */\n      swap3\n      pop\n        /* \"#utility.yul\":3006:3123   */\n      pop\n        /* \"#utility.yul\":3162:3164   */\n      0x20\n        /* \"#utility.yul\":3188:3241   */\n      tag_405\n        /* \"#utility.yul\":3233:3240   */\n      dup6\n        /* \"#utility.yul\":3224:3230   */\n      dup3\n        /* \"#utility.yul\":3213:3222   */\n      dup7\n        /* \"#utility.yul\":3209:3231   */\n      add\n        /* \"#utility.yul\":3188:3241   */\n      tag_343\n      jump\t// in\n    tag_405:\n        /* \"#utility.yul\":3178:3241   */\n      swap2\n      pop\n        /* \"#utility.yul\":3133:3251   */\n      pop\n        /* \"#utility.yul\":2784:3258   */\n      swap3\n      pop\n      swap3\n      swap1\n      pop\n      jump\t// out\n        /* \"#utility.yul\":3264:3354   */\n    tag_344:\n        /* \"#utility.yul\":3298:3305   */\n      0x00\n        /* \"#utility.yul\":3341:3346   */\n      dup2\n        /* \"#utility.yul\":3334:3347   */\n      iszero\n        /* \"#utility.yul\":3327:3348   */\n      iszero\n        /* \"#utility.yul\":3316:3348   */\n      swap1\n      pop\n        /* \"#utility.yul\":3264:3354   */\n      swap2\n      swap1\n      pop\n      jump\t// out\n        /* \"#utility.yul\":3360:3469   */\n    tag_345:\n        /* \"#utility.yul\":3441:3462   */\n      tag_408\n        /* \"#utility.yul\":3456:3461   */\n      dup2\n        /* \"#utility.yul\":3441:3462   */\n      tag_344\n      jump\t// in\n    tag_408:\n        /* \"#utility.yul\":3436:3439   */\n      dup3\n        /* \"#utility.yul\":3429:3463   */\n      mstore\n        /* \"#utility.yul\":3360:3469   */\n      pop\n      pop\n      jump\t// out\n        /* \"#utility.yul\":3475:3685   */\n    tag_53:\n        /* \"#utility.yul\":3562:3566   */\n      0x00\n        /* \"#utility.yul\":3600:3602   */\n      0x20\n        /* \"#utility.yul\":3589:3598   */\n      dup3\n        /* \"#utility.yul\":3585:3603   */\n      add\n        /* \"#utility.yul\":3577:3603   */\n      swap1\n      pop\n        /* \"#utility.yul\":3613:3678   */\n      tag_410\n        /* \"#utility.yul\":3675:3676   */\n      0x00\n        /* \"#utility.yul\":3664:3673   */\n      dup4\n        /* \"#utility.yul\":3660:3677   */\n      add\n        /* \"#utility.yul\":3651:3657   */\n      dup5\n        /* \"#utility.yul\":3613:3678   */\n      tag_345\n      jump\t// in\n    tag_410:\n        /* \"#utility.yul\":3475:3685   */\n      swap3\n      swap2\n      pop\n      pop\n      jump\t// out\n        /* \"#utility.yul\":3691:3808   */\n    tag_346:\n        /* \"#utility.yul\":3800:3801   */\n      0x00\n        /* \"#utility.yul\":3797:3798   */\n      0x00\n        /* \"#utility.yul\":3790:3802   */\n      revert\n        /* \"#utility.yul\":3814:3931   */\n    tag_347:\n        /* \"#utility.yul\":3923:3924   */\n      0x00\n        /* \"#utility.yul\":3920:3921   */\n      0x00\n        /* \"#utility.yul\":3913:3925   */\n      revert\n        /* \"#utility.yul\":3937:4054   */\n    tag_348:\n        /* \"#utility.yul\":4046:4047   */\n      0x00\n        /* \"#utility.yul\":4043:4044   */\n      0x00\n        /* \"#utility.yul\":4036:4048   */\n      revert\n        /* \"#utility.yul\":4077:4645   */\n    tag_349:\n        /* \"#utility.yul\":4150:4158   */\n      0x00\n        /* \"#utility.yul\":4160:4166   */\n      0x00\n        /* \"#utility.yul\":4210:4213   */\n      dup4\n        /* \"#utility.yul\":4203:4207   */\n      0x1f\n        /* \"#utility.yul\":4195:4201   */\n      dup5\n        /* \"#utility.yul\":4191:4208   */\n      add\n        /* \"#utility.yul\":4187:4214   */\n      slt\n        /* \"#utility.yul\":4177:4299   */\n      tag_415\n      jumpi\n        /* \"#utility.yul\":4218:4297   */\n      tag_416\n      tag_346\n      jump\t// in\n    tag_416:\n        /* \"#utility.yul\":4177:4299   */\n    tag_415:\n        /* \"#utility.yul\":4331:4337   */\n      dup3\n        /* \"#utility.yul\":4318:4338   */\n      calldataload\n        /* \"#utility.yul\":4308:4338   */\n      swap1\n      pop\n        /* \"#utility.yul\":4361:4379   */\n      0xffffffffffffffff\n        /* \"#utility.yul\":4353:4359   */\n      dup2\n        /* \"#utility.yul\":4350:4380   */\n      gt\n        /* \"#utility.yul\":4347:4464   */\n      iszero\n      tag_417\n      jumpi\n        /* \"#utility.yul\":4383:4462   */\n      tag_418\n      tag_347\n      jump\t// in\n    tag_418:\n        /* \"#utility.yul\":4347:4464   */\n    tag_417:\n        /* \"#utility.yul\":4497:4501   */\n      0x20\n        /* \"#utility.yul\":4489:4495   */\n      dup4\n        /* \"#utility.yul\":4485:4502   */\n      add\n        /* \"#utility.yul\":4473:4502   */\n      swap2\n      pop\n        /* \"#utility.yul\":4551:4554   */\n      dup4\n        /* \"#utility.yul\":4543:4547   */\n      0x20\n        /* \"#utility.yul\":4535:4541   */\n      dup3\n        /* \"#utility.yul\":4531:4548   */\n      mul\n        /* \"#utility.yul\":4521:4529   */\n      dup4\n        /* \"#utility.yul\":4517:4549   */\n      add\n        /* \"#utility.yul\":4514:4555   */\n      gt\n        /* \"#utility.yul\":4511:4639   */\n      iszero\n      tag_419\n      jumpi\n        /* \"#utility.yul\":4558:4637   */\n      tag_420\n      tag_348\n      jump\t// in\n    tag_420:\n        /* \"#utility.yul\":4511:4639   */\n    tag_419:\n        /* \"#utility.yul\":4077:4645   */\n      swap3\n      pop\n      swap3\n      swap1\n      pop\n      jump\t// out\n        /* \"#utility.yul\":4651:5355   */\n    tag_67:\n        /* \"#utility.yul\":4746:4752   */\n      0x00\n        /* \"#utility.yul\":4754:4760   */\n      0x00\n        /* \"#utility.yul\":4762:4768   */\n      0x00\n        /* \"#utility.yul\":4811:4813   */\n      0x40\n        /* \"#utility.yul\":4799:4808   */\n      dup5\n        /* \"#utility.yul\":4790:4797   */\n      dup7\n        /* \"#utility.yul\":4786:4809   */\n      sub\n        /* \"#utility.yul\":4782:4814   */\n      slt\n        /* \"#utility.yul\":4779:4898   */\n      iszero\n      tag_422\n      jumpi\n        /* \"#utility.yul\":4817:4896   */\n      tag_423\n      tag_336\n      jump\t// in\n    tag_423:\n        /* \"#utility.yul\":4779:4898   */\n    tag_422:\n        /* \"#utility.yul\":4937:4938   */\n      0x00\n        /* \"#utility.yul\":4962:5015   */\n      tag_424\n        /* \"#utility.yul\":5007:5014   */\n      dup7\n        /* \"#utility.yul\":4998:5004   */\n      dup3\n        /* \"#utility.yul\":4987:4996   */\n      dup8\n        /* \"#utility.yul\":4983:5005   */\n      add\n        /* \"#utility.yul\":4962:5015   */\n      tag_343\n      jump\t// in\n    tag_424:\n        /* \"#utility.yul\":4952:5015   */\n      swap4\n      pop\n        /* \"#utility.yul\":4908:5025   */\n      pop\n        /* \"#utility.yul\":5092:5094   */\n      0x20\n        /* \"#utility.yul\":5081:5090   */\n      dup5\n        /* \"#utility.yul\":5077:5095   */\n      add\n        /* \"#utility.yul\":5064:5096   */\n      calldataload\n        /* \"#utility.yul\":5123:5141   */\n      0xffffffffffffffff\n        /* \"#utility.yul\":5115:5121   */\n      dup2\n        /* \"#utility.yul\":5112:5142   */\n      gt\n        /* \"#utility.yul\":5109:5226   */\n      iszero\n      tag_425\n      jumpi\n        /* \"#utility.yul\":5145:5224   */\n      tag_426\n      tag_337\n      jump\t// in\n    tag_426:\n        /* \"#utility.yul\":5109:5226   */\n    tag_425:\n        /* \"#utility.yul\":5258:5338   */\n      tag_427\n        /* \"#utility.yul\":5330:5337   */\n      dup7\n        /* \"#utility.yul\":5321:5327   */\n      dup3\n        /* \"#utility.yul\":5310:5319   */\n      dup8\n        /* \"#utility.yul\":5306:5328   */\n      add\n        /* \"#utility.yul\":5258:5338   */\n      tag_349\n      jump\t// in\n    tag_427:\n        /* \"#utility.yul\":5240:5338   */\n      swap3\n      pop\n      swap3\n      pop\n        /* \"#utility.yul\":5035:5348   */\n      pop\n        /* \"#utility.yul\":4651:5355   */\n      swap3\n      pop\n      swap3\n      pop\n      swap3\n      jump\t// out\n        /* \"#utility.yul\":5361:5980   */\n    tag_72:\n        /* \"#utility.yul\":5438:5444   */\n      0x00\n        /* \"#utility.yul\":5446:5452   */\n      0x00\n        /* \"#utility.yul\":5454:5460   */\n      0x00\n        /* \"#utility.yul\":5503:5505   */\n      0x60\n        /* \"#utility.yul\":5491:5500   */\n      dup5\n        /* \"#utility.yul\":5482:5489   */\n      dup7\n        /* \"#utility.yul\":5478:5501   */\n      sub\n        /* \"#utility.yul\":5474:5506   */\n      slt\n        /* \"#utility.yul\":5471:5590   */\n      iszero\n      tag_429\n      jumpi\n        /* \"#utility.yul\":5509:5588   */\n      tag_430\n      tag_336\n      jump\t// in\n    tag_430:\n        /* \"#utility.yul\":5471:5590   */\n    tag_429:\n        /* \"#utility.yul\":5629:5630   */\n      0x00\n        /* \"#utility.yul\":5654:5707   */\n      tag_431\n        /* \"#utility.yul\":5699:5706   */\n      dup7\n        /* \"#utility.yul\":5690:5696   */\n      dup3\n        /* \"#utility.yul\":5679:5688   */\n      dup8\n        /* \"#utility.yul\":5675:5697   */\n      add\n        /* \"#utility.yul\":5654:5707   */\n      tag_341\n      jump\t// in\n    tag_431:\n        /* \"#utility.yul\":5644:5707   */\n      swap4\n      pop\n        /* \"#utility.yul\":5600:5717   */\n      pop\n        /* \"#utility.yul\":5756:5758   */\n      0x20\n        /* \"#utility.yul\":5782:5835   */\n      tag_432\n        /* \"#utility.yul\":5827:5834   */\n      dup7\n        /* \"#utility.yul\":5818:5824   */\n      dup3\n        /* \"#utility.yul\":5807:5816   */\n      dup8\n        /* \"#utility.yul\":5803:5825   */\n      add\n        /* \"#utility.yul\":5782:5835   */\n      tag_341\n      jump\t// in\n    tag_432:\n        /* \"#utility.yul\":5772:5835   */\n      swap3\n      pop\n        /* \"#utility.yul\":5727:5845   */\n      pop\n        /* \"#utility.yul\":5884:5886   */\n      0x40\n        /* \"#utility.yul\":5910:5963   */\n      tag_433\n        /* \"#utility.yul\":5955:5962   */\n      dup7\n        /* \"#utility.yul\":5946:5952   */\n      dup3\n        /* \"#utility.yul\":5935:5944   */\n      dup8\n        /* \"#utility.yul\":5931:5953   */\n      add\n        /* \"#utility.yul\":5910:5963   */\n      tag_343\n      jump\t// in\n    tag_433:\n        /* \"#utility.yul\":5900:5963   */\n      swap2\n      pop\n        /* \"#utility.yul\":5855:5973   */\n      pop\n        /* \"#utility.yul\":5361:5980   */\n      swap3\n      pop\n      swap3\n      pop\n      swap3\n      jump\t// out\n        /* \"#utility.yul\":5986:6315   */\n    tag_78:\n        /* \"#utility.yul\":6045:6051   */\n      0x00\n        /* \"#utility.yul\":6094:6096   */\n      0x20\n        /* \"#utility.yul\":6082:6091   */\n      dup3\n        /* \"#utility.yul\":6073:6080   */\n      dup5\n        /* \"#utility.yul\":6069:6092   */\n      sub\n        /* \"#utility.yul\":6065:6097   */\n      slt\n        /* \"#utility.yul\":6062:6181   */\n      iszero\n      tag_435\n      jumpi\n        /* \"#utility.yul\":6100:6179   */\n      tag_436\n      tag_336\n      jump\t// in\n    tag_436:\n        /* \"#utility.yul\":6062:6181   */\n    tag_435:\n        /* \"#utility.yul\":6220:6221   */\n      0x00\n        /* \"#utility.yul\":6245:6298   */\n      tag_437\n        /* \"#utility.yul\":6290:6297   */\n      dup5\n        /* \"#utility.yul\":6281:6287   */\n      dup3\n        /* \"#utility.yul\":6270:6279   */\n      dup6\n        /* \"#utility.yul\":6266:6288   */\n      add\n        /* \"#utility.yul\":6245:6298   */\n      tag_343\n      jump\t// in\n    tag_437:\n        /* \"#utility.yul\":6235:6298   */\n      swap2\n      pop\n        /* \"#utility.yul\":6191:6308   */\n      pop\n        /* \"#utility.yul\":5986:6315   */\n      swap3\n      swap2\n      pop\n      pop\n      jump\t// out\n        /* \"#utility.yul\":6321:6407   */\n    tag_350:\n        /* \"#utility.yul\":6356:6363   */\n      0x00\n        /* \"#utility.yul\":6396:6400   */\n      0xff\n        /* \"#utility.yul\":6389:6394   */\n      dup3\n        /* \"#utility.yul\":6385:6401   */\n      and\n        /* \"#utility.yul\":6374:6401   */\n      swap1\n      pop\n        /* \"#utility.yul\":6321:6407   */\n      swap2\n      swap1\n      pop\n      jump\t// out\n        /* \"#utility.yul\":6413:6525   */\n    tag_351:\n        /* \"#utility.yul\":6496:6518   */\n      tag_440\n        /* \"#utility.yul\":6512:6517   */\n      dup2\n        /* \"#utility.yul\":6496:6518   */\n      tag_350\n      jump\t// in\n    tag_440:\n        /* \"#utility.yul\":6491:6494   */\n      dup3\n        /* \"#utility.yul\":6484:6519   */\n      mstore\n        /* \"#utility.yul\":6413:6525   */\n      pop\n      pop\n      jump\t// out\n        /* \"#utility.yul\":6531:6745   */\n    tag_85:\n        /* \"#utility.yul\":6620:6624   */\n      0x00\n        /* \"#utility.yul\":6658:6660   */\n      0x20\n        /* \"#utility.yul\":6647:6656   */\n      dup3\n        /* \"#utility.yul\":6643:6661   */\n      add\n        /* \"#utility.yul\":6635:6661   */\n      swap1\n      pop\n        /* \"#utility.yul\":6671:6738   */\n      tag_442\n        /* \"#utility.yul\":6735:6736   */\n      0x00\n        /* \"#utility.yul\":6724:6733   */\n      dup4\n        /* \"#utility.yul\":6720:6737   */\n      add\n        /* \"#utility.yul\":6711:6717   */\n      dup5\n        /* \"#utility.yul\":6671:6738   */\n      tag_351\n      jump\t// in\n    tag_442:\n        /* \"#utility.yul\":6531:6745   */\n      swap3\n      swap2\n      pop\n      pop\n      jump\t// out\n        /* \"#utility.yul\":6751:6844   */\n    tag_352:\n        /* \"#utility.yul\":6787:6794   */\n      0x00\n        /* \"#utility.yul\":6827:6837   */\n      0xffffffff\n        /* \"#utility.yul\":6820:6825   */\n      dup3\n        /* \"#utility.yul\":6816:6838   */\n      and\n        /* \"#utility.yul\":6805:6838   */\n      swap1\n      pop\n        /* \"#utility.yul\":6751:6844   */\n      swap2\n      swap1\n      pop\n      jump\t// out\n        /* \"#utility.yul\":6850:6965   */\n    tag_353:\n        /* \"#utility.yul\":6935:6958   */\n      tag_445\n        /* \"#utility.yul\":6952:6957   */\n      dup2\n        /* \"#utility.yul\":6935:6958   */\n      tag_352\n      jump\t// in\n    tag_445:\n        /* \"#utility.yul\":6930:6933   */\n      dup3\n        /* \"#utility.yul\":6923:6959   */\n      mstore\n        /* \"#utility.yul\":6850:6965   */\n      pop\n      pop\n      jump\t// out\n        /* \"#utility.yul\":6971:7189   */\n    tag_90:\n        /* \"#utility.yul\":7062:7066   */\n      0x00\n        /* \"#utility.yul\":7100:7102   */\n      0x20\n        /* \"#utility.yul\":7089:7098   */\n      dup3\n        /* \"#utility.yul\":7085:7103   */\n      add\n        /* \"#utility.yul\":7077:7103   */\n      swap1\n      pop\n        /* \"#utility.yul\":7113:7182   */\n      tag_447\n        /* \"#utility.yul\":7179:7180   */\n      0x00\n        /* \"#utility.yul\":7168:7177   */\n      dup4\n        /* \"#utility.yul\":7164:7181   */\n      add\n        /* \"#utility.yul\":7155:7161   */\n      dup5\n        /* \"#utility.yul\":7113:7182   */\n      tag_353\n      jump\t// in\n    tag_447:\n        /* \"#utility.yul\":6971:7189   */\n      swap3\n      swap2\n      pop\n      pop\n      jump\t// out\n        /* \"#utility.yul\":7195:7313   */\n    tag_354:\n        /* \"#utility.yul\":7282:7306   */\n      tag_449\n        /* \"#utility.yul\":7300:7305   */\n      dup2\n        /* \"#utility.yul\":7282:7306   */\n      tag_339\n      jump\t// in\n    tag_449:\n        /* \"#utility.yul\":7277:7280   */\n      dup3\n        /* \"#utility.yul\":7270:7307   */\n      mstore\n        /* \"#utility.yul\":7195:7313   */\n      pop\n      pop\n      jump\t// out\n        /* \"#utility.yul\":7319:7541   */\n    tag_119:\n        /* \"#utility.yul\":7412:7416   */\n      0x00\n        /* \"#utility.yul\":7450:7452   */\n      0x20\n        /* \"#utility.yul\":7439:7448   */\n      dup3\n        /* \"#utility.yul\":7435:7453   */\n      add\n        /* \"#utility.yul\":7427:7453   */\n      swap1\n      pop\n        /* \"#utility.yul\":7463:7534   */\n      tag_451\n        /* \"#utility.yul\":7531:7532   */\n      0x00\n        /* \"#utility.yul\":7520:7529   */\n      dup4\n        /* \"#utility.yul\":7516:7533   */\n      add\n        /* \"#utility.yul\":7507:7513   */\n      dup5\n        /* \"#utility.yul\":7463:7534   */\n      tag_354\n      jump\t// in\n    tag_451:\n        /* \"#utility.yul\":7319:7541   */\n      swap3\n      swap2\n      pop\n      pop\n      jump\t// out\n        /* \"#utility.yul\":7547:7876   */\n    tag_123:\n        /* \"#utility.yul\":7606:7612   */\n      0x00\n        /* \"#utility.yul\":7655:7657   */\n      0x20\n        /* \"#utility.yul\":7643:7652   */\n      dup3\n        /* \"#utility.yul\":7634:7641   */\n      dup5\n        /* \"#utility.yul\":7630:7653   */\n      sub\n        /* \"#utility.yul\":7626:7658   */\n      slt\n        /* \"#utility.yul\":7623:7742   */\n      iszero\n      tag_453\n      jumpi\n        /* \"#utility.yul\":7661:7740   */\n      tag_454\n      tag_336\n      jump\t// in\n    tag_454:\n        /* \"#utility.yul\":7623:7742   */\n    tag_453:\n        /* \"#utility.yul\":7781:7782   */\n      0x00\n        /* \"#utility.yul\":7806:7859   */\n      tag_455\n        /* \"#utility.yul\":7851:7858   */\n      dup5\n        /* \"#utility.yul\":7842:7848   */\n      dup3\n        /* \"#utility.yul\":7831:7840   */\n      dup6\n        /* \"#utility.yul\":7827:7849   */\n      add\n        /* \"#utility.yul\":7806:7859   */\n      tag_341\n      jump\t// in\n    tag_455:\n        /* \"#utility.yul\":7796:7859   */\n      swap2\n      pop\n        /* \"#utility.yul\":7752:7869   */\n      pop\n        /* \"#utility.yul\":7547:7876   */\n      swap3\n      swap2\n      pop\n      pop\n      jump\t// out\n        /* \"#utility.yul\":7882:8356   */\n    tag_141:\n        /* \"#utility.yul\":7950:7956   */\n      0x00\n        /* \"#utility.yul\":7958:7964   */\n      0x00\n        /* \"#utility.yul\":8007:8009   */\n      0x40\n        /* \"#utility.yul\":7995:8004   */\n      dup4\n        /* \"#utility.yul\":7986:7993   */\n      dup6\n        /* \"#utility.yul\":7982:8005   */\n      sub\n        /* \"#utility.yul\":7978:8010   */\n      slt\n        /* \"#utility.yul\":7975:8094   */\n      iszero\n      tag_457\n      jumpi\n        /* \"#utility.yul\":8013:8092   */\n      tag_458\n      tag_336\n      jump\t// in\n    tag_458:\n        /* \"#utility.yul\":7975:8094   */\n    tag_457:\n        /* \"#utility.yul\":8133:8134   */\n      0x00\n        /* \"#utility.yul\":8158:8211   */\n      tag_459\n        /* \"#utility.yul\":8203:8210   */\n      dup6\n        /* \"#utility.yul\":8194:8200   */\n      dup3\n        /* \"#utility.yul\":8183:8192   */\n      dup7\n        /* \"#utility.yul\":8179:8201   */\n      add\n        /* \"#utility.yul\":8158:8211   */\n      tag_343\n      jump\t// in\n    tag_459:\n        /* \"#utility.yul\":8148:8211   */\n      swap3\n      pop\n        /* \"#utility.yul\":8104:8221   */\n      pop\n        /* \"#utility.yul\":8260:8262   */\n      0x20\n        /* \"#utility.yul\":8286:8339   */\n      tag_460\n        /* \"#utility.yul\":8331:8338   */\n      dup6\n        /* \"#utility.yul\":8322:8328   */\n      dup3\n        /* \"#utility.yul\":8311:8320   */\n      dup7\n        /* \"#utility.yul\":8307:8329   */\n      add\n        /* \"#utility.yul\":8286:8339   */\n      tag_343\n      jump\t// in\n    tag_460:\n        /* \"#utility.yul\":8276:8339   */\n      swap2\n      pop\n        /* \"#utility.yul\":8231:8349   */\n      pop\n        /* \"#utility.yul\":7882:8356   */\n      swap3\n      pop\n      swap3\n      swap1\n      pop\n      jump\t// out\n        /* \"#utility.yul\":8362:8836   */\n    tag_160:\n        /* \"#utility.yul\":8430:8436   */\n      0x00\n        /* \"#utility.yul\":8438:8444   */\n      0x00\n        /* \"#utility.yul\":8487:8489   */\n      0x40\n        /* \"#utility.yul\":8475:8484   */\n      dup4\n        /* \"#utility.yul\":8466:8473   */\n      dup6\n        /* \"#utility.yul\":8462:8485   */\n      sub\n        /* \"#utility.yul\":8458:8490   */\n      slt\n        /* \"#utility.yul\":8455:8574   */\n      iszero\n      tag_462\n      jumpi\n        /* \"#utility.yul\":8493:8572   */\n      tag_463\n      tag_336\n      jump\t// in\n    tag_463:\n        /* \"#utility.yul\":8455:8574   */\n    tag_462:\n        /* \"#utility.yul\":8613:8614   */\n      0x00\n        /* \"#utility.yul\":8638:8691   */\n      tag_464\n        /* \"#utility.yul\":8683:8690   */\n      dup6\n        /* \"#utility.yul\":8674:8680   */\n      dup3\n        /* \"#utility.yul\":8663:8672   */\n      dup7\n        /* \"#utility.yul\":8659:8681   */\n      add\n        /* \"#utility.yul\":8638:8691   */\n      tag_341\n      jump\t// in\n    tag_464:\n        /* \"#utility.yul\":8628:8691   */\n      swap3\n      pop\n        /* \"#utility.yul\":8584:8701   */\n      pop\n        /* \"#utility.yul\":8740:8742   */\n      0x20\n        /* \"#utility.yul\":8766:8819   */\n      tag_465\n        /* \"#utility.yul\":8811:8818   */\n      dup6\n        /* \"#utility.yul\":8802:8808   */\n      dup3\n        /* \"#utility.yul\":8791:8800   */\n      dup7\n        /* \"#utility.yul\":8787:8809   */\n      add\n        /* \"#utility.yul\":8766:8819   */\n      tag_341\n      jump\t// in\n    tag_465:\n        /* \"#utility.yul\":8756:8819   */\n      swap2\n      pop\n        /* \"#utility.yul\":8711:8829   */\n      pop\n        /* \"#utility.yul\":8362:8836   */\n      swap3\n      pop\n      swap3\n      swap1\n      pop\n      jump\t// out\n        /* \"#utility.yul\":8842:9022   */\n    tag_355:\n        /* \"#utility.yul\":8890:8967   */\n      0x4e487b7100000000000000000000000000000000000000000000000000000000\n        /* \"#utility.yul\":8887:8888   */\n      0x00\n        /* \"#utility.yul\":8880:8968   */\n      mstore\n        /* \"#utility.yul\":8987:8991   */\n      0x22\n        /* \"#utility.yul\":8984:8985   */\n      0x04\n        /* \"#utility.yul\":8977:8992   */\n      mstore\n        /* \"#utility.yul\":9011:9015   */\n      0x24\n        /* \"#utility.yul\":9008:9009   */\n      0x00\n        /* \"#utility.yul\":9001:9016   */\n      revert\n        /* \"#utility.yul\":9028:9348   */\n    tag_170:\n        /* \"#utility.yul\":9072:9078   */\n      0x00\n        /* \"#utility.yul\":9109:9110   */\n      0x02\n        /* \"#utility.yul\":9103:9107   */\n      dup3\n        /* \"#utility.yul\":9099:9111   */\n      div\n        /* \"#utility.yul\":9089:9111   */\n      swap1\n      pop\n        /* \"#utility.yul\":9156:9157   */\n      0x01\n        /* \"#utility.yul\":9150:9154   */\n      dup3\n        /* \"#utility.yul\":9146:9158   */\n      and\n        /* \"#utility.yul\":9177:9195   */\n      dup1\n        /* \"#utility.yul\":9167:9248   */\n      tag_468\n      jumpi\n        /* \"#utility.yul\":9233:9237   */\n      0x7f\n        /* \"#utility.yul\":9225:9231   */\n      dup3\n        /* \"#utility.yul\":9221:9238   */\n      and\n        /* \"#utility.yul\":9211:9238   */\n      swap2\n      pop\n        /* \"#utility.yul\":9167:9248   */\n    tag_468:\n        /* \"#utility.yul\":9295:9297   */\n      0x20\n        /* \"#utility.yul\":9287:9293   */\n      dup3\n        /* \"#utility.yul\":9284:9298   */\n      lt\n        /* \"#utility.yul\":9264:9282   */\n      dup2\n        /* \"#utility.yul\":9261:9299   */\n      sub\n        /* \"#utility.yul\":9258:9342   */\n      tag_469\n      jumpi\n        /* \"#utility.yul\":9314:9332   */\n      tag_470\n      tag_355\n      jump\t// in\n    tag_470:\n        /* \"#utility.yul\":9258:9342   */\n    tag_469:\n        /* \"#utility.yul\":9079:9348   */\n      pop\n        /* \"#utility.yul\":9028:9348   */\n      swap2\n      swap1\n      pop\n      jump\t// out\n        /* \"#utility.yul\":9354:9534   */\n    tag_356:\n        /* \"#utility.yul\":9402:9479   */\n      0x4e487b7100000000000000000000000000000000000000000000000000000000\n        /* \"#utility.yul\":9399:9400   */\n      0x00\n        /* \"#utility.yul\":9392:9480   */\n      mstore\n        /* \"#utility.yul\":9499:9503   */\n      0x11\n        /* \"#utility.yul\":9496:9497   */\n      0x04\n        /* \"#utility.yul\":9489:9504   */\n      mstore\n        /* \"#utility.yul\":9523:9527   */\n      0x24\n        /* \"#utility.yul\":9520:9521   */\n      0x00\n        /* \"#utility.yul\":9513:9528   */\n      revert\n        /* \"#utility.yul\":9540:9731   */\n    tag_184:\n        /* \"#utility.yul\":9580:9583   */\n      0x00\n        /* \"#utility.yul\":9599:9619   */\n      tag_473\n        /* \"#utility.yul\":9617:9618   */\n      dup3\n        /* \"#utility.yul\":9599:9619   */\n      tag_333\n      jump\t// in\n    tag_473:\n        /* \"#utility.yul\":9594:9619   */\n      swap2\n      pop\n        /* \"#utility.yul\":9633:9653   */\n      tag_474\n        /* \"#utility.yul\":9651:9652   */\n      dup4\n        /* \"#utility.yul\":9633:9653   */\n      tag_333\n      jump\t// in\n    tag_474:\n        /* \"#utility.yul\":9628:9653   */\n      swap3\n      pop\n        /* \"#utility.yul\":9676:9677   */\n      dup3\n        /* \"#utility.yul\":9673:9674   */\n      dup3\n        /* \"#utility.yul\":9669:9678   */\n      add\n        /* \"#utility.yul\":9662:9678   */\n      swap1\n      pop\n        /* \"#utility.yul\":9697:9700   */\n      dup1\n        /* \"#utility.yul\":9694:9695   */\n      dup3\n        /* \"#utility.yul\":9691:9701   */\n      gt\n        /* \"#utility.yul\":9688:9724   */\n      iszero\n      tag_475\n      jumpi\n        /* \"#utility.yul\":9704:9722   */\n      tag_476\n      tag_356\n      jump\t// in\n    tag_476:\n        /* \"#utility.yul\":9688:9724   */\n    tag_475:\n        /* \"#utility.yul\":9540:9731   */\n      swap3\n      swap2\n      pop\n      pop\n      jump\t// out\n        /* \"#utility.yul\":9737:9797   */\n    tag_357:\n        /* \"#utility.yul\":9765:9768   */\n      0x00\n        /* \"#utility.yul\":9786:9791   */\n      dup2\n        /* \"#utility.yul\":9779:9791   */\n      swap1\n      pop\n        /* \"#utility.yul\":9737:9797   */\n      swap2\n      swap1\n      pop\n      jump\t// out\n        /* \"#utility.yul\":9803:9943   */\n    tag_358:\n        /* \"#utility.yul\":9852:9861   */\n      0x00\n        /* \"#utility.yul\":9885:9937   */\n      tag_479\n        /* \"#utility.yul\":9903:9936   */\n      tag_480\n        /* \"#utility.yul\":9912:9935   */\n      tag_481\n        /* \"#utility.yul\":9929:9934   */\n      dup5\n        /* \"#utility.yul\":9912:9935   */\n      tag_352\n      jump\t// in\n    tag_481:\n        /* \"#utility.yul\":9903:9936   */\n      tag_357\n      jump\t// in\n    tag_480:\n        /* \"#utility.yul\":9885:9937   */\n      tag_333\n      jump\t// in\n    tag_479:\n        /* \"#utility.yul\":9872:9937   */\n      swap1\n      pop\n        /* \"#utility.yul\":9803:9943   */\n      swap2\n      swap1\n      pop\n      jump\t// out\n        /* \"#utility.yul\":9949:10078   */\n    tag_359:\n        /* \"#utility.yul\":10035:10071   */\n      tag_483\n        /* \"#utility.yul\":10065:10070   */\n      dup2\n        /* \"#utility.yul\":10035:10071   */\n      tag_358\n      jump\t// in\n    tag_483:\n        /* \"#utility.yul\":10030:10033   */\n      dup3\n        /* \"#utility.yul\":10023:10072   */\n      mstore\n        /* \"#utility.yul\":9949:10078   */\n      pop\n      pop\n      jump\t// out\n        /* \"#utility.yul\":10084:10304   */\n    tag_188:\n        /* \"#utility.yul\":10176:10180   */\n      0x00\n        /* \"#utility.yul\":10214:10216   */\n      0x20\n        /* \"#utility.yul\":10203:10212   */\n      dup3\n        /* \"#utility.yul\":10199:10217   */\n      add\n        /* \"#utility.yul\":10191:10217   */\n      swap1\n      pop\n        /* \"#utility.yul\":10227:10297   */\n      tag_485\n        /* \"#utility.yul\":10294:10295   */\n      0x00\n        /* \"#utility.yul\":10283:10292   */\n      dup4\n        /* \"#utility.yul\":10279:10296   */\n      add\n        /* \"#utility.yul\":10270:10276   */\n      dup5\n        /* \"#utility.yul\":10227:10297   */\n      tag_359\n      jump\t// in\n    tag_485:\n        /* \"#utility.yul\":10084:10304   */\n      swap3\n      swap2\n      pop\n      pop\n      jump\t// out\n        /* \"#utility.yul\":10310:10453   */\n    tag_360:\n        /* \"#utility.yul\":10367:10372   */\n      0x00\n        /* \"#utility.yul\":10398:10404   */\n      dup2\n        /* \"#utility.yul\":10392:10405   */\n      mload\n        /* \"#utility.yul\":10383:10405   */\n      swap1\n      pop\n        /* \"#utility.yul\":10414:10447   */\n      tag_487\n        /* \"#utility.yul\":10441:10446   */\n      dup2\n        /* \"#utility.yul\":10414:10447   */\n      tag_342\n      jump\t// in\n    tag_487:\n        /* \"#utility.yul\":10310:10453   */\n      swap3\n      swap2\n      pop\n      pop\n      jump\t// out\n        /* \"#utility.yul\":10459:10810   */\n    tag_192:\n        /* \"#utility.yul\":10529:10535   */\n      0x00\n        /* \"#utility.yul\":10578:10580   */\n      0x20\n        /* \"#utility.yul\":10566:10575   */\n      dup3\n        /* \"#utility.yul\":10557:10564   */\n      dup5\n        /* \"#utility.yul\":10553:10576   */\n      sub\n        /* \"#utility.yul\":10549:10581   */\n      slt\n        /* \"#utility.yul\":10546:10665   */\n      iszero\n      tag_489\n      jumpi\n        /* \"#utility.yul\":10584:10663   */\n      tag_490\n      tag_336\n      jump\t// in\n    tag_490:\n        /* \"#utility.yul\":10546:10665   */\n    tag_489:\n        /* \"#utility.yul\":10704:10705   */\n      0x00\n        /* \"#utility.yul\":10729:10793   */\n      tag_491\n        /* \"#utility.yul\":10785:10792   */\n      dup5\n        /* \"#utility.yul\":10776:10782   */\n      dup3\n        /* \"#utility.yul\":10765:10774   */\n      dup6\n        /* \"#utility.yul\":10761:10783   */\n      add\n        /* \"#utility.yul\":10729:10793   */\n      tag_360\n      jump\t// in\n    tag_491:\n        /* \"#utility.yul\":10719:10793   */\n      swap2\n      pop\n        /* \"#utility.yul\":10675:10803   */\n      pop\n        /* \"#utility.yul\":10459:10810   */\n      swap3\n      swap2\n      pop\n      pop\n      jump\t// out\n        /* \"#utility.yul\":10816:10901   */\n    tag_361:\n        /* \"#utility.yul\":10861:10868   */\n      0x00\n        /* \"#utility.yul\":10890:10895   */\n      dup2\n        /* \"#utility.yul\":10879:10895   */\n      swap1\n      pop\n        /* \"#utility.yul\":10816:10901   */\n      swap2\n      swap1\n      pop\n      jump\t// out\n        /* \"#utility.yul\":10907:11065   */\n    tag_362:\n        /* \"#utility.yul\":10965:10974   */\n      0x00\n        /* \"#utility.yul\":10998:11059   */\n      tag_494\n        /* \"#utility.yul\":11016:11058   */\n      tag_495\n        /* \"#utility.yul\":11025:11057   */\n      tag_496\n        /* \"#utility.yul\":11051:11056   */\n      dup5\n        /* \"#utility.yul\":11025:11057   */\n      tag_361\n      jump\t// in\n    tag_496:\n        /* \"#utility.yul\":11016:11058   */\n      tag_357\n      jump\t// in\n    tag_495:\n        /* \"#utility.yul\":10998:11059   */\n      tag_333\n      jump\t// in\n    tag_494:\n        /* \"#utility.yul\":10985:11059   */\n      swap1\n      pop\n        /* \"#utility.yul\":10907:11065   */\n      swap2\n      swap1\n      pop\n      jump\t// out\n        /* \"#utility.yul\":11071:11218   */\n    tag_363:\n        /* \"#utility.yul\":11166:11211   */\n      tag_498\n        /* \"#utility.yul\":11205:11210   */\n      dup2\n        /* \"#utility.yul\":11166:11211   */\n      tag_362\n      jump\t// in\n    tag_498:\n        /* \"#utility.yul\":11161:11164   */\n      dup3\n        /* \"#utility.yul\":11154:11212   */\n      mstore\n        /* \"#utility.yul\":11071:11218   */\n      pop\n      pop\n      jump\t// out\n        /* \"#utility.yul\":11224:11680   */\n    tag_196:\n        /* \"#utility.yul\":11380:11384   */\n      0x00\n        /* \"#utility.yul\":11418:11420   */\n      0x60\n        /* \"#utility.yul\":11407:11416   */\n      dup3\n        /* \"#utility.yul\":11403:11421   */\n      add\n        /* \"#utility.yul\":11395:11421   */\n      swap1\n      pop\n        /* \"#utility.yul\":11431:11501   */\n      tag_500\n        /* \"#utility.yul\":11498:11499   */\n      0x00\n        /* \"#utility.yul\":11487:11496   */\n      dup4\n        /* \"#utility.yul\":11483:11500   */\n      add\n        /* \"#utility.yul\":11474:11480   */\n      dup7\n        /* \"#utility.yul\":11431:11501   */\n      tag_359\n      jump\t// in\n    tag_500:\n        /* \"#utility.yul\":11511:11591   */\n      tag_501\n        /* \"#utility.yul\":11587:11589   */\n      0x20\n        /* \"#utility.yul\":11576:11585   */\n      dup4\n        /* \"#utility.yul\":11572:11590   */\n      add\n        /* \"#utility.yul\":11563:11569   */\n      dup6\n        /* \"#utility.yul\":11511:11591   */\n      tag_363\n      jump\t// in\n    tag_501:\n        /* \"#utility.yul\":11601:11673   */\n      tag_502\n        /* \"#utility.yul\":11669:11671   */\n      0x40\n        /* \"#utility.yul\":11658:11667   */\n      dup4\n        /* \"#utility.yul\":11654:11672   */\n      add\n        /* \"#utility.yul\":11645:11651   */\n      dup5\n        /* \"#utility.yul\":11601:11673   */\n      tag_354\n      jump\t// in\n    tag_502:\n        /* \"#utility.yul\":11224:11680   */\n      swap5\n      swap4\n      pop\n      pop\n      pop\n      pop\n      jump\t// out\n        /* \"#utility.yul\":11686:12018   */\n    tag_201:\n        /* \"#utility.yul\":11807:11811   */\n      0x00\n        /* \"#utility.yul\":11845:11847   */\n      0x40\n        /* \"#utility.yul\":11834:11843   */\n      dup3\n        /* \"#utility.yul\":11830:11848   */\n      add\n        /* \"#utility.yul\":11822:11848   */\n      swap1\n      pop\n        /* \"#utility.yul\":11858:11929   */\n      tag_504\n        /* \"#utility.yul\":11926:11927   */\n      0x00\n        /* \"#utility.yul\":11915:11924   */\n      dup4\n        /* \"#utility.yul\":11911:11928   */\n      add\n        /* \"#utility.yul\":11902:11908   */\n      dup6\n        /* \"#utility.yul\":11858:11929   */\n      tag_334\n      jump\t// in\n    tag_504:\n        /* \"#utility.yul\":11939:12011   */\n      tag_505\n        /* \"#utility.yul\":12007:12009   */\n      0x20\n        /* \"#utility.yul\":11996:12005   */\n      dup4\n        /* \"#utility.yul\":11992:12010   */\n      add\n        /* \"#utility.yul\":11983:11989   */\n      dup5\n        /* \"#utility.yul\":11939:12011   */\n      tag_334\n      jump\t// in\n    tag_505:\n        /* \"#utility.yul\":11686:12018   */\n      swap4\n      swap3\n      pop\n      pop\n      pop\n      jump\t// out\n        /* \"#utility.yul\":12024:12204   */\n    tag_364:\n        /* \"#utility.yul\":12072:12149   */\n      0x4e487b7100000000000000000000000000000000000000000000000000000000\n        /* \"#utility.yul\":12069:12070   */\n      0x00\n        /* \"#utility.yul\":12062:12150   */\n      mstore\n        /* \"#utility.yul\":12169:12173   */\n      0x12\n        /* \"#utility.yul\":12166:12167   */\n      0x04\n        /* \"#utility.yul\":12159:12174   */\n      mstore\n        /* \"#utility.yul\":12193:12197   */\n      0x24\n        /* \"#utility.yul\":12190:12191   */\n      0x00\n        /* \"#utility.yul\":12183:12198   */\n      revert\n        /* \"#utility.yul\":12210:12395   */\n    tag_205:\n        /* \"#utility.yul\":12250:12251   */\n      0x00\n        /* \"#utility.yul\":12267:12287   */\n      tag_508\n        /* \"#utility.yul\":12285:12286   */\n      dup3\n        /* \"#utility.yul\":12267:12287   */\n      tag_333\n      jump\t// in\n    tag_508:\n        /* \"#utility.yul\":12262:12287   */\n      swap2\n      pop\n        /* \"#utility.yul\":12301:12321   */\n      tag_509\n        /* \"#utility.yul\":12319:12320   */\n      dup4\n        /* \"#utility.yul\":12301:12321   */\n      tag_333\n      jump\t// in\n    tag_509:\n        /* \"#utility.yul\":12296:12321   */\n      swap3\n      pop\n        /* \"#utility.yul\":12340:12341   */\n      dup3\n        /* \"#utility.yul\":12330:12365   */\n      tag_510\n      jumpi\n        /* \"#utility.yul\":12345:12363   */\n      tag_511\n      tag_364\n      jump\t// in\n    tag_511:\n        /* \"#utility.yul\":12330:12365   */\n    tag_510:\n        /* \"#utility.yul\":12387:12388   */\n      dup3\n        /* \"#utility.yul\":12384:12385   */\n      dup3\n        /* \"#utility.yul\":12380:12389   */\n      div\n        /* \"#utility.yul\":12375:12389   */\n      swap1\n      pop\n        /* \"#utility.yul\":12210:12395   */\n      swap3\n      swap2\n      pop\n      pop\n      jump\t// out\n        /* \"#utility.yul\":12401:12811   */\n    tag_209:\n        /* \"#utility.yul\":12441:12448   */\n      0x00\n        /* \"#utility.yul\":12464:12484   */\n      tag_513\n        /* \"#utility.yul\":12482:12483   */\n      dup3\n        /* \"#utility.yul\":12464:12484   */\n      tag_333\n      jump\t// in\n    tag_513:\n        /* \"#utility.yul\":12459:12484   */\n      swap2\n      pop\n        /* \"#utility.yul\":12498:12518   */\n      tag_514\n        /* \"#utility.yul\":12516:12517   */\n      dup4\n        /* \"#utility.yul\":12498:12518   */\n      tag_333\n      jump\t// in\n    tag_514:\n        /* \"#utility.yul\":12493:12518   */\n      swap3\n      pop\n        /* \"#utility.yul\":12553:12554   */\n      dup3\n        /* \"#utility.yul\":12550:12551   */\n      dup3\n        /* \"#utility.yul\":12546:12555   */\n      mul\n        /* \"#utility.yul\":12575:12605   */\n      tag_515\n        /* \"#utility.yul\":12593:12604   */\n      dup2\n        /* \"#utility.yul\":12575:12605   */\n      tag_333\n      jump\t// in\n    tag_515:\n        /* \"#utility.yul\":12564:12605   */\n      swap2\n      pop\n        /* \"#utility.yul\":12754:12755   */\n      dup3\n        /* \"#utility.yul\":12745:12752   */\n      dup3\n        /* \"#utility.yul\":12741:12756   */\n      div\n        /* \"#utility.yul\":12738:12739   */\n      dup5\n        /* \"#utility.yul\":12735:12757   */\n      eq\n        /* \"#utility.yul\":12715:12716   */\n      dup4\n        /* \"#utility.yul\":12708:12717   */\n      iszero\n        /* \"#utility.yul\":12688:12771   */\n      or\n        /* \"#utility.yul\":12665:12804   */\n      tag_516\n      jumpi\n        /* \"#utility.yul\":12784:12802   */\n      tag_517\n      tag_356\n      jump\t// in\n    tag_517:\n        /* \"#utility.yul\":12665:12804   */\n    tag_516:\n        /* \"#utility.yul\":12449:12811   */\n      pop\n        /* \"#utility.yul\":12401:12811   */\n      swap3\n      swap2\n      pop\n      pop\n      jump\t// out\n        /* \"#utility.yul\":12817:12964   */\n    tag_365:\n        /* \"#utility.yul\":12918:12929   */\n      0x00\n        /* \"#utility.yul\":12955:12958   */\n      dup2\n        /* \"#utility.yul\":12940:12958   */\n      swap1\n      pop\n        /* \"#utility.yul\":12817:12964   */\n      swap3\n      swap2\n      pop\n      pop\n      jump\t// out\n        /* \"#utility.yul\":12970:13084   */\n    tag_366:\n      pop\n      jump\t// out\n        /* \"#utility.yul\":13090:13488   */\n    tag_367:\n        /* \"#utility.yul\":13249:13252   */\n      0x00\n        /* \"#utility.yul\":13270:13353   */\n      tag_521\n        /* \"#utility.yul\":13351:13352   */\n      0x00\n        /* \"#utility.yul\":13346:13349   */\n      dup4\n        /* \"#utility.yul\":13270:13353   */\n      tag_365\n      jump\t// in\n    tag_521:\n        /* \"#utility.yul\":13263:13353   */\n      swap2\n      pop\n        /* \"#utility.yul\":13362:13455   */\n      tag_522\n        /* \"#utility.yul\":13451:13454   */\n      dup3\n        /* \"#utility.yul\":13362:13455   */\n      tag_366\n      jump\t// in\n    tag_522:\n        /* \"#utility.yul\":13480:13481   */\n      0x00\n        /* \"#utility.yul\":13475:13478   */\n      dup3\n        /* \"#utility.yul\":13471:13482   */\n      add\n        /* \"#utility.yul\":13464:13482   */\n      swap1\n      pop\n        /* \"#utility.yul\":13090:13488   */\n      swap2\n      swap1\n      pop\n      jump\t// out\n        /* \"#utility.yul\":13494:13873   */\n    tag_212:\n        /* \"#utility.yul\":13678:13681   */\n      0x00\n        /* \"#utility.yul\":13700:13847   */\n      tag_524\n        /* \"#utility.yul\":13843:13846   */\n      dup3\n        /* \"#utility.yul\":13700:13847   */\n      tag_367\n      jump\t// in\n    tag_524:\n        /* \"#utility.yul\":13693:13847   */\n      swap2\n      pop\n        /* \"#utility.yul\":13864:13867   */\n      dup2\n        /* \"#utility.yul\":13857:13867   */\n      swap1\n      pop\n        /* \"#utility.yul\":13494:13873   */\n      swap2\n      swap1\n      pop\n      jump\t// out\n        /* \"#utility.yul\":13879:14073   */\n    tag_218:\n        /* \"#utility.yul\":13919:13923   */\n      0x00\n        /* \"#utility.yul\":13939:13959   */\n      tag_526\n        /* \"#utility.yul\":13957:13958   */\n      dup3\n        /* \"#utility.yul\":13939:13959   */\n      tag_333\n      jump\t// in\n    tag_526:\n        /* \"#utility.yul\":13934:13959   */\n      swap2\n      pop\n        /* \"#utility.yul\":13973:13993   */\n      tag_527\n        /* \"#utility.yul\":13991:13992   */\n      dup4\n        /* \"#utility.yul\":13973:13993   */\n      tag_333\n      jump\t// in\n    tag_527:\n        /* \"#utility.yul\":13968:13993   */\n      swap3\n      pop\n        /* \"#utility.yul\":14017:14018   */\n      dup3\n        /* \"#utility.yul\":14014:14015   */\n      dup3\n        /* \"#utility.yul\":14010:14019   */\n      sub\n        /* \"#utility.yul\":14002:14019   */\n      swap1\n      pop\n        /* \"#utility.yul\":14041:14042   */\n      dup2\n        /* \"#utility.yul\":14035:14039   */\n      dup2\n        /* \"#utility.yul\":14032:14043   */\n      gt\n        /* \"#utility.yul\":14029:14066   */\n      iszero\n      tag_528\n      jumpi\n        /* \"#utility.yul\":14046:14064   */\n      tag_529\n      tag_356\n      jump\t// in\n    tag_529:\n        /* \"#utility.yul\":14029:14066   */\n    tag_528:\n        /* \"#utility.yul\":13879:14073   */\n      swap3\n      swap2\n      pop\n      pop\n      jump\t// out\n        /* \"#utility.yul\":14079:14411   */\n    tag_230:\n        /* \"#utility.yul\":14200:14204   */\n      0x00\n        /* \"#utility.yul\":14238:14240   */\n      0x40\n        /* \"#utility.yul\":14227:14236   */\n      dup3\n        /* \"#utility.yul\":14223:14241   */\n      add\n        /* \"#utility.yul\":14215:14241   */\n      swap1\n      pop\n        /* \"#utility.yul\":14251:14322   */\n      tag_531\n        /* \"#utility.yul\":14319:14320   */\n      0x00\n        /* \"#utility.yul\":14308:14317   */\n      dup4\n        /* \"#utility.yul\":14304:14321   */\n      add\n        /* \"#utility.yul\":14295:14301   */\n      dup6\n        /* \"#utility.yul\":14251:14322   */\n      tag_354\n      jump\t// in\n    tag_531:\n        /* \"#utility.yul\":14332:14404   */\n      tag_532\n        /* \"#utility.yul\":14400:14402   */\n      0x20\n        /* \"#utility.yul\":14389:14398   */\n      dup4\n        /* \"#utility.yul\":14385:14403   */\n      add\n        /* \"#utility.yul\":14376:14382   */\n      dup5\n        /* \"#utility.yul\":14332:14404   */\n      tag_354\n      jump\t// in\n    tag_532:\n        /* \"#utility.yul\":14079:14411   */\n      swap4\n      swap3\n      pop\n      pop\n      pop\n      jump\t// out\n        /* \"#utility.yul\":14417:14597   */\n    tag_277:\n        /* \"#utility.yul\":14465:14542   */\n      0x4e487b7100000000000000000000000000000000000000000000000000000000\n        /* \"#utility.yul\":14462:14463   */\n      0x00\n        /* \"#utility.yul\":14455:14543   */\n      mstore\n        /* \"#utility.yul\":14562:14566   */\n      0x32\n        /* \"#utility.yul\":14559:14560   */\n      0x04\n        /* \"#utility.yul\":14552:14567   */\n      mstore\n        /* \"#utility.yul\":14586:14590   */\n      0x24\n        /* \"#utility.yul\":14583:14584   */\n      0x00\n        /* \"#utility.yul\":14576:14591   */\n      revert\n        /* \"#utility.yul\":14603:14779   */\n    tag_279:\n        /* \"#utility.yul\":14635:14636   */\n      0x00\n        /* \"#utility.yul\":14652:14672   */\n      tag_535\n        /* \"#utility.yul\":14670:14671   */\n      dup3\n        /* \"#utility.yul\":14652:14672   */\n      tag_333\n      jump\t// in\n    tag_535:\n        /* \"#utility.yul\":14647:14672   */\n      swap2\n      pop\n        /* \"#utility.yul\":14686:14706   */\n      tag_536\n        /* \"#utility.yul\":14704:14705   */\n      dup4\n        /* \"#utility.yul\":14686:14706   */\n      tag_333\n      jump\t// in\n    tag_536:\n        /* \"#utility.yul\":14681:14706   */\n      swap3\n      pop\n        /* \"#utility.yul\":14725:14726   */\n      dup3\n        /* \"#utility.yul\":14715:14750   */\n      tag_537\n      jumpi\n        /* \"#utility.yul\":14730:14748   */\n      tag_538\n      tag_364\n      jump\t// in\n    tag_538:\n        /* \"#utility.yul\":14715:14750   */\n    tag_537:\n        /* \"#utility.yul\":14771:14772   */\n      dup3\n        /* \"#utility.yul\":14768:14769   */\n      dup3\n        /* \"#utility.yul\":14764:14773   */\n      mod\n        /* \"#utility.yul\":14759:14773   */\n      swap1\n      pop\n        /* \"#utility.yul\":14603:14779   */\n      swap3\n      swap2\n      pop\n      pop\n      jump\t// out\n        /* \"#utility.yul\":14785:15227   */\n    tag_295:\n        /* \"#utility.yul\":14934:14938   */\n      0x00\n        /* \"#utility.yul\":14972:14974   */\n      0x60\n        /* \"#utility.yul\":14961:14970   */\n      dup3\n        /* \"#utility.yul\":14957:14975   */\n      add\n        /* \"#utility.yul\":14949:14975   */\n      swap1\n      pop\n        /* \"#utility.yul\":14985:15056   */\n      tag_540\n        /* \"#utility.yul\":15053:15054   */\n      0x00\n        /* \"#utility.yul\":15042:15051   */\n      dup4\n        /* \"#utility.yul\":15038:15055   */\n      add\n        /* \"#utility.yul\":15029:15035   */\n      dup7\n        /* \"#utility.yul\":14985:15056   */\n      tag_354\n      jump\t// in\n    tag_540:\n        /* \"#utility.yul\":15066:15138   */\n      tag_541\n        /* \"#utility.yul\":15134:15136   */\n      0x20\n        /* \"#utility.yul\":15123:15132   */\n      dup4\n        /* \"#utility.yul\":15119:15137   */\n      add\n        /* \"#utility.yul\":15110:15116   */\n      dup6\n        /* \"#utility.yul\":15066:15138   */\n      tag_334\n      jump\t// in\n    tag_541:\n        /* \"#utility.yul\":15148:15220   */\n      tag_542\n        /* \"#utility.yul\":15216:15218   */\n      0x40\n        /* \"#utility.yul\":15205:15214   */\n      dup4\n        /* \"#utility.yul\":15201:15219   */\n      add\n        /* \"#utility.yul\":15192:15198   */\n      dup5\n        /* \"#utility.yul\":15148:15220   */\n      tag_334\n      jump\t// in\n    tag_542:\n        /* \"#utility.yul\":14785:15227   */\n      swap5\n      swap4\n      pop\n      pop\n      pop\n      pop\n      jump\t// out\n\n    auxdata: 0xa264697066735822122052b5a6f95a217bcc4e0ae20f94bbf78068a7988e3bee220c9000d0f95761064e64736f6c634300081e0033\n}\n",
				"bytecode": {
					"linkReferences": {},
					"object": "60a060405234801561000f575f5ffd5b506040516127b13803806127b1833981810160405281019061003191906101d1565b6040518060400160405280601281526020017f536174616e47616d6573205320546f6b656e00000000000000000000000000008152506040518060400160405280600381526020017f7367530000000000000000000000000000000000000000000000000000000000815250838073ffffffffffffffffffffffffffffffffffffffff1660808173ffffffffffffffffffffffffffffffffffffffff16815250505081600390816100e2919061044c565b5080600490816100f2919061044c565b5050506a372537349a396a2868000060058190555068241a9b4f617a28000060068190555080600a5f6101000a81548173ffffffffffffffffffffffffffffffffffffffff021916908373ffffffffffffffffffffffffffffffffffffffff160217905550426009819055505f6007819055505f600881905550505061051b565b5f5ffd5b5f73ffffffffffffffffffffffffffffffffffffffff82169050919050565b5f6101a082610177565b9050919050565b6101b081610196565b81146101ba575f5ffd5b50565b5f815190506101cb816101a7565b92915050565b5f5f604083850312156101e7576101e6610173565b5b5f6101f4858286016101bd565b9250506020610205858286016101bd565b9150509250929050565b5f81519050919050565b7f4e487b71000000000000000000000000000000000000000000000000000000005f52604160045260245ffd5b7f4e487b71000000000000000000000000000000000000000000000000000000005f52602260045260245ffd5b5f600282049050600182168061028a57607f821691505b60208210810361029d5761029c610246565b5b50919050565b5f819050815f5260205f209050919050565b5f6020601f8301049050919050565b5f82821b905092915050565b5f600883026102ff7fffffffffffffffffffffffffffffffffffffffffffffffffffffffffffffffff826102c4565b61030986836102c4565b95508019841693508086168417925050509392505050565b5f819050919050565b5f819050919050565b5f61034d61034861034384610321565b61032a565b610321565b9050919050565b5f819050919050565b61036683610333565b61037a61037282610354565b8484546102d0565b825550505050565b5f5f905090565b610391610382565b61039c81848461035d565b505050565b5b818110156103bf576103b45f82610389565b6001810190506103a2565b5050565b601f821115610404576103d5816102a3565b6103de846102b5565b810160208510156103ed578190505b6104016103f9856102b5565b8301826103a1565b50505b505050565b5f82821c905092915050565b5f6104245f1984600802610409565b1980831691505092915050565b5f61043c8383610415565b9150826002028217905092915050565b6104558261020f565b67ffffffffffffffff81111561046e5761046d610219565b5b6104788254610273565b6104838282856103c3565b5f60209050601f8311600181146104b4575f84156104a2578287015190505b6104ac8582610431565b865550610513565b601f1984166104c2866102a3565b5f5b828110156104e9578489015182556001820191506020850194506020810190506104c4565b868310156105065784890151610502601f891682610415565b8355505b6001600288020188555050505b505050505050565b6080516122696105485f395f81816108010152818161091401528181610d290152610d7d01526122695ff3fe6080604052600436106101b6575f3560e01c806343270d56116100eb578063967372a311610089578063c57981b511610063578063c57981b5146105f2578063d5abeb011461061c578063dd62ed3e14610646578063f68c2bfd14610682576101b6565b8063967372a314610550578063998f1b801461057a578063a9059cbb146105b6576101b6565b8063708666ad116100c5578063708666ad1461049657806370a08231146104c05780638cd221c9146104fc57806395d89b4114610526576101b6565b806343270d561461041857806347fec1a2146104425780636641ea081461046c576101b6565b806323b872dd1161015857806333d608f11161013257806333d608f11461037257806336667e7f1461039c57806336bcf7d6146103c657806342966c68146103f0576101b6565b806323b872dd146102d05780632566c9ea1461030c578063313ce56714610348576101b6565b806318160ddd1161019457806318160ddd1461024a5780631d6ad8e2146102745780631d729c5a1461027e5780631fe543e3146102a8576101b6565b806306fdde03146101ba57806307621eca146101e4578063095ea7b31461020e575b5f5ffd5b3480156101c5575f5ffd5b506101ce6106be565b6040516101db9190611ac4565b60405180910390f35b3480156101ef575f5ffd5b506101f861074e565b6040516102059190611afc565b60405180910390f35b348015610219575f5ffd5b50610234600480360381019061022f9190611ba1565b610754565b6040516102419190611bf9565b60405180910390f35b348015610255575f5ffd5b5061025e610776565b60405161026b9190611afc565b60405180910390f35b61027c61077f565b005b348015610289575f5ffd5b50610292610d11565b60405161029f9190611afc565b60405180910390f35b3480156102b3575f5ffd5b506102ce60048036038101906102c99190611c73565b610d27565b005b3480156102db575f5ffd5b506102f660048036038101906102f19190611cd0565b610de9565b6040516103039190611bf9565b60405180910390f35b348015610317575f5ffd5b50610332600480360381019061032d9190611d20565b610e17565b60405161033f9190611afc565b60405180910390f35b348015610353575f5ffd5b5061035c610e2c565b6040516103699190611d66565b60405180910390f35b34801561037d575f5ffd5b50610386610e34565b6040516103939190611d9d565b60405180910390f35b3480156103a7575f5ffd5b506103b0610e3b565b6040516103bd9190611afc565b60405180910390f35b3480156103d1575f5ffd5b506103da610e41565b6040516103e79190611afc565b60405180910390f35b3480156103fb575f5ffd5b5061041660048036038101906104119190611d20565b610e4e565b005b348015610423575f5ffd5b5061042c61103a565b6040516104399190611afc565b60405180910390f35b34801561044d575f5ffd5b5061045661103f565b6040516104639190611afc565b60405180910390f35b348015610477575f5ffd5b50610480611045565b60405161048d9190611afc565b60405180910390f35b3480156104a1575f5ffd5b506104aa61104a565b6040516104b79190611dc5565b60405180910390f35b3480156104cb575f5ffd5b506104e660048036038101906104e19190611dde565b61106f565b6040516104f39190611afc565b60405180910390f35b348015610507575f5ffd5b506105106110b4565b60405161051d9190611afc565b60405180910390f35b348015610531575f5ffd5b5061053a6110ba565b6040516105479190611ac4565b60405180910390f35b34801561055b575f5ffd5b5061056461114a565b6040516105719190611afc565b60405180910390f35b348015610585575f5ffd5b506105a0600480360381019061059b9190611e09565b611150565b6040516105ad9190611dc5565b60405180910390f35b3480156105c1575f5ffd5b506105dc60048036038101906105d79190611ba1565b61118d565b6040516105e99190611bf9565b60405180910390f35b3480156105fd575f5ffd5b506106066111af565b6040516106139190611afc565b60405180910390f35b348015610627575f5ffd5b506106306111bb565b60405161063d9190611afc565b60405180910390f35b348015610651575f5ffd5b5061066c60048036038101906106679190611e47565b6111c1565b6040516106799190611afc565b60405180910390f35b34801561068d575f5ffd5b506106a860048036038101906106a39190611d20565b611243565b6040516106b59190611afc565b60405180910390f35b6060600380546106cd90611eb2565b80601f01602080910402602001604051908101604052809291908181526020018280546106f990611eb2565b80156107445780601f1061071b57610100808354040283529160200191610744565b820191905f5260205f20905b81548152906001019060200180831161072757829003601f168201915b5050505050905090565b60065481565b5f5f61075e61125d565b905061076b818585611264565b600191505092915050565b5f600254905090565b67016345785d8a00003410156107c1576040517f732f941300000000000000000000000000000000000000000000000000000000815260040160405180910390fd5b5f603c6009546107d19190611f0f565b42101590505f5f600c5f60075481526020019081526020015f20541190508180156107f95750805b15610a84575f7f000000000000000000000000000000000000000000000000000000000000000073ffffffffffffffffffffffffffffffffffffffff1663c66d3d1862030d406040518263ffffffff1660e01b815260040161085b9190611f7b565b602060405180830381865afa158015610876573d5f5f3e3d5ffd5b505050506040513d601f19601f8201168201806040525081019061089a9190611fa8565b9050804710156108d6576040517f786e0a9900000000000000000000000000000000000000000000000000000000815260040160405180910390fd5b5f600c5f60075481526020019081526020015f205490505f600e5f60075481526020019081526020015f205490505f81036109115760065490505b5f7f000000000000000000000000000000000000000000000000000000000000000073ffffffffffffffffffffffffffffffffffffffff1663cb9bb27f8562030d406001306040518563ffffffff1660e01b81526004016109749392919061200c565b60206040518083038185885af1158015610990573d5f5f3e3d5ffd5b50505050506040513d601f19601f820116820180604052508101906109b59190611fa8565b9050600754600d5f8381526020019081526020015f208190555081600e5f60075481526020019081526020015f2081905550600754817fa77018cfa060263f92c58b53277f73d2eade9d69e943460421e26e648eed9f338585604051610a1c929190612041565b60405180910390a361c382600854610a349190611f0f565b60075410610a5f57600260065f828254610a4e9190612095565b925050819055506007546008819055505b600160075f828254610a719190611f0f565b9250508190555042600981905550505050505b5f600c5f60075481526020019081526020015f2054905033600b5f60075481526020019081526020015f205f8381526020019081526020015f205f6101000a81548173ffffffffffffffffffffffffffffffffffffffff021916908373ffffffffffffffffffffffffffffffffffffffff160217905550600181610b089190611f0f565b600c5f60075481526020019081526020015f20819055503373ffffffffffffffffffffffffffffffffffffffff166007547f66f19fb732c3e13893ea1bb5573839d7d0b41effc0aef6b59283c15ea5a0dbf960405160405180910390a35f6064600567016345785d8a0000610b7d91906120c5565b610b879190612095565b90505f600a5f9054906101000a900473ffffffffffffffffffffffffffffffffffffffff1673ffffffffffffffffffffffffffffffffffffffff1682604051610bcf90612133565b5f6040518083038185875af1925050503d805f8114610c09576040519150601f19603f3d011682016040523d82523d5f602084013e610c0e565b606091505b5050905080610c49576040517f4033e4e300000000000000000000000000000000000000000000000000000000815260040160405180910390fd5b5f67016345785d8a000034610c5e9190612147565b90505f811115610d09573373ffffffffffffffffffffffffffffffffffffffff1681604051610c8c90612133565b5f6040518083038185875af1925050503d805f8114610cc6576040519150601f19603f3d011682016040523d82523d5f602084013e610ccb565b606091505b50508092505081610d08576040517ff0c49d4400000000000000000000000000000000000000000000000000000000815260040160405180910390fd5b5b505050505050565b5f61c382600854610d229190611f0f565b905090565b7f000000000000000000000000000000000000000000000000000000000000000073ffffffffffffffffffffffffffffffffffffffff163373ffffffffffffffffffffffffffffffffffffffff1614610dd957337f00000000000000000000000000000000000000000000000000000000000000006040517f20138a9f000000000000000000000000000000000000000000000000000000008152600401610dd092919061217a565b60405180910390fd5b610de4838383611276565b505050565b5f5f610df361125d565b9050610e008582856113eb565b610e0b85858561147e565b60019150509392505050565b600c602052805f5260405f205f915090505481565b5f6012905090565b62030d4081565b61c38281565b68241a9b4f617a28000081565b5f8103610e87576040517f98642b8600000000000000000000000000000000000000000000000000000000815260040160405180910390fd5b5f4790505f8103610ec4576040517f786e0a9900000000000000000000000000000000000000000000000000000000815260040160405180910390fd5b5f610ecd610776565b90505f8103610f08576040517f786e0a9900000000000000000000000000000000000000000000000000000000815260040160405180910390fd5b5f818385610f1691906120c5565b610f209190612095565b9050610f2c338561156e565b8360055f828254610f3d9190612147565b925050819055505f3373ffffffffffffffffffffffffffffffffffffffff1682604051610f6990612133565b5f6040518083038185875af1925050503d805f8114610fa3576040519150601f19603f3d011682016040523d82523d5f602084013e610fa8565b606091505b5050905080610fe3576040517f90b8ec1800000000000000000000000000000000000000000000000000000000815260040160405180910390fd5b3373ffffffffffffffffffffffffffffffffffffffff167f23ff0e75edf108e3d0392d92e13e8c8a868ef19001bd49f9e94876dc46dff87f868460405161102b929190612041565b60405180910390a25050505050565b600581565b60095481565b603c81565b600a5f9054906101000a900473ffffffffffffffffffffffffffffffffffffffff1681565b5f5f5f8373ffffffffffffffffffffffffffffffffffffffff1673ffffffffffffffffffffffffffffffffffffffff1681526020019081526020015f20549050919050565b60075481565b6060600480546110c990611eb2565b80601f01602080910402602001604051908101604052809291908181526020018280546110f590611eb2565b80156111405780601f1061111757610100808354040283529160200191611140565b820191905f5260205f20905b81548152906001019060200180831161112357829003601f168201915b5050505050905090565b60085481565b600b602052815f5260405f20602052805f5260405f205f915091509054906101000a900473ffffffffffffffffffffffffffffffffffffffff1681565b5f5f61119761125d565b90506111a481858561147e565b600191505092915050565b67016345785d8a000081565b60055481565b5f60015f8473ffffffffffffffffffffffffffffffffffffffff1673ffffffffffffffffffffffffffffffffffffffff1681526020019081526020015f205f8373ffffffffffffffffffffffffffffffffffffffff1673ffffffffffffffffffffffffffffffffffffffff1681526020019081526020015f2054905092915050565b5f600c5f8381526020019081526020015f20549050919050565b5f33905090565b61127183838360016115ed565b505050565b5f600d5f8581526020019081526020015f20549050600d5f8581526020019081526020015f205f90555f600c5f8381526020019081526020015f205490505f8111156113e4575f8185855f8181106112d1576112d06121a1565b5b905060200201356112e291906121ce565b90505f600b5f8581526020019081526020015f205f8381526020019081526020015f205f9054906101000a900473ffffffffffffffffffffffffffffffffffffffff1690505f600e5f8681526020019081526020015f205490505f81036113495760065490505b60055481611355610776565b61135f9190611f0f565b111561137d5761136d610776565b60055461137a9190612147565b90505b5f8111156113e05761138f82826117bc565b8173ffffffffffffffffffffffffffffffffffffffff1685897fdd7933a060407298571fe36223f480ee3508053fdb7238a1fe246f52b62c8e73846040516113d79190611afc565b60405180910390a45b5050505b5050505050565b5f6113f684846111c1565b90507fffffffffffffffffffffffffffffffffffffffffffffffffffffffffffffffff8110156114785781811015611469578281836040517ffb8f41b2000000000000000000000000000000000000000000000000000000008152600401611460939291906121fe565b60405180910390fd5b61147784848484035f6115ed565b5b50505050565b5f73ffffffffffffffffffffffffffffffffffffffff168373ffffffffffffffffffffffffffffffffffffffff16036114ee575f6040517f96c6fd1e0000000000000000000000000000000000000000000000000000000081526004016114e59190611dc5565b60405180910390fd5b5f73ffffffffffffffffffffffffffffffffffffffff168273ffffffffffffffffffffffffffffffffffffffff160361155e575f6040517fec442f050000000000000000000000000000000000000000000000000000000081526004016115559190611dc5565b60405180910390fd5b61156983838361183b565b505050565b5f73ffffffffffffffffffffffffffffffffffffffff168273ffffffffffffffffffffffffffffffffffffffff16036115de575f6040517f96c6fd1e0000000000000000000000000000000000000000000000000000000081526004016115d59190611dc5565b60405180910390fd5b6115e9825f8361183b565b5050565b5f73ffffffffffffffffffffffffffffffffffffffff168473ffffffffffffffffffffffffffffffffffffffff160361165d575f6040517fe602df050000000000000000000000000000000000000000000000000000000081526004016116549190611dc5565b60405180910390fd5b5f73ffffffffffffffffffffffffffffffffffffffff168373ffffffffffffffffffffffffffffffffffffffff16036116cd575f6040517f94280d620000000000000000000000000000000000000000000000000000000081526004016116c49190611dc5565b60405180910390fd5b8160015f8673ffffffffffffffffffffffffffffffffffffffff1673ffffffffffffffffffffffffffffffffffffffff1681526020019081526020015f205f8573ffffffffffffffffffffffffffffffffffffffff1673ffffffffffffffffffffffffffffffffffffffff1681526020019081526020015f208190555080156117b6578273ffffffffffffffffffffffffffffffffffffffff168473ffffffffffffffffffffffffffffffffffffffff167f8c5be1e5ebec7d5bd14f71427d1e84f3dd0314c0f7b2291e5b200ac8c7c3b925846040516117ad9190611afc565b60405180910390a35b50505050565b5f73ffffffffffffffffffffffffffffffffffffffff168273ffffffffffffffffffffffffffffffffffffffff160361182c575f6040517fec442f050000000000000000000000000000000000000000000000000000000081526004016118239190611dc5565b60405180910390fd5b6118375f838361183b565b5050565b5f73ffffffffffffffffffffffffffffffffffffffff168373ffffffffffffffffffffffffffffffffffffffff160361188b578060025f82825461187f9190611f0f565b92505081905550611959565b5f5f5f8573ffffffffffffffffffffffffffffffffffffffff1673ffffffffffffffffffffffffffffffffffffffff1681526020019081526020015f2054905081811015611914578381836040517fe450d38c00000000000000000000000000000000000000000000000000000000815260040161190b939291906121fe565b60405180910390fd5b8181035f5f8673ffffffffffffffffffffffffffffffffffffffff1673ffffffffffffffffffffffffffffffffffffffff1681526020019081526020015f2081905550505b5f73ffffffffffffffffffffffffffffffffffffffff168273ffffffffffffffffffffffffffffffffffffffff16036119a0578060025f82825403925050819055506119ea565b805f5f8473ffffffffffffffffffffffffffffffffffffffff1673ffffffffffffffffffffffffffffffffffffffff1681526020019081526020015f205f82825401925050819055505b8173ffffffffffffffffffffffffffffffffffffffff168373ffffffffffffffffffffffffffffffffffffffff167fddf252ad1be2c89b69c2b068fc378daa952ba7f163c4a11628f55a4df523b3ef83604051611a479190611afc565b60405180910390a3505050565b5f81519050919050565b5f82825260208201905092915050565b8281835e5f83830152505050565b5f601f19601f8301169050919050565b5f611a9682611a54565b611aa08185611a5e565b9350611ab0818560208601611a6e565b611ab981611a7c565b840191505092915050565b5f6020820190508181035f830152611adc8184611a8c565b905092915050565b5f819050919050565b611af681611ae4565b82525050565b5f602082019050611b0f5f830184611aed565b92915050565b5f5ffd5b5f5ffd5b5f73ffffffffffffffffffffffffffffffffffffffff82169050919050565b5f611b4682611b1d565b9050919050565b611b5681611b3c565b8114611b60575f5ffd5b50565b5f81359050611b7181611b4d565b92915050565b611b8081611ae4565b8114611b8a575f5ffd5b50565b5f81359050611b9b81611b77565b92915050565b5f5f60408385031215611bb757611bb6611b15565b5b5f611bc485828601611b63565b9250506020611bd585828601611b8d565b9150509250929050565b5f8115159050919050565b611bf381611bdf565b82525050565b5f602082019050611c0c5f830184611bea565b92915050565b5f5ffd5b5f5ffd5b5f5ffd5b5f5f83601f840112611c3357611c32611c12565b5b8235905067ffffffffffffffff811115611c5057611c4f611c16565b5b602083019150836020820283011115611c6c57611c6b611c1a565b5b9250929050565b5f5f5f60408486031215611c8a57611c89611b15565b5b5f611c9786828701611b8d565b935050602084013567ffffffffffffffff811115611cb857611cb7611b19565b5b611cc486828701611c1e565b92509250509250925092565b5f5f5f60608486031215611ce757611ce6611b15565b5b5f611cf486828701611b63565b9350506020611d0586828701611b63565b9250506040611d1686828701611b8d565b9150509250925092565b5f60208284031215611d3557611d34611b15565b5b5f611d4284828501611b8d565b91505092915050565b5f60ff82169050919050565b611d6081611d4b565b82525050565b5f602082019050611d795f830184611d57565b92915050565b5f63ffffffff82169050919050565b611d9781611d7f565b82525050565b5f602082019050611db05f830184611d8e565b92915050565b611dbf81611b3c565b82525050565b5f602082019050611dd85f830184611db6565b92915050565b5f60208284031215611df357611df2611b15565b5b5f611e0084828501611b63565b91505092915050565b5f5f60408385031215611e1f57611e1e611b15565b5b5f611e2c85828601611b8d565b9250506020611e3d85828601611b8d565b9150509250929050565b5f5f60408385031215611e5d57611e5c611b15565b5b5f611e6a85828601611b63565b9250506020611e7b85828601611b63565b9150509250929050565b7f4e487b71000000000000000000000000000000000000000000000000000000005f52602260045260245ffd5b5f6002820490506001821680611ec957607f821691505b602082108103611edc57611edb611e85565b5b50919050565b7f4e487b71000000000000000000000000000000000000000000000000000000005f52601160045260245ffd5b5f611f1982611ae4565b9150611f2483611ae4565b9250828201905080821115611f3c57611f3b611ee2565b5b92915050565b5f819050919050565b5f611f65611f60611f5b84611d7f565b611f42565b611ae4565b9050919050565b611f7581611f4b565b82525050565b5f602082019050611f8e5f830184611f6c565b92915050565b5f81519050611fa281611b77565b92915050565b5f60208284031215611fbd57611fbc611b15565b5b5f611fca84828501611f94565b91505092915050565b5f819050919050565b5f611ff6611ff1611fec84611fd3565b611f42565b611ae4565b9050919050565b61200681611fdc565b82525050565b5f60608201905061201f5f830186611f6c565b61202c6020830185611ffd565b6120396040830184611db6565b949350505050565b5f6040820190506120545f830185611aed565b6120616020830184611aed565b9392505050565b7f4e487b71000000000000000000000000000000000000000000000000000000005f52601260045260245ffd5b5f61209f82611ae4565b91506120aa83611ae4565b9250826120ba576120b9612068565b5b828204905092915050565b5f6120cf82611ae4565b91506120da83611ae4565b92508282026120e881611ae4565b915082820484148315176120ff576120fe611ee2565b5b5092915050565b5f81905092915050565b50565b5f61211e5f83612106565b915061212982612110565b5f82019050919050565b5f61213d82612113565b9150819050919050565b5f61215182611ae4565b915061215c83611ae4565b925082820390508181111561217457612173611ee2565b5b92915050565b5f60408201905061218d5f830185611db6565b61219a6020830184611db6565b9392505050565b7f4e487b71000000000000000000000000000000000000000000000000000000005f52603260045260245ffd5b5f6121d882611ae4565b91506121e383611ae4565b9250826121f3576121f2612068565b5b828206905092915050565b5f6060820190506122115f830186611db6565b61221e6020830185611aed565b61222b6040830184611aed565b94935050505056fea264697066735822122052b5a6f95a217bcc4e0ae20f94bbf78068a7988e3bee220c9000d0f95761064e64736f6c634300081e0033",
					"opcodes": "PUSH1 0xA0 PUSH1 0x40 MSTORE CALLVALUE DUP1 ISZERO PUSH2 0xF JUMPI PUSH0 PUSH0 REVERT JUMPDEST POP PUSH1 0x40 MLOAD PUSH2 0x27B1 CODESIZE SUB DUP1 PUSH2 0x27B1 DUP4 CODECOPY DUP2 DUP2 ADD PUSH1 0x40 MSTORE DUP2 ADD SWAP1 PUSH2 0x31 SWAP2 SWAP1 PUSH2 0x1D1 JUMP JUMPDEST PUSH1 0x40 MLOAD DUP1 PUSH1 0x40 ADD PUSH1 0x40 MSTORE DUP1 PUSH1 0x12 DUP2 MSTORE PUSH1 0x20 ADD PUSH32 0x536174616E47616D6573205320546F6B656E0000000000000000000000000000 DUP2 MSTORE POP PUSH1 0x40 MLOAD DUP1 PUSH1 0x40 ADD PUSH1 0x40 MSTORE DUP1 PUSH1 0x3 DUP2 MSTORE PUSH1 0x20 ADD PUSH32 0x7367530000000000000000000000000000000000000000000000000000000000 DUP2 MSTORE POP DUP4 DUP1 PUSH20 0xFFFFFFFFFFFFFFFFFFFFFFFFFFFFFFFFFFFFFFFF AND PUSH1 0x80 DUP2 PUSH20 0xFFFFFFFFFFFFFFFFFFFFFFFFFFFFFFFFFFFFFFFF AND DUP2 MSTORE POP POP POP DUP2 PUSH1 0x3 SWAP1 DUP2 PUSH2 0xE2 SWAP2 SWAP1 PUSH2 0x44C JUMP JUMPDEST POP DUP1 PUSH1 0x4 SWAP1 DUP2 PUSH2 0xF2 SWAP2 SWAP1 PUSH2 0x44C JUMP JUMPDEST POP POP POP PUSH11 0x372537349A396A28680000 PUSH1 0x5 DUP2 SWAP1 SSTORE POP PUSH9 0x241A9B4F617A280000 PUSH1 0x6 DUP2 SWAP1 SSTORE POP DUP1 PUSH1 0xA PUSH0 PUSH2 0x100 EXP DUP2 SLOAD DUP2 PUSH20 0xFFFFFFFFFFFFFFFFFFFFFFFFFFFFFFFFFFFFFFFF MUL NOT AND SWAP1 DUP4 PUSH20 0xFFFFFFFFFFFFFFFFFFFFFFFFFFFFFFFFFFFFFFFF AND MUL OR SWAP1 SSTORE POP TIMESTAMP PUSH1 0x9 DUP2 SWAP1 SSTORE POP PUSH0 PUSH1 0x7 DUP2 SWAP1 SSTORE POP PUSH0 PUSH1 0x8 DUP2 SWAP1 SSTORE POP POP POP PUSH2 0x51B JUMP JUMPDEST PUSH0 PUSH0 REVERT JUMPDEST PUSH0 PUSH20 0xFFFFFFFFFFFFFFFFFFFFFFFFFFFFFFFFFFFFFFFF DUP3 AND SWAP1 POP SWAP2 SWAP1 POP JUMP JUMPDEST PUSH0 PUSH2 0x1A0 DUP3 PUSH2 0x177 JUMP JUMPDEST SWAP1 POP SWAP2 SWAP1 POP JUMP JUMPDEST PUSH2 0x1B0 DUP2 PUSH2 0x196 JUMP JUMPDEST DUP2 EQ PUSH2 0x1BA JUMPI PUSH0 PUSH0 REVERT JUMPDEST POP JUMP JUMPDEST PUSH0 DUP2 MLOAD SWAP1 POP PUSH2 0x1CB DUP2 PUSH2 0x1A7 JUMP JUMPDEST SWAP3 SWAP2 POP POP JUMP JUMPDEST PUSH0 PUSH0 PUSH1 0x40 DUP4 DUP6 SUB SLT ISZERO PUSH2 0x1E7 JUMPI PUSH2 0x1E6 PUSH2 0x173 JUMP JUMPDEST JUMPDEST PUSH0 PUSH2 0x1F4 DUP6 DUP3 DUP7 ADD PUSH2 0x1BD JUMP JUMPDEST SWAP3 POP POP PUSH1 0x20 PUSH2 0x205 DUP6 DUP3 DUP7 ADD PUSH2 0x1BD JUMP JUMPDEST SWAP2 POP POP SWAP3 POP SWAP3 SWAP1 POP JUMP JUMPDEST PUSH0 DUP2 MLOAD SWAP1 POP SWAP2 SWAP1 POP JUMP JUMPDEST PUSH32 0x4E487B7100000000000000000000000000000000000000000000000000000000 PUSH0 MSTORE PUSH1 0x41 PUSH1 0x4 MSTORE PUSH1 0x24 PUSH0 REVERT JUMPDEST PUSH32 0x4E487B7100000000000000000000000000000000000000000000000000000000 PUSH0 MSTORE PUSH1 0x22 PUSH1 0x4 MSTORE PUSH1 0x24 PUSH0 REVERT JUMPDEST PUSH0 PUSH1 0x2 DUP3 DIV SWAP1 POP PUSH1 0x1 DUP3 AND DUP1 PUSH2 0x28A JUMPI PUSH1 0x7F DUP3 AND SWAP2 POP JUMPDEST PUSH1 0x20 DUP3 LT DUP2 SUB PUSH2 0x29D JUMPI PUSH2 0x29C PUSH2 0x246 JUMP JUMPDEST JUMPDEST POP SWAP2 SWAP1 POP JUMP JUMPDEST PUSH0 DUP2 SWAP1 POP DUP2 PUSH0 MSTORE PUSH1 0x20 PUSH0 KECCAK256 SWAP1 POP SWAP2 SWAP1 POP JUMP JUMPDEST PUSH0 PUSH1 0x20 PUSH1 0x1F DUP4 ADD DIV SWAP1 POP SWAP2 SWAP1 POP JUMP JUMPDEST PUSH0 DUP3 DUP3 SHL SWAP1 POP SWAP3 SWAP2 POP POP JUMP JUMPDEST PUSH0 PUSH1 0x8 DUP4 MUL PUSH2 0x2FF PUSH32 0xFFFFFFFFFFFFFFFFFFFFFFFFFFFFFFFFFFFFFFFFFFFFFFFFFFFFFFFFFFFFFFFF DUP3 PUSH2 0x2C4 JUMP JUMPDEST PUSH2 0x309 DUP7 DUP4 PUSH2 0x2C4 JUMP JUMPDEST SWAP6 POP DUP1 NOT DUP5 AND SWAP4 POP DUP1 DUP7 AND DUP5 OR SWAP3 POP POP POP SWAP4 SWAP3 POP POP POP JUMP JUMPDEST PUSH0 DUP2 SWAP1 POP SWAP2 SWAP1 POP JUMP JUMPDEST PUSH0 DUP2 SWAP1 POP SWAP2 SWAP1 POP JUMP JUMPDEST PUSH0 PUSH2 0x34D PUSH2 0x348 PUSH2 0x343 DUP5 PUSH2 0x321 JUMP JUMPDEST PUSH2 0x32A JUMP JUMPDEST PUSH2 0x321 JUMP JUMPDEST SWAP1 POP SWAP2 SWAP1 POP JUMP JUMPDEST PUSH0 DUP2 SWAP1 POP SWAP2 SWAP1 POP JUMP JUMPDEST PUSH2 0x366 DUP4 PUSH2 0x333 JUMP JUMPDEST PUSH2 0x37A PUSH2 0x372 DUP3 PUSH2 0x354 JUMP JUMPDEST DUP5 DUP5 SLOAD PUSH2 0x2D0 JUMP JUMPDEST DUP3 SSTORE POP POP POP POP JUMP JUMPDEST PUSH0 PUSH0 SWAP1 POP SWAP1 JUMP JUMPDEST PUSH2 0x391 PUSH2 0x382 JUMP JUMPDEST PUSH2 0x39C DUP2 DUP5 DUP5 PUSH2 0x35D JUMP JUMPDEST POP POP POP JUMP JUMPDEST JUMPDEST DUP2 DUP2 LT ISZERO PUSH2 0x3BF JUMPI PUSH2 0x3B4 PUSH0 DUP3 PUSH2 0x389 JUMP JUMPDEST PUSH1 0x1 DUP2 ADD SWAP1 POP PUSH2 0x3A2 JUMP JUMPDEST POP POP JUMP JUMPDEST PUSH1 0x1F DUP3 GT ISZERO PUSH2 0x404 JUMPI PUSH2 0x3D5 DUP2 PUSH2 0x2A3 JUMP JUMPDEST PUSH2 0x3DE DUP5 PUSH2 0x2B5 JUMP JUMPDEST DUP2 ADD PUSH1 0x20 DUP6 LT ISZERO PUSH2 0x3ED JUMPI DUP2 SWAP1 POP JUMPDEST PUSH2 0x401 PUSH2 0x3F9 DUP6 PUSH2 0x2B5 JUMP JUMPDEST DUP4 ADD DUP3 PUSH2 0x3A1 JUMP JUMPDEST POP POP JUMPDEST POP POP POP JUMP JUMPDEST PUSH0 DUP3 DUP3 SHR SWAP1 POP SWAP3 SWAP2 POP POP JUMP JUMPDEST PUSH0 PUSH2 0x424 PUSH0 NOT DUP5 PUSH1 0x8 MUL PUSH2 0x409 JUMP JUMPDEST NOT DUP1 DUP4 AND SWAP2 POP POP SWAP3 SWAP2 POP POP JUMP JUMPDEST PUSH0 PUSH2 0x43C DUP4 DUP4 PUSH2 0x415 JUMP JUMPDEST SWAP2 POP DUP3 PUSH1 0x2 MUL DUP3 OR SWAP1 POP SWAP3 SWAP2 POP POP JUMP JUMPDEST PUSH2 0x455 DUP3 PUSH2 0x20F JUMP JUMPDEST PUSH8 0xFFFFFFFFFFFFFFFF DUP2 GT ISZERO PUSH2 0x46E JUMPI PUSH2 0x46D PUSH2 0x219 JUMP JUMPDEST JUMPDEST PUSH2 0x478 DUP3 SLOAD PUSH2 0x273 JUMP JUMPDEST PUSH2 0x483 DUP3 DUP3 DUP6 PUSH2 0x3C3 JUMP JUMPDEST PUSH0 PUSH1 0x20 SWAP1 POP PUSH1 0x1F DUP4 GT PUSH1 0x1 DUP2 EQ PUSH2 0x4B4 JUMPI PUSH0 DUP5 ISZERO PUSH2 0x4A2 JUMPI DUP3 DUP8 ADD MLOAD SWAP1 POP JUMPDEST PUSH2 0x4AC DUP6 DUP3 PUSH2 0x431 JUMP JUMPDEST DUP7 SSTORE POP PUSH2 0x513 JUMP JUMPDEST PUSH1 0x1F NOT DUP5 AND PUSH2 0x4C2 DUP7 PUSH2 0x2A3 JUMP JUMPDEST PUSH0 JUMPDEST DUP3 DUP2 LT ISZERO PUSH2 0x4E9 JUMPI DUP5 DUP10 ADD MLOAD DUP3 SSTORE PUSH1 0x1 DUP3 ADD SWAP2 POP PUSH1 0x20 DUP6 ADD SWAP5 POP PUSH1 0x20 DUP2 ADD SWAP1 POP PUSH2 0x4C4 JUMP JUMPDEST DUP7 DUP4 LT ISZERO PUSH2 0x506 JUMPI DUP5 DUP10 ADD MLOAD PUSH2 0x502 PUSH1 0x1F DUP10 AND DUP3 PUSH2 0x415 JUMP JUMPDEST DUP4 SSTORE POP JUMPDEST PUSH1 0x1 PUSH1 0x2 DUP9 MUL ADD DUP9 SSTORE POP POP POP JUMPDEST POP POP POP POP POP POP JUMP JUMPDEST PUSH1 0x80 MLOAD PUSH2 0x2269 PUSH2 0x548 PUSH0 CODECOPY PUSH0 DUP2 DUP2 PUSH2 0x801 ADD MSTORE DUP2 DUP2 PUSH2 0x914 ADD MSTORE DUP2 DUP2 PUSH2 0xD29 ADD MSTORE PUSH2 0xD7D ADD MSTORE PUSH2 0x2269 PUSH0 RETURN INVALID PUSH1 0x80 PUSH1 0x40 MSTORE PUSH1 0x4 CALLDATASIZE LT PUSH2 0x1B6 JUMPI PUSH0 CALLDATALOAD PUSH1 0xE0 SHR DUP1 PUSH4 0x43270D56 GT PUSH2 0xEB JUMPI DUP1 PUSH4 0x967372A3 GT PUSH2 0x89 JUMPI DUP1 PUSH4 0xC57981B5 GT PUSH2 0x63 JUMPI DUP1 PUSH4 0xC57981B5 EQ PUSH2 0x5F2 JUMPI DUP1 PUSH4 0xD5ABEB01 EQ PUSH2 0x61C JUMPI DUP1 PUSH4 0xDD62ED3E EQ PUSH2 0x646 JUMPI DUP1 PUSH4 0xF68C2BFD EQ PUSH2 0x682 JUMPI PUSH2 0x1B6 JUMP JUMPDEST DUP1 PUSH4 0x967372A3 EQ PUSH2 0x550 JUMPI DUP1 PUSH4 0x998F1B80 EQ PUSH2 0x57A JUMPI DUP1 PUSH4 0xA9059CBB EQ PUSH2 0x5B6 JUMPI PUSH2 0x1B6 JUMP JUMPDEST DUP1 PUSH4 0x708666AD GT PUSH2 0xC5 JUMPI DUP1 PUSH4 0x708666AD EQ PUSH2 0x496 JUMPI DUP1 PUSH4 0x70A08231 EQ PUSH2 0x4C0 JUMPI DUP1 PUSH4 0x8CD221C9 EQ PUSH2 0x4FC JUMPI DUP1 PUSH4 0x95D89B41 EQ PUSH2 0x526 JUMPI PUSH2 0x1B6 JUMP JUMPDEST DUP1 PUSH4 0x43270D56 EQ PUSH2 0x418 JUMPI DUP1 PUSH4 0x47FEC1A2 EQ PUSH2 0x442 JUMPI DUP1 PUSH4 0x6641EA08 EQ PUSH2 0x46C JUMPI PUSH2 0x1B6 JUMP JUMPDEST DUP1 PUSH4 0x23B872DD GT PUSH2 0x158 JUMPI DUP1 PUSH4 0x33D608F1 GT PUSH2 0x132 JUMPI DUP1 PUSH4 0x33D608F1 EQ PUSH2 0x372 JUMPI DUP1 PUSH4 0x36667E7F EQ PUSH2 0x39C JUMPI DUP1 PUSH4 0x36BCF7D6 EQ PUSH2 0x3C6 JUMPI DUP1 PUSH4 0x42966C68 EQ PUSH2 0x3F0 JUMPI PUSH2 0x1B6 JUMP JUMPDEST DUP1 PUSH4 0x23B872DD EQ PUSH2 0x2D0 JUMPI DUP1 PUSH4 0x2566C9EA EQ PUSH2 0x30C JUMPI DUP1 PUSH4 0x313CE567 EQ PUSH2 0x348 JUMPI PUSH2 0x1B6 JUMP JUMPDEST DUP1 PUSH4 0x18160DDD GT PUSH2 0x194 JUMPI DUP1 PUSH4 0x18160DDD EQ PUSH2 0x24A JUMPI DUP1 PUSH4 0x1D6AD8E2 EQ PUSH2 0x274 JUMPI DUP1 PUSH4 0x1D729C5A EQ PUSH2 0x27E JUMPI DUP1 PUSH4 0x1FE543E3 EQ PUSH2 0x2A8 JUMPI PUSH2 0x1B6 JUMP JUMPDEST DUP1 PUSH4 0x6FDDE03 EQ PUSH2 0x1BA JUMPI DUP1 PUSH4 0x7621ECA EQ PUSH2 0x1E4 JUMPI DUP1 PUSH4 0x95EA7B3 EQ PUSH2 0x20E JUMPI JUMPDEST PUSH0 PUSH0 REVERT JUMPDEST CALLVALUE DUP1 ISZERO PUSH2 0x1C5 JUMPI PUSH0 PUSH0 REVERT JUMPDEST POP PUSH2 0x1CE PUSH2 0x6BE JUMP JUMPDEST PUSH1 0x40 MLOAD PUSH2 0x1DB SWAP2 SWAP1 PUSH2 0x1AC4 JUMP JUMPDEST PUSH1 0x40 MLOAD DUP1 SWAP2 SUB SWAP1 RETURN JUMPDEST CALLVALUE DUP1 ISZERO PUSH2 0x1EF JUMPI PUSH0 PUSH0 REVERT JUMPDEST POP PUSH2 0x1F8 PUSH2 0x74E JUMP JUMPDEST PUSH1 0x40 MLOAD PUSH2 0x205 SWAP2 SWAP1 PUSH2 0x1AFC JUMP JUMPDEST PUSH1 0x40 MLOAD DUP1 SWAP2 SUB SWAP1 RETURN JUMPDEST CALLVALUE DUP1 ISZERO PUSH2 0x219 JUMPI PUSH0 PUSH0 REVERT JUMPDEST POP PUSH2 0x234 PUSH1 0x4 DUP1 CALLDATASIZE SUB DUP2 ADD SWAP1 PUSH2 0x22F SWAP2 SWAP1 PUSH2 0x1BA1 JUMP JUMPDEST PUSH2 0x754 JUMP JUMPDEST PUSH1 0x40 MLOAD PUSH2 0x241 SWAP2 SWAP1 PUSH2 0x1BF9 JUMP JUMPDEST PUSH1 0x40 MLOAD DUP1 SWAP2 SUB SWAP1 RETURN JUMPDEST CALLVALUE DUP1 ISZERO PUSH2 0x255 JUMPI PUSH0 PUSH0 REVERT JUMPDEST POP PUSH2 0x25E PUSH2 0x776 JUMP JUMPDEST PUSH1 0x40 MLOAD PUSH2 0x26B SWAP2 SWAP1 PUSH2 0x1AFC JUMP JUMPDEST PUSH1 0x40 MLOAD DUP1 SWAP2 SUB SWAP1 RETURN JUMPDEST PUSH2 0x27C PUSH2 0x77F JUMP JUMPDEST STOP JUMPDEST CALLVALUE DUP1 ISZERO PUSH2 0x289 JUMPI PUSH0 PUSH0 REVERT JUMPDEST POP PUSH2 0x292 PUSH2 0xD11 JUMP JUMPDEST PUSH1 0x40 MLOAD PUSH2 0x29F SWAP2 SWAP1 PUSH2 0x1AFC JUMP JUMPDEST PUSH1 0x40 MLOAD DUP1 SWAP2 SUB SWAP1 RETURN JUMPDEST CALLVALUE DUP1 ISZERO PUSH2 0x2B3 JUMPI PUSH0 PUSH0 REVERT JUMPDEST POP PUSH2 0x2CE PUSH1 0x4 DUP1 CALLDATASIZE SUB DUP2 ADD SWAP1 PUSH2 0x2C9 SWAP2 SWAP1 PUSH2 0x1C73 JUMP JUMPDEST PUSH2 0xD27 JUMP JUMPDEST STOP JUMPDEST CALLVALUE DUP1 ISZERO PUSH2 0x2DB JUMPI PUSH0 PUSH0 REVERT JUMPDEST POP PUSH2 0x2F6 PUSH1 0x4 DUP1 CALLDATASIZE SUB DUP2 ADD SWAP1 PUSH2 0x2F1 SWAP2 SWAP1 PUSH2 0x1CD0 JUMP JUMPDEST PUSH2 0xDE9 JUMP JUMPDEST PUSH1 0x40 MLOAD PUSH2 0x303 SWAP2 SWAP1 PUSH2 0x1BF9 JUMP JUMPDEST PUSH1 0x40 MLOAD DUP1 SWAP2 SUB SWAP1 RETURN JUMPDEST CALLVALUE DUP1 ISZERO PUSH2 0x317 JUMPI PUSH0 PUSH0 REVERT JUMPDEST POP PUSH2 0x332 PUSH1 0x4 DUP1 CALLDATASIZE SUB DUP2 ADD SWAP1 PUSH2 0x32D SWAP2 SWAP1 PUSH2 0x1D20 JUMP JUMPDEST PUSH2 0xE17 JUMP JUMPDEST PUSH1 0x40 MLOAD PUSH2 0x33F SWAP2 SWAP1 PUSH2 0x1AFC JUMP JUMPDEST PUSH1 0x40 MLOAD DUP1 SWAP2 SUB SWAP1 RETURN JUMPDEST CALLVALUE DUP1 ISZERO PUSH2 0x353 JUMPI PUSH0 PUSH0 REVERT JUMPDEST POP PUSH2 0x35C PUSH2 0xE2C JUMP JUMPDEST PUSH1 0x40 MLOAD PUSH2 0x369 SWAP2 SWAP1 PUSH2 0x1D66 JUMP JUMPDEST PUSH1 0x40 MLOAD DUP1 SWAP2 SUB SWAP1 RETURN JUMPDEST CALLVALUE DUP1 ISZERO PUSH2 0x37D JUMPI PUSH0 PUSH0 REVERT JUMPDEST POP PUSH2 0x386 PUSH2 0xE34 JUMP JUMPDEST PUSH1 0x40 MLOAD PUSH2 0x393 SWAP2 SWAP1 PUSH2 0x1D9D JUMP JUMPDEST PUSH1 0x40 MLOAD DUP1 SWAP2 SUB SWAP1 RETURN JUMPDEST CALLVALUE DUP1 ISZERO PUSH2 0x3A7 JUMPI PUSH0 PUSH0 REVERT JUMPDEST POP PUSH2 0x3B0 PUSH2 0xE3B JUMP JUMPDEST PUSH1 0x40 MLOAD PUSH2 0x3BD SWAP2 SWAP1 PUSH2 0x1AFC JUMP JUMPDEST PUSH1 0x40 MLOAD DUP1 SWAP2 SUB SWAP1 RETURN JUMPDEST CALLVALUE DUP1 ISZERO PUSH2 0x3D1 JUMPI PUSH0 PUSH0 REVERT JUMPDEST POP PUSH2 0x3DA PUSH2 0xE41 JUMP JUMPDEST PUSH1 0x40 MLOAD PUSH2 0x3E7 SWAP2 SWAP1 PUSH2 0x1AFC JUMP JUMPDEST PUSH1 0x40 MLOAD DUP1 SWAP2 SUB SWAP1 RETURN JUMPDEST CALLVALUE DUP1 ISZERO PUSH2 0x3FB JUMPI PUSH0 PUSH0 REVERT JUMPDEST POP PUSH2 0x416 PUSH1 0x4 DUP1 CALLDATASIZE SUB DUP2 ADD SWAP1 PUSH2 0x411 SWAP2 SWAP1 PUSH2 0x1D20 JUMP JUMPDEST PUSH2 0xE4E JUMP JUMPDEST STOP JUMPDEST CALLVALUE DUP1 ISZERO PUSH2 0x423 JUMPI PUSH0 PUSH0 REVERT JUMPDEST POP PUSH2 0x42C PUSH2 0x103A JUMP JUMPDEST PUSH1 0x40 MLOAD PUSH2 0x439 SWAP2 SWAP1 PUSH2 0x1AFC JUMP JUMPDEST PUSH1 0x40 MLOAD DUP1 SWAP2 SUB SWAP1 RETURN JUMPDEST CALLVALUE DUP1 ISZERO PUSH2 0x44D JUMPI PUSH0 PUSH0 REVERT JUMPDEST POP PUSH2 0x456 PUSH2 0x103F JUMP JUMPDEST PUSH1 0x40 MLOAD PUSH2 0x463 SWAP2 SWAP1 PUSH2 0x1AFC JUMP JUMPDEST PUSH1 0x40 MLOAD DUP1 SWAP2 SUB SWAP1 RETURN JUMPDEST CALLVALUE DUP1 ISZERO PUSH2 0x477 JUMPI PUSH0 PUSH0 REVERT JUMPDEST POP PUSH2 0x480 PUSH2 0x1045 JUMP JUMPDEST PUSH1 0x40 MLOAD PUSH2 0x48D SWAP2 SWAP1 PUSH2 0x1AFC JUMP JUMPDEST PUSH1 0x40 MLOAD DUP1 SWAP2 SUB SWAP1 RETURN JUMPDEST CALLVALUE DUP1 ISZERO PUSH2 0x4A1 JUMPI PUSH0 PUSH0 REVERT JUMPDEST POP PUSH2 0x4AA PUSH2 0x104A JUMP JUMPDEST PUSH1 0x40 MLOAD PUSH2 0x4B7 SWAP2 SWAP1 PUSH2 0x1DC5 JUMP JUMPDEST PUSH1 0x40 MLOAD DUP1 SWAP2 SUB SWAP1 RETURN JUMPDEST CALLVALUE DUP1 ISZERO PUSH2 0x4CB JUMPI PUSH0 PUSH0 REVERT JUMPDEST POP PUSH2 0x4E6 PUSH1 0x4 DUP1 CALLDATASIZE SUB DUP2 ADD SWAP1 PUSH2 0x4E1 SWAP2 SWAP1 PUSH2 0x1DDE JUMP JUMPDEST PUSH2 0x106F JUMP JUMPDEST PUSH1 0x40 MLOAD PUSH2 0x4F3 SWAP2 SWAP1 PUSH2 0x1AFC JUMP JUMPDEST PUSH1 0x40 MLOAD DUP1 SWAP2 SUB SWAP1 RETURN JUMPDEST CALLVALUE DUP1 ISZERO PUSH2 0x507 JUMPI PUSH0 PUSH0 REVERT JUMPDEST POP PUSH2 0x510 PUSH2 0x10B4 JUMP JUMPDEST PUSH1 0x40 MLOAD PUSH2 0x51D SWAP2 SWAP1 PUSH2 0x1AFC JUMP JUMPDEST PUSH1 0x40 MLOAD DUP1 SWAP2 SUB SWAP1 RETURN JUMPDEST CALLVALUE DUP1 ISZERO PUSH2 0x531 JUMPI PUSH0 PUSH0 REVERT JUMPDEST POP PUSH2 0x53A PUSH2 0x10BA JUMP JUMPDEST PUSH1 0x40 MLOAD PUSH2 0x547 SWAP2 SWAP1 PUSH2 0x1AC4 JUMP JUMPDEST PUSH1 0x40 MLOAD DUP1 SWAP2 SUB SWAP1 RETURN JUMPDEST CALLVALUE DUP1 ISZERO PUSH2 0x55B JUMPI PUSH0 PUSH0 REVERT JUMPDEST POP PUSH2 0x564 PUSH2 0x114A JUMP JUMPDEST PUSH1 0x40 MLOAD PUSH2 0x571 SWAP2 SWAP1 PUSH2 0x1AFC JUMP JUMPDEST PUSH1 0x40 MLOAD DUP1 SWAP2 SUB SWAP1 RETURN JUMPDEST CALLVALUE DUP1 ISZERO PUSH2 0x585 JUMPI PUSH0 PUSH0 REVERT JUMPDEST POP PUSH2 0x5A0 PUSH1 0x4 DUP1 CALLDATASIZE SUB DUP2 ADD SWAP1 PUSH2 0x59B SWAP2 SWAP1 PUSH2 0x1E09 JUMP JUMPDEST PUSH2 0x1150 JUMP JUMPDEST PUSH1 0x40 MLOAD PUSH2 0x5AD SWAP2 SWAP1 PUSH2 0x1DC5 JUMP JUMPDEST PUSH1 0x40 MLOAD DUP1 SWAP2 SUB SWAP1 RETURN JUMPDEST CALLVALUE DUP1 ISZERO PUSH2 0x5C1 JUMPI PUSH0 PUSH0 REVERT JUMPDEST POP PUSH2 0x5DC PUSH1 0x4 DUP1 CALLDATASIZE SUB DUP2 ADD SWAP1 PUSH2 0x5D7 SWAP2 SWAP1 PUSH2 0x1BA1 JUMP JUMPDEST PUSH2 0x118D JUMP JUMPDEST PUSH1 0x40 MLOAD PUSH2 0x5E9 SWAP2 SWAP1 PUSH2 0x1BF9 JUMP JUMPDEST PUSH1 0x40 MLOAD DUP1 SWAP2 SUB SWAP1 RETURN JUMPDEST CALLVALUE DUP1 ISZERO PUSH2 0x5FD JUMPI PUSH0 PUSH0 REVERT JUMPDEST POP PUSH2 0x606 PUSH2 0x11AF JUMP JUMPDEST PUSH1 0x40 MLOAD PUSH2 0x613 SWAP2 SWAP1 PUSH2 0x1AFC JUMP JUMPDEST PUSH1 0x40 MLOAD DUP1 SWAP2 SUB SWAP1 RETURN JUMPDEST CALLVALUE DUP1 ISZERO PUSH2 0x627 JUMPI PUSH0 PUSH0 REVERT JUMPDEST POP PUSH2 0x630 PUSH2 0x11BB JUMP JUMPDEST PUSH1 0x40 MLOAD PUSH2 0x63D SWAP2 SWAP1 PUSH2 0x1AFC JUMP JUMPDEST PUSH1 0x40 MLOAD DUP1 SWAP2 SUB SWAP1 RETURN JUMPDEST CALLVALUE DUP1 ISZERO PUSH2 0x651 JUMPI PUSH0 PUSH0 REVERT JUMPDEST POP PUSH2 0x66C PUSH1 0x4 DUP1 CALLDATASIZE SUB DUP2 ADD SWAP1 PUSH2 0x667 SWAP2 SWAP1 PUSH2 0x1E47 JUMP JUMPDEST PUSH2 0x11C1 JUMP JUMPDEST PUSH1 0x40 MLOAD PUSH2 0x679 SWAP2 SWAP1 PUSH2 0x1AFC JUMP JUMPDEST PUSH1 0x40 MLOAD DUP1 SWAP2 SUB SWAP1 RETURN JUMPDEST CALLVALUE DUP1 ISZERO PUSH2 0x68D JUMPI PUSH0 PUSH0 REVERT JUMPDEST POP PUSH2 0x6A8 PUSH1 0x4 DUP1 CALLDATASIZE SUB DUP2 ADD SWAP1 PUSH2 0x6A3 SWAP2 SWAP1 PUSH2 0x1D20 JUMP JUMPDEST PUSH2 0x1243 JUMP JUMPDEST PUSH1 0x40 MLOAD PUSH2 0x6B5 SWAP2 SWAP1 PUSH2 0x1AFC JUMP JUMPDEST PUSH1 0x40 MLOAD DUP1 SWAP2 SUB SWAP1 RETURN JUMPDEST PUSH1 0x60 PUSH1 0x3 DUP1 SLOAD PUSH2 0x6CD SWAP1 PUSH2 0x1EB2 JUMP JUMPDEST DUP1 PUSH1 0x1F ADD PUSH1 0x20 DUP1 SWAP2 DIV MUL PUSH1 0x20 ADD PUSH1 0x40 MLOAD SWAP1 DUP2 ADD PUSH1 0x40 MSTORE DUP1 SWAP3 SWAP2 SWAP1 DUP2 DUP2 MSTORE PUSH1 0x20 ADD DUP3 DUP1 SLOAD PUSH2 0x6F9 SWAP1 PUSH2 0x1EB2 JUMP JUMPDEST DUP1 ISZERO PUSH2 0x744 JUMPI DUP1 PUSH1 0x1F LT PUSH2 0x71B JUMPI PUSH2 0x100 DUP1 DUP4 SLOAD DIV MUL DUP4 MSTORE SWAP2 PUSH1 0x20 ADD SWAP2 PUSH2 0x744 JUMP JUMPDEST DUP3 ADD SWAP2 SWAP1 PUSH0 MSTORE PUSH1 0x20 PUSH0 KECCAK256 SWAP1 JUMPDEST DUP2 SLOAD DUP2 MSTORE SWAP1 PUSH1 0x1 ADD SWAP1 PUSH1 0x20 ADD DUP1 DUP4 GT PUSH2 0x727 JUMPI DUP3 SWAP1 SUB PUSH1 0x1F AND DUP3 ADD SWAP2 JUMPDEST POP POP POP POP POP SWAP1 POP SWAP1 JUMP JUMPDEST PUSH1 0x6 SLOAD DUP2 JUMP JUMPDEST PUSH0 PUSH0 PUSH2 0x75E PUSH2 0x125D JUMP JUMPDEST SWAP1 POP PUSH2 0x76B DUP2 DUP6 DUP6 PUSH2 0x1264 JUMP JUMPDEST PUSH1 0x1 SWAP2 POP POP SWAP3 SWAP2 POP POP JUMP JUMPDEST PUSH0 PUSH1 0x2 SLOAD SWAP1 POP SWAP1 JUMP JUMPDEST PUSH8 0x16345785D8A0000 CALLVALUE LT ISZERO PUSH2 0x7C1 JUMPI PUSH1 0x40 MLOAD PUSH32 0x732F941300000000000000000000000000000000000000000000000000000000 DUP2 MSTORE PUSH1 0x4 ADD PUSH1 0x40 MLOAD DUP1 SWAP2 SUB SWAP1 REVERT JUMPDEST PUSH0 PUSH1 0x3C PUSH1 0x9 SLOAD PUSH2 0x7D1 SWAP2 SWAP1 PUSH2 0x1F0F JUMP JUMPDEST TIMESTAMP LT ISZERO SWAP1 POP PUSH0 PUSH0 PUSH1 0xC PUSH0 PUSH1 0x7 SLOAD DUP2 MSTORE PUSH1 0x20 ADD SWAP1 DUP2 MSTORE PUSH1 0x20 ADD PUSH0 KECCAK256 SLOAD GT SWAP1 POP DUP2 DUP1 ISZERO PUSH2 0x7F9 JUMPI POP DUP1 JUMPDEST ISZERO PUSH2 0xA84 JUMPI PUSH0 PUSH32 0x0 PUSH20 0xFFFFFFFFFFFFFFFFFFFFFFFFFFFFFFFFFFFFFFFF AND PUSH4 0xC66D3D18 PUSH3 0x30D40 PUSH1 0x40 MLOAD DUP3 PUSH4 0xFFFFFFFF AND PUSH1 0xE0 SHL DUP2 MSTORE PUSH1 0x4 ADD PUSH2 0x85B SWAP2 SWAP1 PUSH2 0x1F7B JUMP JUMPDEST PUSH1 0x20 PUSH1 0x40 MLOAD DUP1 DUP4 SUB DUP2 DUP7 GAS STATICCALL ISZERO DUP1 ISZERO PUSH2 0x876 JUMPI RETURNDATASIZE PUSH0 PUSH0 RETURNDATACOPY RETURNDATASIZE PUSH0 REVERT JUMPDEST POP POP POP POP PUSH1 0x40 MLOAD RETURNDATASIZE PUSH1 0x1F NOT PUSH1 0x1F DUP3 ADD AND DUP3 ADD DUP1 PUSH1 0x40 MSTORE POP DUP2 ADD SWAP1 PUSH2 0x89A SWAP2 SWAP1 PUSH2 0x1FA8 JUMP JUMPDEST SWAP1 POP DUP1 SELFBALANCE LT ISZERO PUSH2 0x8D6 JUMPI PUSH1 0x40 MLOAD PUSH32 0x786E0A9900000000000000000000000000000000000000000000000000000000 DUP2 MSTORE PUSH1 0x4 ADD PUSH1 0x40 MLOAD DUP1 SWAP2 SUB SWAP1 REVERT JUMPDEST PUSH0 PUSH1 0xC PUSH0 PUSH1 0x7 SLOAD DUP2 MSTORE PUSH1 0x20 ADD SWAP1 DUP2 MSTORE PUSH1 0x20 ADD PUSH0 KECCAK256 SLOAD SWAP1 POP PUSH0 PUSH1 0xE PUSH0 PUSH1 0x7 SLOAD DUP2 MSTORE PUSH1 0x20 ADD SWAP1 DUP2 MSTORE PUSH1 0x20 ADD PUSH0 KECCAK256 SLOAD SWAP1 POP PUSH0 DUP2 SUB PUSH2 0x911 JUMPI PUSH1 0x6 SLOAD SWAP1 POP JUMPDEST PUSH0 PUSH32 0x0 PUSH20 0xFFFFFFFFFFFFFFFFFFFFFFFFFFFFFFFFFFFFFFFF AND PUSH4 0xCB9BB27F DUP6 PUSH3 0x30D40 PUSH1 0x1 ADDRESS PUSH1 0x40 MLOAD DUP6 PUSH4 0xFFFFFFFF AND PUSH1 0xE0 SHL DUP2 MSTORE PUSH1 0x4 ADD PUSH2 0x974 SWAP4 SWAP3 SWAP2 SWAP1 PUSH2 0x200C JUMP JUMPDEST PUSH1 0x20 PUSH1 0x40 MLOAD DUP1 DUP4 SUB DUP2 DUP6 DUP9 GAS CALL ISZERO DUP1 ISZERO PUSH2 0x990 JUMPI RETURNDATASIZE PUSH0 PUSH0 RETURNDATACOPY RETURNDATASIZE PUSH0 REVERT JUMPDEST POP POP POP POP POP PUSH1 0x40 MLOAD RETURNDATASIZE PUSH1 0x1F NOT PUSH1 0x1F DUP3 ADD AND DUP3 ADD DUP1 PUSH1 0x40 MSTORE POP DUP2 ADD SWAP1 PUSH2 0x9B5 SWAP2 SWAP1 PUSH2 0x1FA8 JUMP JUMPDEST SWAP1 POP PUSH1 0x7 SLOAD PUSH1 0xD PUSH0 DUP4 DUP2 MSTORE PUSH1 0x20 ADD SWAP1 DUP2 MSTORE PUSH1 0x20 ADD PUSH0 KECCAK256 DUP2 SWAP1 SSTORE POP DUP2 PUSH1 0xE PUSH0 PUSH1 0x7 SLOAD DUP2 MSTORE PUSH1 0x20 ADD SWAP1 DUP2 MSTORE PUSH1 0x20 ADD PUSH0 KECCAK256 DUP2 SWAP1 SSTORE POP PUSH1 0x7 SLOAD DUP2 PUSH32 0xA77018CFA060263F92C58B53277F73D2EADE9D69E943460421E26E648EED9F33 DUP6 DUP6 PUSH1 0x40 MLOAD PUSH2 0xA1C SWAP3 SWAP2 SWAP1 PUSH2 0x2041 JUMP JUMPDEST PUSH1 0x40 MLOAD DUP1 SWAP2 SUB SWAP1 LOG3 PUSH2 0xC382 PUSH1 0x8 SLOAD PUSH2 0xA34 SWAP2 SWAP1 PUSH2 0x1F0F JUMP JUMPDEST PUSH1 0x7 SLOAD LT PUSH2 0xA5F JUMPI PUSH1 0x2 PUSH1 0x6 PUSH0 DUP3 DUP3 SLOAD PUSH2 0xA4E SWAP2 SWAP1 PUSH2 0x2095 JUMP JUMPDEST SWAP3 POP POP DUP2 SWAP1 SSTORE POP PUSH1 0x7 SLOAD PUSH1 0x8 DUP2 SWAP1 SSTORE POP JUMPDEST PUSH1 0x1 PUSH1 0x7 PUSH0 DUP3 DUP3 SLOAD PUSH2 0xA71 SWAP2 SWAP1 PUSH2 0x1F0F JUMP JUMPDEST SWAP3 POP POP DUP2 SWAP1 SSTORE POP TIMESTAMP PUSH1 0x9 DUP2 SWAP1 SSTORE POP POP POP POP POP JUMPDEST PUSH0 PUSH1 0xC PUSH0 PUSH1 0x7 SLOAD DUP2 MSTORE PUSH1 0x20 ADD SWAP1 DUP2 MSTORE PUSH1 0x20 ADD PUSH0 KECCAK256 SLOAD SWAP1 POP CALLER PUSH1 0xB PUSH0 PUSH1 0x7 SLOAD DUP2 MSTORE PUSH1 0x20 ADD SWAP1 DUP2 MSTORE PUSH1 0x20 ADD PUSH0 KECCAK256 PUSH0 DUP4 DUP2 MSTORE PUSH1 0x20 ADD SWAP1 DUP2 MSTORE PUSH1 0x20 ADD PUSH0 KECCAK256 PUSH0 PUSH2 0x100 EXP DUP2 SLOAD DUP2 PUSH20 0xFFFFFFFFFFFFFFFFFFFFFFFFFFFFFFFFFFFFFFFF MUL NOT AND SWAP1 DUP4 PUSH20 0xFFFFFFFFFFFFFFFFFFFFFFFFFFFFFFFFFFFFFFFF AND MUL OR SWAP1 SSTORE POP PUSH1 0x1 DUP2 PUSH2 0xB08 SWAP2 SWAP1 PUSH2 0x1F0F JUMP JUMPDEST PUSH1 0xC PUSH0 PUSH1 0x7 SLOAD DUP2 MSTORE PUSH1 0x20 ADD SWAP1 DUP2 MSTORE PUSH1 0x20 ADD PUSH0 KECCAK256 DUP2 SWAP1 SSTORE POP CALLER PUSH20 0xFFFFFFFFFFFFFFFFFFFFFFFFFFFFFFFFFFFFFFFF AND PUSH1 0x7 SLOAD PUSH32 0x66F19FB732C3E13893EA1BB5573839D7D0B41EFFC0AEF6B59283C15EA5A0DBF9 PUSH1 0x40 MLOAD PUSH1 0x40 MLOAD DUP1 SWAP2 SUB SWAP1 LOG3 PUSH0 PUSH1 0x64 PUSH1 0x5 PUSH8 0x16345785D8A0000 PUSH2 0xB7D SWAP2 SWAP1 PUSH2 0x20C5 JUMP JUMPDEST PUSH2 0xB87 SWAP2 SWAP1 PUSH2 0x2095 JUMP JUMPDEST SWAP1 POP PUSH0 PUSH1 0xA PUSH0 SWAP1 SLOAD SWAP1 PUSH2 0x100 EXP SWAP1 DIV PUSH20 0xFFFFFFFFFFFFFFFFFFFFFFFFFFFFFFFFFFFFFFFF AND PUSH20 0xFFFFFFFFFFFFFFFFFFFFFFFFFFFFFFFFFFFFFFFF AND DUP3 PUSH1 0x40 MLOAD PUSH2 0xBCF SWAP1 PUSH2 0x2133 JUMP JUMPDEST PUSH0 PUSH1 0x40 MLOAD DUP1 DUP4 SUB DUP2 DUP6 DUP8 GAS CALL SWAP3 POP POP POP RETURNDATASIZE DUP1 PUSH0 DUP2 EQ PUSH2 0xC09 JUMPI PUSH1 0x40 MLOAD SWAP2 POP PUSH1 0x1F NOT PUSH1 0x3F RETURNDATASIZE ADD AND DUP3 ADD PUSH1 0x40 MSTORE RETURNDATASIZE DUP3 MSTORE RETURNDATASIZE PUSH0 PUSH1 0x20 DUP5 ADD RETURNDATACOPY PUSH2 0xC0E JUMP JUMPDEST PUSH1 0x60 SWAP2 POP JUMPDEST POP POP SWAP1 POP DUP1 PUSH2 0xC49 JUMPI PUSH1 0x40 MLOAD PUSH32 0x4033E4E300000000000000000000000000000000000000000000000000000000 DUP2 MSTORE PUSH1 0x4 ADD PUSH1 0x40 MLOAD DUP1 SWAP2 SUB SWAP1 REVERT JUMPDEST PUSH0 PUSH8 0x16345785D8A0000 CALLVALUE PUSH2 0xC5E SWAP2 SWAP1 PUSH2 0x2147 JUMP JUMPDEST SWAP1 POP PUSH0 DUP2 GT ISZERO PUSH2 0xD09 JUMPI CALLER PUSH20 0xFFFFFFFFFFFFFFFFFFFFFFFFFFFFFFFFFFFFFFFF AND DUP2 PUSH1 0x40 MLOAD PUSH2 0xC8C SWAP1 PUSH2 0x2133 JUMP JUMPDEST PUSH0 PUSH1 0x40 MLOAD DUP1 DUP4 SUB DUP2 DUP6 DUP8 GAS CALL SWAP3 POP POP POP RETURNDATASIZE DUP1 PUSH0 DUP2 EQ PUSH2 0xCC6 JUMPI PUSH1 0x40 MLOAD SWAP2 POP PUSH1 0x1F NOT PUSH1 0x3F RETURNDATASIZE ADD AND DUP3 ADD PUSH1 0x40 MSTORE RETURNDATASIZE DUP3 MSTORE RETURNDATASIZE PUSH0 PUSH1 0x20 DUP5 ADD RETURNDATACOPY PUSH2 0xCCB JUMP JUMPDEST PUSH1 0x60 SWAP2 POP JUMPDEST POP POP DUP1 SWAP3 POP POP DUP2 PUSH2 0xD08 JUMPI PUSH1 0x40 MLOAD PUSH32 0xF0C49D4400000000000000000000000000000000000000000000000000000000 DUP2 MSTORE PUSH1 0x4 ADD PUSH1 0x40 MLOAD DUP1 SWAP2 SUB SWAP1 REVERT JUMPDEST JUMPDEST POP POP POP POP POP POP JUMP JUMPDEST PUSH0 PUSH2 0xC382 PUSH1 0x8 SLOAD PUSH2 0xD22 SWAP2 SWAP1 PUSH2 0x1F0F JUMP JUMPDEST SWAP1 POP SWAP1 JUMP JUMPDEST PUSH32 0x0 PUSH20 0xFFFFFFFFFFFFFFFFFFFFFFFFFFFFFFFFFFFFFFFF AND CALLER PUSH20 0xFFFFFFFFFFFFFFFFFFFFFFFFFFFFFFFFFFFFFFFF AND EQ PUSH2 0xDD9 JUMPI CALLER PUSH32 0x0 PUSH1 0x40 MLOAD PUSH32 0x20138A9F00000000000000000000000000000000000000000000000000000000 DUP2 MSTORE PUSH1 0x4 ADD PUSH2 0xDD0 SWAP3 SWAP2 SWAP1 PUSH2 0x217A JUMP JUMPDEST PUSH1 0x40 MLOAD DUP1 SWAP2 SUB SWAP1 REVERT JUMPDEST PUSH2 0xDE4 DUP4 DUP4 DUP4 PUSH2 0x1276 JUMP JUMPDEST POP POP POP JUMP JUMPDEST PUSH0 PUSH0 PUSH2 0xDF3 PUSH2 0x125D JUMP JUMPDEST SWAP1 POP PUSH2 0xE00 DUP6 DUP3 DUP6 PUSH2 0x13EB JUMP JUMPDEST PUSH2 0xE0B DUP6 DUP6 DUP6 PUSH2 0x147E JUMP JUMPDEST PUSH1 0x1 SWAP2 POP POP SWAP4 SWAP3 POP POP POP JUMP JUMPDEST PUSH1 0xC PUSH1 0x20 MSTORE DUP1 PUSH0 MSTORE PUSH1 0x40 PUSH0 KECCAK256 PUSH0 SWAP2 POP SWAP1 POP SLOAD DUP2 JUMP JUMPDEST PUSH0 PUSH1 0x12 SWAP1 POP SWAP1 JUMP JUMPDEST PUSH3 0x30D40 DUP2 JUMP JUMPDEST PUSH2 0xC382 DUP2 JUMP JUMPDEST PUSH9 0x241A9B4F617A280000 DUP2 JUMP JUMPDEST PUSH0 DUP2 SUB PUSH2 0xE87 JUMPI PUSH1 0x40 MLOAD PUSH32 0x98642B8600000000000000000000000000000000000000000000000000000000 DUP2 MSTORE PUSH1 0x4 ADD PUSH1 0x40 MLOAD DUP1 SWAP2 SUB SWAP1 REVERT JUMPDEST PUSH0 SELFBALANCE SWAP1 POP PUSH0 DUP2 SUB PUSH2 0xEC4 JUMPI PUSH1 0x40 MLOAD PUSH32 0x786E0A9900000000000000000000000000000000000000000000000000000000 DUP2 MSTORE PUSH1 0x4 ADD PUSH1 0x40 MLOAD DUP1 SWAP2 SUB SWAP1 REVERT JUMPDEST PUSH0 PUSH2 0xECD PUSH2 0x776 JUMP JUMPDEST SWAP1 POP PUSH0 DUP2 SUB PUSH2 0xF08 JUMPI PUSH1 0x40 MLOAD PUSH32 0x786E0A9900000000000000000000000000000000000000000000000000000000 DUP2 MSTORE PUSH1 0x4 ADD PUSH1 0x40 MLOAD DUP1 SWAP2 SUB SWAP1 REVERT JUMPDEST PUSH0 DUP2 DUP4 DUP6 PUSH2 0xF16 SWAP2 SWAP1 PUSH2 0x20C5 JUMP JUMPDEST PUSH2 0xF20 SWAP2 SWAP1 PUSH2 0x2095 JUMP JUMPDEST SWAP1 POP PUSH2 0xF2C CALLER DUP6 PUSH2 0x156E JUMP JUMPDEST DUP4 PUSH1 0x5 PUSH0 DUP3 DUP3 SLOAD PUSH2 0xF3D SWAP2 SWAP1 PUSH2 0x2147 JUMP JUMPDEST SWAP3 POP POP DUP2 SWAP1 SSTORE POP PUSH0 CALLER PUSH20 0xFFFFFFFFFFFFFFFFFFFFFFFFFFFFFFFFFFFFFFFF AND DUP3 PUSH1 0x40 MLOAD PUSH2 0xF69 SWAP1 PUSH2 0x2133 JUMP JUMPDEST PUSH0 PUSH1 0x40 MLOAD DUP1 DUP4 SUB DUP2 DUP6 DUP8 GAS CALL SWAP3 POP POP POP RETURNDATASIZE DUP1 PUSH0 DUP2 EQ PUSH2 0xFA3 JUMPI PUSH1 0x40 MLOAD SWAP2 POP PUSH1 0x1F NOT PUSH1 0x3F RETURNDATASIZE ADD AND DUP3 ADD PUSH1 0x40 MSTORE RETURNDATASIZE DUP3 MSTORE RETURNDATASIZE PUSH0 PUSH1 0x20 DUP5 ADD RETURNDATACOPY PUSH2 0xFA8 JUMP JUMPDEST PUSH1 0x60 SWAP2 POP JUMPDEST POP POP SWAP1 POP DUP1 PUSH2 0xFE3 JUMPI PUSH1 0x40 MLOAD PUSH32 0x90B8EC1800000000000000000000000000000000000000000000000000000000 DUP2 MSTORE PUSH1 0x4 ADD PUSH1 0x40 MLOAD DUP1 SWAP2 SUB SWAP1 REVERT JUMPDEST CALLER PUSH20 0xFFFFFFFFFFFFFFFFFFFFFFFFFFFFFFFFFFFFFFFF AND PUSH32 0x23FF0E75EDF108E3D0392D92E13E8C8A868EF19001BD49F9E94876DC46DFF87F DUP7 DUP5 PUSH1 0x40 MLOAD PUSH2 0x102B SWAP3 SWAP2 SWAP1 PUSH2 0x2041 JUMP JUMPDEST PUSH1 0x40 MLOAD DUP1 SWAP2 SUB SWAP1 LOG2 POP POP POP POP POP JUMP JUMPDEST PUSH1 0x5 DUP2 JUMP JUMPDEST PUSH1 0x9 SLOAD DUP2 JUMP JUMPDEST PUSH1 0x3C DUP2 JUMP JUMPDEST PUSH1 0xA PUSH0 SWAP1 SLOAD SWAP1 PUSH2 0x100 EXP SWAP1 DIV PUSH20 0xFFFFFFFFFFFFFFFFFFFFFFFFFFFFFFFFFFFFFFFF AND DUP2 JUMP JUMPDEST PUSH0 PUSH0 PUSH0 DUP4 PUSH20 0xFFFFFFFFFFFFFFFFFFFFFFFFFFFFFFFFFFFFFFFF AND PUSH20 0xFFFFFFFFFFFFFFFFFFFFFFFFFFFFFFFFFFFFFFFF AND DUP2 MSTORE PUSH1 0x20 ADD SWAP1 DUP2 MSTORE PUSH1 0x20 ADD PUSH0 KECCAK256 SLOAD SWAP1 POP SWAP2 SWAP1 POP JUMP JUMPDEST PUSH1 0x7 SLOAD DUP2 JUMP JUMPDEST PUSH1 0x60 PUSH1 0x4 DUP1 SLOAD PUSH2 0x10C9 SWAP1 PUSH2 0x1EB2 JUMP JUMPDEST DUP1 PUSH1 0x1F ADD PUSH1 0x20 DUP1 SWAP2 DIV MUL PUSH1 0x20 ADD PUSH1 0x40 MLOAD SWAP1 DUP2 ADD PUSH1 0x40 MSTORE DUP1 SWAP3 SWAP2 SWAP1 DUP2 DUP2 MSTORE PUSH1 0x20 ADD DUP3 DUP1 SLOAD PUSH2 0x10F5 SWAP1 PUSH2 0x1EB2 JUMP JUMPDEST DUP1 ISZERO PUSH2 0x1140 JUMPI DUP1 PUSH1 0x1F LT PUSH2 0x1117 JUMPI PUSH2 0x100 DUP1 DUP4 SLOAD DIV MUL DUP4 MSTORE SWAP2 PUSH1 0x20 ADD SWAP2 PUSH2 0x1140 JUMP JUMPDEST DUP3 ADD SWAP2 SWAP1 PUSH0 MSTORE PUSH1 0x20 PUSH0 KECCAK256 SWAP1 JUMPDEST DUP2 SLOAD DUP2 MSTORE SWAP1 PUSH1 0x1 ADD SWAP1 PUSH1 0x20 ADD DUP1 DUP4 GT PUSH2 0x1123 JUMPI DUP3 SWAP1 SUB PUSH1 0x1F AND DUP3 ADD SWAP2 JUMPDEST POP POP POP POP POP SWAP1 POP SWAP1 JUMP JUMPDEST PUSH1 0x8 SLOAD DUP2 JUMP JUMPDEST PUSH1 0xB PUSH1 0x20 MSTORE DUP2 PUSH0 MSTORE PUSH1 0x40 PUSH0 KECCAK256 PUSH1 0x20 MSTORE DUP1 PUSH0 MSTORE PUSH1 0x40 PUSH0 KECCAK256 PUSH0 SWAP2 POP SWAP2 POP SWAP1 SLOAD SWAP1 PUSH2 0x100 EXP SWAP1 DIV PUSH20 0xFFFFFFFFFFFFFFFFFFFFFFFFFFFFFFFFFFFFFFFF AND DUP2 JUMP JUMPDEST PUSH0 PUSH0 PUSH2 0x1197 PUSH2 0x125D JUMP JUMPDEST SWAP1 POP PUSH2 0x11A4 DUP2 DUP6 DUP6 PUSH2 0x147E JUMP JUMPDEST PUSH1 0x1 SWAP2 POP POP SWAP3 SWAP2 POP POP JUMP JUMPDEST PUSH8 0x16345785D8A0000 DUP2 JUMP JUMPDEST PUSH1 0x5 SLOAD DUP2 JUMP JUMPDEST PUSH0 PUSH1 0x1 PUSH0 DUP5 PUSH20 0xFFFFFFFFFFFFFFFFFFFFFFFFFFFFFFFFFFFFFFFF AND PUSH20 0xFFFFFFFFFFFFFFFFFFFFFFFFFFFFFFFFFFFFFFFF AND DUP2 MSTORE PUSH1 0x20 ADD SWAP1 DUP2 MSTORE PUSH1 0x20 ADD PUSH0 KECCAK256 PUSH0 DUP4 PUSH20 0xFFFFFFFFFFFFFFFFFFFFFFFFFFFFFFFFFFFFFFFF AND PUSH20 0xFFFFFFFFFFFFFFFFFFFFFFFFFFFFFFFFFFFFFFFF AND DUP2 MSTORE PUSH1 0x20 ADD SWAP1 DUP2 MSTORE PUSH1 0x20 ADD PUSH0 KECCAK256 SLOAD SWAP1 POP SWAP3 SWAP2 POP POP JUMP JUMPDEST PUSH0 PUSH1 0xC PUSH0 DUP4 DUP2 MSTORE PUSH1 0x20 ADD SWAP1 DUP2 MSTORE PUSH1 0x20 ADD PUSH0 KECCAK256 SLOAD SWAP1 POP SWAP2 SWAP1 POP JUMP JUMPDEST PUSH0 CALLER SWAP1 POP SWAP1 JUMP JUMPDEST PUSH2 0x1271 DUP4 DUP4 DUP4 PUSH1 0x1 PUSH2 0x15ED JUMP JUMPDEST POP POP POP JUMP JUMPDEST PUSH0 PUSH1 0xD PUSH0 DUP6 DUP2 MSTORE PUSH1 0x20 ADD SWAP1 DUP2 MSTORE PUSH1 0x20 ADD PUSH0 KECCAK256 SLOAD SWAP1 POP PUSH1 0xD PUSH0 DUP6 DUP2 MSTORE PUSH1 0x20 ADD SWAP1 DUP2 MSTORE PUSH1 0x20 ADD PUSH0 KECCAK256 PUSH0 SWAP1 SSTORE PUSH0 PUSH1 0xC PUSH0 DUP4 DUP2 MSTORE PUSH1 0x20 ADD SWAP1 DUP2 MSTORE PUSH1 0x20 ADD PUSH0 KECCAK256 SLOAD SWAP1 POP PUSH0 DUP2 GT ISZERO PUSH2 0x13E4 JUMPI PUSH0 DUP2 DUP6 DUP6 PUSH0 DUP2 DUP2 LT PUSH2 0x12D1 JUMPI PUSH2 0x12D0 PUSH2 0x21A1 JUMP JUMPDEST JUMPDEST SWAP1 POP PUSH1 0x20 MUL ADD CALLDATALOAD PUSH2 0x12E2 SWAP2 SWAP1 PUSH2 0x21CE JUMP JUMPDEST SWAP1 POP PUSH0 PUSH1 0xB PUSH0 DUP6 DUP2 MSTORE PUSH1 0x20 ADD SWAP1 DUP2 MSTORE PUSH1 0x20 ADD PUSH0 KECCAK256 PUSH0 DUP4 DUP2 MSTORE PUSH1 0x20 ADD SWAP1 DUP2 MSTORE PUSH1 0x20 ADD PUSH0 KECCAK256 PUSH0 SWAP1 SLOAD SWAP1 PUSH2 0x100 EXP SWAP1 DIV PUSH20 0xFFFFFFFFFFFFFFFFFFFFFFFFFFFFFFFFFFFFFFFF AND SWAP1 POP PUSH0 PUSH1 0xE PUSH0 DUP7 DUP2 MSTORE PUSH1 0x20 ADD SWAP1 DUP2 MSTORE PUSH1 0x20 ADD PUSH0 KECCAK256 SLOAD SWAP1 POP PUSH0 DUP2 SUB PUSH2 0x1349 JUMPI PUSH1 0x6 SLOAD SWAP1 POP JUMPDEST PUSH1 0x5 SLOAD DUP2 PUSH2 0x1355 PUSH2 0x776 JUMP JUMPDEST PUSH2 0x135F SWAP2 SWAP1 PUSH2 0x1F0F JUMP JUMPDEST GT ISZERO PUSH2 0x137D JUMPI PUSH2 0x136D PUSH2 0x776 JUMP JUMPDEST PUSH1 0x5 SLOAD PUSH2 0x137A SWAP2 SWAP1 PUSH2 0x2147 JUMP JUMPDEST SWAP1 POP JUMPDEST PUSH0 DUP2 GT ISZERO PUSH2 0x13E0 JUMPI PUSH2 0x138F DUP3 DUP3 PUSH2 0x17BC JUMP JUMPDEST DUP2 PUSH20 0xFFFFFFFFFFFFFFFFFFFFFFFFFFFFFFFFFFFFFFFF AND DUP6 DUP10 PUSH32 0xDD7933A060407298571FE36223F480EE3508053FDB7238A1FE246F52B62C8E73 DUP5 PUSH1 0x40 MLOAD PUSH2 0x13D7 SWAP2 SWAP1 PUSH2 0x1AFC JUMP JUMPDEST PUSH1 0x40 MLOAD DUP1 SWAP2 SUB SWAP1 LOG4 JUMPDEST POP POP POP JUMPDEST POP POP POP POP POP JUMP JUMPDEST PUSH0 PUSH2 0x13F6 DUP5 DUP5 PUSH2 0x11C1 JUMP JUMPDEST SWAP1 POP PUSH32 0xFFFFFFFFFFFFFFFFFFFFFFFFFFFFFFFFFFFFFFFFFFFFFFFFFFFFFFFFFFFFFFFF DUP2 LT ISZERO PUSH2 0x1478 JUMPI DUP2 DUP2 LT ISZERO PUSH2 0x1469 JUMPI DUP3 DUP2 DUP4 PUSH1 0x40 MLOAD PUSH32 0xFB8F41B200000000000000000000000000000000000000000000000000000000 DUP2 MSTORE PUSH1 0x4 ADD PUSH2 0x1460 SWAP4 SWAP3 SWAP2 SWAP1 PUSH2 0x21FE JUMP JUMPDEST PUSH1 0x40 MLOAD DUP1 SWAP2 SUB SWAP1 REVERT JUMPDEST PUSH2 0x1477 DUP5 DUP5 DUP5 DUP5 SUB PUSH0 PUSH2 0x15ED JUMP JUMPDEST JUMPDEST POP POP POP POP JUMP JUMPDEST PUSH0 PUSH20 0xFFFFFFFFFFFFFFFFFFFFFFFFFFFFFFFFFFFFFFFF AND DUP4 PUSH20 0xFFFFFFFFFFFFFFFFFFFFFFFFFFFFFFFFFFFFFFFF AND SUB PUSH2 0x14EE JUMPI PUSH0 PUSH1 0x40 MLOAD PUSH32 0x96C6FD1E00000000000000000000000000000000000000000000000000000000 DUP2 MSTORE PUSH1 0x4 ADD PUSH2 0x14E5 SWAP2 SWAP1 PUSH2 0x1DC5 JUMP JUMPDEST PUSH1 0x40 MLOAD DUP1 SWAP2 SUB SWAP1 REVERT JUMPDEST PUSH0 PUSH20 0xFFFFFFFFFFFFFFFFFFFFFFFFFFFFFFFFFFFFFFFF AND DUP3 PUSH20 0xFFFFFFFFFFFFFFFFFFFFFFFFFFFFFFFFFFFFFFFF AND SUB PUSH2 0x155E JUMPI PUSH0 PUSH1 0x40 MLOAD PUSH32 0xEC442F0500000000000000000000000000000000000000000000000000000000 DUP2 MSTORE PUSH1 0x4 ADD PUSH2 0x1555 SWAP2 SWAP1 PUSH2 0x1DC5 JUMP JUMPDEST PUSH1 0x40 MLOAD DUP1 SWAP2 SUB SWAP1 REVERT JUMPDEST PUSH2 0x1569 DUP4 DUP4 DUP4 PUSH2 0x183B JUMP JUMPDEST POP POP POP JUMP JUMPDEST PUSH0 PUSH20 0xFFFFFFFFFFFFFFFFFFFFFFFFFFFFFFFFFFFFFFFF AND DUP3 PUSH20 0xFFFFFFFFFFFFFFFFFFFFFFFFFFFFFFFFFFFFFFFF AND SUB PUSH2 0x15DE JUMPI PUSH0 PUSH1 0x40 MLOAD PUSH32 0x96C6FD1E00000000000000000000000000000000000000000000000000000000 DUP2 MSTORE PUSH1 0x4 ADD PUSH2 0x15D5 SWAP2 SWAP1 PUSH2 0x1DC5 JUMP JUMPDEST PUSH1 0x40 MLOAD DUP1 SWAP2 SUB SWAP1 REVERT JUMPDEST PUSH2 0x15E9 DUP3 PUSH0 DUP4 PUSH2 0x183B JUMP JUMPDEST POP POP JUMP JUMPDEST PUSH0 PUSH20 0xFFFFFFFFFFFFFFFFFFFFFFFFFFFFFFFFFFFFFFFF AND DUP5 PUSH20 0xFFFFFFFFFFFFFFFFFFFFFFFFFFFFFFFFFFFFFFFF AND SUB PUSH2 0x165D JUMPI PUSH0 PUSH1 0x40 MLOAD PUSH32 0xE602DF0500000000000000000000000000000000000000000000000000000000 DUP2 MSTORE PUSH1 0x4 ADD PUSH2 0x1654 SWAP2 SWAP1 PUSH2 0x1DC5 JUMP JUMPDEST PUSH1 0x40 MLOAD DUP1 SWAP2 SUB SWAP1 REVERT JUMPDEST PUSH0 PUSH20 0xFFFFFFFFFFFFFFFFFFFFFFFFFFFFFFFFFFFFFFFF AND DUP4 PUSH20 0xFFFFFFFFFFFFFFFFFFFFFFFFFFFFFFFFFFFFFFFF AND SUB PUSH2 0x16CD JUMPI PUSH0 PUSH1 0x40 MLOAD PUSH32 0x94280D6200000000000000000000000000000000000000000000000000000000 DUP2 MSTORE PUSH1 0x4 ADD PUSH2 0x16C4 SWAP2 SWAP1 PUSH2 0x1DC5 JUMP JUMPDEST PUSH1 0x40 MLOAD DUP1 SWAP2 SUB SWAP1 REVERT JUMPDEST DUP2 PUSH1 0x1 PUSH0 DUP7 PUSH20 0xFFFFFFFFFFFFFFFFFFFFFFFFFFFFFFFFFFFFFFFF AND PUSH20 0xFFFFFFFFFFFFFFFFFFFFFFFFFFFFFFFFFFFFFFFF AND DUP2 MSTORE PUSH1 0x20 ADD SWAP1 DUP2 MSTORE PUSH1 0x20 ADD PUSH0 KECCAK256 PUSH0 DUP6 PUSH20 0xFFFFFFFFFFFFFFFFFFFFFFFFFFFFFFFFFFFFFFFF AND PUSH20 0xFFFFFFFFFFFFFFFFFFFFFFFFFFFFFFFFFFFFFFFF AND DUP2 MSTORE PUSH1 0x20 ADD SWAP1 DUP2 MSTORE PUSH1 0x20 ADD PUSH0 KECCAK256 DUP2 SWAP1 SSTORE POP DUP1 ISZERO PUSH2 0x17B6 JUMPI DUP3 PUSH20 0xFFFFFFFFFFFFFFFFFFFFFFFFFFFFFFFFFFFFFFFF AND DUP5 PUSH20 0xFFFFFFFFFFFFFFFFFFFFFFFFFFFFFFFFFFFFFFFF AND PUSH32 0x8C5BE1E5EBEC7D5BD14F71427D1E84F3DD0314C0F7B2291E5B200AC8C7C3B925 DUP5 PUSH1 0x40 MLOAD PUSH2 0x17AD SWAP2 SWAP1 PUSH2 0x1AFC JUMP JUMPDEST PUSH1 0x40 MLOAD DUP1 SWAP2 SUB SWAP1 LOG3 JUMPDEST POP POP POP POP JUMP JUMPDEST PUSH0 PUSH20 0xFFFFFFFFFFFFFFFFFFFFFFFFFFFFFFFFFFFFFFFF AND DUP3 PUSH20 0xFFFFFFFFFFFFFFFFFFFFFFFFFFFFFFFFFFFFFFFF AND SUB PUSH2 0x182C JUMPI PUSH0 PUSH1 0x40 MLOAD PUSH32 0xEC442F0500000000000000000000000000000000000000000000000000000000 DUP2 MSTORE PUSH1 0x4 ADD PUSH2 0x1823 SWAP2 SWAP1 PUSH2 0x1DC5 JUMP JUMPDEST PUSH1 0x40 MLOAD DUP1 SWAP2 SUB SWAP1 REVERT JUMPDEST PUSH2 0x1837 PUSH0 DUP4 DUP4 PUSH2 0x183B JUMP JUMPDEST POP POP JUMP JUMPDEST PUSH0 PUSH20 0xFFFFFFFFFFFFFFFFFFFFFFFFFFFFFFFFFFFFFFFF AND DUP4 PUSH20 0xFFFFFFFFFFFFFFFFFFFFFFFFFFFFFFFFFFFFFFFF AND SUB PUSH2 0x188B JUMPI DUP1 PUSH1 0x2 PUSH0 DUP3 DUP3 SLOAD PUSH2 0x187F SWAP2 SWAP1 PUSH2 0x1F0F JUMP JUMPDEST SWAP3 POP POP DUP2 SWAP1 SSTORE POP PUSH2 0x1959 JUMP JUMPDEST PUSH0 PUSH0 PUSH0 DUP6 PUSH20 0xFFFFFFFFFFFFFFFFFFFFFFFFFFFFFFFFFFFFFFFF AND PUSH20 0xFFFFFFFFFFFFFFFFFFFFFFFFFFFFFFFFFFFFFFFF AND DUP2 MSTORE PUSH1 0x20 ADD SWAP1 DUP2 MSTORE PUSH1 0x20 ADD PUSH0 KECCAK256 SLOAD SWAP1 POP DUP2 DUP2 LT ISZERO PUSH2 0x1914 JUMPI DUP4 DUP2 DUP4 PUSH1 0x40 MLOAD PUSH32 0xE450D38C00000000000000000000000000000000000000000000000000000000 DUP2 MSTORE PUSH1 0x4 ADD PUSH2 0x190B SWAP4 SWAP3 SWAP2 SWAP1 PUSH2 0x21FE JUMP JUMPDEST PUSH1 0x40 MLOAD DUP1 SWAP2 SUB SWAP1 REVERT JUMPDEST DUP2 DUP2 SUB PUSH0 PUSH0 DUP7 PUSH20 0xFFFFFFFFFFFFFFFFFFFFFFFFFFFFFFFFFFFFFFFF AND PUSH20 0xFFFFFFFFFFFFFFFFFFFFFFFFFFFFFFFFFFFFFFFF AND DUP2 MSTORE PUSH1 0x20 ADD SWAP1 DUP2 MSTORE PUSH1 0x20 ADD PUSH0 KECCAK256 DUP2 SWAP1 SSTORE POP POP JUMPDEST PUSH0 PUSH20 0xFFFFFFFFFFFFFFFFFFFFFFFFFFFFFFFFFFFFFFFF AND DUP3 PUSH20 0xFFFFFFFFFFFFFFFFFFFFFFFFFFFFFFFFFFFFFFFF AND SUB PUSH2 0x19A0 JUMPI DUP1 PUSH1 0x2 PUSH0 DUP3 DUP3 SLOAD SUB SWAP3 POP POP DUP2 SWAP1 SSTORE POP PUSH2 0x19EA JUMP JUMPDEST DUP1 PUSH0 PUSH0 DUP5 PUSH20 0xFFFFFFFFFFFFFFFFFFFFFFFFFFFFFFFFFFFFFFFF AND PUSH20 0xFFFFFFFFFFFFFFFFFFFFFFFFFFFFFFFFFFFFFFFF AND DUP2 MSTORE PUSH1 0x20 ADD SWAP1 DUP2 MSTORE PUSH1 0x20 ADD PUSH0 KECCAK256 PUSH0 DUP3 DUP3 SLOAD ADD SWAP3 POP POP DUP2 SWAP1 SSTORE POP JUMPDEST DUP2 PUSH20 0xFFFFFFFFFFFFFFFFFFFFFFFFFFFFFFFFFFFFFFFF AND DUP4 PUSH20 0xFFFFFFFFFFFFFFFFFFFFFFFFFFFFFFFFFFFFFFFF AND PUSH32 0xDDF252AD1BE2C89B69C2B068FC378DAA952BA7F163C4A11628F55A4DF523B3EF DUP4 PUSH1 0x40 MLOAD PUSH2 0x1A47 SWAP2 SWAP1 PUSH2 0x1AFC JUMP JUMPDEST PUSH1 0x40 MLOAD DUP1 SWAP2 SUB SWAP1 LOG3 POP POP POP JUMP JUMPDEST PUSH0 DUP2 MLOAD SWAP1 POP SWAP2 SWAP1 POP JUMP JUMPDEST PUSH0 DUP3 DUP3 MSTORE PUSH1 0x20 DUP3 ADD SWAP1 POP SWAP3 SWAP2 POP POP JUMP JUMPDEST DUP3 DUP2 DUP4 MCOPY PUSH0 DUP4 DUP4 ADD MSTORE POP POP POP JUMP JUMPDEST PUSH0 PUSH1 0x1F NOT PUSH1 0x1F DUP4 ADD AND SWAP1 POP SWAP2 SWAP1 POP JUMP JUMPDEST PUSH0 PUSH2 0x1A96 DUP3 PUSH2 0x1A54 JUMP JUMPDEST PUSH2 0x1AA0 DUP2 DUP6 PUSH2 0x1A5E JUMP JUMPDEST SWAP4 POP PUSH2 0x1AB0 DUP2 DUP6 PUSH1 0x20 DUP7 ADD PUSH2 0x1A6E JUMP JUMPDEST PUSH2 0x1AB9 DUP2 PUSH2 0x1A7C JUMP JUMPDEST DUP5 ADD SWAP2 POP POP SWAP3 SWAP2 POP POP JUMP JUMPDEST PUSH0 PUSH1 0x20 DUP3 ADD SWAP1 POP DUP2 DUP2 SUB PUSH0 DUP4 ADD MSTORE PUSH2 0x1ADC DUP2 DUP5 PUSH2 0x1A8C JUMP JUMPDEST SWAP1 POP SWAP3 SWAP2 POP POP JUMP JUMPDEST PUSH0 DUP2 SWAP1 POP SWAP2 SWAP1 POP JUMP JUMPDEST PUSH2 0x1AF6 DUP2 PUSH2 0x1AE4 JUMP JUMPDEST DUP3 MSTORE POP POP JUMP JUMPDEST PUSH0 PUSH1 0x20 DUP3 ADD SWAP1 POP PUSH2 0x1B0F PUSH0 DUP4 ADD DUP5 PUSH2 0x1AED JUMP JUMPDEST SWAP3 SWAP2 POP POP JUMP JUMPDEST PUSH0 PUSH0 REVERT JUMPDEST PUSH0 PUSH0 REVERT JUMPDEST PUSH0 PUSH20 0xFFFFFFFFFFFFFFFFFFFFFFFFFFFFFFFFFFFFFFFF DUP3 AND SWAP1 POP SWAP2 SWAP1 POP JUMP JUMPDEST PUSH0 PUSH2 0x1B46 DUP3 PUSH2 0x1B1D JUMP JUMPDEST SWAP1 POP SWAP2 SWAP1 POP JUMP JUMPDEST PUSH2 0x1B56 DUP2 PUSH2 0x1B3C JUMP JUMPDEST DUP2 EQ PUSH2 0x1B60 JUMPI PUSH0 PUSH0 REVERT JUMPDEST POP JUMP JUMPDEST PUSH0 DUP2 CALLDATALOAD SWAP1 POP PUSH2 0x1B71 DUP2 PUSH2 0x1B4D JUMP JUMPDEST SWAP3 SWAP2 POP POP JUMP JUMPDEST PUSH2 0x1B80 DUP2 PUSH2 0x1AE4 JUMP JUMPDEST DUP2 EQ PUSH2 0x1B8A JUMPI PUSH0 PUSH0 REVERT JUMPDEST POP JUMP JUMPDEST PUSH0 DUP2 CALLDATALOAD SWAP1 POP PUSH2 0x1B9B DUP2 PUSH2 0x1B77 JUMP JUMPDEST SWAP3 SWAP2 POP POP JUMP JUMPDEST PUSH0 PUSH0 PUSH1 0x40 DUP4 DUP6 SUB SLT ISZERO PUSH2 0x1BB7 JUMPI PUSH2 0x1BB6 PUSH2 0x1B15 JUMP JUMPDEST JUMPDEST PUSH0 PUSH2 0x1BC4 DUP6 DUP3 DUP7 ADD PUSH2 0x1B63 JUMP JUMPDEST SWAP3 POP POP PUSH1 0x20 PUSH2 0x1BD5 DUP6 DUP3 DUP7 ADD PUSH2 0x1B8D JUMP JUMPDEST SWAP2 POP POP SWAP3 POP SWAP3 SWAP1 POP JUMP JUMPDEST PUSH0 DUP2 ISZERO ISZERO SWAP1 POP SWAP2 SWAP1 POP JUMP JUMPDEST PUSH2 0x1BF3 DUP2 PUSH2 0x1BDF JUMP JUMPDEST DUP3 MSTORE POP POP JUMP JUMPDEST PUSH0 PUSH1 0x20 DUP3 ADD SWAP1 POP PUSH2 0x1C0C PUSH0 DUP4 ADD DUP5 PUSH2 0x1BEA JUMP JUMPDEST SWAP3 SWAP2 POP POP JUMP JUMPDEST PUSH0 PUSH0 REVERT JUMPDEST PUSH0 PUSH0 REVERT JUMPDEST PUSH0 PUSH0 REVERT JUMPDEST PUSH0 PUSH0 DUP4 PUSH1 0x1F DUP5 ADD SLT PUSH2 0x1C33 JUMPI PUSH2 0x1C32 PUSH2 0x1C12 JUMP JUMPDEST JUMPDEST DUP3 CALLDATALOAD SWAP1 POP PUSH8 0xFFFFFFFFFFFFFFFF DUP2 GT ISZERO PUSH2 0x1C50 JUMPI PUSH2 0x1C4F PUSH2 0x1C16 JUMP JUMPDEST JUMPDEST PUSH1 0x20 DUP4 ADD SWAP2 POP DUP4 PUSH1 0x20 DUP3 MUL DUP4 ADD GT ISZERO PUSH2 0x1C6C JUMPI PUSH2 0x1C6B PUSH2 0x1C1A JUMP JUMPDEST JUMPDEST SWAP3 POP SWAP3 SWAP1 POP JUMP JUMPDEST PUSH0 PUSH0 PUSH0 PUSH1 0x40 DUP5 DUP7 SUB SLT ISZERO PUSH2 0x1C8A JUMPI PUSH2 0x1C89 PUSH2 0x1B15 JUMP JUMPDEST JUMPDEST PUSH0 PUSH2 0x1C97 DUP7 DUP3 DUP8 ADD PUSH2 0x1B8D JUMP JUMPDEST SWAP4 POP POP PUSH1 0x20 DUP5 ADD CALLDATALOAD PUSH8 0xFFFFFFFFFFFFFFFF DUP2 GT ISZERO PUSH2 0x1CB8 JUMPI PUSH2 0x1CB7 PUSH2 0x1B19 JUMP JUMPDEST JUMPDEST PUSH2 0x1CC4 DUP7 DUP3 DUP8 ADD PUSH2 0x1C1E JUMP JUMPDEST SWAP3 POP SWAP3 POP POP SWAP3 POP SWAP3 POP SWAP3 JUMP JUMPDEST PUSH0 PUSH0 PUSH0 PUSH1 0x60 DUP5 DUP7 SUB SLT ISZERO PUSH2 0x1CE7 JUMPI PUSH2 0x1CE6 PUSH2 0x1B15 JUMP JUMPDEST JUMPDEST PUSH0 PUSH2 0x1CF4 DUP7 DUP3 DUP8 ADD PUSH2 0x1B63 JUMP JUMPDEST SWAP4 POP POP PUSH1 0x20 PUSH2 0x1D05 DUP7 DUP3 DUP8 ADD PUSH2 0x1B63 JUMP JUMPDEST SWAP3 POP POP PUSH1 0x40 PUSH2 0x1D16 DUP7 DUP3 DUP8 ADD PUSH2 0x1B8D JUMP JUMPDEST SWAP2 POP POP SWAP3 POP SWAP3 POP SWAP3 JUMP JUMPDEST PUSH0 PUSH1 0x20 DUP3 DUP5 SUB SLT ISZERO PUSH2 0x1D35 JUMPI PUSH2 0x1D34 PUSH2 0x1B15 JUMP JUMPDEST JUMPDEST PUSH0 PUSH2 0x1D42 DUP5 DUP3 DUP6 ADD PUSH2 0x1B8D JUMP JUMPDEST SWAP2 POP POP SWAP3 SWAP2 POP POP JUMP JUMPDEST PUSH0 PUSH1 0xFF DUP3 AND SWAP1 POP SWAP2 SWAP1 POP JUMP JUMPDEST PUSH2 0x1D60 DUP2 PUSH2 0x1D4B JUMP JUMPDEST DUP3 MSTORE POP POP JUMP JUMPDEST PUSH0 PUSH1 0x20 DUP3 ADD SWAP1 POP PUSH2 0x1D79 PUSH0 DUP4 ADD DUP5 PUSH2 0x1D57 JUMP JUMPDEST SWAP3 SWAP2 POP POP JUMP JUMPDEST PUSH0 PUSH4 0xFFFFFFFF DUP3 AND SWAP1 POP SWAP2 SWAP1 POP JUMP JUMPDEST PUSH2 0x1D97 DUP2 PUSH2 0x1D7F JUMP JUMPDEST DUP3 MSTORE POP POP JUMP JUMPDEST PUSH0 PUSH1 0x20 DUP3 ADD SWAP1 POP PUSH2 0x1DB0 PUSH0 DUP4 ADD DUP5 PUSH2 0x1D8E JUMP JUMPDEST SWAP3 SWAP2 POP POP JUMP JUMPDEST PUSH2 0x1DBF DUP2 PUSH2 0x1B3C JUMP JUMPDEST DUP3 MSTORE POP POP JUMP JUMPDEST PUSH0 PUSH1 0x20 DUP3 ADD SWAP1 POP PUSH2 0x1DD8 PUSH0 DUP4 ADD DUP5 PUSH2 0x1DB6 JUMP JUMPDEST SWAP3 SWAP2 POP POP JUMP JUMPDEST PUSH0 PUSH1 0x20 DUP3 DUP5 SUB SLT ISZERO PUSH2 0x1DF3 JUMPI PUSH2 0x1DF2 PUSH2 0x1B15 JUMP JUMPDEST JUMPDEST PUSH0 PUSH2 0x1E00 DUP5 DUP3 DUP6 ADD PUSH2 0x1B63 JUMP JUMPDEST SWAP2 POP POP SWAP3 SWAP2 POP POP JUMP JUMPDEST PUSH0 PUSH0 PUSH1 0x40 DUP4 DUP6 SUB SLT ISZERO PUSH2 0x1E1F JUMPI PUSH2 0x1E1E PUSH2 0x1B15 JUMP JUMPDEST JUMPDEST PUSH0 PUSH2 0x1E2C DUP6 DUP3 DUP7 ADD PUSH2 0x1B8D JUMP JUMPDEST SWAP3 POP POP PUSH1 0x20 PUSH2 0x1E3D DUP6 DUP3 DUP7 ADD PUSH2 0x1B8D JUMP JUMPDEST SWAP2 POP POP SWAP3 POP SWAP3 SWAP1 POP JUMP JUMPDEST PUSH0 PUSH0 PUSH1 0x40 DUP4 DUP6 SUB SLT ISZERO PUSH2 0x1E5D JUMPI PUSH2 0x1E5C PUSH2 0x1B15 JUMP JUMPDEST JUMPDEST PUSH0 PUSH2 0x1E6A DUP6 DUP3 DUP7 ADD PUSH2 0x1B63 JUMP JUMPDEST SWAP3 POP POP PUSH1 0x20 PUSH2 0x1E7B DUP6 DUP3 DUP7 ADD PUSH2 0x1B63 JUMP JUMPDEST SWAP2 POP POP SWAP3 POP SWAP3 SWAP1 POP JUMP JUMPDEST PUSH32 0x4E487B7100000000000000000000000000000000000000000000000000000000 PUSH0 MSTORE PUSH1 0x22 PUSH1 0x4 MSTORE PUSH1 0x24 PUSH0 REVERT JUMPDEST PUSH0 PUSH1 0x2 DUP3 DIV SWAP1 POP PUSH1 0x1 DUP3 AND DUP1 PUSH2 0x1EC9 JUMPI PUSH1 0x7F DUP3 AND SWAP2 POP JUMPDEST PUSH1 0x20 DUP3 LT DUP2 SUB PUSH2 0x1EDC JUMPI PUSH2 0x1EDB PUSH2 0x1E85 JUMP JUMPDEST JUMPDEST POP SWAP2 SWAP1 POP JUMP JUMPDEST PUSH32 0x4E487B7100000000000000000000000000000000000000000000000000000000 PUSH0 MSTORE PUSH1 0x11 PUSH1 0x4 MSTORE PUSH1 0x24 PUSH0 REVERT JUMPDEST PUSH0 PUSH2 0x1F19 DUP3 PUSH2 0x1AE4 JUMP JUMPDEST SWAP2 POP PUSH2 0x1F24 DUP4 PUSH2 0x1AE4 JUMP JUMPDEST SWAP3 POP DUP3 DUP3 ADD SWAP1 POP DUP1 DUP3 GT ISZERO PUSH2 0x1F3C JUMPI PUSH2 0x1F3B PUSH2 0x1EE2 JUMP JUMPDEST JUMPDEST SWAP3 SWAP2 POP POP JUMP JUMPDEST PUSH0 DUP2 SWAP1 POP SWAP2 SWAP1 POP JUMP JUMPDEST PUSH0 PUSH2 0x1F65 PUSH2 0x1F60 PUSH2 0x1F5B DUP5 PUSH2 0x1D7F JUMP JUMPDEST PUSH2 0x1F42 JUMP JUMPDEST PUSH2 0x1AE4 JUMP JUMPDEST SWAP1 POP SWAP2 SWAP1 POP JUMP JUMPDEST PUSH2 0x1F75 DUP2 PUSH2 0x1F4B JUMP JUMPDEST DUP3 MSTORE POP POP JUMP JUMPDEST PUSH0 PUSH1 0x20 DUP3 ADD SWAP1 POP PUSH2 0x1F8E PUSH0 DUP4 ADD DUP5 PUSH2 0x1F6C JUMP JUMPDEST SWAP3 SWAP2 POP POP JUMP JUMPDEST PUSH0 DUP2 MLOAD SWAP1 POP PUSH2 0x1FA2 DUP2 PUSH2 0x1B77 JUMP JUMPDEST SWAP3 SWAP2 POP POP JUMP JUMPDEST PUSH0 PUSH1 0x20 DUP3 DUP5 SUB SLT ISZERO PUSH2 0x1FBD JUMPI PUSH2 0x1FBC PUSH2 0x1B15 JUMP JUMPDEST JUMPDEST PUSH0 PUSH2 0x1FCA DUP5 DUP3 DUP6 ADD PUSH2 0x1F94 JUMP JUMPDEST SWAP2 POP POP SWAP3 SWAP2 POP POP JUMP JUMPDEST PUSH0 DUP2 SWAP1 POP SWAP2 SWAP1 POP JUMP JUMPDEST PUSH0 PUSH2 0x1FF6 PUSH2 0x1FF1 PUSH2 0x1FEC DUP5 PUSH2 0x1FD3 JUMP JUMPDEST PUSH2 0x1F42 JUMP JUMPDEST PUSH2 0x1AE4 JUMP JUMPDEST SWAP1 POP SWAP2 SWAP1 POP JUMP JUMPDEST PUSH2 0x2006 DUP2 PUSH2 0x1FDC JUMP JUMPDEST DUP3 MSTORE POP POP JUMP JUMPDEST PUSH0 PUSH1 0x60 DUP3 ADD SWAP1 POP PUSH2 0x201F PUSH0 DUP4 ADD DUP7 PUSH2 0x1F6C JUMP JUMPDEST PUSH2 0x202C PUSH1 0x20 DUP4 ADD DUP6 PUSH2 0x1FFD JUMP JUMPDEST PUSH2 0x2039 PUSH1 0x40 DUP4 ADD DUP5 PUSH2 0x1DB6 JUMP JUMPDEST SWAP5 SWAP4 POP POP POP POP JUMP JUMPDEST PUSH0 PUSH1 0x40 DUP3 ADD SWAP1 POP PUSH2 0x2054 PUSH0 DUP4 ADD DUP6 PUSH2 0x1AED JUMP JUMPDEST PUSH2 0x2061 PUSH1 0x20 DUP4 ADD DUP5 PUSH2 0x1AED JUMP JUMPDEST SWAP4 SWAP3 POP POP POP JUMP JUMPDEST PUSH32 0x4E487B7100000000000000000000000000000000000000000000000000000000 PUSH0 MSTORE PUSH1 0x12 PUSH1 0x4 MSTORE PUSH1 0x24 PUSH0 REVERT JUMPDEST PUSH0 PUSH2 0x209F DUP3 PUSH2 0x1AE4 JUMP JUMPDEST SWAP2 POP PUSH2 0x20AA DUP4 PUSH2 0x1AE4 JUMP JUMPDEST SWAP3 POP DUP3 PUSH2 0x20BA JUMPI PUSH2 0x20B9 PUSH2 0x2068 JUMP JUMPDEST JUMPDEST DUP3 DUP3 DIV SWAP1 POP SWAP3 SWAP2 POP POP JUMP JUMPDEST PUSH0 PUSH2 0x20CF DUP3 PUSH2 0x1AE4 JUMP JUMPDEST SWAP2 POP PUSH2 0x20DA DUP4 PUSH2 0x1AE4 JUMP JUMPDEST SWAP3 POP DUP3 DUP3 MUL PUSH2 0x20E8 DUP2 PUSH2 0x1AE4 JUMP JUMPDEST SWAP2 POP DUP3 DUP3 DIV DUP5 EQ DUP4 ISZERO OR PUSH2 0x20FF JUMPI PUSH2 0x20FE PUSH2 0x1EE2 JUMP JUMPDEST JUMPDEST POP SWAP3 SWAP2 POP POP JUMP JUMPDEST PUSH0 DUP2 SWAP1 POP SWAP3 SWAP2 POP POP JUMP JUMPDEST POP JUMP JUMPDEST PUSH0 PUSH2 0x211E PUSH0 DUP4 PUSH2 0x2106 JUMP JUMPDEST SWAP2 POP PUSH2 0x2129 DUP3 PUSH2 0x2110 JUMP JUMPDEST PUSH0 DUP3 ADD SWAP1 POP SWAP2 SWAP1 POP JUMP JUMPDEST PUSH0 PUSH2 0x213D DUP3 PUSH2 0x2113 JUMP JUMPDEST SWAP2 POP DUP2 SWAP1 POP SWAP2 SWAP1 POP JUMP JUMPDEST PUSH0 PUSH2 0x2151 DUP3 PUSH2 0x1AE4 JUMP JUMPDEST SWAP2 POP PUSH2 0x215C DUP4 PUSH2 0x1AE4 JUMP JUMPDEST SWAP3 POP DUP3 DUP3 SUB SWAP1 POP DUP2 DUP2 GT ISZERO PUSH2 0x2174 JUMPI PUSH2 0x2173 PUSH2 0x1EE2 JUMP JUMPDEST JUMPDEST SWAP3 SWAP2 POP POP JUMP JUMPDEST PUSH0 PUSH1 0x40 DUP3 ADD SWAP1 POP PUSH2 0x218D PUSH0 DUP4 ADD DUP6 PUSH2 0x1DB6 JUMP JUMPDEST PUSH2 0x219A PUSH1 0x20 DUP4 ADD DUP5 PUSH2 0x1DB6 JUMP JUMPDEST SWAP4 SWAP3 POP POP POP JUMP JUMPDEST PUSH32 0x4E487B7100000000000000000000000000000000000000000000000000000000 PUSH0 MSTORE PUSH1 0x32 PUSH1 0x4 MSTORE PUSH1 0x24 PUSH0 REVERT JUMPDEST PUSH0 PUSH2 0x21D8 DUP3 PUSH2 0x1AE4 JUMP JUMPDEST SWAP2 POP PUSH2 0x21E3 DUP4 PUSH2 0x1AE4 JUMP JUMPDEST SWAP3 POP DUP3 PUSH2 0x21F3 JUMPI PUSH2 0x21F2 PUSH2 0x2068 JUMP JUMPDEST JUMPDEST DUP3 DUP3 MOD SWAP1 POP SWAP3 SWAP2 POP POP JUMP JUMPDEST PUSH0 PUSH1 0x60 DUP3 ADD SWAP1 POP PUSH2 0x2211 PUSH0 DUP4 ADD DUP7 PUSH2 0x1DB6 JUMP JUMPDEST PUSH2 0x221E PUSH1 0x20 DUP4 ADD DUP6 PUSH2 0x1AED JUMP JUMPDEST PUSH2 0x222B PUSH1 0x40 DUP4 ADD DUP5 PUSH2 0x1AED JUMP JUMPDEST SWAP5 SWAP4 POP POP POP POP JUMP INVALID LOG2 PUSH5 0x6970667358 0x22 SLT KECCAK256 MSTORE 0xB5 0xA6 EXTDELEGATECALL GAS 0x21 PUSH28 0xCC4E0AE20F94BBF78068A7988E3BEE220C9000D0F95761064E64736F PUSH13 0x634300081E0033000000000000 "
				},
				"gasEstimates": {
					"creation": {
						"codeDepositCost": "1761800",
						"executionCost": "infinite",
						"totalCost": "infinite"
					},
					"external": {
						"CALLBACK_GAS_LIMIT()": "376",
						"Click()": "infinite",
						"FEE()": "369",
						"HALVING_INTERVAL_ROUNDS()": "392",
						"INITIAL_REWARD()": "414",
						"LIQUIDITY_SHARE()": "371",
						"ROUND_DURATION()": "415",
						"allowance(address,address)": "infinite",
						"approve(address,uint256)": "infinite",
						"balanceOf(address)": "2895",
						"burn(uint256)": "infinite",
						"currentReward()": "2494",
						"decimals()": "428",
						"getPlayersCountInRound(uint256)": "infinite",
						"lastHalvingRound()": "2470",
						"lastRoundTs()": "2493",
						"liquidityVault()": "2553",
						"maxSupply()": "2491",
						"name()": "infinite",
						"nextHalvingRound()": "infinite",
						"playerCount(uint256)": "infinite",
						"players(uint256,uint256)": "infinite",
						"rawFulfillRandomWords(uint256,uint256[])": "infinite",
						"roundId()": "2514",
						"symbol()": "infinite",
						"totalSupply()": "2478",
						"transfer(address,uint256)": "infinite",
						"transferFrom(address,address,uint256)": "infinite"
					},
					"internal": {
						"_fulfillRandomWords(uint256,uint256[] calldata)": "infinite"
					}
				},
				"methodIdentifiers": {
					"CALLBACK_GAS_LIMIT()": "33d608f1",
					"Click()": "1d6ad8e2",
					"FEE()": "c57981b5",
					"HALVING_INTERVAL_ROUNDS()": "36667e7f",
					"INITIAL_REWARD()": "36bcf7d6",
					"LIQUIDITY_SHARE()": "43270d56",
					"ROUND_DURATION()": "6641ea08",
					"allowance(address,address)": "dd62ed3e",
					"approve(address,uint256)": "095ea7b3",
					"balanceOf(address)": "70a08231",
					"burn(uint256)": "42966c68",
					"currentReward()": "07621eca",
					"decimals()": "313ce567",
					"getPlayersCountInRound(uint256)": "f68c2bfd",
					"lastHalvingRound()": "967372a3",
					"lastRoundTs()": "47fec1a2",
					"liquidityVault()": "708666ad",
					"maxSupply()": "d5abeb01",
					"name()": "06fdde03",
					"nextHalvingRound()": "1d729c5a",
					"playerCount(uint256)": "2566c9ea",
					"players(uint256,uint256)": "998f1b80",
					"rawFulfillRandomWords(uint256,uint256[])": "1fe543e3",
					"roundId()": "8cd221c9",
					"symbol()": "95d89b41",
					"totalSupply()": "18160ddd",
					"transfer(address,uint256)": "a9059cbb",
					"transferFrom(address,address,uint256)": "23b872dd"
				}
			},
			"storageLayout": {
				"storage": [
					{
						"astId": 159,
						"contract": "contracts/ProofOfClick.sol:POC",
						"label": "_balances",
						"offset": 0,
						"slot": "0",
						"type": "t_mapping(t_address,t_uint256)"
					},
					{
						"astId": 165,
						"contract": "contracts/ProofOfClick.sol:POC",
						"label": "_allowances",
						"offset": 0,
						"slot": "1",
						"type": "t_mapping(t_address,t_mapping(t_address,t_uint256))"
					},
					{
						"astId": 167,
						"contract": "contracts/ProofOfClick.sol:POC",
						"label": "_totalSupply",
						"offset": 0,
						"slot": "2",
						"type": "t_uint256"
					},
					{
						"astId": 169,
						"contract": "contracts/ProofOfClick.sol:POC",
						"label": "_name",
						"offset": 0,
						"slot": "3",
						"type": "t_string_storage"
					},
					{
						"astId": 171,
						"contract": "contracts/ProofOfClick.sol:POC",
						"label": "_symbol",
						"offset": 0,
						"slot": "4",
						"type": "t_string_storage"
					},
					{
						"astId": 1191,
						"contract": "contracts/ProofOfClick.sol:POC",
						"label": "maxSupply",
						"offset": 0,
						"slot": "5",
						"type": "t_uint256"
					},
					{
						"astId": 1193,
						"contract": "contracts/ProofOfClick.sol:POC",
						"label": "currentReward",
						"offset": 0,
						"slot": "6",
						"type": "t_uint256"
					},
					{
						"astId": 1195,
						"contract": "contracts/ProofOfClick.sol:POC",
						"label": "roundId",
						"offset": 0,
						"slot": "7",
						"type": "t_uint256"
					},
					{
						"astId": 1197,
						"contract": "contracts/ProofOfClick.sol:POC",
						"label": "lastHalvingRound",
						"offset": 0,
						"slot": "8",
						"type": "t_uint256"
					},
					{
						"astId": 1199,
						"contract": "contracts/ProofOfClick.sol:POC",
						"label": "lastRoundTs",
						"offset": 0,
						"slot": "9",
						"type": "t_uint256"
					},
					{
						"astId": 1201,
						"contract": "contracts/ProofOfClick.sol:POC",
						"label": "liquidityVault",
						"offset": 0,
						"slot": "10",
						"type": "t_address"
					},
					{
						"astId": 1227,
						"contract": "contracts/ProofOfClick.sol:POC",
						"label": "players",
						"offset": 0,
						"slot": "11",
						"type": "t_mapping(t_uint256,t_mapping(t_uint256,t_address))"
					},
					{
						"astId": 1231,
						"contract": "contracts/ProofOfClick.sol:POC",
						"label": "playerCount",
						"offset": 0,
						"slot": "12",
						"type": "t_mapping(t_uint256,t_uint256)"
					},
					{
						"astId": 1235,
						"contract": "contracts/ProofOfClick.sol:POC",
						"label": "requestToRoundId",
						"offset": 0,
						"slot": "13",
						"type": "t_mapping(t_uint256,t_uint256)"
					},
					{
						"astId": 1239,
						"contract": "contracts/ProofOfClick.sol:POC",
						"label": "rewardPerRound",
						"offset": 0,
						"slot": "14",
						"type": "t_mapping(t_uint256,t_uint256)"
					}
				],
				"types": {
					"t_address": {
						"encoding": "inplace",
						"label": "address",
						"numberOfBytes": "20"
					},
					"t_mapping(t_address,t_mapping(t_address,t_uint256))": {
						"encoding": "mapping",
						"key": "t_address",
						"label": "mapping(address => mapping(address => uint256))",
						"numberOfBytes": "32",
						"value": "t_mapping(t_address,t_uint256)"
					},
					"t_mapping(t_address,t_uint256)": {
						"encoding": "mapping",
						"key": "t_address",
						"label": "mapping(address => uint256)",
						"numberOfBytes": "32",
						"value": "t_uint256"
					},
					"t_mapping(t_uint256,t_address)": {
						"encoding": "mapping",
						"key": "t_uint256",
						"label": "mapping(uint256 => address)",
						"numberOfBytes": "32",
						"value": "t_address"
					},
					"t_mapping(t_uint256,t_mapping(t_uint256,t_address))": {
						"encoding": "mapping",
						"key": "t_uint256",
						"label": "mapping(uint256 => mapping(uint256 => address))",
						"numberOfBytes": "32",
						"value": "t_mapping(t_uint256,t_address)"
					},
					"t_mapping(t_uint256,t_uint256)": {
						"encoding": "mapping",
						"key": "t_uint256",
						"label": "mapping(uint256 => uint256)",
						"numberOfBytes": "32",
						"value": "t_uint256"
					},
					"t_string_storage": {
						"encoding": "bytes",
						"label": "string",
						"numberOfBytes": "32"
					},
					"t_uint256": {
						"encoding": "inplace",
						"label": "uint256",
						"numberOfBytes": "32"
					}
				}
			},
			"userdoc": {
				"kind": "user",
				"methods": {
					"rawFulfillRandomWords(uint256,uint256[])": {
						"notice": "This function can only be called by the VRF coordinator"
					}
				},
				"version": 1
			}
		}
	}
}