{
	"contracts/RussianRoullete.sol": {
		"RussianRoulette": {
			"abi": [
				{
					"inputs": [
						{
							"internalType": "address",
							"name": "vrfCoordinatorAddress",
							"type": "address"
						},
						{
							"internalType": "address",
							"name": "_vaultAddress",
							"type": "address"
						}
					],
					"stateMutability": "nonpayable",
					"type": "constructor"
				},
				{
					"inputs": [],
					"name": "BetNotFound",
					"type": "error"
				},
				{
					"inputs": [],
					"name": "BetTooSmall",
					"type": "error"
				},
				{
					"inputs": [],
					"name": "CannotBeOwnReferrer",
					"type": "error"
				},
				{
					"inputs": [],
					"name": "FailedToTransferStake",
					"type": "error"
				},
				{
					"inputs": [],
					"name": "FeeTooHigh",
					"type": "error"
				},
				{
					"inputs": [],
					"name": "InsufficientPayment",
					"type": "error"
				},
				{
					"inputs": [],
					"name": "InvalidBulletCount",
					"type": "error"
				},
				{
					"inputs": [],
					"name": "NewBPSExceedsMaxLimit",
					"type": "error"
				},
				{
					"inputs": [
						{
							"internalType": "address",
							"name": "sender",
							"type": "address"
						},
						{
							"internalType": "address",
							"name": "coordinator",
							"type": "address"
						}
					],
					"name": "OnlyVRFCoordinator",
					"type": "error"
				},
				{
					"inputs": [
						{
							"internalType": "address",
							"name": "owner",
							"type": "address"
						}
					],
					"name": "OwnableInvalidOwner",
					"type": "error"
				},
				{
					"inputs": [
						{
							"internalType": "address",
							"name": "account",
							"type": "address"
						}
					],
					"name": "OwnableUnauthorizedAccount",
					"type": "error"
				},
				{
					"inputs": [],
					"name": "PayoutExceedsLimit",
					"type": "error"
				},
				{
					"inputs": [],
					"name": "ReferralCodeAlreadyExists",
					"type": "error"
				},
				{
					"inputs": [],
					"name": "ReferralCodeNotFound",
					"type": "error"
				},
				{
					"inputs": [],
					"name": "ReferrerAlreadySet",
					"type": "error"
				},
				{
					"inputs": [],
					"name": "UserAlreadyHasCode",
					"type": "error"
				},
				{
					"anonymous": false,
					"inputs": [
						{
							"indexed": true,
							"internalType": "uint256",
							"name": "requestId",
							"type": "uint256"
						},
						{
							"indexed": true,
							"internalType": "address",
							"name": "player",
							"type": "address"
						},
						{
							"indexed": false,
							"internalType": "uint256",
							"name": "amount",
							"type": "uint256"
						},
						{
							"indexed": false,
							"internalType": "uint8",
							"name": "bullets",
							"type": "uint8"
						}
					],
					"name": "BetPlaced",
					"type": "event"
				},
				{
					"anonymous": false,
					"inputs": [
						{
							"indexed": true,
							"internalType": "uint256",
							"name": "requestId",
							"type": "uint256"
						},
						{
							"indexed": true,
							"internalType": "address",
							"name": "player",
							"type": "address"
						},
						{
							"indexed": false,
							"internalType": "bool",
							"name": "alive",
							"type": "bool"
						},
						{
							"indexed": false,
							"internalType": "uint256",
							"name": "spin",
							"type": "uint256"
						},
						{
							"indexed": false,
							"internalType": "uint256",
							"name": "amount",
							"type": "uint256"
						},
						{
							"indexed": false,
							"internalType": "uint256",
							"name": "payout",
							"type": "uint256"
						}
					],
					"name": "BetResult",
					"type": "event"
				},
				{
					"anonymous": false,
					"inputs": [
						{
							"indexed": true,
							"internalType": "address",
							"name": "previousOwner",
							"type": "address"
						},
						{
							"indexed": true,
							"internalType": "address",
							"name": "newOwner",
							"type": "address"
						}
					],
					"name": "OwnershipTransferred",
					"type": "event"
				},
				{
					"inputs": [],
					"name": "CALLBACK_GAS_LIMIT",
					"outputs": [
						{
							"internalType": "uint32",
							"name": "",
							"type": "uint32"
						}
					],
					"stateMutability": "view",
					"type": "function"
				},
				{
					"inputs": [],
					"name": "MAX_HOUSE_FEE_BPS",
					"outputs": [
						{
							"internalType": "uint256",
							"name": "",
							"type": "uint256"
						}
					],
					"stateMutability": "view",
					"type": "function"
				},
				{
					"inputs": [],
					"name": "MAX_PAYOUT_BPS",
					"outputs": [
						{
							"internalType": "uint256",
							"name": "",
							"type": "uint256"
						}
					],
					"stateMutability": "view",
					"type": "function"
				},
				{
					"inputs": [
						{
							"internalType": "bytes32",
							"name": "_code",
							"type": "bytes32"
						}
					],
					"name": "applyReferralCode",
					"outputs": [],
					"stateMutability": "nonpayable",
					"type": "function"
				},
				{
					"inputs": [
						{
							"internalType": "uint8",
							"name": "bullets",
							"type": "uint8"
						}
					],
					"name": "bet",
					"outputs": [
						{
							"internalType": "uint256",
							"name": "requestId",
							"type": "uint256"
						}
					],
					"stateMutability": "payable",
					"type": "function"
				},
				{
					"inputs": [
						{
							"internalType": "uint256",
							"name": "",
							"type": "uint256"
						}
					],
					"name": "bets",
					"outputs": [
						{
							"internalType": "address",
							"name": "player",
							"type": "address"
						},
						{
							"internalType": "uint256",
							"name": "amount",
							"type": "uint256"
						},
						{
							"internalType": "uint8",
							"name": "bullets",
							"type": "uint8"
						}
					],
					"stateMutability": "view",
					"type": "function"
				},
				{
					"inputs": [
						{
							"internalType": "bytes32",
							"name": "_code",
							"type": "bytes32"
						}
					],
					"name": "createReferralCode",
					"outputs": [],
					"stateMutability": "nonpayable",
					"type": "function"
				},
				{
					"inputs": [
						{
							"internalType": "bytes32",
							"name": "_code",
							"type": "bytes32"
						}
					],
					"name": "getAddressByCode",
					"outputs": [
						{
							"internalType": "address",
							"name": "",
							"type": "address"
						}
					],
					"stateMutability": "view",
					"type": "function"
				},
				{
					"inputs": [
						{
							"internalType": "address",
							"name": "_user",
							"type": "address"
						}
					],
					"name": "getReferralCodeOf",
					"outputs": [
						{
							"internalType": "bytes32",
							"name": "",
							"type": "bytes32"
						}
					],
					"stateMutability": "view",
					"type": "function"
				},
				{
					"inputs": [
						{
							"internalType": "address",
							"name": "_user",
							"type": "address"
						}
					],
					"name": "getReferrerOf",
					"outputs": [
						{
							"internalType": "address",
							"name": "",
							"type": "address"
						}
					],
					"stateMutability": "view",
					"type": "function"
				},
				{
					"inputs": [],
					"name": "houseFeeBps",
					"outputs": [
						{
							"internalType": "uint256",
							"name": "",
							"type": "uint256"
						}
					],
					"stateMutability": "view",
					"type": "function"
				},
				{
					"inputs": [],
					"name": "liquidityVault",
					"outputs": [
						{
							"internalType": "contract ILiquidityVault",
							"name": "",
							"type": "address"
						}
					],
					"stateMutability": "view",
					"type": "function"
				},
				{
					"inputs": [],
					"name": "maxPayoutBps",
					"outputs": [
						{
							"internalType": "uint256",
							"name": "",
							"type": "uint256"
						}
					],
					"stateMutability": "view",
					"type": "function"
				},
				{
					"inputs": [],
					"name": "owner",
					"outputs": [
						{
							"internalType": "address",
							"name": "",
							"type": "address"
						}
					],
					"stateMutability": "view",
					"type": "function"
				},
				{
					"inputs": [
						{
							"internalType": "address",
							"name": "",
							"type": "address"
						}
					],
					"name": "playerInfo",
					"outputs": [
						{
							"internalType": "uint256",
							"name": "totalBetsAmount",
							"type": "uint256"
						},
						{
							"internalType": "uint256",
							"name": "totalPayout",
							"type": "uint256"
						},
						{
							"internalType": "uint256",
							"name": "totalGamesPlayed",
							"type": "uint256"
						},
						{
							"internalType": "uint256",
							"name": "totalGamesWon",
							"type": "uint256"
						},
						{
							"internalType": "uint256",
							"name": "totalReferrals",
							"type": "uint256"
						}
					],
					"stateMutability": "view",
					"type": "function"
				},
				{
					"inputs": [
						{
							"internalType": "uint256",
							"name": "requestId",
							"type": "uint256"
						},
						{
							"internalType": "uint256[]",
							"name": "randomWords",
							"type": "uint256[]"
						}
					],
					"name": "rawFulfillRandomWords",
					"outputs": [],
					"stateMutability": "nonpayable",
					"type": "function"
				},
				{
					"inputs": [
						{
							"internalType": "address",
							"name": "",
							"type": "address"
						}
					],
					"name": "referralCodeOf",
					"outputs": [
						{
							"internalType": "bytes32",
							"name": "",
							"type": "bytes32"
						}
					],
					"stateMutability": "view",
					"type": "function"
				},
				{
					"inputs": [
						{
							"internalType": "bytes32",
							"name": "",
							"type": "bytes32"
						}
					],
					"name": "referralCodeOwner",
					"outputs": [
						{
							"internalType": "address",
							"name": "",
							"type": "address"
						}
					],
					"stateMutability": "view",
					"type": "function"
				},
				{
					"inputs": [
						{
							"internalType": "address",
							"name": "",
							"type": "address"
						}
					],
					"name": "referrerOf",
					"outputs": [
						{
							"internalType": "address",
							"name": "",
							"type": "address"
						}
					],
					"stateMutability": "view",
					"type": "function"
				},
				{
					"inputs": [],
					"name": "renounceOwnership",
					"outputs": [],
					"stateMutability": "nonpayable",
					"type": "function"
				},
				{
					"inputs": [
						{
							"internalType": "uint256",
							"name": "_newFeeBps",
							"type": "uint256"
						}
					],
					"name": "setHouseFee",
					"outputs": [],
					"stateMutability": "nonpayable",
					"type": "function"
				},
				{
					"inputs": [
						{
							"internalType": "uint256",
							"name": "_newBps",
							"type": "uint256"
						}
					],
					"name": "setMaxPayoutBps",
					"outputs": [],
					"stateMutability": "nonpayable",
					"type": "function"
				},
				{
					"inputs": [],
					"name": "totalBets",
					"outputs": [
						{
							"internalType": "uint256",
							"name": "",
							"type": "uint256"
						}
					],
					"stateMutability": "view",
					"type": "function"
				},
				{
					"inputs": [],
					"name": "totalGamesPlayed",
					"outputs": [
						{
							"internalType": "uint256",
							"name": "",
							"type": "uint256"
						}
					],
					"stateMutability": "view",
					"type": "function"
				},
				{
					"inputs": [],
					"name": "totalGamesWon",
					"outputs": [
						{
							"internalType": "uint256",
							"name": "",
							"type": "uint256"
						}
					],
					"stateMutability": "view",
					"type": "function"
				},
				{
					"inputs": [],
					"name": "totalPayout",
					"outputs": [
						{
							"internalType": "uint256",
							"name": "",
							"type": "uint256"
						}
					],
					"stateMutability": "view",
					"type": "function"
				},
				{
					"inputs": [
						{
							"internalType": "address",
							"name": "newOwner",
							"type": "address"
						}
					],
					"name": "transferOwnership",
					"outputs": [],
					"stateMutability": "nonpayable",
					"type": "function"
				}
			],
			"devdoc": {
				"errors": {
					"OnlyVRFCoordinator(address,address)": [
						{
							"details": "Error thrown when a function restricted to the VRF coordinator is called by another address",
							"params": {
								"coordinator": "The address of the authorized VRF coordinator",
								"sender": "The address that attempted to call the function"
							}
						}
					],
					"OwnableInvalidOwner(address)": [
						{
							"details": "The owner is not a valid owner account. (eg. `address(0)`)"
						}
					],
					"OwnableUnauthorizedAccount(address)": [
						{
							"details": "The caller account is not authorized to perform an operation."
						}
					]
				},
				"kind": "dev",
				"methods": {
					"owner()": {
						"details": "Returns the address of the current owner."
					},
					"rawFulfillRandomWords(uint256,uint256[])": {
						"details": "Callback function called by the VRF coordinator to deliver random wordsSpecial care should be taken when overriding this function. Use `_fulfillRandomWords()` instead.",
						"params": {
							"randomWords": "The array of random words for the request",
							"requestId": "The ID of the request to which these random words belong"
						}
					},
					"renounceOwnership()": {
						"details": "Leaves the contract without owner. It will not be possible to call `onlyOwner` functions. Can only be called by the current owner. NOTE: Renouncing ownership will leave the contract without an owner, thereby disabling any functionality that is only available to the owner."
					},
					"transferOwnership(address)": {
						"details": "Transfers ownership of the contract to a new account (`newOwner`). Can only be called by the current owner."
					}
				},
				"version": 1
			},
			"evm": {
				"assembly": "    /* \"contracts/RussianRoullete.sol\":997:7504  contract RussianRoulette is PaintswapVRFConsumer, Ownable, ReentrancyGuard {... */\n  mstore(0x40, 0xa0)\n    /* \"contracts/RussianRoullete.sol\":1946:1949  500 */\n  0x01f4\n    /* \"contracts/RussianRoullete.sol\":1917:1949  uint256 public houseFeeBps = 500 */\n  0x08\n  sstore\n    /* \"contracts/RussianRoullete.sol\":2105:2109  1000 */\n  0x03e8\n    /* \"contracts/RussianRoullete.sol\":2075:2109  uint256 public maxPayoutBps = 1000 */\n  0x09\n  sstore\n    /* \"contracts/RussianRoullete.sol\":2314:2510  constructor(address vrfCoordinatorAddress, address _vaultAddress) PaintswapVRFConsumer(vrfCoordinatorAddress) Ownable(msg.sender) {... */\n  callvalue\n  dup1\n  iszero\n  tag_1\n  jumpi\n  revert(0x00, 0x00)\ntag_1:\n  pop\n  mload(0x40)\n  sub(codesize, bytecodeSize)\n  dup1\n  bytecodeSize\n  dup4\n  codecopy\n  dup2\n  dup2\n  add\n  0x40\n  mstore\n  dup2\n  add\n  swap1\n  tag_2\n  swap2\n  swap1\n  tag_3\n  jump\t// in\ntag_2:\n    /* \"contracts/RussianRoullete.sol\":2432:2442  msg.sender */\n  caller\n    /* \"contracts/RussianRoullete.sol\":2401:2422  vrfCoordinatorAddress */\n  dup3\n    /* \"@paintswap/vrf/contracts/PaintswapVRFConsumer.sol\":1653:1667  vrfCoordinator */\n  dup1\n    /* \"@paintswap/vrf/contracts/PaintswapVRFConsumer.sol\":1610:1668  _vrfCoordinator = IPaintswapVRFCoordinator(vrfCoordinator) */\n  0xffffffffffffffffffffffffffffffffffffffff\n  and\n  0x80\n  dup2\n  0xffffffffffffffffffffffffffffffffffffffff\n  and\n  dup2\n  mstore\n  pop\n  pop\n    /* \"@paintswap/vrf/contracts/PaintswapVRFConsumer.sol\":1568:1673  constructor(address vrfCoordinator) {... */\n  pop\n    /* \"@openzeppelin/contracts/access/Ownable.sol\":1297:1298  0 */\n  0x00\n    /* \"@openzeppelin/contracts/access/Ownable.sol\":1273:1299  initialOwner == address(0) */\n  0xffffffffffffffffffffffffffffffffffffffff\n  and\n    /* \"@openzeppelin/contracts/access/Ownable.sol\":1273:1285  initialOwner */\n  dup2\n    /* \"@openzeppelin/contracts/access/Ownable.sol\":1273:1299  initialOwner == address(0) */\n  0xffffffffffffffffffffffffffffffffffffffff\n  and\n  sub\n    /* \"@openzeppelin/contracts/access/Ownable.sol\":1269:1364  if (initialOwner == address(0)) {... */\n  tag_10\n  jumpi\n    /* \"@openzeppelin/contracts/access/Ownable.sol\":1350:1351  0 */\n  0x00\n    /* \"@openzeppelin/contracts/access/Ownable.sol\":1322:1353  OwnableInvalidOwner(address(0)) */\n  mload(0x40)\n  0x1e4fbdf700000000000000000000000000000000000000000000000000000000\n  dup2\n  mstore\n  0x04\n  add\n  tag_11\n  swap2\n  swap1\n  tag_12\n  jump\t// in\ntag_11:\n  mload(0x40)\n  dup1\n  swap2\n  sub\n  swap1\n  revert\n    /* \"@openzeppelin/contracts/access/Ownable.sol\":1269:1364  if (initialOwner == address(0)) {... */\ntag_10:\n    /* \"@openzeppelin/contracts/access/Ownable.sol\":1373:1405  _transferOwnership(initialOwner) */\n  tag_13\n    /* \"@openzeppelin/contracts/access/Ownable.sol\":1392:1404  initialOwner */\n  dup2\n    /* \"@openzeppelin/contracts/access/Ownable.sol\":1373:1391  _transferOwnership */\n  shl(0x20, tag_14)\n    /* \"@openzeppelin/contracts/access/Ownable.sol\":1373:1405  _transferOwnership(initialOwner) */\n  0x20\n  shr\n  jump\t// in\ntag_13:\n    /* \"@openzeppelin/contracts/access/Ownable.sol\":1225:1412  constructor(address initialOwner) {... */\n  pop\n    /* \"@openzeppelin/contracts/security/ReentrancyGuard.sol\":1716:1717  1 */\n  0x01\n    /* \"@openzeppelin/contracts/security/ReentrancyGuard.sol\":1821:1828  _status */\n  dup1\n    /* \"@openzeppelin/contracts/security/ReentrancyGuard.sol\":1821:1843  _status = _NOT_ENTERED */\n  dup2\n  swap1\n  sstore\n  pop\n    /* \"contracts/RussianRoullete.sol\":2488:2501  _vaultAddress */\n  dup1\n    /* \"contracts/RussianRoullete.sol\":2455:2469  liquidityVault */\n  0x02\n  0x00\n    /* \"contracts/RussianRoullete.sol\":2455:2502  liquidityVault = ILiquidityVault(_vaultAddress) */\n  0x0100\n  exp\n  dup2\n  sload\n  dup2\n  0xffffffffffffffffffffffffffffffffffffffff\n  mul\n  not\n  and\n  swap1\n  dup4\n  0xffffffffffffffffffffffffffffffffffffffff\n  and\n  mul\n  or\n  swap1\n  sstore\n  pop\n    /* \"contracts/RussianRoullete.sol\":2314:2510  constructor(address vrfCoordinatorAddress, address _vaultAddress) PaintswapVRFConsumer(vrfCoordinatorAddress) Ownable(msg.sender) {... */\n  pop\n  pop\n    /* \"contracts/RussianRoullete.sol\":997:7504  contract RussianRoulette is PaintswapVRFConsumer, Ownable, ReentrancyGuard {... */\n  jump(tag_17)\n    /* \"@openzeppelin/contracts/access/Ownable.sol\":2912:3099  function _transferOwnership(address newOwner) internal virtual {... */\ntag_14:\n    /* \"@openzeppelin/contracts/access/Ownable.sol\":2985:3001  address oldOwner */\n  0x00\n    /* \"@openzeppelin/contracts/access/Ownable.sol\":3004:3010  _owner */\n  0x00\n  0x00\n  swap1\n  sload\n  swap1\n  0x0100\n  exp\n  swap1\n  div\n  0xffffffffffffffffffffffffffffffffffffffff\n  and\n    /* \"@openzeppelin/contracts/access/Ownable.sol\":2985:3010  address oldOwner = _owner */\n  swap1\n  pop\n    /* \"@openzeppelin/contracts/access/Ownable.sol\":3029:3037  newOwner */\n  dup2\n    /* \"@openzeppelin/contracts/access/Ownable.sol\":3020:3026  _owner */\n  0x00\n  0x00\n    /* \"@openzeppelin/contracts/access/Ownable.sol\":3020:3037  _owner = newOwner */\n  0x0100\n  exp\n  dup2\n  sload\n  dup2\n  0xffffffffffffffffffffffffffffffffffffffff\n  mul\n  not\n  and\n  swap1\n  dup4\n  0xffffffffffffffffffffffffffffffffffffffff\n  and\n  mul\n  or\n  swap1\n  sstore\n  pop\n    /* \"@openzeppelin/contracts/access/Ownable.sol\":3083:3091  newOwner */\n  dup2\n    /* \"@openzeppelin/contracts/access/Ownable.sol\":3052:3092  OwnershipTransferred(oldOwner, newOwner) */\n  0xffffffffffffffffffffffffffffffffffffffff\n  and\n    /* \"@openzeppelin/contracts/access/Ownable.sol\":3073:3081  oldOwner */\n  dup2\n    /* \"@openzeppelin/contracts/access/Ownable.sol\":3052:3092  OwnershipTransferred(oldOwner, newOwner) */\n  0xffffffffffffffffffffffffffffffffffffffff\n  and\n  0x8be0079c531659141344cd1fd0a4f28419497f9722a3daafe3b4186f6b6457e0\n  mload(0x40)\n  mload(0x40)\n  dup1\n  swap2\n  sub\n  swap1\n  log3\n    /* \"@openzeppelin/contracts/access/Ownable.sol\":2975:3099  {... */\n  pop\n    /* \"@openzeppelin/contracts/access/Ownable.sol\":2912:3099  function _transferOwnership(address newOwner) internal virtual {... */\n  pop\n  jump\t// out\n    /* \"#utility.yul\":88:205   */\ntag_20:\n    /* \"#utility.yul\":197:198   */\n  0x00\n    /* \"#utility.yul\":194:195   */\n  0x00\n    /* \"#utility.yul\":187:199   */\n  revert\n    /* \"#utility.yul\":334:460   */\ntag_22:\n    /* \"#utility.yul\":371:378   */\n  0x00\n    /* \"#utility.yul\":411:453   */\n  0xffffffffffffffffffffffffffffffffffffffff\n    /* \"#utility.yul\":404:409   */\n  dup3\n    /* \"#utility.yul\":400:454   */\n  and\n    /* \"#utility.yul\":389:454   */\n  swap1\n  pop\n    /* \"#utility.yul\":334:460   */\n  swap2\n  swap1\n  pop\n  jump\t// out\n    /* \"#utility.yul\":466:562   */\ntag_23:\n    /* \"#utility.yul\":503:510   */\n  0x00\n    /* \"#utility.yul\":532:556   */\n  tag_33\n    /* \"#utility.yul\":550:555   */\n  dup3\n    /* \"#utility.yul\":532:556   */\n  tag_22\n  jump\t// in\ntag_33:\n    /* \"#utility.yul\":521:556   */\n  swap1\n  pop\n    /* \"#utility.yul\":466:562   */\n  swap2\n  swap1\n  pop\n  jump\t// out\n    /* \"#utility.yul\":568:690   */\ntag_24:\n    /* \"#utility.yul\":641:665   */\n  tag_35\n    /* \"#utility.yul\":659:664   */\n  dup2\n    /* \"#utility.yul\":641:665   */\n  tag_23\n  jump\t// in\ntag_35:\n    /* \"#utility.yul\":634:639   */\n  dup2\n    /* \"#utility.yul\":631:666   */\n  eq\n    /* \"#utility.yul\":621:684   */\n  tag_36\n  jumpi\n    /* \"#utility.yul\":680:681   */\n  0x00\n    /* \"#utility.yul\":677:678   */\n  0x00\n    /* \"#utility.yul\":670:682   */\n  revert\n    /* \"#utility.yul\":621:684   */\ntag_36:\n    /* \"#utility.yul\":568:690   */\n  pop\n  jump\t// out\n    /* \"#utility.yul\":696:839   */\ntag_25:\n    /* \"#utility.yul\":753:758   */\n  0x00\n    /* \"#utility.yul\":784:790   */\n  dup2\n    /* \"#utility.yul\":778:791   */\n  mload\n    /* \"#utility.yul\":769:791   */\n  swap1\n  pop\n    /* \"#utility.yul\":800:833   */\n  tag_38\n    /* \"#utility.yul\":827:832   */\n  dup2\n    /* \"#utility.yul\":800:833   */\n  tag_24\n  jump\t// in\ntag_38:\n    /* \"#utility.yul\":696:839   */\n  swap3\n  swap2\n  pop\n  pop\n  jump\t// out\n    /* \"#utility.yul\":845:1352   */\ntag_3:\n    /* \"#utility.yul\":924:930   */\n  0x00\n    /* \"#utility.yul\":932:938   */\n  0x00\n    /* \"#utility.yul\":981:983   */\n  0x40\n    /* \"#utility.yul\":969:978   */\n  dup4\n    /* \"#utility.yul\":960:967   */\n  dup6\n    /* \"#utility.yul\":956:979   */\n  sub\n    /* \"#utility.yul\":952:984   */\n  slt\n    /* \"#utility.yul\":949:1068   */\n  iszero\n  tag_40\n  jumpi\n    /* \"#utility.yul\":987:1066   */\n  tag_41\n  tag_20\n  jump\t// in\ntag_41:\n    /* \"#utility.yul\":949:1068   */\ntag_40:\n    /* \"#utility.yul\":1107:1108   */\n  0x00\n    /* \"#utility.yul\":1132:1196   */\n  tag_42\n    /* \"#utility.yul\":1188:1195   */\n  dup6\n    /* \"#utility.yul\":1179:1185   */\n  dup3\n    /* \"#utility.yul\":1168:1177   */\n  dup7\n    /* \"#utility.yul\":1164:1186   */\n  add\n    /* \"#utility.yul\":1132:1196   */\n  tag_25\n  jump\t// in\ntag_42:\n    /* \"#utility.yul\":1122:1196   */\n  swap3\n  pop\n    /* \"#utility.yul\":1078:1206   */\n  pop\n    /* \"#utility.yul\":1245:1247   */\n  0x20\n    /* \"#utility.yul\":1271:1335   */\n  tag_43\n    /* \"#utility.yul\":1327:1334   */\n  dup6\n    /* \"#utility.yul\":1318:1324   */\n  dup3\n    /* \"#utility.yul\":1307:1316   */\n  dup7\n    /* \"#utility.yul\":1303:1325   */\n  add\n    /* \"#utility.yul\":1271:1335   */\n  tag_25\n  jump\t// in\ntag_43:\n    /* \"#utility.yul\":1261:1335   */\n  swap2\n  pop\n    /* \"#utility.yul\":1216:1345   */\n  pop\n    /* \"#utility.yul\":845:1352   */\n  swap3\n  pop\n  swap3\n  swap1\n  pop\n  jump\t// out\n    /* \"#utility.yul\":1358:1476   */\ntag_26:\n    /* \"#utility.yul\":1445:1469   */\n  tag_45\n    /* \"#utility.yul\":1463:1468   */\n  dup2\n    /* \"#utility.yul\":1445:1469   */\n  tag_23\n  jump\t// in\ntag_45:\n    /* \"#utility.yul\":1440:1443   */\n  dup3\n    /* \"#utility.yul\":1433:1470   */\n  mstore\n    /* \"#utility.yul\":1358:1476   */\n  pop\n  pop\n  jump\t// out\n    /* \"#utility.yul\":1482:1704   */\ntag_12:\n    /* \"#utility.yul\":1575:1579   */\n  0x00\n    /* \"#utility.yul\":1613:1615   */\n  0x20\n    /* \"#utility.yul\":1602:1611   */\n  dup3\n    /* \"#utility.yul\":1598:1616   */\n  add\n    /* \"#utility.yul\":1590:1616   */\n  swap1\n  pop\n    /* \"#utility.yul\":1626:1697   */\n  tag_47\n    /* \"#utility.yul\":1694:1695   */\n  0x00\n    /* \"#utility.yul\":1683:1692   */\n  dup4\n    /* \"#utility.yul\":1679:1696   */\n  add\n    /* \"#utility.yul\":1670:1676   */\n  dup5\n    /* \"#utility.yul\":1626:1697   */\n  tag_26\n  jump\t// in\ntag_47:\n    /* \"#utility.yul\":1482:1704   */\n  swap3\n  swap2\n  pop\n  pop\n  jump\t// out\n    /* \"contracts/RussianRoullete.sol\":997:7504  contract RussianRoulette is PaintswapVRFConsumer, Ownable, ReentrancyGuard {... */\ntag_17:\n  mload(0x80)\n  codecopy(0x00, dataOffset(sub_0), dataSize(sub_0))\n  0x00\n  assignImmutable(\"0xbebb351b5cf10820d8521e899df75c3dc4c8d740dcf450f315119f5c837945c0\")\n  return(0x00, dataSize(sub_0))\nstop\n\nsub_0: assembly {\n        /* \"contracts/RussianRoullete.sol\":997:7504  contract RussianRoulette is PaintswapVRFConsumer, Ownable, ReentrancyGuard {... */\n      mstore(0x40, 0x80)\n      jumpi(tag_1, lt(calldatasize, 0x04))\n      shr(0xe0, calldataload(0x00))\n      dup1\n      0xbc7f25e4\n      gt\n      tag_29\n      jumpi\n      dup1\n      0xd69fd7b9\n      gt\n      tag_30\n      jumpi\n      dup1\n      0xee59d240\n      gt\n      tag_31\n      jumpi\n      dup1\n      0xee59d240\n      eq\n      tag_25\n      jumpi\n      dup1\n      0xf2fde38b\n      eq\n      tag_26\n      jumpi\n      dup1\n      0xf379469b\n      eq\n      tag_27\n      jumpi\n      dup1\n      0xf68017cd\n      eq\n      tag_28\n      jumpi\n      jump(tag_1)\n    tag_31:\n      dup1\n      0xd69fd7b9\n      eq\n      tag_22\n      jumpi\n      dup1\n      0xe231b0ef\n      eq\n      tag_23\n      jumpi\n      dup1\n      0xe27ff2ba\n      eq\n      tag_24\n      jumpi\n      jump(tag_1)\n    tag_30:\n      dup1\n      0xc32b5373\n      gt\n      tag_32\n      jumpi\n      dup1\n      0xc32b5373\n      eq\n      tag_18\n      jumpi\n      dup1\n      0xc4f343fd\n      eq\n      tag_19\n      jumpi\n      dup1\n      0xd0821b0e\n      eq\n      tag_20\n      jumpi\n      dup1\n      0xd21cacdf\n      eq\n      tag_21\n      jumpi\n      jump(tag_1)\n    tag_32:\n      dup1\n      0xbc7f25e4\n      eq\n      tag_15\n      jumpi\n      dup1\n      0xbdcf1753\n      eq\n      tag_16\n      jumpi\n      dup1\n      0xbefa1e2f\n      eq\n      tag_17\n      jumpi\n      jump(tag_1)\n    tag_29:\n      dup1\n      0x4b114691\n      gt\n      tag_33\n      jumpi\n      dup1\n      0x708666ad\n      gt\n      tag_34\n      jumpi\n      dup1\n      0x708666ad\n      eq\n      tag_11\n      jumpi\n      dup1\n      0x715018a6\n      eq\n      tag_12\n      jumpi\n      dup1\n      0x8da5cb5b\n      eq\n      tag_13\n      jumpi\n      dup1\n      0xbc6e8020\n      eq\n      tag_14\n      jumpi\n      jump(tag_1)\n    tag_34:\n      dup1\n      0x4b114691\n      eq\n      tag_8\n      jumpi\n      dup1\n      0x5a09f2f4\n      eq\n      tag_9\n      jumpi\n      dup1\n      0x5c492129\n      eq\n      tag_10\n      jumpi\n      jump(tag_1)\n    tag_33:\n      dup1\n      0x1fe543e3\n      eq\n      tag_2\n      jumpi\n      dup1\n      0x22af00fa\n      eq\n      tag_3\n      jumpi\n      dup1\n      0x30330615\n      eq\n      tag_4\n      jumpi\n      dup1\n      0x33d608f1\n      eq\n      tag_5\n      jumpi\n      dup1\n      0x44af2edb\n      eq\n      tag_6\n      jumpi\n      dup1\n      0x454f7b8f\n      eq\n      tag_7\n      jumpi\n    tag_1:\n      revert(0x00, 0x00)\n        /* \"@paintswap/vrf/contracts/PaintswapVRFConsumer.sol\":3923:4105  function rawFulfillRandomWords(... */\n    tag_2:\n      callvalue\n      dup1\n      iszero\n      tag_35\n      jumpi\n      revert(0x00, 0x00)\n    tag_35:\n      pop\n      tag_36\n      0x04\n      dup1\n      calldatasize\n      sub\n      dup2\n      add\n      swap1\n      tag_37\n      swap2\n      swap1\n      tag_38\n      jump\t// in\n    tag_37:\n      tag_39\n      jump\t// in\n    tag_36:\n      stop\n        /* \"contracts/RussianRoullete.sol\":1655:1690  mapping(uint256 => Bet) public bets */\n    tag_3:\n      callvalue\n      dup1\n      iszero\n      tag_40\n      jumpi\n      revert(0x00, 0x00)\n    tag_40:\n      pop\n      tag_41\n      0x04\n      dup1\n      calldatasize\n      sub\n      dup2\n      add\n      swap1\n      tag_42\n      swap2\n      swap1\n      tag_43\n      jump\t// in\n    tag_42:\n      tag_44\n      jump\t// in\n    tag_41:\n      mload(0x40)\n      tag_45\n      swap4\n      swap3\n      swap2\n      swap1\n      tag_46\n      jump\t// in\n    tag_45:\n      mload(0x40)\n      dup1\n      swap2\n      sub\n      swap1\n      return\n        /* \"contracts/RussianRoullete.sol\":6201:6579  function createReferralCode(bytes32 _code) public {... */\n    tag_4:\n      callvalue\n      dup1\n      iszero\n      tag_47\n      jumpi\n      revert(0x00, 0x00)\n    tag_47:\n      pop\n      tag_48\n      0x04\n      dup1\n      calldatasize\n      sub\n      dup2\n      add\n      swap1\n      tag_49\n      swap2\n      swap1\n      tag_50\n      jump\t// in\n    tag_49:\n      tag_51\n      jump\t// in\n    tag_48:\n      stop\n        /* \"contracts/RussianRoullete.sol\":2017:2068  uint32 public constant CALLBACK_GAS_LIMIT = 200_000 */\n    tag_5:\n      callvalue\n      dup1\n      iszero\n      tag_52\n      jumpi\n      revert(0x00, 0x00)\n    tag_52:\n      pop\n      tag_53\n      tag_54\n      jump\t// in\n    tag_53:\n      mload(0x40)\n      tag_55\n      swap2\n      swap1\n      tag_56\n      jump\t// in\n    tag_55:\n      mload(0x40)\n      dup1\n      swap2\n      sub\n      swap1\n      return\n        /* \"contracts/RussianRoullete.sol\":1756:1805  mapping(address => bytes32) public referralCodeOf */\n    tag_6:\n      callvalue\n      dup1\n      iszero\n      tag_57\n      jumpi\n      revert(0x00, 0x00)\n    tag_57:\n      pop\n      tag_58\n      0x04\n      dup1\n      calldatasize\n      sub\n      dup2\n      add\n      swap1\n      tag_59\n      swap2\n      swap1\n      tag_60\n      jump\t// in\n    tag_59:\n      tag_61\n      jump\t// in\n    tag_58:\n      mload(0x40)\n      tag_62\n      swap2\n      swap1\n      tag_63\n      jump\t// in\n    tag_62:\n      mload(0x40)\n      dup1\n      swap2\n      sub\n      swap1\n      return\n        /* \"contracts/RussianRoullete.sol\":2206:2232  uint256 public totalPayout */\n    tag_7:\n      callvalue\n      dup1\n      iszero\n      tag_64\n      jumpi\n      revert(0x00, 0x00)\n    tag_64:\n      pop\n      tag_65\n      tag_66\n      jump\t// in\n    tag_65:\n      mload(0x40)\n      tag_67\n      swap2\n      swap1\n      tag_68\n      jump\t// in\n    tag_67:\n      mload(0x40)\n      dup1\n      swap2\n      sub\n      swap1\n      return\n        /* \"contracts/RussianRoullete.sol\":1864:1908  mapping(address => Player) public playerInfo */\n    tag_8:\n      callvalue\n      dup1\n      iszero\n      tag_69\n      jumpi\n      revert(0x00, 0x00)\n    tag_69:\n      pop\n      tag_70\n      0x04\n      dup1\n      calldatasize\n      sub\n      dup2\n      add\n      swap1\n      tag_71\n      swap2\n      swap1\n      tag_60\n      jump\t// in\n    tag_71:\n      tag_72\n      jump\t// in\n    tag_70:\n      mload(0x40)\n      tag_73\n      swap6\n      swap5\n      swap4\n      swap3\n      swap2\n      swap1\n      tag_74\n      jump\t// in\n    tag_73:\n      mload(0x40)\n      dup1\n      swap2\n      sub\n      swap1\n      return\n        /* \"contracts/RussianRoullete.sol\":5791:5986  function setHouseFee(uint256 _newFeeBps) external onlyOwner {... */\n    tag_9:\n      callvalue\n      dup1\n      iszero\n      tag_75\n      jumpi\n      revert(0x00, 0x00)\n    tag_75:\n      pop\n      tag_76\n      0x04\n      dup1\n      calldatasize\n      sub\n      dup2\n      add\n      swap1\n      tag_77\n      swap2\n      swap1\n      tag_43\n      jump\t// in\n    tag_77:\n      tag_78\n      jump\t// in\n    tag_76:\n      stop\n        /* \"contracts/RussianRoullete.sol\":2239:2270  uint256 public totalGamesPlayed */\n    tag_10:\n      callvalue\n      dup1\n      iszero\n      tag_79\n      jumpi\n      revert(0x00, 0x00)\n    tag_79:\n      pop\n      tag_80\n      tag_81\n      jump\t// in\n    tag_80:\n      mload(0x40)\n      tag_82\n      swap2\n      swap1\n      tag_68\n      jump\t// in\n    tag_82:\n      mload(0x40)\n      dup1\n      swap2\n      sub\n      swap1\n      return\n        /* \"contracts/RussianRoullete.sol\":1079:1116  ILiquidityVault public liquidityVault */\n    tag_11:\n      callvalue\n      dup1\n      iszero\n      tag_83\n      jumpi\n      revert(0x00, 0x00)\n    tag_83:\n      pop\n      tag_84\n      tag_85\n      jump\t// in\n    tag_84:\n      mload(0x40)\n      tag_86\n      swap2\n      swap1\n      tag_87\n      jump\t// in\n    tag_86:\n      mload(0x40)\n      dup1\n      swap2\n      sub\n      swap1\n      return\n        /* \"@openzeppelin/contracts/access/Ownable.sol\":2293:2394  function renounceOwnership() public virtual onlyOwner {... */\n    tag_12:\n      callvalue\n      dup1\n      iszero\n      tag_88\n      jumpi\n      revert(0x00, 0x00)\n    tag_88:\n      pop\n      tag_89\n      tag_90\n      jump\t// in\n    tag_89:\n      stop\n        /* \"@openzeppelin/contracts/access/Ownable.sol\":1638:1723  function owner() public view virtual returns (address) {... */\n    tag_13:\n      callvalue\n      dup1\n      iszero\n      tag_91\n      jumpi\n      revert(0x00, 0x00)\n    tag_91:\n      pop\n      tag_92\n      tag_93\n      jump\t// in\n    tag_92:\n      mload(0x40)\n      tag_94\n      swap2\n      swap1\n      tag_95\n      jump\t// in\n    tag_94:\n      mload(0x40)\n      dup1\n      swap2\n      sub\n      swap1\n      return\n        /* \"contracts/RussianRoullete.sol\":6587:7133  function applyReferralCode(bytes32 _code) public {... */\n    tag_14:\n      callvalue\n      dup1\n      iszero\n      tag_96\n      jumpi\n      revert(0x00, 0x00)\n    tag_96:\n      pop\n      tag_97\n      0x04\n      dup1\n      calldatasize\n      sub\n      dup2\n      add\n      swap1\n      tag_98\n      swap2\n      swap1\n      tag_50\n      jump\t// in\n    tag_98:\n      tag_99\n      jump\t// in\n    tag_97:\n      stop\n        /* \"contracts/RussianRoullete.sol\":7391:7501  function getReferrerOf(address _user) public view returns(address) {... */\n    tag_15:\n      callvalue\n      dup1\n      iszero\n      tag_100\n      jumpi\n      revert(0x00, 0x00)\n    tag_100:\n      pop\n      tag_101\n      0x04\n      dup1\n      calldatasize\n      sub\n      dup2\n      add\n      swap1\n      tag_102\n      swap2\n      swap1\n      tag_60\n      jump\t// in\n    tag_102:\n      tag_103\n      jump\t// in\n    tag_101:\n      mload(0x40)\n      tag_104\n      swap2\n      swap1\n      tag_95\n      jump\t// in\n    tag_104:\n      mload(0x40)\n      dup1\n      swap2\n      sub\n      swap1\n      return\n        /* \"contracts/RussianRoullete.sol\":2075:2109  uint256 public maxPayoutBps = 1000 */\n    tag_16:\n      callvalue\n      dup1\n      iszero\n      tag_105\n      jumpi\n      revert(0x00, 0x00)\n    tag_105:\n      pop\n      tag_106\n      tag_107\n      jump\t// in\n    tag_106:\n      mload(0x40)\n      tag_108\n      swap2\n      swap1\n      tag_68\n      jump\t// in\n    tag_108:\n      mload(0x40)\n      dup1\n      swap2\n      sub\n      swap1\n      return\n        /* \"contracts/RussianRoullete.sol\":2175:2199  uint256 public totalBets */\n    tag_17:\n      callvalue\n      dup1\n      iszero\n      tag_109\n      jumpi\n      revert(0x00, 0x00)\n    tag_109:\n      pop\n      tag_110\n      tag_111\n      jump\t// in\n    tag_110:\n      mload(0x40)\n      tag_112\n      swap2\n      swap1\n      tag_68\n      jump\t// in\n    tag_112:\n      mload(0x40)\n      dup1\n      swap2\n      sub\n      swap1\n      return\n        /* \"contracts/RussianRoullete.sol\":2277:2305  uint256 public totalGamesWon */\n    tag_18:\n      callvalue\n      dup1\n      iszero\n      tag_113\n      jumpi\n      revert(0x00, 0x00)\n    tag_113:\n      pop\n      tag_114\n      tag_115\n      jump\t// in\n    tag_114:\n      mload(0x40)\n      tag_116\n      swap2\n      swap1\n      tag_68\n      jump\t// in\n    tag_116:\n      mload(0x40)\n      dup1\n      swap2\n      sub\n      swap1\n      return\n        /* \"contracts/RussianRoullete.sol\":1697:1749  mapping(bytes32 => address) public referralCodeOwner */\n    tag_19:\n      callvalue\n      dup1\n      iszero\n      tag_117\n      jumpi\n      revert(0x00, 0x00)\n    tag_117:\n      pop\n      tag_118\n      0x04\n      dup1\n      calldatasize\n      sub\n      dup2\n      add\n      swap1\n      tag_119\n      swap2\n      swap1\n      tag_50\n      jump\t// in\n    tag_119:\n      tag_120\n      jump\t// in\n    tag_118:\n      mload(0x40)\n      tag_121\n      swap2\n      swap1\n      tag_95\n      jump\t// in\n    tag_121:\n      mload(0x40)\n      dup1\n      swap2\n      sub\n      swap1\n      return\n        /* \"contracts/RussianRoullete.sol\":2518:4784  function bet(uint8 bullets) external payable nonReentrant returns (uint256 requestId) {... */\n    tag_20:\n      tag_122\n      0x04\n      dup1\n      calldatasize\n      sub\n      dup2\n      add\n      swap1\n      tag_123\n      swap2\n      swap1\n      tag_124\n      jump\t// in\n    tag_123:\n      tag_125\n      jump\t// in\n    tag_122:\n      mload(0x40)\n      tag_126\n      swap2\n      swap1\n      tag_68\n      jump\t// in\n    tag_126:\n      mload(0x40)\n      dup1\n      swap2\n      sub\n      swap1\n      return\n        /* \"contracts/RussianRoullete.sol\":1812:1857  mapping(address => address) public referrerOf */\n    tag_21:\n      callvalue\n      dup1\n      iszero\n      tag_127\n      jumpi\n      revert(0x00, 0x00)\n    tag_127:\n      pop\n      tag_128\n      0x04\n      dup1\n      calldatasize\n      sub\n      dup2\n      add\n      swap1\n      tag_129\n      swap2\n      swap1\n      tag_60\n      jump\t// in\n    tag_129:\n      tag_130\n      jump\t// in\n    tag_128:\n      mload(0x40)\n      tag_131\n      swap2\n      swap1\n      tag_95\n      jump\t// in\n    tag_131:\n      mload(0x40)\n      dup1\n      swap2\n      sub\n      swap1\n      return\n        /* \"contracts/RussianRoullete.sol\":7141:7259  function getReferralCodeOf(address _user) public view returns(bytes32) {... */\n    tag_22:\n      callvalue\n      dup1\n      iszero\n      tag_132\n      jumpi\n      revert(0x00, 0x00)\n    tag_132:\n      pop\n      tag_133\n      0x04\n      dup1\n      calldatasize\n      sub\n      dup2\n      add\n      swap1\n      tag_134\n      swap2\n      swap1\n      tag_60\n      jump\t// in\n    tag_134:\n      tag_135\n      jump\t// in\n    tag_133:\n      mload(0x40)\n      tag_136\n      swap2\n      swap1\n      tag_63\n      jump\t// in\n    tag_136:\n      mload(0x40)\n      dup1\n      swap2\n      sub\n      swap1\n      return\n        /* \"contracts/RussianRoullete.sol\":2123:2168  uint256 public constant MAX_PAYOUT_BPS = 5000 */\n    tag_23:\n      callvalue\n      dup1\n      iszero\n      tag_137\n      jumpi\n      revert(0x00, 0x00)\n    tag_137:\n      pop\n      tag_138\n      tag_139\n      jump\t// in\n    tag_138:\n      mload(0x40)\n      tag_140\n      swap2\n      swap1\n      tag_68\n      jump\t// in\n    tag_140:\n      mload(0x40)\n      dup1\n      swap2\n      sub\n      swap1\n      return\n        /* \"contracts/RussianRoullete.sol\":5994:6193  function setMaxPayoutBps(uint256 _newBps) external onlyOwner {... */\n    tag_24:\n      callvalue\n      dup1\n      iszero\n      tag_141\n      jumpi\n      revert(0x00, 0x00)\n    tag_141:\n      pop\n      tag_142\n      0x04\n      dup1\n      calldatasize\n      sub\n      dup2\n      add\n      swap1\n      tag_143\n      swap2\n      swap1\n      tag_43\n      jump\t// in\n    tag_143:\n      tag_144\n      jump\t// in\n    tag_142:\n      stop\n        /* \"contracts/RussianRoullete.sol\":1917:1949  uint256 public houseFeeBps = 500 */\n    tag_25:\n      callvalue\n      dup1\n      iszero\n      tag_145\n      jumpi\n      revert(0x00, 0x00)\n    tag_145:\n      pop\n      tag_146\n      tag_147\n      jump\t// in\n    tag_146:\n      mload(0x40)\n      tag_148\n      swap2\n      swap1\n      tag_68\n      jump\t// in\n    tag_148:\n      mload(0x40)\n      dup1\n      swap2\n      sub\n      swap1\n      return\n        /* \"@openzeppelin/contracts/access/Ownable.sol\":2543:2758  function transferOwnership(address newOwner) public virtual onlyOwner {... */\n    tag_26:\n      callvalue\n      dup1\n      iszero\n      tag_149\n      jumpi\n      revert(0x00, 0x00)\n    tag_149:\n      pop\n      tag_150\n      0x04\n      dup1\n      calldatasize\n      sub\n      dup2\n      add\n      swap1\n      tag_151\n      swap2\n      swap1\n      tag_60\n      jump\t// in\n    tag_151:\n      tag_152\n      jump\t// in\n    tag_150:\n      stop\n        /* \"contracts/RussianRoullete.sol\":1962:2010  uint256 public constant MAX_HOUSE_FEE_BPS = 2000 */\n    tag_27:\n      callvalue\n      dup1\n      iszero\n      tag_153\n      jumpi\n      revert(0x00, 0x00)\n    tag_153:\n      pop\n      tag_154\n      tag_155\n      jump\t// in\n    tag_154:\n      mload(0x40)\n      tag_156\n      swap2\n      swap1\n      tag_68\n      jump\t// in\n    tag_156:\n      mload(0x40)\n      dup1\n      swap2\n      sub\n      swap1\n      return\n        /* \"contracts/RussianRoullete.sol\":7265:7385  function getAddressByCode(bytes32 _code) public view returns(address) {... */\n    tag_28:\n      callvalue\n      dup1\n      iszero\n      tag_157\n      jumpi\n      revert(0x00, 0x00)\n    tag_157:\n      pop\n      tag_158\n      0x04\n      dup1\n      calldatasize\n      sub\n      dup2\n      add\n      swap1\n      tag_159\n      swap2\n      swap1\n      tag_50\n      jump\t// in\n    tag_159:\n      tag_160\n      jump\t// in\n    tag_158:\n      mload(0x40)\n      tag_161\n      swap2\n      swap1\n      tag_95\n      jump\t// in\n    tag_161:\n      mload(0x40)\n      dup1\n      swap2\n      sub\n      swap1\n      return\n        /* \"@paintswap/vrf/contracts/PaintswapVRFConsumer.sol\":3923:4105  function rawFulfillRandomWords(... */\n    tag_39:\n        /* \"@paintswap/vrf/contracts/PaintswapVRFConsumer.sol\":1291:1306  _vrfCoordinator */\n      immutable(\"0xbebb351b5cf10820d8521e899df75c3dc4c8d740dcf450f315119f5c837945c0\")\n        /* \"@paintswap/vrf/contracts/PaintswapVRFConsumer.sol\":1269:1307  msg.sender != address(_vrfCoordinator) */\n      0xffffffffffffffffffffffffffffffffffffffff\n      and\n        /* \"@paintswap/vrf/contracts/PaintswapVRFConsumer.sol\":1269:1279  msg.sender */\n      caller\n        /* \"@paintswap/vrf/contracts/PaintswapVRFConsumer.sol\":1269:1307  msg.sender != address(_vrfCoordinator) */\n      0xffffffffffffffffffffffffffffffffffffffff\n      and\n      eq\n        /* \"@paintswap/vrf/contracts/PaintswapVRFConsumer.sol\":1265:1387  if (msg.sender != address(_vrfCoordinator)) {... */\n      tag_163\n      jumpi\n        /* \"@paintswap/vrf/contracts/PaintswapVRFConsumer.sol\":1343:1353  msg.sender */\n      caller\n        /* \"@paintswap/vrf/contracts/PaintswapVRFConsumer.sol\":1363:1378  _vrfCoordinator */\n      immutable(\"0xbebb351b5cf10820d8521e899df75c3dc4c8d740dcf450f315119f5c837945c0\")\n        /* \"@paintswap/vrf/contracts/PaintswapVRFConsumer.sol\":1324:1380  OnlyVRFCoordinator(msg.sender, address(_vrfCoordinator)) */\n      mload(0x40)\n      0x20138a9f00000000000000000000000000000000000000000000000000000000\n      dup2\n      mstore\n      0x04\n      add\n      tag_164\n      swap3\n      swap2\n      swap1\n      tag_165\n      jump\t// in\n    tag_164:\n      mload(0x40)\n      dup1\n      swap2\n      sub\n      swap1\n      revert\n        /* \"@paintswap/vrf/contracts/PaintswapVRFConsumer.sol\":1265:1387  if (msg.sender != address(_vrfCoordinator)) {... */\n    tag_163:\n        /* \"@paintswap/vrf/contracts/PaintswapVRFConsumer.sol\":4057:4100  _fulfillRandomWords(requestId, randomWords) */\n      tag_167\n        /* \"@paintswap/vrf/contracts/PaintswapVRFConsumer.sol\":4077:4086  requestId */\n      dup4\n        /* \"@paintswap/vrf/contracts/PaintswapVRFConsumer.sol\":4088:4099  randomWords */\n      dup4\n      dup4\n        /* \"@paintswap/vrf/contracts/PaintswapVRFConsumer.sol\":4057:4076  _fulfillRandomWords */\n      tag_168\n        /* \"@paintswap/vrf/contracts/PaintswapVRFConsumer.sol\":4057:4100  _fulfillRandomWords(requestId, randomWords) */\n      jump\t// in\n    tag_167:\n        /* \"@paintswap/vrf/contracts/PaintswapVRFConsumer.sol\":3923:4105  function rawFulfillRandomWords(... */\n      pop\n      pop\n      pop\n      jump\t// out\n        /* \"contracts/RussianRoullete.sol\":1655:1690  mapping(uint256 => Bet) public bets */\n    tag_44:\n      mstore(0x20, 0x03)\n      dup1\n      0x00\n      mstore\n      keccak256(0x00, 0x40)\n      0x00\n      swap2\n      pop\n      swap1\n      pop\n      dup1\n      0x00\n      add\n      0x00\n      swap1\n      sload\n      swap1\n      0x0100\n      exp\n      swap1\n      div\n      0xffffffffffffffffffffffffffffffffffffffff\n      and\n      swap1\n      dup1\n      0x01\n      add\n      sload\n      swap1\n      dup1\n      0x02\n      add\n      0x00\n      swap1\n      sload\n      swap1\n      0x0100\n      exp\n      swap1\n      div\n      0xff\n      and\n      swap1\n      pop\n      dup4\n      jump\t// out\n        /* \"contracts/RussianRoullete.sol\":6201:6579  function createReferralCode(bytes32 _code) public {... */\n    tag_51:\n        /* \"contracts/RussianRoullete.sol\":6304:6305  0 */\n      0x00\n        /* \"contracts/RussianRoullete.sol\":6296:6306  bytes32(0) */\n      0x00\n      shl\n        /* \"contracts/RussianRoullete.sol\":6266:6280  referralCodeOf */\n      0x05\n        /* \"contracts/RussianRoullete.sol\":6266:6292  referralCodeOf[msg.sender] */\n      0x00\n        /* \"contracts/RussianRoullete.sol\":6281:6291  msg.sender */\n      caller\n        /* \"contracts/RussianRoullete.sol\":6266:6292  referralCodeOf[msg.sender] */\n      0xffffffffffffffffffffffffffffffffffffffff\n      and\n      0xffffffffffffffffffffffffffffffffffffffff\n      and\n      dup2\n      mstore\n      0x20\n      add\n      swap1\n      dup2\n      mstore\n      0x20\n      add\n      0x00\n      keccak256\n      sload\n        /* \"contracts/RussianRoullete.sol\":6266:6306  referralCodeOf[msg.sender] != bytes32(0) */\n      eq\n        /* \"contracts/RussianRoullete.sol\":6262:6362  if (referralCodeOf[msg.sender] != bytes32(0)) {... */\n      tag_170\n      jumpi\n        /* \"contracts/RussianRoullete.sol\":6330:6350  UserAlreadyHasCode() */\n      mload(0x40)\n      0x809dc80800000000000000000000000000000000000000000000000000000000\n      dup2\n      mstore\n      0x04\n      add\n      mload(0x40)\n      dup1\n      swap2\n      sub\n      swap1\n      revert\n        /* \"contracts/RussianRoullete.sol\":6262:6362  if (referralCodeOf[msg.sender] != bytes32(0)) {... */\n    tag_170:\n        /* \"contracts/RussianRoullete.sol\":6412:6413  0 */\n      0x00\n        /* \"contracts/RussianRoullete.sol\":6376:6414  referralCodeOwner[_code] != address(0) */\n      0xffffffffffffffffffffffffffffffffffffffff\n      and\n        /* \"contracts/RussianRoullete.sol\":6376:6393  referralCodeOwner */\n      0x04\n        /* \"contracts/RussianRoullete.sol\":6376:6400  referralCodeOwner[_code] */\n      0x00\n        /* \"contracts/RussianRoullete.sol\":6394:6399  _code */\n      dup4\n        /* \"contracts/RussianRoullete.sol\":6376:6400  referralCodeOwner[_code] */\n      dup2\n      mstore\n      0x20\n      add\n      swap1\n      dup2\n      mstore\n      0x20\n      add\n      0x00\n      keccak256\n      0x00\n      swap1\n      sload\n      swap1\n      0x0100\n      exp\n      swap1\n      div\n      0xffffffffffffffffffffffffffffffffffffffff\n      and\n        /* \"contracts/RussianRoullete.sol\":6376:6414  referralCodeOwner[_code] != address(0) */\n      0xffffffffffffffffffffffffffffffffffffffff\n      and\n      eq\n        /* \"contracts/RussianRoullete.sol\":6372:6477  if (referralCodeOwner[_code] != address(0)) {... */\n      tag_171\n      jumpi\n        /* \"contracts/RussianRoullete.sol\":6438:6465  ReferralCodeAlreadyExists() */\n      mload(0x40)\n      0x374be26400000000000000000000000000000000000000000000000000000000\n      dup2\n      mstore\n      0x04\n      add\n      mload(0x40)\n      dup1\n      swap2\n      sub\n      swap1\n      revert\n        /* \"contracts/RussianRoullete.sol\":6372:6477  if (referralCodeOwner[_code] != address(0)) {... */\n    tag_171:\n        /* \"contracts/RussianRoullete.sol\":6516:6526  msg.sender */\n      caller\n        /* \"contracts/RussianRoullete.sol\":6489:6506  referralCodeOwner */\n      0x04\n        /* \"contracts/RussianRoullete.sol\":6489:6513  referralCodeOwner[_code] */\n      0x00\n        /* \"contracts/RussianRoullete.sol\":6507:6512  _code */\n      dup4\n        /* \"contracts/RussianRoullete.sol\":6489:6513  referralCodeOwner[_code] */\n      dup2\n      mstore\n      0x20\n      add\n      swap1\n      dup2\n      mstore\n      0x20\n      add\n      0x00\n      keccak256\n      0x00\n        /* \"contracts/RussianRoullete.sol\":6489:6526  referralCodeOwner[_code] = msg.sender */\n      0x0100\n      exp\n      dup2\n      sload\n      dup2\n      0xffffffffffffffffffffffffffffffffffffffff\n      mul\n      not\n      and\n      swap1\n      dup4\n      0xffffffffffffffffffffffffffffffffffffffff\n      and\n      mul\n      or\n      swap1\n      sstore\n      pop\n        /* \"contracts/RussianRoullete.sol\":6566:6571  _code */\n      dup1\n        /* \"contracts/RussianRoullete.sol\":6537:6551  referralCodeOf */\n      0x05\n        /* \"contracts/RussianRoullete.sol\":6537:6563  referralCodeOf[msg.sender] */\n      0x00\n        /* \"contracts/RussianRoullete.sol\":6552:6562  msg.sender */\n      caller\n        /* \"contracts/RussianRoullete.sol\":6537:6563  referralCodeOf[msg.sender] */\n      0xffffffffffffffffffffffffffffffffffffffff\n      and\n      0xffffffffffffffffffffffffffffffffffffffff\n      and\n      dup2\n      mstore\n      0x20\n      add\n      swap1\n      dup2\n      mstore\n      0x20\n      add\n      0x00\n      keccak256\n        /* \"contracts/RussianRoullete.sol\":6537:6571  referralCodeOf[msg.sender] = _code */\n      dup2\n      swap1\n      sstore\n      pop\n        /* \"contracts/RussianRoullete.sol\":6201:6579  function createReferralCode(bytes32 _code) public {... */\n      pop\n      jump\t// out\n        /* \"contracts/RussianRoullete.sol\":2017:2068  uint32 public constant CALLBACK_GAS_LIMIT = 200_000 */\n    tag_54:\n        /* \"contracts/RussianRoullete.sol\":2061:2068  200_000 */\n      0x030d40\n        /* \"contracts/RussianRoullete.sol\":2017:2068  uint32 public constant CALLBACK_GAS_LIMIT = 200_000 */\n      dup2\n      jump\t// out\n        /* \"contracts/RussianRoullete.sol\":1756:1805  mapping(address => bytes32) public referralCodeOf */\n    tag_61:\n      mstore(0x20, 0x05)\n      dup1\n      0x00\n      mstore\n      keccak256(0x00, 0x40)\n      0x00\n      swap2\n      pop\n      swap1\n      pop\n      sload\n      dup2\n      jump\t// out\n        /* \"contracts/RussianRoullete.sol\":2206:2232  uint256 public totalPayout */\n    tag_66:\n      sload(0x0b)\n      dup2\n      jump\t// out\n        /* \"contracts/RussianRoullete.sol\":1864:1908  mapping(address => Player) public playerInfo */\n    tag_72:\n      mstore(0x20, 0x07)\n      dup1\n      0x00\n      mstore\n      keccak256(0x00, 0x40)\n      0x00\n      swap2\n      pop\n      swap1\n      pop\n      dup1\n      0x00\n      add\n      sload\n      swap1\n      dup1\n      0x01\n      add\n      sload\n      swap1\n      dup1\n      0x02\n      add\n      sload\n      swap1\n      dup1\n      0x03\n      add\n      sload\n      swap1\n      dup1\n      0x04\n      add\n      sload\n      swap1\n      pop\n      dup6\n      jump\t// out\n        /* \"contracts/RussianRoullete.sol\":5791:5986  function setHouseFee(uint256 _newFeeBps) external onlyOwner {... */\n    tag_78:\n        /* \"@openzeppelin/contracts/access/Ownable.sol\":1531:1544  _checkOwner() */\n      tag_173\n        /* \"@openzeppelin/contracts/access/Ownable.sol\":1531:1542  _checkOwner */\n      tag_174\n        /* \"@openzeppelin/contracts/access/Ownable.sol\":1531:1544  _checkOwner() */\n      jump\t// in\n    tag_173:\n        /* \"contracts/RussianRoullete.sol\":2006:2010  2000 */\n      0x07d0\n        /* \"contracts/RussianRoullete.sol\":5866:5876  _newFeeBps */\n      dup2\n        /* \"contracts/RussianRoullete.sol\":5866:5896  _newFeeBps > MAX_HOUSE_FEE_BPS */\n      gt\n        /* \"contracts/RussianRoullete.sol\":5862:5944  if (_newFeeBps > MAX_HOUSE_FEE_BPS) {... */\n      iszero\n      tag_176\n      jumpi\n        /* \"contracts/RussianRoullete.sol\":5920:5932  FeeTooHigh() */\n      mload(0x40)\n      0xcd4e616700000000000000000000000000000000000000000000000000000000\n      dup2\n      mstore\n      0x04\n      add\n      mload(0x40)\n      dup1\n      swap2\n      sub\n      swap1\n      revert\n        /* \"contracts/RussianRoullete.sol\":5862:5944  if (_newFeeBps > MAX_HOUSE_FEE_BPS) {... */\n    tag_176:\n        /* \"contracts/RussianRoullete.sol\":5968:5978  _newFeeBps */\n      dup1\n        /* \"contracts/RussianRoullete.sol\":5954:5965  houseFeeBps */\n      0x08\n        /* \"contracts/RussianRoullete.sol\":5954:5978  houseFeeBps = _newFeeBps */\n      dup2\n      swap1\n      sstore\n      pop\n        /* \"contracts/RussianRoullete.sol\":5791:5986  function setHouseFee(uint256 _newFeeBps) external onlyOwner {... */\n      pop\n      jump\t// out\n        /* \"contracts/RussianRoullete.sol\":2239:2270  uint256 public totalGamesPlayed */\n    tag_81:\n      sload(0x0c)\n      dup2\n      jump\t// out\n        /* \"contracts/RussianRoullete.sol\":1079:1116  ILiquidityVault public liquidityVault */\n    tag_85:\n      0x02\n      0x00\n      swap1\n      sload\n      swap1\n      0x0100\n      exp\n      swap1\n      div\n      0xffffffffffffffffffffffffffffffffffffffff\n      and\n      dup2\n      jump\t// out\n        /* \"@openzeppelin/contracts/access/Ownable.sol\":2293:2394  function renounceOwnership() public virtual onlyOwner {... */\n    tag_90:\n        /* \"@openzeppelin/contracts/access/Ownable.sol\":1531:1544  _checkOwner() */\n      tag_178\n        /* \"@openzeppelin/contracts/access/Ownable.sol\":1531:1542  _checkOwner */\n      tag_174\n        /* \"@openzeppelin/contracts/access/Ownable.sol\":1531:1544  _checkOwner() */\n      jump\t// in\n    tag_178:\n        /* \"@openzeppelin/contracts/access/Ownable.sol\":2357:2387  _transferOwnership(address(0)) */\n      tag_180\n        /* \"@openzeppelin/contracts/access/Ownable.sol\":2384:2385  0 */\n      0x00\n        /* \"@openzeppelin/contracts/access/Ownable.sol\":2357:2375  _transferOwnership */\n      tag_181\n        /* \"@openzeppelin/contracts/access/Ownable.sol\":2357:2387  _transferOwnership(address(0)) */\n      jump\t// in\n    tag_180:\n        /* \"@openzeppelin/contracts/access/Ownable.sol\":2293:2394  function renounceOwnership() public virtual onlyOwner {... */\n      jump\t// out\n        /* \"@openzeppelin/contracts/access/Ownable.sol\":1638:1723  function owner() public view virtual returns (address) {... */\n    tag_93:\n        /* \"@openzeppelin/contracts/access/Ownable.sol\":1684:1691  address */\n      0x00\n        /* \"@openzeppelin/contracts/access/Ownable.sol\":1710:1716  _owner */\n      0x00\n      0x00\n      swap1\n      sload\n      swap1\n      0x0100\n      exp\n      swap1\n      div\n      0xffffffffffffffffffffffffffffffffffffffff\n      and\n        /* \"@openzeppelin/contracts/access/Ownable.sol\":1703:1716  return _owner */\n      swap1\n      pop\n        /* \"@openzeppelin/contracts/access/Ownable.sol\":1638:1723  function owner() public view virtual returns (address) {... */\n      swap1\n      jump\t// out\n        /* \"contracts/RussianRoullete.sol\":6587:7133  function applyReferralCode(bytes32 _code) public {... */\n    tag_99:\n        /* \"contracts/RussianRoullete.sol\":6647:6670  address referrerAddress */\n      0x00\n        /* \"contracts/RussianRoullete.sol\":6673:6690  referralCodeOwner */\n      0x04\n        /* \"contracts/RussianRoullete.sol\":6673:6697  referralCodeOwner[_code] */\n      0x00\n        /* \"contracts/RussianRoullete.sol\":6691:6696  _code */\n      dup4\n        /* \"contracts/RussianRoullete.sol\":6673:6697  referralCodeOwner[_code] */\n      dup2\n      mstore\n      0x20\n      add\n      swap1\n      dup2\n      mstore\n      0x20\n      add\n      0x00\n      keccak256\n      0x00\n      swap1\n      sload\n      swap1\n      0x0100\n      exp\n      swap1\n      div\n      0xffffffffffffffffffffffffffffffffffffffff\n      and\n        /* \"contracts/RussianRoullete.sol\":6647:6697  address referrerAddress = referralCodeOwner[_code] */\n      swap1\n      pop\n        /* \"contracts/RussianRoullete.sol\":6733:6743  msg.sender */\n      caller\n        /* \"contracts/RussianRoullete.sol\":6714:6743  referrerAddress == msg.sender */\n      0xffffffffffffffffffffffffffffffffffffffff\n      and\n        /* \"contracts/RussianRoullete.sol\":6714:6729  referrerAddress */\n      dup2\n        /* \"contracts/RussianRoullete.sol\":6714:6743  referrerAddress == msg.sender */\n      0xffffffffffffffffffffffffffffffffffffffff\n      and\n      sub\n        /* \"contracts/RussianRoullete.sol\":6710:6800  if (referrerAddress == msg.sender) {... */\n      tag_184\n      jumpi\n        /* \"contracts/RussianRoullete.sol\":6767:6788  CannotBeOwnReferrer() */\n      mload(0x40)\n      0x6d0f1f8200000000000000000000000000000000000000000000000000000000\n      dup2\n      mstore\n      0x04\n      add\n      mload(0x40)\n      dup1\n      swap2\n      sub\n      swap1\n      revert\n        /* \"contracts/RussianRoullete.sol\":6710:6800  if (referrerAddress == msg.sender) {... */\n    tag_184:\n        /* \"contracts/RussianRoullete.sol\":6841:6842  0 */\n      0x00\n        /* \"contracts/RussianRoullete.sol\":6814:6843  referrerAddress == address(0) */\n      0xffffffffffffffffffffffffffffffffffffffff\n      and\n        /* \"contracts/RussianRoullete.sol\":6814:6829  referrerAddress */\n      dup2\n        /* \"contracts/RussianRoullete.sol\":6814:6843  referrerAddress == address(0) */\n      0xffffffffffffffffffffffffffffffffffffffff\n      and\n      sub\n        /* \"contracts/RussianRoullete.sol\":6810:6901  if (referrerAddress == address(0)) {... */\n      tag_185\n      jumpi\n        /* \"contracts/RussianRoullete.sol\":6867:6889  ReferralCodeNotFound() */\n      mload(0x40)\n      0x865dc59c00000000000000000000000000000000000000000000000000000000\n      dup2\n      mstore\n      0x04\n      add\n      mload(0x40)\n      dup1\n      swap2\n      sub\n      swap1\n      revert\n        /* \"contracts/RussianRoullete.sol\":6810:6901  if (referrerAddress == address(0)) {... */\n    tag_185:\n        /* \"contracts/RussianRoullete.sol\":6949:6950  0 */\n      0x00\n        /* \"contracts/RussianRoullete.sol\":6915:6951  referrerOf[msg.sender] != address(0) */\n      0xffffffffffffffffffffffffffffffffffffffff\n      and\n        /* \"contracts/RussianRoullete.sol\":6915:6925  referrerOf */\n      0x06\n        /* \"contracts/RussianRoullete.sol\":6915:6937  referrerOf[msg.sender] */\n      0x00\n        /* \"contracts/RussianRoullete.sol\":6926:6936  msg.sender */\n      caller\n        /* \"contracts/RussianRoullete.sol\":6915:6937  referrerOf[msg.sender] */\n      0xffffffffffffffffffffffffffffffffffffffff\n      and\n      0xffffffffffffffffffffffffffffffffffffffff\n      and\n      dup2\n      mstore\n      0x20\n      add\n      swap1\n      dup2\n      mstore\n      0x20\n      add\n      0x00\n      keccak256\n      0x00\n      swap1\n      sload\n      swap1\n      0x0100\n      exp\n      swap1\n      div\n      0xffffffffffffffffffffffffffffffffffffffff\n      and\n        /* \"contracts/RussianRoullete.sol\":6915:6951  referrerOf[msg.sender] != address(0) */\n      0xffffffffffffffffffffffffffffffffffffffff\n      and\n      eq\n        /* \"contracts/RussianRoullete.sol\":6911:7007  if (referrerOf[msg.sender] != address(0)) {... */\n      tag_186\n      jumpi\n        /* \"contracts/RussianRoullete.sol\":6975:6995  ReferrerAlreadySet() */\n      mload(0x40)\n      0x967c839800000000000000000000000000000000000000000000000000000000\n      dup2\n      mstore\n      0x04\n      add\n      mload(0x40)\n      dup1\n      swap2\n      sub\n      swap1\n      revert\n        /* \"contracts/RussianRoullete.sol\":6911:7007  if (referrerOf[msg.sender] != address(0)) {... */\n    tag_186:\n        /* \"contracts/RussianRoullete.sol\":7052:7067  referrerAddress */\n      dup1\n        /* \"contracts/RussianRoullete.sol\":7027:7037  referrerOf */\n      0x06\n        /* \"contracts/RussianRoullete.sol\":7027:7049  referrerOf[msg.sender] */\n      0x00\n        /* \"contracts/RussianRoullete.sol\":7038:7048  msg.sender */\n      caller\n        /* \"contracts/RussianRoullete.sol\":7027:7049  referrerOf[msg.sender] */\n      0xffffffffffffffffffffffffffffffffffffffff\n      and\n      0xffffffffffffffffffffffffffffffffffffffff\n      and\n      dup2\n      mstore\n      0x20\n      add\n      swap1\n      dup2\n      mstore\n      0x20\n      add\n      0x00\n      keccak256\n      0x00\n        /* \"contracts/RussianRoullete.sol\":7027:7067  referrerOf[msg.sender] = referrerAddress */\n      0x0100\n      exp\n      dup2\n      sload\n      dup2\n      0xffffffffffffffffffffffffffffffffffffffff\n      mul\n      not\n      and\n      swap1\n      dup4\n      0xffffffffffffffffffffffffffffffffffffffff\n      and\n      mul\n      or\n      swap1\n      sstore\n      pop\n        /* \"contracts/RussianRoullete.sol\":7124:7125  1 */\n      0x01\n        /* \"contracts/RussianRoullete.sol\":7078:7088  playerInfo */\n      0x07\n        /* \"contracts/RussianRoullete.sol\":7078:7105  playerInfo[referrerAddress] */\n      0x00\n        /* \"contracts/RussianRoullete.sol\":7089:7104  referrerAddress */\n      dup4\n        /* \"contracts/RussianRoullete.sol\":7078:7105  playerInfo[referrerAddress] */\n      0xffffffffffffffffffffffffffffffffffffffff\n      and\n      0xffffffffffffffffffffffffffffffffffffffff\n      and\n      dup2\n      mstore\n      0x20\n      add\n      swap1\n      dup2\n      mstore\n      0x20\n      add\n      0x00\n      keccak256\n        /* \"contracts/RussianRoullete.sol\":7078:7120  playerInfo[referrerAddress].totalReferrals */\n      0x04\n      add\n      0x00\n        /* \"contracts/RussianRoullete.sol\":7078:7125  playerInfo[referrerAddress].totalReferrals += 1 */\n      dup3\n      dup3\n      sload\n      tag_187\n      swap2\n      swap1\n      tag_188\n      jump\t// in\n    tag_187:\n      swap3\n      pop\n      pop\n      dup2\n      swap1\n      sstore\n      pop\n        /* \"contracts/RussianRoullete.sol\":6636:7133  {... */\n      pop\n        /* \"contracts/RussianRoullete.sol\":6587:7133  function applyReferralCode(bytes32 _code) public {... */\n      pop\n      jump\t// out\n        /* \"contracts/RussianRoullete.sol\":7391:7501  function getReferrerOf(address _user) public view returns(address) {... */\n    tag_103:\n        /* \"contracts/RussianRoullete.sol\":7449:7456  address */\n      0x00\n        /* \"contracts/RussianRoullete.sol\":7476:7486  referrerOf */\n      0x06\n        /* \"contracts/RussianRoullete.sol\":7476:7493  referrerOf[_user] */\n      0x00\n        /* \"contracts/RussianRoullete.sol\":7487:7492  _user */\n      dup4\n        /* \"contracts/RussianRoullete.sol\":7476:7493  referrerOf[_user] */\n      0xffffffffffffffffffffffffffffffffffffffff\n      and\n      0xffffffffffffffffffffffffffffffffffffffff\n      and\n      dup2\n      mstore\n      0x20\n      add\n      swap1\n      dup2\n      mstore\n      0x20\n      add\n      0x00\n      keccak256\n      0x00\n      swap1\n      sload\n      swap1\n      0x0100\n      exp\n      swap1\n      div\n      0xffffffffffffffffffffffffffffffffffffffff\n      and\n        /* \"contracts/RussianRoullete.sol\":7469:7493  return referrerOf[_user] */\n      swap1\n      pop\n        /* \"contracts/RussianRoullete.sol\":7391:7501  function getReferrerOf(address _user) public view returns(address) {... */\n      swap2\n      swap1\n      pop\n      jump\t// out\n        /* \"contracts/RussianRoullete.sol\":2075:2109  uint256 public maxPayoutBps = 1000 */\n    tag_107:\n      sload(0x09)\n      dup2\n      jump\t// out\n        /* \"contracts/RussianRoullete.sol\":2175:2199  uint256 public totalBets */\n    tag_111:\n      sload(0x0a)\n      dup2\n      jump\t// out\n        /* \"contracts/RussianRoullete.sol\":2277:2305  uint256 public totalGamesWon */\n    tag_115:\n      sload(0x0d)\n      dup2\n      jump\t// out\n        /* \"contracts/RussianRoullete.sol\":1697:1749  mapping(bytes32 => address) public referralCodeOwner */\n    tag_120:\n      mstore(0x20, 0x04)\n      dup1\n      0x00\n      mstore\n      keccak256(0x00, 0x40)\n      0x00\n      swap2\n      pop\n      sload\n      swap1\n      0x0100\n      exp\n      swap1\n      div\n      0xffffffffffffffffffffffffffffffffffffffff\n      and\n      dup2\n      jump\t// out\n        /* \"contracts/RussianRoullete.sol\":2518:4784  function bet(uint8 bullets) external payable nonReentrant returns (uint256 requestId) {... */\n    tag_125:\n        /* \"contracts/RussianRoullete.sol\":2585:2602  uint256 requestId */\n      0x00\n        /* \"@openzeppelin/contracts/security/ReentrancyGuard.sol\":2261:2282  _nonReentrantBefore() */\n      tag_191\n        /* \"@openzeppelin/contracts/security/ReentrancyGuard.sol\":2261:2280  _nonReentrantBefore */\n      tag_192\n        /* \"@openzeppelin/contracts/security/ReentrancyGuard.sol\":2261:2282  _nonReentrantBefore() */\n      jump\t// in\n    tag_191:\n        /* \"contracts/RussianRoullete.sol\":2629:2630  1 */\n      0x01\n        /* \"contracts/RussianRoullete.sol\":2619:2626  bullets */\n      dup3\n        /* \"contracts/RussianRoullete.sol\":2619:2630  bullets < 1 */\n      0xff\n      and\n      lt\n        /* \"contracts/RussianRoullete.sol\":2619:2645  bullets < 1 || bullets > 5 */\n      dup1\n      tag_194\n      jumpi\n      pop\n        /* \"contracts/RussianRoullete.sol\":2644:2645  5 */\n      0x05\n        /* \"contracts/RussianRoullete.sol\":2634:2641  bullets */\n      dup3\n        /* \"contracts/RussianRoullete.sol\":2634:2645  bullets > 5 */\n      0xff\n      and\n      gt\n        /* \"contracts/RussianRoullete.sol\":2619:2645  bullets < 1 || bullets > 5 */\n    tag_194:\n        /* \"contracts/RussianRoullete.sol\":2615:2701  if (bullets < 1 || bullets > 5) {... */\n      iszero\n      tag_195\n      jumpi\n        /* \"contracts/RussianRoullete.sol\":2669:2689  InvalidBulletCount() */\n      mload(0x40)\n      0x364e219700000000000000000000000000000000000000000000000000000000\n      dup2\n      mstore\n      0x04\n      add\n      mload(0x40)\n      dup1\n      swap2\n      sub\n      swap1\n      revert\n        /* \"contracts/RussianRoullete.sol\":2615:2701  if (bullets < 1 || bullets > 5) {... */\n    tag_195:\n        /* \"contracts/RussianRoullete.sol\":2713:2727  uint256 vrfFee */\n      0x00\n        /* \"contracts/RussianRoullete.sol\":2755:2770  _vrfCoordinator */\n      immutable(\"0xbebb351b5cf10820d8521e899df75c3dc4c8d740dcf450f315119f5c837945c0\")\n        /* \"contracts/RussianRoullete.sol\":2730:2799  IPaintswapVRFCoordinator(_vrfCoordinator).calculateRequestPriceNative */\n      0xffffffffffffffffffffffffffffffffffffffff\n      and\n      0xc66d3d18\n        /* \"contracts/RussianRoullete.sol\":2061:2068  200_000 */\n      0x030d40\n        /* \"contracts/RussianRoullete.sol\":2730:2819  IPaintswapVRFCoordinator(_vrfCoordinator).calculateRequestPriceNative(CALLBACK_GAS_LIMIT) */\n      mload(0x40)\n      dup3\n      0xffffffff\n      and\n      0xe0\n      shl\n      dup2\n      mstore\n      0x04\n      add\n      tag_196\n      swap2\n      swap1\n      tag_197\n      jump\t// in\n    tag_196:\n      0x20\n      mload(0x40)\n      dup1\n      dup4\n      sub\n      dup2\n      dup7\n      gas\n      staticcall\n      iszero\n      dup1\n      iszero\n      tag_199\n      jumpi\n      returndatacopy(0x00, 0x00, returndatasize)\n      revert(0x00, returndatasize)\n    tag_199:\n      pop\n      pop\n      pop\n      pop\n      mload(0x40)\n      returndatasize\n      not(0x1f)\n      0x1f\n      dup3\n      add\n      and\n      dup3\n      add\n      dup1\n      0x40\n      mstore\n      pop\n      dup2\n      add\n      swap1\n      tag_200\n      swap2\n      swap1\n      tag_201\n      jump\t// in\n    tag_200:\n        /* \"contracts/RussianRoullete.sol\":2713:2819  uint256 vrfFee = IPaintswapVRFCoordinator(_vrfCoordinator).calculateRequestPriceNative(CALLBACK_GAS_LIMIT) */\n      swap1\n      pop\n        /* \"contracts/RussianRoullete.sol\":2847:2853  vrfFee */\n      dup1\n        /* \"contracts/RussianRoullete.sol\":2834:2843  msg.value */\n      callvalue\n        /* \"contracts/RussianRoullete.sol\":2834:2853  msg.value <= vrfFee */\n      gt\n        /* \"contracts/RussianRoullete.sol\":2830:2910  if (msg.value <= vrfFee) {... */\n      tag_202\n      jumpi\n        /* \"contracts/RussianRoullete.sol\":2877:2898  InsufficientPayment() */\n      mload(0x40)\n      0xcd1c886700000000000000000000000000000000000000000000000000000000\n      dup2\n      mstore\n      0x04\n      add\n      mload(0x40)\n      dup1\n      swap2\n      sub\n      swap1\n      revert\n        /* \"contracts/RussianRoullete.sol\":2830:2910  if (msg.value <= vrfFee) {... */\n    tag_202:\n        /* \"contracts/RussianRoullete.sol\":2922:2935  uint256 stake */\n      0x00\n        /* \"contracts/RussianRoullete.sol\":2950:2956  vrfFee */\n      dup2\n        /* \"contracts/RussianRoullete.sol\":2938:2947  msg.value */\n      callvalue\n        /* \"contracts/RussianRoullete.sol\":2938:2956  msg.value - vrfFee */\n      tag_203\n      swap2\n      swap1\n      tag_204\n      jump\t// in\n    tag_203:\n        /* \"contracts/RussianRoullete.sol\":2922:2956  uint256 stake = msg.value - vrfFee */\n      swap1\n      pop\n        /* \"contracts/RussianRoullete.sol\":2985:2992  1 ether */\n      0x0de0b6b3a7640000\n        /* \"contracts/RussianRoullete.sol\":2973:2982  msg.value */\n      callvalue\n        /* \"contracts/RussianRoullete.sol\":2973:2992  msg.value < 1 ether */\n      lt\n        /* \"contracts/RussianRoullete.sol\":2969:3041  if (msg.value < 1 ether) {... */\n      iszero\n      tag_205\n      jumpi\n        /* \"contracts/RussianRoullete.sol\":3016:3029  BetTooSmall() */\n      mload(0x40)\n      0xd312a68800000000000000000000000000000000000000000000000000000000\n      dup2\n      mstore\n      0x04\n      add\n      mload(0x40)\n      dup1\n      swap2\n      sub\n      swap1\n      revert\n        /* \"contracts/RussianRoullete.sol\":2969:3041  if (msg.value < 1 ether) {... */\n    tag_205:\n        /* \"contracts/RussianRoullete.sol\":3053:3075  uint256 vaultLiquidity */\n      0x00\n        /* \"contracts/RussianRoullete.sol\":3078:3092  liquidityVault */\n      0x02\n      0x00\n      swap1\n      sload\n      swap1\n      0x0100\n      exp\n      swap1\n      div\n      0xffffffffffffffffffffffffffffffffffffffff\n      and\n        /* \"contracts/RussianRoullete.sol\":3078:3105  liquidityVault.getLiquidity */\n      0xffffffffffffffffffffffffffffffffffffffff\n      and\n      0x0910a510\n        /* \"contracts/RussianRoullete.sol\":3078:3107  liquidityVault.getLiquidity() */\n      mload(0x40)\n      dup2\n      0xffffffff\n      and\n      0xe0\n      shl\n      dup2\n      mstore\n      0x04\n      add\n      0x20\n      mload(0x40)\n      dup1\n      dup4\n      sub\n      dup2\n      dup7\n      gas\n      staticcall\n      iszero\n      dup1\n      iszero\n      tag_207\n      jumpi\n      returndatacopy(0x00, 0x00, returndatasize)\n      revert(0x00, returndatasize)\n    tag_207:\n      pop\n      pop\n      pop\n      pop\n      mload(0x40)\n      returndatasize\n      not(0x1f)\n      0x1f\n      dup3\n      add\n      and\n      dup3\n      add\n      dup1\n      0x40\n      mstore\n      pop\n      dup2\n      add\n      swap1\n      tag_208\n      swap2\n      swap1\n      tag_201\n      jump\t// in\n    tag_208:\n        /* \"contracts/RussianRoullete.sol\":3053:3107  uint256 vaultLiquidity = liquidityVault.getLiquidity() */\n      swap1\n      pop\n        /* \"contracts/RussianRoullete.sol\":3118:3145  uint256 potentialFairPayout */\n      0x00\n        /* \"contracts/RussianRoullete.sol\":3167:3174  bullets */\n      dup6\n        /* \"contracts/RussianRoullete.sol\":3163:3164  6 */\n      0x06\n        /* \"contracts/RussianRoullete.sol\":3163:3174  6 - bullets */\n      tag_209\n      swap2\n      swap1\n      tag_210\n      jump\t// in\n    tag_209:\n        /* \"contracts/RussianRoullete.sol\":3148:3175  (stake * 6) / (6 - bullets) */\n      0xff\n      and\n        /* \"contracts/RussianRoullete.sol\":3157:3158  6 */\n      0x06\n        /* \"contracts/RussianRoullete.sol\":3149:3154  stake */\n      dup5\n        /* \"contracts/RussianRoullete.sol\":3149:3158  stake * 6 */\n      tag_211\n      swap2\n      swap1\n      tag_212\n      jump\t// in\n    tag_211:\n        /* \"contracts/RussianRoullete.sol\":3148:3175  (stake * 6) / (6 - bullets) */\n      tag_213\n      swap2\n      swap1\n      tag_214\n      jump\t// in\n    tag_213:\n        /* \"contracts/RussianRoullete.sol\":3118:3175  uint256 potentialFairPayout = (stake * 6) / (6 - bullets) */\n      swap1\n      pop\n        /* \"contracts/RussianRoullete.sol\":3186:3210  uint256 maxAllowedPayout */\n      0x00\n        /* \"contracts/RussianRoullete.sol\":3247:3252  10000 */\n      0x2710\n        /* \"contracts/RussianRoullete.sol\":3231:3243  maxPayoutBps */\n      sload(0x09)\n        /* \"contracts/RussianRoullete.sol\":3214:3228  vaultLiquidity */\n      dup5\n        /* \"contracts/RussianRoullete.sol\":3214:3243  vaultLiquidity * maxPayoutBps */\n      tag_215\n      swap2\n      swap1\n      tag_212\n      jump\t// in\n    tag_215:\n        /* \"contracts/RussianRoullete.sol\":3213:3252  (vaultLiquidity * maxPayoutBps) / 10000 */\n      tag_216\n      swap2\n      swap1\n      tag_214\n      jump\t// in\n    tag_216:\n        /* \"contracts/RussianRoullete.sol\":3186:3252  uint256 maxAllowedPayout = (vaultLiquidity * maxPayoutBps) / 10000 */\n      swap1\n      pop\n        /* \"contracts/RussianRoullete.sol\":3291:3307  maxAllowedPayout */\n      dup1\n        /* \"contracts/RussianRoullete.sol\":3269:3288  potentialFairPayout */\n      dup3\n        /* \"contracts/RussianRoullete.sol\":3269:3307  potentialFairPayout > maxAllowedPayout */\n      gt\n        /* \"contracts/RussianRoullete.sol\":3265:3363  if (potentialFairPayout > maxAllowedPayout) {... */\n      iszero\n      tag_217\n      jumpi\n        /* \"contracts/RussianRoullete.sol\":3331:3351  PayoutExceedsLimit() */\n      mload(0x40)\n      0x2ed7adcc00000000000000000000000000000000000000000000000000000000\n      dup2\n      mstore\n      0x04\n      add\n      mload(0x40)\n      dup1\n      swap2\n      sub\n      swap1\n      revert\n        /* \"contracts/RussianRoullete.sol\":3265:3363  if (potentialFairPayout > maxAllowedPayout) {... */\n    tag_217:\n        /* \"contracts/RussianRoullete.sol\":3412:3427  _vrfCoordinator */\n      immutable(\"0xbebb351b5cf10820d8521e899df75c3dc4c8d740dcf450f315119f5c837945c0\")\n        /* \"contracts/RussianRoullete.sol\":3387:3457  IPaintswapVRFCoordinator(_vrfCoordinator).requestRandomnessPayInNative */\n      0xffffffffffffffffffffffffffffffffffffffff\n      and\n      0xcb9bb27f\n        /* \"contracts/RussianRoullete.sol\":3465:3471  vrfFee */\n      dup7\n        /* \"contracts/RussianRoullete.sol\":2061:2068  200_000 */\n      0x030d40\n        /* \"contracts/RussianRoullete.sol\":3520:3521  1 */\n      0x01\n        /* \"contracts/RussianRoullete.sol\":3544:3558  liquidityVault */\n      0x02\n      0x00\n      swap1\n      sload\n      swap1\n      0x0100\n      exp\n      swap1\n      div\n      0xffffffffffffffffffffffffffffffffffffffff\n      and\n        /* \"contracts/RussianRoullete.sol\":3387:3570  IPaintswapVRFCoordinator(_vrfCoordinator).requestRandomnessPayInNative{value: vrfFee}(... */\n      mload(0x40)\n      dup6\n      0xffffffff\n      and\n      0xe0\n      shl\n      dup2\n      mstore\n      0x04\n      add\n      tag_218\n      swap4\n      swap3\n      swap2\n      swap1\n      tag_219\n      jump\t// in\n    tag_218:\n      0x20\n      mload(0x40)\n      dup1\n      dup4\n      sub\n      dup2\n      dup6\n      dup9\n      gas\n      call\n      iszero\n      dup1\n      iszero\n      tag_221\n      jumpi\n      returndatacopy(0x00, 0x00, returndatasize)\n      revert(0x00, returndatasize)\n    tag_221:\n      pop\n      pop\n      pop\n      pop\n      pop\n      mload(0x40)\n      returndatasize\n      not(0x1f)\n      0x1f\n      dup3\n      add\n      and\n      dup3\n      add\n      dup1\n      0x40\n      mstore\n      pop\n      dup2\n      add\n      swap1\n      tag_222\n      swap2\n      swap1\n      tag_201\n      jump\t// in\n    tag_222:\n        /* \"contracts/RussianRoullete.sol\":3375:3570  requestId = IPaintswapVRFCoordinator(_vrfCoordinator).requestRandomnessPayInNative{value: vrfFee}(... */\n      swap6\n      pop\n        /* \"contracts/RussianRoullete.sol\":3581:3597  address referrer */\n      0x00\n        /* \"contracts/RussianRoullete.sol\":3600:3610  referrerOf */\n      0x06\n        /* \"contracts/RussianRoullete.sol\":3600:3622  referrerOf[msg.sender] */\n      0x00\n        /* \"contracts/RussianRoullete.sol\":3611:3621  msg.sender */\n      caller\n        /* \"contracts/RussianRoullete.sol\":3600:3622  referrerOf[msg.sender] */\n      0xffffffffffffffffffffffffffffffffffffffff\n      and\n      0xffffffffffffffffffffffffffffffffffffffff\n      and\n      dup2\n      mstore\n      0x20\n      add\n      swap1\n      dup2\n      mstore\n      0x20\n      add\n      0x00\n      keccak256\n      0x00\n      swap1\n      sload\n      swap1\n      0x0100\n      exp\n      swap1\n      div\n      0xffffffffffffffffffffffffffffffffffffffff\n      and\n        /* \"contracts/RussianRoullete.sol\":3581:3622  address referrer = referrerOf[msg.sender] */\n      swap1\n      pop\n        /* \"contracts/RussianRoullete.sol\":3633:3652  uint256 referralFee */\n      0x00\n        /* \"contracts/RussianRoullete.sol\":3663:3679  uint256 cashback */\n      0x00\n        /* \"contracts/RussianRoullete.sol\":3716:3717  0 */\n      0x00\n        /* \"contracts/RussianRoullete.sol\":3696:3718  referrer != address(0) */\n      0xffffffffffffffffffffffffffffffffffffffff\n      and\n        /* \"contracts/RussianRoullete.sol\":3696:3704  referrer */\n      dup4\n        /* \"contracts/RussianRoullete.sol\":3696:3718  referrer != address(0) */\n      0xffffffffffffffffffffffffffffffffffffffff\n      and\n      eq\n        /* \"contracts/RussianRoullete.sol\":3692:3850  if (referrer != address(0)) {... */\n      tag_223\n      jumpi\n        /* \"contracts/RussianRoullete.sol\":3764:3769  10000 */\n      0x2710\n        /* \"contracts/RussianRoullete.sol\":3758:3760  10 */\n      0x0a\n        /* \"contracts/RussianRoullete.sol\":3750:3755  stake */\n      dup9\n        /* \"contracts/RussianRoullete.sol\":3750:3760  stake * 10 */\n      tag_224\n      swap2\n      swap1\n      tag_212\n      jump\t// in\n    tag_224:\n        /* \"contracts/RussianRoullete.sol\":3749:3769  (stake * 10) / 10000 */\n      tag_225\n      swap2\n      swap1\n      tag_214\n      jump\t// in\n    tag_225:\n        /* \"contracts/RussianRoullete.sol\":3735:3769  referralFee = (stake * 10) / 10000 */\n      swap2\n      pop\n        /* \"contracts/RussianRoullete.sol\":3823:3828  10000 */\n      0x2710\n        /* \"contracts/RussianRoullete.sol\":3817:3818  5 */\n      0x05\n        /* \"contracts/RussianRoullete.sol\":3809:3814  stake */\n      dup9\n        /* \"contracts/RussianRoullete.sol\":3809:3818  stake * 5 */\n      tag_226\n      swap2\n      swap1\n      tag_212\n      jump\t// in\n    tag_226:\n        /* \"contracts/RussianRoullete.sol\":3808:3828  (stake * 5)  / 10000 */\n      tag_227\n      swap2\n      swap1\n      tag_214\n      jump\t// in\n    tag_227:\n        /* \"contracts/RussianRoullete.sol\":3794:3828  cashback    = (stake * 5)  / 10000 */\n      swap1\n      pop\n        /* \"contracts/RussianRoullete.sol\":3692:3850  if (referrer != address(0)) {... */\n    tag_223:\n        /* \"contracts/RussianRoullete.sol\":3862:3883  uint256 amountToVault */\n      0x00\n        /* \"contracts/RussianRoullete.sol\":3908:3916  cashback */\n      dup2\n        /* \"contracts/RussianRoullete.sol\":3894:3905  referralFee */\n      dup4\n        /* \"contracts/RussianRoullete.sol\":3886:3891  stake */\n      dup10\n        /* \"contracts/RussianRoullete.sol\":3886:3905  stake - referralFee */\n      tag_228\n      swap2\n      swap1\n      tag_204\n      jump\t// in\n    tag_228:\n        /* \"contracts/RussianRoullete.sol\":3886:3916  stake - referralFee - cashback */\n      tag_229\n      swap2\n      swap1\n      tag_204\n      jump\t// in\n    tag_229:\n        /* \"contracts/RussianRoullete.sol\":3862:3916  uint256 amountToVault = stake - referralFee - cashback */\n      swap1\n      pop\n        /* \"contracts/RussianRoullete.sol\":3930:3942  bool success */\n      0x00\n        /* \"contracts/RussianRoullete.sol\":3964:3978  liquidityVault */\n      0x02\n      0x00\n      swap1\n      sload\n      swap1\n      0x0100\n      exp\n      swap1\n      div\n      0xffffffffffffffffffffffffffffffffffffffff\n      and\n        /* \"contracts/RussianRoullete.sol\":3948:3985  payable(address(liquidityVault)).call */\n      0xffffffffffffffffffffffffffffffffffffffff\n      and\n        /* \"contracts/RussianRoullete.sol\":3993:4006  amountToVault */\n      dup3\n        /* \"contracts/RussianRoullete.sol\":3948:4011  payable(address(liquidityVault)).call{value: amountToVault}(\"\") */\n      mload(0x40)\n      tag_230\n      swap1\n      tag_231\n      jump\t// in\n    tag_230:\n      0x00\n      mload(0x40)\n      dup1\n      dup4\n      sub\n      dup2\n      dup6\n      dup8\n      gas\n      call\n      swap3\n      pop\n      pop\n      pop\n      returndatasize\n      dup1\n      0x00\n      dup2\n      eq\n      tag_234\n      jumpi\n      mload(0x40)\n      swap2\n      pop\n      and(add(returndatasize, 0x3f), not(0x1f))\n      dup3\n      add\n      0x40\n      mstore\n      returndatasize\n      dup3\n      mstore\n      returndatasize\n      0x00\n      0x20\n      dup5\n      add\n      returndatacopy\n      jump(tag_233)\n    tag_234:\n      0x60\n      swap2\n      pop\n    tag_233:\n      pop\n        /* \"contracts/RussianRoullete.sol\":3929:4011  (bool success, ) = payable(address(liquidityVault)).call{value: amountToVault}(\"\") */\n      pop\n      swap1\n      pop\n        /* \"contracts/RussianRoullete.sol\":4027:4034  success */\n      dup1\n        /* \"contracts/RussianRoullete.sol\":4022:4066  if (!success) revert FailedToTransferStake() */\n      tag_235\n      jumpi\n        /* \"contracts/RussianRoullete.sol\":4043:4066  FailedToTransferStake() */\n      mload(0x40)\n      0x9716ce00000000000000000000000000000000000000000000000000000000\n      dup2\n      mstore\n      0x04\n      add\n      mload(0x40)\n      dup1\n      swap2\n      sub\n      swap1\n      revert\n        /* \"contracts/RussianRoullete.sol\":4022:4066  if (!success) revert FailedToTransferStake() */\n    tag_235:\n        /* \"contracts/RussianRoullete.sol\":4097:4098  0 */\n      0x00\n        /* \"contracts/RussianRoullete.sol\":4083:4094  referralFee */\n      dup5\n        /* \"contracts/RussianRoullete.sol\":4083:4098  referralFee > 0 */\n      gt\n        /* \"contracts/RussianRoullete.sol\":4079:4246  if (referralFee > 0) {... */\n      iszero\n      tag_236\n      jumpi\n        /* \"contracts/RussianRoullete.sol\":4137:4145  referrer */\n      dup5\n        /* \"contracts/RussianRoullete.sol\":4129:4151  payable(referrer).call */\n      0xffffffffffffffffffffffffffffffffffffffff\n      and\n        /* \"contracts/RussianRoullete.sol\":4159:4170  referralFee */\n      dup5\n        /* \"contracts/RussianRoullete.sol\":4129:4175  payable(referrer).call{value: referralFee}(\"\") */\n      mload(0x40)\n      tag_237\n      swap1\n      tag_231\n      jump\t// in\n    tag_237:\n      0x00\n      mload(0x40)\n      dup1\n      dup4\n      sub\n      dup2\n      dup6\n      dup8\n      gas\n      call\n      swap3\n      pop\n      pop\n      pop\n      returndatasize\n      dup1\n      0x00\n      dup2\n      eq\n      tag_240\n      jumpi\n      mload(0x40)\n      swap2\n      pop\n      and(add(returndatasize, 0x3f), not(0x1f))\n      dup3\n      add\n      0x40\n      mstore\n      returndatasize\n      dup3\n      mstore\n      returndatasize\n      0x00\n      0x20\n      dup5\n      add\n      returndatacopy\n      jump(tag_239)\n    tag_240:\n      0x60\n      swap2\n      pop\n    tag_239:\n      pop\n        /* \"contracts/RussianRoullete.sol\":4115:4175  (success, ) = payable(referrer).call{value: referralFee}(\"\") */\n      pop\n      dup1\n      swap2\n      pop\n      pop\n        /* \"contracts/RussianRoullete.sol\":4195:4202  success */\n      dup1\n        /* \"contracts/RussianRoullete.sol\":4190:4234  if (!success) revert FailedToTransferStake() */\n      tag_241\n      jumpi\n        /* \"contracts/RussianRoullete.sol\":4211:4234  FailedToTransferStake() */\n      mload(0x40)\n      0x9716ce00000000000000000000000000000000000000000000000000000000\n      dup2\n      mstore\n      0x04\n      add\n      mload(0x40)\n      dup1\n      swap2\n      sub\n      swap1\n      revert\n        /* \"contracts/RussianRoullete.sol\":4190:4234  if (!success) revert FailedToTransferStake() */\n    tag_241:\n        /* \"contracts/RussianRoullete.sol\":4079:4246  if (referralFee > 0) {... */\n    tag_236:\n        /* \"contracts/RussianRoullete.sol\":4273:4274  0 */\n      0x00\n        /* \"contracts/RussianRoullete.sol\":4262:4270  cashback */\n      dup4\n        /* \"contracts/RussianRoullete.sol\":4262:4274  cashback > 0 */\n      gt\n        /* \"contracts/RussianRoullete.sol\":4258:4421  if (cashback > 0) {... */\n      iszero\n      tag_242\n      jumpi\n        /* \"contracts/RussianRoullete.sol\":4313:4323  msg.sender */\n      caller\n        /* \"contracts/RussianRoullete.sol\":4305:4329  payable(msg.sender).call */\n      0xffffffffffffffffffffffffffffffffffffffff\n      and\n        /* \"contracts/RussianRoullete.sol\":4337:4345  cashback */\n      dup4\n        /* \"contracts/RussianRoullete.sol\":4305:4350  payable(msg.sender).call{value: cashback}(\"\") */\n      mload(0x40)\n      tag_243\n      swap1\n      tag_231\n      jump\t// in\n    tag_243:\n      0x00\n      mload(0x40)\n      dup1\n      dup4\n      sub\n      dup2\n      dup6\n      dup8\n      gas\n      call\n      swap3\n      pop\n      pop\n      pop\n      returndatasize\n      dup1\n      0x00\n      dup2\n      eq\n      tag_246\n      jumpi\n      mload(0x40)\n      swap2\n      pop\n      and(add(returndatasize, 0x3f), not(0x1f))\n      dup3\n      add\n      0x40\n      mstore\n      returndatasize\n      dup3\n      mstore\n      returndatasize\n      0x00\n      0x20\n      dup5\n      add\n      returndatacopy\n      jump(tag_245)\n    tag_246:\n      0x60\n      swap2\n      pop\n    tag_245:\n      pop\n        /* \"contracts/RussianRoullete.sol\":4291:4350  (success, ) = payable(msg.sender).call{value: cashback}(\"\") */\n      pop\n      dup1\n      swap2\n      pop\n      pop\n        /* \"contracts/RussianRoullete.sol\":4370:4377  success */\n      dup1\n        /* \"contracts/RussianRoullete.sol\":4365:4409  if (!success) revert FailedToTransferStake() */\n      tag_247\n      jumpi\n        /* \"contracts/RussianRoullete.sol\":4386:4409  FailedToTransferStake() */\n      mload(0x40)\n      0x9716ce00000000000000000000000000000000000000000000000000000000\n      dup2\n      mstore\n      0x04\n      add\n      mload(0x40)\n      dup1\n      swap2\n      sub\n      swap1\n      revert\n        /* \"contracts/RussianRoullete.sol\":4365:4409  if (!success) revert FailedToTransferStake() */\n    tag_247:\n        /* \"contracts/RussianRoullete.sol\":4258:4421  if (cashback > 0) {... */\n    tag_242:\n        /* \"contracts/RussianRoullete.sol\":4459:4490  Bet(msg.sender, stake, bullets) */\n      mload(0x40)\n      dup1\n      0x60\n      add\n      0x40\n      mstore\n      dup1\n        /* \"contracts/RussianRoullete.sol\":4463:4473  msg.sender */\n      caller\n        /* \"contracts/RussianRoullete.sol\":4459:4490  Bet(msg.sender, stake, bullets) */\n      0xffffffffffffffffffffffffffffffffffffffff\n      and\n      dup2\n      mstore\n      0x20\n      add\n        /* \"contracts/RussianRoullete.sol\":4475:4480  stake */\n      dup11\n        /* \"contracts/RussianRoullete.sol\":4459:4490  Bet(msg.sender, stake, bullets) */\n      dup2\n      mstore\n      0x20\n      add\n        /* \"contracts/RussianRoullete.sol\":4482:4489  bullets */\n      dup14\n        /* \"contracts/RussianRoullete.sol\":4459:4490  Bet(msg.sender, stake, bullets) */\n      0xff\n      and\n      dup2\n      mstore\n      pop\n        /* \"contracts/RussianRoullete.sol\":4441:4445  bets */\n      0x03\n        /* \"contracts/RussianRoullete.sol\":4441:4456  bets[requestId] */\n      0x00\n        /* \"contracts/RussianRoullete.sol\":4446:4455  requestId */\n      dup14\n        /* \"contracts/RussianRoullete.sol\":4441:4456  bets[requestId] */\n      dup2\n      mstore\n      0x20\n      add\n      swap1\n      dup2\n      mstore\n      0x20\n      add\n      0x00\n      keccak256\n        /* \"contracts/RussianRoullete.sol\":4441:4490  bets[requestId] = Bet(msg.sender, stake, bullets) */\n      0x00\n      dup3\n      add\n      mload\n      dup2\n      0x00\n      add\n      exp(0x0100, 0x00)\n      dup2\n      sload\n      dup2\n      0xffffffffffffffffffffffffffffffffffffffff\n      mul\n      not\n      and\n      swap1\n      dup4\n      0xffffffffffffffffffffffffffffffffffffffff\n      and\n      mul\n      or\n      swap1\n      sstore\n      pop\n      0x20\n      dup3\n      add\n      mload\n      dup2\n      0x01\n      add\n      sstore\n      0x40\n      dup3\n      add\n      mload\n      dup2\n      0x02\n      add\n      exp(0x0100, 0x00)\n      dup2\n      sload\n      dup2\n      0xff\n      mul\n      not\n      and\n      swap1\n      dup4\n      0xff\n      and\n      mul\n      or\n      swap1\n      sstore\n      pop\n      swap1\n      pop\n      pop\n        /* \"contracts/RussianRoullete.sol\":4501:4515  liquidityVault */\n      0x02\n      0x00\n      swap1\n      sload\n      swap1\n      0x0100\n      exp\n      swap1\n      div\n      0xffffffffffffffffffffffffffffffffffffffff\n      and\n        /* \"contracts/RussianRoullete.sol\":4501:4531  liquidityVault.increaseReserve */\n      0xffffffffffffffffffffffffffffffffffffffff\n      and\n      0x1fbf7c3e\n        /* \"contracts/RussianRoullete.sol\":4532:4537  stake */\n      dup11\n        /* \"contracts/RussianRoullete.sol\":4501:4538  liquidityVault.increaseReserve(stake) */\n      mload(0x40)\n      dup3\n      0xffffffff\n      and\n      0xe0\n      shl\n      dup2\n      mstore\n      0x04\n      add\n      tag_248\n      swap2\n      swap1\n      tag_68\n      jump\t// in\n    tag_248:\n      0x00\n      mload(0x40)\n      dup1\n      dup4\n      sub\n      dup2\n      0x00\n      dup8\n      dup1\n      extcodesize\n      iszero\n      dup1\n      iszero\n      tag_249\n      jumpi\n      revert(0x00, 0x00)\n    tag_249:\n      pop\n      gas\n      call\n      iszero\n      dup1\n      iszero\n      tag_251\n      jumpi\n      returndatacopy(0x00, 0x00, returndatasize)\n      revert(0x00, returndatasize)\n    tag_251:\n      pop\n      pop\n      pop\n      pop\n        /* \"contracts/RussianRoullete.sol\":4562:4567  stake */\n      dup9\n        /* \"contracts/RussianRoullete.sol\":4549:4558  totalBets */\n      0x0a\n      0x00\n        /* \"contracts/RussianRoullete.sol\":4549:4567  totalBets += stake */\n      dup3\n      dup3\n      sload\n      tag_252\n      swap2\n      swap1\n      tag_188\n      jump\t// in\n    tag_252:\n      swap3\n      pop\n      pop\n      dup2\n      swap1\n      sstore\n      pop\n        /* \"contracts/RussianRoullete.sol\":4598:4599  1 */\n      0x01\n        /* \"contracts/RussianRoullete.sol\":4578:4594  totalGamesPlayed */\n      0x0c\n      0x00\n        /* \"contracts/RussianRoullete.sol\":4578:4599  totalGamesPlayed += 1 */\n      dup3\n      dup3\n      sload\n      tag_253\n      swap2\n      swap1\n      tag_188\n      jump\t// in\n    tag_253:\n      swap3\n      pop\n      pop\n      dup2\n      swap1\n      sstore\n      pop\n        /* \"contracts/RussianRoullete.sol\":4652:4657  stake */\n      dup9\n        /* \"contracts/RussianRoullete.sol\":4610:4620  playerInfo */\n      0x07\n        /* \"contracts/RussianRoullete.sol\":4610:4632  playerInfo[msg.sender] */\n      0x00\n        /* \"contracts/RussianRoullete.sol\":4621:4631  msg.sender */\n      caller\n        /* \"contracts/RussianRoullete.sol\":4610:4632  playerInfo[msg.sender] */\n      0xffffffffffffffffffffffffffffffffffffffff\n      and\n      0xffffffffffffffffffffffffffffffffffffffff\n      and\n      dup2\n      mstore\n      0x20\n      add\n      swap1\n      dup2\n      mstore\n      0x20\n      add\n      0x00\n      keccak256\n        /* \"contracts/RussianRoullete.sol\":4610:4648  playerInfo[msg.sender].totalBetsAmount */\n      0x00\n      add\n      0x00\n        /* \"contracts/RussianRoullete.sol\":4610:4657  playerInfo[msg.sender].totalBetsAmount += stake */\n      dup3\n      dup3\n      sload\n      tag_254\n      swap2\n      swap1\n      tag_188\n      jump\t// in\n    tag_254:\n      swap3\n      pop\n      pop\n      dup2\n      swap1\n      sstore\n      pop\n        /* \"contracts/RussianRoullete.sol\":4711:4712  1 */\n      0x01\n        /* \"contracts/RussianRoullete.sol\":4668:4678  playerInfo */\n      0x07\n        /* \"contracts/RussianRoullete.sol\":4668:4690  playerInfo[msg.sender] */\n      0x00\n        /* \"contracts/RussianRoullete.sol\":4679:4689  msg.sender */\n      caller\n        /* \"contracts/RussianRoullete.sol\":4668:4690  playerInfo[msg.sender] */\n      0xffffffffffffffffffffffffffffffffffffffff\n      and\n      0xffffffffffffffffffffffffffffffffffffffff\n      and\n      dup2\n      mstore\n      0x20\n      add\n      swap1\n      dup2\n      mstore\n      0x20\n      add\n      0x00\n      keccak256\n        /* \"contracts/RussianRoullete.sol\":4668:4707  playerInfo[msg.sender].totalGamesPlayed */\n      0x02\n      add\n      0x00\n        /* \"contracts/RussianRoullete.sol\":4668:4712  playerInfo[msg.sender].totalGamesPlayed += 1 */\n      dup3\n      dup3\n      sload\n      tag_255\n      swap2\n      swap1\n      tag_188\n      jump\t// in\n    tag_255:\n      swap3\n      pop\n      pop\n      dup2\n      swap1\n      sstore\n      pop\n        /* \"contracts/RussianRoullete.sol\":4749:4759  msg.sender */\n      caller\n        /* \"contracts/RussianRoullete.sol\":4728:4776  BetPlaced(requestId, msg.sender, stake, bullets) */\n      0xffffffffffffffffffffffffffffffffffffffff\n      and\n        /* \"contracts/RussianRoullete.sol\":4738:4747  requestId */\n      dup12\n        /* \"contracts/RussianRoullete.sol\":4728:4776  BetPlaced(requestId, msg.sender, stake, bullets) */\n      0xe90186097616cbeb30ffc786b44501e1362f5e0a316a96c5ab82a0551f9d2f05\n        /* \"contracts/RussianRoullete.sol\":4761:4766  stake */\n      dup12\n        /* \"contracts/RussianRoullete.sol\":4768:4775  bullets */\n      dup16\n        /* \"contracts/RussianRoullete.sol\":4728:4776  BetPlaced(requestId, msg.sender, stake, bullets) */\n      mload(0x40)\n      tag_256\n      swap3\n      swap2\n      swap1\n      tag_257\n      jump\t// in\n    tag_256:\n      mload(0x40)\n      dup1\n      swap2\n      sub\n      swap1\n      log3\n        /* \"contracts/RussianRoullete.sol\":2604:4784  {... */\n      pop\n      pop\n      pop\n      pop\n      pop\n      pop\n      pop\n      pop\n      pop\n      pop\n        /* \"@openzeppelin/contracts/security/ReentrancyGuard.sol\":2303:2323  _nonReentrantAfter() */\n      tag_258\n        /* \"@openzeppelin/contracts/security/ReentrancyGuard.sol\":2303:2321  _nonReentrantAfter */\n      tag_259\n        /* \"@openzeppelin/contracts/security/ReentrancyGuard.sol\":2303:2323  _nonReentrantAfter() */\n      jump\t// in\n    tag_258:\n        /* \"contracts/RussianRoullete.sol\":2518:4784  function bet(uint8 bullets) external payable nonReentrant returns (uint256 requestId) {... */\n      swap2\n      swap1\n      pop\n      jump\t// out\n        /* \"contracts/RussianRoullete.sol\":1812:1857  mapping(address => address) public referrerOf */\n    tag_130:\n      mstore(0x20, 0x06)\n      dup1\n      0x00\n      mstore\n      keccak256(0x00, 0x40)\n      0x00\n      swap2\n      pop\n      sload\n      swap1\n      0x0100\n      exp\n      swap1\n      div\n      0xffffffffffffffffffffffffffffffffffffffff\n      and\n      dup2\n      jump\t// out\n        /* \"contracts/RussianRoullete.sol\":7141:7259  function getReferralCodeOf(address _user) public view returns(bytes32) {... */\n    tag_135:\n        /* \"contracts/RussianRoullete.sol\":7203:7210  bytes32 */\n      0x00\n        /* \"contracts/RussianRoullete.sol\":7230:7244  referralCodeOf */\n      0x05\n        /* \"contracts/RussianRoullete.sol\":7230:7251  referralCodeOf[_user] */\n      0x00\n        /* \"contracts/RussianRoullete.sol\":7245:7250  _user */\n      dup4\n        /* \"contracts/RussianRoullete.sol\":7230:7251  referralCodeOf[_user] */\n      0xffffffffffffffffffffffffffffffffffffffff\n      and\n      0xffffffffffffffffffffffffffffffffffffffff\n      and\n      dup2\n      mstore\n      0x20\n      add\n      swap1\n      dup2\n      mstore\n      0x20\n      add\n      0x00\n      keccak256\n      sload\n        /* \"contracts/RussianRoullete.sol\":7223:7251  return referralCodeOf[_user] */\n      swap1\n      pop\n        /* \"contracts/RussianRoullete.sol\":7141:7259  function getReferralCodeOf(address _user) public view returns(bytes32) {... */\n      swap2\n      swap1\n      pop\n      jump\t// out\n        /* \"contracts/RussianRoullete.sol\":2123:2168  uint256 public constant MAX_PAYOUT_BPS = 5000 */\n    tag_139:\n        /* \"contracts/RussianRoullete.sol\":2164:2168  5000 */\n      0x1388\n        /* \"contracts/RussianRoullete.sol\":2123:2168  uint256 public constant MAX_PAYOUT_BPS = 5000 */\n      dup2\n      jump\t// out\n        /* \"contracts/RussianRoullete.sol\":5994:6193  function setMaxPayoutBps(uint256 _newBps) external onlyOwner {... */\n    tag_144:\n        /* \"@openzeppelin/contracts/access/Ownable.sol\":1531:1544  _checkOwner() */\n      tag_262\n        /* \"@openzeppelin/contracts/access/Ownable.sol\":1531:1542  _checkOwner */\n      tag_174\n        /* \"@openzeppelin/contracts/access/Ownable.sol\":1531:1544  _checkOwner() */\n      jump\t// in\n    tag_262:\n        /* \"contracts/RussianRoullete.sol\":2164:2168  5000 */\n      0x1388\n        /* \"contracts/RussianRoullete.sol\":6070:6077  _newBps */\n      dup2\n        /* \"contracts/RussianRoullete.sol\":6070:6094  _newBps > MAX_PAYOUT_BPS */\n      gt\n        /* \"contracts/RussianRoullete.sol\":6066:6153  if (_newBps > MAX_PAYOUT_BPS) {... */\n      iszero\n      tag_264\n      jumpi\n        /* \"contracts/RussianRoullete.sol\":6118:6141  NewBPSExceedsMaxLimit() */\n      mload(0x40)\n      0xab551ce400000000000000000000000000000000000000000000000000000000\n      dup2\n      mstore\n      0x04\n      add\n      mload(0x40)\n      dup1\n      swap2\n      sub\n      swap1\n      revert\n        /* \"contracts/RussianRoullete.sol\":6066:6153  if (_newBps > MAX_PAYOUT_BPS) {... */\n    tag_264:\n        /* \"contracts/RussianRoullete.sol\":6178:6185  _newBps */\n      dup1\n        /* \"contracts/RussianRoullete.sol\":6163:6175  maxPayoutBps */\n      0x09\n        /* \"contracts/RussianRoullete.sol\":6163:6185  maxPayoutBps = _newBps */\n      dup2\n      swap1\n      sstore\n      pop\n        /* \"contracts/RussianRoullete.sol\":5994:6193  function setMaxPayoutBps(uint256 _newBps) external onlyOwner {... */\n      pop\n      jump\t// out\n        /* \"contracts/RussianRoullete.sol\":1917:1949  uint256 public houseFeeBps = 500 */\n    tag_147:\n      sload(0x08)\n      dup2\n      jump\t// out\n        /* \"@openzeppelin/contracts/access/Ownable.sol\":2543:2758  function transferOwnership(address newOwner) public virtual onlyOwner {... */\n    tag_152:\n        /* \"@openzeppelin/contracts/access/Ownable.sol\":1531:1544  _checkOwner() */\n      tag_266\n        /* \"@openzeppelin/contracts/access/Ownable.sol\":1531:1542  _checkOwner */\n      tag_174\n        /* \"@openzeppelin/contracts/access/Ownable.sol\":1531:1544  _checkOwner() */\n      jump\t// in\n    tag_266:\n        /* \"@openzeppelin/contracts/access/Ownable.sol\":2647:2648  0 */\n      0x00\n        /* \"@openzeppelin/contracts/access/Ownable.sol\":2627:2649  newOwner == address(0) */\n      0xffffffffffffffffffffffffffffffffffffffff\n      and\n        /* \"@openzeppelin/contracts/access/Ownable.sol\":2627:2635  newOwner */\n      dup2\n        /* \"@openzeppelin/contracts/access/Ownable.sol\":2627:2649  newOwner == address(0) */\n      0xffffffffffffffffffffffffffffffffffffffff\n      and\n      sub\n        /* \"@openzeppelin/contracts/access/Ownable.sol\":2623:2714  if (newOwner == address(0)) {... */\n      tag_268\n      jumpi\n        /* \"@openzeppelin/contracts/access/Ownable.sol\":2700:2701  0 */\n      0x00\n        /* \"@openzeppelin/contracts/access/Ownable.sol\":2672:2703  OwnableInvalidOwner(address(0)) */\n      mload(0x40)\n      0x1e4fbdf700000000000000000000000000000000000000000000000000000000\n      dup2\n      mstore\n      0x04\n      add\n      tag_269\n      swap2\n      swap1\n      tag_95\n      jump\t// in\n    tag_269:\n      mload(0x40)\n      dup1\n      swap2\n      sub\n      swap1\n      revert\n        /* \"@openzeppelin/contracts/access/Ownable.sol\":2623:2714  if (newOwner == address(0)) {... */\n    tag_268:\n        /* \"@openzeppelin/contracts/access/Ownable.sol\":2723:2751  _transferOwnership(newOwner) */\n      tag_270\n        /* \"@openzeppelin/contracts/access/Ownable.sol\":2742:2750  newOwner */\n      dup2\n        /* \"@openzeppelin/contracts/access/Ownable.sol\":2723:2741  _transferOwnership */\n      tag_181\n        /* \"@openzeppelin/contracts/access/Ownable.sol\":2723:2751  _transferOwnership(newOwner) */\n      jump\t// in\n    tag_270:\n        /* \"@openzeppelin/contracts/access/Ownable.sol\":2543:2758  function transferOwnership(address newOwner) public virtual onlyOwner {... */\n      pop\n      jump\t// out\n        /* \"contracts/RussianRoullete.sol\":1962:2010  uint256 public constant MAX_HOUSE_FEE_BPS = 2000 */\n    tag_155:\n        /* \"contracts/RussianRoullete.sol\":2006:2010  2000 */\n      0x07d0\n        /* \"contracts/RussianRoullete.sol\":1962:2010  uint256 public constant MAX_HOUSE_FEE_BPS = 2000 */\n      dup2\n      jump\t// out\n        /* \"contracts/RussianRoullete.sol\":7265:7385  function getAddressByCode(bytes32 _code) public view returns(address) {... */\n    tag_160:\n        /* \"contracts/RussianRoullete.sol\":7326:7333  address */\n      0x00\n        /* \"contracts/RussianRoullete.sol\":7353:7370  referralCodeOwner */\n      0x04\n        /* \"contracts/RussianRoullete.sol\":7353:7377  referralCodeOwner[_code] */\n      0x00\n        /* \"contracts/RussianRoullete.sol\":7371:7376  _code */\n      dup4\n        /* \"contracts/RussianRoullete.sol\":7353:7377  referralCodeOwner[_code] */\n      dup2\n      mstore\n      0x20\n      add\n      swap1\n      dup2\n      mstore\n      0x20\n      add\n      0x00\n      keccak256\n      0x00\n      swap1\n      sload\n      swap1\n      0x0100\n      exp\n      swap1\n      div\n      0xffffffffffffffffffffffffffffffffffffffff\n      and\n        /* \"contracts/RussianRoullete.sol\":7346:7377  return referralCodeOwner[_code] */\n      swap1\n      pop\n        /* \"contracts/RussianRoullete.sol\":7265:7385  function getAddressByCode(bytes32 _code) public view returns(address) {... */\n      swap2\n      swap1\n      pop\n      jump\t// out\n        /* \"contracts/RussianRoullete.sol\":4792:5783  function _fulfillRandomWords(uint256 requestId, uint256[] calldata randomWords) internal override {... */\n    tag_168:\n        /* \"contracts/RussianRoullete.sol\":4901:4913  Bet memory b */\n      0x00\n        /* \"contracts/RussianRoullete.sol\":4916:4920  bets */\n      0x03\n        /* \"contracts/RussianRoullete.sol\":4916:4931  bets[requestId] */\n      0x00\n        /* \"contracts/RussianRoullete.sol\":4921:4930  requestId */\n      dup6\n        /* \"contracts/RussianRoullete.sol\":4916:4931  bets[requestId] */\n      dup2\n      mstore\n      0x20\n      add\n      swap1\n      dup2\n      mstore\n      0x20\n      add\n      0x00\n      keccak256\n        /* \"contracts/RussianRoullete.sol\":4901:4931  Bet memory b = bets[requestId] */\n      mload(0x40)\n      dup1\n      0x60\n      add\n      0x40\n      mstore\n      swap1\n      dup2\n      0x00\n      dup3\n      add\n      0x00\n      swap1\n      sload\n      swap1\n      0x0100\n      exp\n      swap1\n      div\n      0xffffffffffffffffffffffffffffffffffffffff\n      and\n      0xffffffffffffffffffffffffffffffffffffffff\n      and\n      0xffffffffffffffffffffffffffffffffffffffff\n      and\n      dup2\n      mstore\n      0x20\n      add\n      0x01\n      dup3\n      add\n      sload\n      dup2\n      mstore\n      0x20\n      add\n      0x02\n      dup3\n      add\n      0x00\n      swap1\n      sload\n      swap1\n      0x0100\n      exp\n      swap1\n      div\n      0xff\n      and\n      0xff\n      and\n      0xff\n      and\n      dup2\n      mstore\n      pop\n      pop\n      swap1\n      pop\n        /* \"contracts/RussianRoullete.sol\":4966:4967  0 */\n      0x00\n        /* \"contracts/RussianRoullete.sol\":4946:4968  b.player == address(0) */\n      0xffffffffffffffffffffffffffffffffffffffff\n      and\n        /* \"contracts/RussianRoullete.sol\":4946:4947  b */\n      dup2\n        /* \"contracts/RussianRoullete.sol\":4946:4954  b.player */\n      0x00\n      add\n      mload\n        /* \"contracts/RussianRoullete.sol\":4946:4968  b.player == address(0) */\n      0xffffffffffffffffffffffffffffffffffffffff\n      and\n      sub\n        /* \"contracts/RussianRoullete.sol\":4942:5017  if (b.player == address(0)) {... */\n      tag_273\n      jumpi\n        /* \"contracts/RussianRoullete.sol\":4992:5005  BetNotFound() */\n      mload(0x40)\n      0x469bfa9100000000000000000000000000000000000000000000000000000000\n      dup2\n      mstore\n      0x04\n      add\n      mload(0x40)\n      dup1\n      swap2\n      sub\n      swap1\n      revert\n        /* \"contracts/RussianRoullete.sol\":4942:5017  if (b.player == address(0)) {... */\n    tag_273:\n        /* \"contracts/RussianRoullete.sol\":5029:5041  uint256 spin */\n      0x00\n        /* \"contracts/RussianRoullete.sol\":5061:5062  6 */\n      0x06\n        /* \"contracts/RussianRoullete.sol\":5044:5055  randomWords */\n      dup5\n      dup5\n        /* \"contracts/RussianRoullete.sol\":5056:5057  0 */\n      0x00\n        /* \"contracts/RussianRoullete.sol\":5044:5058  randomWords[0] */\n      dup2\n      dup2\n      lt\n      tag_274\n      jumpi\n      tag_275\n      tag_276\n      jump\t// in\n    tag_275:\n    tag_274:\n      swap1\n      pop\n      0x20\n      mul\n      add\n      calldataload\n        /* \"contracts/RussianRoullete.sol\":5044:5062  randomWords[0] % 6 */\n      tag_277\n      swap2\n      swap1\n      tag_278\n      jump\t// in\n    tag_277:\n        /* \"contracts/RussianRoullete.sol\":5029:5062  uint256 spin = randomWords[0] % 6 */\n      swap1\n      pop\n        /* \"contracts/RussianRoullete.sol\":5073:5083  bool alive */\n      0x00\n        /* \"contracts/RussianRoullete.sol\":5094:5095  b */\n      dup3\n        /* \"contracts/RussianRoullete.sol\":5094:5103  b.bullets */\n      0x40\n      add\n      mload\n        /* \"contracts/RussianRoullete.sol\":5086:5103  spin >= b.bullets */\n      0xff\n      and\n        /* \"contracts/RussianRoullete.sol\":5086:5090  spin */\n      dup3\n        /* \"contracts/RussianRoullete.sol\":5086:5103  spin >= b.bullets */\n      lt\n      iszero\n        /* \"contracts/RussianRoullete.sol\":5073:5103  bool alive = spin >= b.bullets */\n      swap1\n      pop\n        /* \"contracts/RussianRoullete.sol\":5114:5128  uint256 payout */\n      0x00\n        /* \"contracts/RussianRoullete.sol\":5131:5132  0 */\n      0x00\n        /* \"contracts/RussianRoullete.sol\":5114:5132  uint256 payout = 0 */\n      swap1\n      pop\n        /* \"contracts/RussianRoullete.sol\":5149:5154  alive */\n      dup2\n        /* \"contracts/RussianRoullete.sol\":5145:5426  if (alive) {... */\n      iszero\n      tag_279\n      jumpi\n        /* \"contracts/RussianRoullete.sol\":5171:5189  uint256 fairPayout */\n      0x00\n        /* \"contracts/RussianRoullete.sol\":5214:5215  b */\n      dup5\n        /* \"contracts/RussianRoullete.sol\":5214:5223  b.bullets */\n      0x40\n      add\n      mload\n        /* \"contracts/RussianRoullete.sol\":5210:5211  6 */\n      0x06\n        /* \"contracts/RussianRoullete.sol\":5210:5223  6 - b.bullets */\n      tag_280\n      swap2\n      swap1\n      tag_210\n      jump\t// in\n    tag_280:\n        /* \"contracts/RussianRoullete.sol\":5192:5224  (b.amount * 6) / (6 - b.bullets) */\n      0xff\n      and\n        /* \"contracts/RussianRoullete.sol\":5204:5205  6 */\n      0x06\n        /* \"contracts/RussianRoullete.sol\":5193:5194  b */\n      dup7\n        /* \"contracts/RussianRoullete.sol\":5193:5201  b.amount */\n      0x20\n      add\n      mload\n        /* \"contracts/RussianRoullete.sol\":5193:5205  b.amount * 6 */\n      tag_281\n      swap2\n      swap1\n      tag_212\n      jump\t// in\n    tag_281:\n        /* \"contracts/RussianRoullete.sol\":5192:5224  (b.amount * 6) / (6 - b.bullets) */\n      tag_282\n      swap2\n      swap1\n      tag_214\n      jump\t// in\n    tag_282:\n        /* \"contracts/RussianRoullete.sol\":5171:5224  uint256 fairPayout = (b.amount * 6) / (6 - b.bullets) */\n      swap1\n      pop\n        /* \"contracts/RussianRoullete.sol\":5239:5250  uint256 fee */\n      0x00\n        /* \"contracts/RussianRoullete.sol\":5282:5287  10000 */\n      0x2710\n        /* \"contracts/RussianRoullete.sol\":5267:5278  houseFeeBps */\n      sload(0x08)\n        /* \"contracts/RussianRoullete.sol\":5254:5264  fairPayout */\n      dup4\n        /* \"contracts/RussianRoullete.sol\":5254:5278  fairPayout * houseFeeBps */\n      tag_283\n      swap2\n      swap1\n      tag_212\n      jump\t// in\n    tag_283:\n        /* \"contracts/RussianRoullete.sol\":5253:5287  (fairPayout * houseFeeBps) / 10000 */\n      tag_284\n      swap2\n      swap1\n      tag_214\n      jump\t// in\n    tag_284:\n        /* \"contracts/RussianRoullete.sol\":5239:5287  uint256 fee = (fairPayout * houseFeeBps) / 10000 */\n      swap1\n      pop\n        /* \"contracts/RussianRoullete.sol\":5324:5327  fee */\n      dup1\n        /* \"contracts/RussianRoullete.sol\":5311:5321  fairPayout */\n      dup3\n        /* \"contracts/RussianRoullete.sol\":5311:5327  fairPayout - fee */\n      tag_285\n      swap2\n      swap1\n      tag_204\n      jump\t// in\n    tag_285:\n        /* \"contracts/RussianRoullete.sol\":5302:5327  payout = fairPayout - fee */\n      swap3\n      pop\n        /* \"contracts/RussianRoullete.sol\":5380:5381  1 */\n      0x01\n        /* \"contracts/RussianRoullete.sol\":5342:5352  playerInfo */\n      0x07\n        /* \"contracts/RussianRoullete.sol\":5342:5362  playerInfo[b.player] */\n      0x00\n        /* \"contracts/RussianRoullete.sol\":5353:5354  b */\n      dup9\n        /* \"contracts/RussianRoullete.sol\":5353:5361  b.player */\n      0x00\n      add\n      mload\n        /* \"contracts/RussianRoullete.sol\":5342:5362  playerInfo[b.player] */\n      0xffffffffffffffffffffffffffffffffffffffff\n      and\n      0xffffffffffffffffffffffffffffffffffffffff\n      and\n      dup2\n      mstore\n      0x20\n      add\n      swap1\n      dup2\n      mstore\n      0x20\n      add\n      0x00\n      keccak256\n        /* \"contracts/RussianRoullete.sol\":5342:5376  playerInfo[b.player].totalGamesWon */\n      0x03\n      add\n      0x00\n        /* \"contracts/RussianRoullete.sol\":5342:5381  playerInfo[b.player].totalGamesWon += 1 */\n      dup3\n      dup3\n      sload\n      tag_286\n      swap2\n      swap1\n      tag_188\n      jump\t// in\n    tag_286:\n      swap3\n      pop\n      pop\n      dup2\n      swap1\n      sstore\n      pop\n        /* \"contracts/RussianRoullete.sol\":5413:5414  1 */\n      0x01\n        /* \"contracts/RussianRoullete.sol\":5396:5409  totalGamesWon */\n      0x0d\n      0x00\n        /* \"contracts/RussianRoullete.sol\":5396:5414  totalGamesWon += 1 */\n      dup3\n      dup3\n      sload\n      tag_287\n      swap2\n      swap1\n      tag_188\n      jump\t// in\n    tag_287:\n      swap3\n      pop\n      pop\n      dup2\n      swap1\n      sstore\n      pop\n        /* \"contracts/RussianRoullete.sol\":5156:5426  {... */\n      pop\n      pop\n        /* \"contracts/RussianRoullete.sol\":5145:5426  if (alive) {... */\n    tag_279:\n        /* \"contracts/RussianRoullete.sol\":5445:5449  bets */\n      0x03\n        /* \"contracts/RussianRoullete.sol\":5445:5460  bets[requestId] */\n      0x00\n        /* \"contracts/RussianRoullete.sol\":5450:5459  requestId */\n      dup9\n        /* \"contracts/RussianRoullete.sol\":5445:5460  bets[requestId] */\n      dup2\n      mstore\n      0x20\n      add\n      swap1\n      dup2\n      mstore\n      0x20\n      add\n      0x00\n      keccak256\n      0x00\n        /* \"contracts/RussianRoullete.sol\":5438:5460  delete bets[requestId] */\n      0x00\n      dup3\n      add\n      exp(0x0100, 0x00)\n      dup2\n      sload\n      swap1\n      0xffffffffffffffffffffffffffffffffffffffff\n      mul\n      not\n      and\n      swap1\n      sstore\n      0x01\n      dup3\n      add\n      0x00\n      swap1\n      sstore\n      0x02\n      dup3\n      add\n      exp(0x0100, 0x00)\n      dup2\n      sload\n      swap1\n      0xff\n      mul\n      not\n      and\n      swap1\n      sstore\n      pop\n      pop\n        /* \"contracts/RussianRoullete.sol\":5486:5487  0 */\n      0x00\n        /* \"contracts/RussianRoullete.sol\":5477:5483  payout */\n      dup2\n        /* \"contracts/RussianRoullete.sol\":5477:5487  payout > 0 */\n      gt\n        /* \"contracts/RussianRoullete.sol\":5473:5648  if (payout > 0) {... */\n      iszero\n      tag_288\n      jumpi\n        /* \"contracts/RussianRoullete.sol\":5504:5518  liquidityVault */\n      0x02\n      0x00\n      swap1\n      sload\n      swap1\n      0x0100\n      exp\n      swap1\n      div\n      0xffffffffffffffffffffffffffffffffffffffff\n      and\n        /* \"contracts/RussianRoullete.sol\":5504:5525  liquidityVault.payout */\n      0xffffffffffffffffffffffffffffffffffffffff\n      and\n      0x117de2fd\n        /* \"contracts/RussianRoullete.sol\":5526:5527  b */\n      dup6\n        /* \"contracts/RussianRoullete.sol\":5526:5534  b.player */\n      0x00\n      add\n      mload\n        /* \"contracts/RussianRoullete.sol\":5536:5542  payout */\n      dup4\n        /* \"contracts/RussianRoullete.sol\":5504:5543  liquidityVault.payout(b.player, payout) */\n      mload(0x40)\n      dup4\n      0xffffffff\n      and\n      0xe0\n      shl\n      dup2\n      mstore\n      0x04\n      add\n      tag_289\n      swap3\n      swap2\n      swap1\n      tag_290\n      jump\t// in\n    tag_289:\n      0x00\n      mload(0x40)\n      dup1\n      dup4\n      sub\n      dup2\n      0x00\n      dup8\n      dup1\n      extcodesize\n      iszero\n      dup1\n      iszero\n      tag_291\n      jumpi\n      revert(0x00, 0x00)\n    tag_291:\n      pop\n      gas\n      call\n      iszero\n      dup1\n      iszero\n      tag_293\n      jumpi\n      returndatacopy(0x00, 0x00, returndatasize)\n      revert(0x00, returndatasize)\n    tag_293:\n      pop\n      pop\n      pop\n      pop\n        /* \"contracts/RussianRoullete.sol\":5573:5579  payout */\n      dup1\n        /* \"contracts/RussianRoullete.sol\":5558:5569  totalPayout */\n      0x0b\n      0x00\n        /* \"contracts/RussianRoullete.sol\":5558:5579  totalPayout += payout */\n      dup3\n      dup3\n      sload\n      tag_294\n      swap2\n      swap1\n      tag_188\n      jump\t// in\n    tag_294:\n      swap3\n      pop\n      pop\n      dup2\n      swap1\n      sstore\n      pop\n        /* \"contracts/RussianRoullete.sol\":5630:5636  payout */\n      dup1\n        /* \"contracts/RussianRoullete.sol\":5594:5604  playerInfo */\n      0x07\n        /* \"contracts/RussianRoullete.sol\":5594:5614  playerInfo[b.player] */\n      0x00\n        /* \"contracts/RussianRoullete.sol\":5605:5606  b */\n      dup7\n        /* \"contracts/RussianRoullete.sol\":5605:5613  b.player */\n      0x00\n      add\n      mload\n        /* \"contracts/RussianRoullete.sol\":5594:5614  playerInfo[b.player] */\n      0xffffffffffffffffffffffffffffffffffffffff\n      and\n      0xffffffffffffffffffffffffffffffffffffffff\n      and\n      dup2\n      mstore\n      0x20\n      add\n      swap1\n      dup2\n      mstore\n      0x20\n      add\n      0x00\n      keccak256\n        /* \"contracts/RussianRoullete.sol\":5594:5626  playerInfo[b.player].totalPayout */\n      0x01\n      add\n      0x00\n        /* \"contracts/RussianRoullete.sol\":5594:5636  playerInfo[b.player].totalPayout += payout */\n      dup3\n      dup3\n      sload\n      tag_295\n      swap2\n      swap1\n      tag_188\n      jump\t// in\n    tag_295:\n      swap3\n      pop\n      pop\n      dup2\n      swap1\n      sstore\n      pop\n        /* \"contracts/RussianRoullete.sol\":5473:5648  if (payout > 0) {... */\n    tag_288:\n        /* \"contracts/RussianRoullete.sol\":5658:5672  liquidityVault */\n      0x02\n      0x00\n      swap1\n      sload\n      swap1\n      0x0100\n      exp\n      swap1\n      div\n      0xffffffffffffffffffffffffffffffffffffffff\n      and\n        /* \"contracts/RussianRoullete.sol\":5658:5688  liquidityVault.decreaseReserve */\n      0xffffffffffffffffffffffffffffffffffffffff\n      and\n      0xbff8a36d\n        /* \"contracts/RussianRoullete.sol\":5689:5690  b */\n      dup6\n        /* \"contracts/RussianRoullete.sol\":5689:5697  b.amount */\n      0x20\n      add\n      mload\n        /* \"contracts/RussianRoullete.sol\":5658:5698  liquidityVault.decreaseReserve(b.amount) */\n      mload(0x40)\n      dup3\n      0xffffffff\n      and\n      0xe0\n      shl\n      dup2\n      mstore\n      0x04\n      add\n      tag_296\n      swap2\n      swap1\n      tag_68\n      jump\t// in\n    tag_296:\n      0x00\n      mload(0x40)\n      dup1\n      dup4\n      sub\n      dup2\n      0x00\n      dup8\n      dup1\n      extcodesize\n      iszero\n      dup1\n      iszero\n      tag_297\n      jumpi\n      revert(0x00, 0x00)\n    tag_297:\n      pop\n      gas\n      call\n      iszero\n      dup1\n      iszero\n      tag_299\n      jumpi\n      returndatacopy(0x00, 0x00, returndatasize)\n      revert(0x00, returndatasize)\n    tag_299:\n      pop\n      pop\n      pop\n      pop\n        /* \"contracts/RussianRoullete.sol\":5735:5736  b */\n      dup4\n        /* \"contracts/RussianRoullete.sol\":5735:5743  b.player */\n      0x00\n      add\n      mload\n        /* \"contracts/RussianRoullete.sol\":5714:5775  BetResult(requestId, b.player, alive, spin, b.amount, payout) */\n      0xffffffffffffffffffffffffffffffffffffffff\n      and\n        /* \"contracts/RussianRoullete.sol\":5724:5733  requestId */\n      dup8\n        /* \"contracts/RussianRoullete.sol\":5714:5775  BetResult(requestId, b.player, alive, spin, b.amount, payout) */\n      0xf080ca67b108fbad70bb5fbbf685238b9880f8adf09f3b5838058b9645d2d6fb\n        /* \"contracts/RussianRoullete.sol\":5745:5750  alive */\n      dup5\n        /* \"contracts/RussianRoullete.sol\":5752:5756  spin */\n      dup7\n        /* \"contracts/RussianRoullete.sol\":5758:5759  b */\n      dup9\n        /* \"contracts/RussianRoullete.sol\":5758:5766  b.amount */\n      0x20\n      add\n      mload\n        /* \"contracts/RussianRoullete.sol\":5768:5774  payout */\n      dup7\n        /* \"contracts/RussianRoullete.sol\":5714:5775  BetResult(requestId, b.player, alive, spin, b.amount, payout) */\n      mload(0x40)\n      tag_300\n      swap5\n      swap4\n      swap3\n      swap2\n      swap1\n      tag_301\n      jump\t// in\n    tag_300:\n      mload(0x40)\n      dup1\n      swap2\n      sub\n      swap1\n      log3\n        /* \"contracts/RussianRoullete.sol\":4890:5783  {... */\n      pop\n      pop\n      pop\n      pop\n        /* \"contracts/RussianRoullete.sol\":4792:5783  function _fulfillRandomWords(uint256 requestId, uint256[] calldata randomWords) internal override {... */\n      pop\n      pop\n      pop\n      jump\t// out\n        /* \"@openzeppelin/contracts/access/Ownable.sol\":1796:1958  function _checkOwner() internal view virtual {... */\n    tag_174:\n        /* \"@openzeppelin/contracts/access/Ownable.sol\":1866:1878  _msgSender() */\n      tag_303\n        /* \"@openzeppelin/contracts/access/Ownable.sol\":1866:1876  _msgSender */\n      tag_304\n        /* \"@openzeppelin/contracts/access/Ownable.sol\":1866:1878  _msgSender() */\n      jump\t// in\n    tag_303:\n        /* \"@openzeppelin/contracts/access/Ownable.sol\":1855:1878  owner() != _msgSender() */\n      0xffffffffffffffffffffffffffffffffffffffff\n      and\n        /* \"@openzeppelin/contracts/access/Ownable.sol\":1855:1862  owner() */\n      tag_305\n        /* \"@openzeppelin/contracts/access/Ownable.sol\":1855:1860  owner */\n      tag_93\n        /* \"@openzeppelin/contracts/access/Ownable.sol\":1855:1862  owner() */\n      jump\t// in\n    tag_305:\n        /* \"@openzeppelin/contracts/access/Ownable.sol\":1855:1878  owner() != _msgSender() */\n      0xffffffffffffffffffffffffffffffffffffffff\n      and\n      eq\n        /* \"@openzeppelin/contracts/access/Ownable.sol\":1851:1952  if (owner() != _msgSender()) {... */\n      tag_306\n      jumpi\n        /* \"@openzeppelin/contracts/access/Ownable.sol\":1928:1940  _msgSender() */\n      tag_307\n        /* \"@openzeppelin/contracts/access/Ownable.sol\":1928:1938  _msgSender */\n      tag_304\n        /* \"@openzeppelin/contracts/access/Ownable.sol\":1928:1940  _msgSender() */\n      jump\t// in\n    tag_307:\n        /* \"@openzeppelin/contracts/access/Ownable.sol\":1901:1941  OwnableUnauthorizedAccount(_msgSender()) */\n      mload(0x40)\n      0x118cdaa700000000000000000000000000000000000000000000000000000000\n      dup2\n      mstore\n      0x04\n      add\n      tag_308\n      swap2\n      swap1\n      tag_95\n      jump\t// in\n    tag_308:\n      mload(0x40)\n      dup1\n      swap2\n      sub\n      swap1\n      revert\n        /* \"@openzeppelin/contracts/access/Ownable.sol\":1851:1952  if (owner() != _msgSender()) {... */\n    tag_306:\n        /* \"@openzeppelin/contracts/access/Ownable.sol\":1796:1958  function _checkOwner() internal view virtual {... */\n      jump\t// out\n        /* \"@openzeppelin/contracts/access/Ownable.sol\":2912:3099  function _transferOwnership(address newOwner) internal virtual {... */\n    tag_181:\n        /* \"@openzeppelin/contracts/access/Ownable.sol\":2985:3001  address oldOwner */\n      0x00\n        /* \"@openzeppelin/contracts/access/Ownable.sol\":3004:3010  _owner */\n      0x00\n      0x00\n      swap1\n      sload\n      swap1\n      0x0100\n      exp\n      swap1\n      div\n      0xffffffffffffffffffffffffffffffffffffffff\n      and\n        /* \"@openzeppelin/contracts/access/Ownable.sol\":2985:3010  address oldOwner = _owner */\n      swap1\n      pop\n        /* \"@openzeppelin/contracts/access/Ownable.sol\":3029:3037  newOwner */\n      dup2\n        /* \"@openzeppelin/contracts/access/Ownable.sol\":3020:3026  _owner */\n      0x00\n      0x00\n        /* \"@openzeppelin/contracts/access/Ownable.sol\":3020:3037  _owner = newOwner */\n      0x0100\n      exp\n      dup2\n      sload\n      dup2\n      0xffffffffffffffffffffffffffffffffffffffff\n      mul\n      not\n      and\n      swap1\n      dup4\n      0xffffffffffffffffffffffffffffffffffffffff\n      and\n      mul\n      or\n      swap1\n      sstore\n      pop\n        /* \"@openzeppelin/contracts/access/Ownable.sol\":3083:3091  newOwner */\n      dup2\n        /* \"@openzeppelin/contracts/access/Ownable.sol\":3052:3092  OwnershipTransferred(oldOwner, newOwner) */\n      0xffffffffffffffffffffffffffffffffffffffff\n      and\n        /* \"@openzeppelin/contracts/access/Ownable.sol\":3073:3081  oldOwner */\n      dup2\n        /* \"@openzeppelin/contracts/access/Ownable.sol\":3052:3092  OwnershipTransferred(oldOwner, newOwner) */\n      0xffffffffffffffffffffffffffffffffffffffff\n      and\n      0x8be0079c531659141344cd1fd0a4f28419497f9722a3daafe3b4186f6b6457e0\n      mload(0x40)\n      mload(0x40)\n      dup1\n      swap2\n      sub\n      swap1\n      log3\n        /* \"@openzeppelin/contracts/access/Ownable.sol\":2975:3099  {... */\n      pop\n        /* \"@openzeppelin/contracts/access/Ownable.sol\":2912:3099  function _transferOwnership(address newOwner) internal virtual {... */\n      pop\n      jump\t// out\n        /* \"@openzeppelin/contracts/security/ReentrancyGuard.sol\":2336:2623  function _nonReentrantBefore() private {... */\n    tag_192:\n        /* \"@openzeppelin/contracts/security/ReentrancyGuard.sol\":1759:1760  2 */\n      0x02\n        /* \"@openzeppelin/contracts/security/ReentrancyGuard.sol\":2468:2475  _status */\n      sload(0x01)\n        /* \"@openzeppelin/contracts/security/ReentrancyGuard.sol\":2468:2487  _status != _ENTERED */\n      sub\n        /* \"@openzeppelin/contracts/security/ReentrancyGuard.sol\":2460:2523  require(_status != _ENTERED, \"ReentrancyGuard: reentrant call\") */\n      tag_311\n      jumpi\n      mload(0x40)\n      0x08c379a000000000000000000000000000000000000000000000000000000000\n      dup2\n      mstore\n      0x04\n      add\n      tag_312\n      swap1\n      tag_313\n      jump\t// in\n    tag_312:\n      mload(0x40)\n      dup1\n      swap2\n      sub\n      swap1\n      revert\n    tag_311:\n        /* \"@openzeppelin/contracts/security/ReentrancyGuard.sol\":1759:1760  2 */\n      0x02\n        /* \"@openzeppelin/contracts/security/ReentrancyGuard.sol\":2598:2605  _status */\n      0x01\n        /* \"@openzeppelin/contracts/security/ReentrancyGuard.sol\":2598:2616  _status = _ENTERED */\n      dup2\n      swap1\n      sstore\n      pop\n        /* \"@openzeppelin/contracts/security/ReentrancyGuard.sol\":2336:2623  function _nonReentrantBefore() private {... */\n      jump\t// out\n        /* \"@openzeppelin/contracts/security/ReentrancyGuard.sol\":2629:2838  function _nonReentrantAfter() private {... */\n    tag_259:\n        /* \"@openzeppelin/contracts/security/ReentrancyGuard.sol\":1716:1717  1 */\n      0x01\n        /* \"@openzeppelin/contracts/security/ReentrancyGuard.sol\":2809:2816  _status */\n      dup1\n        /* \"@openzeppelin/contracts/security/ReentrancyGuard.sol\":2809:2831  _status = _NOT_ENTERED */\n      dup2\n      swap1\n      sstore\n      pop\n        /* \"@openzeppelin/contracts/security/ReentrancyGuard.sol\":2629:2838  function _nonReentrantAfter() private {... */\n      jump\t// out\n        /* \"@openzeppelin/contracts/utils/Context.sol\":656:752  function _msgSender() internal view virtual returns (address) {... */\n    tag_304:\n        /* \"@openzeppelin/contracts/utils/Context.sol\":709:716  address */\n      0x00\n        /* \"@openzeppelin/contracts/utils/Context.sol\":735:745  msg.sender */\n      caller\n        /* \"@openzeppelin/contracts/utils/Context.sol\":728:745  return msg.sender */\n      swap1\n      pop\n        /* \"@openzeppelin/contracts/utils/Context.sol\":656:752  function _msgSender() internal view virtual returns (address) {... */\n      swap1\n      jump\t// out\n        /* \"#utility.yul\":88:205   */\n    tag_317:\n        /* \"#utility.yul\":197:198   */\n      0x00\n        /* \"#utility.yul\":194:195   */\n      0x00\n        /* \"#utility.yul\":187:199   */\n      revert\n        /* \"#utility.yul\":211:328   */\n    tag_318:\n        /* \"#utility.yul\":320:321   */\n      0x00\n        /* \"#utility.yul\":317:318   */\n      0x00\n        /* \"#utility.yul\":310:322   */\n      revert\n        /* \"#utility.yul\":334:411   */\n    tag_319:\n        /* \"#utility.yul\":371:378   */\n      0x00\n        /* \"#utility.yul\":400:405   */\n      dup2\n        /* \"#utility.yul\":389:405   */\n      swap1\n      pop\n        /* \"#utility.yul\":334:411   */\n      swap2\n      swap1\n      pop\n      jump\t// out\n        /* \"#utility.yul\":417:539   */\n    tag_320:\n        /* \"#utility.yul\":490:514   */\n      tag_369\n        /* \"#utility.yul\":508:513   */\n      dup2\n        /* \"#utility.yul\":490:514   */\n      tag_319\n      jump\t// in\n    tag_369:\n        /* \"#utility.yul\":483:488   */\n      dup2\n        /* \"#utility.yul\":480:515   */\n      eq\n        /* \"#utility.yul\":470:533   */\n      tag_370\n      jumpi\n        /* \"#utility.yul\":529:530   */\n      0x00\n        /* \"#utility.yul\":526:527   */\n      0x00\n        /* \"#utility.yul\":519:531   */\n      revert\n        /* \"#utility.yul\":470:533   */\n    tag_370:\n        /* \"#utility.yul\":417:539   */\n      pop\n      jump\t// out\n        /* \"#utility.yul\":545:684   */\n    tag_321:\n        /* \"#utility.yul\":591:596   */\n      0x00\n        /* \"#utility.yul\":629:635   */\n      dup2\n        /* \"#utility.yul\":616:636   */\n      calldataload\n        /* \"#utility.yul\":607:636   */\n      swap1\n      pop\n        /* \"#utility.yul\":645:678   */\n      tag_372\n        /* \"#utility.yul\":672:677   */\n      dup2\n        /* \"#utility.yul\":645:678   */\n      tag_320\n      jump\t// in\n    tag_372:\n        /* \"#utility.yul\":545:684   */\n      swap3\n      swap2\n      pop\n      pop\n      jump\t// out\n        /* \"#utility.yul\":690:807   */\n    tag_322:\n        /* \"#utility.yul\":799:800   */\n      0x00\n        /* \"#utility.yul\":796:797   */\n      0x00\n        /* \"#utility.yul\":789:801   */\n      revert\n        /* \"#utility.yul\":813:930   */\n    tag_323:\n        /* \"#utility.yul\":922:923   */\n      0x00\n        /* \"#utility.yul\":919:920   */\n      0x00\n        /* \"#utility.yul\":912:924   */\n      revert\n        /* \"#utility.yul\":936:1053   */\n    tag_324:\n        /* \"#utility.yul\":1045:1046   */\n      0x00\n        /* \"#utility.yul\":1042:1043   */\n      0x00\n        /* \"#utility.yul\":1035:1047   */\n      revert\n        /* \"#utility.yul\":1076:1644   */\n    tag_325:\n        /* \"#utility.yul\":1149:1157   */\n      0x00\n        /* \"#utility.yul\":1159:1165   */\n      0x00\n        /* \"#utility.yul\":1209:1212   */\n      dup4\n        /* \"#utility.yul\":1202:1206   */\n      0x1f\n        /* \"#utility.yul\":1194:1200   */\n      dup5\n        /* \"#utility.yul\":1190:1207   */\n      add\n        /* \"#utility.yul\":1186:1213   */\n      slt\n        /* \"#utility.yul\":1176:1298   */\n      tag_377\n      jumpi\n        /* \"#utility.yul\":1217:1296   */\n      tag_378\n      tag_322\n      jump\t// in\n    tag_378:\n        /* \"#utility.yul\":1176:1298   */\n    tag_377:\n        /* \"#utility.yul\":1330:1336   */\n      dup3\n        /* \"#utility.yul\":1317:1337   */\n      calldataload\n        /* \"#utility.yul\":1307:1337   */\n      swap1\n      pop\n        /* \"#utility.yul\":1360:1378   */\n      0xffffffffffffffff\n        /* \"#utility.yul\":1352:1358   */\n      dup2\n        /* \"#utility.yul\":1349:1379   */\n      gt\n        /* \"#utility.yul\":1346:1463   */\n      iszero\n      tag_379\n      jumpi\n        /* \"#utility.yul\":1382:1461   */\n      tag_380\n      tag_323\n      jump\t// in\n    tag_380:\n        /* \"#utility.yul\":1346:1463   */\n    tag_379:\n        /* \"#utility.yul\":1496:1500   */\n      0x20\n        /* \"#utility.yul\":1488:1494   */\n      dup4\n        /* \"#utility.yul\":1484:1501   */\n      add\n        /* \"#utility.yul\":1472:1501   */\n      swap2\n      pop\n        /* \"#utility.yul\":1550:1553   */\n      dup4\n        /* \"#utility.yul\":1542:1546   */\n      0x20\n        /* \"#utility.yul\":1534:1540   */\n      dup3\n        /* \"#utility.yul\":1530:1547   */\n      mul\n        /* \"#utility.yul\":1520:1528   */\n      dup4\n        /* \"#utility.yul\":1516:1548   */\n      add\n        /* \"#utility.yul\":1513:1554   */\n      gt\n        /* \"#utility.yul\":1510:1638   */\n      iszero\n      tag_381\n      jumpi\n        /* \"#utility.yul\":1557:1636   */\n      tag_382\n      tag_324\n      jump\t// in\n    tag_382:\n        /* \"#utility.yul\":1510:1638   */\n    tag_381:\n        /* \"#utility.yul\":1076:1644   */\n      swap3\n      pop\n      swap3\n      swap1\n      pop\n      jump\t// out\n        /* \"#utility.yul\":1650:2354   */\n    tag_38:\n        /* \"#utility.yul\":1745:1751   */\n      0x00\n        /* \"#utility.yul\":1753:1759   */\n      0x00\n        /* \"#utility.yul\":1761:1767   */\n      0x00\n        /* \"#utility.yul\":1810:1812   */\n      0x40\n        /* \"#utility.yul\":1798:1807   */\n      dup5\n        /* \"#utility.yul\":1789:1796   */\n      dup7\n        /* \"#utility.yul\":1785:1808   */\n      sub\n        /* \"#utility.yul\":1781:1813   */\n      slt\n        /* \"#utility.yul\":1778:1897   */\n      iszero\n      tag_384\n      jumpi\n        /* \"#utility.yul\":1816:1895   */\n      tag_385\n      tag_317\n      jump\t// in\n    tag_385:\n        /* \"#utility.yul\":1778:1897   */\n    tag_384:\n        /* \"#utility.yul\":1936:1937   */\n      0x00\n        /* \"#utility.yul\":1961:2014   */\n      tag_386\n        /* \"#utility.yul\":2006:2013   */\n      dup7\n        /* \"#utility.yul\":1997:2003   */\n      dup3\n        /* \"#utility.yul\":1986:1995   */\n      dup8\n        /* \"#utility.yul\":1982:2004   */\n      add\n        /* \"#utility.yul\":1961:2014   */\n      tag_321\n      jump\t// in\n    tag_386:\n        /* \"#utility.yul\":1951:2014   */\n      swap4\n      pop\n        /* \"#utility.yul\":1907:2024   */\n      pop\n        /* \"#utility.yul\":2091:2093   */\n      0x20\n        /* \"#utility.yul\":2080:2089   */\n      dup5\n        /* \"#utility.yul\":2076:2094   */\n      add\n        /* \"#utility.yul\":2063:2095   */\n      calldataload\n        /* \"#utility.yul\":2122:2140   */\n      0xffffffffffffffff\n        /* \"#utility.yul\":2114:2120   */\n      dup2\n        /* \"#utility.yul\":2111:2141   */\n      gt\n        /* \"#utility.yul\":2108:2225   */\n      iszero\n      tag_387\n      jumpi\n        /* \"#utility.yul\":2144:2223   */\n      tag_388\n      tag_318\n      jump\t// in\n    tag_388:\n        /* \"#utility.yul\":2108:2225   */\n    tag_387:\n        /* \"#utility.yul\":2257:2337   */\n      tag_389\n        /* \"#utility.yul\":2329:2336   */\n      dup7\n        /* \"#utility.yul\":2320:2326   */\n      dup3\n        /* \"#utility.yul\":2309:2318   */\n      dup8\n        /* \"#utility.yul\":2305:2327   */\n      add\n        /* \"#utility.yul\":2257:2337   */\n      tag_325\n      jump\t// in\n    tag_389:\n        /* \"#utility.yul\":2239:2337   */\n      swap3\n      pop\n      swap3\n      pop\n        /* \"#utility.yul\":2034:2347   */\n      pop\n        /* \"#utility.yul\":1650:2354   */\n      swap3\n      pop\n      swap3\n      pop\n      swap3\n      jump\t// out\n        /* \"#utility.yul\":2360:2689   */\n    tag_43:\n        /* \"#utility.yul\":2419:2425   */\n      0x00\n        /* \"#utility.yul\":2468:2470   */\n      0x20\n        /* \"#utility.yul\":2456:2465   */\n      dup3\n        /* \"#utility.yul\":2447:2454   */\n      dup5\n        /* \"#utility.yul\":2443:2466   */\n      sub\n        /* \"#utility.yul\":2439:2471   */\n      slt\n        /* \"#utility.yul\":2436:2555   */\n      iszero\n      tag_391\n      jumpi\n        /* \"#utility.yul\":2474:2553   */\n      tag_392\n      tag_317\n      jump\t// in\n    tag_392:\n        /* \"#utility.yul\":2436:2555   */\n    tag_391:\n        /* \"#utility.yul\":2594:2595   */\n      0x00\n        /* \"#utility.yul\":2619:2672   */\n      tag_393\n        /* \"#utility.yul\":2664:2671   */\n      dup5\n        /* \"#utility.yul\":2655:2661   */\n      dup3\n        /* \"#utility.yul\":2644:2653   */\n      dup6\n        /* \"#utility.yul\":2640:2662   */\n      add\n        /* \"#utility.yul\":2619:2672   */\n      tag_321\n      jump\t// in\n    tag_393:\n        /* \"#utility.yul\":2609:2672   */\n      swap2\n      pop\n        /* \"#utility.yul\":2565:2682   */\n      pop\n        /* \"#utility.yul\":2360:2689   */\n      swap3\n      swap2\n      pop\n      pop\n      jump\t// out\n        /* \"#utility.yul\":2695:2821   */\n    tag_326:\n        /* \"#utility.yul\":2732:2739   */\n      0x00\n        /* \"#utility.yul\":2772:2814   */\n      0xffffffffffffffffffffffffffffffffffffffff\n        /* \"#utility.yul\":2765:2770   */\n      dup3\n        /* \"#utility.yul\":2761:2815   */\n      and\n        /* \"#utility.yul\":2750:2815   */\n      swap1\n      pop\n        /* \"#utility.yul\":2695:2821   */\n      swap2\n      swap1\n      pop\n      jump\t// out\n        /* \"#utility.yul\":2827:2923   */\n    tag_327:\n        /* \"#utility.yul\":2864:2871   */\n      0x00\n        /* \"#utility.yul\":2893:2917   */\n      tag_396\n        /* \"#utility.yul\":2911:2916   */\n      dup3\n        /* \"#utility.yul\":2893:2917   */\n      tag_326\n      jump\t// in\n    tag_396:\n        /* \"#utility.yul\":2882:2917   */\n      swap1\n      pop\n        /* \"#utility.yul\":2827:2923   */\n      swap2\n      swap1\n      pop\n      jump\t// out\n        /* \"#utility.yul\":2929:3047   */\n    tag_328:\n        /* \"#utility.yul\":3016:3040   */\n      tag_398\n        /* \"#utility.yul\":3034:3039   */\n      dup2\n        /* \"#utility.yul\":3016:3040   */\n      tag_327\n      jump\t// in\n    tag_398:\n        /* \"#utility.yul\":3011:3014   */\n      dup3\n        /* \"#utility.yul\":3004:3041   */\n      mstore\n        /* \"#utility.yul\":2929:3047   */\n      pop\n      pop\n      jump\t// out\n        /* \"#utility.yul\":3053:3171   */\n    tag_329:\n        /* \"#utility.yul\":3140:3164   */\n      tag_400\n        /* \"#utility.yul\":3158:3163   */\n      dup2\n        /* \"#utility.yul\":3140:3164   */\n      tag_319\n      jump\t// in\n    tag_400:\n        /* \"#utility.yul\":3135:3138   */\n      dup3\n        /* \"#utility.yul\":3128:3165   */\n      mstore\n        /* \"#utility.yul\":3053:3171   */\n      pop\n      pop\n      jump\t// out\n        /* \"#utility.yul\":3177:3263   */\n    tag_330:\n        /* \"#utility.yul\":3212:3219   */\n      0x00\n        /* \"#utility.yul\":3252:3256   */\n      0xff\n        /* \"#utility.yul\":3245:3250   */\n      dup3\n        /* \"#utility.yul\":3241:3257   */\n      and\n        /* \"#utility.yul\":3230:3257   */\n      swap1\n      pop\n        /* \"#utility.yul\":3177:3263   */\n      swap2\n      swap1\n      pop\n      jump\t// out\n        /* \"#utility.yul\":3269:3381   */\n    tag_331:\n        /* \"#utility.yul\":3352:3374   */\n      tag_403\n        /* \"#utility.yul\":3368:3373   */\n      dup2\n        /* \"#utility.yul\":3352:3374   */\n      tag_330\n      jump\t// in\n    tag_403:\n        /* \"#utility.yul\":3347:3350   */\n      dup3\n        /* \"#utility.yul\":3340:3375   */\n      mstore\n        /* \"#utility.yul\":3269:3381   */\n      pop\n      pop\n      jump\t// out\n        /* \"#utility.yul\":3387:3821   */\n    tag_46:\n        /* \"#utility.yul\":3532:3536   */\n      0x00\n        /* \"#utility.yul\":3570:3572   */\n      0x60\n        /* \"#utility.yul\":3559:3568   */\n      dup3\n        /* \"#utility.yul\":3555:3573   */\n      add\n        /* \"#utility.yul\":3547:3573   */\n      swap1\n      pop\n        /* \"#utility.yul\":3583:3654   */\n      tag_405\n        /* \"#utility.yul\":3651:3652   */\n      0x00\n        /* \"#utility.yul\":3640:3649   */\n      dup4\n        /* \"#utility.yul\":3636:3653   */\n      add\n        /* \"#utility.yul\":3627:3633   */\n      dup7\n        /* \"#utility.yul\":3583:3654   */\n      tag_328\n      jump\t// in\n    tag_405:\n        /* \"#utility.yul\":3664:3736   */\n      tag_406\n        /* \"#utility.yul\":3732:3734   */\n      0x20\n        /* \"#utility.yul\":3721:3730   */\n      dup4\n        /* \"#utility.yul\":3717:3735   */\n      add\n        /* \"#utility.yul\":3708:3714   */\n      dup6\n        /* \"#utility.yul\":3664:3736   */\n      tag_329\n      jump\t// in\n    tag_406:\n        /* \"#utility.yul\":3746:3814   */\n      tag_407\n        /* \"#utility.yul\":3810:3812   */\n      0x40\n        /* \"#utility.yul\":3799:3808   */\n      dup4\n        /* \"#utility.yul\":3795:3813   */\n      add\n        /* \"#utility.yul\":3786:3792   */\n      dup5\n        /* \"#utility.yul\":3746:3814   */\n      tag_331\n      jump\t// in\n    tag_407:\n        /* \"#utility.yul\":3387:3821   */\n      swap5\n      swap4\n      pop\n      pop\n      pop\n      pop\n      jump\t// out\n        /* \"#utility.yul\":3827:3904   */\n    tag_332:\n        /* \"#utility.yul\":3864:3871   */\n      0x00\n        /* \"#utility.yul\":3893:3898   */\n      dup2\n        /* \"#utility.yul\":3882:3898   */\n      swap1\n      pop\n        /* \"#utility.yul\":3827:3904   */\n      swap2\n      swap1\n      pop\n      jump\t// out\n        /* \"#utility.yul\":3910:4032   */\n    tag_333:\n        /* \"#utility.yul\":3983:4007   */\n      tag_410\n        /* \"#utility.yul\":4001:4006   */\n      dup2\n        /* \"#utility.yul\":3983:4007   */\n      tag_332\n      jump\t// in\n    tag_410:\n        /* \"#utility.yul\":3976:3981   */\n      dup2\n        /* \"#utility.yul\":3973:4008   */\n      eq\n        /* \"#utility.yul\":3963:4026   */\n      tag_411\n      jumpi\n        /* \"#utility.yul\":4022:4023   */\n      0x00\n        /* \"#utility.yul\":4019:4020   */\n      0x00\n        /* \"#utility.yul\":4012:4024   */\n      revert\n        /* \"#utility.yul\":3963:4026   */\n    tag_411:\n        /* \"#utility.yul\":3910:4032   */\n      pop\n      jump\t// out\n        /* \"#utility.yul\":4038:4177   */\n    tag_334:\n        /* \"#utility.yul\":4084:4089   */\n      0x00\n        /* \"#utility.yul\":4122:4128   */\n      dup2\n        /* \"#utility.yul\":4109:4129   */\n      calldataload\n        /* \"#utility.yul\":4100:4129   */\n      swap1\n      pop\n        /* \"#utility.yul\":4138:4171   */\n      tag_413\n        /* \"#utility.yul\":4165:4170   */\n      dup2\n        /* \"#utility.yul\":4138:4171   */\n      tag_333\n      jump\t// in\n    tag_413:\n        /* \"#utility.yul\":4038:4177   */\n      swap3\n      swap2\n      pop\n      pop\n      jump\t// out\n        /* \"#utility.yul\":4183:4512   */\n    tag_50:\n        /* \"#utility.yul\":4242:4248   */\n      0x00\n        /* \"#utility.yul\":4291:4293   */\n      0x20\n        /* \"#utility.yul\":4279:4288   */\n      dup3\n        /* \"#utility.yul\":4270:4277   */\n      dup5\n        /* \"#utility.yul\":4266:4289   */\n      sub\n        /* \"#utility.yul\":4262:4294   */\n      slt\n        /* \"#utility.yul\":4259:4378   */\n      iszero\n      tag_415\n      jumpi\n        /* \"#utility.yul\":4297:4376   */\n      tag_416\n      tag_317\n      jump\t// in\n    tag_416:\n        /* \"#utility.yul\":4259:4378   */\n    tag_415:\n        /* \"#utility.yul\":4417:4418   */\n      0x00\n        /* \"#utility.yul\":4442:4495   */\n      tag_417\n        /* \"#utility.yul\":4487:4494   */\n      dup5\n        /* \"#utility.yul\":4478:4484   */\n      dup3\n        /* \"#utility.yul\":4467:4476   */\n      dup6\n        /* \"#utility.yul\":4463:4485   */\n      add\n        /* \"#utility.yul\":4442:4495   */\n      tag_334\n      jump\t// in\n    tag_417:\n        /* \"#utility.yul\":4432:4495   */\n      swap2\n      pop\n        /* \"#utility.yul\":4388:4505   */\n      pop\n        /* \"#utility.yul\":4183:4512   */\n      swap3\n      swap2\n      pop\n      pop\n      jump\t// out\n        /* \"#utility.yul\":4518:4611   */\n    tag_335:\n        /* \"#utility.yul\":4554:4561   */\n      0x00\n        /* \"#utility.yul\":4594:4604   */\n      0xffffffff\n        /* \"#utility.yul\":4587:4592   */\n      dup3\n        /* \"#utility.yul\":4583:4605   */\n      and\n        /* \"#utility.yul\":4572:4605   */\n      swap1\n      pop\n        /* \"#utility.yul\":4518:4611   */\n      swap2\n      swap1\n      pop\n      jump\t// out\n        /* \"#utility.yul\":4617:4732   */\n    tag_336:\n        /* \"#utility.yul\":4702:4725   */\n      tag_420\n        /* \"#utility.yul\":4719:4724   */\n      dup2\n        /* \"#utility.yul\":4702:4725   */\n      tag_335\n      jump\t// in\n    tag_420:\n        /* \"#utility.yul\":4697:4700   */\n      dup3\n        /* \"#utility.yul\":4690:4726   */\n      mstore\n        /* \"#utility.yul\":4617:4732   */\n      pop\n      pop\n      jump\t// out\n        /* \"#utility.yul\":4738:4956   */\n    tag_56:\n        /* \"#utility.yul\":4829:4833   */\n      0x00\n        /* \"#utility.yul\":4867:4869   */\n      0x20\n        /* \"#utility.yul\":4856:4865   */\n      dup3\n        /* \"#utility.yul\":4852:4870   */\n      add\n        /* \"#utility.yul\":4844:4870   */\n      swap1\n      pop\n        /* \"#utility.yul\":4880:4949   */\n      tag_422\n        /* \"#utility.yul\":4946:4947   */\n      0x00\n        /* \"#utility.yul\":4935:4944   */\n      dup4\n        /* \"#utility.yul\":4931:4948   */\n      add\n        /* \"#utility.yul\":4922:4928   */\n      dup5\n        /* \"#utility.yul\":4880:4949   */\n      tag_336\n      jump\t// in\n    tag_422:\n        /* \"#utility.yul\":4738:4956   */\n      swap3\n      swap2\n      pop\n      pop\n      jump\t// out\n        /* \"#utility.yul\":4962:5084   */\n    tag_337:\n        /* \"#utility.yul\":5035:5059   */\n      tag_424\n        /* \"#utility.yul\":5053:5058   */\n      dup2\n        /* \"#utility.yul\":5035:5059   */\n      tag_327\n      jump\t// in\n    tag_424:\n        /* \"#utility.yul\":5028:5033   */\n      dup2\n        /* \"#utility.yul\":5025:5060   */\n      eq\n        /* \"#utility.yul\":5015:5078   */\n      tag_425\n      jumpi\n        /* \"#utility.yul\":5074:5075   */\n      0x00\n        /* \"#utility.yul\":5071:5072   */\n      0x00\n        /* \"#utility.yul\":5064:5076   */\n      revert\n        /* \"#utility.yul\":5015:5078   */\n    tag_425:\n        /* \"#utility.yul\":4962:5084   */\n      pop\n      jump\t// out\n        /* \"#utility.yul\":5090:5229   */\n    tag_338:\n        /* \"#utility.yul\":5136:5141   */\n      0x00\n        /* \"#utility.yul\":5174:5180   */\n      dup2\n        /* \"#utility.yul\":5161:5181   */\n      calldataload\n        /* \"#utility.yul\":5152:5181   */\n      swap1\n      pop\n        /* \"#utility.yul\":5190:5223   */\n      tag_427\n        /* \"#utility.yul\":5217:5222   */\n      dup2\n        /* \"#utility.yul\":5190:5223   */\n      tag_337\n      jump\t// in\n    tag_427:\n        /* \"#utility.yul\":5090:5229   */\n      swap3\n      swap2\n      pop\n      pop\n      jump\t// out\n        /* \"#utility.yul\":5235:5564   */\n    tag_60:\n        /* \"#utility.yul\":5294:5300   */\n      0x00\n        /* \"#utility.yul\":5343:5345   */\n      0x20\n        /* \"#utility.yul\":5331:5340   */\n      dup3\n        /* \"#utility.yul\":5322:5329   */\n      dup5\n        /* \"#utility.yul\":5318:5341   */\n      sub\n        /* \"#utility.yul\":5314:5346   */\n      slt\n        /* \"#utility.yul\":5311:5430   */\n      iszero\n      tag_429\n      jumpi\n        /* \"#utility.yul\":5349:5428   */\n      tag_430\n      tag_317\n      jump\t// in\n    tag_430:\n        /* \"#utility.yul\":5311:5430   */\n    tag_429:\n        /* \"#utility.yul\":5469:5470   */\n      0x00\n        /* \"#utility.yul\":5494:5547   */\n      tag_431\n        /* \"#utility.yul\":5539:5546   */\n      dup5\n        /* \"#utility.yul\":5530:5536   */\n      dup3\n        /* \"#utility.yul\":5519:5528   */\n      dup6\n        /* \"#utility.yul\":5515:5537   */\n      add\n        /* \"#utility.yul\":5494:5547   */\n      tag_338\n      jump\t// in\n    tag_431:\n        /* \"#utility.yul\":5484:5547   */\n      swap2\n      pop\n        /* \"#utility.yul\":5440:5557   */\n      pop\n        /* \"#utility.yul\":5235:5564   */\n      swap3\n      swap2\n      pop\n      pop\n      jump\t// out\n        /* \"#utility.yul\":5570:5688   */\n    tag_339:\n        /* \"#utility.yul\":5657:5681   */\n      tag_433\n        /* \"#utility.yul\":5675:5680   */\n      dup2\n        /* \"#utility.yul\":5657:5681   */\n      tag_332\n      jump\t// in\n    tag_433:\n        /* \"#utility.yul\":5652:5655   */\n      dup3\n        /* \"#utility.yul\":5645:5682   */\n      mstore\n        /* \"#utility.yul\":5570:5688   */\n      pop\n      pop\n      jump\t// out\n        /* \"#utility.yul\":5694:5916   */\n    tag_63:\n        /* \"#utility.yul\":5787:5791   */\n      0x00\n        /* \"#utility.yul\":5825:5827   */\n      0x20\n        /* \"#utility.yul\":5814:5823   */\n      dup3\n        /* \"#utility.yul\":5810:5828   */\n      add\n        /* \"#utility.yul\":5802:5828   */\n      swap1\n      pop\n        /* \"#utility.yul\":5838:5909   */\n      tag_435\n        /* \"#utility.yul\":5906:5907   */\n      0x00\n        /* \"#utility.yul\":5895:5904   */\n      dup4\n        /* \"#utility.yul\":5891:5908   */\n      add\n        /* \"#utility.yul\":5882:5888   */\n      dup5\n        /* \"#utility.yul\":5838:5909   */\n      tag_339\n      jump\t// in\n    tag_435:\n        /* \"#utility.yul\":5694:5916   */\n      swap3\n      swap2\n      pop\n      pop\n      jump\t// out\n        /* \"#utility.yul\":5922:6144   */\n    tag_68:\n        /* \"#utility.yul\":6015:6019   */\n      0x00\n        /* \"#utility.yul\":6053:6055   */\n      0x20\n        /* \"#utility.yul\":6042:6051   */\n      dup3\n        /* \"#utility.yul\":6038:6056   */\n      add\n        /* \"#utility.yul\":6030:6056   */\n      swap1\n      pop\n        /* \"#utility.yul\":6066:6137   */\n      tag_437\n        /* \"#utility.yul\":6134:6135   */\n      0x00\n        /* \"#utility.yul\":6123:6132   */\n      dup4\n        /* \"#utility.yul\":6119:6136   */\n      add\n        /* \"#utility.yul\":6110:6116   */\n      dup5\n        /* \"#utility.yul\":6066:6137   */\n      tag_329\n      jump\t// in\n    tag_437:\n        /* \"#utility.yul\":5922:6144   */\n      swap3\n      swap2\n      pop\n      pop\n      jump\t// out\n        /* \"#utility.yul\":6150:6814   */\n    tag_74:\n        /* \"#utility.yul\":6355:6359   */\n      0x00\n        /* \"#utility.yul\":6393:6396   */\n      0xa0\n        /* \"#utility.yul\":6382:6391   */\n      dup3\n        /* \"#utility.yul\":6378:6397   */\n      add\n        /* \"#utility.yul\":6370:6397   */\n      swap1\n      pop\n        /* \"#utility.yul\":6407:6478   */\n      tag_439\n        /* \"#utility.yul\":6475:6476   */\n      0x00\n        /* \"#utility.yul\":6464:6473   */\n      dup4\n        /* \"#utility.yul\":6460:6477   */\n      add\n        /* \"#utility.yul\":6451:6457   */\n      dup9\n        /* \"#utility.yul\":6407:6478   */\n      tag_329\n      jump\t// in\n    tag_439:\n        /* \"#utility.yul\":6488:6560   */\n      tag_440\n        /* \"#utility.yul\":6556:6558   */\n      0x20\n        /* \"#utility.yul\":6545:6554   */\n      dup4\n        /* \"#utility.yul\":6541:6559   */\n      add\n        /* \"#utility.yul\":6532:6538   */\n      dup8\n        /* \"#utility.yul\":6488:6560   */\n      tag_329\n      jump\t// in\n    tag_440:\n        /* \"#utility.yul\":6570:6642   */\n      tag_441\n        /* \"#utility.yul\":6638:6640   */\n      0x40\n        /* \"#utility.yul\":6627:6636   */\n      dup4\n        /* \"#utility.yul\":6623:6641   */\n      add\n        /* \"#utility.yul\":6614:6620   */\n      dup7\n        /* \"#utility.yul\":6570:6642   */\n      tag_329\n      jump\t// in\n    tag_441:\n        /* \"#utility.yul\":6652:6724   */\n      tag_442\n        /* \"#utility.yul\":6720:6722   */\n      0x60\n        /* \"#utility.yul\":6709:6718   */\n      dup4\n        /* \"#utility.yul\":6705:6723   */\n      add\n        /* \"#utility.yul\":6696:6702   */\n      dup6\n        /* \"#utility.yul\":6652:6724   */\n      tag_329\n      jump\t// in\n    tag_442:\n        /* \"#utility.yul\":6734:6807   */\n      tag_443\n        /* \"#utility.yul\":6802:6805   */\n      0x80\n        /* \"#utility.yul\":6791:6800   */\n      dup4\n        /* \"#utility.yul\":6787:6806   */\n      add\n        /* \"#utility.yul\":6778:6784   */\n      dup5\n        /* \"#utility.yul\":6734:6807   */\n      tag_329\n      jump\t// in\n    tag_443:\n        /* \"#utility.yul\":6150:6814   */\n      swap7\n      swap6\n      pop\n      pop\n      pop\n      pop\n      pop\n      pop\n      jump\t// out\n        /* \"#utility.yul\":6820:6880   */\n    tag_340:\n        /* \"#utility.yul\":6848:6851   */\n      0x00\n        /* \"#utility.yul\":6869:6874   */\n      dup2\n        /* \"#utility.yul\":6862:6874   */\n      swap1\n      pop\n        /* \"#utility.yul\":6820:6880   */\n      swap2\n      swap1\n      pop\n      jump\t// out\n        /* \"#utility.yul\":6886:7028   */\n    tag_341:\n        /* \"#utility.yul\":6936:6945   */\n      0x00\n        /* \"#utility.yul\":6969:7022   */\n      tag_446\n        /* \"#utility.yul\":6987:7021   */\n      tag_447\n        /* \"#utility.yul\":6996:7020   */\n      tag_448\n        /* \"#utility.yul\":7014:7019   */\n      dup5\n        /* \"#utility.yul\":6996:7020   */\n      tag_326\n      jump\t// in\n    tag_448:\n        /* \"#utility.yul\":6987:7021   */\n      tag_340\n      jump\t// in\n    tag_447:\n        /* \"#utility.yul\":6969:7022   */\n      tag_326\n      jump\t// in\n    tag_446:\n        /* \"#utility.yul\":6956:7022   */\n      swap1\n      pop\n        /* \"#utility.yul\":6886:7028   */\n      swap2\n      swap1\n      pop\n      jump\t// out\n        /* \"#utility.yul\":7034:7160   */\n    tag_342:\n        /* \"#utility.yul\":7084:7093   */\n      0x00\n        /* \"#utility.yul\":7117:7154   */\n      tag_450\n        /* \"#utility.yul\":7148:7153   */\n      dup3\n        /* \"#utility.yul\":7117:7154   */\n      tag_341\n      jump\t// in\n    tag_450:\n        /* \"#utility.yul\":7104:7154   */\n      swap1\n      pop\n        /* \"#utility.yul\":7034:7160   */\n      swap2\n      swap1\n      pop\n      jump\t// out\n        /* \"#utility.yul\":7166:7315   */\n    tag_343:\n        /* \"#utility.yul\":7239:7248   */\n      0x00\n        /* \"#utility.yul\":7272:7309   */\n      tag_452\n        /* \"#utility.yul\":7303:7308   */\n      dup3\n        /* \"#utility.yul\":7272:7309   */\n      tag_342\n      jump\t// in\n    tag_452:\n        /* \"#utility.yul\":7259:7309   */\n      swap1\n      pop\n        /* \"#utility.yul\":7166:7315   */\n      swap2\n      swap1\n      pop\n      jump\t// out\n        /* \"#utility.yul\":7321:7498   */\n    tag_344:\n        /* \"#utility.yul\":7431:7491   */\n      tag_454\n        /* \"#utility.yul\":7485:7490   */\n      dup2\n        /* \"#utility.yul\":7431:7491   */\n      tag_343\n      jump\t// in\n    tag_454:\n        /* \"#utility.yul\":7426:7429   */\n      dup3\n        /* \"#utility.yul\":7419:7492   */\n      mstore\n        /* \"#utility.yul\":7321:7498   */\n      pop\n      pop\n      jump\t// out\n        /* \"#utility.yul\":7504:7772   */\n    tag_87:\n        /* \"#utility.yul\":7620:7624   */\n      0x00\n        /* \"#utility.yul\":7658:7660   */\n      0x20\n        /* \"#utility.yul\":7647:7656   */\n      dup3\n        /* \"#utility.yul\":7643:7661   */\n      add\n        /* \"#utility.yul\":7635:7661   */\n      swap1\n      pop\n        /* \"#utility.yul\":7671:7765   */\n      tag_456\n        /* \"#utility.yul\":7762:7763   */\n      0x00\n        /* \"#utility.yul\":7751:7760   */\n      dup4\n        /* \"#utility.yul\":7747:7764   */\n      add\n        /* \"#utility.yul\":7738:7744   */\n      dup5\n        /* \"#utility.yul\":7671:7765   */\n      tag_344\n      jump\t// in\n    tag_456:\n        /* \"#utility.yul\":7504:7772   */\n      swap3\n      swap2\n      pop\n      pop\n      jump\t// out\n        /* \"#utility.yul\":7778:8000   */\n    tag_95:\n        /* \"#utility.yul\":7871:7875   */\n      0x00\n        /* \"#utility.yul\":7909:7911   */\n      0x20\n        /* \"#utility.yul\":7898:7907   */\n      dup3\n        /* \"#utility.yul\":7894:7912   */\n      add\n        /* \"#utility.yul\":7886:7912   */\n      swap1\n      pop\n        /* \"#utility.yul\":7922:7993   */\n      tag_458\n        /* \"#utility.yul\":7990:7991   */\n      0x00\n        /* \"#utility.yul\":7979:7988   */\n      dup4\n        /* \"#utility.yul\":7975:7992   */\n      add\n        /* \"#utility.yul\":7966:7972   */\n      dup5\n        /* \"#utility.yul\":7922:7993   */\n      tag_328\n      jump\t// in\n    tag_458:\n        /* \"#utility.yul\":7778:8000   */\n      swap3\n      swap2\n      pop\n      pop\n      jump\t// out\n        /* \"#utility.yul\":8006:8124   */\n    tag_345:\n        /* \"#utility.yul\":8077:8099   */\n      tag_460\n        /* \"#utility.yul\":8093:8098   */\n      dup2\n        /* \"#utility.yul\":8077:8099   */\n      tag_330\n      jump\t// in\n    tag_460:\n        /* \"#utility.yul\":8070:8075   */\n      dup2\n        /* \"#utility.yul\":8067:8100   */\n      eq\n        /* \"#utility.yul\":8057:8118   */\n      tag_461\n      jumpi\n        /* \"#utility.yul\":8114:8115   */\n      0x00\n        /* \"#utility.yul\":8111:8112   */\n      0x00\n        /* \"#utility.yul\":8104:8116   */\n      revert\n        /* \"#utility.yul\":8057:8118   */\n    tag_461:\n        /* \"#utility.yul\":8006:8124   */\n      pop\n      jump\t// out\n        /* \"#utility.yul\":8130:8265   */\n    tag_346:\n        /* \"#utility.yul\":8174:8179   */\n      0x00\n        /* \"#utility.yul\":8212:8218   */\n      dup2\n        /* \"#utility.yul\":8199:8219   */\n      calldataload\n        /* \"#utility.yul\":8190:8219   */\n      swap1\n      pop\n        /* \"#utility.yul\":8228:8259   */\n      tag_463\n        /* \"#utility.yul\":8253:8258   */\n      dup2\n        /* \"#utility.yul\":8228:8259   */\n      tag_345\n      jump\t// in\n    tag_463:\n        /* \"#utility.yul\":8130:8265   */\n      swap3\n      swap2\n      pop\n      pop\n      jump\t// out\n        /* \"#utility.yul\":8271:8596   */\n    tag_124:\n        /* \"#utility.yul\":8328:8334   */\n      0x00\n        /* \"#utility.yul\":8377:8379   */\n      0x20\n        /* \"#utility.yul\":8365:8374   */\n      dup3\n        /* \"#utility.yul\":8356:8363   */\n      dup5\n        /* \"#utility.yul\":8352:8375   */\n      sub\n        /* \"#utility.yul\":8348:8380   */\n      slt\n        /* \"#utility.yul\":8345:8464   */\n      iszero\n      tag_465\n      jumpi\n        /* \"#utility.yul\":8383:8462   */\n      tag_466\n      tag_317\n      jump\t// in\n    tag_466:\n        /* \"#utility.yul\":8345:8464   */\n    tag_465:\n        /* \"#utility.yul\":8503:8504   */\n      0x00\n        /* \"#utility.yul\":8528:8579   */\n      tag_467\n        /* \"#utility.yul\":8571:8578   */\n      dup5\n        /* \"#utility.yul\":8562:8568   */\n      dup3\n        /* \"#utility.yul\":8551:8560   */\n      dup6\n        /* \"#utility.yul\":8547:8569   */\n      add\n        /* \"#utility.yul\":8528:8579   */\n      tag_346\n      jump\t// in\n    tag_467:\n        /* \"#utility.yul\":8518:8579   */\n      swap2\n      pop\n        /* \"#utility.yul\":8474:8589   */\n      pop\n        /* \"#utility.yul\":8271:8596   */\n      swap3\n      swap2\n      pop\n      pop\n      jump\t// out\n        /* \"#utility.yul\":8602:8934   */\n    tag_165:\n        /* \"#utility.yul\":8723:8727   */\n      0x00\n        /* \"#utility.yul\":8761:8763   */\n      0x40\n        /* \"#utility.yul\":8750:8759   */\n      dup3\n        /* \"#utility.yul\":8746:8764   */\n      add\n        /* \"#utility.yul\":8738:8764   */\n      swap1\n      pop\n        /* \"#utility.yul\":8774:8845   */\n      tag_469\n        /* \"#utility.yul\":8842:8843   */\n      0x00\n        /* \"#utility.yul\":8831:8840   */\n      dup4\n        /* \"#utility.yul\":8827:8844   */\n      add\n        /* \"#utility.yul\":8818:8824   */\n      dup6\n        /* \"#utility.yul\":8774:8845   */\n      tag_328\n      jump\t// in\n    tag_469:\n        /* \"#utility.yul\":8855:8927   */\n      tag_470\n        /* \"#utility.yul\":8923:8925   */\n      0x20\n        /* \"#utility.yul\":8912:8921   */\n      dup4\n        /* \"#utility.yul\":8908:8926   */\n      add\n        /* \"#utility.yul\":8899:8905   */\n      dup5\n        /* \"#utility.yul\":8855:8927   */\n      tag_328\n      jump\t// in\n    tag_470:\n        /* \"#utility.yul\":8602:8934   */\n      swap4\n      swap3\n      pop\n      pop\n      pop\n      jump\t// out\n        /* \"#utility.yul\":8940:9120   */\n    tag_347:\n        /* \"#utility.yul\":8988:9065   */\n      0x4e487b7100000000000000000000000000000000000000000000000000000000\n        /* \"#utility.yul\":8985:8986   */\n      0x00\n        /* \"#utility.yul\":8978:9066   */\n      mstore\n        /* \"#utility.yul\":9085:9089   */\n      0x11\n        /* \"#utility.yul\":9082:9083   */\n      0x04\n        /* \"#utility.yul\":9075:9090   */\n      mstore\n        /* \"#utility.yul\":9109:9113   */\n      0x24\n        /* \"#utility.yul\":9106:9107   */\n      0x00\n        /* \"#utility.yul\":9099:9114   */\n      revert\n        /* \"#utility.yul\":9126:9317   */\n    tag_188:\n        /* \"#utility.yul\":9166:9169   */\n      0x00\n        /* \"#utility.yul\":9185:9205   */\n      tag_473\n        /* \"#utility.yul\":9203:9204   */\n      dup3\n        /* \"#utility.yul\":9185:9205   */\n      tag_319\n      jump\t// in\n    tag_473:\n        /* \"#utility.yul\":9180:9205   */\n      swap2\n      pop\n        /* \"#utility.yul\":9219:9239   */\n      tag_474\n        /* \"#utility.yul\":9237:9238   */\n      dup4\n        /* \"#utility.yul\":9219:9239   */\n      tag_319\n      jump\t// in\n    tag_474:\n        /* \"#utility.yul\":9214:9239   */\n      swap3\n      pop\n        /* \"#utility.yul\":9262:9263   */\n      dup3\n        /* \"#utility.yul\":9259:9260   */\n      dup3\n        /* \"#utility.yul\":9255:9264   */\n      add\n        /* \"#utility.yul\":9248:9264   */\n      swap1\n      pop\n        /* \"#utility.yul\":9283:9286   */\n      dup1\n        /* \"#utility.yul\":9280:9281   */\n      dup3\n        /* \"#utility.yul\":9277:9287   */\n      gt\n        /* \"#utility.yul\":9274:9310   */\n      iszero\n      tag_475\n      jumpi\n        /* \"#utility.yul\":9290:9308   */\n      tag_476\n      tag_347\n      jump\t// in\n    tag_476:\n        /* \"#utility.yul\":9274:9310   */\n    tag_475:\n        /* \"#utility.yul\":9126:9317   */\n      swap3\n      swap2\n      pop\n      pop\n      jump\t// out\n        /* \"#utility.yul\":9323:9463   */\n    tag_348:\n        /* \"#utility.yul\":9372:9381   */\n      0x00\n        /* \"#utility.yul\":9405:9457   */\n      tag_478\n        /* \"#utility.yul\":9423:9456   */\n      tag_479\n        /* \"#utility.yul\":9432:9455   */\n      tag_480\n        /* \"#utility.yul\":9449:9454   */\n      dup5\n        /* \"#utility.yul\":9432:9455   */\n      tag_335\n      jump\t// in\n    tag_480:\n        /* \"#utility.yul\":9423:9456   */\n      tag_340\n      jump\t// in\n    tag_479:\n        /* \"#utility.yul\":9405:9457   */\n      tag_319\n      jump\t// in\n    tag_478:\n        /* \"#utility.yul\":9392:9457   */\n      swap1\n      pop\n        /* \"#utility.yul\":9323:9463   */\n      swap2\n      swap1\n      pop\n      jump\t// out\n        /* \"#utility.yul\":9469:9598   */\n    tag_349:\n        /* \"#utility.yul\":9555:9591   */\n      tag_482\n        /* \"#utility.yul\":9585:9590   */\n      dup2\n        /* \"#utility.yul\":9555:9591   */\n      tag_348\n      jump\t// in\n    tag_482:\n        /* \"#utility.yul\":9550:9553   */\n      dup3\n        /* \"#utility.yul\":9543:9592   */\n      mstore\n        /* \"#utility.yul\":9469:9598   */\n      pop\n      pop\n      jump\t// out\n        /* \"#utility.yul\":9604:9824   */\n    tag_197:\n        /* \"#utility.yul\":9696:9700   */\n      0x00\n        /* \"#utility.yul\":9734:9736   */\n      0x20\n        /* \"#utility.yul\":9723:9732   */\n      dup3\n        /* \"#utility.yul\":9719:9737   */\n      add\n        /* \"#utility.yul\":9711:9737   */\n      swap1\n      pop\n        /* \"#utility.yul\":9747:9817   */\n      tag_484\n        /* \"#utility.yul\":9814:9815   */\n      0x00\n        /* \"#utility.yul\":9803:9812   */\n      dup4\n        /* \"#utility.yul\":9799:9816   */\n      add\n        /* \"#utility.yul\":9790:9796   */\n      dup5\n        /* \"#utility.yul\":9747:9817   */\n      tag_349\n      jump\t// in\n    tag_484:\n        /* \"#utility.yul\":9604:9824   */\n      swap3\n      swap2\n      pop\n      pop\n      jump\t// out\n        /* \"#utility.yul\":9830:9973   */\n    tag_350:\n        /* \"#utility.yul\":9887:9892   */\n      0x00\n        /* \"#utility.yul\":9918:9924   */\n      dup2\n        /* \"#utility.yul\":9912:9925   */\n      mload\n        /* \"#utility.yul\":9903:9925   */\n      swap1\n      pop\n        /* \"#utility.yul\":9934:9967   */\n      tag_486\n        /* \"#utility.yul\":9961:9966   */\n      dup2\n        /* \"#utility.yul\":9934:9967   */\n      tag_320\n      jump\t// in\n    tag_486:\n        /* \"#utility.yul\":9830:9973   */\n      swap3\n      swap2\n      pop\n      pop\n      jump\t// out\n        /* \"#utility.yul\":9979:10330   */\n    tag_201:\n        /* \"#utility.yul\":10049:10055   */\n      0x00\n        /* \"#utility.yul\":10098:10100   */\n      0x20\n        /* \"#utility.yul\":10086:10095   */\n      dup3\n        /* \"#utility.yul\":10077:10084   */\n      dup5\n        /* \"#utility.yul\":10073:10096   */\n      sub\n        /* \"#utility.yul\":10069:10101   */\n      slt\n        /* \"#utility.yul\":10066:10185   */\n      iszero\n      tag_488\n      jumpi\n        /* \"#utility.yul\":10104:10183   */\n      tag_489\n      tag_317\n      jump\t// in\n    tag_489:\n        /* \"#utility.yul\":10066:10185   */\n    tag_488:\n        /* \"#utility.yul\":10224:10225   */\n      0x00\n        /* \"#utility.yul\":10249:10313   */\n      tag_490\n        /* \"#utility.yul\":10305:10312   */\n      dup5\n        /* \"#utility.yul\":10296:10302   */\n      dup3\n        /* \"#utility.yul\":10285:10294   */\n      dup6\n        /* \"#utility.yul\":10281:10303   */\n      add\n        /* \"#utility.yul\":10249:10313   */\n      tag_350\n      jump\t// in\n    tag_490:\n        /* \"#utility.yul\":10239:10313   */\n      swap2\n      pop\n        /* \"#utility.yul\":10195:10323   */\n      pop\n        /* \"#utility.yul\":9979:10330   */\n      swap3\n      swap2\n      pop\n      pop\n      jump\t// out\n        /* \"#utility.yul\":10336:10530   */\n    tag_204:\n        /* \"#utility.yul\":10376:10380   */\n      0x00\n        /* \"#utility.yul\":10396:10416   */\n      tag_492\n        /* \"#utility.yul\":10414:10415   */\n      dup3\n        /* \"#utility.yul\":10396:10416   */\n      tag_319\n      jump\t// in\n    tag_492:\n        /* \"#utility.yul\":10391:10416   */\n      swap2\n      pop\n        /* \"#utility.yul\":10430:10450   */\n      tag_493\n        /* \"#utility.yul\":10448:10449   */\n      dup4\n        /* \"#utility.yul\":10430:10450   */\n      tag_319\n      jump\t// in\n    tag_493:\n        /* \"#utility.yul\":10425:10450   */\n      swap3\n      pop\n        /* \"#utility.yul\":10474:10475   */\n      dup3\n        /* \"#utility.yul\":10471:10472   */\n      dup3\n        /* \"#utility.yul\":10467:10476   */\n      sub\n        /* \"#utility.yul\":10459:10476   */\n      swap1\n      pop\n        /* \"#utility.yul\":10498:10499   */\n      dup2\n        /* \"#utility.yul\":10492:10496   */\n      dup2\n        /* \"#utility.yul\":10489:10500   */\n      gt\n        /* \"#utility.yul\":10486:10523   */\n      iszero\n      tag_494\n      jumpi\n        /* \"#utility.yul\":10503:10521   */\n      tag_495\n      tag_347\n      jump\t// in\n    tag_495:\n        /* \"#utility.yul\":10486:10523   */\n    tag_494:\n        /* \"#utility.yul\":10336:10530   */\n      swap3\n      swap2\n      pop\n      pop\n      jump\t// out\n        /* \"#utility.yul\":10536:10727   */\n    tag_210:\n        /* \"#utility.yul\":10574:10578   */\n      0x00\n        /* \"#utility.yul\":10594:10612   */\n      tag_497\n        /* \"#utility.yul\":10610:10611   */\n      dup3\n        /* \"#utility.yul\":10594:10612   */\n      tag_330\n      jump\t// in\n    tag_497:\n        /* \"#utility.yul\":10589:10612   */\n      swap2\n      pop\n        /* \"#utility.yul\":10626:10644   */\n      tag_498\n        /* \"#utility.yul\":10642:10643   */\n      dup4\n        /* \"#utility.yul\":10626:10644   */\n      tag_330\n      jump\t// in\n    tag_498:\n        /* \"#utility.yul\":10621:10644   */\n      swap3\n      pop\n        /* \"#utility.yul\":10668:10669   */\n      dup3\n        /* \"#utility.yul\":10665:10666   */\n      dup3\n        /* \"#utility.yul\":10661:10670   */\n      sub\n        /* \"#utility.yul\":10653:10670   */\n      swap1\n      pop\n        /* \"#utility.yul\":10692:10696   */\n      0xff\n        /* \"#utility.yul\":10686:10690   */\n      dup2\n        /* \"#utility.yul\":10683:10697   */\n      gt\n        /* \"#utility.yul\":10680:10720   */\n      iszero\n      tag_499\n      jumpi\n        /* \"#utility.yul\":10700:10718   */\n      tag_500\n      tag_347\n      jump\t// in\n    tag_500:\n        /* \"#utility.yul\":10680:10720   */\n    tag_499:\n        /* \"#utility.yul\":10536:10727   */\n      swap3\n      swap2\n      pop\n      pop\n      jump\t// out\n        /* \"#utility.yul\":10733:11143   */\n    tag_212:\n        /* \"#utility.yul\":10773:10780   */\n      0x00\n        /* \"#utility.yul\":10796:10816   */\n      tag_502\n        /* \"#utility.yul\":10814:10815   */\n      dup3\n        /* \"#utility.yul\":10796:10816   */\n      tag_319\n      jump\t// in\n    tag_502:\n        /* \"#utility.yul\":10791:10816   */\n      swap2\n      pop\n        /* \"#utility.yul\":10830:10850   */\n      tag_503\n        /* \"#utility.yul\":10848:10849   */\n      dup4\n        /* \"#utility.yul\":10830:10850   */\n      tag_319\n      jump\t// in\n    tag_503:\n        /* \"#utility.yul\":10825:10850   */\n      swap3\n      pop\n        /* \"#utility.yul\":10885:10886   */\n      dup3\n        /* \"#utility.yul\":10882:10883   */\n      dup3\n        /* \"#utility.yul\":10878:10887   */\n      mul\n        /* \"#utility.yul\":10907:10937   */\n      tag_504\n        /* \"#utility.yul\":10925:10936   */\n      dup2\n        /* \"#utility.yul\":10907:10937   */\n      tag_319\n      jump\t// in\n    tag_504:\n        /* \"#utility.yul\":10896:10937   */\n      swap2\n      pop\n        /* \"#utility.yul\":11086:11087   */\n      dup3\n        /* \"#utility.yul\":11077:11084   */\n      dup3\n        /* \"#utility.yul\":11073:11088   */\n      div\n        /* \"#utility.yul\":11070:11071   */\n      dup5\n        /* \"#utility.yul\":11067:11089   */\n      eq\n        /* \"#utility.yul\":11047:11048   */\n      dup4\n        /* \"#utility.yul\":11040:11049   */\n      iszero\n        /* \"#utility.yul\":11020:11103   */\n      or\n        /* \"#utility.yul\":10997:11136   */\n      tag_505\n      jumpi\n        /* \"#utility.yul\":11116:11134   */\n      tag_506\n      tag_347\n      jump\t// in\n    tag_506:\n        /* \"#utility.yul\":10997:11136   */\n    tag_505:\n        /* \"#utility.yul\":10781:11143   */\n      pop\n        /* \"#utility.yul\":10733:11143   */\n      swap3\n      swap2\n      pop\n      pop\n      jump\t// out\n        /* \"#utility.yul\":11149:11329   */\n    tag_351:\n        /* \"#utility.yul\":11197:11274   */\n      0x4e487b7100000000000000000000000000000000000000000000000000000000\n        /* \"#utility.yul\":11194:11195   */\n      0x00\n        /* \"#utility.yul\":11187:11275   */\n      mstore\n        /* \"#utility.yul\":11294:11298   */\n      0x12\n        /* \"#utility.yul\":11291:11292   */\n      0x04\n        /* \"#utility.yul\":11284:11299   */\n      mstore\n        /* \"#utility.yul\":11318:11322   */\n      0x24\n        /* \"#utility.yul\":11315:11316   */\n      0x00\n        /* \"#utility.yul\":11308:11323   */\n      revert\n        /* \"#utility.yul\":11335:11520   */\n    tag_214:\n        /* \"#utility.yul\":11375:11376   */\n      0x00\n        /* \"#utility.yul\":11392:11412   */\n      tag_509\n        /* \"#utility.yul\":11410:11411   */\n      dup3\n        /* \"#utility.yul\":11392:11412   */\n      tag_319\n      jump\t// in\n    tag_509:\n        /* \"#utility.yul\":11387:11412   */\n      swap2\n      pop\n        /* \"#utility.yul\":11426:11446   */\n      tag_510\n        /* \"#utility.yul\":11444:11445   */\n      dup4\n        /* \"#utility.yul\":11426:11446   */\n      tag_319\n      jump\t// in\n    tag_510:\n        /* \"#utility.yul\":11421:11446   */\n      swap3\n      pop\n        /* \"#utility.yul\":11465:11466   */\n      dup3\n        /* \"#utility.yul\":11455:11490   */\n      tag_511\n      jumpi\n        /* \"#utility.yul\":11470:11488   */\n      tag_512\n      tag_351\n      jump\t// in\n    tag_512:\n        /* \"#utility.yul\":11455:11490   */\n    tag_511:\n        /* \"#utility.yul\":11512:11513   */\n      dup3\n        /* \"#utility.yul\":11509:11510   */\n      dup3\n        /* \"#utility.yul\":11505:11514   */\n      div\n        /* \"#utility.yul\":11500:11514   */\n      swap1\n      pop\n        /* \"#utility.yul\":11335:11520   */\n      swap3\n      swap2\n      pop\n      pop\n      jump\t// out\n        /* \"#utility.yul\":11526:11611   */\n    tag_352:\n        /* \"#utility.yul\":11571:11578   */\n      0x00\n        /* \"#utility.yul\":11600:11605   */\n      dup2\n        /* \"#utility.yul\":11589:11605   */\n      swap1\n      pop\n        /* \"#utility.yul\":11526:11611   */\n      swap2\n      swap1\n      pop\n      jump\t// out\n        /* \"#utility.yul\":11617:11775   */\n    tag_353:\n        /* \"#utility.yul\":11675:11684   */\n      0x00\n        /* \"#utility.yul\":11708:11769   */\n      tag_515\n        /* \"#utility.yul\":11726:11768   */\n      tag_516\n        /* \"#utility.yul\":11735:11767   */\n      tag_517\n        /* \"#utility.yul\":11761:11766   */\n      dup5\n        /* \"#utility.yul\":11735:11767   */\n      tag_352\n      jump\t// in\n    tag_517:\n        /* \"#utility.yul\":11726:11768   */\n      tag_340\n      jump\t// in\n    tag_516:\n        /* \"#utility.yul\":11708:11769   */\n      tag_319\n      jump\t// in\n    tag_515:\n        /* \"#utility.yul\":11695:11769   */\n      swap1\n      pop\n        /* \"#utility.yul\":11617:11775   */\n      swap2\n      swap1\n      pop\n      jump\t// out\n        /* \"#utility.yul\":11781:11928   */\n    tag_354:\n        /* \"#utility.yul\":11876:11921   */\n      tag_519\n        /* \"#utility.yul\":11915:11920   */\n      dup2\n        /* \"#utility.yul\":11876:11921   */\n      tag_353\n      jump\t// in\n    tag_519:\n        /* \"#utility.yul\":11871:11874   */\n      dup3\n        /* \"#utility.yul\":11864:11922   */\n      mstore\n        /* \"#utility.yul\":11781:11928   */\n      pop\n      pop\n      jump\t// out\n        /* \"#utility.yul\":11934:12390   */\n    tag_219:\n        /* \"#utility.yul\":12090:12094   */\n      0x00\n        /* \"#utility.yul\":12128:12130   */\n      0x60\n        /* \"#utility.yul\":12117:12126   */\n      dup3\n        /* \"#utility.yul\":12113:12131   */\n      add\n        /* \"#utility.yul\":12105:12131   */\n      swap1\n      pop\n        /* \"#utility.yul\":12141:12211   */\n      tag_521\n        /* \"#utility.yul\":12208:12209   */\n      0x00\n        /* \"#utility.yul\":12197:12206   */\n      dup4\n        /* \"#utility.yul\":12193:12210   */\n      add\n        /* \"#utility.yul\":12184:12190   */\n      dup7\n        /* \"#utility.yul\":12141:12211   */\n      tag_349\n      jump\t// in\n    tag_521:\n        /* \"#utility.yul\":12221:12301   */\n      tag_522\n        /* \"#utility.yul\":12297:12299   */\n      0x20\n        /* \"#utility.yul\":12286:12295   */\n      dup4\n        /* \"#utility.yul\":12282:12300   */\n      add\n        /* \"#utility.yul\":12273:12279   */\n      dup6\n        /* \"#utility.yul\":12221:12301   */\n      tag_354\n      jump\t// in\n    tag_522:\n        /* \"#utility.yul\":12311:12383   */\n      tag_523\n        /* \"#utility.yul\":12379:12381   */\n      0x40\n        /* \"#utility.yul\":12368:12377   */\n      dup4\n        /* \"#utility.yul\":12364:12382   */\n      add\n        /* \"#utility.yul\":12355:12361   */\n      dup5\n        /* \"#utility.yul\":12311:12383   */\n      tag_328\n      jump\t// in\n    tag_523:\n        /* \"#utility.yul\":11934:12390   */\n      swap5\n      swap4\n      pop\n      pop\n      pop\n      pop\n      jump\t// out\n        /* \"#utility.yul\":12396:12543   */\n    tag_355:\n        /* \"#utility.yul\":12497:12508   */\n      0x00\n        /* \"#utility.yul\":12534:12537   */\n      dup2\n        /* \"#utility.yul\":12519:12537   */\n      swap1\n      pop\n        /* \"#utility.yul\":12396:12543   */\n      swap3\n      swap2\n      pop\n      pop\n      jump\t// out\n        /* \"#utility.yul\":12549:12663   */\n    tag_356:\n      pop\n      jump\t// out\n        /* \"#utility.yul\":12669:13067   */\n    tag_357:\n        /* \"#utility.yul\":12828:12831   */\n      0x00\n        /* \"#utility.yul\":12849:12932   */\n      tag_527\n        /* \"#utility.yul\":12930:12931   */\n      0x00\n        /* \"#utility.yul\":12925:12928   */\n      dup4\n        /* \"#utility.yul\":12849:12932   */\n      tag_355\n      jump\t// in\n    tag_527:\n        /* \"#utility.yul\":12842:12932   */\n      swap2\n      pop\n        /* \"#utility.yul\":12941:13034   */\n      tag_528\n        /* \"#utility.yul\":13030:13033   */\n      dup3\n        /* \"#utility.yul\":12941:13034   */\n      tag_356\n      jump\t// in\n    tag_528:\n        /* \"#utility.yul\":13059:13060   */\n      0x00\n        /* \"#utility.yul\":13054:13057   */\n      dup3\n        /* \"#utility.yul\":13050:13061   */\n      add\n        /* \"#utility.yul\":13043:13061   */\n      swap1\n      pop\n        /* \"#utility.yul\":12669:13067   */\n      swap2\n      swap1\n      pop\n      jump\t// out\n        /* \"#utility.yul\":13073:13452   */\n    tag_231:\n        /* \"#utility.yul\":13257:13260   */\n      0x00\n        /* \"#utility.yul\":13279:13426   */\n      tag_530\n        /* \"#utility.yul\":13422:13425   */\n      dup3\n        /* \"#utility.yul\":13279:13426   */\n      tag_357\n      jump\t// in\n    tag_530:\n        /* \"#utility.yul\":13272:13426   */\n      swap2\n      pop\n        /* \"#utility.yul\":13443:13446   */\n      dup2\n        /* \"#utility.yul\":13436:13446   */\n      swap1\n      pop\n        /* \"#utility.yul\":13073:13452   */\n      swap2\n      swap1\n      pop\n      jump\t// out\n        /* \"#utility.yul\":13458:13782   */\n    tag_257:\n        /* \"#utility.yul\":13575:13579   */\n      0x00\n        /* \"#utility.yul\":13613:13615   */\n      0x40\n        /* \"#utility.yul\":13602:13611   */\n      dup3\n        /* \"#utility.yul\":13598:13616   */\n      add\n        /* \"#utility.yul\":13590:13616   */\n      swap1\n      pop\n        /* \"#utility.yul\":13626:13697   */\n      tag_532\n        /* \"#utility.yul\":13694:13695   */\n      0x00\n        /* \"#utility.yul\":13683:13692   */\n      dup4\n        /* \"#utility.yul\":13679:13696   */\n      add\n        /* \"#utility.yul\":13670:13676   */\n      dup6\n        /* \"#utility.yul\":13626:13697   */\n      tag_329\n      jump\t// in\n    tag_532:\n        /* \"#utility.yul\":13707:13775   */\n      tag_533\n        /* \"#utility.yul\":13771:13773   */\n      0x20\n        /* \"#utility.yul\":13760:13769   */\n      dup4\n        /* \"#utility.yul\":13756:13774   */\n      add\n        /* \"#utility.yul\":13747:13753   */\n      dup5\n        /* \"#utility.yul\":13707:13775   */\n      tag_331\n      jump\t// in\n    tag_533:\n        /* \"#utility.yul\":13458:13782   */\n      swap4\n      swap3\n      pop\n      pop\n      pop\n      jump\t// out\n        /* \"#utility.yul\":13788:13968   */\n    tag_276:\n        /* \"#utility.yul\":13836:13913   */\n      0x4e487b7100000000000000000000000000000000000000000000000000000000\n        /* \"#utility.yul\":13833:13834   */\n      0x00\n        /* \"#utility.yul\":13826:13914   */\n      mstore\n        /* \"#utility.yul\":13933:13937   */\n      0x32\n        /* \"#utility.yul\":13930:13931   */\n      0x04\n        /* \"#utility.yul\":13923:13938   */\n      mstore\n        /* \"#utility.yul\":13957:13961   */\n      0x24\n        /* \"#utility.yul\":13954:13955   */\n      0x00\n        /* \"#utility.yul\":13947:13962   */\n      revert\n        /* \"#utility.yul\":13974:14150   */\n    tag_278:\n        /* \"#utility.yul\":14006:14007   */\n      0x00\n        /* \"#utility.yul\":14023:14043   */\n      tag_536\n        /* \"#utility.yul\":14041:14042   */\n      dup3\n        /* \"#utility.yul\":14023:14043   */\n      tag_319\n      jump\t// in\n    tag_536:\n        /* \"#utility.yul\":14018:14043   */\n      swap2\n      pop\n        /* \"#utility.yul\":14057:14077   */\n      tag_537\n        /* \"#utility.yul\":14075:14076   */\n      dup4\n        /* \"#utility.yul\":14057:14077   */\n      tag_319\n      jump\t// in\n    tag_537:\n        /* \"#utility.yul\":14052:14077   */\n      swap3\n      pop\n        /* \"#utility.yul\":14096:14097   */\n      dup3\n        /* \"#utility.yul\":14086:14121   */\n      tag_538\n      jumpi\n        /* \"#utility.yul\":14101:14119   */\n      tag_539\n      tag_351\n      jump\t// in\n    tag_539:\n        /* \"#utility.yul\":14086:14121   */\n    tag_538:\n        /* \"#utility.yul\":14142:14143   */\n      dup3\n        /* \"#utility.yul\":14139:14140   */\n      dup3\n        /* \"#utility.yul\":14135:14144   */\n      mod\n        /* \"#utility.yul\":14130:14144   */\n      swap1\n      pop\n        /* \"#utility.yul\":13974:14150   */\n      swap3\n      swap2\n      pop\n      pop\n      jump\t// out\n        /* \"#utility.yul\":14156:14488   */\n    tag_290:\n        /* \"#utility.yul\":14277:14281   */\n      0x00\n        /* \"#utility.yul\":14315:14317   */\n      0x40\n        /* \"#utility.yul\":14304:14313   */\n      dup3\n        /* \"#utility.yul\":14300:14318   */\n      add\n        /* \"#utility.yul\":14292:14318   */\n      swap1\n      pop\n        /* \"#utility.yul\":14328:14399   */\n      tag_541\n        /* \"#utility.yul\":14396:14397   */\n      0x00\n        /* \"#utility.yul\":14385:14394   */\n      dup4\n        /* \"#utility.yul\":14381:14398   */\n      add\n        /* \"#utility.yul\":14372:14378   */\n      dup6\n        /* \"#utility.yul\":14328:14399   */\n      tag_328\n      jump\t// in\n    tag_541:\n        /* \"#utility.yul\":14409:14481   */\n      tag_542\n        /* \"#utility.yul\":14477:14479   */\n      0x20\n        /* \"#utility.yul\":14466:14475   */\n      dup4\n        /* \"#utility.yul\":14462:14480   */\n      add\n        /* \"#utility.yul\":14453:14459   */\n      dup5\n        /* \"#utility.yul\":14409:14481   */\n      tag_329\n      jump\t// in\n    tag_542:\n        /* \"#utility.yul\":14156:14488   */\n      swap4\n      swap3\n      pop\n      pop\n      pop\n      jump\t// out\n        /* \"#utility.yul\":14494:14584   */\n    tag_358:\n        /* \"#utility.yul\":14528:14535   */\n      0x00\n        /* \"#utility.yul\":14571:14576   */\n      dup2\n        /* \"#utility.yul\":14564:14577   */\n      iszero\n        /* \"#utility.yul\":14557:14578   */\n      iszero\n        /* \"#utility.yul\":14546:14578   */\n      swap1\n      pop\n        /* \"#utility.yul\":14494:14584   */\n      swap2\n      swap1\n      pop\n      jump\t// out\n        /* \"#utility.yul\":14590:14699   */\n    tag_359:\n        /* \"#utility.yul\":14671:14692   */\n      tag_545\n        /* \"#utility.yul\":14686:14691   */\n      dup2\n        /* \"#utility.yul\":14671:14692   */\n      tag_358\n      jump\t// in\n    tag_545:\n        /* \"#utility.yul\":14666:14669   */\n      dup3\n        /* \"#utility.yul\":14659:14693   */\n      mstore\n        /* \"#utility.yul\":14590:14699   */\n      pop\n      pop\n      jump\t// out\n        /* \"#utility.yul\":14705:15246   */\n    tag_301:\n        /* \"#utility.yul\":14876:14880   */\n      0x00\n        /* \"#utility.yul\":14914:14917   */\n      0x80\n        /* \"#utility.yul\":14903:14912   */\n      dup3\n        /* \"#utility.yul\":14899:14918   */\n      add\n        /* \"#utility.yul\":14891:14918   */\n      swap1\n      pop\n        /* \"#utility.yul\":14928:14993   */\n      tag_547\n        /* \"#utility.yul\":14990:14991   */\n      0x00\n        /* \"#utility.yul\":14979:14988   */\n      dup4\n        /* \"#utility.yul\":14975:14992   */\n      add\n        /* \"#utility.yul\":14966:14972   */\n      dup8\n        /* \"#utility.yul\":14928:14993   */\n      tag_359\n      jump\t// in\n    tag_547:\n        /* \"#utility.yul\":15003:15075   */\n      tag_548\n        /* \"#utility.yul\":15071:15073   */\n      0x20\n        /* \"#utility.yul\":15060:15069   */\n      dup4\n        /* \"#utility.yul\":15056:15074   */\n      add\n        /* \"#utility.yul\":15047:15053   */\n      dup7\n        /* \"#utility.yul\":15003:15075   */\n      tag_329\n      jump\t// in\n    tag_548:\n        /* \"#utility.yul\":15085:15157   */\n      tag_549\n        /* \"#utility.yul\":15153:15155   */\n      0x40\n        /* \"#utility.yul\":15142:15151   */\n      dup4\n        /* \"#utility.yul\":15138:15156   */\n      add\n        /* \"#utility.yul\":15129:15135   */\n      dup6\n        /* \"#utility.yul\":15085:15157   */\n      tag_329\n      jump\t// in\n    tag_549:\n        /* \"#utility.yul\":15167:15239   */\n      tag_550\n        /* \"#utility.yul\":15235:15237   */\n      0x60\n        /* \"#utility.yul\":15224:15233   */\n      dup4\n        /* \"#utility.yul\":15220:15238   */\n      add\n        /* \"#utility.yul\":15211:15217   */\n      dup5\n        /* \"#utility.yul\":15167:15239   */\n      tag_329\n      jump\t// in\n    tag_550:\n        /* \"#utility.yul\":14705:15246   */\n      swap6\n      swap5\n      pop\n      pop\n      pop\n      pop\n      pop\n      jump\t// out\n        /* \"#utility.yul\":15252:15421   */\n    tag_360:\n        /* \"#utility.yul\":15336:15347   */\n      0x00\n        /* \"#utility.yul\":15370:15376   */\n      dup3\n        /* \"#utility.yul\":15365:15368   */\n      dup3\n        /* \"#utility.yul\":15358:15377   */\n      mstore\n        /* \"#utility.yul\":15410:15414   */\n      0x20\n        /* \"#utility.yul\":15405:15408   */\n      dup3\n        /* \"#utility.yul\":15401:15415   */\n      add\n        /* \"#utility.yul\":15386:15415   */\n      swap1\n      pop\n        /* \"#utility.yul\":15252:15421   */\n      swap3\n      swap2\n      pop\n      pop\n      jump\t// out\n        /* \"#utility.yul\":15427:15608   */\n    tag_361:\n        /* \"#utility.yul\":15567:15600   */\n      0x5265656e7472616e637947756172643a207265656e7472616e742063616c6c00\n        /* \"#utility.yul\":15563:15564   */\n      0x00\n        /* \"#utility.yul\":15555:15561   */\n      dup3\n        /* \"#utility.yul\":15551:15565   */\n      add\n        /* \"#utility.yul\":15544:15601   */\n      mstore\n        /* \"#utility.yul\":15427:15608   */\n      pop\n      jump\t// out\n        /* \"#utility.yul\":15614:15980   */\n    tag_362:\n        /* \"#utility.yul\":15756:15759   */\n      0x00\n        /* \"#utility.yul\":15777:15844   */\n      tag_554\n        /* \"#utility.yul\":15841:15843   */\n      0x1f\n        /* \"#utility.yul\":15836:15839   */\n      dup4\n        /* \"#utility.yul\":15777:15844   */\n      tag_360\n      jump\t// in\n    tag_554:\n        /* \"#utility.yul\":15770:15844   */\n      swap2\n      pop\n        /* \"#utility.yul\":15853:15946   */\n      tag_555\n        /* \"#utility.yul\":15942:15945   */\n      dup3\n        /* \"#utility.yul\":15853:15946   */\n      tag_361\n      jump\t// in\n    tag_555:\n        /* \"#utility.yul\":15971:15973   */\n      0x20\n        /* \"#utility.yul\":15966:15969   */\n      dup3\n        /* \"#utility.yul\":15962:15974   */\n      add\n        /* \"#utility.yul\":15955:15974   */\n      swap1\n      pop\n        /* \"#utility.yul\":15614:15980   */\n      swap2\n      swap1\n      pop\n      jump\t// out\n        /* \"#utility.yul\":15986:16405   */\n    tag_313:\n        /* \"#utility.yul\":16152:16156   */\n      0x00\n        /* \"#utility.yul\":16190:16192   */\n      0x20\n        /* \"#utility.yul\":16179:16188   */\n      dup3\n        /* \"#utility.yul\":16175:16193   */\n      add\n        /* \"#utility.yul\":16167:16193   */\n      swap1\n      pop\n        /* \"#utility.yul\":16239:16248   */\n      dup2\n        /* \"#utility.yul\":16233:16237   */\n      dup2\n        /* \"#utility.yul\":16229:16249   */\n      sub\n        /* \"#utility.yul\":16225:16226   */\n      0x00\n        /* \"#utility.yul\":16214:16223   */\n      dup4\n        /* \"#utility.yul\":16210:16227   */\n      add\n        /* \"#utility.yul\":16203:16250   */\n      mstore\n        /* \"#utility.yul\":16267:16398   */\n      tag_557\n        /* \"#utility.yul\":16393:16397   */\n      dup2\n        /* \"#utility.yul\":16267:16398   */\n      tag_362\n      jump\t// in\n    tag_557:\n        /* \"#utility.yul\":16259:16398   */\n      swap1\n      pop\n        /* \"#utility.yul\":15986:16405   */\n      swap2\n      swap1\n      pop\n      jump\t// out\n\n    auxdata: 0xa2646970667358221220d192515ec720610b120f540cc036c6304c2882c1b41f692100711ffe92dbed9b64736f6c634300081e0033\n}\n",
				"bytecode": {
					"linkReferences": {},
					"object": "60a06040526101f46008556103e860095534801561001b575f5ffd5b50604051612975380380612975833981810160405281019061003d9190610261565b33828073ffffffffffffffffffffffffffffffffffffffff1660808173ffffffffffffffffffffffffffffffffffffffff1681525050505f73ffffffffffffffffffffffffffffffffffffffff168173ffffffffffffffffffffffffffffffffffffffff16036100e4575f6040517f1e4fbdf70000000000000000000000000000000000000000000000000000000081526004016100db91906102ae565b60405180910390fd5b6100f38161014260201b60201c565b50600180819055508060025f6101000a81548173ffffffffffffffffffffffffffffffffffffffff021916908373ffffffffffffffffffffffffffffffffffffffff16021790555050506102c7565b5f5f5f9054906101000a900473ffffffffffffffffffffffffffffffffffffffff169050815f5f6101000a81548173ffffffffffffffffffffffffffffffffffffffff021916908373ffffffffffffffffffffffffffffffffffffffff1602179055508173ffffffffffffffffffffffffffffffffffffffff168173ffffffffffffffffffffffffffffffffffffffff167f8be0079c531659141344cd1fd0a4f28419497f9722a3daafe3b4186f6b6457e060405160405180910390a35050565b5f5ffd5b5f73ffffffffffffffffffffffffffffffffffffffff82169050919050565b5f61023082610207565b9050919050565b61024081610226565b811461024a575f5ffd5b50565b5f8151905061025b81610237565b92915050565b5f5f6040838503121561027757610276610203565b5b5f6102848582860161024d565b92505060206102958582860161024d565b9150509250929050565b6102a881610226565b82525050565b5f6020820190506102c15f83018461029f565b92915050565b6080516126816102f45f395f818161068b015281816106df01528181610dd8015261101201526126815ff3fe60806040526004361061019b575f3560e01c8063bc7f25e4116100eb578063d69fd7b911610089578063ee59d24011610063578063ee59d240146105d1578063f2fde38b146105fb578063f379469b14610623578063f68017cd1461064d5761019b565b8063d69fd7b914610543578063e231b0ef1461057f578063e27ff2ba146105a95761019b565b8063c32b5373116100c5578063c32b537314610471578063c4f343fd1461049b578063d0821b0e146104d7578063d21cacdf146105075761019b565b8063bc7f25e4146103e1578063bdcf17531461041d578063befa1e2f146104475761019b565b80634b11469111610158578063708666ad11610132578063708666ad1461034f578063715018a6146103795780638da5cb5b1461038f578063bc6e8020146103b95761019b565b80634b114691146102bd5780635a09f2f4146102fd5780635c492129146103255761019b565b80631fe543e31461019f57806322af00fa146101c7578063303306151461020557806333d608f11461022d57806344af2edb14610257578063454f7b8f14610293575b5f5ffd5b3480156101aa575f5ffd5b506101c560048036038101906101c09190611e84565b610689565b005b3480156101d2575f5ffd5b506101ed60048036038101906101e89190611ee1565b61074b565b6040516101fc93929190611f75565b60405180910390f35b348015610210575f5ffd5b5061022b60048036038101906102269190611fdd565b61079c565b005b348015610238575f5ffd5b5061024161093d565b60405161024e9190612026565b60405180910390f35b348015610262575f5ffd5b5061027d60048036038101906102789190612069565b610944565b60405161028a91906120a3565b60405180910390f35b34801561029e575f5ffd5b506102a7610959565b6040516102b491906120bc565b60405180910390f35b3480156102c8575f5ffd5b506102e360048036038101906102de9190612069565b61095f565b6040516102f49594939291906120d5565b60405180910390f35b348015610308575f5ffd5b50610323600480360381019061031e9190611ee1565b610991565b005b348015610330575f5ffd5b506103396109df565b60405161034691906120bc565b60405180910390f35b34801561035a575f5ffd5b506103636109e5565b6040516103709190612181565b60405180910390f35b348015610384575f5ffd5b5061038d610a0a565b005b34801561039a575f5ffd5b506103a3610a1d565b6040516103b0919061219a565b60405180910390f35b3480156103c4575f5ffd5b506103df60048036038101906103da9190611fdd565b610a44565b005b3480156103ec575f5ffd5b5061040760048036038101906104029190612069565b610cd9565b604051610414919061219a565b60405180910390f35b348015610428575f5ffd5b50610431610d3e565b60405161043e91906120bc565b60405180910390f35b348015610452575f5ffd5b5061045b610d44565b60405161046891906120bc565b60405180910390f35b34801561047c575f5ffd5b50610485610d4a565b60405161049291906120bc565b60405180910390f35b3480156104a6575f5ffd5b506104c160048036038101906104bc9190611fdd565b610d50565b6040516104ce919061219a565b60405180910390f35b6104f160048036038101906104ec91906121dd565b610d80565b6040516104fe91906120bc565b60405180910390f35b348015610512575f5ffd5b5061052d60048036038101906105289190612069565b61164f565b60405161053a919061219a565b60405180910390f35b34801561054e575f5ffd5b5061056960048036038101906105649190612069565b61167f565b60405161057691906120a3565b60405180910390f35b34801561058a575f5ffd5b506105936116c5565b6040516105a091906120bc565b60405180910390f35b3480156105b4575f5ffd5b506105cf60048036038101906105ca9190611ee1565b6116cb565b005b3480156105dc575f5ffd5b506105e5611719565b6040516105f291906120bc565b60405180910390f35b348015610606575f5ffd5b50610621600480360381019061061c9190612069565b61171f565b005b34801561062e575f5ffd5b506106376117a3565b60405161064491906120bc565b60405180910390f35b348015610658575f5ffd5b50610673600480360381019061066e9190611fdd565b6117a9565b604051610680919061219a565b60405180910390f35b7f000000000000000000000000000000000000000000000000000000000000000073ffffffffffffffffffffffffffffffffffffffff163373ffffffffffffffffffffffffffffffffffffffff161461073b57337f00000000000000000000000000000000000000000000000000000000000000006040517f20138a9f000000000000000000000000000000000000000000000000000000008152600401610732929190612208565b60405180910390fd5b6107468383836117e2565b505050565b6003602052805f5260405f205f91509050805f015f9054906101000a900473ffffffffffffffffffffffffffffffffffffffff1690806001015490806002015f9054906101000a900460ff16905083565b5f5f1b60055f3373ffffffffffffffffffffffffffffffffffffffff1673ffffffffffffffffffffffffffffffffffffffff1681526020019081526020015f205414610814576040517f809dc80800000000000000000000000000000000000000000000000000000000815260040160405180910390fd5b5f73ffffffffffffffffffffffffffffffffffffffff1660045f8381526020019081526020015f205f9054906101000a900473ffffffffffffffffffffffffffffffffffffffff1673ffffffffffffffffffffffffffffffffffffffff16146108a9576040517f374be26400000000000000000000000000000000000000000000000000000000815260040160405180910390fd5b3360045f8381526020019081526020015f205f6101000a81548173ffffffffffffffffffffffffffffffffffffffff021916908373ffffffffffffffffffffffffffffffffffffffff1602179055508060055f3373ffffffffffffffffffffffffffffffffffffffff1673ffffffffffffffffffffffffffffffffffffffff1681526020019081526020015f208190555050565b62030d4081565b6005602052805f5260405f205f915090505481565b600b5481565b6007602052805f5260405f205f91509050805f0154908060010154908060020154908060030154908060040154905085565b610999611c41565b6107d08111156109d5576040517fcd4e616700000000000000000000000000000000000000000000000000000000815260040160405180910390fd5b8060088190555050565b600c5481565b60025f9054906101000a900473ffffffffffffffffffffffffffffffffffffffff1681565b610a12611c41565b610a1b5f611cc8565b565b5f5f5f9054906101000a900473ffffffffffffffffffffffffffffffffffffffff16905090565b5f60045f8381526020019081526020015f205f9054906101000a900473ffffffffffffffffffffffffffffffffffffffff1690503373ffffffffffffffffffffffffffffffffffffffff168173ffffffffffffffffffffffffffffffffffffffff1603610add576040517f6d0f1f8200000000000000000000000000000000000000000000000000000000815260040160405180910390fd5b5f73ffffffffffffffffffffffffffffffffffffffff168173ffffffffffffffffffffffffffffffffffffffff1603610b42576040517f865dc59c00000000000000000000000000000000000000000000000000000000815260040160405180910390fd5b5f73ffffffffffffffffffffffffffffffffffffffff1660065f3373ffffffffffffffffffffffffffffffffffffffff1673ffffffffffffffffffffffffffffffffffffffff1681526020019081526020015f205f9054906101000a900473ffffffffffffffffffffffffffffffffffffffff1673ffffffffffffffffffffffffffffffffffffffff1614610c03576040517f967c839800000000000000000000000000000000000000000000000000000000815260040160405180910390fd5b8060065f3373ffffffffffffffffffffffffffffffffffffffff1673ffffffffffffffffffffffffffffffffffffffff1681526020019081526020015f205f6101000a81548173ffffffffffffffffffffffffffffffffffffffff021916908373ffffffffffffffffffffffffffffffffffffffff160217905550600160075f8373ffffffffffffffffffffffffffffffffffffffff1673ffffffffffffffffffffffffffffffffffffffff1681526020019081526020015f206004015f828254610cce919061225c565b925050819055505050565b5f60065f8373ffffffffffffffffffffffffffffffffffffffff1673ffffffffffffffffffffffffffffffffffffffff1681526020019081526020015f205f9054906101000a900473ffffffffffffffffffffffffffffffffffffffff169050919050565b60095481565b600a5481565b600d5481565b6004602052805f5260405f205f915054906101000a900473ffffffffffffffffffffffffffffffffffffffff1681565b5f610d89611d89565b60018260ff161080610d9e575060058260ff16115b15610dd5576040517f364e219700000000000000000000000000000000000000000000000000000000815260040160405180910390fd5b5f7f000000000000000000000000000000000000000000000000000000000000000073ffffffffffffffffffffffffffffffffffffffff1663c66d3d1862030d406040518263ffffffff1660e01b8152600401610e3291906122bf565b602060405180830381865afa158015610e4d573d5f5f3e3d5ffd5b505050506040513d601f19601f82011682018060405250810190610e7191906122ec565b9050803411610eac576040517fcd1c886700000000000000000000000000000000000000000000000000000000815260040160405180910390fd5b5f8134610eb99190612317565b9050670de0b6b3a7640000341015610efd576040517fd312a68800000000000000000000000000000000000000000000000000000000815260040160405180910390fd5b5f60025f9054906101000a900473ffffffffffffffffffffffffffffffffffffffff1673ffffffffffffffffffffffffffffffffffffffff16630910a5106040518163ffffffff1660e01b8152600401602060405180830381865afa158015610f68573d5f5f3e3d5ffd5b505050506040513d601f19601f82011682018060405250810190610f8c91906122ec565b90505f856006610f9c919061234a565b60ff16600684610fac919061237e565b610fb691906123ec565b90505f61271060095484610fca919061237e565b610fd491906123ec565b905080821115611010576040517f2ed7adcc00000000000000000000000000000000000000000000000000000000815260040160405180910390fd5b7f000000000000000000000000000000000000000000000000000000000000000073ffffffffffffffffffffffffffffffffffffffff1663cb9bb27f8662030d40600160025f9054906101000a900473ffffffffffffffffffffffffffffffffffffffff166040518563ffffffff1660e01b815260040161109393929190612455565b60206040518083038185885af11580156110af573d5f5f3e3d5ffd5b50505050506040513d601f19601f820116820180604052508101906110d491906122ec565b95505f60065f3373ffffffffffffffffffffffffffffffffffffffff1673ffffffffffffffffffffffffffffffffffffffff1681526020019081526020015f205f9054906101000a900473ffffffffffffffffffffffffffffffffffffffff1690505f5f5f73ffffffffffffffffffffffffffffffffffffffff168373ffffffffffffffffffffffffffffffffffffffff16146111a457612710600a8861117b919061237e565b61118591906123ec565b9150612710600588611197919061237e565b6111a191906123ec565b90505b5f8183896111b29190612317565b6111bc9190612317565b90505f60025f9054906101000a900473ffffffffffffffffffffffffffffffffffffffff1673ffffffffffffffffffffffffffffffffffffffff1682604051611204906124b7565b5f6040518083038185875af1925050503d805f811461123e576040519150601f19603f3d011682016040523d82523d5f602084013e611243565b606091505b505090508061127d576040517e9716ce00000000000000000000000000000000000000000000000000000000815260040160405180910390fd5b5f841115611325578473ffffffffffffffffffffffffffffffffffffffff16846040516112a9906124b7565b5f6040518083038185875af1925050503d805f81146112e3576040519150601f19603f3d011682016040523d82523d5f602084013e6112e8565b606091505b50508091505080611324576040517e9716ce00000000000000000000000000000000000000000000000000000000815260040160405180910390fd5b5b5f8311156113cd573373ffffffffffffffffffffffffffffffffffffffff1683604051611351906124b7565b5f6040518083038185875af1925050503d805f811461138b576040519150601f19603f3d011682016040523d82523d5f602084013e611390565b606091505b505080915050806113cc576040517e9716ce00000000000000000000000000000000000000000000000000000000815260040160405180910390fd5b5b60405180606001604052803373ffffffffffffffffffffffffffffffffffffffff1681526020018a81526020018d60ff1681525060035f8d81526020019081526020015f205f820151815f015f6101000a81548173ffffffffffffffffffffffffffffffffffffffff021916908373ffffffffffffffffffffffffffffffffffffffff160217905550602082015181600101556040820151816002015f6101000a81548160ff021916908360ff16021790555090505060025f9054906101000a900473ffffffffffffffffffffffffffffffffffffffff1673ffffffffffffffffffffffffffffffffffffffff16631fbf7c3e8a6040518263ffffffff1660e01b81526004016114dd91906120bc565b5f604051808303815f87803b1580156114f4575f5ffd5b505af1158015611506573d5f5f3e3d5ffd5b5050505088600a5f82825461151b919061225c565b925050819055506001600c5f828254611534919061225c565b925050819055508860075f3373ffffffffffffffffffffffffffffffffffffffff1673ffffffffffffffffffffffffffffffffffffffff1681526020019081526020015f205f015f828254611589919061225c565b92505081905550600160075f3373ffffffffffffffffffffffffffffffffffffffff1673ffffffffffffffffffffffffffffffffffffffff1681526020019081526020015f206002015f8282546115e0919061225c565b925050819055503373ffffffffffffffffffffffffffffffffffffffff168b7fe90186097616cbeb30ffc786b44501e1362f5e0a316a96c5ab82a0551f9d2f058b8f6040516116309291906124cb565b60405180910390a35050505050505050505061164a611dd8565b919050565b6006602052805f5260405f205f915054906101000a900473ffffffffffffffffffffffffffffffffffffffff1681565b5f60055f8373ffffffffffffffffffffffffffffffffffffffff1673ffffffffffffffffffffffffffffffffffffffff1681526020019081526020015f20549050919050565b61138881565b6116d3611c41565b61138881111561170f576040517fab551ce400000000000000000000000000000000000000000000000000000000815260040160405180910390fd5b8060098190555050565b60085481565b611727611c41565b5f73ffffffffffffffffffffffffffffffffffffffff168173ffffffffffffffffffffffffffffffffffffffff1603611797575f6040517f1e4fbdf700000000000000000000000000000000000000000000000000000000815260040161178e919061219a565b60405180910390fd5b6117a081611cc8565b50565b6107d081565b5f60045f8381526020019081526020015f205f9054906101000a900473ffffffffffffffffffffffffffffffffffffffff169050919050565b5f60035f8581526020019081526020015f206040518060600160405290815f82015f9054906101000a900473ffffffffffffffffffffffffffffffffffffffff1673ffffffffffffffffffffffffffffffffffffffff1673ffffffffffffffffffffffffffffffffffffffff16815260200160018201548152602001600282015f9054906101000a900460ff1660ff1660ff168152505090505f73ffffffffffffffffffffffffffffffffffffffff16815f015173ffffffffffffffffffffffffffffffffffffffff16036118e3576040517f469bfa9100000000000000000000000000000000000000000000000000000000815260040160405180910390fd5b5f600684845f8181106118f9576118f86124f2565b5b9050602002013561190a919061251f565b90505f826040015160ff1682101590505f5f905081156119f8575f84604001516006611936919061234a565b60ff166006866020015161194a919061237e565b61195491906123ec565b90505f61271060085483611968919061237e565b61197291906123ec565b905080826119809190612317565b9250600160075f885f015173ffffffffffffffffffffffffffffffffffffffff1673ffffffffffffffffffffffffffffffffffffffff1681526020019081526020015f206003015f8282546119d5919061225c565b925050819055506001600d5f8282546119ee919061225c565b9250508190555050505b60035f8881526020019081526020015f205f5f82015f6101000a81549073ffffffffffffffffffffffffffffffffffffffff0219169055600182015f9055600282015f6101000a81549060ff021916905550505f811115611b515760025f9054906101000a900473ffffffffffffffffffffffffffffffffffffffff1673ffffffffffffffffffffffffffffffffffffffff1663117de2fd855f0151836040518363ffffffff1660e01b8152600401611ab292919061254f565b5f604051808303815f87803b158015611ac9575f5ffd5b505af1158015611adb573d5f5f3e3d5ffd5b5050505080600b5f828254611af0919061225c565b925050819055508060075f865f015173ffffffffffffffffffffffffffffffffffffffff1673ffffffffffffffffffffffffffffffffffffffff1681526020019081526020015f206001015f828254611b49919061225c565b925050819055505b60025f9054906101000a900473ffffffffffffffffffffffffffffffffffffffff1673ffffffffffffffffffffffffffffffffffffffff1663bff8a36d85602001516040518263ffffffff1660e01b8152600401611baf91906120bc565b5f604051808303815f87803b158015611bc6575f5ffd5b505af1158015611bd8573d5f5f3e3d5ffd5b50505050835f015173ffffffffffffffffffffffffffffffffffffffff16877ff080ca67b108fbad70bb5fbbf685238b9880f8adf09f3b5838058b9645d2d6fb8486886020015186604051611c309493929190612590565b60405180910390a350505050505050565b611c49611de1565b73ffffffffffffffffffffffffffffffffffffffff16611c67610a1d565b73ffffffffffffffffffffffffffffffffffffffff1614611cc657611c8a611de1565b6040517f118cdaa7000000000000000000000000000000000000000000000000000000008152600401611cbd919061219a565b60405180910390fd5b565b5f5f5f9054906101000a900473ffffffffffffffffffffffffffffffffffffffff169050815f5f6101000a81548173ffffffffffffffffffffffffffffffffffffffff021916908373ffffffffffffffffffffffffffffffffffffffff1602179055508173ffffffffffffffffffffffffffffffffffffffff168173ffffffffffffffffffffffffffffffffffffffff167f8be0079c531659141344cd1fd0a4f28419497f9722a3daafe3b4186f6b6457e060405160405180910390a35050565b600260015403611dce576040517f08c379a0000000000000000000000000000000000000000000000000000000008152600401611dc59061262d565b60405180910390fd5b6002600181905550565b60018081905550565b5f33905090565b5f5ffd5b5f5ffd5b5f819050919050565b611e0281611df0565b8114611e0c575f5ffd5b50565b5f81359050611e1d81611df9565b92915050565b5f5ffd5b5f5ffd5b5f5ffd5b5f5f83601f840112611e4457611e43611e23565b5b8235905067ffffffffffffffff811115611e6157611e60611e27565b5b602083019150836020820283011115611e7d57611e7c611e2b565b5b9250929050565b5f5f5f60408486031215611e9b57611e9a611de8565b5b5f611ea886828701611e0f565b935050602084013567ffffffffffffffff811115611ec957611ec8611dec565b5b611ed586828701611e2f565b92509250509250925092565b5f60208284031215611ef657611ef5611de8565b5b5f611f0384828501611e0f565b91505092915050565b5f73ffffffffffffffffffffffffffffffffffffffff82169050919050565b5f611f3582611f0c565b9050919050565b611f4581611f2b565b82525050565b611f5481611df0565b82525050565b5f60ff82169050919050565b611f6f81611f5a565b82525050565b5f606082019050611f885f830186611f3c565b611f956020830185611f4b565b611fa26040830184611f66565b949350505050565b5f819050919050565b611fbc81611faa565b8114611fc6575f5ffd5b50565b5f81359050611fd781611fb3565b92915050565b5f60208284031215611ff257611ff1611de8565b5b5f611fff84828501611fc9565b91505092915050565b5f63ffffffff82169050919050565b61202081612008565b82525050565b5f6020820190506120395f830184612017565b92915050565b61204881611f2b565b8114612052575f5ffd5b50565b5f813590506120638161203f565b92915050565b5f6020828403121561207e5761207d611de8565b5b5f61208b84828501612055565b91505092915050565b61209d81611faa565b82525050565b5f6020820190506120b65f830184612094565b92915050565b5f6020820190506120cf5f830184611f4b565b92915050565b5f60a0820190506120e85f830188611f4b565b6120f56020830187611f4b565b6121026040830186611f4b565b61210f6060830185611f4b565b61211c6080830184611f4b565b9695505050505050565b5f819050919050565b5f61214961214461213f84611f0c565b612126565b611f0c565b9050919050565b5f61215a8261212f565b9050919050565b5f61216b82612150565b9050919050565b61217b81612161565b82525050565b5f6020820190506121945f830184612172565b92915050565b5f6020820190506121ad5f830184611f3c565b92915050565b6121bc81611f5a565b81146121c6575f5ffd5b50565b5f813590506121d7816121b3565b92915050565b5f602082840312156121f2576121f1611de8565b5b5f6121ff848285016121c9565b91505092915050565b5f60408201905061221b5f830185611f3c565b6122286020830184611f3c565b9392505050565b7f4e487b71000000000000000000000000000000000000000000000000000000005f52601160045260245ffd5b5f61226682611df0565b915061227183611df0565b92508282019050808211156122895761228861222f565b5b92915050565b5f6122a96122a461229f84612008565b612126565b611df0565b9050919050565b6122b98161228f565b82525050565b5f6020820190506122d25f8301846122b0565b92915050565b5f815190506122e681611df9565b92915050565b5f6020828403121561230157612300611de8565b5b5f61230e848285016122d8565b91505092915050565b5f61232182611df0565b915061232c83611df0565b92508282039050818111156123445761234361222f565b5b92915050565b5f61235482611f5a565b915061235f83611f5a565b9250828203905060ff8111156123785761237761222f565b5b92915050565b5f61238882611df0565b915061239383611df0565b92508282026123a181611df0565b915082820484148315176123b8576123b761222f565b5b5092915050565b7f4e487b71000000000000000000000000000000000000000000000000000000005f52601260045260245ffd5b5f6123f682611df0565b915061240183611df0565b925082612411576124106123bf565b5b828204905092915050565b5f819050919050565b5f61243f61243a6124358461241c565b612126565b611df0565b9050919050565b61244f81612425565b82525050565b5f6060820190506124685f8301866122b0565b6124756020830185612446565b6124826040830184611f3c565b949350505050565b5f81905092915050565b50565b5f6124a25f8361248a565b91506124ad82612494565b5f82019050919050565b5f6124c182612497565b9150819050919050565b5f6040820190506124de5f830185611f4b565b6124eb6020830184611f66565b9392505050565b7f4e487b71000000000000000000000000000000000000000000000000000000005f52603260045260245ffd5b5f61252982611df0565b915061253483611df0565b925082612544576125436123bf565b5b828206905092915050565b5f6040820190506125625f830185611f3c565b61256f6020830184611f4b565b9392505050565b5f8115159050919050565b61258a81612576565b82525050565b5f6080820190506125a35f830187612581565b6125b06020830186611f4b565b6125bd6040830185611f4b565b6125ca6060830184611f4b565b95945050505050565b5f82825260208201905092915050565b7f5265656e7472616e637947756172643a207265656e7472616e742063616c6c005f82015250565b5f612617601f836125d3565b9150612622826125e3565b602082019050919050565b5f6020820190508181035f8301526126448161260b565b905091905056fea2646970667358221220d192515ec720610b120f540cc036c6304c2882c1b41f692100711ffe92dbed9b64736f6c634300081e0033",
					"opcodes": "PUSH1 0xA0 PUSH1 0x40 MSTORE PUSH2 0x1F4 PUSH1 0x8 SSTORE PUSH2 0x3E8 PUSH1 0x9 SSTORE CALLVALUE DUP1 ISZERO PUSH2 0x1B JUMPI PUSH0 PUSH0 REVERT JUMPDEST POP PUSH1 0x40 MLOAD PUSH2 0x2975 CODESIZE SUB DUP1 PUSH2 0x2975 DUP4 CODECOPY DUP2 DUP2 ADD PUSH1 0x40 MSTORE DUP2 ADD SWAP1 PUSH2 0x3D SWAP2 SWAP1 PUSH2 0x261 JUMP JUMPDEST CALLER DUP3 DUP1 PUSH20 0xFFFFFFFFFFFFFFFFFFFFFFFFFFFFFFFFFFFFFFFF AND PUSH1 0x80 DUP2 PUSH20 0xFFFFFFFFFFFFFFFFFFFFFFFFFFFFFFFFFFFFFFFF AND DUP2 MSTORE POP POP POP PUSH0 PUSH20 0xFFFFFFFFFFFFFFFFFFFFFFFFFFFFFFFFFFFFFFFF AND DUP2 PUSH20 0xFFFFFFFFFFFFFFFFFFFFFFFFFFFFFFFFFFFFFFFF AND SUB PUSH2 0xE4 JUMPI PUSH0 PUSH1 0x40 MLOAD PUSH32 0x1E4FBDF700000000000000000000000000000000000000000000000000000000 DUP2 MSTORE PUSH1 0x4 ADD PUSH2 0xDB SWAP2 SWAP1 PUSH2 0x2AE JUMP JUMPDEST PUSH1 0x40 MLOAD DUP1 SWAP2 SUB SWAP1 REVERT JUMPDEST PUSH2 0xF3 DUP2 PUSH2 0x142 PUSH1 0x20 SHL PUSH1 0x20 SHR JUMP JUMPDEST POP PUSH1 0x1 DUP1 DUP2 SWAP1 SSTORE POP DUP1 PUSH1 0x2 PUSH0 PUSH2 0x100 EXP DUP2 SLOAD DUP2 PUSH20 0xFFFFFFFFFFFFFFFFFFFFFFFFFFFFFFFFFFFFFFFF MUL NOT AND SWAP1 DUP4 PUSH20 0xFFFFFFFFFFFFFFFFFFFFFFFFFFFFFFFFFFFFFFFF AND MUL OR SWAP1 SSTORE POP POP POP PUSH2 0x2C7 JUMP JUMPDEST PUSH0 PUSH0 PUSH0 SWAP1 SLOAD SWAP1 PUSH2 0x100 EXP SWAP1 DIV PUSH20 0xFFFFFFFFFFFFFFFFFFFFFFFFFFFFFFFFFFFFFFFF AND SWAP1 POP DUP2 PUSH0 PUSH0 PUSH2 0x100 EXP DUP2 SLOAD DUP2 PUSH20 0xFFFFFFFFFFFFFFFFFFFFFFFFFFFFFFFFFFFFFFFF MUL NOT AND SWAP1 DUP4 PUSH20 0xFFFFFFFFFFFFFFFFFFFFFFFFFFFFFFFFFFFFFFFF AND MUL OR SWAP1 SSTORE POP DUP2 PUSH20 0xFFFFFFFFFFFFFFFFFFFFFFFFFFFFFFFFFFFFFFFF AND DUP2 PUSH20 0xFFFFFFFFFFFFFFFFFFFFFFFFFFFFFFFFFFFFFFFF AND PUSH32 0x8BE0079C531659141344CD1FD0A4F28419497F9722A3DAAFE3B4186F6B6457E0 PUSH1 0x40 MLOAD PUSH1 0x40 MLOAD DUP1 SWAP2 SUB SWAP1 LOG3 POP POP JUMP JUMPDEST PUSH0 PUSH0 REVERT JUMPDEST PUSH0 PUSH20 0xFFFFFFFFFFFFFFFFFFFFFFFFFFFFFFFFFFFFFFFF DUP3 AND SWAP1 POP SWAP2 SWAP1 POP JUMP JUMPDEST PUSH0 PUSH2 0x230 DUP3 PUSH2 0x207 JUMP JUMPDEST SWAP1 POP SWAP2 SWAP1 POP JUMP JUMPDEST PUSH2 0x240 DUP2 PUSH2 0x226 JUMP JUMPDEST DUP2 EQ PUSH2 0x24A JUMPI PUSH0 PUSH0 REVERT JUMPDEST POP JUMP JUMPDEST PUSH0 DUP2 MLOAD SWAP1 POP PUSH2 0x25B DUP2 PUSH2 0x237 JUMP JUMPDEST SWAP3 SWAP2 POP POP JUMP JUMPDEST PUSH0 PUSH0 PUSH1 0x40 DUP4 DUP6 SUB SLT ISZERO PUSH2 0x277 JUMPI PUSH2 0x276 PUSH2 0x203 JUMP JUMPDEST JUMPDEST PUSH0 PUSH2 0x284 DUP6 DUP3 DUP7 ADD PUSH2 0x24D JUMP JUMPDEST SWAP3 POP POP PUSH1 0x20 PUSH2 0x295 DUP6 DUP3 DUP7 ADD PUSH2 0x24D JUMP JUMPDEST SWAP2 POP POP SWAP3 POP SWAP3 SWAP1 POP JUMP JUMPDEST PUSH2 0x2A8 DUP2 PUSH2 0x226 JUMP JUMPDEST DUP3 MSTORE POP POP JUMP JUMPDEST PUSH0 PUSH1 0x20 DUP3 ADD SWAP1 POP PUSH2 0x2C1 PUSH0 DUP4 ADD DUP5 PUSH2 0x29F JUMP JUMPDEST SWAP3 SWAP2 POP POP JUMP JUMPDEST PUSH1 0x80 MLOAD PUSH2 0x2681 PUSH2 0x2F4 PUSH0 CODECOPY PUSH0 DUP2 DUP2 PUSH2 0x68B ADD MSTORE DUP2 DUP2 PUSH2 0x6DF ADD MSTORE DUP2 DUP2 PUSH2 0xDD8 ADD MSTORE PUSH2 0x1012 ADD MSTORE PUSH2 0x2681 PUSH0 RETURN INVALID PUSH1 0x80 PUSH1 0x40 MSTORE PUSH1 0x4 CALLDATASIZE LT PUSH2 0x19B JUMPI PUSH0 CALLDATALOAD PUSH1 0xE0 SHR DUP1 PUSH4 0xBC7F25E4 GT PUSH2 0xEB JUMPI DUP1 PUSH4 0xD69FD7B9 GT PUSH2 0x89 JUMPI DUP1 PUSH4 0xEE59D240 GT PUSH2 0x63 JUMPI DUP1 PUSH4 0xEE59D240 EQ PUSH2 0x5D1 JUMPI DUP1 PUSH4 0xF2FDE38B EQ PUSH2 0x5FB JUMPI DUP1 PUSH4 0xF379469B EQ PUSH2 0x623 JUMPI DUP1 PUSH4 0xF68017CD EQ PUSH2 0x64D JUMPI PUSH2 0x19B JUMP JUMPDEST DUP1 PUSH4 0xD69FD7B9 EQ PUSH2 0x543 JUMPI DUP1 PUSH4 0xE231B0EF EQ PUSH2 0x57F JUMPI DUP1 PUSH4 0xE27FF2BA EQ PUSH2 0x5A9 JUMPI PUSH2 0x19B JUMP JUMPDEST DUP1 PUSH4 0xC32B5373 GT PUSH2 0xC5 JUMPI DUP1 PUSH4 0xC32B5373 EQ PUSH2 0x471 JUMPI DUP1 PUSH4 0xC4F343FD EQ PUSH2 0x49B JUMPI DUP1 PUSH4 0xD0821B0E EQ PUSH2 0x4D7 JUMPI DUP1 PUSH4 0xD21CACDF EQ PUSH2 0x507 JUMPI PUSH2 0x19B JUMP JUMPDEST DUP1 PUSH4 0xBC7F25E4 EQ PUSH2 0x3E1 JUMPI DUP1 PUSH4 0xBDCF1753 EQ PUSH2 0x41D JUMPI DUP1 PUSH4 0xBEFA1E2F EQ PUSH2 0x447 JUMPI PUSH2 0x19B JUMP JUMPDEST DUP1 PUSH4 0x4B114691 GT PUSH2 0x158 JUMPI DUP1 PUSH4 0x708666AD GT PUSH2 0x132 JUMPI DUP1 PUSH4 0x708666AD EQ PUSH2 0x34F JUMPI DUP1 PUSH4 0x715018A6 EQ PUSH2 0x379 JUMPI DUP1 PUSH4 0x8DA5CB5B EQ PUSH2 0x38F JUMPI DUP1 PUSH4 0xBC6E8020 EQ PUSH2 0x3B9 JUMPI PUSH2 0x19B JUMP JUMPDEST DUP1 PUSH4 0x4B114691 EQ PUSH2 0x2BD JUMPI DUP1 PUSH4 0x5A09F2F4 EQ PUSH2 0x2FD JUMPI DUP1 PUSH4 0x5C492129 EQ PUSH2 0x325 JUMPI PUSH2 0x19B JUMP JUMPDEST DUP1 PUSH4 0x1FE543E3 EQ PUSH2 0x19F JUMPI DUP1 PUSH4 0x22AF00FA EQ PUSH2 0x1C7 JUMPI DUP1 PUSH4 0x30330615 EQ PUSH2 0x205 JUMPI DUP1 PUSH4 0x33D608F1 EQ PUSH2 0x22D JUMPI DUP1 PUSH4 0x44AF2EDB EQ PUSH2 0x257 JUMPI DUP1 PUSH4 0x454F7B8F EQ PUSH2 0x293 JUMPI JUMPDEST PUSH0 PUSH0 REVERT JUMPDEST CALLVALUE DUP1 ISZERO PUSH2 0x1AA JUMPI PUSH0 PUSH0 REVERT JUMPDEST POP PUSH2 0x1C5 PUSH1 0x4 DUP1 CALLDATASIZE SUB DUP2 ADD SWAP1 PUSH2 0x1C0 SWAP2 SWAP1 PUSH2 0x1E84 JUMP JUMPDEST PUSH2 0x689 JUMP JUMPDEST STOP JUMPDEST CALLVALUE DUP1 ISZERO PUSH2 0x1D2 JUMPI PUSH0 PUSH0 REVERT JUMPDEST POP PUSH2 0x1ED PUSH1 0x4 DUP1 CALLDATASIZE SUB DUP2 ADD SWAP1 PUSH2 0x1E8 SWAP2 SWAP1 PUSH2 0x1EE1 JUMP JUMPDEST PUSH2 0x74B JUMP JUMPDEST PUSH1 0x40 MLOAD PUSH2 0x1FC SWAP4 SWAP3 SWAP2 SWAP1 PUSH2 0x1F75 JUMP JUMPDEST PUSH1 0x40 MLOAD DUP1 SWAP2 SUB SWAP1 RETURN JUMPDEST CALLVALUE DUP1 ISZERO PUSH2 0x210 JUMPI PUSH0 PUSH0 REVERT JUMPDEST POP PUSH2 0x22B PUSH1 0x4 DUP1 CALLDATASIZE SUB DUP2 ADD SWAP1 PUSH2 0x226 SWAP2 SWAP1 PUSH2 0x1FDD JUMP JUMPDEST PUSH2 0x79C JUMP JUMPDEST STOP JUMPDEST CALLVALUE DUP1 ISZERO PUSH2 0x238 JUMPI PUSH0 PUSH0 REVERT JUMPDEST POP PUSH2 0x241 PUSH2 0x93D JUMP JUMPDEST PUSH1 0x40 MLOAD PUSH2 0x24E SWAP2 SWAP1 PUSH2 0x2026 JUMP JUMPDEST PUSH1 0x40 MLOAD DUP1 SWAP2 SUB SWAP1 RETURN JUMPDEST CALLVALUE DUP1 ISZERO PUSH2 0x262 JUMPI PUSH0 PUSH0 REVERT JUMPDEST POP PUSH2 0x27D PUSH1 0x4 DUP1 CALLDATASIZE SUB DUP2 ADD SWAP1 PUSH2 0x278 SWAP2 SWAP1 PUSH2 0x2069 JUMP JUMPDEST PUSH2 0x944 JUMP JUMPDEST PUSH1 0x40 MLOAD PUSH2 0x28A SWAP2 SWAP1 PUSH2 0x20A3 JUMP JUMPDEST PUSH1 0x40 MLOAD DUP1 SWAP2 SUB SWAP1 RETURN JUMPDEST CALLVALUE DUP1 ISZERO PUSH2 0x29E JUMPI PUSH0 PUSH0 REVERT JUMPDEST POP PUSH2 0x2A7 PUSH2 0x959 JUMP JUMPDEST PUSH1 0x40 MLOAD PUSH2 0x2B4 SWAP2 SWAP1 PUSH2 0x20BC JUMP JUMPDEST PUSH1 0x40 MLOAD DUP1 SWAP2 SUB SWAP1 RETURN JUMPDEST CALLVALUE DUP1 ISZERO PUSH2 0x2C8 JUMPI PUSH0 PUSH0 REVERT JUMPDEST POP PUSH2 0x2E3 PUSH1 0x4 DUP1 CALLDATASIZE SUB DUP2 ADD SWAP1 PUSH2 0x2DE SWAP2 SWAP1 PUSH2 0x2069 JUMP JUMPDEST PUSH2 0x95F JUMP JUMPDEST PUSH1 0x40 MLOAD PUSH2 0x2F4 SWAP6 SWAP5 SWAP4 SWAP3 SWAP2 SWAP1 PUSH2 0x20D5 JUMP JUMPDEST PUSH1 0x40 MLOAD DUP1 SWAP2 SUB SWAP1 RETURN JUMPDEST CALLVALUE DUP1 ISZERO PUSH2 0x308 JUMPI PUSH0 PUSH0 REVERT JUMPDEST POP PUSH2 0x323 PUSH1 0x4 DUP1 CALLDATASIZE SUB DUP2 ADD SWAP1 PUSH2 0x31E SWAP2 SWAP1 PUSH2 0x1EE1 JUMP JUMPDEST PUSH2 0x991 JUMP JUMPDEST STOP JUMPDEST CALLVALUE DUP1 ISZERO PUSH2 0x330 JUMPI PUSH0 PUSH0 REVERT JUMPDEST POP PUSH2 0x339 PUSH2 0x9DF JUMP JUMPDEST PUSH1 0x40 MLOAD PUSH2 0x346 SWAP2 SWAP1 PUSH2 0x20BC JUMP JUMPDEST PUSH1 0x40 MLOAD DUP1 SWAP2 SUB SWAP1 RETURN JUMPDEST CALLVALUE DUP1 ISZERO PUSH2 0x35A JUMPI PUSH0 PUSH0 REVERT JUMPDEST POP PUSH2 0x363 PUSH2 0x9E5 JUMP JUMPDEST PUSH1 0x40 MLOAD PUSH2 0x370 SWAP2 SWAP1 PUSH2 0x2181 JUMP JUMPDEST PUSH1 0x40 MLOAD DUP1 SWAP2 SUB SWAP1 RETURN JUMPDEST CALLVALUE DUP1 ISZERO PUSH2 0x384 JUMPI PUSH0 PUSH0 REVERT JUMPDEST POP PUSH2 0x38D PUSH2 0xA0A JUMP JUMPDEST STOP JUMPDEST CALLVALUE DUP1 ISZERO PUSH2 0x39A JUMPI PUSH0 PUSH0 REVERT JUMPDEST POP PUSH2 0x3A3 PUSH2 0xA1D JUMP JUMPDEST PUSH1 0x40 MLOAD PUSH2 0x3B0 SWAP2 SWAP1 PUSH2 0x219A JUMP JUMPDEST PUSH1 0x40 MLOAD DUP1 SWAP2 SUB SWAP1 RETURN JUMPDEST CALLVALUE DUP1 ISZERO PUSH2 0x3C4 JUMPI PUSH0 PUSH0 REVERT JUMPDEST POP PUSH2 0x3DF PUSH1 0x4 DUP1 CALLDATASIZE SUB DUP2 ADD SWAP1 PUSH2 0x3DA SWAP2 SWAP1 PUSH2 0x1FDD JUMP JUMPDEST PUSH2 0xA44 JUMP JUMPDEST STOP JUMPDEST CALLVALUE DUP1 ISZERO PUSH2 0x3EC JUMPI PUSH0 PUSH0 REVERT JUMPDEST POP PUSH2 0x407 PUSH1 0x4 DUP1 CALLDATASIZE SUB DUP2 ADD SWAP1 PUSH2 0x402 SWAP2 SWAP1 PUSH2 0x2069 JUMP JUMPDEST PUSH2 0xCD9 JUMP JUMPDEST PUSH1 0x40 MLOAD PUSH2 0x414 SWAP2 SWAP1 PUSH2 0x219A JUMP JUMPDEST PUSH1 0x40 MLOAD DUP1 SWAP2 SUB SWAP1 RETURN JUMPDEST CALLVALUE DUP1 ISZERO PUSH2 0x428 JUMPI PUSH0 PUSH0 REVERT JUMPDEST POP PUSH2 0x431 PUSH2 0xD3E JUMP JUMPDEST PUSH1 0x40 MLOAD PUSH2 0x43E SWAP2 SWAP1 PUSH2 0x20BC JUMP JUMPDEST PUSH1 0x40 MLOAD DUP1 SWAP2 SUB SWAP1 RETURN JUMPDEST CALLVALUE DUP1 ISZERO PUSH2 0x452 JUMPI PUSH0 PUSH0 REVERT JUMPDEST POP PUSH2 0x45B PUSH2 0xD44 JUMP JUMPDEST PUSH1 0x40 MLOAD PUSH2 0x468 SWAP2 SWAP1 PUSH2 0x20BC JUMP JUMPDEST PUSH1 0x40 MLOAD DUP1 SWAP2 SUB SWAP1 RETURN JUMPDEST CALLVALUE DUP1 ISZERO PUSH2 0x47C JUMPI PUSH0 PUSH0 REVERT JUMPDEST POP PUSH2 0x485 PUSH2 0xD4A JUMP JUMPDEST PUSH1 0x40 MLOAD PUSH2 0x492 SWAP2 SWAP1 PUSH2 0x20BC JUMP JUMPDEST PUSH1 0x40 MLOAD DUP1 SWAP2 SUB SWAP1 RETURN JUMPDEST CALLVALUE DUP1 ISZERO PUSH2 0x4A6 JUMPI PUSH0 PUSH0 REVERT JUMPDEST POP PUSH2 0x4C1 PUSH1 0x4 DUP1 CALLDATASIZE SUB DUP2 ADD SWAP1 PUSH2 0x4BC SWAP2 SWAP1 PUSH2 0x1FDD JUMP JUMPDEST PUSH2 0xD50 JUMP JUMPDEST PUSH1 0x40 MLOAD PUSH2 0x4CE SWAP2 SWAP1 PUSH2 0x219A JUMP JUMPDEST PUSH1 0x40 MLOAD DUP1 SWAP2 SUB SWAP1 RETURN JUMPDEST PUSH2 0x4F1 PUSH1 0x4 DUP1 CALLDATASIZE SUB DUP2 ADD SWAP1 PUSH2 0x4EC SWAP2 SWAP1 PUSH2 0x21DD JUMP JUMPDEST PUSH2 0xD80 JUMP JUMPDEST PUSH1 0x40 MLOAD PUSH2 0x4FE SWAP2 SWAP1 PUSH2 0x20BC JUMP JUMPDEST PUSH1 0x40 MLOAD DUP1 SWAP2 SUB SWAP1 RETURN JUMPDEST CALLVALUE DUP1 ISZERO PUSH2 0x512 JUMPI PUSH0 PUSH0 REVERT JUMPDEST POP PUSH2 0x52D PUSH1 0x4 DUP1 CALLDATASIZE SUB DUP2 ADD SWAP1 PUSH2 0x528 SWAP2 SWAP1 PUSH2 0x2069 JUMP JUMPDEST PUSH2 0x164F JUMP JUMPDEST PUSH1 0x40 MLOAD PUSH2 0x53A SWAP2 SWAP1 PUSH2 0x219A JUMP JUMPDEST PUSH1 0x40 MLOAD DUP1 SWAP2 SUB SWAP1 RETURN JUMPDEST CALLVALUE DUP1 ISZERO PUSH2 0x54E JUMPI PUSH0 PUSH0 REVERT JUMPDEST POP PUSH2 0x569 PUSH1 0x4 DUP1 CALLDATASIZE SUB DUP2 ADD SWAP1 PUSH2 0x564 SWAP2 SWAP1 PUSH2 0x2069 JUMP JUMPDEST PUSH2 0x167F JUMP JUMPDEST PUSH1 0x40 MLOAD PUSH2 0x576 SWAP2 SWAP1 PUSH2 0x20A3 JUMP JUMPDEST PUSH1 0x40 MLOAD DUP1 SWAP2 SUB SWAP1 RETURN JUMPDEST CALLVALUE DUP1 ISZERO PUSH2 0x58A JUMPI PUSH0 PUSH0 REVERT JUMPDEST POP PUSH2 0x593 PUSH2 0x16C5 JUMP JUMPDEST PUSH1 0x40 MLOAD PUSH2 0x5A0 SWAP2 SWAP1 PUSH2 0x20BC JUMP JUMPDEST PUSH1 0x40 MLOAD DUP1 SWAP2 SUB SWAP1 RETURN JUMPDEST CALLVALUE DUP1 ISZERO PUSH2 0x5B4 JUMPI PUSH0 PUSH0 REVERT JUMPDEST POP PUSH2 0x5CF PUSH1 0x4 DUP1 CALLDATASIZE SUB DUP2 ADD SWAP1 PUSH2 0x5CA SWAP2 SWAP1 PUSH2 0x1EE1 JUMP JUMPDEST PUSH2 0x16CB JUMP JUMPDEST STOP JUMPDEST CALLVALUE DUP1 ISZERO PUSH2 0x5DC JUMPI PUSH0 PUSH0 REVERT JUMPDEST POP PUSH2 0x5E5 PUSH2 0x1719 JUMP JUMPDEST PUSH1 0x40 MLOAD PUSH2 0x5F2 SWAP2 SWAP1 PUSH2 0x20BC JUMP JUMPDEST PUSH1 0x40 MLOAD DUP1 SWAP2 SUB SWAP1 RETURN JUMPDEST CALLVALUE DUP1 ISZERO PUSH2 0x606 JUMPI PUSH0 PUSH0 REVERT JUMPDEST POP PUSH2 0x621 PUSH1 0x4 DUP1 CALLDATASIZE SUB DUP2 ADD SWAP1 PUSH2 0x61C SWAP2 SWAP1 PUSH2 0x2069 JUMP JUMPDEST PUSH2 0x171F JUMP JUMPDEST STOP JUMPDEST CALLVALUE DUP1 ISZERO PUSH2 0x62E JUMPI PUSH0 PUSH0 REVERT JUMPDEST POP PUSH2 0x637 PUSH2 0x17A3 JUMP JUMPDEST PUSH1 0x40 MLOAD PUSH2 0x644 SWAP2 SWAP1 PUSH2 0x20BC JUMP JUMPDEST PUSH1 0x40 MLOAD DUP1 SWAP2 SUB SWAP1 RETURN JUMPDEST CALLVALUE DUP1 ISZERO PUSH2 0x658 JUMPI PUSH0 PUSH0 REVERT JUMPDEST POP PUSH2 0x673 PUSH1 0x4 DUP1 CALLDATASIZE SUB DUP2 ADD SWAP1 PUSH2 0x66E SWAP2 SWAP1 PUSH2 0x1FDD JUMP JUMPDEST PUSH2 0x17A9 JUMP JUMPDEST PUSH1 0x40 MLOAD PUSH2 0x680 SWAP2 SWAP1 PUSH2 0x219A JUMP JUMPDEST PUSH1 0x40 MLOAD DUP1 SWAP2 SUB SWAP1 RETURN JUMPDEST PUSH32 0x0 PUSH20 0xFFFFFFFFFFFFFFFFFFFFFFFFFFFFFFFFFFFFFFFF AND CALLER PUSH20 0xFFFFFFFFFFFFFFFFFFFFFFFFFFFFFFFFFFFFFFFF AND EQ PUSH2 0x73B JUMPI CALLER PUSH32 0x0 PUSH1 0x40 MLOAD PUSH32 0x20138A9F00000000000000000000000000000000000000000000000000000000 DUP2 MSTORE PUSH1 0x4 ADD PUSH2 0x732 SWAP3 SWAP2 SWAP1 PUSH2 0x2208 JUMP JUMPDEST PUSH1 0x40 MLOAD DUP1 SWAP2 SUB SWAP1 REVERT JUMPDEST PUSH2 0x746 DUP4 DUP4 DUP4 PUSH2 0x17E2 JUMP JUMPDEST POP POP POP JUMP JUMPDEST PUSH1 0x3 PUSH1 0x20 MSTORE DUP1 PUSH0 MSTORE PUSH1 0x40 PUSH0 KECCAK256 PUSH0 SWAP2 POP SWAP1 POP DUP1 PUSH0 ADD PUSH0 SWAP1 SLOAD SWAP1 PUSH2 0x100 EXP SWAP1 DIV PUSH20 0xFFFFFFFFFFFFFFFFFFFFFFFFFFFFFFFFFFFFFFFF AND SWAP1 DUP1 PUSH1 0x1 ADD SLOAD SWAP1 DUP1 PUSH1 0x2 ADD PUSH0 SWAP1 SLOAD SWAP1 PUSH2 0x100 EXP SWAP1 DIV PUSH1 0xFF AND SWAP1 POP DUP4 JUMP JUMPDEST PUSH0 PUSH0 SHL PUSH1 0x5 PUSH0 CALLER PUSH20 0xFFFFFFFFFFFFFFFFFFFFFFFFFFFFFFFFFFFFFFFF AND PUSH20 0xFFFFFFFFFFFFFFFFFFFFFFFFFFFFFFFFFFFFFFFF AND DUP2 MSTORE PUSH1 0x20 ADD SWAP1 DUP2 MSTORE PUSH1 0x20 ADD PUSH0 KECCAK256 SLOAD EQ PUSH2 0x814 JUMPI PUSH1 0x40 MLOAD PUSH32 0x809DC80800000000000000000000000000000000000000000000000000000000 DUP2 MSTORE PUSH1 0x4 ADD PUSH1 0x40 MLOAD DUP1 SWAP2 SUB SWAP1 REVERT JUMPDEST PUSH0 PUSH20 0xFFFFFFFFFFFFFFFFFFFFFFFFFFFFFFFFFFFFFFFF AND PUSH1 0x4 PUSH0 DUP4 DUP2 MSTORE PUSH1 0x20 ADD SWAP1 DUP2 MSTORE PUSH1 0x20 ADD PUSH0 KECCAK256 PUSH0 SWAP1 SLOAD SWAP1 PUSH2 0x100 EXP SWAP1 DIV PUSH20 0xFFFFFFFFFFFFFFFFFFFFFFFFFFFFFFFFFFFFFFFF AND PUSH20 0xFFFFFFFFFFFFFFFFFFFFFFFFFFFFFFFFFFFFFFFF AND EQ PUSH2 0x8A9 JUMPI PUSH1 0x40 MLOAD PUSH32 0x374BE26400000000000000000000000000000000000000000000000000000000 DUP2 MSTORE PUSH1 0x4 ADD PUSH1 0x40 MLOAD DUP1 SWAP2 SUB SWAP1 REVERT JUMPDEST CALLER PUSH1 0x4 PUSH0 DUP4 DUP2 MSTORE PUSH1 0x20 ADD SWAP1 DUP2 MSTORE PUSH1 0x20 ADD PUSH0 KECCAK256 PUSH0 PUSH2 0x100 EXP DUP2 SLOAD DUP2 PUSH20 0xFFFFFFFFFFFFFFFFFFFFFFFFFFFFFFFFFFFFFFFF MUL NOT AND SWAP1 DUP4 PUSH20 0xFFFFFFFFFFFFFFFFFFFFFFFFFFFFFFFFFFFFFFFF AND MUL OR SWAP1 SSTORE POP DUP1 PUSH1 0x5 PUSH0 CALLER PUSH20 0xFFFFFFFFFFFFFFFFFFFFFFFFFFFFFFFFFFFFFFFF AND PUSH20 0xFFFFFFFFFFFFFFFFFFFFFFFFFFFFFFFFFFFFFFFF AND DUP2 MSTORE PUSH1 0x20 ADD SWAP1 DUP2 MSTORE PUSH1 0x20 ADD PUSH0 KECCAK256 DUP2 SWAP1 SSTORE POP POP JUMP JUMPDEST PUSH3 0x30D40 DUP2 JUMP JUMPDEST PUSH1 0x5 PUSH1 0x20 MSTORE DUP1 PUSH0 MSTORE PUSH1 0x40 PUSH0 KECCAK256 PUSH0 SWAP2 POP SWAP1 POP SLOAD DUP2 JUMP JUMPDEST PUSH1 0xB SLOAD DUP2 JUMP JUMPDEST PUSH1 0x7 PUSH1 0x20 MSTORE DUP1 PUSH0 MSTORE PUSH1 0x40 PUSH0 KECCAK256 PUSH0 SWAP2 POP SWAP1 POP DUP1 PUSH0 ADD SLOAD SWAP1 DUP1 PUSH1 0x1 ADD SLOAD SWAP1 DUP1 PUSH1 0x2 ADD SLOAD SWAP1 DUP1 PUSH1 0x3 ADD SLOAD SWAP1 DUP1 PUSH1 0x4 ADD SLOAD SWAP1 POP DUP6 JUMP JUMPDEST PUSH2 0x999 PUSH2 0x1C41 JUMP JUMPDEST PUSH2 0x7D0 DUP2 GT ISZERO PUSH2 0x9D5 JUMPI PUSH1 0x40 MLOAD PUSH32 0xCD4E616700000000000000000000000000000000000000000000000000000000 DUP2 MSTORE PUSH1 0x4 ADD PUSH1 0x40 MLOAD DUP1 SWAP2 SUB SWAP1 REVERT JUMPDEST DUP1 PUSH1 0x8 DUP2 SWAP1 SSTORE POP POP JUMP JUMPDEST PUSH1 0xC SLOAD DUP2 JUMP JUMPDEST PUSH1 0x2 PUSH0 SWAP1 SLOAD SWAP1 PUSH2 0x100 EXP SWAP1 DIV PUSH20 0xFFFFFFFFFFFFFFFFFFFFFFFFFFFFFFFFFFFFFFFF AND DUP2 JUMP JUMPDEST PUSH2 0xA12 PUSH2 0x1C41 JUMP JUMPDEST PUSH2 0xA1B PUSH0 PUSH2 0x1CC8 JUMP JUMPDEST JUMP JUMPDEST PUSH0 PUSH0 PUSH0 SWAP1 SLOAD SWAP1 PUSH2 0x100 EXP SWAP1 DIV PUSH20 0xFFFFFFFFFFFFFFFFFFFFFFFFFFFFFFFFFFFFFFFF AND SWAP1 POP SWAP1 JUMP JUMPDEST PUSH0 PUSH1 0x4 PUSH0 DUP4 DUP2 MSTORE PUSH1 0x20 ADD SWAP1 DUP2 MSTORE PUSH1 0x20 ADD PUSH0 KECCAK256 PUSH0 SWAP1 SLOAD SWAP1 PUSH2 0x100 EXP SWAP1 DIV PUSH20 0xFFFFFFFFFFFFFFFFFFFFFFFFFFFFFFFFFFFFFFFF AND SWAP1 POP CALLER PUSH20 0xFFFFFFFFFFFFFFFFFFFFFFFFFFFFFFFFFFFFFFFF AND DUP2 PUSH20 0xFFFFFFFFFFFFFFFFFFFFFFFFFFFFFFFFFFFFFFFF AND SUB PUSH2 0xADD JUMPI PUSH1 0x40 MLOAD PUSH32 0x6D0F1F8200000000000000000000000000000000000000000000000000000000 DUP2 MSTORE PUSH1 0x4 ADD PUSH1 0x40 MLOAD DUP1 SWAP2 SUB SWAP1 REVERT JUMPDEST PUSH0 PUSH20 0xFFFFFFFFFFFFFFFFFFFFFFFFFFFFFFFFFFFFFFFF AND DUP2 PUSH20 0xFFFFFFFFFFFFFFFFFFFFFFFFFFFFFFFFFFFFFFFF AND SUB PUSH2 0xB42 JUMPI PUSH1 0x40 MLOAD PUSH32 0x865DC59C00000000000000000000000000000000000000000000000000000000 DUP2 MSTORE PUSH1 0x4 ADD PUSH1 0x40 MLOAD DUP1 SWAP2 SUB SWAP1 REVERT JUMPDEST PUSH0 PUSH20 0xFFFFFFFFFFFFFFFFFFFFFFFFFFFFFFFFFFFFFFFF AND PUSH1 0x6 PUSH0 CALLER PUSH20 0xFFFFFFFFFFFFFFFFFFFFFFFFFFFFFFFFFFFFFFFF AND PUSH20 0xFFFFFFFFFFFFFFFFFFFFFFFFFFFFFFFFFFFFFFFF AND DUP2 MSTORE PUSH1 0x20 ADD SWAP1 DUP2 MSTORE PUSH1 0x20 ADD PUSH0 KECCAK256 PUSH0 SWAP1 SLOAD SWAP1 PUSH2 0x100 EXP SWAP1 DIV PUSH20 0xFFFFFFFFFFFFFFFFFFFFFFFFFFFFFFFFFFFFFFFF AND PUSH20 0xFFFFFFFFFFFFFFFFFFFFFFFFFFFFFFFFFFFFFFFF AND EQ PUSH2 0xC03 JUMPI PUSH1 0x40 MLOAD PUSH32 0x967C839800000000000000000000000000000000000000000000000000000000 DUP2 MSTORE PUSH1 0x4 ADD PUSH1 0x40 MLOAD DUP1 SWAP2 SUB SWAP1 REVERT JUMPDEST DUP1 PUSH1 0x6 PUSH0 CALLER PUSH20 0xFFFFFFFFFFFFFFFFFFFFFFFFFFFFFFFFFFFFFFFF AND PUSH20 0xFFFFFFFFFFFFFFFFFFFFFFFFFFFFFFFFFFFFFFFF AND DUP2 MSTORE PUSH1 0x20 ADD SWAP1 DUP2 MSTORE PUSH1 0x20 ADD PUSH0 KECCAK256 PUSH0 PUSH2 0x100 EXP DUP2 SLOAD DUP2 PUSH20 0xFFFFFFFFFFFFFFFFFFFFFFFFFFFFFFFFFFFFFFFF MUL NOT AND SWAP1 DUP4 PUSH20 0xFFFFFFFFFFFFFFFFFFFFFFFFFFFFFFFFFFFFFFFF AND MUL OR SWAP1 SSTORE POP PUSH1 0x1 PUSH1 0x7 PUSH0 DUP4 PUSH20 0xFFFFFFFFFFFFFFFFFFFFFFFFFFFFFFFFFFFFFFFF AND PUSH20 0xFFFFFFFFFFFFFFFFFFFFFFFFFFFFFFFFFFFFFFFF AND DUP2 MSTORE PUSH1 0x20 ADD SWAP1 DUP2 MSTORE PUSH1 0x20 ADD PUSH0 KECCAK256 PUSH1 0x4 ADD PUSH0 DUP3 DUP3 SLOAD PUSH2 0xCCE SWAP2 SWAP1 PUSH2 0x225C JUMP JUMPDEST SWAP3 POP POP DUP2 SWAP1 SSTORE POP POP POP JUMP JUMPDEST PUSH0 PUSH1 0x6 PUSH0 DUP4 PUSH20 0xFFFFFFFFFFFFFFFFFFFFFFFFFFFFFFFFFFFFFFFF AND PUSH20 0xFFFFFFFFFFFFFFFFFFFFFFFFFFFFFFFFFFFFFFFF AND DUP2 MSTORE PUSH1 0x20 ADD SWAP1 DUP2 MSTORE PUSH1 0x20 ADD PUSH0 KECCAK256 PUSH0 SWAP1 SLOAD SWAP1 PUSH2 0x100 EXP SWAP1 DIV PUSH20 0xFFFFFFFFFFFFFFFFFFFFFFFFFFFFFFFFFFFFFFFF AND SWAP1 POP SWAP2 SWAP1 POP JUMP JUMPDEST PUSH1 0x9 SLOAD DUP2 JUMP JUMPDEST PUSH1 0xA SLOAD DUP2 JUMP JUMPDEST PUSH1 0xD SLOAD DUP2 JUMP JUMPDEST PUSH1 0x4 PUSH1 0x20 MSTORE DUP1 PUSH0 MSTORE PUSH1 0x40 PUSH0 KECCAK256 PUSH0 SWAP2 POP SLOAD SWAP1 PUSH2 0x100 EXP SWAP1 DIV PUSH20 0xFFFFFFFFFFFFFFFFFFFFFFFFFFFFFFFFFFFFFFFF AND DUP2 JUMP JUMPDEST PUSH0 PUSH2 0xD89 PUSH2 0x1D89 JUMP JUMPDEST PUSH1 0x1 DUP3 PUSH1 0xFF AND LT DUP1 PUSH2 0xD9E JUMPI POP PUSH1 0x5 DUP3 PUSH1 0xFF AND GT JUMPDEST ISZERO PUSH2 0xDD5 JUMPI PUSH1 0x40 MLOAD PUSH32 0x364E219700000000000000000000000000000000000000000000000000000000 DUP2 MSTORE PUSH1 0x4 ADD PUSH1 0x40 MLOAD DUP1 SWAP2 SUB SWAP1 REVERT JUMPDEST PUSH0 PUSH32 0x0 PUSH20 0xFFFFFFFFFFFFFFFFFFFFFFFFFFFFFFFFFFFFFFFF AND PUSH4 0xC66D3D18 PUSH3 0x30D40 PUSH1 0x40 MLOAD DUP3 PUSH4 0xFFFFFFFF AND PUSH1 0xE0 SHL DUP2 MSTORE PUSH1 0x4 ADD PUSH2 0xE32 SWAP2 SWAP1 PUSH2 0x22BF JUMP JUMPDEST PUSH1 0x20 PUSH1 0x40 MLOAD DUP1 DUP4 SUB DUP2 DUP7 GAS STATICCALL ISZERO DUP1 ISZERO PUSH2 0xE4D JUMPI RETURNDATASIZE PUSH0 PUSH0 RETURNDATACOPY RETURNDATASIZE PUSH0 REVERT JUMPDEST POP POP POP POP PUSH1 0x40 MLOAD RETURNDATASIZE PUSH1 0x1F NOT PUSH1 0x1F DUP3 ADD AND DUP3 ADD DUP1 PUSH1 0x40 MSTORE POP DUP2 ADD SWAP1 PUSH2 0xE71 SWAP2 SWAP1 PUSH2 0x22EC JUMP JUMPDEST SWAP1 POP DUP1 CALLVALUE GT PUSH2 0xEAC JUMPI PUSH1 0x40 MLOAD PUSH32 0xCD1C886700000000000000000000000000000000000000000000000000000000 DUP2 MSTORE PUSH1 0x4 ADD PUSH1 0x40 MLOAD DUP1 SWAP2 SUB SWAP1 REVERT JUMPDEST PUSH0 DUP2 CALLVALUE PUSH2 0xEB9 SWAP2 SWAP1 PUSH2 0x2317 JUMP JUMPDEST SWAP1 POP PUSH8 0xDE0B6B3A7640000 CALLVALUE LT ISZERO PUSH2 0xEFD JUMPI PUSH1 0x40 MLOAD PUSH32 0xD312A68800000000000000000000000000000000000000000000000000000000 DUP2 MSTORE PUSH1 0x4 ADD PUSH1 0x40 MLOAD DUP1 SWAP2 SUB SWAP1 REVERT JUMPDEST PUSH0 PUSH1 0x2 PUSH0 SWAP1 SLOAD SWAP1 PUSH2 0x100 EXP SWAP1 DIV PUSH20 0xFFFFFFFFFFFFFFFFFFFFFFFFFFFFFFFFFFFFFFFF AND PUSH20 0xFFFFFFFFFFFFFFFFFFFFFFFFFFFFFFFFFFFFFFFF AND PUSH4 0x910A510 PUSH1 0x40 MLOAD DUP2 PUSH4 0xFFFFFFFF AND PUSH1 0xE0 SHL DUP2 MSTORE PUSH1 0x4 ADD PUSH1 0x20 PUSH1 0x40 MLOAD DUP1 DUP4 SUB DUP2 DUP7 GAS STATICCALL ISZERO DUP1 ISZERO PUSH2 0xF68 JUMPI RETURNDATASIZE PUSH0 PUSH0 RETURNDATACOPY RETURNDATASIZE PUSH0 REVERT JUMPDEST POP POP POP POP PUSH1 0x40 MLOAD RETURNDATASIZE PUSH1 0x1F NOT PUSH1 0x1F DUP3 ADD AND DUP3 ADD DUP1 PUSH1 0x40 MSTORE POP DUP2 ADD SWAP1 PUSH2 0xF8C SWAP2 SWAP1 PUSH2 0x22EC JUMP JUMPDEST SWAP1 POP PUSH0 DUP6 PUSH1 0x6 PUSH2 0xF9C SWAP2 SWAP1 PUSH2 0x234A JUMP JUMPDEST PUSH1 0xFF AND PUSH1 0x6 DUP5 PUSH2 0xFAC SWAP2 SWAP1 PUSH2 0x237E JUMP JUMPDEST PUSH2 0xFB6 SWAP2 SWAP1 PUSH2 0x23EC JUMP JUMPDEST SWAP1 POP PUSH0 PUSH2 0x2710 PUSH1 0x9 SLOAD DUP5 PUSH2 0xFCA SWAP2 SWAP1 PUSH2 0x237E JUMP JUMPDEST PUSH2 0xFD4 SWAP2 SWAP1 PUSH2 0x23EC JUMP JUMPDEST SWAP1 POP DUP1 DUP3 GT ISZERO PUSH2 0x1010 JUMPI PUSH1 0x40 MLOAD PUSH32 0x2ED7ADCC00000000000000000000000000000000000000000000000000000000 DUP2 MSTORE PUSH1 0x4 ADD PUSH1 0x40 MLOAD DUP1 SWAP2 SUB SWAP1 REVERT JUMPDEST PUSH32 0x0 PUSH20 0xFFFFFFFFFFFFFFFFFFFFFFFFFFFFFFFFFFFFFFFF AND PUSH4 0xCB9BB27F DUP7 PUSH3 0x30D40 PUSH1 0x1 PUSH1 0x2 PUSH0 SWAP1 SLOAD SWAP1 PUSH2 0x100 EXP SWAP1 DIV PUSH20 0xFFFFFFFFFFFFFFFFFFFFFFFFFFFFFFFFFFFFFFFF AND PUSH1 0x40 MLOAD DUP6 PUSH4 0xFFFFFFFF AND PUSH1 0xE0 SHL DUP2 MSTORE PUSH1 0x4 ADD PUSH2 0x1093 SWAP4 SWAP3 SWAP2 SWAP1 PUSH2 0x2455 JUMP JUMPDEST PUSH1 0x20 PUSH1 0x40 MLOAD DUP1 DUP4 SUB DUP2 DUP6 DUP9 GAS CALL ISZERO DUP1 ISZERO PUSH2 0x10AF JUMPI RETURNDATASIZE PUSH0 PUSH0 RETURNDATACOPY RETURNDATASIZE PUSH0 REVERT JUMPDEST POP POP POP POP POP PUSH1 0x40 MLOAD RETURNDATASIZE PUSH1 0x1F NOT PUSH1 0x1F DUP3 ADD AND DUP3 ADD DUP1 PUSH1 0x40 MSTORE POP DUP2 ADD SWAP1 PUSH2 0x10D4 SWAP2 SWAP1 PUSH2 0x22EC JUMP JUMPDEST SWAP6 POP PUSH0 PUSH1 0x6 PUSH0 CALLER PUSH20 0xFFFFFFFFFFFFFFFFFFFFFFFFFFFFFFFFFFFFFFFF AND PUSH20 0xFFFFFFFFFFFFFFFFFFFFFFFFFFFFFFFFFFFFFFFF AND DUP2 MSTORE PUSH1 0x20 ADD SWAP1 DUP2 MSTORE PUSH1 0x20 ADD PUSH0 KECCAK256 PUSH0 SWAP1 SLOAD SWAP1 PUSH2 0x100 EXP SWAP1 DIV PUSH20 0xFFFFFFFFFFFFFFFFFFFFFFFFFFFFFFFFFFFFFFFF AND SWAP1 POP PUSH0 PUSH0 PUSH0 PUSH20 0xFFFFFFFFFFFFFFFFFFFFFFFFFFFFFFFFFFFFFFFF AND DUP4 PUSH20 0xFFFFFFFFFFFFFFFFFFFFFFFFFFFFFFFFFFFFFFFF AND EQ PUSH2 0x11A4 JUMPI PUSH2 0x2710 PUSH1 0xA DUP9 PUSH2 0x117B SWAP2 SWAP1 PUSH2 0x237E JUMP JUMPDEST PUSH2 0x1185 SWAP2 SWAP1 PUSH2 0x23EC JUMP JUMPDEST SWAP2 POP PUSH2 0x2710 PUSH1 0x5 DUP9 PUSH2 0x1197 SWAP2 SWAP1 PUSH2 0x237E JUMP JUMPDEST PUSH2 0x11A1 SWAP2 SWAP1 PUSH2 0x23EC JUMP JUMPDEST SWAP1 POP JUMPDEST PUSH0 DUP2 DUP4 DUP10 PUSH2 0x11B2 SWAP2 SWAP1 PUSH2 0x2317 JUMP JUMPDEST PUSH2 0x11BC SWAP2 SWAP1 PUSH2 0x2317 JUMP JUMPDEST SWAP1 POP PUSH0 PUSH1 0x2 PUSH0 SWAP1 SLOAD SWAP1 PUSH2 0x100 EXP SWAP1 DIV PUSH20 0xFFFFFFFFFFFFFFFFFFFFFFFFFFFFFFFFFFFFFFFF AND PUSH20 0xFFFFFFFFFFFFFFFFFFFFFFFFFFFFFFFFFFFFFFFF AND DUP3 PUSH1 0x40 MLOAD PUSH2 0x1204 SWAP1 PUSH2 0x24B7 JUMP JUMPDEST PUSH0 PUSH1 0x40 MLOAD DUP1 DUP4 SUB DUP2 DUP6 DUP8 GAS CALL SWAP3 POP POP POP RETURNDATASIZE DUP1 PUSH0 DUP2 EQ PUSH2 0x123E JUMPI PUSH1 0x40 MLOAD SWAP2 POP PUSH1 0x1F NOT PUSH1 0x3F RETURNDATASIZE ADD AND DUP3 ADD PUSH1 0x40 MSTORE RETURNDATASIZE DUP3 MSTORE RETURNDATASIZE PUSH0 PUSH1 0x20 DUP5 ADD RETURNDATACOPY PUSH2 0x1243 JUMP JUMPDEST PUSH1 0x60 SWAP2 POP JUMPDEST POP POP SWAP1 POP DUP1 PUSH2 0x127D JUMPI PUSH1 0x40 MLOAD PUSH31 0x9716CE00000000000000000000000000000000000000000000000000000000 DUP2 MSTORE PUSH1 0x4 ADD PUSH1 0x40 MLOAD DUP1 SWAP2 SUB SWAP1 REVERT JUMPDEST PUSH0 DUP5 GT ISZERO PUSH2 0x1325 JUMPI DUP5 PUSH20 0xFFFFFFFFFFFFFFFFFFFFFFFFFFFFFFFFFFFFFFFF AND DUP5 PUSH1 0x40 MLOAD PUSH2 0x12A9 SWAP1 PUSH2 0x24B7 JUMP JUMPDEST PUSH0 PUSH1 0x40 MLOAD DUP1 DUP4 SUB DUP2 DUP6 DUP8 GAS CALL SWAP3 POP POP POP RETURNDATASIZE DUP1 PUSH0 DUP2 EQ PUSH2 0x12E3 JUMPI PUSH1 0x40 MLOAD SWAP2 POP PUSH1 0x1F NOT PUSH1 0x3F RETURNDATASIZE ADD AND DUP3 ADD PUSH1 0x40 MSTORE RETURNDATASIZE DUP3 MSTORE RETURNDATASIZE PUSH0 PUSH1 0x20 DUP5 ADD RETURNDATACOPY PUSH2 0x12E8 JUMP JUMPDEST PUSH1 0x60 SWAP2 POP JUMPDEST POP POP DUP1 SWAP2 POP POP DUP1 PUSH2 0x1324 JUMPI PUSH1 0x40 MLOAD PUSH31 0x9716CE00000000000000000000000000000000000000000000000000000000 DUP2 MSTORE PUSH1 0x4 ADD PUSH1 0x40 MLOAD DUP1 SWAP2 SUB SWAP1 REVERT JUMPDEST JUMPDEST PUSH0 DUP4 GT ISZERO PUSH2 0x13CD JUMPI CALLER PUSH20 0xFFFFFFFFFFFFFFFFFFFFFFFFFFFFFFFFFFFFFFFF AND DUP4 PUSH1 0x40 MLOAD PUSH2 0x1351 SWAP1 PUSH2 0x24B7 JUMP JUMPDEST PUSH0 PUSH1 0x40 MLOAD DUP1 DUP4 SUB DUP2 DUP6 DUP8 GAS CALL SWAP3 POP POP POP RETURNDATASIZE DUP1 PUSH0 DUP2 EQ PUSH2 0x138B JUMPI PUSH1 0x40 MLOAD SWAP2 POP PUSH1 0x1F NOT PUSH1 0x3F RETURNDATASIZE ADD AND DUP3 ADD PUSH1 0x40 MSTORE RETURNDATASIZE DUP3 MSTORE RETURNDATASIZE PUSH0 PUSH1 0x20 DUP5 ADD RETURNDATACOPY PUSH2 0x1390 JUMP JUMPDEST PUSH1 0x60 SWAP2 POP JUMPDEST POP POP DUP1 SWAP2 POP POP DUP1 PUSH2 0x13CC JUMPI PUSH1 0x40 MLOAD PUSH31 0x9716CE00000000000000000000000000000000000000000000000000000000 DUP2 MSTORE PUSH1 0x4 ADD PUSH1 0x40 MLOAD DUP1 SWAP2 SUB SWAP1 REVERT JUMPDEST JUMPDEST PUSH1 0x40 MLOAD DUP1 PUSH1 0x60 ADD PUSH1 0x40 MSTORE DUP1 CALLER PUSH20 0xFFFFFFFFFFFFFFFFFFFFFFFFFFFFFFFFFFFFFFFF AND DUP2 MSTORE PUSH1 0x20 ADD DUP11 DUP2 MSTORE PUSH1 0x20 ADD DUP14 PUSH1 0xFF AND DUP2 MSTORE POP PUSH1 0x3 PUSH0 DUP14 DUP2 MSTORE PUSH1 0x20 ADD SWAP1 DUP2 MSTORE PUSH1 0x20 ADD PUSH0 KECCAK256 PUSH0 DUP3 ADD MLOAD DUP2 PUSH0 ADD PUSH0 PUSH2 0x100 EXP DUP2 SLOAD DUP2 PUSH20 0xFFFFFFFFFFFFFFFFFFFFFFFFFFFFFFFFFFFFFFFF MUL NOT AND SWAP1 DUP4 PUSH20 0xFFFFFFFFFFFFFFFFFFFFFFFFFFFFFFFFFFFFFFFF AND MUL OR SWAP1 SSTORE POP PUSH1 0x20 DUP3 ADD MLOAD DUP2 PUSH1 0x1 ADD SSTORE PUSH1 0x40 DUP3 ADD MLOAD DUP2 PUSH1 0x2 ADD PUSH0 PUSH2 0x100 EXP DUP2 SLOAD DUP2 PUSH1 0xFF MUL NOT AND SWAP1 DUP4 PUSH1 0xFF AND MUL OR SWAP1 SSTORE POP SWAP1 POP POP PUSH1 0x2 PUSH0 SWAP1 SLOAD SWAP1 PUSH2 0x100 EXP SWAP1 DIV PUSH20 0xFFFFFFFFFFFFFFFFFFFFFFFFFFFFFFFFFFFFFFFF AND PUSH20 0xFFFFFFFFFFFFFFFFFFFFFFFFFFFFFFFFFFFFFFFF AND PUSH4 0x1FBF7C3E DUP11 PUSH1 0x40 MLOAD DUP3 PUSH4 0xFFFFFFFF AND PUSH1 0xE0 SHL DUP2 MSTORE PUSH1 0x4 ADD PUSH2 0x14DD SWAP2 SWAP1 PUSH2 0x20BC JUMP JUMPDEST PUSH0 PUSH1 0x40 MLOAD DUP1 DUP4 SUB DUP2 PUSH0 DUP8 DUP1 EXTCODESIZE ISZERO DUP1 ISZERO PUSH2 0x14F4 JUMPI PUSH0 PUSH0 REVERT JUMPDEST POP GAS CALL ISZERO DUP1 ISZERO PUSH2 0x1506 JUMPI RETURNDATASIZE PUSH0 PUSH0 RETURNDATACOPY RETURNDATASIZE PUSH0 REVERT JUMPDEST POP POP POP POP DUP9 PUSH1 0xA PUSH0 DUP3 DUP3 SLOAD PUSH2 0x151B SWAP2 SWAP1 PUSH2 0x225C JUMP JUMPDEST SWAP3 POP POP DUP2 SWAP1 SSTORE POP PUSH1 0x1 PUSH1 0xC PUSH0 DUP3 DUP3 SLOAD PUSH2 0x1534 SWAP2 SWAP1 PUSH2 0x225C JUMP JUMPDEST SWAP3 POP POP DUP2 SWAP1 SSTORE POP DUP9 PUSH1 0x7 PUSH0 CALLER PUSH20 0xFFFFFFFFFFFFFFFFFFFFFFFFFFFFFFFFFFFFFFFF AND PUSH20 0xFFFFFFFFFFFFFFFFFFFFFFFFFFFFFFFFFFFFFFFF AND DUP2 MSTORE PUSH1 0x20 ADD SWAP1 DUP2 MSTORE PUSH1 0x20 ADD PUSH0 KECCAK256 PUSH0 ADD PUSH0 DUP3 DUP3 SLOAD PUSH2 0x1589 SWAP2 SWAP1 PUSH2 0x225C JUMP JUMPDEST SWAP3 POP POP DUP2 SWAP1 SSTORE POP PUSH1 0x1 PUSH1 0x7 PUSH0 CALLER PUSH20 0xFFFFFFFFFFFFFFFFFFFFFFFFFFFFFFFFFFFFFFFF AND PUSH20 0xFFFFFFFFFFFFFFFFFFFFFFFFFFFFFFFFFFFFFFFF AND DUP2 MSTORE PUSH1 0x20 ADD SWAP1 DUP2 MSTORE PUSH1 0x20 ADD PUSH0 KECCAK256 PUSH1 0x2 ADD PUSH0 DUP3 DUP3 SLOAD PUSH2 0x15E0 SWAP2 SWAP1 PUSH2 0x225C JUMP JUMPDEST SWAP3 POP POP DUP2 SWAP1 SSTORE POP CALLER PUSH20 0xFFFFFFFFFFFFFFFFFFFFFFFFFFFFFFFFFFFFFFFF AND DUP12 PUSH32 0xE90186097616CBEB30FFC786B44501E1362F5E0A316A96C5AB82A0551F9D2F05 DUP12 DUP16 PUSH1 0x40 MLOAD PUSH2 0x1630 SWAP3 SWAP2 SWAP1 PUSH2 0x24CB JUMP JUMPDEST PUSH1 0x40 MLOAD DUP1 SWAP2 SUB SWAP1 LOG3 POP POP POP POP POP POP POP POP POP POP PUSH2 0x164A PUSH2 0x1DD8 JUMP JUMPDEST SWAP2 SWAP1 POP JUMP JUMPDEST PUSH1 0x6 PUSH1 0x20 MSTORE DUP1 PUSH0 MSTORE PUSH1 0x40 PUSH0 KECCAK256 PUSH0 SWAP2 POP SLOAD SWAP1 PUSH2 0x100 EXP SWAP1 DIV PUSH20 0xFFFFFFFFFFFFFFFFFFFFFFFFFFFFFFFFFFFFFFFF AND DUP2 JUMP JUMPDEST PUSH0 PUSH1 0x5 PUSH0 DUP4 PUSH20 0xFFFFFFFFFFFFFFFFFFFFFFFFFFFFFFFFFFFFFFFF AND PUSH20 0xFFFFFFFFFFFFFFFFFFFFFFFFFFFFFFFFFFFFFFFF AND DUP2 MSTORE PUSH1 0x20 ADD SWAP1 DUP2 MSTORE PUSH1 0x20 ADD PUSH0 KECCAK256 SLOAD SWAP1 POP SWAP2 SWAP1 POP JUMP JUMPDEST PUSH2 0x1388 DUP2 JUMP JUMPDEST PUSH2 0x16D3 PUSH2 0x1C41 JUMP JUMPDEST PUSH2 0x1388 DUP2 GT ISZERO PUSH2 0x170F JUMPI PUSH1 0x40 MLOAD PUSH32 0xAB551CE400000000000000000000000000000000000000000000000000000000 DUP2 MSTORE PUSH1 0x4 ADD PUSH1 0x40 MLOAD DUP1 SWAP2 SUB SWAP1 REVERT JUMPDEST DUP1 PUSH1 0x9 DUP2 SWAP1 SSTORE POP POP JUMP JUMPDEST PUSH1 0x8 SLOAD DUP2 JUMP JUMPDEST PUSH2 0x1727 PUSH2 0x1C41 JUMP JUMPDEST PUSH0 PUSH20 0xFFFFFFFFFFFFFFFFFFFFFFFFFFFFFFFFFFFFFFFF AND DUP2 PUSH20 0xFFFFFFFFFFFFFFFFFFFFFFFFFFFFFFFFFFFFFFFF AND SUB PUSH2 0x1797 JUMPI PUSH0 PUSH1 0x40 MLOAD PUSH32 0x1E4FBDF700000000000000000000000000000000000000000000000000000000 DUP2 MSTORE PUSH1 0x4 ADD PUSH2 0x178E SWAP2 SWAP1 PUSH2 0x219A JUMP JUMPDEST PUSH1 0x40 MLOAD DUP1 SWAP2 SUB SWAP1 REVERT JUMPDEST PUSH2 0x17A0 DUP2 PUSH2 0x1CC8 JUMP JUMPDEST POP JUMP JUMPDEST PUSH2 0x7D0 DUP2 JUMP JUMPDEST PUSH0 PUSH1 0x4 PUSH0 DUP4 DUP2 MSTORE PUSH1 0x20 ADD SWAP1 DUP2 MSTORE PUSH1 0x20 ADD PUSH0 KECCAK256 PUSH0 SWAP1 SLOAD SWAP1 PUSH2 0x100 EXP SWAP1 DIV PUSH20 0xFFFFFFFFFFFFFFFFFFFFFFFFFFFFFFFFFFFFFFFF AND SWAP1 POP SWAP2 SWAP1 POP JUMP JUMPDEST PUSH0 PUSH1 0x3 PUSH0 DUP6 DUP2 MSTORE PUSH1 0x20 ADD SWAP1 DUP2 MSTORE PUSH1 0x20 ADD PUSH0 KECCAK256 PUSH1 0x40 MLOAD DUP1 PUSH1 0x60 ADD PUSH1 0x40 MSTORE SWAP1 DUP2 PUSH0 DUP3 ADD PUSH0 SWAP1 SLOAD SWAP1 PUSH2 0x100 EXP SWAP1 DIV PUSH20 0xFFFFFFFFFFFFFFFFFFFFFFFFFFFFFFFFFFFFFFFF AND PUSH20 0xFFFFFFFFFFFFFFFFFFFFFFFFFFFFFFFFFFFFFFFF AND PUSH20 0xFFFFFFFFFFFFFFFFFFFFFFFFFFFFFFFFFFFFFFFF AND DUP2 MSTORE PUSH1 0x20 ADD PUSH1 0x1 DUP3 ADD SLOAD DUP2 MSTORE PUSH1 0x20 ADD PUSH1 0x2 DUP3 ADD PUSH0 SWAP1 SLOAD SWAP1 PUSH2 0x100 EXP SWAP1 DIV PUSH1 0xFF AND PUSH1 0xFF AND PUSH1 0xFF AND DUP2 MSTORE POP POP SWAP1 POP PUSH0 PUSH20 0xFFFFFFFFFFFFFFFFFFFFFFFFFFFFFFFFFFFFFFFF AND DUP2 PUSH0 ADD MLOAD PUSH20 0xFFFFFFFFFFFFFFFFFFFFFFFFFFFFFFFFFFFFFFFF AND SUB PUSH2 0x18E3 JUMPI PUSH1 0x40 MLOAD PUSH32 0x469BFA9100000000000000000000000000000000000000000000000000000000 DUP2 MSTORE PUSH1 0x4 ADD PUSH1 0x40 MLOAD DUP1 SWAP2 SUB SWAP1 REVERT JUMPDEST PUSH0 PUSH1 0x6 DUP5 DUP5 PUSH0 DUP2 DUP2 LT PUSH2 0x18F9 JUMPI PUSH2 0x18F8 PUSH2 0x24F2 JUMP JUMPDEST JUMPDEST SWAP1 POP PUSH1 0x20 MUL ADD CALLDATALOAD PUSH2 0x190A SWAP2 SWAP1 PUSH2 0x251F JUMP JUMPDEST SWAP1 POP PUSH0 DUP3 PUSH1 0x40 ADD MLOAD PUSH1 0xFF AND DUP3 LT ISZERO SWAP1 POP PUSH0 PUSH0 SWAP1 POP DUP2 ISZERO PUSH2 0x19F8 JUMPI PUSH0 DUP5 PUSH1 0x40 ADD MLOAD PUSH1 0x6 PUSH2 0x1936 SWAP2 SWAP1 PUSH2 0x234A JUMP JUMPDEST PUSH1 0xFF AND PUSH1 0x6 DUP7 PUSH1 0x20 ADD MLOAD PUSH2 0x194A SWAP2 SWAP1 PUSH2 0x237E JUMP JUMPDEST PUSH2 0x1954 SWAP2 SWAP1 PUSH2 0x23EC JUMP JUMPDEST SWAP1 POP PUSH0 PUSH2 0x2710 PUSH1 0x8 SLOAD DUP4 PUSH2 0x1968 SWAP2 SWAP1 PUSH2 0x237E JUMP JUMPDEST PUSH2 0x1972 SWAP2 SWAP1 PUSH2 0x23EC JUMP JUMPDEST SWAP1 POP DUP1 DUP3 PUSH2 0x1980 SWAP2 SWAP1 PUSH2 0x2317 JUMP JUMPDEST SWAP3 POP PUSH1 0x1 PUSH1 0x7 PUSH0 DUP9 PUSH0 ADD MLOAD PUSH20 0xFFFFFFFFFFFFFFFFFFFFFFFFFFFFFFFFFFFFFFFF AND PUSH20 0xFFFFFFFFFFFFFFFFFFFFFFFFFFFFFFFFFFFFFFFF AND DUP2 MSTORE PUSH1 0x20 ADD SWAP1 DUP2 MSTORE PUSH1 0x20 ADD PUSH0 KECCAK256 PUSH1 0x3 ADD PUSH0 DUP3 DUP3 SLOAD PUSH2 0x19D5 SWAP2 SWAP1 PUSH2 0x225C JUMP JUMPDEST SWAP3 POP POP DUP2 SWAP1 SSTORE POP PUSH1 0x1 PUSH1 0xD PUSH0 DUP3 DUP3 SLOAD PUSH2 0x19EE SWAP2 SWAP1 PUSH2 0x225C JUMP JUMPDEST SWAP3 POP POP DUP2 SWAP1 SSTORE POP POP POP JUMPDEST PUSH1 0x3 PUSH0 DUP9 DUP2 MSTORE PUSH1 0x20 ADD SWAP1 DUP2 MSTORE PUSH1 0x20 ADD PUSH0 KECCAK256 PUSH0 PUSH0 DUP3 ADD PUSH0 PUSH2 0x100 EXP DUP2 SLOAD SWAP1 PUSH20 0xFFFFFFFFFFFFFFFFFFFFFFFFFFFFFFFFFFFFFFFF MUL NOT AND SWAP1 SSTORE PUSH1 0x1 DUP3 ADD PUSH0 SWAP1 SSTORE PUSH1 0x2 DUP3 ADD PUSH0 PUSH2 0x100 EXP DUP2 SLOAD SWAP1 PUSH1 0xFF MUL NOT AND SWAP1 SSTORE POP POP PUSH0 DUP2 GT ISZERO PUSH2 0x1B51 JUMPI PUSH1 0x2 PUSH0 SWAP1 SLOAD SWAP1 PUSH2 0x100 EXP SWAP1 DIV PUSH20 0xFFFFFFFFFFFFFFFFFFFFFFFFFFFFFFFFFFFFFFFF AND PUSH20 0xFFFFFFFFFFFFFFFFFFFFFFFFFFFFFFFFFFFFFFFF AND PUSH4 0x117DE2FD DUP6 PUSH0 ADD MLOAD DUP4 PUSH1 0x40 MLOAD DUP4 PUSH4 0xFFFFFFFF AND PUSH1 0xE0 SHL DUP2 MSTORE PUSH1 0x4 ADD PUSH2 0x1AB2 SWAP3 SWAP2 SWAP1 PUSH2 0x254F JUMP JUMPDEST PUSH0 PUSH1 0x40 MLOAD DUP1 DUP4 SUB DUP2 PUSH0 DUP8 DUP1 EXTCODESIZE ISZERO DUP1 ISZERO PUSH2 0x1AC9 JUMPI PUSH0 PUSH0 REVERT JUMPDEST POP GAS CALL ISZERO DUP1 ISZERO PUSH2 0x1ADB JUMPI RETURNDATASIZE PUSH0 PUSH0 RETURNDATACOPY RETURNDATASIZE PUSH0 REVERT JUMPDEST POP POP POP POP DUP1 PUSH1 0xB PUSH0 DUP3 DUP3 SLOAD PUSH2 0x1AF0 SWAP2 SWAP1 PUSH2 0x225C JUMP JUMPDEST SWAP3 POP POP DUP2 SWAP1 SSTORE POP DUP1 PUSH1 0x7 PUSH0 DUP7 PUSH0 ADD MLOAD PUSH20 0xFFFFFFFFFFFFFFFFFFFFFFFFFFFFFFFFFFFFFFFF AND PUSH20 0xFFFFFFFFFFFFFFFFFFFFFFFFFFFFFFFFFFFFFFFF AND DUP2 MSTORE PUSH1 0x20 ADD SWAP1 DUP2 MSTORE PUSH1 0x20 ADD PUSH0 KECCAK256 PUSH1 0x1 ADD PUSH0 DUP3 DUP3 SLOAD PUSH2 0x1B49 SWAP2 SWAP1 PUSH2 0x225C JUMP JUMPDEST SWAP3 POP POP DUP2 SWAP1 SSTORE POP JUMPDEST PUSH1 0x2 PUSH0 SWAP1 SLOAD SWAP1 PUSH2 0x100 EXP SWAP1 DIV PUSH20 0xFFFFFFFFFFFFFFFFFFFFFFFFFFFFFFFFFFFFFFFF AND PUSH20 0xFFFFFFFFFFFFFFFFFFFFFFFFFFFFFFFFFFFFFFFF AND PUSH4 0xBFF8A36D DUP6 PUSH1 0x20 ADD MLOAD PUSH1 0x40 MLOAD DUP3 PUSH4 0xFFFFFFFF AND PUSH1 0xE0 SHL DUP2 MSTORE PUSH1 0x4 ADD PUSH2 0x1BAF SWAP2 SWAP1 PUSH2 0x20BC JUMP JUMPDEST PUSH0 PUSH1 0x40 MLOAD DUP1 DUP4 SUB DUP2 PUSH0 DUP8 DUP1 EXTCODESIZE ISZERO DUP1 ISZERO PUSH2 0x1BC6 JUMPI PUSH0 PUSH0 REVERT JUMPDEST POP GAS CALL ISZERO DUP1 ISZERO PUSH2 0x1BD8 JUMPI RETURNDATASIZE PUSH0 PUSH0 RETURNDATACOPY RETURNDATASIZE PUSH0 REVERT JUMPDEST POP POP POP POP DUP4 PUSH0 ADD MLOAD PUSH20 0xFFFFFFFFFFFFFFFFFFFFFFFFFFFFFFFFFFFFFFFF AND DUP8 PUSH32 0xF080CA67B108FBAD70BB5FBBF685238B9880F8ADF09F3B5838058B9645D2D6FB DUP5 DUP7 DUP9 PUSH1 0x20 ADD MLOAD DUP7 PUSH1 0x40 MLOAD PUSH2 0x1C30 SWAP5 SWAP4 SWAP3 SWAP2 SWAP1 PUSH2 0x2590 JUMP JUMPDEST PUSH1 0x40 MLOAD DUP1 SWAP2 SUB SWAP1 LOG3 POP POP POP POP POP POP POP JUMP JUMPDEST PUSH2 0x1C49 PUSH2 0x1DE1 JUMP JUMPDEST PUSH20 0xFFFFFFFFFFFFFFFFFFFFFFFFFFFFFFFFFFFFFFFF AND PUSH2 0x1C67 PUSH2 0xA1D JUMP JUMPDEST PUSH20 0xFFFFFFFFFFFFFFFFFFFFFFFFFFFFFFFFFFFFFFFF AND EQ PUSH2 0x1CC6 JUMPI PUSH2 0x1C8A PUSH2 0x1DE1 JUMP JUMPDEST PUSH1 0x40 MLOAD PUSH32 0x118CDAA700000000000000000000000000000000000000000000000000000000 DUP2 MSTORE PUSH1 0x4 ADD PUSH2 0x1CBD SWAP2 SWAP1 PUSH2 0x219A JUMP JUMPDEST PUSH1 0x40 MLOAD DUP1 SWAP2 SUB SWAP1 REVERT JUMPDEST JUMP JUMPDEST PUSH0 PUSH0 PUSH0 SWAP1 SLOAD SWAP1 PUSH2 0x100 EXP SWAP1 DIV PUSH20 0xFFFFFFFFFFFFFFFFFFFFFFFFFFFFFFFFFFFFFFFF AND SWAP1 POP DUP2 PUSH0 PUSH0 PUSH2 0x100 EXP DUP2 SLOAD DUP2 PUSH20 0xFFFFFFFFFFFFFFFFFFFFFFFFFFFFFFFFFFFFFFFF MUL NOT AND SWAP1 DUP4 PUSH20 0xFFFFFFFFFFFFFFFFFFFFFFFFFFFFFFFFFFFFFFFF AND MUL OR SWAP1 SSTORE POP DUP2 PUSH20 0xFFFFFFFFFFFFFFFFFFFFFFFFFFFFFFFFFFFFFFFF AND DUP2 PUSH20 0xFFFFFFFFFFFFFFFFFFFFFFFFFFFFFFFFFFFFFFFF AND PUSH32 0x8BE0079C531659141344CD1FD0A4F28419497F9722A3DAAFE3B4186F6B6457E0 PUSH1 0x40 MLOAD PUSH1 0x40 MLOAD DUP1 SWAP2 SUB SWAP1 LOG3 POP POP JUMP JUMPDEST PUSH1 0x2 PUSH1 0x1 SLOAD SUB PUSH2 0x1DCE JUMPI PUSH1 0x40 MLOAD PUSH32 0x8C379A000000000000000000000000000000000000000000000000000000000 DUP2 MSTORE PUSH1 0x4 ADD PUSH2 0x1DC5 SWAP1 PUSH2 0x262D JUMP JUMPDEST PUSH1 0x40 MLOAD DUP1 SWAP2 SUB SWAP1 REVERT JUMPDEST PUSH1 0x2 PUSH1 0x1 DUP2 SWAP1 SSTORE POP JUMP JUMPDEST PUSH1 0x1 DUP1 DUP2 SWAP1 SSTORE POP JUMP JUMPDEST PUSH0 CALLER SWAP1 POP SWAP1 JUMP JUMPDEST PUSH0 PUSH0 REVERT JUMPDEST PUSH0 PUSH0 REVERT JUMPDEST PUSH0 DUP2 SWAP1 POP SWAP2 SWAP1 POP JUMP JUMPDEST PUSH2 0x1E02 DUP2 PUSH2 0x1DF0 JUMP JUMPDEST DUP2 EQ PUSH2 0x1E0C JUMPI PUSH0 PUSH0 REVERT JUMPDEST POP JUMP JUMPDEST PUSH0 DUP2 CALLDATALOAD SWAP1 POP PUSH2 0x1E1D DUP2 PUSH2 0x1DF9 JUMP JUMPDEST SWAP3 SWAP2 POP POP JUMP JUMPDEST PUSH0 PUSH0 REVERT JUMPDEST PUSH0 PUSH0 REVERT JUMPDEST PUSH0 PUSH0 REVERT JUMPDEST PUSH0 PUSH0 DUP4 PUSH1 0x1F DUP5 ADD SLT PUSH2 0x1E44 JUMPI PUSH2 0x1E43 PUSH2 0x1E23 JUMP JUMPDEST JUMPDEST DUP3 CALLDATALOAD SWAP1 POP PUSH8 0xFFFFFFFFFFFFFFFF DUP2 GT ISZERO PUSH2 0x1E61 JUMPI PUSH2 0x1E60 PUSH2 0x1E27 JUMP JUMPDEST JUMPDEST PUSH1 0x20 DUP4 ADD SWAP2 POP DUP4 PUSH1 0x20 DUP3 MUL DUP4 ADD GT ISZERO PUSH2 0x1E7D JUMPI PUSH2 0x1E7C PUSH2 0x1E2B JUMP JUMPDEST JUMPDEST SWAP3 POP SWAP3 SWAP1 POP JUMP JUMPDEST PUSH0 PUSH0 PUSH0 PUSH1 0x40 DUP5 DUP7 SUB SLT ISZERO PUSH2 0x1E9B JUMPI PUSH2 0x1E9A PUSH2 0x1DE8 JUMP JUMPDEST JUMPDEST PUSH0 PUSH2 0x1EA8 DUP7 DUP3 DUP8 ADD PUSH2 0x1E0F JUMP JUMPDEST SWAP4 POP POP PUSH1 0x20 DUP5 ADD CALLDATALOAD PUSH8 0xFFFFFFFFFFFFFFFF DUP2 GT ISZERO PUSH2 0x1EC9 JUMPI PUSH2 0x1EC8 PUSH2 0x1DEC JUMP JUMPDEST JUMPDEST PUSH2 0x1ED5 DUP7 DUP3 DUP8 ADD PUSH2 0x1E2F JUMP JUMPDEST SWAP3 POP SWAP3 POP POP SWAP3 POP SWAP3 POP SWAP3 JUMP JUMPDEST PUSH0 PUSH1 0x20 DUP3 DUP5 SUB SLT ISZERO PUSH2 0x1EF6 JUMPI PUSH2 0x1EF5 PUSH2 0x1DE8 JUMP JUMPDEST JUMPDEST PUSH0 PUSH2 0x1F03 DUP5 DUP3 DUP6 ADD PUSH2 0x1E0F JUMP JUMPDEST SWAP2 POP POP SWAP3 SWAP2 POP POP JUMP JUMPDEST PUSH0 PUSH20 0xFFFFFFFFFFFFFFFFFFFFFFFFFFFFFFFFFFFFFFFF DUP3 AND SWAP1 POP SWAP2 SWAP1 POP JUMP JUMPDEST PUSH0 PUSH2 0x1F35 DUP3 PUSH2 0x1F0C JUMP JUMPDEST SWAP1 POP SWAP2 SWAP1 POP JUMP JUMPDEST PUSH2 0x1F45 DUP2 PUSH2 0x1F2B JUMP JUMPDEST DUP3 MSTORE POP POP JUMP JUMPDEST PUSH2 0x1F54 DUP2 PUSH2 0x1DF0 JUMP JUMPDEST DUP3 MSTORE POP POP JUMP JUMPDEST PUSH0 PUSH1 0xFF DUP3 AND SWAP1 POP SWAP2 SWAP1 POP JUMP JUMPDEST PUSH2 0x1F6F DUP2 PUSH2 0x1F5A JUMP JUMPDEST DUP3 MSTORE POP POP JUMP JUMPDEST PUSH0 PUSH1 0x60 DUP3 ADD SWAP1 POP PUSH2 0x1F88 PUSH0 DUP4 ADD DUP7 PUSH2 0x1F3C JUMP JUMPDEST PUSH2 0x1F95 PUSH1 0x20 DUP4 ADD DUP6 PUSH2 0x1F4B JUMP JUMPDEST PUSH2 0x1FA2 PUSH1 0x40 DUP4 ADD DUP5 PUSH2 0x1F66 JUMP JUMPDEST SWAP5 SWAP4 POP POP POP POP JUMP JUMPDEST PUSH0 DUP2 SWAP1 POP SWAP2 SWAP1 POP JUMP JUMPDEST PUSH2 0x1FBC DUP2 PUSH2 0x1FAA JUMP JUMPDEST DUP2 EQ PUSH2 0x1FC6 JUMPI PUSH0 PUSH0 REVERT JUMPDEST POP JUMP JUMPDEST PUSH0 DUP2 CALLDATALOAD SWAP1 POP PUSH2 0x1FD7 DUP2 PUSH2 0x1FB3 JUMP JUMPDEST SWAP3 SWAP2 POP POP JUMP JUMPDEST PUSH0 PUSH1 0x20 DUP3 DUP5 SUB SLT ISZERO PUSH2 0x1FF2 JUMPI PUSH2 0x1FF1 PUSH2 0x1DE8 JUMP JUMPDEST JUMPDEST PUSH0 PUSH2 0x1FFF DUP5 DUP3 DUP6 ADD PUSH2 0x1FC9 JUMP JUMPDEST SWAP2 POP POP SWAP3 SWAP2 POP POP JUMP JUMPDEST PUSH0 PUSH4 0xFFFFFFFF DUP3 AND SWAP1 POP SWAP2 SWAP1 POP JUMP JUMPDEST PUSH2 0x2020 DUP2 PUSH2 0x2008 JUMP JUMPDEST DUP3 MSTORE POP POP JUMP JUMPDEST PUSH0 PUSH1 0x20 DUP3 ADD SWAP1 POP PUSH2 0x2039 PUSH0 DUP4 ADD DUP5 PUSH2 0x2017 JUMP JUMPDEST SWAP3 SWAP2 POP POP JUMP JUMPDEST PUSH2 0x2048 DUP2 PUSH2 0x1F2B JUMP JUMPDEST DUP2 EQ PUSH2 0x2052 JUMPI PUSH0 PUSH0 REVERT JUMPDEST POP JUMP JUMPDEST PUSH0 DUP2 CALLDATALOAD SWAP1 POP PUSH2 0x2063 DUP2 PUSH2 0x203F JUMP JUMPDEST SWAP3 SWAP2 POP POP JUMP JUMPDEST PUSH0 PUSH1 0x20 DUP3 DUP5 SUB SLT ISZERO PUSH2 0x207E JUMPI PUSH2 0x207D PUSH2 0x1DE8 JUMP JUMPDEST JUMPDEST PUSH0 PUSH2 0x208B DUP5 DUP3 DUP6 ADD PUSH2 0x2055 JUMP JUMPDEST SWAP2 POP POP SWAP3 SWAP2 POP POP JUMP JUMPDEST PUSH2 0x209D DUP2 PUSH2 0x1FAA JUMP JUMPDEST DUP3 MSTORE POP POP JUMP JUMPDEST PUSH0 PUSH1 0x20 DUP3 ADD SWAP1 POP PUSH2 0x20B6 PUSH0 DUP4 ADD DUP5 PUSH2 0x2094 JUMP JUMPDEST SWAP3 SWAP2 POP POP JUMP JUMPDEST PUSH0 PUSH1 0x20 DUP3 ADD SWAP1 POP PUSH2 0x20CF PUSH0 DUP4 ADD DUP5 PUSH2 0x1F4B JUMP JUMPDEST SWAP3 SWAP2 POP POP JUMP JUMPDEST PUSH0 PUSH1 0xA0 DUP3 ADD SWAP1 POP PUSH2 0x20E8 PUSH0 DUP4 ADD DUP9 PUSH2 0x1F4B JUMP JUMPDEST PUSH2 0x20F5 PUSH1 0x20 DUP4 ADD DUP8 PUSH2 0x1F4B JUMP JUMPDEST PUSH2 0x2102 PUSH1 0x40 DUP4 ADD DUP7 PUSH2 0x1F4B JUMP JUMPDEST PUSH2 0x210F PUSH1 0x60 DUP4 ADD DUP6 PUSH2 0x1F4B JUMP JUMPDEST PUSH2 0x211C PUSH1 0x80 DUP4 ADD DUP5 PUSH2 0x1F4B JUMP JUMPDEST SWAP7 SWAP6 POP POP POP POP POP POP JUMP JUMPDEST PUSH0 DUP2 SWAP1 POP SWAP2 SWAP1 POP JUMP JUMPDEST PUSH0 PUSH2 0x2149 PUSH2 0x2144 PUSH2 0x213F DUP5 PUSH2 0x1F0C JUMP JUMPDEST PUSH2 0x2126 JUMP JUMPDEST PUSH2 0x1F0C JUMP JUMPDEST SWAP1 POP SWAP2 SWAP1 POP JUMP JUMPDEST PUSH0 PUSH2 0x215A DUP3 PUSH2 0x212F JUMP JUMPDEST SWAP1 POP SWAP2 SWAP1 POP JUMP JUMPDEST PUSH0 PUSH2 0x216B DUP3 PUSH2 0x2150 JUMP JUMPDEST SWAP1 POP SWAP2 SWAP1 POP JUMP JUMPDEST PUSH2 0x217B DUP2 PUSH2 0x2161 JUMP JUMPDEST DUP3 MSTORE POP POP JUMP JUMPDEST PUSH0 PUSH1 0x20 DUP3 ADD SWAP1 POP PUSH2 0x2194 PUSH0 DUP4 ADD DUP5 PUSH2 0x2172 JUMP JUMPDEST SWAP3 SWAP2 POP POP JUMP JUMPDEST PUSH0 PUSH1 0x20 DUP3 ADD SWAP1 POP PUSH2 0x21AD PUSH0 DUP4 ADD DUP5 PUSH2 0x1F3C JUMP JUMPDEST SWAP3 SWAP2 POP POP JUMP JUMPDEST PUSH2 0x21BC DUP2 PUSH2 0x1F5A JUMP JUMPDEST DUP2 EQ PUSH2 0x21C6 JUMPI PUSH0 PUSH0 REVERT JUMPDEST POP JUMP JUMPDEST PUSH0 DUP2 CALLDATALOAD SWAP1 POP PUSH2 0x21D7 DUP2 PUSH2 0x21B3 JUMP JUMPDEST SWAP3 SWAP2 POP POP JUMP JUMPDEST PUSH0 PUSH1 0x20 DUP3 DUP5 SUB SLT ISZERO PUSH2 0x21F2 JUMPI PUSH2 0x21F1 PUSH2 0x1DE8 JUMP JUMPDEST JUMPDEST PUSH0 PUSH2 0x21FF DUP5 DUP3 DUP6 ADD PUSH2 0x21C9 JUMP JUMPDEST SWAP2 POP POP SWAP3 SWAP2 POP POP JUMP JUMPDEST PUSH0 PUSH1 0x40 DUP3 ADD SWAP1 POP PUSH2 0x221B PUSH0 DUP4 ADD DUP6 PUSH2 0x1F3C JUMP JUMPDEST PUSH2 0x2228 PUSH1 0x20 DUP4 ADD DUP5 PUSH2 0x1F3C JUMP JUMPDEST SWAP4 SWAP3 POP POP POP JUMP JUMPDEST PUSH32 0x4E487B7100000000000000000000000000000000000000000000000000000000 PUSH0 MSTORE PUSH1 0x11 PUSH1 0x4 MSTORE PUSH1 0x24 PUSH0 REVERT JUMPDEST PUSH0 PUSH2 0x2266 DUP3 PUSH2 0x1DF0 JUMP JUMPDEST SWAP2 POP PUSH2 0x2271 DUP4 PUSH2 0x1DF0 JUMP JUMPDEST SWAP3 POP DUP3 DUP3 ADD SWAP1 POP DUP1 DUP3 GT ISZERO PUSH2 0x2289 JUMPI PUSH2 0x2288 PUSH2 0x222F JUMP JUMPDEST JUMPDEST SWAP3 SWAP2 POP POP JUMP JUMPDEST PUSH0 PUSH2 0x22A9 PUSH2 0x22A4 PUSH2 0x229F DUP5 PUSH2 0x2008 JUMP JUMPDEST PUSH2 0x2126 JUMP JUMPDEST PUSH2 0x1DF0 JUMP JUMPDEST SWAP1 POP SWAP2 SWAP1 POP JUMP JUMPDEST PUSH2 0x22B9 DUP2 PUSH2 0x228F JUMP JUMPDEST DUP3 MSTORE POP POP JUMP JUMPDEST PUSH0 PUSH1 0x20 DUP3 ADD SWAP1 POP PUSH2 0x22D2 PUSH0 DUP4 ADD DUP5 PUSH2 0x22B0 JUMP JUMPDEST SWAP3 SWAP2 POP POP JUMP JUMPDEST PUSH0 DUP2 MLOAD SWAP1 POP PUSH2 0x22E6 DUP2 PUSH2 0x1DF9 JUMP JUMPDEST SWAP3 SWAP2 POP POP JUMP JUMPDEST PUSH0 PUSH1 0x20 DUP3 DUP5 SUB SLT ISZERO PUSH2 0x2301 JUMPI PUSH2 0x2300 PUSH2 0x1DE8 JUMP JUMPDEST JUMPDEST PUSH0 PUSH2 0x230E DUP5 DUP3 DUP6 ADD PUSH2 0x22D8 JUMP JUMPDEST SWAP2 POP POP SWAP3 SWAP2 POP POP JUMP JUMPDEST PUSH0 PUSH2 0x2321 DUP3 PUSH2 0x1DF0 JUMP JUMPDEST SWAP2 POP PUSH2 0x232C DUP4 PUSH2 0x1DF0 JUMP JUMPDEST SWAP3 POP DUP3 DUP3 SUB SWAP1 POP DUP2 DUP2 GT ISZERO PUSH2 0x2344 JUMPI PUSH2 0x2343 PUSH2 0x222F JUMP JUMPDEST JUMPDEST SWAP3 SWAP2 POP POP JUMP JUMPDEST PUSH0 PUSH2 0x2354 DUP3 PUSH2 0x1F5A JUMP JUMPDEST SWAP2 POP PUSH2 0x235F DUP4 PUSH2 0x1F5A JUMP JUMPDEST SWAP3 POP DUP3 DUP3 SUB SWAP1 POP PUSH1 0xFF DUP2 GT ISZERO PUSH2 0x2378 JUMPI PUSH2 0x2377 PUSH2 0x222F JUMP JUMPDEST JUMPDEST SWAP3 SWAP2 POP POP JUMP JUMPDEST PUSH0 PUSH2 0x2388 DUP3 PUSH2 0x1DF0 JUMP JUMPDEST SWAP2 POP PUSH2 0x2393 DUP4 PUSH2 0x1DF0 JUMP JUMPDEST SWAP3 POP DUP3 DUP3 MUL PUSH2 0x23A1 DUP2 PUSH2 0x1DF0 JUMP JUMPDEST SWAP2 POP DUP3 DUP3 DIV DUP5 EQ DUP4 ISZERO OR PUSH2 0x23B8 JUMPI PUSH2 0x23B7 PUSH2 0x222F JUMP JUMPDEST JUMPDEST POP SWAP3 SWAP2 POP POP JUMP JUMPDEST PUSH32 0x4E487B7100000000000000000000000000000000000000000000000000000000 PUSH0 MSTORE PUSH1 0x12 PUSH1 0x4 MSTORE PUSH1 0x24 PUSH0 REVERT JUMPDEST PUSH0 PUSH2 0x23F6 DUP3 PUSH2 0x1DF0 JUMP JUMPDEST SWAP2 POP PUSH2 0x2401 DUP4 PUSH2 0x1DF0 JUMP JUMPDEST SWAP3 POP DUP3 PUSH2 0x2411 JUMPI PUSH2 0x2410 PUSH2 0x23BF JUMP JUMPDEST JUMPDEST DUP3 DUP3 DIV SWAP1 POP SWAP3 SWAP2 POP POP JUMP JUMPDEST PUSH0 DUP2 SWAP1 POP SWAP2 SWAP1 POP JUMP JUMPDEST PUSH0 PUSH2 0x243F PUSH2 0x243A PUSH2 0x2435 DUP5 PUSH2 0x241C JUMP JUMPDEST PUSH2 0x2126 JUMP JUMPDEST PUSH2 0x1DF0 JUMP JUMPDEST SWAP1 POP SWAP2 SWAP1 POP JUMP JUMPDEST PUSH2 0x244F DUP2 PUSH2 0x2425 JUMP JUMPDEST DUP3 MSTORE POP POP JUMP JUMPDEST PUSH0 PUSH1 0x60 DUP3 ADD SWAP1 POP PUSH2 0x2468 PUSH0 DUP4 ADD DUP7 PUSH2 0x22B0 JUMP JUMPDEST PUSH2 0x2475 PUSH1 0x20 DUP4 ADD DUP6 PUSH2 0x2446 JUMP JUMPDEST PUSH2 0x2482 PUSH1 0x40 DUP4 ADD DUP5 PUSH2 0x1F3C JUMP JUMPDEST SWAP5 SWAP4 POP POP POP POP JUMP JUMPDEST PUSH0 DUP2 SWAP1 POP SWAP3 SWAP2 POP POP JUMP JUMPDEST POP JUMP JUMPDEST PUSH0 PUSH2 0x24A2 PUSH0 DUP4 PUSH2 0x248A JUMP JUMPDEST SWAP2 POP PUSH2 0x24AD DUP3 PUSH2 0x2494 JUMP JUMPDEST PUSH0 DUP3 ADD SWAP1 POP SWAP2 SWAP1 POP JUMP JUMPDEST PUSH0 PUSH2 0x24C1 DUP3 PUSH2 0x2497 JUMP JUMPDEST SWAP2 POP DUP2 SWAP1 POP SWAP2 SWAP1 POP JUMP JUMPDEST PUSH0 PUSH1 0x40 DUP3 ADD SWAP1 POP PUSH2 0x24DE PUSH0 DUP4 ADD DUP6 PUSH2 0x1F4B JUMP JUMPDEST PUSH2 0x24EB PUSH1 0x20 DUP4 ADD DUP5 PUSH2 0x1F66 JUMP JUMPDEST SWAP4 SWAP3 POP POP POP JUMP JUMPDEST PUSH32 0x4E487B7100000000000000000000000000000000000000000000000000000000 PUSH0 MSTORE PUSH1 0x32 PUSH1 0x4 MSTORE PUSH1 0x24 PUSH0 REVERT JUMPDEST PUSH0 PUSH2 0x2529 DUP3 PUSH2 0x1DF0 JUMP JUMPDEST SWAP2 POP PUSH2 0x2534 DUP4 PUSH2 0x1DF0 JUMP JUMPDEST SWAP3 POP DUP3 PUSH2 0x2544 JUMPI PUSH2 0x2543 PUSH2 0x23BF JUMP JUMPDEST JUMPDEST DUP3 DUP3 MOD SWAP1 POP SWAP3 SWAP2 POP POP JUMP JUMPDEST PUSH0 PUSH1 0x40 DUP3 ADD SWAP1 POP PUSH2 0x2562 PUSH0 DUP4 ADD DUP6 PUSH2 0x1F3C JUMP JUMPDEST PUSH2 0x256F PUSH1 0x20 DUP4 ADD DUP5 PUSH2 0x1F4B JUMP JUMPDEST SWAP4 SWAP3 POP POP POP JUMP JUMPDEST PUSH0 DUP2 ISZERO ISZERO SWAP1 POP SWAP2 SWAP1 POP JUMP JUMPDEST PUSH2 0x258A DUP2 PUSH2 0x2576 JUMP JUMPDEST DUP3 MSTORE POP POP JUMP JUMPDEST PUSH0 PUSH1 0x80 DUP3 ADD SWAP1 POP PUSH2 0x25A3 PUSH0 DUP4 ADD DUP8 PUSH2 0x2581 JUMP JUMPDEST PUSH2 0x25B0 PUSH1 0x20 DUP4 ADD DUP7 PUSH2 0x1F4B JUMP JUMPDEST PUSH2 0x25BD PUSH1 0x40 DUP4 ADD DUP6 PUSH2 0x1F4B JUMP JUMPDEST PUSH2 0x25CA PUSH1 0x60 DUP4 ADD DUP5 PUSH2 0x1F4B JUMP JUMPDEST SWAP6 SWAP5 POP POP POP POP POP JUMP JUMPDEST PUSH0 DUP3 DUP3 MSTORE PUSH1 0x20 DUP3 ADD SWAP1 POP SWAP3 SWAP2 POP POP JUMP JUMPDEST PUSH32 0x5265656E7472616E637947756172643A207265656E7472616E742063616C6C00 PUSH0 DUP3 ADD MSTORE POP JUMP JUMPDEST PUSH0 PUSH2 0x2617 PUSH1 0x1F DUP4 PUSH2 0x25D3 JUMP JUMPDEST SWAP2 POP PUSH2 0x2622 DUP3 PUSH2 0x25E3 JUMP JUMPDEST PUSH1 0x20 DUP3 ADD SWAP1 POP SWAP2 SWAP1 POP JUMP JUMPDEST PUSH0 PUSH1 0x20 DUP3 ADD SWAP1 POP DUP2 DUP2 SUB PUSH0 DUP4 ADD MSTORE PUSH2 0x2644 DUP2 PUSH2 0x260B JUMP JUMPDEST SWAP1 POP SWAP2 SWAP1 POP JUMP INVALID LOG2 PUSH5 0x6970667358 0x22 SLT KECCAK256 DATALOADN 0x9251 MCOPY 0xC7 KECCAK256 PUSH2 0xB12 0xF SLOAD 0xC 0xC0 CALLDATASIZE 0xC6 ADDRESS 0x4C 0x28 DUP3 0xC1 0xB4 0x1F PUSH10 0x2100711FFE92DBED9B64 PUSH20 0x6F6C634300081E00330000000000000000000000 "
				},
				"gasEstimates": {
					"creation": {
						"codeDepositCost": "1971400",
						"executionCost": "infinite",
						"totalCost": "infinite"
					},
					"external": {
						"CALLBACK_GAS_LIMIT()": "421",
						"MAX_HOUSE_FEE_BPS()": "413",
						"MAX_PAYOUT_BPS()": "392",
						"applyReferralCode(bytes32)": "infinite",
						"bet(uint8)": "infinite",
						"bets(uint256)": "infinite",
						"createReferralCode(bytes32)": "51470",
						"getAddressByCode(bytes32)": "2962",
						"getReferralCodeOf(address)": "2874",
						"getReferrerOf(address)": "infinite",
						"houseFeeBps()": "2469",
						"liquidityVault()": "infinite",
						"maxPayoutBps()": "2493",
						"owner()": "2603",
						"playerInfo(address)": "infinite",
						"rawFulfillRandomWords(uint256,uint256[])": "infinite",
						"referralCodeOf(address)": "2914",
						"referralCodeOwner(bytes32)": "2894",
						"referrerOf(address)": "infinite",
						"renounceOwnership()": "infinite",
						"setHouseFee(uint256)": "infinite",
						"setMaxPayoutBps(uint256)": "infinite",
						"totalBets()": "2515",
						"totalGamesPlayed()": "2515",
						"totalGamesWon()": "2470",
						"totalPayout()": "2559",
						"transferOwnership(address)": "infinite"
					},
					"internal": {
						"_fulfillRandomWords(uint256,uint256[] calldata)": "infinite"
					}
				},
				"methodIdentifiers": {
					"CALLBACK_GAS_LIMIT()": "33d608f1",
					"MAX_HOUSE_FEE_BPS()": "f379469b",
					"MAX_PAYOUT_BPS()": "e231b0ef",
					"applyReferralCode(bytes32)": "bc6e8020",
					"bet(uint8)": "d0821b0e",
					"bets(uint256)": "22af00fa",
					"createReferralCode(bytes32)": "30330615",
					"getAddressByCode(bytes32)": "f68017cd",
					"getReferralCodeOf(address)": "d69fd7b9",
					"getReferrerOf(address)": "bc7f25e4",
					"houseFeeBps()": "ee59d240",
					"liquidityVault()": "708666ad",
					"maxPayoutBps()": "bdcf1753",
					"owner()": "8da5cb5b",
					"playerInfo(address)": "4b114691",
					"rawFulfillRandomWords(uint256,uint256[])": "1fe543e3",
					"referralCodeOf(address)": "44af2edb",
					"referralCodeOwner(bytes32)": "c4f343fd",
					"referrerOf(address)": "d21cacdf",
					"renounceOwnership()": "715018a6",
					"setHouseFee(uint256)": "5a09f2f4",
					"setMaxPayoutBps(uint256)": "e27ff2ba",
					"totalBets()": "befa1e2f",
					"totalGamesPlayed()": "5c492129",
					"totalGamesWon()": "c32b5373",
					"totalPayout()": "454f7b8f",
					"transferOwnership(address)": "f2fde38b"
				}
			},
			"storageLayout": {
				"storage": [
					{
						"astId": 8,
						"contract": "contracts/RussianRoullete.sol:RussianRoulette",
						"label": "_owner",
						"offset": 0,
						"slot": "0",
						"type": "t_address"
					},
					{
						"astId": 158,
						"contract": "contracts/RussianRoullete.sol:RussianRoulette",
						"label": "_status",
						"offset": 0,
						"slot": "1",
						"type": "t_uint256"
					},
					{
						"astId": 691,
						"contract": "contracts/RussianRoullete.sol:RussianRoulette",
						"label": "liquidityVault",
						"offset": 0,
						"slot": "2",
						"type": "t_contract(ILiquidityVault)654"
					},
					{
						"astId": 738,
						"contract": "contracts/RussianRoullete.sol:RussianRoulette",
						"label": "bets",
						"offset": 0,
						"slot": "3",
						"type": "t_mapping(t_uint256,t_struct(Bet)722_storage)"
					},
					{
						"astId": 742,
						"contract": "contracts/RussianRoullete.sol:RussianRoulette",
						"label": "referralCodeOwner",
						"offset": 0,
						"slot": "4",
						"type": "t_mapping(t_bytes32,t_address)"
					},
					{
						"astId": 746,
						"contract": "contracts/RussianRoullete.sol:RussianRoulette",
						"label": "referralCodeOf",
						"offset": 0,
						"slot": "5",
						"type": "t_mapping(t_address,t_bytes32)"
					},
					{
						"astId": 750,
						"contract": "contracts/RussianRoullete.sol:RussianRoulette",
						"label": "referrerOf",
						"offset": 0,
						"slot": "6",
						"type": "t_mapping(t_address,t_address)"
					},
					{
						"astId": 755,
						"contract": "contracts/RussianRoullete.sol:RussianRoulette",
						"label": "playerInfo",
						"offset": 0,
						"slot": "7",
						"type": "t_mapping(t_address,t_struct(Player)733_storage)"
					},
					{
						"astId": 758,
						"contract": "contracts/RussianRoullete.sol:RussianRoulette",
						"label": "houseFeeBps",
						"offset": 0,
						"slot": "8",
						"type": "t_uint256"
					},
					{
						"astId": 767,
						"contract": "contracts/RussianRoullete.sol:RussianRoulette",
						"label": "maxPayoutBps",
						"offset": 0,
						"slot": "9",
						"type": "t_uint256"
					},
					{
						"astId": 772,
						"contract": "contracts/RussianRoullete.sol:RussianRoulette",
						"label": "totalBets",
						"offset": 0,
						"slot": "10",
						"type": "t_uint256"
					},
					{
						"astId": 774,
						"contract": "contracts/RussianRoullete.sol:RussianRoulette",
						"label": "totalPayout",
						"offset": 0,
						"slot": "11",
						"type": "t_uint256"
					},
					{
						"astId": 776,
						"contract": "contracts/RussianRoullete.sol:RussianRoulette",
						"label": "totalGamesPlayed",
						"offset": 0,
						"slot": "12",
						"type": "t_uint256"
					},
					{
						"astId": 778,
						"contract": "contracts/RussianRoullete.sol:RussianRoulette",
						"label": "totalGamesWon",
						"offset": 0,
						"slot": "13",
						"type": "t_uint256"
					}
				],
				"types": {
					"t_address": {
						"encoding": "inplace",
						"label": "address",
						"numberOfBytes": "20"
					},
					"t_bytes32": {
						"encoding": "inplace",
						"label": "bytes32",
						"numberOfBytes": "32"
					},
					"t_contract(ILiquidityVault)654": {
						"encoding": "inplace",
						"label": "contract ILiquidityVault",
						"numberOfBytes": "20"
					},
					"t_mapping(t_address,t_address)": {
						"encoding": "mapping",
						"key": "t_address",
						"label": "mapping(address => address)",
						"numberOfBytes": "32",
						"value": "t_address"
					},
					"t_mapping(t_address,t_bytes32)": {
						"encoding": "mapping",
						"key": "t_address",
						"label": "mapping(address => bytes32)",
						"numberOfBytes": "32",
						"value": "t_bytes32"
					},
					"t_mapping(t_address,t_struct(Player)733_storage)": {
						"encoding": "mapping",
						"key": "t_address",
						"label": "mapping(address => struct RussianRoulette.Player)",
						"numberOfBytes": "32",
						"value": "t_struct(Player)733_storage"
					},
					"t_mapping(t_bytes32,t_address)": {
						"encoding": "mapping",
						"key": "t_bytes32",
						"label": "mapping(bytes32 => address)",
						"numberOfBytes": "32",
						"value": "t_address"
					},
					"t_mapping(t_uint256,t_struct(Bet)722_storage)": {
						"encoding": "mapping",
						"key": "t_uint256",
						"label": "mapping(uint256 => struct RussianRoulette.Bet)",
						"numberOfBytes": "32",
						"value": "t_struct(Bet)722_storage"
					},
					"t_struct(Bet)722_storage": {
						"encoding": "inplace",
						"label": "struct RussianRoulette.Bet",
						"members": [
							{
								"astId": 717,
								"contract": "contracts/RussianRoullete.sol:RussianRoulette",
								"label": "player",
								"offset": 0,
								"slot": "0",
								"type": "t_address"
							},
							{
								"astId": 719,
								"contract": "contracts/RussianRoullete.sol:RussianRoulette",
								"label": "amount",
								"offset": 0,
								"slot": "1",
								"type": "t_uint256"
							},
							{
								"astId": 721,
								"contract": "contracts/RussianRoullete.sol:RussianRoulette",
								"label": "bullets",
								"offset": 0,
								"slot": "2",
								"type": "t_uint8"
							}
						],
						"numberOfBytes": "96"
					},
					"t_struct(Player)733_storage": {
						"encoding": "inplace",
						"label": "struct RussianRoulette.Player",
						"members": [
							{
								"astId": 724,
								"contract": "contracts/RussianRoullete.sol:RussianRoulette",
								"label": "totalBetsAmount",
								"offset": 0,
								"slot": "0",
								"type": "t_uint256"
							},
							{
								"astId": 726,
								"contract": "contracts/RussianRoullete.sol:RussianRoulette",
								"label": "totalPayout",
								"offset": 0,
								"slot": "1",
								"type": "t_uint256"
							},
							{
								"astId": 728,
								"contract": "contracts/RussianRoullete.sol:RussianRoulette",
								"label": "totalGamesPlayed",
								"offset": 0,
								"slot": "2",
								"type": "t_uint256"
							},
							{
								"astId": 730,
								"contract": "contracts/RussianRoullete.sol:RussianRoulette",
								"label": "totalGamesWon",
								"offset": 0,
								"slot": "3",
								"type": "t_uint256"
							},
							{
								"astId": 732,
								"contract": "contracts/RussianRoullete.sol:RussianRoulette",
								"label": "totalReferrals",
								"offset": 0,
								"slot": "4",
								"type": "t_uint256"
							}
						],
						"numberOfBytes": "160"
					},
					"t_uint256": {
						"encoding": "inplace",
						"label": "uint256",
						"numberOfBytes": "32"
					},
					"t_uint8": {
						"encoding": "inplace",
						"label": "uint8",
						"numberOfBytes": "1"
					}
				}
			},
			"userdoc": {
				"kind": "user",
				"methods": {
					"rawFulfillRandomWords(uint256,uint256[])": {
						"notice": "This function can only be called by the VRF coordinator"
					}
				},
				"version": 1
			}
		}
	}
}