{
	"data": {
		"bytecode": {
			"linkReferences": {},
			"object": "60a060405234801561000f575f5ffd5b506040516127b13803806127b1833981810160405281019061003191906101d1565b6040518060400160405280601281526020017f536174616e47616d6573205320546f6b656e00000000000000000000000000008152506040518060400160405280600381526020017f7367530000000000000000000000000000000000000000000000000000000000815250838073ffffffffffffffffffffffffffffffffffffffff1660808173ffffffffffffffffffffffffffffffffffffffff16815250505081600390816100e2919061044c565b5080600490816100f2919061044c565b5050506a372537349a396a2868000060058190555068241a9b4f617a28000060068190555080600a5f6101000a81548173ffffffffffffffffffffffffffffffffffffffff021916908373ffffffffffffffffffffffffffffffffffffffff160217905550426009819055505f6007819055505f600881905550505061051b565b5f5ffd5b5f73ffffffffffffffffffffffffffffffffffffffff82169050919050565b5f6101a082610177565b9050919050565b6101b081610196565b81146101ba575f5ffd5b50565b5f815190506101cb816101a7565b92915050565b5f5f604083850312156101e7576101e6610173565b5b5f6101f4858286016101bd565b9250506020610205858286016101bd565b9150509250929050565b5f81519050919050565b7f4e487b71000000000000000000000000000000000000000000000000000000005f52604160045260245ffd5b7f4e487b71000000000000000000000000000000000000000000000000000000005f52602260045260245ffd5b5f600282049050600182168061028a57607f821691505b60208210810361029d5761029c610246565b5b50919050565b5f819050815f5260205f209050919050565b5f6020601f8301049050919050565b5f82821b905092915050565b5f600883026102ff7fffffffffffffffffffffffffffffffffffffffffffffffffffffffffffffffff826102c4565b61030986836102c4565b95508019841693508086168417925050509392505050565b5f819050919050565b5f819050919050565b5f61034d61034861034384610321565b61032a565b610321565b9050919050565b5f819050919050565b61036683610333565b61037a61037282610354565b8484546102d0565b825550505050565b5f5f905090565b610391610382565b61039c81848461035d565b505050565b5b818110156103bf576103b45f82610389565b6001810190506103a2565b5050565b601f821115610404576103d5816102a3565b6103de846102b5565b810160208510156103ed578190505b6104016103f9856102b5565b8301826103a1565b50505b505050565b5f82821c905092915050565b5f6104245f1984600802610409565b1980831691505092915050565b5f61043c8383610415565b9150826002028217905092915050565b6104558261020f565b67ffffffffffffffff81111561046e5761046d610219565b5b6104788254610273565b6104838282856103c3565b5f60209050601f8311600181146104b4575f84156104a2578287015190505b6104ac8582610431565b865550610513565b601f1984166104c2866102a3565b5f5b828110156104e9578489015182556001820191506020850194506020810190506104c4565b868310156105065784890151610502601f891682610415565b8355505b6001600288020188555050505b505050505050565b6080516122696105485f395f81816108010152818161091401528181610d290152610d7d01526122695ff3fe6080604052600436106101b6575f3560e01c806343270d56116100eb578063967372a311610089578063c57981b511610063578063c57981b5146105f2578063d5abeb011461061c578063dd62ed3e14610646578063f68c2bfd14610682576101b6565b8063967372a314610550578063998f1b801461057a578063a9059cbb146105b6576101b6565b8063708666ad116100c5578063708666ad1461049657806370a08231146104c05780638cd221c9146104fc57806395d89b4114610526576101b6565b806343270d561461041857806347fec1a2146104425780636641ea081461046c576101b6565b806323b872dd1161015857806333d608f11161013257806333d608f11461037257806336667e7f1461039c57806336bcf7d6146103c657806342966c68146103f0576101b6565b806323b872dd146102d05780632566c9ea1461030c578063313ce56714610348576101b6565b806318160ddd1161019457806318160ddd1461024a5780631d6ad8e2146102745780631d729c5a1461027e5780631fe543e3146102a8576101b6565b806306fdde03146101ba57806307621eca146101e4578063095ea7b31461020e575b5f5ffd5b3480156101c5575f5ffd5b506101ce6106be565b6040516101db9190611ac4565b60405180910390f35b3480156101ef575f5ffd5b506101f861074e565b6040516102059190611afc565b60405180910390f35b348015610219575f5ffd5b50610234600480360381019061022f9190611ba1565b610754565b6040516102419190611bf9565b60405180910390f35b348015610255575f5ffd5b5061025e610776565b60405161026b9190611afc565b60405180910390f35b61027c61077f565b005b348015610289575f5ffd5b50610292610d11565b60405161029f9190611afc565b60405180910390f35b3480156102b3575f5ffd5b506102ce60048036038101906102c99190611c73565b610d27565b005b3480156102db575f5ffd5b506102f660048036038101906102f19190611cd0565b610de9565b6040516103039190611bf9565b60405180910390f35b348015610317575f5ffd5b50610332600480360381019061032d9190611d20565b610e17565b60405161033f9190611afc565b60405180910390f35b348015610353575f5ffd5b5061035c610e2c565b6040516103699190611d66565b60405180910390f35b34801561037d575f5ffd5b50610386610e34565b6040516103939190611d9d565b60405180910390f35b3480156103a7575f5ffd5b506103b0610e3b565b6040516103bd9190611afc565b60405180910390f35b3480156103d1575f5ffd5b506103da610e41565b6040516103e79190611afc565b60405180910390f35b3480156103fb575f5ffd5b5061041660048036038101906104119190611d20565b610e4e565b005b348015610423575f5ffd5b5061042c61103a565b6040516104399190611afc565b60405180910390f35b34801561044d575f5ffd5b5061045661103f565b6040516104639190611afc565b60405180910390f35b348015610477575f5ffd5b50610480611045565b60405161048d9190611afc565b60405180910390f35b3480156104a1575f5ffd5b506104aa61104a565b6040516104b79190611dc5565b60405180910390f35b3480156104cb575f5ffd5b506104e660048036038101906104e19190611dde565b61106f565b6040516104f39190611afc565b60405180910390f35b348015610507575f5ffd5b506105106110b4565b60405161051d9190611afc565b60405180910390f35b348015610531575f5ffd5b5061053a6110ba565b6040516105479190611ac4565b60405180910390f35b34801561055b575f5ffd5b5061056461114a565b6040516105719190611afc565b60405180910390f35b348015610585575f5ffd5b506105a0600480360381019061059b9190611e09565b611150565b6040516105ad9190611dc5565b60405180910390f35b3480156105c1575f5ffd5b506105dc60048036038101906105d79190611ba1565b61118d565b6040516105e99190611bf9565b60405180910390f35b3480156105fd575f5ffd5b506106066111af565b6040516106139190611afc565b60405180910390f35b348015610627575f5ffd5b506106306111bb565b60405161063d9190611afc565b60405180910390f35b348015610651575f5ffd5b5061066c60048036038101906106679190611e47565b6111c1565b6040516106799190611afc565b60405180910390f35b34801561068d575f5ffd5b506106a860048036038101906106a39190611d20565b611243565b6040516106b59190611afc565b60405180910390f35b6060600380546106cd90611eb2565b80601f01602080910402602001604051908101604052809291908181526020018280546106f990611eb2565b80156107445780601f1061071b57610100808354040283529160200191610744565b820191905f5260205f20905b81548152906001019060200180831161072757829003601f168201915b5050505050905090565b60065481565b5f5f61075e61125d565b905061076b818585611264565b600191505092915050565b5f600254905090565b67016345785d8a00003410156107c1576040517f732f941300000000000000000000000000000000000000000000000000000000815260040160405180910390fd5b5f603c6009546107d19190611f0f565b42101590505f5f600c5f60075481526020019081526020015f20541190508180156107f95750805b15610a84575f7f000000000000000000000000000000000000000000000000000000000000000073ffffffffffffffffffffffffffffffffffffffff1663c66d3d1862030d406040518263ffffffff1660e01b815260040161085b9190611f7b565b602060405180830381865afa158015610876573d5f5f3e3d5ffd5b505050506040513d601f19601f8201168201806040525081019061089a9190611fa8565b9050804710156108d6576040517f786e0a9900000000000000000000000000000000000000000000000000000000815260040160405180910390fd5b5f600c5f60075481526020019081526020015f205490505f600e5f60075481526020019081526020015f205490505f81036109115760065490505b5f7f000000000000000000000000000000000000000000000000000000000000000073ffffffffffffffffffffffffffffffffffffffff1663cb9bb27f8562030d406001306040518563ffffffff1660e01b81526004016109749392919061200c565b60206040518083038185885af1158015610990573d5f5f3e3d5ffd5b50505050506040513d601f19601f820116820180604052508101906109b59190611fa8565b9050600754600d5f8381526020019081526020015f208190555081600e5f60075481526020019081526020015f2081905550600754817fa77018cfa060263f92c58b53277f73d2eade9d69e943460421e26e648eed9f338585604051610a1c929190612041565b60405180910390a361c382600854610a349190611f0f565b60075410610a5f57600260065f828254610a4e9190612095565b925050819055506007546008819055505b600160075f828254610a719190611f0f565b9250508190555042600981905550505050505b5f600c5f60075481526020019081526020015f2054905033600b5f60075481526020019081526020015f205f8381526020019081526020015f205f6101000a81548173ffffffffffffffffffffffffffffffffffffffff021916908373ffffffffffffffffffffffffffffffffffffffff160217905550600181610b089190611f0f565b600c5f60075481526020019081526020015f20819055503373ffffffffffffffffffffffffffffffffffffffff166007547f66f19fb732c3e13893ea1bb5573839d7d0b41effc0aef6b59283c15ea5a0dbf960405160405180910390a35f6064600567016345785d8a0000610b7d91906120c5565b610b879190612095565b90505f600a5f9054906101000a900473ffffffffffffffffffffffffffffffffffffffff1673ffffffffffffffffffffffffffffffffffffffff1682604051610bcf90612133565b5f6040518083038185875af1925050503d805f8114610c09576040519150601f19603f3d011682016040523d82523d5f602084013e610c0e565b606091505b5050905080610c49576040517f4033e4e300000000000000000000000000000000000000000000000000000000815260040160405180910390fd5b5f67016345785d8a000034610c5e9190612147565b90505f811115610d09573373ffffffffffffffffffffffffffffffffffffffff1681604051610c8c90612133565b5f6040518083038185875af1925050503d805f8114610cc6576040519150601f19603f3d011682016040523d82523d5f602084013e610ccb565b606091505b50508092505081610d08576040517ff0c49d4400000000000000000000000000000000000000000000000000000000815260040160405180910390fd5b5b505050505050565b5f61c382600854610d229190611f0f565b905090565b7f000000000000000000000000000000000000000000000000000000000000000073ffffffffffffffffffffffffffffffffffffffff163373ffffffffffffffffffffffffffffffffffffffff1614610dd957337f00000000000000000000000000000000000000000000000000000000000000006040517f20138a9f000000000000000000000000000000000000000000000000000000008152600401610dd092919061217a565b60405180910390fd5b610de4838383611276565b505050565b5f5f610df361125d565b9050610e008582856113eb565b610e0b85858561147e565b60019150509392505050565b600c602052805f5260405f205f915090505481565b5f6012905090565b62030d4081565b61c38281565b68241a9b4f617a28000081565b5f8103610e87576040517f98642b8600000000000000000000000000000000000000000000000000000000815260040160405180910390fd5b5f4790505f8103610ec4576040517f786e0a9900000000000000000000000000000000000000000000000000000000815260040160405180910390fd5b5f610ecd610776565b90505f8103610f08576040517f786e0a9900000000000000000000000000000000000000000000000000000000815260040160405180910390fd5b5f818385610f1691906120c5565b610f209190612095565b9050610f2c338561156e565b8360055f828254610f3d9190612147565b925050819055505f3373ffffffffffffffffffffffffffffffffffffffff1682604051610f6990612133565b5f6040518083038185875af1925050503d805f8114610fa3576040519150601f19603f3d011682016040523d82523d5f602084013e610fa8565b606091505b5050905080610fe3576040517f90b8ec1800000000000000000000000000000000000000000000000000000000815260040160405180910390fd5b3373ffffffffffffffffffffffffffffffffffffffff167f23ff0e75edf108e3d0392d92e13e8c8a868ef19001bd49f9e94876dc46dff87f868460405161102b929190612041565b60405180910390a25050505050565b600581565b60095481565b603c81565b600a5f9054906101000a900473ffffffffffffffffffffffffffffffffffffffff1681565b5f5f5f8373ffffffffffffffffffffffffffffffffffffffff1673ffffffffffffffffffffffffffffffffffffffff1681526020019081526020015f20549050919050565b60075481565b6060600480546110c990611eb2565b80601f01602080910402602001604051908101604052809291908181526020018280546110f590611eb2565b80156111405780601f1061111757610100808354040283529160200191611140565b820191905f5260205f20905b81548152906001019060200180831161112357829003601f168201915b5050505050905090565b60085481565b600b602052815f5260405f20602052805f5260405f205f915091509054906101000a900473ffffffffffffffffffffffffffffffffffffffff1681565b5f5f61119761125d565b90506111a481858561147e565b600191505092915050565b67016345785d8a000081565b60055481565b5f60015f8473ffffffffffffffffffffffffffffffffffffffff1673ffffffffffffffffffffffffffffffffffffffff1681526020019081526020015f205f8373ffffffffffffffffffffffffffffffffffffffff1673ffffffffffffffffffffffffffffffffffffffff1681526020019081526020015f2054905092915050565b5f600c5f8381526020019081526020015f20549050919050565b5f33905090565b61127183838360016115ed565b505050565b5f600d5f8581526020019081526020015f20549050600d5f8581526020019081526020015f205f90555f600c5f8381526020019081526020015f205490505f8111156113e4575f8185855f8181106112d1576112d06121a1565b5b905060200201356112e291906121ce565b90505f600b5f8581526020019081526020015f205f8381526020019081526020015f205f9054906101000a900473ffffffffffffffffffffffffffffffffffffffff1690505f600e5f8681526020019081526020015f205490505f81036113495760065490505b60055481611355610776565b61135f9190611f0f565b111561137d5761136d610776565b60055461137a9190612147565b90505b5f8111156113e05761138f82826117bc565b8173ffffffffffffffffffffffffffffffffffffffff1685897fdd7933a060407298571fe36223f480ee3508053fdb7238a1fe246f52b62c8e73846040516113d79190611afc565b60405180910390a45b5050505b5050505050565b5f6113f684846111c1565b90507fffffffffffffffffffffffffffffffffffffffffffffffffffffffffffffffff8110156114785781811015611469578281836040517ffb8f41b2000000000000000000000000000000000000000000000000000000008152600401611460939291906121fe565b60405180910390fd5b61147784848484035f6115ed565b5b50505050565b5f73ffffffffffffffffffffffffffffffffffffffff168373ffffffffffffffffffffffffffffffffffffffff16036114ee575f6040517f96c6fd1e0000000000000000000000000000000000000000000000000000000081526004016114e59190611dc5565b60405180910390fd5b5f73ffffffffffffffffffffffffffffffffffffffff168273ffffffffffffffffffffffffffffffffffffffff160361155e575f6040517fec442f050000000000000000000000000000000000000000000000000000000081526004016115559190611dc5565b60405180910390fd5b61156983838361183b565b505050565b5f73ffffffffffffffffffffffffffffffffffffffff168273ffffffffffffffffffffffffffffffffffffffff16036115de575f6040517f96c6fd1e0000000000000000000000000000000000000000000000000000000081526004016115d59190611dc5565b60405180910390fd5b6115e9825f8361183b565b5050565b5f73ffffffffffffffffffffffffffffffffffffffff168473ffffffffffffffffffffffffffffffffffffffff160361165d575f6040517fe602df050000000000000000000000000000000000000000000000000000000081526004016116549190611dc5565b60405180910390fd5b5f73ffffffffffffffffffffffffffffffffffffffff168373ffffffffffffffffffffffffffffffffffffffff16036116cd575f6040517f94280d620000000000000000000000000000000000000000000000000000000081526004016116c49190611dc5565b60405180910390fd5b8160015f8673ffffffffffffffffffffffffffffffffffffffff1673ffffffffffffffffffffffffffffffffffffffff1681526020019081526020015f205f8573ffffffffffffffffffffffffffffffffffffffff1673ffffffffffffffffffffffffffffffffffffffff1681526020019081526020015f208190555080156117b6578273ffffffffffffffffffffffffffffffffffffffff168473ffffffffffffffffffffffffffffffffffffffff167f8c5be1e5ebec7d5bd14f71427d1e84f3dd0314c0f7b2291e5b200ac8c7c3b925846040516117ad9190611afc565b60405180910390a35b50505050565b5f73ffffffffffffffffffffffffffffffffffffffff168273ffffffffffffffffffffffffffffffffffffffff160361182c575f6040517fec442f050000000000000000000000000000000000000000000000000000000081526004016118239190611dc5565b60405180910390fd5b6118375f838361183b565b5050565b5f73ffffffffffffffffffffffffffffffffffffffff168373ffffffffffffffffffffffffffffffffffffffff160361188b578060025f82825461187f9190611f0f565b92505081905550611959565b5f5f5f8573ffffffffffffffffffffffffffffffffffffffff1673ffffffffffffffffffffffffffffffffffffffff1681526020019081526020015f2054905081811015611914578381836040517fe450d38c00000000000000000000000000000000000000000000000000000000815260040161190b939291906121fe565b60405180910390fd5b8181035f5f8673ffffffffffffffffffffffffffffffffffffffff1673ffffffffffffffffffffffffffffffffffffffff1681526020019081526020015f2081905550505b5f73ffffffffffffffffffffffffffffffffffffffff168273ffffffffffffffffffffffffffffffffffffffff16036119a0578060025f82825403925050819055506119ea565b805f5f8473ffffffffffffffffffffffffffffffffffffffff1673ffffffffffffffffffffffffffffffffffffffff1681526020019081526020015f205f82825401925050819055505b8173ffffffffffffffffffffffffffffffffffffffff168373ffffffffffffffffffffffffffffffffffffffff167fddf252ad1be2c89b69c2b068fc378daa952ba7f163c4a11628f55a4df523b3ef83604051611a479190611afc565b60405180910390a3505050565b5f81519050919050565b5f82825260208201905092915050565b8281835e5f83830152505050565b5f601f19601f8301169050919050565b5f611a9682611a54565b611aa08185611a5e565b9350611ab0818560208601611a6e565b611ab981611a7c565b840191505092915050565b5f6020820190508181035f830152611adc8184611a8c565b905092915050565b5f819050919050565b611af681611ae4565b82525050565b5f602082019050611b0f5f830184611aed565b92915050565b5f5ffd5b5f5ffd5b5f73ffffffffffffffffffffffffffffffffffffffff82169050919050565b5f611b4682611b1d565b9050919050565b611b5681611b3c565b8114611b60575f5ffd5b50565b5f81359050611b7181611b4d565b92915050565b611b8081611ae4565b8114611b8a575f5ffd5b50565b5f81359050611b9b81611b77565b92915050565b5f5f60408385031215611bb757611bb6611b15565b5b5f611bc485828601611b63565b9250506020611bd585828601611b8d565b9150509250929050565b5f8115159050919050565b611bf381611bdf565b82525050565b5f602082019050611c0c5f830184611bea565b92915050565b5f5ffd5b5f5ffd5b5f5ffd5b5f5f83601f840112611c3357611c32611c12565b5b8235905067ffffffffffffffff811115611c5057611c4f611c16565b5b602083019150836020820283011115611c6c57611c6b611c1a565b5b9250929050565b5f5f5f60408486031215611c8a57611c89611b15565b5b5f611c9786828701611b8d565b935050602084013567ffffffffffffffff811115611cb857611cb7611b19565b5b611cc486828701611c1e565b92509250509250925092565b5f5f5f60608486031215611ce757611ce6611b15565b5b5f611cf486828701611b63565b9350506020611d0586828701611b63565b9250506040611d1686828701611b8d565b9150509250925092565b5f60208284031215611d3557611d34611b15565b5b5f611d4284828501611b8d565b91505092915050565b5f60ff82169050919050565b611d6081611d4b565b82525050565b5f602082019050611d795f830184611d57565b92915050565b5f63ffffffff82169050919050565b611d9781611d7f565b82525050565b5f602082019050611db05f830184611d8e565b92915050565b611dbf81611b3c565b82525050565b5f602082019050611dd85f830184611db6565b92915050565b5f60208284031215611df357611df2611b15565b5b5f611e0084828501611b63565b91505092915050565b5f5f60408385031215611e1f57611e1e611b15565b5b5f611e2c85828601611b8d565b9250506020611e3d85828601611b8d565b9150509250929050565b5f5f60408385031215611e5d57611e5c611b15565b5b5f611e6a85828601611b63565b9250506020611e7b85828601611b63565b9150509250929050565b7f4e487b71000000000000000000000000000000000000000000000000000000005f52602260045260245ffd5b5f6002820490506001821680611ec957607f821691505b602082108103611edc57611edb611e85565b5b50919050565b7f4e487b71000000000000000000000000000000000000000000000000000000005f52601160045260245ffd5b5f611f1982611ae4565b9150611f2483611ae4565b9250828201905080821115611f3c57611f3b611ee2565b5b92915050565b5f819050919050565b5f611f65611f60611f5b84611d7f565b611f42565b611ae4565b9050919050565b611f7581611f4b565b82525050565b5f602082019050611f8e5f830184611f6c565b92915050565b5f81519050611fa281611b77565b92915050565b5f60208284031215611fbd57611fbc611b15565b5b5f611fca84828501611f94565b91505092915050565b5f819050919050565b5f611ff6611ff1611fec84611fd3565b611f42565b611ae4565b9050919050565b61200681611fdc565b82525050565b5f60608201905061201f5f830186611f6c565b61202c6020830185611ffd565b6120396040830184611db6565b949350505050565b5f6040820190506120545f830185611aed565b6120616020830184611aed565b9392505050565b7f4e487b71000000000000000000000000000000000000000000000000000000005f52601260045260245ffd5b5f61209f82611ae4565b91506120aa83611ae4565b9250826120ba576120b9612068565b5b828204905092915050565b5f6120cf82611ae4565b91506120da83611ae4565b92508282026120e881611ae4565b915082820484148315176120ff576120fe611ee2565b5b5092915050565b5f81905092915050565b50565b5f61211e5f83612106565b915061212982612110565b5f82019050919050565b5f61213d82612113565b9150819050919050565b5f61215182611ae4565b915061215c83611ae4565b925082820390508181111561217457612173611ee2565b5b92915050565b5f60408201905061218d5f830185611db6565b61219a6020830184611db6565b9392505050565b7f4e487b71000000000000000000000000000000000000000000000000000000005f52603260045260245ffd5b5f6121d882611ae4565b91506121e383611ae4565b9250826121f3576121f2612068565b5b828206905092915050565b5f6060820190506122115f830186611db6565b61221e6020830185611aed565b61222b6040830184611aed565b94935050505056fea264697066735822122052b5a6f95a217bcc4e0ae20f94bbf78068a7988e3bee220c9000d0f95761064e64736f6c634300081e0033",
			"opcodes": "PUSH1 0xA0 PUSH1 0x40 MSTORE CALLVALUE DUP1 ISZERO PUSH2 0xF JUMPI PUSH0 PUSH0 REVERT JUMPDEST POP PUSH1 0x40 MLOAD PUSH2 0x27B1 CODESIZE SUB DUP1 PUSH2 0x27B1 DUP4 CODECOPY DUP2 DUP2 ADD PUSH1 0x40 MSTORE DUP2 ADD SWAP1 PUSH2 0x31 SWAP2 SWAP1 PUSH2 0x1D1 JUMP JUMPDEST PUSH1 0x40 MLOAD DUP1 PUSH1 0x40 ADD PUSH1 0x40 MSTORE DUP1 PUSH1 0x12 DUP2 MSTORE PUSH1 0x20 ADD PUSH32 0x536174616E47616D6573205320546F6B656E0000000000000000000000000000 DUP2 MSTORE POP PUSH1 0x40 MLOAD DUP1 PUSH1 0x40 ADD PUSH1 0x40 MSTORE DUP1 PUSH1 0x3 DUP2 MSTORE PUSH1 0x20 ADD PUSH32 0x7367530000000000000000000000000000000000000000000000000000000000 DUP2 MSTORE POP DUP4 DUP1 PUSH20 0xFFFFFFFFFFFFFFFFFFFFFFFFFFFFFFFFFFFFFFFF AND PUSH1 0x80 DUP2 PUSH20 0xFFFFFFFFFFFFFFFFFFFFFFFFFFFFFFFFFFFFFFFF AND DUP2 MSTORE POP POP POP DUP2 PUSH1 0x3 SWAP1 DUP2 PUSH2 0xE2 SWAP2 SWAP1 PUSH2 0x44C JUMP JUMPDEST POP DUP1 PUSH1 0x4 SWAP1 DUP2 PUSH2 0xF2 SWAP2 SWAP1 PUSH2 0x44C JUMP JUMPDEST POP POP POP PUSH11 0x372537349A396A28680000 PUSH1 0x5 DUP2 SWAP1 SSTORE POP PUSH9 0x241A9B4F617A280000 PUSH1 0x6 DUP2 SWAP1 SSTORE POP DUP1 PUSH1 0xA PUSH0 PUSH2 0x100 EXP DUP2 SLOAD DUP2 PUSH20 0xFFFFFFFFFFFFFFFFFFFFFFFFFFFFFFFFFFFFFFFF MUL NOT AND SWAP1 DUP4 PUSH20 0xFFFFFFFFFFFFFFFFFFFFFFFFFFFFFFFFFFFFFFFF AND MUL OR SWAP1 SSTORE POP TIMESTAMP PUSH1 0x9 DUP2 SWAP1 SSTORE POP PUSH0 PUSH1 0x7 DUP2 SWAP1 SSTORE POP PUSH0 PUSH1 0x8 DUP2 SWAP1 SSTORE POP POP POP PUSH2 0x51B JUMP JUMPDEST PUSH0 PUSH0 REVERT JUMPDEST PUSH0 PUSH20 0xFFFFFFFFFFFFFFFFFFFFFFFFFFFFFFFFFFFFFFFF DUP3 AND SWAP1 POP SWAP2 SWAP1 POP JUMP JUMPDEST PUSH0 PUSH2 0x1A0 DUP3 PUSH2 0x177 JUMP JUMPDEST SWAP1 POP SWAP2 SWAP1 POP JUMP JUMPDEST PUSH2 0x1B0 DUP2 PUSH2 0x196 JUMP JUMPDEST DUP2 EQ PUSH2 0x1BA JUMPI PUSH0 PUSH0 REVERT JUMPDEST POP JUMP JUMPDEST PUSH0 DUP2 MLOAD SWAP1 POP PUSH2 0x1CB DUP2 PUSH2 0x1A7 JUMP JUMPDEST SWAP3 SWAP2 POP POP JUMP JUMPDEST PUSH0 PUSH0 PUSH1 0x40 DUP4 DUP6 SUB SLT ISZERO PUSH2 0x1E7 JUMPI PUSH2 0x1E6 PUSH2 0x173 JUMP JUMPDEST JUMPDEST PUSH0 PUSH2 0x1F4 DUP6 DUP3 DUP7 ADD PUSH2 0x1BD JUMP JUMPDEST SWAP3 POP POP PUSH1 0x20 PUSH2 0x205 DUP6 DUP3 DUP7 ADD PUSH2 0x1BD JUMP JUMPDEST SWAP2 POP POP SWAP3 POP SWAP3 SWAP1 POP JUMP JUMPDEST PUSH0 DUP2 MLOAD SWAP1 POP SWAP2 SWAP1 POP JUMP JUMPDEST PUSH32 0x4E487B7100000000000000000000000000000000000000000000000000000000 PUSH0 MSTORE PUSH1 0x41 PUSH1 0x4 MSTORE PUSH1 0x24 PUSH0 REVERT JUMPDEST PUSH32 0x4E487B7100000000000000000000000000000000000000000000000000000000 PUSH0 MSTORE PUSH1 0x22 PUSH1 0x4 MSTORE PUSH1 0x24 PUSH0 REVERT JUMPDEST PUSH0 PUSH1 0x2 DUP3 DIV SWAP1 POP PUSH1 0x1 DUP3 AND DUP1 PUSH2 0x28A JUMPI PUSH1 0x7F DUP3 AND SWAP2 POP JUMPDEST PUSH1 0x20 DUP3 LT DUP2 SUB PUSH2 0x29D JUMPI PUSH2 0x29C PUSH2 0x246 JUMP JUMPDEST JUMPDEST POP SWAP2 SWAP1 POP JUMP JUMPDEST PUSH0 DUP2 SWAP1 POP DUP2 PUSH0 MSTORE PUSH1 0x20 PUSH0 KECCAK256 SWAP1 POP SWAP2 SWAP1 POP JUMP JUMPDEST PUSH0 PUSH1 0x20 PUSH1 0x1F DUP4 ADD DIV SWAP1 POP SWAP2 SWAP1 POP JUMP JUMPDEST PUSH0 DUP3 DUP3 SHL SWAP1 POP SWAP3 SWAP2 POP POP JUMP JUMPDEST PUSH0 PUSH1 0x8 DUP4 MUL PUSH2 0x2FF PUSH32 0xFFFFFFFFFFFFFFFFFFFFFFFFFFFFFFFFFFFFFFFFFFFFFFFFFFFFFFFFFFFFFFFF DUP3 PUSH2 0x2C4 JUMP JUMPDEST PUSH2 0x309 DUP7 DUP4 PUSH2 0x2C4 JUMP JUMPDEST SWAP6 POP DUP1 NOT DUP5 AND SWAP4 POP DUP1 DUP7 AND DUP5 OR SWAP3 POP POP POP SWAP4 SWAP3 POP POP POP JUMP JUMPDEST PUSH0 DUP2 SWAP1 POP SWAP2 SWAP1 POP JUMP JUMPDEST PUSH0 DUP2 SWAP1 POP SWAP2 SWAP1 POP JUMP JUMPDEST PUSH0 PUSH2 0x34D PUSH2 0x348 PUSH2 0x343 DUP5 PUSH2 0x321 JUMP JUMPDEST PUSH2 0x32A JUMP JUMPDEST PUSH2 0x321 JUMP JUMPDEST SWAP1 POP SWAP2 SWAP1 POP JUMP JUMPDEST PUSH0 DUP2 SWAP1 POP SWAP2 SWAP1 POP JUMP JUMPDEST PUSH2 0x366 DUP4 PUSH2 0x333 JUMP JUMPDEST PUSH2 0x37A PUSH2 0x372 DUP3 PUSH2 0x354 JUMP JUMPDEST DUP5 DUP5 SLOAD PUSH2 0x2D0 JUMP JUMPDEST DUP3 SSTORE POP POP POP POP JUMP JUMPDEST PUSH0 PUSH0 SWAP1 POP SWAP1 JUMP JUMPDEST PUSH2 0x391 PUSH2 0x382 JUMP JUMPDEST PUSH2 0x39C DUP2 DUP5 DUP5 PUSH2 0x35D JUMP JUMPDEST POP POP POP JUMP JUMPDEST JUMPDEST DUP2 DUP2 LT ISZERO PUSH2 0x3BF JUMPI PUSH2 0x3B4 PUSH0 DUP3 PUSH2 0x389 JUMP JUMPDEST PUSH1 0x1 DUP2 ADD SWAP1 POP PUSH2 0x3A2 JUMP JUMPDEST POP POP JUMP JUMPDEST PUSH1 0x1F DUP3 GT ISZERO PUSH2 0x404 JUMPI PUSH2 0x3D5 DUP2 PUSH2 0x2A3 JUMP JUMPDEST PUSH2 0x3DE DUP5 PUSH2 0x2B5 JUMP JUMPDEST DUP2 ADD PUSH1 0x20 DUP6 LT ISZERO PUSH2 0x3ED JUMPI DUP2 SWAP1 POP JUMPDEST PUSH2 0x401 PUSH2 0x3F9 DUP6 PUSH2 0x2B5 JUMP JUMPDEST DUP4 ADD DUP3 PUSH2 0x3A1 JUMP JUMPDEST POP POP JUMPDEST POP POP POP JUMP JUMPDEST PUSH0 DUP3 DUP3 SHR SWAP1 POP SWAP3 SWAP2 POP POP JUMP JUMPDEST PUSH0 PUSH2 0x424 PUSH0 NOT DUP5 PUSH1 0x8 MUL PUSH2 0x409 JUMP JUMPDEST NOT DUP1 DUP4 AND SWAP2 POP POP SWAP3 SWAP2 POP POP JUMP JUMPDEST PUSH0 PUSH2 0x43C DUP4 DUP4 PUSH2 0x415 JUMP JUMPDEST SWAP2 POP DUP3 PUSH1 0x2 MUL DUP3 OR SWAP1 POP SWAP3 SWAP2 POP POP JUMP JUMPDEST PUSH2 0x455 DUP3 PUSH2 0x20F JUMP JUMPDEST PUSH8 0xFFFFFFFFFFFFFFFF DUP2 GT ISZERO PUSH2 0x46E JUMPI PUSH2 0x46D PUSH2 0x219 JUMP JUMPDEST JUMPDEST PUSH2 0x478 DUP3 SLOAD PUSH2 0x273 JUMP JUMPDEST PUSH2 0x483 DUP3 DUP3 DUP6 PUSH2 0x3C3 JUMP JUMPDEST PUSH0 PUSH1 0x20 SWAP1 POP PUSH1 0x1F DUP4 GT PUSH1 0x1 DUP2 EQ PUSH2 0x4B4 JUMPI PUSH0 DUP5 ISZERO PUSH2 0x4A2 JUMPI DUP3 DUP8 ADD MLOAD SWAP1 POP JUMPDEST PUSH2 0x4AC DUP6 DUP3 PUSH2 0x431 JUMP JUMPDEST DUP7 SSTORE POP PUSH2 0x513 JUMP JUMPDEST PUSH1 0x1F NOT DUP5 AND PUSH2 0x4C2 DUP7 PUSH2 0x2A3 JUMP JUMPDEST PUSH0 JUMPDEST DUP3 DUP2 LT ISZERO PUSH2 0x4E9 JUMPI DUP5 DUP10 ADD MLOAD DUP3 SSTORE PUSH1 0x1 DUP3 ADD SWAP2 POP PUSH1 0x20 DUP6 ADD SWAP5 POP PUSH1 0x20 DUP2 ADD SWAP1 POP PUSH2 0x4C4 JUMP JUMPDEST DUP7 DUP4 LT ISZERO PUSH2 0x506 JUMPI DUP5 DUP10 ADD MLOAD PUSH2 0x502 PUSH1 0x1F DUP10 AND DUP3 PUSH2 0x415 JUMP JUMPDEST DUP4 SSTORE POP JUMPDEST PUSH1 0x1 PUSH1 0x2 DUP9 MUL ADD DUP9 SSTORE POP POP POP JUMPDEST POP POP POP POP POP POP JUMP JUMPDEST PUSH1 0x80 MLOAD PUSH2 0x2269 PUSH2 0x548 PUSH0 CODECOPY PUSH0 DUP2 DUP2 PUSH2 0x801 ADD MSTORE DUP2 DUP2 PUSH2 0x914 ADD MSTORE DUP2 DUP2 PUSH2 0xD29 ADD MSTORE PUSH2 0xD7D ADD MSTORE PUSH2 0x2269 PUSH0 RETURN INVALID PUSH1 0x80 PUSH1 0x40 MSTORE PUSH1 0x4 CALLDATASIZE LT PUSH2 0x1B6 JUMPI PUSH0 CALLDATALOAD PUSH1 0xE0 SHR DUP1 PUSH4 0x43270D56 GT PUSH2 0xEB JUMPI DUP1 PUSH4 0x967372A3 GT PUSH2 0x89 JUMPI DUP1 PUSH4 0xC57981B5 GT PUSH2 0x63 JUMPI DUP1 PUSH4 0xC57981B5 EQ PUSH2 0x5F2 JUMPI DUP1 PUSH4 0xD5ABEB01 EQ PUSH2 0x61C JUMPI DUP1 PUSH4 0xDD62ED3E EQ PUSH2 0x646 JUMPI DUP1 PUSH4 0xF68C2BFD EQ PUSH2 0x682 JUMPI PUSH2 0x1B6 JUMP JUMPDEST DUP1 PUSH4 0x967372A3 EQ PUSH2 0x550 JUMPI DUP1 PUSH4 0x998F1B80 EQ PUSH2 0x57A JUMPI DUP1 PUSH4 0xA9059CBB EQ PUSH2 0x5B6 JUMPI PUSH2 0x1B6 JUMP JUMPDEST DUP1 PUSH4 0x708666AD GT PUSH2 0xC5 JUMPI DUP1 PUSH4 0x708666AD EQ PUSH2 0x496 JUMPI DUP1 PUSH4 0x70A08231 EQ PUSH2 0x4C0 JUMPI DUP1 PUSH4 0x8CD221C9 EQ PUSH2 0x4FC JUMPI DUP1 PUSH4 0x95D89B41 EQ PUSH2 0x526 JUMPI PUSH2 0x1B6 JUMP JUMPDEST DUP1 PUSH4 0x43270D56 EQ PUSH2 0x418 JUMPI DUP1 PUSH4 0x47FEC1A2 EQ PUSH2 0x442 JUMPI DUP1 PUSH4 0x6641EA08 EQ PUSH2 0x46C JUMPI PUSH2 0x1B6 JUMP JUMPDEST DUP1 PUSH4 0x23B872DD GT PUSH2 0x158 JUMPI DUP1 PUSH4 0x33D608F1 GT PUSH2 0x132 JUMPI DUP1 PUSH4 0x33D608F1 EQ PUSH2 0x372 JUMPI DUP1 PUSH4 0x36667E7F EQ PUSH2 0x39C JUMPI DUP1 PUSH4 0x36BCF7D6 EQ PUSH2 0x3C6 JUMPI DUP1 PUSH4 0x42966C68 EQ PUSH2 0x3F0 JUMPI PUSH2 0x1B6 JUMP JUMPDEST DUP1 PUSH4 0x23B872DD EQ PUSH2 0x2D0 JUMPI DUP1 PUSH4 0x2566C9EA EQ PUSH2 0x30C JUMPI DUP1 PUSH4 0x313CE567 EQ PUSH2 0x348 JUMPI PUSH2 0x1B6 JUMP JUMPDEST DUP1 PUSH4 0x18160DDD GT PUSH2 0x194 JUMPI DUP1 PUSH4 0x18160DDD EQ PUSH2 0x24A JUMPI DUP1 PUSH4 0x1D6AD8E2 EQ PUSH2 0x274 JUMPI DUP1 PUSH4 0x1D729C5A EQ PUSH2 0x27E JUMPI DUP1 PUSH4 0x1FE543E3 EQ PUSH2 0x2A8 JUMPI PUSH2 0x1B6 JUMP JUMPDEST DUP1 PUSH4 0x6FDDE03 EQ PUSH2 0x1BA JUMPI DUP1 PUSH4 0x7621ECA EQ PUSH2 0x1E4 JUMPI DUP1 PUSH4 0x95EA7B3 EQ PUSH2 0x20E JUMPI JUMPDEST PUSH0 PUSH0 REVERT JUMPDEST CALLVALUE DUP1 ISZERO PUSH2 0x1C5 JUMPI PUSH0 PUSH0 REVERT JUMPDEST POP PUSH2 0x1CE PUSH2 0x6BE JUMP JUMPDEST PUSH1 0x40 MLOAD PUSH2 0x1DB SWAP2 SWAP1 PUSH2 0x1AC4 JUMP JUMPDEST PUSH1 0x40 MLOAD DUP1 SWAP2 SUB SWAP1 RETURN JUMPDEST CALLVALUE DUP1 ISZERO PUSH2 0x1EF JUMPI PUSH0 PUSH0 REVERT JUMPDEST POP PUSH2 0x1F8 PUSH2 0x74E JUMP JUMPDEST PUSH1 0x40 MLOAD PUSH2 0x205 SWAP2 SWAP1 PUSH2 0x1AFC JUMP JUMPDEST PUSH1 0x40 MLOAD DUP1 SWAP2 SUB SWAP1 RETURN JUMPDEST CALLVALUE DUP1 ISZERO PUSH2 0x219 JUMPI PUSH0 PUSH0 REVERT JUMPDEST POP PUSH2 0x234 PUSH1 0x4 DUP1 CALLDATASIZE SUB DUP2 ADD SWAP1 PUSH2 0x22F SWAP2 SWAP1 PUSH2 0x1BA1 JUMP JUMPDEST PUSH2 0x754 JUMP JUMPDEST PUSH1 0x40 MLOAD PUSH2 0x241 SWAP2 SWAP1 PUSH2 0x1BF9 JUMP JUMPDEST PUSH1 0x40 MLOAD DUP1 SWAP2 SUB SWAP1 RETURN JUMPDEST CALLVALUE DUP1 ISZERO PUSH2 0x255 JUMPI PUSH0 PUSH0 REVERT JUMPDEST POP PUSH2 0x25E PUSH2 0x776 JUMP JUMPDEST PUSH1 0x40 MLOAD PUSH2 0x26B SWAP2 SWAP1 PUSH2 0x1AFC JUMP JUMPDEST PUSH1 0x40 MLOAD DUP1 SWAP2 SUB SWAP1 RETURN JUMPDEST PUSH2 0x27C PUSH2 0x77F JUMP JUMPDEST STOP JUMPDEST CALLVALUE DUP1 ISZERO PUSH2 0x289 JUMPI PUSH0 PUSH0 REVERT JUMPDEST POP PUSH2 0x292 PUSH2 0xD11 JUMP JUMPDEST PUSH1 0x40 MLOAD PUSH2 0x29F SWAP2 SWAP1 PUSH2 0x1AFC JUMP JUMPDEST PUSH1 0x40 MLOAD DUP1 SWAP2 SUB SWAP1 RETURN JUMPDEST CALLVALUE DUP1 ISZERO PUSH2 0x2B3 JUMPI PUSH0 PUSH0 REVERT JUMPDEST POP PUSH2 0x2CE PUSH1 0x4 DUP1 CALLDATASIZE SUB DUP2 ADD SWAP1 PUSH2 0x2C9 SWAP2 SWAP1 PUSH2 0x1C73 JUMP JUMPDEST PUSH2 0xD27 JUMP JUMPDEST STOP JUMPDEST CALLVALUE DUP1 ISZERO PUSH2 0x2DB JUMPI PUSH0 PUSH0 REVERT JUMPDEST POP PUSH2 0x2F6 PUSH1 0x4 DUP1 CALLDATASIZE SUB DUP2 ADD SWAP1 PUSH2 0x2F1 SWAP2 SWAP1 PUSH2 0x1CD0 JUMP JUMPDEST PUSH2 0xDE9 JUMP JUMPDEST PUSH1 0x40 MLOAD PUSH2 0x303 SWAP2 SWAP1 PUSH2 0x1BF9 JUMP JUMPDEST PUSH1 0x40 MLOAD DUP1 SWAP2 SUB SWAP1 RETURN JUMPDEST CALLVALUE DUP1 ISZERO PUSH2 0x317 JUMPI PUSH0 PUSH0 REVERT JUMPDEST POP PUSH2 0x332 PUSH1 0x4 DUP1 CALLDATASIZE SUB DUP2 ADD SWAP1 PUSH2 0x32D SWAP2 SWAP1 PUSH2 0x1D20 JUMP JUMPDEST PUSH2 0xE17 JUMP JUMPDEST PUSH1 0x40 MLOAD PUSH2 0x33F SWAP2 SWAP1 PUSH2 0x1AFC JUMP JUMPDEST PUSH1 0x40 MLOAD DUP1 SWAP2 SUB SWAP1 RETURN JUMPDEST CALLVALUE DUP1 ISZERO PUSH2 0x353 JUMPI PUSH0 PUSH0 REVERT JUMPDEST POP PUSH2 0x35C PUSH2 0xE2C JUMP JUMPDEST PUSH1 0x40 MLOAD PUSH2 0x369 SWAP2 SWAP1 PUSH2 0x1D66 JUMP JUMPDEST PUSH1 0x40 MLOAD DUP1 SWAP2 SUB SWAP1 RETURN JUMPDEST CALLVALUE DUP1 ISZERO PUSH2 0x37D JUMPI PUSH0 PUSH0 REVERT JUMPDEST POP PUSH2 0x386 PUSH2 0xE34 JUMP JUMPDEST PUSH1 0x40 MLOAD PUSH2 0x393 SWAP2 SWAP1 PUSH2 0x1D9D JUMP JUMPDEST PUSH1 0x40 MLOAD DUP1 SWAP2 SUB SWAP1 RETURN JUMPDEST CALLVALUE DUP1 ISZERO PUSH2 0x3A7 JUMPI PUSH0 PUSH0 REVERT JUMPDEST POP PUSH2 0x3B0 PUSH2 0xE3B JUMP JUMPDEST PUSH1 0x40 MLOAD PUSH2 0x3BD SWAP2 SWAP1 PUSH2 0x1AFC JUMP JUMPDEST PUSH1 0x40 MLOAD DUP1 SWAP2 SUB SWAP1 RETURN JUMPDEST CALLVALUE DUP1 ISZERO PUSH2 0x3D1 JUMPI PUSH0 PUSH0 REVERT JUMPDEST POP PUSH2 0x3DA PUSH2 0xE41 JUMP JUMPDEST PUSH1 0x40 MLOAD PUSH2 0x3E7 SWAP2 SWAP1 PUSH2 0x1AFC JUMP JUMPDEST PUSH1 0x40 MLOAD DUP1 SWAP2 SUB SWAP1 RETURN JUMPDEST CALLVALUE DUP1 ISZERO PUSH2 0x3FB JUMPI PUSH0 PUSH0 REVERT JUMPDEST POP PUSH2 0x416 PUSH1 0x4 DUP1 CALLDATASIZE SUB DUP2 ADD SWAP1 PUSH2 0x411 SWAP2 SWAP1 PUSH2 0x1D20 JUMP JUMPDEST PUSH2 0xE4E JUMP JUMPDEST STOP JUMPDEST CALLVALUE DUP1 ISZERO PUSH2 0x423 JUMPI PUSH0 PUSH0 REVERT JUMPDEST POP PUSH2 0x42C PUSH2 0x103A JUMP JUMPDEST PUSH1 0x40 MLOAD PUSH2 0x439 SWAP2 SWAP1 PUSH2 0x1AFC JUMP JUMPDEST PUSH1 0x40 MLOAD DUP1 SWAP2 SUB SWAP1 RETURN JUMPDEST CALLVALUE DUP1 ISZERO PUSH2 0x44D JUMPI PUSH0 PUSH0 REVERT JUMPDEST POP PUSH2 0x456 PUSH2 0x103F JUMP JUMPDEST PUSH1 0x40 MLOAD PUSH2 0x463 SWAP2 SWAP1 PUSH2 0x1AFC JUMP JUMPDEST PUSH1 0x40 MLOAD DUP1 SWAP2 SUB SWAP1 RETURN JUMPDEST CALLVALUE DUP1 ISZERO PUSH2 0x477 JUMPI PUSH0 PUSH0 REVERT JUMPDEST POP PUSH2 0x480 PUSH2 0x1045 JUMP JUMPDEST PUSH1 0x40 MLOAD PUSH2 0x48D SWAP2 SWAP1 PUSH2 0x1AFC JUMP JUMPDEST PUSH1 0x40 MLOAD DUP1 SWAP2 SUB SWAP1 RETURN JUMPDEST CALLVALUE DUP1 ISZERO PUSH2 0x4A1 JUMPI PUSH0 PUSH0 REVERT JUMPDEST POP PUSH2 0x4AA PUSH2 0x104A JUMP JUMPDEST PUSH1 0x40 MLOAD PUSH2 0x4B7 SWAP2 SWAP1 PUSH2 0x1DC5 JUMP JUMPDEST PUSH1 0x40 MLOAD DUP1 SWAP2 SUB SWAP1 RETURN JUMPDEST CALLVALUE DUP1 ISZERO PUSH2 0x4CB JUMPI PUSH0 PUSH0 REVERT JUMPDEST POP PUSH2 0x4E6 PUSH1 0x4 DUP1 CALLDATASIZE SUB DUP2 ADD SWAP1 PUSH2 0x4E1 SWAP2 SWAP1 PUSH2 0x1DDE JUMP JUMPDEST PUSH2 0x106F JUMP JUMPDEST PUSH1 0x40 MLOAD PUSH2 0x4F3 SWAP2 SWAP1 PUSH2 0x1AFC JUMP JUMPDEST PUSH1 0x40 MLOAD DUP1 SWAP2 SUB SWAP1 RETURN JUMPDEST CALLVALUE DUP1 ISZERO PUSH2 0x507 JUMPI PUSH0 PUSH0 REVERT JUMPDEST POP PUSH2 0x510 PUSH2 0x10B4 JUMP JUMPDEST PUSH1 0x40 MLOAD PUSH2 0x51D SWAP2 SWAP1 PUSH2 0x1AFC JUMP JUMPDEST PUSH1 0x40 MLOAD DUP1 SWAP2 SUB SWAP1 RETURN JUMPDEST CALLVALUE DUP1 ISZERO PUSH2 0x531 JUMPI PUSH0 PUSH0 REVERT JUMPDEST POP PUSH2 0x53A PUSH2 0x10BA JUMP JUMPDEST PUSH1 0x40 MLOAD PUSH2 0x547 SWAP2 SWAP1 PUSH2 0x1AC4 JUMP JUMPDEST PUSH1 0x40 MLOAD DUP1 SWAP2 SUB SWAP1 RETURN JUMPDEST CALLVALUE DUP1 ISZERO PUSH2 0x55B JUMPI PUSH0 PUSH0 REVERT JUMPDEST POP PUSH2 0x564 PUSH2 0x114A JUMP JUMPDEST PUSH1 0x40 MLOAD PUSH2 0x571 SWAP2 SWAP1 PUSH2 0x1AFC JUMP JUMPDEST PUSH1 0x40 MLOAD DUP1 SWAP2 SUB SWAP1 RETURN JUMPDEST CALLVALUE DUP1 ISZERO PUSH2 0x585 JUMPI PUSH0 PUSH0 REVERT JUMPDEST POP PUSH2 0x5A0 PUSH1 0x4 DUP1 CALLDATASIZE SUB DUP2 ADD SWAP1 PUSH2 0x59B SWAP2 SWAP1 PUSH2 0x1E09 JUMP JUMPDEST PUSH2 0x1150 JUMP JUMPDEST PUSH1 0x40 MLOAD PUSH2 0x5AD SWAP2 SWAP1 PUSH2 0x1DC5 JUMP JUMPDEST PUSH1 0x40 MLOAD DUP1 SWAP2 SUB SWAP1 RETURN JUMPDEST CALLVALUE DUP1 ISZERO PUSH2 0x5C1 JUMPI PUSH0 PUSH0 REVERT JUMPDEST POP PUSH2 0x5DC PUSH1 0x4 DUP1 CALLDATASIZE SUB DUP2 ADD SWAP1 PUSH2 0x5D7 SWAP2 SWAP1 PUSH2 0x1BA1 JUMP JUMPDEST PUSH2 0x118D JUMP JUMPDEST PUSH1 0x40 MLOAD PUSH2 0x5E9 SWAP2 SWAP1 PUSH2 0x1BF9 JUMP JUMPDEST PUSH1 0x40 MLOAD DUP1 SWAP2 SUB SWAP1 RETURN JUMPDEST CALLVALUE DUP1 ISZERO PUSH2 0x5FD JUMPI PUSH0 PUSH0 REVERT JUMPDEST POP PUSH2 0x606 PUSH2 0x11AF JUMP JUMPDEST PUSH1 0x40 MLOAD PUSH2 0x613 SWAP2 SWAP1 PUSH2 0x1AFC JUMP JUMPDEST PUSH1 0x40 MLOAD DUP1 SWAP2 SUB SWAP1 RETURN JUMPDEST CALLVALUE DUP1 ISZERO PUSH2 0x627 JUMPI PUSH0 PUSH0 REVERT JUMPDEST POP PUSH2 0x630 PUSH2 0x11BB JUMP JUMPDEST PUSH1 0x40 MLOAD PUSH2 0x63D SWAP2 SWAP1 PUSH2 0x1AFC JUMP JUMPDEST PUSH1 0x40 MLOAD DUP1 SWAP2 SUB SWAP1 RETURN JUMPDEST CALLVALUE DUP1 ISZERO PUSH2 0x651 JUMPI PUSH0 PUSH0 REVERT JUMPDEST POP PUSH2 0x66C PUSH1 0x4 DUP1 CALLDATASIZE SUB DUP2 ADD SWAP1 PUSH2 0x667 SWAP2 SWAP1 PUSH2 0x1E47 JUMP JUMPDEST PUSH2 0x11C1 JUMP JUMPDEST PUSH1 0x40 MLOAD PUSH2 0x679 SWAP2 SWAP1 PUSH2 0x1AFC JUMP JUMPDEST PUSH1 0x40 MLOAD DUP1 SWAP2 SUB SWAP1 RETURN JUMPDEST CALLVALUE DUP1 ISZERO PUSH2 0x68D JUMPI PUSH0 PUSH0 REVERT JUMPDEST POP PUSH2 0x6A8 PUSH1 0x4 DUP1 CALLDATASIZE SUB DUP2 ADD SWAP1 PUSH2 0x6A3 SWAP2 SWAP1 PUSH2 0x1D20 JUMP JUMPDEST PUSH2 0x1243 JUMP JUMPDEST PUSH1 0x40 MLOAD PUSH2 0x6B5 SWAP2 SWAP1 PUSH2 0x1AFC JUMP JUMPDEST PUSH1 0x40 MLOAD DUP1 SWAP2 SUB SWAP1 RETURN JUMPDEST PUSH1 0x60 PUSH1 0x3 DUP1 SLOAD PUSH2 0x6CD SWAP1 PUSH2 0x1EB2 JUMP JUMPDEST DUP1 PUSH1 0x1F ADD PUSH1 0x20 DUP1 SWAP2 DIV MUL PUSH1 0x20 ADD PUSH1 0x40 MLOAD SWAP1 DUP2 ADD PUSH1 0x40 MSTORE DUP1 SWAP3 SWAP2 SWAP1 DUP2 DUP2 MSTORE PUSH1 0x20 ADD DUP3 DUP1 SLOAD PUSH2 0x6F9 SWAP1 PUSH2 0x1EB2 JUMP JUMPDEST DUP1 ISZERO PUSH2 0x744 JUMPI DUP1 PUSH1 0x1F LT PUSH2 0x71B JUMPI PUSH2 0x100 DUP1 DUP4 SLOAD DIV MUL DUP4 MSTORE SWAP2 PUSH1 0x20 ADD SWAP2 PUSH2 0x744 JUMP JUMPDEST DUP3 ADD SWAP2 SWAP1 PUSH0 MSTORE PUSH1 0x20 PUSH0 KECCAK256 SWAP1 JUMPDEST DUP2 SLOAD DUP2 MSTORE SWAP1 PUSH1 0x1 ADD SWAP1 PUSH1 0x20 ADD DUP1 DUP4 GT PUSH2 0x727 JUMPI DUP3 SWAP1 SUB PUSH1 0x1F AND DUP3 ADD SWAP2 JUMPDEST POP POP POP POP POP SWAP1 POP SWAP1 JUMP JUMPDEST PUSH1 0x6 SLOAD DUP2 JUMP JUMPDEST PUSH0 PUSH0 PUSH2 0x75E PUSH2 0x125D JUMP JUMPDEST SWAP1 POP PUSH2 0x76B DUP2 DUP6 DUP6 PUSH2 0x1264 JUMP JUMPDEST PUSH1 0x1 SWAP2 POP POP SWAP3 SWAP2 POP POP JUMP JUMPDEST PUSH0 PUSH1 0x2 SLOAD SWAP1 POP SWAP1 JUMP JUMPDEST PUSH8 0x16345785D8A0000 CALLVALUE LT ISZERO PUSH2 0x7C1 JUMPI PUSH1 0x40 MLOAD PUSH32 0x732F941300000000000000000000000000000000000000000000000000000000 DUP2 MSTORE PUSH1 0x4 ADD PUSH1 0x40 MLOAD DUP1 SWAP2 SUB SWAP1 REVERT JUMPDEST PUSH0 PUSH1 0x3C PUSH1 0x9 SLOAD PUSH2 0x7D1 SWAP2 SWAP1 PUSH2 0x1F0F JUMP JUMPDEST TIMESTAMP LT ISZERO SWAP1 POP PUSH0 PUSH0 PUSH1 0xC PUSH0 PUSH1 0x7 SLOAD DUP2 MSTORE PUSH1 0x20 ADD SWAP1 DUP2 MSTORE PUSH1 0x20 ADD PUSH0 KECCAK256 SLOAD GT SWAP1 POP DUP2 DUP1 ISZERO PUSH2 0x7F9 JUMPI POP DUP1 JUMPDEST ISZERO PUSH2 0xA84 JUMPI PUSH0 PUSH32 0x0 PUSH20 0xFFFFFFFFFFFFFFFFFFFFFFFFFFFFFFFFFFFFFFFF AND PUSH4 0xC66D3D18 PUSH3 0x30D40 PUSH1 0x40 MLOAD DUP3 PUSH4 0xFFFFFFFF AND PUSH1 0xE0 SHL DUP2 MSTORE PUSH1 0x4 ADD PUSH2 0x85B SWAP2 SWAP1 PUSH2 0x1F7B JUMP JUMPDEST PUSH1 0x20 PUSH1 0x40 MLOAD DUP1 DUP4 SUB DUP2 DUP7 GAS STATICCALL ISZERO DUP1 ISZERO PUSH2 0x876 JUMPI RETURNDATASIZE PUSH0 PUSH0 RETURNDATACOPY RETURNDATASIZE PUSH0 REVERT JUMPDEST POP POP POP POP PUSH1 0x40 MLOAD RETURNDATASIZE PUSH1 0x1F NOT PUSH1 0x1F DUP3 ADD AND DUP3 ADD DUP1 PUSH1 0x40 MSTORE POP DUP2 ADD SWAP1 PUSH2 0x89A SWAP2 SWAP1 PUSH2 0x1FA8 JUMP JUMPDEST SWAP1 POP DUP1 SELFBALANCE LT ISZERO PUSH2 0x8D6 JUMPI PUSH1 0x40 MLOAD PUSH32 0x786E0A9900000000000000000000000000000000000000000000000000000000 DUP2 MSTORE PUSH1 0x4 ADD PUSH1 0x40 MLOAD DUP1 SWAP2 SUB SWAP1 REVERT JUMPDEST PUSH0 PUSH1 0xC PUSH0 PUSH1 0x7 SLOAD DUP2 MSTORE PUSH1 0x20 ADD SWAP1 DUP2 MSTORE PUSH1 0x20 ADD PUSH0 KECCAK256 SLOAD SWAP1 POP PUSH0 PUSH1 0xE PUSH0 PUSH1 0x7 SLOAD DUP2 MSTORE PUSH1 0x20 ADD SWAP1 DUP2 MSTORE PUSH1 0x20 ADD PUSH0 KECCAK256 SLOAD SWAP1 POP PUSH0 DUP2 SUB PUSH2 0x911 JUMPI PUSH1 0x6 SLOAD SWAP1 POP JUMPDEST PUSH0 PUSH32 0x0 PUSH20 0xFFFFFFFFFFFFFFFFFFFFFFFFFFFFFFFFFFFFFFFF AND PUSH4 0xCB9BB27F DUP6 PUSH3 0x30D40 PUSH1 0x1 ADDRESS PUSH1 0x40 MLOAD DUP6 PUSH4 0xFFFFFFFF AND PUSH1 0xE0 SHL DUP2 MSTORE PUSH1 0x4 ADD PUSH2 0x974 SWAP4 SWAP3 SWAP2 SWAP1 PUSH2 0x200C JUMP JUMPDEST PUSH1 0x20 PUSH1 0x40 MLOAD DUP1 DUP4 SUB DUP2 DUP6 DUP9 GAS CALL ISZERO DUP1 ISZERO PUSH2 0x990 JUMPI RETURNDATASIZE PUSH0 PUSH0 RETURNDATACOPY RETURNDATASIZE PUSH0 REVERT JUMPDEST POP POP POP POP POP PUSH1 0x40 MLOAD RETURNDATASIZE PUSH1 0x1F NOT PUSH1 0x1F DUP3 ADD AND DUP3 ADD DUP1 PUSH1 0x40 MSTORE POP DUP2 ADD SWAP1 PUSH2 0x9B5 SWAP2 SWAP1 PUSH2 0x1FA8 JUMP JUMPDEST SWAP1 POP PUSH1 0x7 SLOAD PUSH1 0xD PUSH0 DUP4 DUP2 MSTORE PUSH1 0x20 ADD SWAP1 DUP2 MSTORE PUSH1 0x20 ADD PUSH0 KECCAK256 DUP2 SWAP1 SSTORE POP DUP2 PUSH1 0xE PUSH0 PUSH1 0x7 SLOAD DUP2 MSTORE PUSH1 0x20 ADD SWAP1 DUP2 MSTORE PUSH1 0x20 ADD PUSH0 KECCAK256 DUP2 SWAP1 SSTORE POP PUSH1 0x7 SLOAD DUP2 PUSH32 0xA77018CFA060263F92C58B53277F73D2EADE9D69E943460421E26E648EED9F33 DUP6 DUP6 PUSH1 0x40 MLOAD PUSH2 0xA1C SWAP3 SWAP2 SWAP1 PUSH2 0x2041 JUMP JUMPDEST PUSH1 0x40 MLOAD DUP1 SWAP2 SUB SWAP1 LOG3 PUSH2 0xC382 PUSH1 0x8 SLOAD PUSH2 0xA34 SWAP2 SWAP1 PUSH2 0x1F0F JUMP JUMPDEST PUSH1 0x7 SLOAD LT PUSH2 0xA5F JUMPI PUSH1 0x2 PUSH1 0x6 PUSH0 DUP3 DUP3 SLOAD PUSH2 0xA4E SWAP2 SWAP1 PUSH2 0x2095 JUMP JUMPDEST SWAP3 POP POP DUP2 SWAP1 SSTORE POP PUSH1 0x7 SLOAD PUSH1 0x8 DUP2 SWAP1 SSTORE POP JUMPDEST PUSH1 0x1 PUSH1 0x7 PUSH0 DUP3 DUP3 SLOAD PUSH2 0xA71 SWAP2 SWAP1 PUSH2 0x1F0F JUMP JUMPDEST SWAP3 POP POP DUP2 SWAP1 SSTORE POP TIMESTAMP PUSH1 0x9 DUP2 SWAP1 SSTORE POP POP POP POP POP JUMPDEST PUSH0 PUSH1 0xC PUSH0 PUSH1 0x7 SLOAD DUP2 MSTORE PUSH1 0x20 ADD SWAP1 DUP2 MSTORE PUSH1 0x20 ADD PUSH0 KECCAK256 SLOAD SWAP1 POP CALLER PUSH1 0xB PUSH0 PUSH1 0x7 SLOAD DUP2 MSTORE PUSH1 0x20 ADD SWAP1 DUP2 MSTORE PUSH1 0x20 ADD PUSH0 KECCAK256 PUSH0 DUP4 DUP2 MSTORE PUSH1 0x20 ADD SWAP1 DUP2 MSTORE PUSH1 0x20 ADD PUSH0 KECCAK256 PUSH0 PUSH2 0x100 EXP DUP2 SLOAD DUP2 PUSH20 0xFFFFFFFFFFFFFFFFFFFFFFFFFFFFFFFFFFFFFFFF MUL NOT AND SWAP1 DUP4 PUSH20 0xFFFFFFFFFFFFFFFFFFFFFFFFFFFFFFFFFFFFFFFF AND MUL OR SWAP1 SSTORE POP PUSH1 0x1 DUP2 PUSH2 0xB08 SWAP2 SWAP1 PUSH2 0x1F0F JUMP JUMPDEST PUSH1 0xC PUSH0 PUSH1 0x7 SLOAD DUP2 MSTORE PUSH1 0x20 ADD SWAP1 DUP2 MSTORE PUSH1 0x20 ADD PUSH0 KECCAK256 DUP2 SWAP1 SSTORE POP CALLER PUSH20 0xFFFFFFFFFFFFFFFFFFFFFFFFFFFFFFFFFFFFFFFF AND PUSH1 0x7 SLOAD PUSH32 0x66F19FB732C3E13893EA1BB5573839D7D0B41EFFC0AEF6B59283C15EA5A0DBF9 PUSH1 0x40 MLOAD PUSH1 0x40 MLOAD DUP1 SWAP2 SUB SWAP1 LOG3 PUSH0 PUSH1 0x64 PUSH1 0x5 PUSH8 0x16345785D8A0000 PUSH2 0xB7D SWAP2 SWAP1 PUSH2 0x20C5 JUMP JUMPDEST PUSH2 0xB87 SWAP2 SWAP1 PUSH2 0x2095 JUMP JUMPDEST SWAP1 POP PUSH0 PUSH1 0xA PUSH0 SWAP1 SLOAD SWAP1 PUSH2 0x100 EXP SWAP1 DIV PUSH20 0xFFFFFFFFFFFFFFFFFFFFFFFFFFFFFFFFFFFFFFFF AND PUSH20 0xFFFFFFFFFFFFFFFFFFFFFFFFFFFFFFFFFFFFFFFF AND DUP3 PUSH1 0x40 MLOAD PUSH2 0xBCF SWAP1 PUSH2 0x2133 JUMP JUMPDEST PUSH0 PUSH1 0x40 MLOAD DUP1 DUP4 SUB DUP2 DUP6 DUP8 GAS CALL SWAP3 POP POP POP RETURNDATASIZE DUP1 PUSH0 DUP2 EQ PUSH2 0xC09 JUMPI PUSH1 0x40 MLOAD SWAP2 POP PUSH1 0x1F NOT PUSH1 0x3F RETURNDATASIZE ADD AND DUP3 ADD PUSH1 0x40 MSTORE RETURNDATASIZE DUP3 MSTORE RETURNDATASIZE PUSH0 PUSH1 0x20 DUP5 ADD RETURNDATACOPY PUSH2 0xC0E JUMP JUMPDEST PUSH1 0x60 SWAP2 POP JUMPDEST POP POP SWAP1 POP DUP1 PUSH2 0xC49 JUMPI PUSH1 0x40 MLOAD PUSH32 0x4033E4E300000000000000000000000000000000000000000000000000000000 DUP2 MSTORE PUSH1 0x4 ADD PUSH1 0x40 MLOAD DUP1 SWAP2 SUB SWAP1 REVERT JUMPDEST PUSH0 PUSH8 0x16345785D8A0000 CALLVALUE PUSH2 0xC5E SWAP2 SWAP1 PUSH2 0x2147 JUMP JUMPDEST SWAP1 POP PUSH0 DUP2 GT ISZERO PUSH2 0xD09 JUMPI CALLER PUSH20 0xFFFFFFFFFFFFFFFFFFFFFFFFFFFFFFFFFFFFFFFF AND DUP2 PUSH1 0x40 MLOAD PUSH2 0xC8C SWAP1 PUSH2 0x2133 JUMP JUMPDEST PUSH0 PUSH1 0x40 MLOAD DUP1 DUP4 SUB DUP2 DUP6 DUP8 GAS CALL SWAP3 POP POP POP RETURNDATASIZE DUP1 PUSH0 DUP2 EQ PUSH2 0xCC6 JUMPI PUSH1 0x40 MLOAD SWAP2 POP PUSH1 0x1F NOT PUSH1 0x3F RETURNDATASIZE ADD AND DUP3 ADD PUSH1 0x40 MSTORE RETURNDATASIZE DUP3 MSTORE RETURNDATASIZE PUSH0 PUSH1 0x20 DUP5 ADD RETURNDATACOPY PUSH2 0xCCB JUMP JUMPDEST PUSH1 0x60 SWAP2 POP JUMPDEST POP POP DUP1 SWAP3 POP POP DUP2 PUSH2 0xD08 JUMPI PUSH1 0x40 MLOAD PUSH32 0xF0C49D4400000000000000000000000000000000000000000000000000000000 DUP2 MSTORE PUSH1 0x4 ADD PUSH1 0x40 MLOAD DUP1 SWAP2 SUB SWAP1 REVERT JUMPDEST JUMPDEST POP POP POP POP POP POP JUMP JUMPDEST PUSH0 PUSH2 0xC382 PUSH1 0x8 SLOAD PUSH2 0xD22 SWAP2 SWAP1 PUSH2 0x1F0F JUMP JUMPDEST SWAP1 POP SWAP1 JUMP JUMPDEST PUSH32 0x0 PUSH20 0xFFFFFFFFFFFFFFFFFFFFFFFFFFFFFFFFFFFFFFFF AND CALLER PUSH20 0xFFFFFFFFFFFFFFFFFFFFFFFFFFFFFFFFFFFFFFFF AND EQ PUSH2 0xDD9 JUMPI CALLER PUSH32 0x0 PUSH1 0x40 MLOAD PUSH32 0x20138A9F00000000000000000000000000000000000000000000000000000000 DUP2 MSTORE PUSH1 0x4 ADD PUSH2 0xDD0 SWAP3 SWAP2 SWAP1 PUSH2 0x217A JUMP JUMPDEST PUSH1 0x40 MLOAD DUP1 SWAP2 SUB SWAP1 REVERT JUMPDEST PUSH2 0xDE4 DUP4 DUP4 DUP4 PUSH2 0x1276 JUMP JUMPDEST POP POP POP JUMP JUMPDEST PUSH0 PUSH0 PUSH2 0xDF3 PUSH2 0x125D JUMP JUMPDEST SWAP1 POP PUSH2 0xE00 DUP6 DUP3 DUP6 PUSH2 0x13EB JUMP JUMPDEST PUSH2 0xE0B DUP6 DUP6 DUP6 PUSH2 0x147E JUMP JUMPDEST PUSH1 0x1 SWAP2 POP POP SWAP4 SWAP3 POP POP POP JUMP JUMPDEST PUSH1 0xC PUSH1 0x20 MSTORE DUP1 PUSH0 MSTORE PUSH1 0x40 PUSH0 KECCAK256 PUSH0 SWAP2 POP SWAP1 POP SLOAD DUP2 JUMP JUMPDEST PUSH0 PUSH1 0x12 SWAP1 POP SWAP1 JUMP JUMPDEST PUSH3 0x30D40 DUP2 JUMP JUMPDEST PUSH2 0xC382 DUP2 JUMP JUMPDEST PUSH9 0x241A9B4F617A280000 DUP2 JUMP JUMPDEST PUSH0 DUP2 SUB PUSH2 0xE87 JUMPI PUSH1 0x40 MLOAD PUSH32 0x98642B8600000000000000000000000000000000000000000000000000000000 DUP2 MSTORE PUSH1 0x4 ADD PUSH1 0x40 MLOAD DUP1 SWAP2 SUB SWAP1 REVERT JUMPDEST PUSH0 SELFBALANCE SWAP1 POP PUSH0 DUP2 SUB PUSH2 0xEC4 JUMPI PUSH1 0x40 MLOAD PUSH32 0x786E0A9900000000000000000000000000000000000000000000000000000000 DUP2 MSTORE PUSH1 0x4 ADD PUSH1 0x40 MLOAD DUP1 SWAP2 SUB SWAP1 REVERT JUMPDEST PUSH0 PUSH2 0xECD PUSH2 0x776 JUMP JUMPDEST SWAP1 POP PUSH0 DUP2 SUB PUSH2 0xF08 JUMPI PUSH1 0x40 MLOAD PUSH32 0x786E0A9900000000000000000000000000000000000000000000000000000000 DUP2 MSTORE PUSH1 0x4 ADD PUSH1 0x40 MLOAD DUP1 SWAP2 SUB SWAP1 REVERT JUMPDEST PUSH0 DUP2 DUP4 DUP6 PUSH2 0xF16 SWAP2 SWAP1 PUSH2 0x20C5 JUMP JUMPDEST PUSH2 0xF20 SWAP2 SWAP1 PUSH2 0x2095 JUMP JUMPDEST SWAP1 POP PUSH2 0xF2C CALLER DUP6 PUSH2 0x156E JUMP JUMPDEST DUP4 PUSH1 0x5 PUSH0 DUP3 DUP3 SLOAD PUSH2 0xF3D SWAP2 SWAP1 PUSH2 0x2147 JUMP JUMPDEST SWAP3 POP POP DUP2 SWAP1 SSTORE POP PUSH0 CALLER PUSH20 0xFFFFFFFFFFFFFFFFFFFFFFFFFFFFFFFFFFFFFFFF AND DUP3 PUSH1 0x40 MLOAD PUSH2 0xF69 SWAP1 PUSH2 0x2133 JUMP JUMPDEST PUSH0 PUSH1 0x40 MLOAD DUP1 DUP4 SUB DUP2 DUP6 DUP8 GAS CALL SWAP3 POP POP POP RETURNDATASIZE DUP1 PUSH0 DUP2 EQ PUSH2 0xFA3 JUMPI PUSH1 0x40 MLOAD SWAP2 POP PUSH1 0x1F NOT PUSH1 0x3F RETURNDATASIZE ADD AND DUP3 ADD PUSH1 0x40 MSTORE RETURNDATASIZE DUP3 MSTORE RETURNDATASIZE PUSH0 PUSH1 0x20 DUP5 ADD RETURNDATACOPY PUSH2 0xFA8 JUMP JUMPDEST PUSH1 0x60 SWAP2 POP JUMPDEST POP POP SWAP1 POP DUP1 PUSH2 0xFE3 JUMPI PUSH1 0x40 MLOAD PUSH32 0x90B8EC1800000000000000000000000000000000000000000000000000000000 DUP2 MSTORE PUSH1 0x4 ADD PUSH1 0x40 MLOAD DUP1 SWAP2 SUB SWAP1 REVERT JUMPDEST CALLER PUSH20 0xFFFFFFFFFFFFFFFFFFFFFFFFFFFFFFFFFFFFFFFF AND PUSH32 0x23FF0E75EDF108E3D0392D92E13E8C8A868EF19001BD49F9E94876DC46DFF87F DUP7 DUP5 PUSH1 0x40 MLOAD PUSH2 0x102B SWAP3 SWAP2 SWAP1 PUSH2 0x2041 JUMP JUMPDEST PUSH1 0x40 MLOAD DUP1 SWAP2 SUB SWAP1 LOG2 POP POP POP POP POP JUMP JUMPDEST PUSH1 0x5 DUP2 JUMP JUMPDEST PUSH1 0x9 SLOAD DUP2 JUMP JUMPDEST PUSH1 0x3C DUP2 JUMP JUMPDEST PUSH1 0xA PUSH0 SWAP1 SLOAD SWAP1 PUSH2 0x100 EXP SWAP1 DIV PUSH20 0xFFFFFFFFFFFFFFFFFFFFFFFFFFFFFFFFFFFFFFFF AND DUP2 JUMP JUMPDEST PUSH0 PUSH0 PUSH0 DUP4 PUSH20 0xFFFFFFFFFFFFFFFFFFFFFFFFFFFFFFFFFFFFFFFF AND PUSH20 0xFFFFFFFFFFFFFFFFFFFFFFFFFFFFFFFFFFFFFFFF AND DUP2 MSTORE PUSH1 0x20 ADD SWAP1 DUP2 MSTORE PUSH1 0x20 ADD PUSH0 KECCAK256 SLOAD SWAP1 POP SWAP2 SWAP1 POP JUMP JUMPDEST PUSH1 0x7 SLOAD DUP2 JUMP JUMPDEST PUSH1 0x60 PUSH1 0x4 DUP1 SLOAD PUSH2 0x10C9 SWAP1 PUSH2 0x1EB2 JUMP JUMPDEST DUP1 PUSH1 0x1F ADD PUSH1 0x20 DUP1 SWAP2 DIV MUL PUSH1 0x20 ADD PUSH1 0x40 MLOAD SWAP1 DUP2 ADD PUSH1 0x40 MSTORE DUP1 SWAP3 SWAP2 SWAP1 DUP2 DUP2 MSTORE PUSH1 0x20 ADD DUP3 DUP1 SLOAD PUSH2 0x10F5 SWAP1 PUSH2 0x1EB2 JUMP JUMPDEST DUP1 ISZERO PUSH2 0x1140 JUMPI DUP1 PUSH1 0x1F LT PUSH2 0x1117 JUMPI PUSH2 0x100 DUP1 DUP4 SLOAD DIV MUL DUP4 MSTORE SWAP2 PUSH1 0x20 ADD SWAP2 PUSH2 0x1140 JUMP JUMPDEST DUP3 ADD SWAP2 SWAP1 PUSH0 MSTORE PUSH1 0x20 PUSH0 KECCAK256 SWAP1 JUMPDEST DUP2 SLOAD DUP2 MSTORE SWAP1 PUSH1 0x1 ADD SWAP1 PUSH1 0x20 ADD DUP1 DUP4 GT PUSH2 0x1123 JUMPI DUP3 SWAP1 SUB PUSH1 0x1F AND DUP3 ADD SWAP2 JUMPDEST POP POP POP POP POP SWAP1 POP SWAP1 JUMP JUMPDEST PUSH1 0x8 SLOAD DUP2 JUMP JUMPDEST PUSH1 0xB PUSH1 0x20 MSTORE DUP2 PUSH0 MSTORE PUSH1 0x40 PUSH0 KECCAK256 PUSH1 0x20 MSTORE DUP1 PUSH0 MSTORE PUSH1 0x40 PUSH0 KECCAK256 PUSH0 SWAP2 POP SWAP2 POP SWAP1 SLOAD SWAP1 PUSH2 0x100 EXP SWAP1 DIV PUSH20 0xFFFFFFFFFFFFFFFFFFFFFFFFFFFFFFFFFFFFFFFF AND DUP2 JUMP JUMPDEST PUSH0 PUSH0 PUSH2 0x1197 PUSH2 0x125D JUMP JUMPDEST SWAP1 POP PUSH2 0x11A4 DUP2 DUP6 DUP6 PUSH2 0x147E JUMP JUMPDEST PUSH1 0x1 SWAP2 POP POP SWAP3 SWAP2 POP POP JUMP JUMPDEST PUSH8 0x16345785D8A0000 DUP2 JUMP JUMPDEST PUSH1 0x5 SLOAD DUP2 JUMP JUMPDEST PUSH0 PUSH1 0x1 PUSH0 DUP5 PUSH20 0xFFFFFFFFFFFFFFFFFFFFFFFFFFFFFFFFFFFFFFFF AND PUSH20 0xFFFFFFFFFFFFFFFFFFFFFFFFFFFFFFFFFFFFFFFF AND DUP2 MSTORE PUSH1 0x20 ADD SWAP1 DUP2 MSTORE PUSH1 0x20 ADD PUSH0 KECCAK256 PUSH0 DUP4 PUSH20 0xFFFFFFFFFFFFFFFFFFFFFFFFFFFFFFFFFFFFFFFF AND PUSH20 0xFFFFFFFFFFFFFFFFFFFFFFFFFFFFFFFFFFFFFFFF AND DUP2 MSTORE PUSH1 0x20 ADD SWAP1 DUP2 MSTORE PUSH1 0x20 ADD PUSH0 KECCAK256 SLOAD SWAP1 POP SWAP3 SWAP2 POP POP JUMP JUMPDEST PUSH0 PUSH1 0xC PUSH0 DUP4 DUP2 MSTORE PUSH1 0x20 ADD SWAP1 DUP2 MSTORE PUSH1 0x20 ADD PUSH0 KECCAK256 SLOAD SWAP1 POP SWAP2 SWAP1 POP JUMP JUMPDEST PUSH0 CALLER SWAP1 POP SWAP1 JUMP JUMPDEST PUSH2 0x1271 DUP4 DUP4 DUP4 PUSH1 0x1 PUSH2 0x15ED JUMP JUMPDEST POP POP POP JUMP JUMPDEST PUSH0 PUSH1 0xD PUSH0 DUP6 DUP2 MSTORE PUSH1 0x20 ADD SWAP1 DUP2 MSTORE PUSH1 0x20 ADD PUSH0 KECCAK256 SLOAD SWAP1 POP PUSH1 0xD PUSH0 DUP6 DUP2 MSTORE PUSH1 0x20 ADD SWAP1 DUP2 MSTORE PUSH1 0x20 ADD PUSH0 KECCAK256 PUSH0 SWAP1 SSTORE PUSH0 PUSH1 0xC PUSH0 DUP4 DUP2 MSTORE PUSH1 0x20 ADD SWAP1 DUP2 MSTORE PUSH1 0x20 ADD PUSH0 KECCAK256 SLOAD SWAP1 POP PUSH0 DUP2 GT ISZERO PUSH2 0x13E4 JUMPI PUSH0 DUP2 DUP6 DUP6 PUSH0 DUP2 DUP2 LT PUSH2 0x12D1 JUMPI PUSH2 0x12D0 PUSH2 0x21A1 JUMP JUMPDEST JUMPDEST SWAP1 POP PUSH1 0x20 MUL ADD CALLDATALOAD PUSH2 0x12E2 SWAP2 SWAP1 PUSH2 0x21CE JUMP JUMPDEST SWAP1 POP PUSH0 PUSH1 0xB PUSH0 DUP6 DUP2 MSTORE PUSH1 0x20 ADD SWAP1 DUP2 MSTORE PUSH1 0x20 ADD PUSH0 KECCAK256 PUSH0 DUP4 DUP2 MSTORE PUSH1 0x20 ADD SWAP1 DUP2 MSTORE PUSH1 0x20 ADD PUSH0 KECCAK256 PUSH0 SWAP1 SLOAD SWAP1 PUSH2 0x100 EXP SWAP1 DIV PUSH20 0xFFFFFFFFFFFFFFFFFFFFFFFFFFFFFFFFFFFFFFFF AND SWAP1 POP PUSH0 PUSH1 0xE PUSH0 DUP7 DUP2 MSTORE PUSH1 0x20 ADD SWAP1 DUP2 MSTORE PUSH1 0x20 ADD PUSH0 KECCAK256 SLOAD SWAP1 POP PUSH0 DUP2 SUB PUSH2 0x1349 JUMPI PUSH1 0x6 SLOAD SWAP1 POP JUMPDEST PUSH1 0x5 SLOAD DUP2 PUSH2 0x1355 PUSH2 0x776 JUMP JUMPDEST PUSH2 0x135F SWAP2 SWAP1 PUSH2 0x1F0F JUMP JUMPDEST GT ISZERO PUSH2 0x137D JUMPI PUSH2 0x136D PUSH2 0x776 JUMP JUMPDEST PUSH1 0x5 SLOAD PUSH2 0x137A SWAP2 SWAP1 PUSH2 0x2147 JUMP JUMPDEST SWAP1 POP JUMPDEST PUSH0 DUP2 GT ISZERO PUSH2 0x13E0 JUMPI PUSH2 0x138F DUP3 DUP3 PUSH2 0x17BC JUMP JUMPDEST DUP2 PUSH20 0xFFFFFFFFFFFFFFFFFFFFFFFFFFFFFFFFFFFFFFFF AND DUP6 DUP10 PUSH32 0xDD7933A060407298571FE36223F480EE3508053FDB7238A1FE246F52B62C8E73 DUP5 PUSH1 0x40 MLOAD PUSH2 0x13D7 SWAP2 SWAP1 PUSH2 0x1AFC JUMP JUMPDEST PUSH1 0x40 MLOAD DUP1 SWAP2 SUB SWAP1 LOG4 JUMPDEST POP POP POP JUMPDEST POP POP POP POP POP JUMP JUMPDEST PUSH0 PUSH2 0x13F6 DUP5 DUP5 PUSH2 0x11C1 JUMP JUMPDEST SWAP1 POP PUSH32 0xFFFFFFFFFFFFFFFFFFFFFFFFFFFFFFFFFFFFFFFFFFFFFFFFFFFFFFFFFFFFFFFF DUP2 LT ISZERO PUSH2 0x1478 JUMPI DUP2 DUP2 LT ISZERO PUSH2 0x1469 JUMPI DUP3 DUP2 DUP4 PUSH1 0x40 MLOAD PUSH32 0xFB8F41B200000000000000000000000000000000000000000000000000000000 DUP2 MSTORE PUSH1 0x4 ADD PUSH2 0x1460 SWAP4 SWAP3 SWAP2 SWAP1 PUSH2 0x21FE JUMP JUMPDEST PUSH1 0x40 MLOAD DUP1 SWAP2 SUB SWAP1 REVERT JUMPDEST PUSH2 0x1477 DUP5 DUP5 DUP5 DUP5 SUB PUSH0 PUSH2 0x15ED JUMP JUMPDEST JUMPDEST POP POP POP POP JUMP JUMPDEST PUSH0 PUSH20 0xFFFFFFFFFFFFFFFFFFFFFFFFFFFFFFFFFFFFFFFF AND DUP4 PUSH20 0xFFFFFFFFFFFFFFFFFFFFFFFFFFFFFFFFFFFFFFFF AND SUB PUSH2 0x14EE JUMPI PUSH0 PUSH1 0x40 MLOAD PUSH32 0x96C6FD1E00000000000000000000000000000000000000000000000000000000 DUP2 MSTORE PUSH1 0x4 ADD PUSH2 0x14E5 SWAP2 SWAP1 PUSH2 0x1DC5 JUMP JUMPDEST PUSH1 0x40 MLOAD DUP1 SWAP2 SUB SWAP1 REVERT JUMPDEST PUSH0 PUSH20 0xFFFFFFFFFFFFFFFFFFFFFFFFFFFFFFFFFFFFFFFF AND DUP3 PUSH20 0xFFFFFFFFFFFFFFFFFFFFFFFFFFFFFFFFFFFFFFFF AND SUB PUSH2 0x155E JUMPI PUSH0 PUSH1 0x40 MLOAD PUSH32 0xEC442F0500000000000000000000000000000000000000000000000000000000 DUP2 MSTORE PUSH1 0x4 ADD PUSH2 0x1555 SWAP2 SWAP1 PUSH2 0x1DC5 JUMP JUMPDEST PUSH1 0x40 MLOAD DUP1 SWAP2 SUB SWAP1 REVERT JUMPDEST PUSH2 0x1569 DUP4 DUP4 DUP4 PUSH2 0x183B JUMP JUMPDEST POP POP POP JUMP JUMPDEST PUSH0 PUSH20 0xFFFFFFFFFFFFFFFFFFFFFFFFFFFFFFFFFFFFFFFF AND DUP3 PUSH20 0xFFFFFFFFFFFFFFFFFFFFFFFFFFFFFFFFFFFFFFFF AND SUB PUSH2 0x15DE JUMPI PUSH0 PUSH1 0x40 MLOAD PUSH32 0x96C6FD1E00000000000000000000000000000000000000000000000000000000 DUP2 MSTORE PUSH1 0x4 ADD PUSH2 0x15D5 SWAP2 SWAP1 PUSH2 0x1DC5 JUMP JUMPDEST PUSH1 0x40 MLOAD DUP1 SWAP2 SUB SWAP1 REVERT JUMPDEST PUSH2 0x15E9 DUP3 PUSH0 DUP4 PUSH2 0x183B JUMP JUMPDEST POP POP JUMP JUMPDEST PUSH0 PUSH20 0xFFFFFFFFFFFFFFFFFFFFFFFFFFFFFFFFFFFFFFFF AND DUP5 PUSH20 0xFFFFFFFFFFFFFFFFFFFFFFFFFFFFFFFFFFFFFFFF AND SUB PUSH2 0x165D JUMPI PUSH0 PUSH1 0x40 MLOAD PUSH32 0xE602DF0500000000000000000000000000000000000000000000000000000000 DUP2 MSTORE PUSH1 0x4 ADD PUSH2 0x1654 SWAP2 SWAP1 PUSH2 0x1DC5 JUMP JUMPDEST PUSH1 0x40 MLOAD DUP1 SWAP2 SUB SWAP1 REVERT JUMPDEST PUSH0 PUSH20 0xFFFFFFFFFFFFFFFFFFFFFFFFFFFFFFFFFFFFFFFF AND DUP4 PUSH20 0xFFFFFFFFFFFFFFFFFFFFFFFFFFFFFFFFFFFFFFFF AND SUB PUSH2 0x16CD JUMPI PUSH0 PUSH1 0x40 MLOAD PUSH32 0x94280D6200000000000000000000000000000000000000000000000000000000 DUP2 MSTORE PUSH1 0x4 ADD PUSH2 0x16C4 SWAP2 SWAP1 PUSH2 0x1DC5 JUMP JUMPDEST PUSH1 0x40 MLOAD DUP1 SWAP2 SUB SWAP1 REVERT JUMPDEST DUP2 PUSH1 0x1 PUSH0 DUP7 PUSH20 0xFFFFFFFFFFFFFFFFFFFFFFFFFFFFFFFFFFFFFFFF AND PUSH20 0xFFFFFFFFFFFFFFFFFFFFFFFFFFFFFFFFFFFFFFFF AND DUP2 MSTORE PUSH1 0x20 ADD SWAP1 DUP2 MSTORE PUSH1 0x20 ADD PUSH0 KECCAK256 PUSH0 DUP6 PUSH20 0xFFFFFFFFFFFFFFFFFFFFFFFFFFFFFFFFFFFFFFFF AND PUSH20 0xFFFFFFFFFFFFFFFFFFFFFFFFFFFFFFFFFFFFFFFF AND DUP2 MSTORE PUSH1 0x20 ADD SWAP1 DUP2 MSTORE PUSH1 0x20 ADD PUSH0 KECCAK256 DUP2 SWAP1 SSTORE POP DUP1 ISZERO PUSH2 0x17B6 JUMPI DUP3 PUSH20 0xFFFFFFFFFFFFFFFFFFFFFFFFFFFFFFFFFFFFFFFF AND DUP5 PUSH20 0xFFFFFFFFFFFFFFFFFFFFFFFFFFFFFFFFFFFFFFFF AND PUSH32 0x8C5BE1E5EBEC7D5BD14F71427D1E84F3DD0314C0F7B2291E5B200AC8C7C3B925 DUP5 PUSH1 0x40 MLOAD PUSH2 0x17AD SWAP2 SWAP1 PUSH2 0x1AFC JUMP JUMPDEST PUSH1 0x40 MLOAD DUP1 SWAP2 SUB SWAP1 LOG3 JUMPDEST POP POP POP POP JUMP JUMPDEST PUSH0 PUSH20 0xFFFFFFFFFFFFFFFFFFFFFFFFFFFFFFFFFFFFFFFF AND DUP3 PUSH20 0xFFFFFFFFFFFFFFFFFFFFFFFFFFFFFFFFFFFFFFFF AND SUB PUSH2 0x182C JUMPI PUSH0 PUSH1 0x40 MLOAD PUSH32 0xEC442F0500000000000000000000000000000000000000000000000000000000 DUP2 MSTORE PUSH1 0x4 ADD PUSH2 0x1823 SWAP2 SWAP1 PUSH2 0x1DC5 JUMP JUMPDEST PUSH1 0x40 MLOAD DUP1 SWAP2 SUB SWAP1 REVERT JUMPDEST PUSH2 0x1837 PUSH0 DUP4 DUP4 PUSH2 0x183B JUMP JUMPDEST POP POP JUMP JUMPDEST PUSH0 PUSH20 0xFFFFFFFFFFFFFFFFFFFFFFFFFFFFFFFFFFFFFFFF AND DUP4 PUSH20 0xFFFFFFFFFFFFFFFFFFFFFFFFFFFFFFFFFFFFFFFF AND SUB PUSH2 0x188B JUMPI DUP1 PUSH1 0x2 PUSH0 DUP3 DUP3 SLOAD PUSH2 0x187F SWAP2 SWAP1 PUSH2 0x1F0F JUMP JUMPDEST SWAP3 POP POP DUP2 SWAP1 SSTORE POP PUSH2 0x1959 JUMP JUMPDEST PUSH0 PUSH0 PUSH0 DUP6 PUSH20 0xFFFFFFFFFFFFFFFFFFFFFFFFFFFFFFFFFFFFFFFF AND PUSH20 0xFFFFFFFFFFFFFFFFFFFFFFFFFFFFFFFFFFFFFFFF AND DUP2 MSTORE PUSH1 0x20 ADD SWAP1 DUP2 MSTORE PUSH1 0x20 ADD PUSH0 KECCAK256 SLOAD SWAP1 POP DUP2 DUP2 LT ISZERO PUSH2 0x1914 JUMPI DUP4 DUP2 DUP4 PUSH1 0x40 MLOAD PUSH32 0xE450D38C00000000000000000000000000000000000000000000000000000000 DUP2 MSTORE PUSH1 0x4 ADD PUSH2 0x190B SWAP4 SWAP3 SWAP2 SWAP1 PUSH2 0x21FE JUMP JUMPDEST PUSH1 0x40 MLOAD DUP1 SWAP2 SUB SWAP1 REVERT JUMPDEST DUP2 DUP2 SUB PUSH0 PUSH0 DUP7 PUSH20 0xFFFFFFFFFFFFFFFFFFFFFFFFFFFFFFFFFFFFFFFF AND PUSH20 0xFFFFFFFFFFFFFFFFFFFFFFFFFFFFFFFFFFFFFFFF AND DUP2 MSTORE PUSH1 0x20 ADD SWAP1 DUP2 MSTORE PUSH1 0x20 ADD PUSH0 KECCAK256 DUP2 SWAP1 SSTORE POP POP JUMPDEST PUSH0 PUSH20 0xFFFFFFFFFFFFFFFFFFFFFFFFFFFFFFFFFFFFFFFF AND DUP3 PUSH20 0xFFFFFFFFFFFFFFFFFFFFFFFFFFFFFFFFFFFFFFFF AND SUB PUSH2 0x19A0 JUMPI DUP1 PUSH1 0x2 PUSH0 DUP3 DUP3 SLOAD SUB SWAP3 POP POP DUP2 SWAP1 SSTORE POP PUSH2 0x19EA JUMP JUMPDEST DUP1 PUSH0 PUSH0 DUP5 PUSH20 0xFFFFFFFFFFFFFFFFFFFFFFFFFFFFFFFFFFFFFFFF AND PUSH20 0xFFFFFFFFFFFFFFFFFFFFFFFFFFFFFFFFFFFFFFFF AND DUP2 MSTORE PUSH1 0x20 ADD SWAP1 DUP2 MSTORE PUSH1 0x20 ADD PUSH0 KECCAK256 PUSH0 DUP3 DUP3 SLOAD ADD SWAP3 POP POP DUP2 SWAP1 SSTORE POP JUMPDEST DUP2 PUSH20 0xFFFFFFFFFFFFFFFFFFFFFFFFFFFFFFFFFFFFFFFF AND DUP4 PUSH20 0xFFFFFFFFFFFFFFFFFFFFFFFFFFFFFFFFFFFFFFFF AND PUSH32 0xDDF252AD1BE2C89B69C2B068FC378DAA952BA7F163C4A11628F55A4DF523B3EF DUP4 PUSH1 0x40 MLOAD PUSH2 0x1A47 SWAP2 SWAP1 PUSH2 0x1AFC JUMP JUMPDEST PUSH1 0x40 MLOAD DUP1 SWAP2 SUB SWAP1 LOG3 POP POP POP JUMP JUMPDEST PUSH0 DUP2 MLOAD SWAP1 POP SWAP2 SWAP1 POP JUMP JUMPDEST PUSH0 DUP3 DUP3 MSTORE PUSH1 0x20 DUP3 ADD SWAP1 POP SWAP3 SWAP2 POP POP JUMP JUMPDEST DUP3 DUP2 DUP4 MCOPY PUSH0 DUP4 DUP4 ADD MSTORE POP POP POP JUMP JUMPDEST PUSH0 PUSH1 0x1F NOT PUSH1 0x1F DUP4 ADD AND SWAP1 POP SWAP2 SWAP1 POP JUMP JUMPDEST PUSH0 PUSH2 0x1A96 DUP3 PUSH2 0x1A54 JUMP JUMPDEST PUSH2 0x1AA0 DUP2 DUP6 PUSH2 0x1A5E JUMP JUMPDEST SWAP4 POP PUSH2 0x1AB0 DUP2 DUP6 PUSH1 0x20 DUP7 ADD PUSH2 0x1A6E JUMP JUMPDEST PUSH2 0x1AB9 DUP2 PUSH2 0x1A7C JUMP JUMPDEST DUP5 ADD SWAP2 POP POP SWAP3 SWAP2 POP POP JUMP JUMPDEST PUSH0 PUSH1 0x20 DUP3 ADD SWAP1 POP DUP2 DUP2 SUB PUSH0 DUP4 ADD MSTORE PUSH2 0x1ADC DUP2 DUP5 PUSH2 0x1A8C JUMP JUMPDEST SWAP1 POP SWAP3 SWAP2 POP POP JUMP JUMPDEST PUSH0 DUP2 SWAP1 POP SWAP2 SWAP1 POP JUMP JUMPDEST PUSH2 0x1AF6 DUP2 PUSH2 0x1AE4 JUMP JUMPDEST DUP3 MSTORE POP POP JUMP JUMPDEST PUSH0 PUSH1 0x20 DUP3 ADD SWAP1 POP PUSH2 0x1B0F PUSH0 DUP4 ADD DUP5 PUSH2 0x1AED JUMP JUMPDEST SWAP3 SWAP2 POP POP JUMP JUMPDEST PUSH0 PUSH0 REVERT JUMPDEST PUSH0 PUSH0 REVERT JUMPDEST PUSH0 PUSH20 0xFFFFFFFFFFFFFFFFFFFFFFFFFFFFFFFFFFFFFFFF DUP3 AND SWAP1 POP SWAP2 SWAP1 POP JUMP JUMPDEST PUSH0 PUSH2 0x1B46 DUP3 PUSH2 0x1B1D JUMP JUMPDEST SWAP1 POP SWAP2 SWAP1 POP JUMP JUMPDEST PUSH2 0x1B56 DUP2 PUSH2 0x1B3C JUMP JUMPDEST DUP2 EQ PUSH2 0x1B60 JUMPI PUSH0 PUSH0 REVERT JUMPDEST POP JUMP JUMPDEST PUSH0 DUP2 CALLDATALOAD SWAP1 POP PUSH2 0x1B71 DUP2 PUSH2 0x1B4D JUMP JUMPDEST SWAP3 SWAP2 POP POP JUMP JUMPDEST PUSH2 0x1B80 DUP2 PUSH2 0x1AE4 JUMP JUMPDEST DUP2 EQ PUSH2 0x1B8A JUMPI PUSH0 PUSH0 REVERT JUMPDEST POP JUMP JUMPDEST PUSH0 DUP2 CALLDATALOAD SWAP1 POP PUSH2 0x1B9B DUP2 PUSH2 0x1B77 JUMP JUMPDEST SWAP3 SWAP2 POP POP JUMP JUMPDEST PUSH0 PUSH0 PUSH1 0x40 DUP4 DUP6 SUB SLT ISZERO PUSH2 0x1BB7 JUMPI PUSH2 0x1BB6 PUSH2 0x1B15 JUMP JUMPDEST JUMPDEST PUSH0 PUSH2 0x1BC4 DUP6 DUP3 DUP7 ADD PUSH2 0x1B63 JUMP JUMPDEST SWAP3 POP POP PUSH1 0x20 PUSH2 0x1BD5 DUP6 DUP3 DUP7 ADD PUSH2 0x1B8D JUMP JUMPDEST SWAP2 POP POP SWAP3 POP SWAP3 SWAP1 POP JUMP JUMPDEST PUSH0 DUP2 ISZERO ISZERO SWAP1 POP SWAP2 SWAP1 POP JUMP JUMPDEST PUSH2 0x1BF3 DUP2 PUSH2 0x1BDF JUMP JUMPDEST DUP3 MSTORE POP POP JUMP JUMPDEST PUSH0 PUSH1 0x20 DUP3 ADD SWAP1 POP PUSH2 0x1C0C PUSH0 DUP4 ADD DUP5 PUSH2 0x1BEA JUMP JUMPDEST SWAP3 SWAP2 POP POP JUMP JUMPDEST PUSH0 PUSH0 REVERT JUMPDEST PUSH0 PUSH0 REVERT JUMPDEST PUSH0 PUSH0 REVERT JUMPDEST PUSH0 PUSH0 DUP4 PUSH1 0x1F DUP5 ADD SLT PUSH2 0x1C33 JUMPI PUSH2 0x1C32 PUSH2 0x1C12 JUMP JUMPDEST JUMPDEST DUP3 CALLDATALOAD SWAP1 POP PUSH8 0xFFFFFFFFFFFFFFFF DUP2 GT ISZERO PUSH2 0x1C50 JUMPI PUSH2 0x1C4F PUSH2 0x1C16 JUMP JUMPDEST JUMPDEST PUSH1 0x20 DUP4 ADD SWAP2 POP DUP4 PUSH1 0x20 DUP3 MUL DUP4 ADD GT ISZERO PUSH2 0x1C6C JUMPI PUSH2 0x1C6B PUSH2 0x1C1A JUMP JUMPDEST JUMPDEST SWAP3 POP SWAP3 SWAP1 POP JUMP JUMPDEST PUSH0 PUSH0 PUSH0 PUSH1 0x40 DUP5 DUP7 SUB SLT ISZERO PUSH2 0x1C8A JUMPI PUSH2 0x1C89 PUSH2 0x1B15 JUMP JUMPDEST JUMPDEST PUSH0 PUSH2 0x1C97 DUP7 DUP3 DUP8 ADD PUSH2 0x1B8D JUMP JUMPDEST SWAP4 POP POP PUSH1 0x20 DUP5 ADD CALLDATALOAD PUSH8 0xFFFFFFFFFFFFFFFF DUP2 GT ISZERO PUSH2 0x1CB8 JUMPI PUSH2 0x1CB7 PUSH2 0x1B19 JUMP JUMPDEST JUMPDEST PUSH2 0x1CC4 DUP7 DUP3 DUP8 ADD PUSH2 0x1C1E JUMP JUMPDEST SWAP3 POP SWAP3 POP POP SWAP3 POP SWAP3 POP SWAP3 JUMP JUMPDEST PUSH0 PUSH0 PUSH0 PUSH1 0x60 DUP5 DUP7 SUB SLT ISZERO PUSH2 0x1CE7 JUMPI PUSH2 0x1CE6 PUSH2 0x1B15 JUMP JUMPDEST JUMPDEST PUSH0 PUSH2 0x1CF4 DUP7 DUP3 DUP8 ADD PUSH2 0x1B63 JUMP JUMPDEST SWAP4 POP POP PUSH1 0x20 PUSH2 0x1D05 DUP7 DUP3 DUP8 ADD PUSH2 0x1B63 JUMP JUMPDEST SWAP3 POP POP PUSH1 0x40 PUSH2 0x1D16 DUP7 DUP3 DUP8 ADD PUSH2 0x1B8D JUMP JUMPDEST SWAP2 POP POP SWAP3 POP SWAP3 POP SWAP3 JUMP JUMPDEST PUSH0 PUSH1 0x20 DUP3 DUP5 SUB SLT ISZERO PUSH2 0x1D35 JUMPI PUSH2 0x1D34 PUSH2 0x1B15 JUMP JUMPDEST JUMPDEST PUSH0 PUSH2 0x1D42 DUP5 DUP3 DUP6 ADD PUSH2 0x1B8D JUMP JUMPDEST SWAP2 POP POP SWAP3 SWAP2 POP POP JUMP JUMPDEST PUSH0 PUSH1 0xFF DUP3 AND SWAP1 POP SWAP2 SWAP1 POP JUMP JUMPDEST PUSH2 0x1D60 DUP2 PUSH2 0x1D4B JUMP JUMPDEST DUP3 MSTORE POP POP JUMP JUMPDEST PUSH0 PUSH1 0x20 DUP3 ADD SWAP1 POP PUSH2 0x1D79 PUSH0 DUP4 ADD DUP5 PUSH2 0x1D57 JUMP JUMPDEST SWAP3 SWAP2 POP POP JUMP JUMPDEST PUSH0 PUSH4 0xFFFFFFFF DUP3 AND SWAP1 POP SWAP2 SWAP1 POP JUMP JUMPDEST PUSH2 0x1D97 DUP2 PUSH2 0x1D7F JUMP JUMPDEST DUP3 MSTORE POP POP JUMP JUMPDEST PUSH0 PUSH1 0x20 DUP3 ADD SWAP1 POP PUSH2 0x1DB0 PUSH0 DUP4 ADD DUP5 PUSH2 0x1D8E JUMP JUMPDEST SWAP3 SWAP2 POP POP JUMP JUMPDEST PUSH2 0x1DBF DUP2 PUSH2 0x1B3C JUMP JUMPDEST DUP3 MSTORE POP POP JUMP JUMPDEST PUSH0 PUSH1 0x20 DUP3 ADD SWAP1 POP PUSH2 0x1DD8 PUSH0 DUP4 ADD DUP5 PUSH2 0x1DB6 JUMP JUMPDEST SWAP3 SWAP2 POP POP JUMP JUMPDEST PUSH0 PUSH1 0x20 DUP3 DUP5 SUB SLT ISZERO PUSH2 0x1DF3 JUMPI PUSH2 0x1DF2 PUSH2 0x1B15 JUMP JUMPDEST JUMPDEST PUSH0 PUSH2 0x1E00 DUP5 DUP3 DUP6 ADD PUSH2 0x1B63 JUMP JUMPDEST SWAP2 POP POP SWAP3 SWAP2 POP POP JUMP JUMPDEST PUSH0 PUSH0 PUSH1 0x40 DUP4 DUP6 SUB SLT ISZERO PUSH2 0x1E1F JUMPI PUSH2 0x1E1E PUSH2 0x1B15 JUMP JUMPDEST JUMPDEST PUSH0 PUSH2 0x1E2C DUP6 DUP3 DUP7 ADD PUSH2 0x1B8D JUMP JUMPDEST SWAP3 POP POP PUSH1 0x20 PUSH2 0x1E3D DUP6 DUP3 DUP7 ADD PUSH2 0x1B8D JUMP JUMPDEST SWAP2 POP POP SWAP3 POP SWAP3 SWAP1 POP JUMP JUMPDEST PUSH0 PUSH0 PUSH1 0x40 DUP4 DUP6 SUB SLT ISZERO PUSH2 0x1E5D JUMPI PUSH2 0x1E5C PUSH2 0x1B15 JUMP JUMPDEST JUMPDEST PUSH0 PUSH2 0x1E6A DUP6 DUP3 DUP7 ADD PUSH2 0x1B63 JUMP JUMPDEST SWAP3 POP POP PUSH1 0x20 PUSH2 0x1E7B DUP6 DUP3 DUP7 ADD PUSH2 0x1B63 JUMP JUMPDEST SWAP2 POP POP SWAP3 POP SWAP3 SWAP1 POP JUMP JUMPDEST PUSH32 0x4E487B7100000000000000000000000000000000000000000000000000000000 PUSH0 MSTORE PUSH1 0x22 PUSH1 0x4 MSTORE PUSH1 0x24 PUSH0 REVERT JUMPDEST PUSH0 PUSH1 0x2 DUP3 DIV SWAP1 POP PUSH1 0x1 DUP3 AND DUP1 PUSH2 0x1EC9 JUMPI PUSH1 0x7F DUP3 AND SWAP2 POP JUMPDEST PUSH1 0x20 DUP3 LT DUP2 SUB PUSH2 0x1EDC JUMPI PUSH2 0x1EDB PUSH2 0x1E85 JUMP JUMPDEST JUMPDEST POP SWAP2 SWAP1 POP JUMP JUMPDEST PUSH32 0x4E487B7100000000000000000000000000000000000000000000000000000000 PUSH0 MSTORE PUSH1 0x11 PUSH1 0x4 MSTORE PUSH1 0x24 PUSH0 REVERT JUMPDEST PUSH0 PUSH2 0x1F19 DUP3 PUSH2 0x1AE4 JUMP JUMPDEST SWAP2 POP PUSH2 0x1F24 DUP4 PUSH2 0x1AE4 JUMP JUMPDEST SWAP3 POP DUP3 DUP3 ADD SWAP1 POP DUP1 DUP3 GT ISZERO PUSH2 0x1F3C JUMPI PUSH2 0x1F3B PUSH2 0x1EE2 JUMP JUMPDEST JUMPDEST SWAP3 SWAP2 POP POP JUMP JUMPDEST PUSH0 DUP2 SWAP1 POP SWAP2 SWAP1 POP JUMP JUMPDEST PUSH0 PUSH2 0x1F65 PUSH2 0x1F60 PUSH2 0x1F5B DUP5 PUSH2 0x1D7F JUMP JUMPDEST PUSH2 0x1F42 JUMP JUMPDEST PUSH2 0x1AE4 JUMP JUMPDEST SWAP1 POP SWAP2 SWAP1 POP JUMP JUMPDEST PUSH2 0x1F75 DUP2 PUSH2 0x1F4B JUMP JUMPDEST DUP3 MSTORE POP POP JUMP JUMPDEST PUSH0 PUSH1 0x20 DUP3 ADD SWAP1 POP PUSH2 0x1F8E PUSH0 DUP4 ADD DUP5 PUSH2 0x1F6C JUMP JUMPDEST SWAP3 SWAP2 POP POP JUMP JUMPDEST PUSH0 DUP2 MLOAD SWAP1 POP PUSH2 0x1FA2 DUP2 PUSH2 0x1B77 JUMP JUMPDEST SWAP3 SWAP2 POP POP JUMP JUMPDEST PUSH0 PUSH1 0x20 DUP3 DUP5 SUB SLT ISZERO PUSH2 0x1FBD JUMPI PUSH2 0x1FBC PUSH2 0x1B15 JUMP JUMPDEST JUMPDEST PUSH0 PUSH2 0x1FCA DUP5 DUP3 DUP6 ADD PUSH2 0x1F94 JUMP JUMPDEST SWAP2 POP POP SWAP3 SWAP2 POP POP JUMP JUMPDEST PUSH0 DUP2 SWAP1 POP SWAP2 SWAP1 POP JUMP JUMPDEST PUSH0 PUSH2 0x1FF6 PUSH2 0x1FF1 PUSH2 0x1FEC DUP5 PUSH2 0x1FD3 JUMP JUMPDEST PUSH2 0x1F42 JUMP JUMPDEST PUSH2 0x1AE4 JUMP JUMPDEST SWAP1 POP SWAP2 SWAP1 POP JUMP JUMPDEST PUSH2 0x2006 DUP2 PUSH2 0x1FDC JUMP JUMPDEST DUP3 MSTORE POP POP JUMP JUMPDEST PUSH0 PUSH1 0x60 DUP3 ADD SWAP1 POP PUSH2 0x201F PUSH0 DUP4 ADD DUP7 PUSH2 0x1F6C JUMP JUMPDEST PUSH2 0x202C PUSH1 0x20 DUP4 ADD DUP6 PUSH2 0x1FFD JUMP JUMPDEST PUSH2 0x2039 PUSH1 0x40 DUP4 ADD DUP5 PUSH2 0x1DB6 JUMP JUMPDEST SWAP5 SWAP4 POP POP POP POP JUMP JUMPDEST PUSH0 PUSH1 0x40 DUP3 ADD SWAP1 POP PUSH2 0x2054 PUSH0 DUP4 ADD DUP6 PUSH2 0x1AED JUMP JUMPDEST PUSH2 0x2061 PUSH1 0x20 DUP4 ADD DUP5 PUSH2 0x1AED JUMP JUMPDEST SWAP4 SWAP3 POP POP POP JUMP JUMPDEST PUSH32 0x4E487B7100000000000000000000000000000000000000000000000000000000 PUSH0 MSTORE PUSH1 0x12 PUSH1 0x4 MSTORE PUSH1 0x24 PUSH0 REVERT JUMPDEST PUSH0 PUSH2 0x209F DUP3 PUSH2 0x1AE4 JUMP JUMPDEST SWAP2 POP PUSH2 0x20AA DUP4 PUSH2 0x1AE4 JUMP JUMPDEST SWAP3 POP DUP3 PUSH2 0x20BA JUMPI PUSH2 0x20B9 PUSH2 0x2068 JUMP JUMPDEST JUMPDEST DUP3 DUP3 DIV SWAP1 POP SWAP3 SWAP2 POP POP JUMP JUMPDEST PUSH0 PUSH2 0x20CF DUP3 PUSH2 0x1AE4 JUMP JUMPDEST SWAP2 POP PUSH2 0x20DA DUP4 PUSH2 0x1AE4 JUMP JUMPDEST SWAP3 POP DUP3 DUP3 MUL PUSH2 0x20E8 DUP2 PUSH2 0x1AE4 JUMP JUMPDEST SWAP2 POP DUP3 DUP3 DIV DUP5 EQ DUP4 ISZERO OR PUSH2 0x20FF JUMPI PUSH2 0x20FE PUSH2 0x1EE2 JUMP JUMPDEST JUMPDEST POP SWAP3 SWAP2 POP POP JUMP JUMPDEST PUSH0 DUP2 SWAP1 POP SWAP3 SWAP2 POP POP JUMP JUMPDEST POP JUMP JUMPDEST PUSH0 PUSH2 0x211E PUSH0 DUP4 PUSH2 0x2106 JUMP JUMPDEST SWAP2 POP PUSH2 0x2129 DUP3 PUSH2 0x2110 JUMP JUMPDEST PUSH0 DUP3 ADD SWAP1 POP SWAP2 SWAP1 POP JUMP JUMPDEST PUSH0 PUSH2 0x213D DUP3 PUSH2 0x2113 JUMP JUMPDEST SWAP2 POP DUP2 SWAP1 POP SWAP2 SWAP1 POP JUMP JUMPDEST PUSH0 PUSH2 0x2151 DUP3 PUSH2 0x1AE4 JUMP JUMPDEST SWAP2 POP PUSH2 0x215C DUP4 PUSH2 0x1AE4 JUMP JUMPDEST SWAP3 POP DUP3 DUP3 SUB SWAP1 POP DUP2 DUP2 GT ISZERO PUSH2 0x2174 JUMPI PUSH2 0x2173 PUSH2 0x1EE2 JUMP JUMPDEST JUMPDEST SWAP3 SWAP2 POP POP JUMP JUMPDEST PUSH0 PUSH1 0x40 DUP3 ADD SWAP1 POP PUSH2 0x218D PUSH0 DUP4 ADD DUP6 PUSH2 0x1DB6 JUMP JUMPDEST PUSH2 0x219A PUSH1 0x20 DUP4 ADD DUP5 PUSH2 0x1DB6 JUMP JUMPDEST SWAP4 SWAP3 POP POP POP JUMP JUMPDEST PUSH32 0x4E487B7100000000000000000000000000000000000000000000000000000000 PUSH0 MSTORE PUSH1 0x32 PUSH1 0x4 MSTORE PUSH1 0x24 PUSH0 REVERT JUMPDEST PUSH0 PUSH2 0x21D8 DUP3 PUSH2 0x1AE4 JUMP JUMPDEST SWAP2 POP PUSH2 0x21E3 DUP4 PUSH2 0x1AE4 JUMP JUMPDEST SWAP3 POP DUP3 PUSH2 0x21F3 JUMPI PUSH2 0x21F2 PUSH2 0x2068 JUMP JUMPDEST JUMPDEST DUP3 DUP3 MOD SWAP1 POP SWAP3 SWAP2 POP POP JUMP JUMPDEST PUSH0 PUSH1 0x60 DUP3 ADD SWAP1 POP PUSH2 0x2211 PUSH0 DUP4 ADD DUP7 PUSH2 0x1DB6 JUMP JUMPDEST PUSH2 0x221E PUSH1 0x20 DUP4 ADD DUP6 PUSH2 0x1AED JUMP JUMPDEST PUSH2 0x222B PUSH1 0x40 DUP4 ADD DUP5 PUSH2 0x1AED JUMP JUMPDEST SWAP5 SWAP4 POP POP POP POP JUMP INVALID LOG2 PUSH5 0x6970667358 0x22 SLT KECCAK256 MSTORE 0xB5 0xA6 EXTDELEGATECALL GAS 0x21 PUSH28 0xCC4E0AE20F94BBF78068A7988E3BEE220C9000D0F95761064E64736F PUSH13 0x634300081E0033000000000000 "
		},
		"gasEstimates": {
			"creation": {
				"codeDepositCost": "1761800",
				"executionCost": "infinite",
				"totalCost": "infinite"
			},
			"external": {
				"CALLBACK_GAS_LIMIT()": "376",
				"Click()": "infinite",
				"FEE()": "369",
				"HALVING_INTERVAL_ROUNDS()": "392",
				"INITIAL_REWARD()": "414",
				"LIQUIDITY_SHARE()": "371",
				"ROUND_DURATION()": "415",
				"allowance(address,address)": "infinite",
				"approve(address,uint256)": "infinite",
				"balanceOf(address)": "2895",
				"burn(uint256)": "infinite",
				"currentReward()": "2494",
				"decimals()": "428",
				"getPlayersCountInRound(uint256)": "infinite",
				"lastHalvingRound()": "2470",
				"lastRoundTs()": "2493",
				"liquidityVault()": "2553",
				"maxSupply()": "2491",
				"name()": "infinite",
				"nextHalvingRound()": "infinite",
				"playerCount(uint256)": "infinite",
				"players(uint256,uint256)": "infinite",
				"rawFulfillRandomWords(uint256,uint256[])": "infinite",
				"roundId()": "2514",
				"symbol()": "infinite",
				"totalSupply()": "2478",
				"transfer(address,uint256)": "infinite",
				"transferFrom(address,address,uint256)": "infinite"
			},
			"internal": {
				"_fulfillRandomWords(uint256,uint256[] calldata)": "infinite"
			}
		},
		"methodIdentifiers": {
			"CALLBACK_GAS_LIMIT()": "33d608f1",
			"Click()": "1d6ad8e2",
			"FEE()": "c57981b5",
			"HALVING_INTERVAL_ROUNDS()": "36667e7f",
			"INITIAL_REWARD()": "36bcf7d6",
			"LIQUIDITY_SHARE()": "43270d56",
			"ROUND_DURATION()": "6641ea08",
			"allowance(address,address)": "dd62ed3e",
			"approve(address,uint256)": "095ea7b3",
			"balanceOf(address)": "70a08231",
			"burn(uint256)": "42966c68",
			"currentReward()": "07621eca",
			"decimals()": "313ce567",
			"getPlayersCountInRound(uint256)": "f68c2bfd",
			"lastHalvingRound()": "967372a3",
			"lastRoundTs()": "47fec1a2",
			"liquidityVault()": "708666ad",
			"maxSupply()": "d5abeb01",
			"name()": "06fdde03",
			"nextHalvingRound()": "1d729c5a",
			"playerCount(uint256)": "2566c9ea",
			"players(uint256,uint256)": "998f1b80",
			"rawFulfillRandomWords(uint256,uint256[])": "1fe543e3",
			"roundId()": "8cd221c9",
			"symbol()": "95d89b41",
			"totalSupply()": "18160ddd",
			"transfer(address,uint256)": "a9059cbb",
			"transferFrom(address,address,uint256)": "23b872dd"
		}
	},
	"abi": [
		{
			"inputs": [
				{
					"internalType": "address",
					"name": "vrfCoordinatorAddress",
					"type": "address"
				},
				{
					"internalType": "address",
					"name": "_vaultAddress",
					"type": "address"
				}
			],
			"stateMutability": "nonpayable",
			"type": "constructor"
		},
		{
			"inputs": [
				{
					"internalType": "address",
					"name": "spender",
					"type": "address"
				},
				{
					"internalType": "uint256",
					"name": "allowance",
					"type": "uint256"
				},
				{
					"internalType": "uint256",
					"name": "needed",
					"type": "uint256"
				}
			],
			"name": "ERC20InsufficientAllowance",
			"type": "error"
		},
		{
			"inputs": [
				{
					"internalType": "address",
					"name": "sender",
					"type": "address"
				},
				{
					"internalType": "uint256",
					"name": "balance",
					"type": "uint256"
				},
				{
					"internalType": "uint256",
					"name": "needed",
					"type": "uint256"
				}
			],
			"name": "ERC20InsufficientBalance",
			"type": "error"
		},
		{
			"inputs": [
				{
					"internalType": "address",
					"name": "approver",
					"type": "address"
				}
			],
			"name": "ERC20InvalidApprover",
			"type": "error"
		},
		{
			"inputs": [
				{
					"internalType": "address",
					"name": "receiver",
					"type": "address"
				}
			],
			"name": "ERC20InvalidReceiver",
			"type": "error"
		},
		{
			"inputs": [
				{
					"internalType": "address",
					"name": "sender",
					"type": "address"
				}
			],
			"name": "ERC20InvalidSender",
			"type": "error"
		},
		{
			"inputs": [
				{
					"internalType": "address",
					"name": "spender",
					"type": "address"
				}
			],
			"name": "ERC20InvalidSpender",
			"type": "error"
		},
		{
			"inputs": [],
			"name": "FeeTooLow",
			"type": "error"
		},
		{
			"inputs": [],
			"name": "FeeTransferFailed",
			"type": "error"
		},
		{
			"inputs": [],
			"name": "InsufficientContractBalance",
			"type": "error"
		},
		{
			"inputs": [],
			"name": "NothingToBurn",
			"type": "error"
		},
		{
			"inputs": [
				{
					"internalType": "address",
					"name": "sender",
					"type": "address"
				},
				{
					"internalType": "address",
					"name": "coordinator",
					"type": "address"
				}
			],
			"name": "OnlyVRFCoordinator",
			"type": "error"
		},
		{
			"inputs": [],
			"name": "RefundFailed",
			"type": "error"
		},
		{
			"inputs": [],
			"name": "TransferFailed",
			"type": "error"
		},
		{
			"anonymous": false,
			"inputs": [
				{
					"indexed": true,
					"internalType": "address",
					"name": "owner",
					"type": "address"
				},
				{
					"indexed": true,
					"internalType": "address",
					"name": "spender",
					"type": "address"
				},
				{
					"indexed": false,
					"internalType": "uint256",
					"name": "value",
					"type": "uint256"
				}
			],
			"name": "Approval",
			"type": "event"
		},
		{
			"anonymous": false,
			"inputs": [
				{
					"indexed": true,
					"internalType": "address",
					"name": "burner",
					"type": "address"
				},
				{
					"indexed": false,
					"internalType": "uint256",
					"name": "amount",
					"type": "uint256"
				},
				{
					"indexed": false,
					"internalType": "uint256",
					"name": "ethOut",
					"type": "uint256"
				}
			],
			"name": "Burned",
			"type": "event"
		},
		{
			"anonymous": false,
			"inputs": [
				{
					"indexed": true,
					"internalType": "uint256",
					"name": "roundId",
					"type": "uint256"
				},
				{
					"indexed": true,
					"internalType": "address",
					"name": "player",
					"type": "address"
				}
			],
			"name": "Clicked",
			"type": "event"
		},
		{
			"anonymous": false,
			"inputs": [
				{
					"indexed": true,
					"internalType": "uint256",
					"name": "requestId",
					"type": "uint256"
				},
				{
					"indexed": true,
					"internalType": "uint256",
					"name": "roundId",
					"type": "uint256"
				},
				{
					"indexed": false,
					"internalType": "uint256",
					"name": "playersCount",
					"type": "uint256"
				},
				{
					"indexed": false,
					"internalType": "uint256",
					"name": "reward",
					"type": "uint256"
				}
			],
			"name": "RoundRequested",
			"type": "event"
		},
		{
			"anonymous": false,
			"inputs": [
				{
					"indexed": true,
					"internalType": "address",
					"name": "from",
					"type": "address"
				},
				{
					"indexed": true,
					"internalType": "address",
					"name": "to",
					"type": "address"
				},
				{
					"indexed": false,
					"internalType": "uint256",
					"name": "value",
					"type": "uint256"
				}
			],
			"name": "Transfer",
			"type": "event"
		},
		{
			"anonymous": false,
			"inputs": [
				{
					"indexed": true,
					"internalType": "uint256",
					"name": "requestId",
					"type": "uint256"
				},
				{
					"indexed": true,
					"internalType": "uint256",
					"name": "roundId",
					"type": "uint256"
				},
				{
					"indexed": true,
					"internalType": "address",
					"name": "winner",
					"type": "address"
				},
				{
					"indexed": false,
					"internalType": "uint256",
					"name": "amount",
					"type": "uint256"
				}
			],
			"name": "WinnerMinted",
			"type": "event"
		},
		{
			"inputs": [],
			"name": "CALLBACK_GAS_LIMIT",
			"outputs": [
				{
					"internalType": "uint32",
					"name": "",
					"type": "uint32"
				}
			],
			"stateMutability": "view",
			"type": "function"
		},
		{
			"inputs": [],
			"name": "Click",
			"outputs": [],
			"stateMutability": "payable",
			"type": "function"
		},
		{
			"inputs": [],
			"name": "FEE",
			"outputs": [
				{
					"internalType": "uint256",
					"name": "",
					"type": "uint256"
				}
			],
			"stateMutability": "view",
			"type": "function"
		},
		{
			"inputs": [],
			"name": "HALVING_INTERVAL_ROUNDS",
			"outputs": [
				{
					"internalType": "uint256",
					"name": "",
					"type": "uint256"
				}
			],
			"stateMutability": "view",
			"type": "function"
		},
		{
			"inputs": [],
			"name": "INITIAL_REWARD",
			"outputs": [
				{
					"internalType": "uint256",
					"name": "",
					"type": "uint256"
				}
			],
			"stateMutability": "view",
			"type": "function"
		},
		{
			"inputs": [],
			"name": "LIQUIDITY_SHARE",
			"outputs": [
				{
					"internalType": "uint256",
					"name": "",
					"type": "uint256"
				}
			],
			"stateMutability": "view",
			"type": "function"
		},
		{
			"inputs": [],
			"name": "ROUND_DURATION",
			"outputs": [
				{
					"internalType": "uint256",
					"name": "",
					"type": "uint256"
				}
			],
			"stateMutability": "view",
			"type": "function"
		},
		{
			"inputs": [
				{
					"internalType": "address",
					"name": "owner",
					"type": "address"
				},
				{
					"internalType": "address",
					"name": "spender",
					"type": "address"
				}
			],
			"name": "allowance",
			"outputs": [
				{
					"internalType": "uint256",
					"name": "",
					"type": "uint256"
				}
			],
			"stateMutability": "view",
			"type": "function"
		},
		{
			"inputs": [
				{
					"internalType": "address",
					"name": "spender",
					"type": "address"
				},
				{
					"internalType": "uint256",
					"name": "value",
					"type": "uint256"
				}
			],
			"name": "approve",
			"outputs": [
				{
					"internalType": "bool",
					"name": "",
					"type": "bool"
				}
			],
			"stateMutability": "nonpayable",
			"type": "function"
		},
		{
			"inputs": [
				{
					"internalType": "address",
					"name": "account",
					"type": "address"
				}
			],
			"name": "balanceOf",
			"outputs": [
				{
					"internalType": "uint256",
					"name": "",
					"type": "uint256"
				}
			],
			"stateMutability": "view",
			"type": "function"
		},
		{
			"inputs": [
				{
					"internalType": "uint256",
					"name": "amount",
					"type": "uint256"
				}
			],
			"name": "burn",
			"outputs": [],
			"stateMutability": "nonpayable",
			"type": "function"
		},
		{
			"inputs": [],
			"name": "currentReward",
			"outputs": [
				{
					"internalType": "uint256",
					"name": "",
					"type": "uint256"
				}
			],
			"stateMutability": "view",
			"type": "function"
		},
		{
			"inputs": [],
			"name": "decimals",
			"outputs": [
				{
					"internalType": "uint8",
					"name": "",
					"type": "uint8"
				}
			],
			"stateMutability": "view",
			"type": "function"
		},
		{
			"inputs": [
				{
					"internalType": "uint256",
					"name": "_roundId",
					"type": "uint256"
				}
			],
			"name": "getPlayersCountInRound",
			"outputs": [
				{
					"internalType": "uint256",
					"name": "",
					"type": "uint256"
				}
			],
			"stateMutability": "view",
			"type": "function"
		},
		{
			"inputs": [],
			"name": "lastHalvingRound",
			"outputs": [
				{
					"internalType": "uint256",
					"name": "",
					"type": "uint256"
				}
			],
			"stateMutability": "view",
			"type": "function"
		},
		{
			"inputs": [],
			"name": "lastRoundTs",
			"outputs": [
				{
					"internalType": "uint256",
					"name": "",
					"type": "uint256"
				}
			],
			"stateMutability": "view",
			"type": "function"
		},
		{
			"inputs": [],
			"name": "liquidityVault",
			"outputs": [
				{
					"internalType": "address",
					"name": "",
					"type": "address"
				}
			],
			"stateMutability": "view",
			"type": "function"
		},
		{
			"inputs": [],
			"name": "maxSupply",
			"outputs": [
				{
					"internalType": "uint256",
					"name": "",
					"type": "uint256"
				}
			],
			"stateMutability": "view",
			"type": "function"
		},
		{
			"inputs": [],
			"name": "name",
			"outputs": [
				{
					"internalType": "string",
					"name": "",
					"type": "string"
				}
			],
			"stateMutability": "view",
			"type": "function"
		},
		{
			"inputs": [],
			"name": "nextHalvingRound",
			"outputs": [
				{
					"internalType": "uint256",
					"name": "",
					"type": "uint256"
				}
			],
			"stateMutability": "view",
			"type": "function"
		},
		{
			"inputs": [
				{
					"internalType": "uint256",
					"name": "",
					"type": "uint256"
				}
			],
			"name": "playerCount",
			"outputs": [
				{
					"internalType": "uint256",
					"name": "",
					"type": "uint256"
				}
			],
			"stateMutability": "view",
			"type": "function"
		},
		{
			"inputs": [
				{
					"internalType": "uint256",
					"name": "",
					"type": "uint256"
				},
				{
					"internalType": "uint256",
					"name": "",
					"type": "uint256"
				}
			],
			"name": "players",
			"outputs": [
				{
					"internalType": "address",
					"name": "",
					"type": "address"
				}
			],
			"stateMutability": "view",
			"type": "function"
		},
		{
			"inputs": [
				{
					"internalType": "uint256",
					"name": "requestId",
					"type": "uint256"
				},
				{
					"internalType": "uint256[]",
					"name": "randomWords",
					"type": "uint256[]"
				}
			],
			"name": "rawFulfillRandomWords",
			"outputs": [],
			"stateMutability": "nonpayable",
			"type": "function"
		},
		{
			"inputs": [],
			"name": "roundId",
			"outputs": [
				{
					"internalType": "uint256",
					"name": "",
					"type": "uint256"
				}
			],
			"stateMutability": "view",
			"type": "function"
		},
		{
			"inputs": [],
			"name": "symbol",
			"outputs": [
				{
					"internalType": "string",
					"name": "",
					"type": "string"
				}
			],
			"stateMutability": "view",
			"type": "function"
		},
		{
			"inputs": [],
			"name": "totalSupply",
			"outputs": [
				{
					"internalType": "uint256",
					"name": "",
					"type": "uint256"
				}
			],
			"stateMutability": "view",
			"type": "function"
		},
		{
			"inputs": [
				{
					"internalType": "address",
					"name": "to",
					"type": "address"
				},
				{
					"internalType": "uint256",
					"name": "value",
					"type": "uint256"
				}
			],
			"name": "transfer",
			"outputs": [
				{
					"internalType": "bool",
					"name": "",
					"type": "bool"
				}
			],
			"stateMutability": "nonpayable",
			"type": "function"
		},
		{
			"inputs": [
				{
					"internalType": "address",
					"name": "from",
					"type": "address"
				},
				{
					"internalType": "address",
					"name": "to",
					"type": "address"
				},
				{
					"internalType": "uint256",
					"name": "value",
					"type": "uint256"
				}
			],
			"name": "transferFrom",
			"outputs": [
				{
					"internalType": "bool",
					"name": "",
					"type": "bool"
				}
			],
			"stateMutability": "nonpayable",
			"type": "function"
		}
	]
}