{
	"data": {
		"bytecode": {
			"linkReferences": {},
			"object": "60a06040526101f46008556103e860095534801561001b575f5ffd5b50604051612975380380612975833981810160405281019061003d9190610261565b33828073ffffffffffffffffffffffffffffffffffffffff1660808173ffffffffffffffffffffffffffffffffffffffff1681525050505f73ffffffffffffffffffffffffffffffffffffffff168173ffffffffffffffffffffffffffffffffffffffff16036100e4575f6040517f1e4fbdf70000000000000000000000000000000000000000000000000000000081526004016100db91906102ae565b60405180910390fd5b6100f38161014260201b60201c565b50600180819055508060025f6101000a81548173ffffffffffffffffffffffffffffffffffffffff021916908373ffffffffffffffffffffffffffffffffffffffff16021790555050506102c7565b5f5f5f9054906101000a900473ffffffffffffffffffffffffffffffffffffffff169050815f5f6101000a81548173ffffffffffffffffffffffffffffffffffffffff021916908373ffffffffffffffffffffffffffffffffffffffff1602179055508173ffffffffffffffffffffffffffffffffffffffff168173ffffffffffffffffffffffffffffffffffffffff167f8be0079c531659141344cd1fd0a4f28419497f9722a3daafe3b4186f6b6457e060405160405180910390a35050565b5f5ffd5b5f73ffffffffffffffffffffffffffffffffffffffff82169050919050565b5f61023082610207565b9050919050565b61024081610226565b811461024a575f5ffd5b50565b5f8151905061025b81610237565b92915050565b5f5f6040838503121561027757610276610203565b5b5f6102848582860161024d565b92505060206102958582860161024d565b9150509250929050565b6102a881610226565b82525050565b5f6020820190506102c15f83018461029f565b92915050565b6080516126816102f45f395f818161068b015281816106df01528181610dd8015261101201526126815ff3fe60806040526004361061019b575f3560e01c8063bc7f25e4116100eb578063d69fd7b911610089578063ee59d24011610063578063ee59d240146105d1578063f2fde38b146105fb578063f379469b14610623578063f68017cd1461064d5761019b565b8063d69fd7b914610543578063e231b0ef1461057f578063e27ff2ba146105a95761019b565b8063c32b5373116100c5578063c32b537314610471578063c4f343fd1461049b578063d0821b0e146104d7578063d21cacdf146105075761019b565b8063bc7f25e4146103e1578063bdcf17531461041d578063befa1e2f146104475761019b565b80634b11469111610158578063708666ad11610132578063708666ad1461034f578063715018a6146103795780638da5cb5b1461038f578063bc6e8020146103b95761019b565b80634b114691146102bd5780635a09f2f4146102fd5780635c492129146103255761019b565b80631fe543e31461019f57806322af00fa146101c7578063303306151461020557806333d608f11461022d57806344af2edb14610257578063454f7b8f14610293575b5f5ffd5b3480156101aa575f5ffd5b506101c560048036038101906101c09190611e84565b610689565b005b3480156101d2575f5ffd5b506101ed60048036038101906101e89190611ee1565b61074b565b6040516101fc93929190611f75565b60405180910390f35b348015610210575f5ffd5b5061022b60048036038101906102269190611fdd565b61079c565b005b348015610238575f5ffd5b5061024161093d565b60405161024e9190612026565b60405180910390f35b348015610262575f5ffd5b5061027d60048036038101906102789190612069565b610944565b60405161028a91906120a3565b60405180910390f35b34801561029e575f5ffd5b506102a7610959565b6040516102b491906120bc565b60405180910390f35b3480156102c8575f5ffd5b506102e360048036038101906102de9190612069565b61095f565b6040516102f49594939291906120d5565b60405180910390f35b348015610308575f5ffd5b50610323600480360381019061031e9190611ee1565b610991565b005b348015610330575f5ffd5b506103396109df565b60405161034691906120bc565b60405180910390f35b34801561035a575f5ffd5b506103636109e5565b6040516103709190612181565b60405180910390f35b348015610384575f5ffd5b5061038d610a0a565b005b34801561039a575f5ffd5b506103a3610a1d565b6040516103b0919061219a565b60405180910390f35b3480156103c4575f5ffd5b506103df60048036038101906103da9190611fdd565b610a44565b005b3480156103ec575f5ffd5b5061040760048036038101906104029190612069565b610cd9565b604051610414919061219a565b60405180910390f35b348015610428575f5ffd5b50610431610d3e565b60405161043e91906120bc565b60405180910390f35b348015610452575f5ffd5b5061045b610d44565b60405161046891906120bc565b60405180910390f35b34801561047c575f5ffd5b50610485610d4a565b60405161049291906120bc565b60405180910390f35b3480156104a6575f5ffd5b506104c160048036038101906104bc9190611fdd565b610d50565b6040516104ce919061219a565b60405180910390f35b6104f160048036038101906104ec91906121dd565b610d80565b6040516104fe91906120bc565b60405180910390f35b348015610512575f5ffd5b5061052d60048036038101906105289190612069565b61164f565b60405161053a919061219a565b60405180910390f35b34801561054e575f5ffd5b5061056960048036038101906105649190612069565b61167f565b60405161057691906120a3565b60405180910390f35b34801561058a575f5ffd5b506105936116c5565b6040516105a091906120bc565b60405180910390f35b3480156105b4575f5ffd5b506105cf60048036038101906105ca9190611ee1565b6116cb565b005b3480156105dc575f5ffd5b506105e5611719565b6040516105f291906120bc565b60405180910390f35b348015610606575f5ffd5b50610621600480360381019061061c9190612069565b61171f565b005b34801561062e575f5ffd5b506106376117a3565b60405161064491906120bc565b60405180910390f35b348015610658575f5ffd5b50610673600480360381019061066e9190611fdd565b6117a9565b604051610680919061219a565b60405180910390f35b7f000000000000000000000000000000000000000000000000000000000000000073ffffffffffffffffffffffffffffffffffffffff163373ffffffffffffffffffffffffffffffffffffffff161461073b57337f00000000000000000000000000000000000000000000000000000000000000006040517f20138a9f000000000000000000000000000000000000000000000000000000008152600401610732929190612208565b60405180910390fd5b6107468383836117e2565b505050565b6003602052805f5260405f205f91509050805f015f9054906101000a900473ffffffffffffffffffffffffffffffffffffffff1690806001015490806002015f9054906101000a900460ff16905083565b5f5f1b60055f3373ffffffffffffffffffffffffffffffffffffffff1673ffffffffffffffffffffffffffffffffffffffff1681526020019081526020015f205414610814576040517f809dc80800000000000000000000000000000000000000000000000000000000815260040160405180910390fd5b5f73ffffffffffffffffffffffffffffffffffffffff1660045f8381526020019081526020015f205f9054906101000a900473ffffffffffffffffffffffffffffffffffffffff1673ffffffffffffffffffffffffffffffffffffffff16146108a9576040517f374be26400000000000000000000000000000000000000000000000000000000815260040160405180910390fd5b3360045f8381526020019081526020015f205f6101000a81548173ffffffffffffffffffffffffffffffffffffffff021916908373ffffffffffffffffffffffffffffffffffffffff1602179055508060055f3373ffffffffffffffffffffffffffffffffffffffff1673ffffffffffffffffffffffffffffffffffffffff1681526020019081526020015f208190555050565b62030d4081565b6005602052805f5260405f205f915090505481565b600b5481565b6007602052805f5260405f205f91509050805f0154908060010154908060020154908060030154908060040154905085565b610999611c41565b6107d08111156109d5576040517fcd4e616700000000000000000000000000000000000000000000000000000000815260040160405180910390fd5b8060088190555050565b600c5481565b60025f9054906101000a900473ffffffffffffffffffffffffffffffffffffffff1681565b610a12611c41565b610a1b5f611cc8565b565b5f5f5f9054906101000a900473ffffffffffffffffffffffffffffffffffffffff16905090565b5f60045f8381526020019081526020015f205f9054906101000a900473ffffffffffffffffffffffffffffffffffffffff1690503373ffffffffffffffffffffffffffffffffffffffff168173ffffffffffffffffffffffffffffffffffffffff1603610add576040517f6d0f1f8200000000000000000000000000000000000000000000000000000000815260040160405180910390fd5b5f73ffffffffffffffffffffffffffffffffffffffff168173ffffffffffffffffffffffffffffffffffffffff1603610b42576040517f865dc59c00000000000000000000000000000000000000000000000000000000815260040160405180910390fd5b5f73ffffffffffffffffffffffffffffffffffffffff1660065f3373ffffffffffffffffffffffffffffffffffffffff1673ffffffffffffffffffffffffffffffffffffffff1681526020019081526020015f205f9054906101000a900473ffffffffffffffffffffffffffffffffffffffff1673ffffffffffffffffffffffffffffffffffffffff1614610c03576040517f967c839800000000000000000000000000000000000000000000000000000000815260040160405180910390fd5b8060065f3373ffffffffffffffffffffffffffffffffffffffff1673ffffffffffffffffffffffffffffffffffffffff1681526020019081526020015f205f6101000a81548173ffffffffffffffffffffffffffffffffffffffff021916908373ffffffffffffffffffffffffffffffffffffffff160217905550600160075f8373ffffffffffffffffffffffffffffffffffffffff1673ffffffffffffffffffffffffffffffffffffffff1681526020019081526020015f206004015f828254610cce919061225c565b925050819055505050565b5f60065f8373ffffffffffffffffffffffffffffffffffffffff1673ffffffffffffffffffffffffffffffffffffffff1681526020019081526020015f205f9054906101000a900473ffffffffffffffffffffffffffffffffffffffff169050919050565b60095481565b600a5481565b600d5481565b6004602052805f5260405f205f915054906101000a900473ffffffffffffffffffffffffffffffffffffffff1681565b5f610d89611d89565b60018260ff161080610d9e575060058260ff16115b15610dd5576040517f364e219700000000000000000000000000000000000000000000000000000000815260040160405180910390fd5b5f7f000000000000000000000000000000000000000000000000000000000000000073ffffffffffffffffffffffffffffffffffffffff1663c66d3d1862030d406040518263ffffffff1660e01b8152600401610e3291906122bf565b602060405180830381865afa158015610e4d573d5f5f3e3d5ffd5b505050506040513d601f19601f82011682018060405250810190610e7191906122ec565b9050803411610eac576040517fcd1c886700000000000000000000000000000000000000000000000000000000815260040160405180910390fd5b5f8134610eb99190612317565b9050670de0b6b3a7640000341015610efd576040517fd312a68800000000000000000000000000000000000000000000000000000000815260040160405180910390fd5b5f60025f9054906101000a900473ffffffffffffffffffffffffffffffffffffffff1673ffffffffffffffffffffffffffffffffffffffff16630910a5106040518163ffffffff1660e01b8152600401602060405180830381865afa158015610f68573d5f5f3e3d5ffd5b505050506040513d601f19601f82011682018060405250810190610f8c91906122ec565b90505f856006610f9c919061234a565b60ff16600684610fac919061237e565b610fb691906123ec565b90505f61271060095484610fca919061237e565b610fd491906123ec565b905080821115611010576040517f2ed7adcc00000000000000000000000000000000000000000000000000000000815260040160405180910390fd5b7f000000000000000000000000000000000000000000000000000000000000000073ffffffffffffffffffffffffffffffffffffffff1663cb9bb27f8662030d40600160025f9054906101000a900473ffffffffffffffffffffffffffffffffffffffff166040518563ffffffff1660e01b815260040161109393929190612455565b60206040518083038185885af11580156110af573d5f5f3e3d5ffd5b50505050506040513d601f19601f820116820180604052508101906110d491906122ec565b95505f60065f3373ffffffffffffffffffffffffffffffffffffffff1673ffffffffffffffffffffffffffffffffffffffff1681526020019081526020015f205f9054906101000a900473ffffffffffffffffffffffffffffffffffffffff1690505f5f5f73ffffffffffffffffffffffffffffffffffffffff168373ffffffffffffffffffffffffffffffffffffffff16146111a457612710600a8861117b919061237e565b61118591906123ec565b9150612710600588611197919061237e565b6111a191906123ec565b90505b5f8183896111b29190612317565b6111bc9190612317565b90505f60025f9054906101000a900473ffffffffffffffffffffffffffffffffffffffff1673ffffffffffffffffffffffffffffffffffffffff1682604051611204906124b7565b5f6040518083038185875af1925050503d805f811461123e576040519150601f19603f3d011682016040523d82523d5f602084013e611243565b606091505b505090508061127d576040517e9716ce00000000000000000000000000000000000000000000000000000000815260040160405180910390fd5b5f841115611325578473ffffffffffffffffffffffffffffffffffffffff16846040516112a9906124b7565b5f6040518083038185875af1925050503d805f81146112e3576040519150601f19603f3d011682016040523d82523d5f602084013e6112e8565b606091505b50508091505080611324576040517e9716ce00000000000000000000000000000000000000000000000000000000815260040160405180910390fd5b5b5f8311156113cd573373ffffffffffffffffffffffffffffffffffffffff1683604051611351906124b7565b5f6040518083038185875af1925050503d805f811461138b576040519150601f19603f3d011682016040523d82523d5f602084013e611390565b606091505b505080915050806113cc576040517e9716ce00000000000000000000000000000000000000000000000000000000815260040160405180910390fd5b5b60405180606001604052803373ffffffffffffffffffffffffffffffffffffffff1681526020018a81526020018d60ff1681525060035f8d81526020019081526020015f205f820151815f015f6101000a81548173ffffffffffffffffffffffffffffffffffffffff021916908373ffffffffffffffffffffffffffffffffffffffff160217905550602082015181600101556040820151816002015f6101000a81548160ff021916908360ff16021790555090505060025f9054906101000a900473ffffffffffffffffffffffffffffffffffffffff1673ffffffffffffffffffffffffffffffffffffffff16631fbf7c3e8a6040518263ffffffff1660e01b81526004016114dd91906120bc565b5f604051808303815f87803b1580156114f4575f5ffd5b505af1158015611506573d5f5f3e3d5ffd5b5050505088600a5f82825461151b919061225c565b925050819055506001600c5f828254611534919061225c565b925050819055508860075f3373ffffffffffffffffffffffffffffffffffffffff1673ffffffffffffffffffffffffffffffffffffffff1681526020019081526020015f205f015f828254611589919061225c565b92505081905550600160075f3373ffffffffffffffffffffffffffffffffffffffff1673ffffffffffffffffffffffffffffffffffffffff1681526020019081526020015f206002015f8282546115e0919061225c565b925050819055503373ffffffffffffffffffffffffffffffffffffffff168b7fe90186097616cbeb30ffc786b44501e1362f5e0a316a96c5ab82a0551f9d2f058b8f6040516116309291906124cb565b60405180910390a35050505050505050505061164a611dd8565b919050565b6006602052805f5260405f205f915054906101000a900473ffffffffffffffffffffffffffffffffffffffff1681565b5f60055f8373ffffffffffffffffffffffffffffffffffffffff1673ffffffffffffffffffffffffffffffffffffffff1681526020019081526020015f20549050919050565b61138881565b6116d3611c41565b61138881111561170f576040517fab551ce400000000000000000000000000000000000000000000000000000000815260040160405180910390fd5b8060098190555050565b60085481565b611727611c41565b5f73ffffffffffffffffffffffffffffffffffffffff168173ffffffffffffffffffffffffffffffffffffffff1603611797575f6040517f1e4fbdf700000000000000000000000000000000000000000000000000000000815260040161178e919061219a565b60405180910390fd5b6117a081611cc8565b50565b6107d081565b5f60045f8381526020019081526020015f205f9054906101000a900473ffffffffffffffffffffffffffffffffffffffff169050919050565b5f60035f8581526020019081526020015f206040518060600160405290815f82015f9054906101000a900473ffffffffffffffffffffffffffffffffffffffff1673ffffffffffffffffffffffffffffffffffffffff1673ffffffffffffffffffffffffffffffffffffffff16815260200160018201548152602001600282015f9054906101000a900460ff1660ff1660ff168152505090505f73ffffffffffffffffffffffffffffffffffffffff16815f015173ffffffffffffffffffffffffffffffffffffffff16036118e3576040517f469bfa9100000000000000000000000000000000000000000000000000000000815260040160405180910390fd5b5f600684845f8181106118f9576118f86124f2565b5b9050602002013561190a919061251f565b90505f826040015160ff1682101590505f5f905081156119f8575f84604001516006611936919061234a565b60ff166006866020015161194a919061237e565b61195491906123ec565b90505f61271060085483611968919061237e565b61197291906123ec565b905080826119809190612317565b9250600160075f885f015173ffffffffffffffffffffffffffffffffffffffff1673ffffffffffffffffffffffffffffffffffffffff1681526020019081526020015f206003015f8282546119d5919061225c565b925050819055506001600d5f8282546119ee919061225c565b9250508190555050505b60035f8881526020019081526020015f205f5f82015f6101000a81549073ffffffffffffffffffffffffffffffffffffffff0219169055600182015f9055600282015f6101000a81549060ff021916905550505f811115611b515760025f9054906101000a900473ffffffffffffffffffffffffffffffffffffffff1673ffffffffffffffffffffffffffffffffffffffff1663117de2fd855f0151836040518363ffffffff1660e01b8152600401611ab292919061254f565b5f604051808303815f87803b158015611ac9575f5ffd5b505af1158015611adb573d5f5f3e3d5ffd5b5050505080600b5f828254611af0919061225c565b925050819055508060075f865f015173ffffffffffffffffffffffffffffffffffffffff1673ffffffffffffffffffffffffffffffffffffffff1681526020019081526020015f206001015f828254611b49919061225c565b925050819055505b60025f9054906101000a900473ffffffffffffffffffffffffffffffffffffffff1673ffffffffffffffffffffffffffffffffffffffff1663bff8a36d85602001516040518263ffffffff1660e01b8152600401611baf91906120bc565b5f604051808303815f87803b158015611bc6575f5ffd5b505af1158015611bd8573d5f5f3e3d5ffd5b50505050835f015173ffffffffffffffffffffffffffffffffffffffff16877ff080ca67b108fbad70bb5fbbf685238b9880f8adf09f3b5838058b9645d2d6fb8486886020015186604051611c309493929190612590565b60405180910390a350505050505050565b611c49611de1565b73ffffffffffffffffffffffffffffffffffffffff16611c67610a1d565b73ffffffffffffffffffffffffffffffffffffffff1614611cc657611c8a611de1565b6040517f118cdaa7000000000000000000000000000000000000000000000000000000008152600401611cbd919061219a565b60405180910390fd5b565b5f5f5f9054906101000a900473ffffffffffffffffffffffffffffffffffffffff169050815f5f6101000a81548173ffffffffffffffffffffffffffffffffffffffff021916908373ffffffffffffffffffffffffffffffffffffffff1602179055508173ffffffffffffffffffffffffffffffffffffffff168173ffffffffffffffffffffffffffffffffffffffff167f8be0079c531659141344cd1fd0a4f28419497f9722a3daafe3b4186f6b6457e060405160405180910390a35050565b600260015403611dce576040517f08c379a0000000000000000000000000000000000000000000000000000000008152600401611dc59061262d565b60405180910390fd5b6002600181905550565b60018081905550565b5f33905090565b5f5ffd5b5f5ffd5b5f819050919050565b611e0281611df0565b8114611e0c575f5ffd5b50565b5f81359050611e1d81611df9565b92915050565b5f5ffd5b5f5ffd5b5f5ffd5b5f5f83601f840112611e4457611e43611e23565b5b8235905067ffffffffffffffff811115611e6157611e60611e27565b5b602083019150836020820283011115611e7d57611e7c611e2b565b5b9250929050565b5f5f5f60408486031215611e9b57611e9a611de8565b5b5f611ea886828701611e0f565b935050602084013567ffffffffffffffff811115611ec957611ec8611dec565b5b611ed586828701611e2f565b92509250509250925092565b5f60208284031215611ef657611ef5611de8565b5b5f611f0384828501611e0f565b91505092915050565b5f73ffffffffffffffffffffffffffffffffffffffff82169050919050565b5f611f3582611f0c565b9050919050565b611f4581611f2b565b82525050565b611f5481611df0565b82525050565b5f60ff82169050919050565b611f6f81611f5a565b82525050565b5f606082019050611f885f830186611f3c565b611f956020830185611f4b565b611fa26040830184611f66565b949350505050565b5f819050919050565b611fbc81611faa565b8114611fc6575f5ffd5b50565b5f81359050611fd781611fb3565b92915050565b5f60208284031215611ff257611ff1611de8565b5b5f611fff84828501611fc9565b91505092915050565b5f63ffffffff82169050919050565b61202081612008565b82525050565b5f6020820190506120395f830184612017565b92915050565b61204881611f2b565b8114612052575f5ffd5b50565b5f813590506120638161203f565b92915050565b5f6020828403121561207e5761207d611de8565b5b5f61208b84828501612055565b91505092915050565b61209d81611faa565b82525050565b5f6020820190506120b65f830184612094565b92915050565b5f6020820190506120cf5f830184611f4b565b92915050565b5f60a0820190506120e85f830188611f4b565b6120f56020830187611f4b565b6121026040830186611f4b565b61210f6060830185611f4b565b61211c6080830184611f4b565b9695505050505050565b5f819050919050565b5f61214961214461213f84611f0c565b612126565b611f0c565b9050919050565b5f61215a8261212f565b9050919050565b5f61216b82612150565b9050919050565b61217b81612161565b82525050565b5f6020820190506121945f830184612172565b92915050565b5f6020820190506121ad5f830184611f3c565b92915050565b6121bc81611f5a565b81146121c6575f5ffd5b50565b5f813590506121d7816121b3565b92915050565b5f602082840312156121f2576121f1611de8565b5b5f6121ff848285016121c9565b91505092915050565b5f60408201905061221b5f830185611f3c565b6122286020830184611f3c565b9392505050565b7f4e487b71000000000000000000000000000000000000000000000000000000005f52601160045260245ffd5b5f61226682611df0565b915061227183611df0565b92508282019050808211156122895761228861222f565b5b92915050565b5f6122a96122a461229f84612008565b612126565b611df0565b9050919050565b6122b98161228f565b82525050565b5f6020820190506122d25f8301846122b0565b92915050565b5f815190506122e681611df9565b92915050565b5f6020828403121561230157612300611de8565b5b5f61230e848285016122d8565b91505092915050565b5f61232182611df0565b915061232c83611df0565b92508282039050818111156123445761234361222f565b5b92915050565b5f61235482611f5a565b915061235f83611f5a565b9250828203905060ff8111156123785761237761222f565b5b92915050565b5f61238882611df0565b915061239383611df0565b92508282026123a181611df0565b915082820484148315176123b8576123b761222f565b5b5092915050565b7f4e487b71000000000000000000000000000000000000000000000000000000005f52601260045260245ffd5b5f6123f682611df0565b915061240183611df0565b925082612411576124106123bf565b5b828204905092915050565b5f819050919050565b5f61243f61243a6124358461241c565b612126565b611df0565b9050919050565b61244f81612425565b82525050565b5f6060820190506124685f8301866122b0565b6124756020830185612446565b6124826040830184611f3c565b949350505050565b5f81905092915050565b50565b5f6124a25f8361248a565b91506124ad82612494565b5f82019050919050565b5f6124c182612497565b9150819050919050565b5f6040820190506124de5f830185611f4b565b6124eb6020830184611f66565b9392505050565b7f4e487b71000000000000000000000000000000000000000000000000000000005f52603260045260245ffd5b5f61252982611df0565b915061253483611df0565b925082612544576125436123bf565b5b828206905092915050565b5f6040820190506125625f830185611f3c565b61256f6020830184611f4b565b9392505050565b5f8115159050919050565b61258a81612576565b82525050565b5f6080820190506125a35f830187612581565b6125b06020830186611f4b565b6125bd6040830185611f4b565b6125ca6060830184611f4b565b95945050505050565b5f82825260208201905092915050565b7f5265656e7472616e637947756172643a207265656e7472616e742063616c6c005f82015250565b5f612617601f836125d3565b9150612622826125e3565b602082019050919050565b5f6020820190508181035f8301526126448161260b565b905091905056fea2646970667358221220d192515ec720610b120f540cc036c6304c2882c1b41f692100711ffe92dbed9b64736f6c634300081e0033",
			"opcodes": "PUSH1 0xA0 PUSH1 0x40 MSTORE PUSH2 0x1F4 PUSH1 0x8 SSTORE PUSH2 0x3E8 PUSH1 0x9 SSTORE CALLVALUE DUP1 ISZERO PUSH2 0x1B JUMPI PUSH0 PUSH0 REVERT JUMPDEST POP PUSH1 0x40 MLOAD PUSH2 0x2975 CODESIZE SUB DUP1 PUSH2 0x2975 DUP4 CODECOPY DUP2 DUP2 ADD PUSH1 0x40 MSTORE DUP2 ADD SWAP1 PUSH2 0x3D SWAP2 SWAP1 PUSH2 0x261 JUMP JUMPDEST CALLER DUP3 DUP1 PUSH20 0xFFFFFFFFFFFFFFFFFFFFFFFFFFFFFFFFFFFFFFFF AND PUSH1 0x80 DUP2 PUSH20 0xFFFFFFFFFFFFFFFFFFFFFFFFFFFFFFFFFFFFFFFF AND DUP2 MSTORE POP POP POP PUSH0 PUSH20 0xFFFFFFFFFFFFFFFFFFFFFFFFFFFFFFFFFFFFFFFF AND DUP2 PUSH20 0xFFFFFFFFFFFFFFFFFFFFFFFFFFFFFFFFFFFFFFFF AND SUB PUSH2 0xE4 JUMPI PUSH0 PUSH1 0x40 MLOAD PUSH32 0x1E4FBDF700000000000000000000000000000000000000000000000000000000 DUP2 MSTORE PUSH1 0x4 ADD PUSH2 0xDB SWAP2 SWAP1 PUSH2 0x2AE JUMP JUMPDEST PUSH1 0x40 MLOAD DUP1 SWAP2 SUB SWAP1 REVERT JUMPDEST PUSH2 0xF3 DUP2 PUSH2 0x142 PUSH1 0x20 SHL PUSH1 0x20 SHR JUMP JUMPDEST POP PUSH1 0x1 DUP1 DUP2 SWAP1 SSTORE POP DUP1 PUSH1 0x2 PUSH0 PUSH2 0x100 EXP DUP2 SLOAD DUP2 PUSH20 0xFFFFFFFFFFFFFFFFFFFFFFFFFFFFFFFFFFFFFFFF MUL NOT AND SWAP1 DUP4 PUSH20 0xFFFFFFFFFFFFFFFFFFFFFFFFFFFFFFFFFFFFFFFF AND MUL OR SWAP1 SSTORE POP POP POP PUSH2 0x2C7 JUMP JUMPDEST PUSH0 PUSH0 PUSH0 SWAP1 SLOAD SWAP1 PUSH2 0x100 EXP SWAP1 DIV PUSH20 0xFFFFFFFFFFFFFFFFFFFFFFFFFFFFFFFFFFFFFFFF AND SWAP1 POP DUP2 PUSH0 PUSH0 PUSH2 0x100 EXP DUP2 SLOAD DUP2 PUSH20 0xFFFFFFFFFFFFFFFFFFFFFFFFFFFFFFFFFFFFFFFF MUL NOT AND SWAP1 DUP4 PUSH20 0xFFFFFFFFFFFFFFFFFFFFFFFFFFFFFFFFFFFFFFFF AND MUL OR SWAP1 SSTORE POP DUP2 PUSH20 0xFFFFFFFFFFFFFFFFFFFFFFFFFFFFFFFFFFFFFFFF AND DUP2 PUSH20 0xFFFFFFFFFFFFFFFFFFFFFFFFFFFFFFFFFFFFFFFF AND PUSH32 0x8BE0079C531659141344CD1FD0A4F28419497F9722A3DAAFE3B4186F6B6457E0 PUSH1 0x40 MLOAD PUSH1 0x40 MLOAD DUP1 SWAP2 SUB SWAP1 LOG3 POP POP JUMP JUMPDEST PUSH0 PUSH0 REVERT JUMPDEST PUSH0 PUSH20 0xFFFFFFFFFFFFFFFFFFFFFFFFFFFFFFFFFFFFFFFF DUP3 AND SWAP1 POP SWAP2 SWAP1 POP JUMP JUMPDEST PUSH0 PUSH2 0x230 DUP3 PUSH2 0x207 JUMP JUMPDEST SWAP1 POP SWAP2 SWAP1 POP JUMP JUMPDEST PUSH2 0x240 DUP2 PUSH2 0x226 JUMP JUMPDEST DUP2 EQ PUSH2 0x24A JUMPI PUSH0 PUSH0 REVERT JUMPDEST POP JUMP JUMPDEST PUSH0 DUP2 MLOAD SWAP1 POP PUSH2 0x25B DUP2 PUSH2 0x237 JUMP JUMPDEST SWAP3 SWAP2 POP POP JUMP JUMPDEST PUSH0 PUSH0 PUSH1 0x40 DUP4 DUP6 SUB SLT ISZERO PUSH2 0x277 JUMPI PUSH2 0x276 PUSH2 0x203 JUMP JUMPDEST JUMPDEST PUSH0 PUSH2 0x284 DUP6 DUP3 DUP7 ADD PUSH2 0x24D JUMP JUMPDEST SWAP3 POP POP PUSH1 0x20 PUSH2 0x295 DUP6 DUP3 DUP7 ADD PUSH2 0x24D JUMP JUMPDEST SWAP2 POP POP SWAP3 POP SWAP3 SWAP1 POP JUMP JUMPDEST PUSH2 0x2A8 DUP2 PUSH2 0x226 JUMP JUMPDEST DUP3 MSTORE POP POP JUMP JUMPDEST PUSH0 PUSH1 0x20 DUP3 ADD SWAP1 POP PUSH2 0x2C1 PUSH0 DUP4 ADD DUP5 PUSH2 0x29F JUMP JUMPDEST SWAP3 SWAP2 POP POP JUMP JUMPDEST PUSH1 0x80 MLOAD PUSH2 0x2681 PUSH2 0x2F4 PUSH0 CODECOPY PUSH0 DUP2 DUP2 PUSH2 0x68B ADD MSTORE DUP2 DUP2 PUSH2 0x6DF ADD MSTORE DUP2 DUP2 PUSH2 0xDD8 ADD MSTORE PUSH2 0x1012 ADD MSTORE PUSH2 0x2681 PUSH0 RETURN INVALID PUSH1 0x80 PUSH1 0x40 MSTORE PUSH1 0x4 CALLDATASIZE LT PUSH2 0x19B JUMPI PUSH0 CALLDATALOAD PUSH1 0xE0 SHR DUP1 PUSH4 0xBC7F25E4 GT PUSH2 0xEB JUMPI DUP1 PUSH4 0xD69FD7B9 GT PUSH2 0x89 JUMPI DUP1 PUSH4 0xEE59D240 GT PUSH2 0x63 JUMPI DUP1 PUSH4 0xEE59D240 EQ PUSH2 0x5D1 JUMPI DUP1 PUSH4 0xF2FDE38B EQ PUSH2 0x5FB JUMPI DUP1 PUSH4 0xF379469B EQ PUSH2 0x623 JUMPI DUP1 PUSH4 0xF68017CD EQ PUSH2 0x64D JUMPI PUSH2 0x19B JUMP JUMPDEST DUP1 PUSH4 0xD69FD7B9 EQ PUSH2 0x543 JUMPI DUP1 PUSH4 0xE231B0EF EQ PUSH2 0x57F JUMPI DUP1 PUSH4 0xE27FF2BA EQ PUSH2 0x5A9 JUMPI PUSH2 0x19B JUMP JUMPDEST DUP1 PUSH4 0xC32B5373 GT PUSH2 0xC5 JUMPI DUP1 PUSH4 0xC32B5373 EQ PUSH2 0x471 JUMPI DUP1 PUSH4 0xC4F343FD EQ PUSH2 0x49B JUMPI DUP1 PUSH4 0xD0821B0E EQ PUSH2 0x4D7 JUMPI DUP1 PUSH4 0xD21CACDF EQ PUSH2 0x507 JUMPI PUSH2 0x19B JUMP JUMPDEST DUP1 PUSH4 0xBC7F25E4 EQ PUSH2 0x3E1 JUMPI DUP1 PUSH4 0xBDCF1753 EQ PUSH2 0x41D JUMPI DUP1 PUSH4 0xBEFA1E2F EQ PUSH2 0x447 JUMPI PUSH2 0x19B JUMP JUMPDEST DUP1 PUSH4 0x4B114691 GT PUSH2 0x158 JUMPI DUP1 PUSH4 0x708666AD GT PUSH2 0x132 JUMPI DUP1 PUSH4 0x708666AD EQ PUSH2 0x34F JUMPI DUP1 PUSH4 0x715018A6 EQ PUSH2 0x379 JUMPI DUP1 PUSH4 0x8DA5CB5B EQ PUSH2 0x38F JUMPI DUP1 PUSH4 0xBC6E8020 EQ PUSH2 0x3B9 JUMPI PUSH2 0x19B JUMP JUMPDEST DUP1 PUSH4 0x4B114691 EQ PUSH2 0x2BD JUMPI DUP1 PUSH4 0x5A09F2F4 EQ PUSH2 0x2FD JUMPI DUP1 PUSH4 0x5C492129 EQ PUSH2 0x325 JUMPI PUSH2 0x19B JUMP JUMPDEST DUP1 PUSH4 0x1FE543E3 EQ PUSH2 0x19F JUMPI DUP1 PUSH4 0x22AF00FA EQ PUSH2 0x1C7 JUMPI DUP1 PUSH4 0x30330615 EQ PUSH2 0x205 JUMPI DUP1 PUSH4 0x33D608F1 EQ PUSH2 0x22D JUMPI DUP1 PUSH4 0x44AF2EDB EQ PUSH2 0x257 JUMPI DUP1 PUSH4 0x454F7B8F EQ PUSH2 0x293 JUMPI JUMPDEST PUSH0 PUSH0 REVERT JUMPDEST CALLVALUE DUP1 ISZERO PUSH2 0x1AA JUMPI PUSH0 PUSH0 REVERT JUMPDEST POP PUSH2 0x1C5 PUSH1 0x4 DUP1 CALLDATASIZE SUB DUP2 ADD SWAP1 PUSH2 0x1C0 SWAP2 SWAP1 PUSH2 0x1E84 JUMP JUMPDEST PUSH2 0x689 JUMP JUMPDEST STOP JUMPDEST CALLVALUE DUP1 ISZERO PUSH2 0x1D2 JUMPI PUSH0 PUSH0 REVERT JUMPDEST POP PUSH2 0x1ED PUSH1 0x4 DUP1 CALLDATASIZE SUB DUP2 ADD SWAP1 PUSH2 0x1E8 SWAP2 SWAP1 PUSH2 0x1EE1 JUMP JUMPDEST PUSH2 0x74B JUMP JUMPDEST PUSH1 0x40 MLOAD PUSH2 0x1FC SWAP4 SWAP3 SWAP2 SWAP1 PUSH2 0x1F75 JUMP JUMPDEST PUSH1 0x40 MLOAD DUP1 SWAP2 SUB SWAP1 RETURN JUMPDEST CALLVALUE DUP1 ISZERO PUSH2 0x210 JUMPI PUSH0 PUSH0 REVERT JUMPDEST POP PUSH2 0x22B PUSH1 0x4 DUP1 CALLDATASIZE SUB DUP2 ADD SWAP1 PUSH2 0x226 SWAP2 SWAP1 PUSH2 0x1FDD JUMP JUMPDEST PUSH2 0x79C JUMP JUMPDEST STOP JUMPDEST CALLVALUE DUP1 ISZERO PUSH2 0x238 JUMPI PUSH0 PUSH0 REVERT JUMPDEST POP PUSH2 0x241 PUSH2 0x93D JUMP JUMPDEST PUSH1 0x40 MLOAD PUSH2 0x24E SWAP2 SWAP1 PUSH2 0x2026 JUMP JUMPDEST PUSH1 0x40 MLOAD DUP1 SWAP2 SUB SWAP1 RETURN JUMPDEST CALLVALUE DUP1 ISZERO PUSH2 0x262 JUMPI PUSH0 PUSH0 REVERT JUMPDEST POP PUSH2 0x27D PUSH1 0x4 DUP1 CALLDATASIZE SUB DUP2 ADD SWAP1 PUSH2 0x278 SWAP2 SWAP1 PUSH2 0x2069 JUMP JUMPDEST PUSH2 0x944 JUMP JUMPDEST PUSH1 0x40 MLOAD PUSH2 0x28A SWAP2 SWAP1 PUSH2 0x20A3 JUMP JUMPDEST PUSH1 0x40 MLOAD DUP1 SWAP2 SUB SWAP1 RETURN JUMPDEST CALLVALUE DUP1 ISZERO PUSH2 0x29E JUMPI PUSH0 PUSH0 REVERT JUMPDEST POP PUSH2 0x2A7 PUSH2 0x959 JUMP JUMPDEST PUSH1 0x40 MLOAD PUSH2 0x2B4 SWAP2 SWAP1 PUSH2 0x20BC JUMP JUMPDEST PUSH1 0x40 MLOAD DUP1 SWAP2 SUB SWAP1 RETURN JUMPDEST CALLVALUE DUP1 ISZERO PUSH2 0x2C8 JUMPI PUSH0 PUSH0 REVERT JUMPDEST POP PUSH2 0x2E3 PUSH1 0x4 DUP1 CALLDATASIZE SUB DUP2 ADD SWAP1 PUSH2 0x2DE SWAP2 SWAP1 PUSH2 0x2069 JUMP JUMPDEST PUSH2 0x95F JUMP JUMPDEST PUSH1 0x40 MLOAD PUSH2 0x2F4 SWAP6 SWAP5 SWAP4 SWAP3 SWAP2 SWAP1 PUSH2 0x20D5 JUMP JUMPDEST PUSH1 0x40 MLOAD DUP1 SWAP2 SUB SWAP1 RETURN JUMPDEST CALLVALUE DUP1 ISZERO PUSH2 0x308 JUMPI PUSH0 PUSH0 REVERT JUMPDEST POP PUSH2 0x323 PUSH1 0x4 DUP1 CALLDATASIZE SUB DUP2 ADD SWAP1 PUSH2 0x31E SWAP2 SWAP1 PUSH2 0x1EE1 JUMP JUMPDEST PUSH2 0x991 JUMP JUMPDEST STOP JUMPDEST CALLVALUE DUP1 ISZERO PUSH2 0x330 JUMPI PUSH0 PUSH0 REVERT JUMPDEST POP PUSH2 0x339 PUSH2 0x9DF JUMP JUMPDEST PUSH1 0x40 MLOAD PUSH2 0x346 SWAP2 SWAP1 PUSH2 0x20BC JUMP JUMPDEST PUSH1 0x40 MLOAD DUP1 SWAP2 SUB SWAP1 RETURN JUMPDEST CALLVALUE DUP1 ISZERO PUSH2 0x35A JUMPI PUSH0 PUSH0 REVERT JUMPDEST POP PUSH2 0x363 PUSH2 0x9E5 JUMP JUMPDEST PUSH1 0x40 MLOAD PUSH2 0x370 SWAP2 SWAP1 PUSH2 0x2181 JUMP JUMPDEST PUSH1 0x40 MLOAD DUP1 SWAP2 SUB SWAP1 RETURN JUMPDEST CALLVALUE DUP1 ISZERO PUSH2 0x384 JUMPI PUSH0 PUSH0 REVERT JUMPDEST POP PUSH2 0x38D PUSH2 0xA0A JUMP JUMPDEST STOP JUMPDEST CALLVALUE DUP1 ISZERO PUSH2 0x39A JUMPI PUSH0 PUSH0 REVERT JUMPDEST POP PUSH2 0x3A3 PUSH2 0xA1D JUMP JUMPDEST PUSH1 0x40 MLOAD PUSH2 0x3B0 SWAP2 SWAP1 PUSH2 0x219A JUMP JUMPDEST PUSH1 0x40 MLOAD DUP1 SWAP2 SUB SWAP1 RETURN JUMPDEST CALLVALUE DUP1 ISZERO PUSH2 0x3C4 JUMPI PUSH0 PUSH0 REVERT JUMPDEST POP PUSH2 0x3DF PUSH1 0x4 DUP1 CALLDATASIZE SUB DUP2 ADD SWAP1 PUSH2 0x3DA SWAP2 SWAP1 PUSH2 0x1FDD JUMP JUMPDEST PUSH2 0xA44 JUMP JUMPDEST STOP JUMPDEST CALLVALUE DUP1 ISZERO PUSH2 0x3EC JUMPI PUSH0 PUSH0 REVERT JUMPDEST POP PUSH2 0x407 PUSH1 0x4 DUP1 CALLDATASIZE SUB DUP2 ADD SWAP1 PUSH2 0x402 SWAP2 SWAP1 PUSH2 0x2069 JUMP JUMPDEST PUSH2 0xCD9 JUMP JUMPDEST PUSH1 0x40 MLOAD PUSH2 0x414 SWAP2 SWAP1 PUSH2 0x219A JUMP JUMPDEST PUSH1 0x40 MLOAD DUP1 SWAP2 SUB SWAP1 RETURN JUMPDEST CALLVALUE DUP1 ISZERO PUSH2 0x428 JUMPI PUSH0 PUSH0 REVERT JUMPDEST POP PUSH2 0x431 PUSH2 0xD3E JUMP JUMPDEST PUSH1 0x40 MLOAD PUSH2 0x43E SWAP2 SWAP1 PUSH2 0x20BC JUMP JUMPDEST PUSH1 0x40 MLOAD DUP1 SWAP2 SUB SWAP1 RETURN JUMPDEST CALLVALUE DUP1 ISZERO PUSH2 0x452 JUMPI PUSH0 PUSH0 REVERT JUMPDEST POP PUSH2 0x45B PUSH2 0xD44 JUMP JUMPDEST PUSH1 0x40 MLOAD PUSH2 0x468 SWAP2 SWAP1 PUSH2 0x20BC JUMP JUMPDEST PUSH1 0x40 MLOAD DUP1 SWAP2 SUB SWAP1 RETURN JUMPDEST CALLVALUE DUP1 ISZERO PUSH2 0x47C JUMPI PUSH0 PUSH0 REVERT JUMPDEST POP PUSH2 0x485 PUSH2 0xD4A JUMP JUMPDEST PUSH1 0x40 MLOAD PUSH2 0x492 SWAP2 SWAP1 PUSH2 0x20BC JUMP JUMPDEST PUSH1 0x40 MLOAD DUP1 SWAP2 SUB SWAP1 RETURN JUMPDEST CALLVALUE DUP1 ISZERO PUSH2 0x4A6 JUMPI PUSH0 PUSH0 REVERT JUMPDEST POP PUSH2 0x4C1 PUSH1 0x4 DUP1 CALLDATASIZE SUB DUP2 ADD SWAP1 PUSH2 0x4BC SWAP2 SWAP1 PUSH2 0x1FDD JUMP JUMPDEST PUSH2 0xD50 JUMP JUMPDEST PUSH1 0x40 MLOAD PUSH2 0x4CE SWAP2 SWAP1 PUSH2 0x219A JUMP JUMPDEST PUSH1 0x40 MLOAD DUP1 SWAP2 SUB SWAP1 RETURN JUMPDEST PUSH2 0x4F1 PUSH1 0x4 DUP1 CALLDATASIZE SUB DUP2 ADD SWAP1 PUSH2 0x4EC SWAP2 SWAP1 PUSH2 0x21DD JUMP JUMPDEST PUSH2 0xD80 JUMP JUMPDEST PUSH1 0x40 MLOAD PUSH2 0x4FE SWAP2 SWAP1 PUSH2 0x20BC JUMP JUMPDEST PUSH1 0x40 MLOAD DUP1 SWAP2 SUB SWAP1 RETURN JUMPDEST CALLVALUE DUP1 ISZERO PUSH2 0x512 JUMPI PUSH0 PUSH0 REVERT JUMPDEST POP PUSH2 0x52D PUSH1 0x4 DUP1 CALLDATASIZE SUB DUP2 ADD SWAP1 PUSH2 0x528 SWAP2 SWAP1 PUSH2 0x2069 JUMP JUMPDEST PUSH2 0x164F JUMP JUMPDEST PUSH1 0x40 MLOAD PUSH2 0x53A SWAP2 SWAP1 PUSH2 0x219A JUMP JUMPDEST PUSH1 0x40 MLOAD DUP1 SWAP2 SUB SWAP1 RETURN JUMPDEST CALLVALUE DUP1 ISZERO PUSH2 0x54E JUMPI PUSH0 PUSH0 REVERT JUMPDEST POP PUSH2 0x569 PUSH1 0x4 DUP1 CALLDATASIZE SUB DUP2 ADD SWAP1 PUSH2 0x564 SWAP2 SWAP1 PUSH2 0x2069 JUMP JUMPDEST PUSH2 0x167F JUMP JUMPDEST PUSH1 0x40 MLOAD PUSH2 0x576 SWAP2 SWAP1 PUSH2 0x20A3 JUMP JUMPDEST PUSH1 0x40 MLOAD DUP1 SWAP2 SUB SWAP1 RETURN JUMPDEST CALLVALUE DUP1 ISZERO PUSH2 0x58A JUMPI PUSH0 PUSH0 REVERT JUMPDEST POP PUSH2 0x593 PUSH2 0x16C5 JUMP JUMPDEST PUSH1 0x40 MLOAD PUSH2 0x5A0 SWAP2 SWAP1 PUSH2 0x20BC JUMP JUMPDEST PUSH1 0x40 MLOAD DUP1 SWAP2 SUB SWAP1 RETURN JUMPDEST CALLVALUE DUP1 ISZERO PUSH2 0x5B4 JUMPI PUSH0 PUSH0 REVERT JUMPDEST POP PUSH2 0x5CF PUSH1 0x4 DUP1 CALLDATASIZE SUB DUP2 ADD SWAP1 PUSH2 0x5CA SWAP2 SWAP1 PUSH2 0x1EE1 JUMP JUMPDEST PUSH2 0x16CB JUMP JUMPDEST STOP JUMPDEST CALLVALUE DUP1 ISZERO PUSH2 0x5DC JUMPI PUSH0 PUSH0 REVERT JUMPDEST POP PUSH2 0x5E5 PUSH2 0x1719 JUMP JUMPDEST PUSH1 0x40 MLOAD PUSH2 0x5F2 SWAP2 SWAP1 PUSH2 0x20BC JUMP JUMPDEST PUSH1 0x40 MLOAD DUP1 SWAP2 SUB SWAP1 RETURN JUMPDEST CALLVALUE DUP1 ISZERO PUSH2 0x606 JUMPI PUSH0 PUSH0 REVERT JUMPDEST POP PUSH2 0x621 PUSH1 0x4 DUP1 CALLDATASIZE SUB DUP2 ADD SWAP1 PUSH2 0x61C SWAP2 SWAP1 PUSH2 0x2069 JUMP JUMPDEST PUSH2 0x171F JUMP JUMPDEST STOP JUMPDEST CALLVALUE DUP1 ISZERO PUSH2 0x62E JUMPI PUSH0 PUSH0 REVERT JUMPDEST POP PUSH2 0x637 PUSH2 0x17A3 JUMP JUMPDEST PUSH1 0x40 MLOAD PUSH2 0x644 SWAP2 SWAP1 PUSH2 0x20BC JUMP JUMPDEST PUSH1 0x40 MLOAD DUP1 SWAP2 SUB SWAP1 RETURN JUMPDEST CALLVALUE DUP1 ISZERO PUSH2 0x658 JUMPI PUSH0 PUSH0 REVERT JUMPDEST POP PUSH2 0x673 PUSH1 0x4 DUP1 CALLDATASIZE SUB DUP2 ADD SWAP1 PUSH2 0x66E SWAP2 SWAP1 PUSH2 0x1FDD JUMP JUMPDEST PUSH2 0x17A9 JUMP JUMPDEST PUSH1 0x40 MLOAD PUSH2 0x680 SWAP2 SWAP1 PUSH2 0x219A JUMP JUMPDEST PUSH1 0x40 MLOAD DUP1 SWAP2 SUB SWAP1 RETURN JUMPDEST PUSH32 0x0 PUSH20 0xFFFFFFFFFFFFFFFFFFFFFFFFFFFFFFFFFFFFFFFF AND CALLER PUSH20 0xFFFFFFFFFFFFFFFFFFFFFFFFFFFFFFFFFFFFFFFF AND EQ PUSH2 0x73B JUMPI CALLER PUSH32 0x0 PUSH1 0x40 MLOAD PUSH32 0x20138A9F00000000000000000000000000000000000000000000000000000000 DUP2 MSTORE PUSH1 0x4 ADD PUSH2 0x732 SWAP3 SWAP2 SWAP1 PUSH2 0x2208 JUMP JUMPDEST PUSH1 0x40 MLOAD DUP1 SWAP2 SUB SWAP1 REVERT JUMPDEST PUSH2 0x746 DUP4 DUP4 DUP4 PUSH2 0x17E2 JUMP JUMPDEST POP POP POP JUMP JUMPDEST PUSH1 0x3 PUSH1 0x20 MSTORE DUP1 PUSH0 MSTORE PUSH1 0x40 PUSH0 KECCAK256 PUSH0 SWAP2 POP SWAP1 POP DUP1 PUSH0 ADD PUSH0 SWAP1 SLOAD SWAP1 PUSH2 0x100 EXP SWAP1 DIV PUSH20 0xFFFFFFFFFFFFFFFFFFFFFFFFFFFFFFFFFFFFFFFF AND SWAP1 DUP1 PUSH1 0x1 ADD SLOAD SWAP1 DUP1 PUSH1 0x2 ADD PUSH0 SWAP1 SLOAD SWAP1 PUSH2 0x100 EXP SWAP1 DIV PUSH1 0xFF AND SWAP1 POP DUP4 JUMP JUMPDEST PUSH0 PUSH0 SHL PUSH1 0x5 PUSH0 CALLER PUSH20 0xFFFFFFFFFFFFFFFFFFFFFFFFFFFFFFFFFFFFFFFF AND PUSH20 0xFFFFFFFFFFFFFFFFFFFFFFFFFFFFFFFFFFFFFFFF AND DUP2 MSTORE PUSH1 0x20 ADD SWAP1 DUP2 MSTORE PUSH1 0x20 ADD PUSH0 KECCAK256 SLOAD EQ PUSH2 0x814 JUMPI PUSH1 0x40 MLOAD PUSH32 0x809DC80800000000000000000000000000000000000000000000000000000000 DUP2 MSTORE PUSH1 0x4 ADD PUSH1 0x40 MLOAD DUP1 SWAP2 SUB SWAP1 REVERT JUMPDEST PUSH0 PUSH20 0xFFFFFFFFFFFFFFFFFFFFFFFFFFFFFFFFFFFFFFFF AND PUSH1 0x4 PUSH0 DUP4 DUP2 MSTORE PUSH1 0x20 ADD SWAP1 DUP2 MSTORE PUSH1 0x20 ADD PUSH0 KECCAK256 PUSH0 SWAP1 SLOAD SWAP1 PUSH2 0x100 EXP SWAP1 DIV PUSH20 0xFFFFFFFFFFFFFFFFFFFFFFFFFFFFFFFFFFFFFFFF AND PUSH20 0xFFFFFFFFFFFFFFFFFFFFFFFFFFFFFFFFFFFFFFFF AND EQ PUSH2 0x8A9 JUMPI PUSH1 0x40 MLOAD PUSH32 0x374BE26400000000000000000000000000000000000000000000000000000000 DUP2 MSTORE PUSH1 0x4 ADD PUSH1 0x40 MLOAD DUP1 SWAP2 SUB SWAP1 REVERT JUMPDEST CALLER PUSH1 0x4 PUSH0 DUP4 DUP2 MSTORE PUSH1 0x20 ADD SWAP1 DUP2 MSTORE PUSH1 0x20 ADD PUSH0 KECCAK256 PUSH0 PUSH2 0x100 EXP DUP2 SLOAD DUP2 PUSH20 0xFFFFFFFFFFFFFFFFFFFFFFFFFFFFFFFFFFFFFFFF MUL NOT AND SWAP1 DUP4 PUSH20 0xFFFFFFFFFFFFFFFFFFFFFFFFFFFFFFFFFFFFFFFF AND MUL OR SWAP1 SSTORE POP DUP1 PUSH1 0x5 PUSH0 CALLER PUSH20 0xFFFFFFFFFFFFFFFFFFFFFFFFFFFFFFFFFFFFFFFF AND PUSH20 0xFFFFFFFFFFFFFFFFFFFFFFFFFFFFFFFFFFFFFFFF AND DUP2 MSTORE PUSH1 0x20 ADD SWAP1 DUP2 MSTORE PUSH1 0x20 ADD PUSH0 KECCAK256 DUP2 SWAP1 SSTORE POP POP JUMP JUMPDEST PUSH3 0x30D40 DUP2 JUMP JUMPDEST PUSH1 0x5 PUSH1 0x20 MSTORE DUP1 PUSH0 MSTORE PUSH1 0x40 PUSH0 KECCAK256 PUSH0 SWAP2 POP SWAP1 POP SLOAD DUP2 JUMP JUMPDEST PUSH1 0xB SLOAD DUP2 JUMP JUMPDEST PUSH1 0x7 PUSH1 0x20 MSTORE DUP1 PUSH0 MSTORE PUSH1 0x40 PUSH0 KECCAK256 PUSH0 SWAP2 POP SWAP1 POP DUP1 PUSH0 ADD SLOAD SWAP1 DUP1 PUSH1 0x1 ADD SLOAD SWAP1 DUP1 PUSH1 0x2 ADD SLOAD SWAP1 DUP1 PUSH1 0x3 ADD SLOAD SWAP1 DUP1 PUSH1 0x4 ADD SLOAD SWAP1 POP DUP6 JUMP JUMPDEST PUSH2 0x999 PUSH2 0x1C41 JUMP JUMPDEST PUSH2 0x7D0 DUP2 GT ISZERO PUSH2 0x9D5 JUMPI PUSH1 0x40 MLOAD PUSH32 0xCD4E616700000000000000000000000000000000000000000000000000000000 DUP2 MSTORE PUSH1 0x4 ADD PUSH1 0x40 MLOAD DUP1 SWAP2 SUB SWAP1 REVERT JUMPDEST DUP1 PUSH1 0x8 DUP2 SWAP1 SSTORE POP POP JUMP JUMPDEST PUSH1 0xC SLOAD DUP2 JUMP JUMPDEST PUSH1 0x2 PUSH0 SWAP1 SLOAD SWAP1 PUSH2 0x100 EXP SWAP1 DIV PUSH20 0xFFFFFFFFFFFFFFFFFFFFFFFFFFFFFFFFFFFFFFFF AND DUP2 JUMP JUMPDEST PUSH2 0xA12 PUSH2 0x1C41 JUMP JUMPDEST PUSH2 0xA1B PUSH0 PUSH2 0x1CC8 JUMP JUMPDEST JUMP JUMPDEST PUSH0 PUSH0 PUSH0 SWAP1 SLOAD SWAP1 PUSH2 0x100 EXP SWAP1 DIV PUSH20 0xFFFFFFFFFFFFFFFFFFFFFFFFFFFFFFFFFFFFFFFF AND SWAP1 POP SWAP1 JUMP JUMPDEST PUSH0 PUSH1 0x4 PUSH0 DUP4 DUP2 MSTORE PUSH1 0x20 ADD SWAP1 DUP2 MSTORE PUSH1 0x20 ADD PUSH0 KECCAK256 PUSH0 SWAP1 SLOAD SWAP1 PUSH2 0x100 EXP SWAP1 DIV PUSH20 0xFFFFFFFFFFFFFFFFFFFFFFFFFFFFFFFFFFFFFFFF AND SWAP1 POP CALLER PUSH20 0xFFFFFFFFFFFFFFFFFFFFFFFFFFFFFFFFFFFFFFFF AND DUP2 PUSH20 0xFFFFFFFFFFFFFFFFFFFFFFFFFFFFFFFFFFFFFFFF AND SUB PUSH2 0xADD JUMPI PUSH1 0x40 MLOAD PUSH32 0x6D0F1F8200000000000000000000000000000000000000000000000000000000 DUP2 MSTORE PUSH1 0x4 ADD PUSH1 0x40 MLOAD DUP1 SWAP2 SUB SWAP1 REVERT JUMPDEST PUSH0 PUSH20 0xFFFFFFFFFFFFFFFFFFFFFFFFFFFFFFFFFFFFFFFF AND DUP2 PUSH20 0xFFFFFFFFFFFFFFFFFFFFFFFFFFFFFFFFFFFFFFFF AND SUB PUSH2 0xB42 JUMPI PUSH1 0x40 MLOAD PUSH32 0x865DC59C00000000000000000000000000000000000000000000000000000000 DUP2 MSTORE PUSH1 0x4 ADD PUSH1 0x40 MLOAD DUP1 SWAP2 SUB SWAP1 REVERT JUMPDEST PUSH0 PUSH20 0xFFFFFFFFFFFFFFFFFFFFFFFFFFFFFFFFFFFFFFFF AND PUSH1 0x6 PUSH0 CALLER PUSH20 0xFFFFFFFFFFFFFFFFFFFFFFFFFFFFFFFFFFFFFFFF AND PUSH20 0xFFFFFFFFFFFFFFFFFFFFFFFFFFFFFFFFFFFFFFFF AND DUP2 MSTORE PUSH1 0x20 ADD SWAP1 DUP2 MSTORE PUSH1 0x20 ADD PUSH0 KECCAK256 PUSH0 SWAP1 SLOAD SWAP1 PUSH2 0x100 EXP SWAP1 DIV PUSH20 0xFFFFFFFFFFFFFFFFFFFFFFFFFFFFFFFFFFFFFFFF AND PUSH20 0xFFFFFFFFFFFFFFFFFFFFFFFFFFFFFFFFFFFFFFFF AND EQ PUSH2 0xC03 JUMPI PUSH1 0x40 MLOAD PUSH32 0x967C839800000000000000000000000000000000000000000000000000000000 DUP2 MSTORE PUSH1 0x4 ADD PUSH1 0x40 MLOAD DUP1 SWAP2 SUB SWAP1 REVERT JUMPDEST DUP1 PUSH1 0x6 PUSH0 CALLER PUSH20 0xFFFFFFFFFFFFFFFFFFFFFFFFFFFFFFFFFFFFFFFF AND PUSH20 0xFFFFFFFFFFFFFFFFFFFFFFFFFFFFFFFFFFFFFFFF AND DUP2 MSTORE PUSH1 0x20 ADD SWAP1 DUP2 MSTORE PUSH1 0x20 ADD PUSH0 KECCAK256 PUSH0 PUSH2 0x100 EXP DUP2 SLOAD DUP2 PUSH20 0xFFFFFFFFFFFFFFFFFFFFFFFFFFFFFFFFFFFFFFFF MUL NOT AND SWAP1 DUP4 PUSH20 0xFFFFFFFFFFFFFFFFFFFFFFFFFFFFFFFFFFFFFFFF AND MUL OR SWAP1 SSTORE POP PUSH1 0x1 PUSH1 0x7 PUSH0 DUP4 PUSH20 0xFFFFFFFFFFFFFFFFFFFFFFFFFFFFFFFFFFFFFFFF AND PUSH20 0xFFFFFFFFFFFFFFFFFFFFFFFFFFFFFFFFFFFFFFFF AND DUP2 MSTORE PUSH1 0x20 ADD SWAP1 DUP2 MSTORE PUSH1 0x20 ADD PUSH0 KECCAK256 PUSH1 0x4 ADD PUSH0 DUP3 DUP3 SLOAD PUSH2 0xCCE SWAP2 SWAP1 PUSH2 0x225C JUMP JUMPDEST SWAP3 POP POP DUP2 SWAP1 SSTORE POP POP POP JUMP JUMPDEST PUSH0 PUSH1 0x6 PUSH0 DUP4 PUSH20 0xFFFFFFFFFFFFFFFFFFFFFFFFFFFFFFFFFFFFFFFF AND PUSH20 0xFFFFFFFFFFFFFFFFFFFFFFFFFFFFFFFFFFFFFFFF AND DUP2 MSTORE PUSH1 0x20 ADD SWAP1 DUP2 MSTORE PUSH1 0x20 ADD PUSH0 KECCAK256 PUSH0 SWAP1 SLOAD SWAP1 PUSH2 0x100 EXP SWAP1 DIV PUSH20 0xFFFFFFFFFFFFFFFFFFFFFFFFFFFFFFFFFFFFFFFF AND SWAP1 POP SWAP2 SWAP1 POP JUMP JUMPDEST PUSH1 0x9 SLOAD DUP2 JUMP JUMPDEST PUSH1 0xA SLOAD DUP2 JUMP JUMPDEST PUSH1 0xD SLOAD DUP2 JUMP JUMPDEST PUSH1 0x4 PUSH1 0x20 MSTORE DUP1 PUSH0 MSTORE PUSH1 0x40 PUSH0 KECCAK256 PUSH0 SWAP2 POP SLOAD SWAP1 PUSH2 0x100 EXP SWAP1 DIV PUSH20 0xFFFFFFFFFFFFFFFFFFFFFFFFFFFFFFFFFFFFFFFF AND DUP2 JUMP JUMPDEST PUSH0 PUSH2 0xD89 PUSH2 0x1D89 JUMP JUMPDEST PUSH1 0x1 DUP3 PUSH1 0xFF AND LT DUP1 PUSH2 0xD9E JUMPI POP PUSH1 0x5 DUP3 PUSH1 0xFF AND GT JUMPDEST ISZERO PUSH2 0xDD5 JUMPI PUSH1 0x40 MLOAD PUSH32 0x364E219700000000000000000000000000000000000000000000000000000000 DUP2 MSTORE PUSH1 0x4 ADD PUSH1 0x40 MLOAD DUP1 SWAP2 SUB SWAP1 REVERT JUMPDEST PUSH0 PUSH32 0x0 PUSH20 0xFFFFFFFFFFFFFFFFFFFFFFFFFFFFFFFFFFFFFFFF AND PUSH4 0xC66D3D18 PUSH3 0x30D40 PUSH1 0x40 MLOAD DUP3 PUSH4 0xFFFFFFFF AND PUSH1 0xE0 SHL DUP2 MSTORE PUSH1 0x4 ADD PUSH2 0xE32 SWAP2 SWAP1 PUSH2 0x22BF JUMP JUMPDEST PUSH1 0x20 PUSH1 0x40 MLOAD DUP1 DUP4 SUB DUP2 DUP7 GAS STATICCALL ISZERO DUP1 ISZERO PUSH2 0xE4D JUMPI RETURNDATASIZE PUSH0 PUSH0 RETURNDATACOPY RETURNDATASIZE PUSH0 REVERT JUMPDEST POP POP POP POP PUSH1 0x40 MLOAD RETURNDATASIZE PUSH1 0x1F NOT PUSH1 0x1F DUP3 ADD AND DUP3 ADD DUP1 PUSH1 0x40 MSTORE POP DUP2 ADD SWAP1 PUSH2 0xE71 SWAP2 SWAP1 PUSH2 0x22EC JUMP JUMPDEST SWAP1 POP DUP1 CALLVALUE GT PUSH2 0xEAC JUMPI PUSH1 0x40 MLOAD PUSH32 0xCD1C886700000000000000000000000000000000000000000000000000000000 DUP2 MSTORE PUSH1 0x4 ADD PUSH1 0x40 MLOAD DUP1 SWAP2 SUB SWAP1 REVERT JUMPDEST PUSH0 DUP2 CALLVALUE PUSH2 0xEB9 SWAP2 SWAP1 PUSH2 0x2317 JUMP JUMPDEST SWAP1 POP PUSH8 0xDE0B6B3A7640000 CALLVALUE LT ISZERO PUSH2 0xEFD JUMPI PUSH1 0x40 MLOAD PUSH32 0xD312A68800000000000000000000000000000000000000000000000000000000 DUP2 MSTORE PUSH1 0x4 ADD PUSH1 0x40 MLOAD DUP1 SWAP2 SUB SWAP1 REVERT JUMPDEST PUSH0 PUSH1 0x2 PUSH0 SWAP1 SLOAD SWAP1 PUSH2 0x100 EXP SWAP1 DIV PUSH20 0xFFFFFFFFFFFFFFFFFFFFFFFFFFFFFFFFFFFFFFFF AND PUSH20 0xFFFFFFFFFFFFFFFFFFFFFFFFFFFFFFFFFFFFFFFF AND PUSH4 0x910A510 PUSH1 0x40 MLOAD DUP2 PUSH4 0xFFFFFFFF AND PUSH1 0xE0 SHL DUP2 MSTORE PUSH1 0x4 ADD PUSH1 0x20 PUSH1 0x40 MLOAD DUP1 DUP4 SUB DUP2 DUP7 GAS STATICCALL ISZERO DUP1 ISZERO PUSH2 0xF68 JUMPI RETURNDATASIZE PUSH0 PUSH0 RETURNDATACOPY RETURNDATASIZE PUSH0 REVERT JUMPDEST POP POP POP POP PUSH1 0x40 MLOAD RETURNDATASIZE PUSH1 0x1F NOT PUSH1 0x1F DUP3 ADD AND DUP3 ADD DUP1 PUSH1 0x40 MSTORE POP DUP2 ADD SWAP1 PUSH2 0xF8C SWAP2 SWAP1 PUSH2 0x22EC JUMP JUMPDEST SWAP1 POP PUSH0 DUP6 PUSH1 0x6 PUSH2 0xF9C SWAP2 SWAP1 PUSH2 0x234A JUMP JUMPDEST PUSH1 0xFF AND PUSH1 0x6 DUP5 PUSH2 0xFAC SWAP2 SWAP1 PUSH2 0x237E JUMP JUMPDEST PUSH2 0xFB6 SWAP2 SWAP1 PUSH2 0x23EC JUMP JUMPDEST SWAP1 POP PUSH0 PUSH2 0x2710 PUSH1 0x9 SLOAD DUP5 PUSH2 0xFCA SWAP2 SWAP1 PUSH2 0x237E JUMP JUMPDEST PUSH2 0xFD4 SWAP2 SWAP1 PUSH2 0x23EC JUMP JUMPDEST SWAP1 POP DUP1 DUP3 GT ISZERO PUSH2 0x1010 JUMPI PUSH1 0x40 MLOAD PUSH32 0x2ED7ADCC00000000000000000000000000000000000000000000000000000000 DUP2 MSTORE PUSH1 0x4 ADD PUSH1 0x40 MLOAD DUP1 SWAP2 SUB SWAP1 REVERT JUMPDEST PUSH32 0x0 PUSH20 0xFFFFFFFFFFFFFFFFFFFFFFFFFFFFFFFFFFFFFFFF AND PUSH4 0xCB9BB27F DUP7 PUSH3 0x30D40 PUSH1 0x1 PUSH1 0x2 PUSH0 SWAP1 SLOAD SWAP1 PUSH2 0x100 EXP SWAP1 DIV PUSH20 0xFFFFFFFFFFFFFFFFFFFFFFFFFFFFFFFFFFFFFFFF AND PUSH1 0x40 MLOAD DUP6 PUSH4 0xFFFFFFFF AND PUSH1 0xE0 SHL DUP2 MSTORE PUSH1 0x4 ADD PUSH2 0x1093 SWAP4 SWAP3 SWAP2 SWAP1 PUSH2 0x2455 JUMP JUMPDEST PUSH1 0x20 PUSH1 0x40 MLOAD DUP1 DUP4 SUB DUP2 DUP6 DUP9 GAS CALL ISZERO DUP1 ISZERO PUSH2 0x10AF JUMPI RETURNDATASIZE PUSH0 PUSH0 RETURNDATACOPY RETURNDATASIZE PUSH0 REVERT JUMPDEST POP POP POP POP POP PUSH1 0x40 MLOAD RETURNDATASIZE PUSH1 0x1F NOT PUSH1 0x1F DUP3 ADD AND DUP3 ADD DUP1 PUSH1 0x40 MSTORE POP DUP2 ADD SWAP1 PUSH2 0x10D4 SWAP2 SWAP1 PUSH2 0x22EC JUMP JUMPDEST SWAP6 POP PUSH0 PUSH1 0x6 PUSH0 CALLER PUSH20 0xFFFFFFFFFFFFFFFFFFFFFFFFFFFFFFFFFFFFFFFF AND PUSH20 0xFFFFFFFFFFFFFFFFFFFFFFFFFFFFFFFFFFFFFFFF AND DUP2 MSTORE PUSH1 0x20 ADD SWAP1 DUP2 MSTORE PUSH1 0x20 ADD PUSH0 KECCAK256 PUSH0 SWAP1 SLOAD SWAP1 PUSH2 0x100 EXP SWAP1 DIV PUSH20 0xFFFFFFFFFFFFFFFFFFFFFFFFFFFFFFFFFFFFFFFF AND SWAP1 POP PUSH0 PUSH0 PUSH0 PUSH20 0xFFFFFFFFFFFFFFFFFFFFFFFFFFFFFFFFFFFFFFFF AND DUP4 PUSH20 0xFFFFFFFFFFFFFFFFFFFFFFFFFFFFFFFFFFFFFFFF AND EQ PUSH2 0x11A4 JUMPI PUSH2 0x2710 PUSH1 0xA DUP9 PUSH2 0x117B SWAP2 SWAP1 PUSH2 0x237E JUMP JUMPDEST PUSH2 0x1185 SWAP2 SWAP1 PUSH2 0x23EC JUMP JUMPDEST SWAP2 POP PUSH2 0x2710 PUSH1 0x5 DUP9 PUSH2 0x1197 SWAP2 SWAP1 PUSH2 0x237E JUMP JUMPDEST PUSH2 0x11A1 SWAP2 SWAP1 PUSH2 0x23EC JUMP JUMPDEST SWAP1 POP JUMPDEST PUSH0 DUP2 DUP4 DUP10 PUSH2 0x11B2 SWAP2 SWAP1 PUSH2 0x2317 JUMP JUMPDEST PUSH2 0x11BC SWAP2 SWAP1 PUSH2 0x2317 JUMP JUMPDEST SWAP1 POP PUSH0 PUSH1 0x2 PUSH0 SWAP1 SLOAD SWAP1 PUSH2 0x100 EXP SWAP1 DIV PUSH20 0xFFFFFFFFFFFFFFFFFFFFFFFFFFFFFFFFFFFFFFFF AND PUSH20 0xFFFFFFFFFFFFFFFFFFFFFFFFFFFFFFFFFFFFFFFF AND DUP3 PUSH1 0x40 MLOAD PUSH2 0x1204 SWAP1 PUSH2 0x24B7 JUMP JUMPDEST PUSH0 PUSH1 0x40 MLOAD DUP1 DUP4 SUB DUP2 DUP6 DUP8 GAS CALL SWAP3 POP POP POP RETURNDATASIZE DUP1 PUSH0 DUP2 EQ PUSH2 0x123E JUMPI PUSH1 0x40 MLOAD SWAP2 POP PUSH1 0x1F NOT PUSH1 0x3F RETURNDATASIZE ADD AND DUP3 ADD PUSH1 0x40 MSTORE RETURNDATASIZE DUP3 MSTORE RETURNDATASIZE PUSH0 PUSH1 0x20 DUP5 ADD RETURNDATACOPY PUSH2 0x1243 JUMP JUMPDEST PUSH1 0x60 SWAP2 POP JUMPDEST POP POP SWAP1 POP DUP1 PUSH2 0x127D JUMPI PUSH1 0x40 MLOAD PUSH31 0x9716CE00000000000000000000000000000000000000000000000000000000 DUP2 MSTORE PUSH1 0x4 ADD PUSH1 0x40 MLOAD DUP1 SWAP2 SUB SWAP1 REVERT JUMPDEST PUSH0 DUP5 GT ISZERO PUSH2 0x1325 JUMPI DUP5 PUSH20 0xFFFFFFFFFFFFFFFFFFFFFFFFFFFFFFFFFFFFFFFF AND DUP5 PUSH1 0x40 MLOAD PUSH2 0x12A9 SWAP1 PUSH2 0x24B7 JUMP JUMPDEST PUSH0 PUSH1 0x40 MLOAD DUP1 DUP4 SUB DUP2 DUP6 DUP8 GAS CALL SWAP3 POP POP POP RETURNDATASIZE DUP1 PUSH0 DUP2 EQ PUSH2 0x12E3 JUMPI PUSH1 0x40 MLOAD SWAP2 POP PUSH1 0x1F NOT PUSH1 0x3F RETURNDATASIZE ADD AND DUP3 ADD PUSH1 0x40 MSTORE RETURNDATASIZE DUP3 MSTORE RETURNDATASIZE PUSH0 PUSH1 0x20 DUP5 ADD RETURNDATACOPY PUSH2 0x12E8 JUMP JUMPDEST PUSH1 0x60 SWAP2 POP JUMPDEST POP POP DUP1 SWAP2 POP POP DUP1 PUSH2 0x1324 JUMPI PUSH1 0x40 MLOAD PUSH31 0x9716CE00000000000000000000000000000000000000000000000000000000 DUP2 MSTORE PUSH1 0x4 ADD PUSH1 0x40 MLOAD DUP1 SWAP2 SUB SWAP1 REVERT JUMPDEST JUMPDEST PUSH0 DUP4 GT ISZERO PUSH2 0x13CD JUMPI CALLER PUSH20 0xFFFFFFFFFFFFFFFFFFFFFFFFFFFFFFFFFFFFFFFF AND DUP4 PUSH1 0x40 MLOAD PUSH2 0x1351 SWAP1 PUSH2 0x24B7 JUMP JUMPDEST PUSH0 PUSH1 0x40 MLOAD DUP1 DUP4 SUB DUP2 DUP6 DUP8 GAS CALL SWAP3 POP POP POP RETURNDATASIZE DUP1 PUSH0 DUP2 EQ PUSH2 0x138B JUMPI PUSH1 0x40 MLOAD SWAP2 POP PUSH1 0x1F NOT PUSH1 0x3F RETURNDATASIZE ADD AND DUP3 ADD PUSH1 0x40 MSTORE RETURNDATASIZE DUP3 MSTORE RETURNDATASIZE PUSH0 PUSH1 0x20 DUP5 ADD RETURNDATACOPY PUSH2 0x1390 JUMP JUMPDEST PUSH1 0x60 SWAP2 POP JUMPDEST POP POP DUP1 SWAP2 POP POP DUP1 PUSH2 0x13CC JUMPI PUSH1 0x40 MLOAD PUSH31 0x9716CE00000000000000000000000000000000000000000000000000000000 DUP2 MSTORE PUSH1 0x4 ADD PUSH1 0x40 MLOAD DUP1 SWAP2 SUB SWAP1 REVERT JUMPDEST JUMPDEST PUSH1 0x40 MLOAD DUP1 PUSH1 0x60 ADD PUSH1 0x40 MSTORE DUP1 CALLER PUSH20 0xFFFFFFFFFFFFFFFFFFFFFFFFFFFFFFFFFFFFFFFF AND DUP2 MSTORE PUSH1 0x20 ADD DUP11 DUP2 MSTORE PUSH1 0x20 ADD DUP14 PUSH1 0xFF AND DUP2 MSTORE POP PUSH1 0x3 PUSH0 DUP14 DUP2 MSTORE PUSH1 0x20 ADD SWAP1 DUP2 MSTORE PUSH1 0x20 ADD PUSH0 KECCAK256 PUSH0 DUP3 ADD MLOAD DUP2 PUSH0 ADD PUSH0 PUSH2 0x100 EXP DUP2 SLOAD DUP2 PUSH20 0xFFFFFFFFFFFFFFFFFFFFFFFFFFFFFFFFFFFFFFFF MUL NOT AND SWAP1 DUP4 PUSH20 0xFFFFFFFFFFFFFFFFFFFFFFFFFFFFFFFFFFFFFFFF AND MUL OR SWAP1 SSTORE POP PUSH1 0x20 DUP3 ADD MLOAD DUP2 PUSH1 0x1 ADD SSTORE PUSH1 0x40 DUP3 ADD MLOAD DUP2 PUSH1 0x2 ADD PUSH0 PUSH2 0x100 EXP DUP2 SLOAD DUP2 PUSH1 0xFF MUL NOT AND SWAP1 DUP4 PUSH1 0xFF AND MUL OR SWAP1 SSTORE POP SWAP1 POP POP PUSH1 0x2 PUSH0 SWAP1 SLOAD SWAP1 PUSH2 0x100 EXP SWAP1 DIV PUSH20 0xFFFFFFFFFFFFFFFFFFFFFFFFFFFFFFFFFFFFFFFF AND PUSH20 0xFFFFFFFFFFFFFFFFFFFFFFFFFFFFFFFFFFFFFFFF AND PUSH4 0x1FBF7C3E DUP11 PUSH1 0x40 MLOAD DUP3 PUSH4 0xFFFFFFFF AND PUSH1 0xE0 SHL DUP2 MSTORE PUSH1 0x4 ADD PUSH2 0x14DD SWAP2 SWAP1 PUSH2 0x20BC JUMP JUMPDEST PUSH0 PUSH1 0x40 MLOAD DUP1 DUP4 SUB DUP2 PUSH0 DUP8 DUP1 EXTCODESIZE ISZERO DUP1 ISZERO PUSH2 0x14F4 JUMPI PUSH0 PUSH0 REVERT JUMPDEST POP GAS CALL ISZERO DUP1 ISZERO PUSH2 0x1506 JUMPI RETURNDATASIZE PUSH0 PUSH0 RETURNDATACOPY RETURNDATASIZE PUSH0 REVERT JUMPDEST POP POP POP POP DUP9 PUSH1 0xA PUSH0 DUP3 DUP3 SLOAD PUSH2 0x151B SWAP2 SWAP1 PUSH2 0x225C JUMP JUMPDEST SWAP3 POP POP DUP2 SWAP1 SSTORE POP PUSH1 0x1 PUSH1 0xC PUSH0 DUP3 DUP3 SLOAD PUSH2 0x1534 SWAP2 SWAP1 PUSH2 0x225C JUMP JUMPDEST SWAP3 POP POP DUP2 SWAP1 SSTORE POP DUP9 PUSH1 0x7 PUSH0 CALLER PUSH20 0xFFFFFFFFFFFFFFFFFFFFFFFFFFFFFFFFFFFFFFFF AND PUSH20 0xFFFFFFFFFFFFFFFFFFFFFFFFFFFFFFFFFFFFFFFF AND DUP2 MSTORE PUSH1 0x20 ADD SWAP1 DUP2 MSTORE PUSH1 0x20 ADD PUSH0 KECCAK256 PUSH0 ADD PUSH0 DUP3 DUP3 SLOAD PUSH2 0x1589 SWAP2 SWAP1 PUSH2 0x225C JUMP JUMPDEST SWAP3 POP POP DUP2 SWAP1 SSTORE POP PUSH1 0x1 PUSH1 0x7 PUSH0 CALLER PUSH20 0xFFFFFFFFFFFFFFFFFFFFFFFFFFFFFFFFFFFFFFFF AND PUSH20 0xFFFFFFFFFFFFFFFFFFFFFFFFFFFFFFFFFFFFFFFF AND DUP2 MSTORE PUSH1 0x20 ADD SWAP1 DUP2 MSTORE PUSH1 0x20 ADD PUSH0 KECCAK256 PUSH1 0x2 ADD PUSH0 DUP3 DUP3 SLOAD PUSH2 0x15E0 SWAP2 SWAP1 PUSH2 0x225C JUMP JUMPDEST SWAP3 POP POP DUP2 SWAP1 SSTORE POP CALLER PUSH20 0xFFFFFFFFFFFFFFFFFFFFFFFFFFFFFFFFFFFFFFFF AND DUP12 PUSH32 0xE90186097616CBEB30FFC786B44501E1362F5E0A316A96C5AB82A0551F9D2F05 DUP12 DUP16 PUSH1 0x40 MLOAD PUSH2 0x1630 SWAP3 SWAP2 SWAP1 PUSH2 0x24CB JUMP JUMPDEST PUSH1 0x40 MLOAD DUP1 SWAP2 SUB SWAP1 LOG3 POP POP POP POP POP POP POP POP POP POP PUSH2 0x164A PUSH2 0x1DD8 JUMP JUMPDEST SWAP2 SWAP1 POP JUMP JUMPDEST PUSH1 0x6 PUSH1 0x20 MSTORE DUP1 PUSH0 MSTORE PUSH1 0x40 PUSH0 KECCAK256 PUSH0 SWAP2 POP SLOAD SWAP1 PUSH2 0x100 EXP SWAP1 DIV PUSH20 0xFFFFFFFFFFFFFFFFFFFFFFFFFFFFFFFFFFFFFFFF AND DUP2 JUMP JUMPDEST PUSH0 PUSH1 0x5 PUSH0 DUP4 PUSH20 0xFFFFFFFFFFFFFFFFFFFFFFFFFFFFFFFFFFFFFFFF AND PUSH20 0xFFFFFFFFFFFFFFFFFFFFFFFFFFFFFFFFFFFFFFFF AND DUP2 MSTORE PUSH1 0x20 ADD SWAP1 DUP2 MSTORE PUSH1 0x20 ADD PUSH0 KECCAK256 SLOAD SWAP1 POP SWAP2 SWAP1 POP JUMP JUMPDEST PUSH2 0x1388 DUP2 JUMP JUMPDEST PUSH2 0x16D3 PUSH2 0x1C41 JUMP JUMPDEST PUSH2 0x1388 DUP2 GT ISZERO PUSH2 0x170F JUMPI PUSH1 0x40 MLOAD PUSH32 0xAB551CE400000000000000000000000000000000000000000000000000000000 DUP2 MSTORE PUSH1 0x4 ADD PUSH1 0x40 MLOAD DUP1 SWAP2 SUB SWAP1 REVERT JUMPDEST DUP1 PUSH1 0x9 DUP2 SWAP1 SSTORE POP POP JUMP JUMPDEST PUSH1 0x8 SLOAD DUP2 JUMP JUMPDEST PUSH2 0x1727 PUSH2 0x1C41 JUMP JUMPDEST PUSH0 PUSH20 0xFFFFFFFFFFFFFFFFFFFFFFFFFFFFFFFFFFFFFFFF AND DUP2 PUSH20 0xFFFFFFFFFFFFFFFFFFFFFFFFFFFFFFFFFFFFFFFF AND SUB PUSH2 0x1797 JUMPI PUSH0 PUSH1 0x40 MLOAD PUSH32 0x1E4FBDF700000000000000000000000000000000000000000000000000000000 DUP2 MSTORE PUSH1 0x4 ADD PUSH2 0x178E SWAP2 SWAP1 PUSH2 0x219A JUMP JUMPDEST PUSH1 0x40 MLOAD DUP1 SWAP2 SUB SWAP1 REVERT JUMPDEST PUSH2 0x17A0 DUP2 PUSH2 0x1CC8 JUMP JUMPDEST POP JUMP JUMPDEST PUSH2 0x7D0 DUP2 JUMP JUMPDEST PUSH0 PUSH1 0x4 PUSH0 DUP4 DUP2 MSTORE PUSH1 0x20 ADD SWAP1 DUP2 MSTORE PUSH1 0x20 ADD PUSH0 KECCAK256 PUSH0 SWAP1 SLOAD SWAP1 PUSH2 0x100 EXP SWAP1 DIV PUSH20 0xFFFFFFFFFFFFFFFFFFFFFFFFFFFFFFFFFFFFFFFF AND SWAP1 POP SWAP2 SWAP1 POP JUMP JUMPDEST PUSH0 PUSH1 0x3 PUSH0 DUP6 DUP2 MSTORE PUSH1 0x20 ADD SWAP1 DUP2 MSTORE PUSH1 0x20 ADD PUSH0 KECCAK256 PUSH1 0x40 MLOAD DUP1 PUSH1 0x60 ADD PUSH1 0x40 MSTORE SWAP1 DUP2 PUSH0 DUP3 ADD PUSH0 SWAP1 SLOAD SWAP1 PUSH2 0x100 EXP SWAP1 DIV PUSH20 0xFFFFFFFFFFFFFFFFFFFFFFFFFFFFFFFFFFFFFFFF AND PUSH20 0xFFFFFFFFFFFFFFFFFFFFFFFFFFFFFFFFFFFFFFFF AND PUSH20 0xFFFFFFFFFFFFFFFFFFFFFFFFFFFFFFFFFFFFFFFF AND DUP2 MSTORE PUSH1 0x20 ADD PUSH1 0x1 DUP3 ADD SLOAD DUP2 MSTORE PUSH1 0x20 ADD PUSH1 0x2 DUP3 ADD PUSH0 SWAP1 SLOAD SWAP1 PUSH2 0x100 EXP SWAP1 DIV PUSH1 0xFF AND PUSH1 0xFF AND PUSH1 0xFF AND DUP2 MSTORE POP POP SWAP1 POP PUSH0 PUSH20 0xFFFFFFFFFFFFFFFFFFFFFFFFFFFFFFFFFFFFFFFF AND DUP2 PUSH0 ADD MLOAD PUSH20 0xFFFFFFFFFFFFFFFFFFFFFFFFFFFFFFFFFFFFFFFF AND SUB PUSH2 0x18E3 JUMPI PUSH1 0x40 MLOAD PUSH32 0x469BFA9100000000000000000000000000000000000000000000000000000000 DUP2 MSTORE PUSH1 0x4 ADD PUSH1 0x40 MLOAD DUP1 SWAP2 SUB SWAP1 REVERT JUMPDEST PUSH0 PUSH1 0x6 DUP5 DUP5 PUSH0 DUP2 DUP2 LT PUSH2 0x18F9 JUMPI PUSH2 0x18F8 PUSH2 0x24F2 JUMP JUMPDEST JUMPDEST SWAP1 POP PUSH1 0x20 MUL ADD CALLDATALOAD PUSH2 0x190A SWAP2 SWAP1 PUSH2 0x251F JUMP JUMPDEST SWAP1 POP PUSH0 DUP3 PUSH1 0x40 ADD MLOAD PUSH1 0xFF AND DUP3 LT ISZERO SWAP1 POP PUSH0 PUSH0 SWAP1 POP DUP2 ISZERO PUSH2 0x19F8 JUMPI PUSH0 DUP5 PUSH1 0x40 ADD MLOAD PUSH1 0x6 PUSH2 0x1936 SWAP2 SWAP1 PUSH2 0x234A JUMP JUMPDEST PUSH1 0xFF AND PUSH1 0x6 DUP7 PUSH1 0x20 ADD MLOAD PUSH2 0x194A SWAP2 SWAP1 PUSH2 0x237E JUMP JUMPDEST PUSH2 0x1954 SWAP2 SWAP1 PUSH2 0x23EC JUMP JUMPDEST SWAP1 POP PUSH0 PUSH2 0x2710 PUSH1 0x8 SLOAD DUP4 PUSH2 0x1968 SWAP2 SWAP1 PUSH2 0x237E JUMP JUMPDEST PUSH2 0x1972 SWAP2 SWAP1 PUSH2 0x23EC JUMP JUMPDEST SWAP1 POP DUP1 DUP3 PUSH2 0x1980 SWAP2 SWAP1 PUSH2 0x2317 JUMP JUMPDEST SWAP3 POP PUSH1 0x1 PUSH1 0x7 PUSH0 DUP9 PUSH0 ADD MLOAD PUSH20 0xFFFFFFFFFFFFFFFFFFFFFFFFFFFFFFFFFFFFFFFF AND PUSH20 0xFFFFFFFFFFFFFFFFFFFFFFFFFFFFFFFFFFFFFFFF AND DUP2 MSTORE PUSH1 0x20 ADD SWAP1 DUP2 MSTORE PUSH1 0x20 ADD PUSH0 KECCAK256 PUSH1 0x3 ADD PUSH0 DUP3 DUP3 SLOAD PUSH2 0x19D5 SWAP2 SWAP1 PUSH2 0x225C JUMP JUMPDEST SWAP3 POP POP DUP2 SWAP1 SSTORE POP PUSH1 0x1 PUSH1 0xD PUSH0 DUP3 DUP3 SLOAD PUSH2 0x19EE SWAP2 SWAP1 PUSH2 0x225C JUMP JUMPDEST SWAP3 POP POP DUP2 SWAP1 SSTORE POP POP POP JUMPDEST PUSH1 0x3 PUSH0 DUP9 DUP2 MSTORE PUSH1 0x20 ADD SWAP1 DUP2 MSTORE PUSH1 0x20 ADD PUSH0 KECCAK256 PUSH0 PUSH0 DUP3 ADD PUSH0 PUSH2 0x100 EXP DUP2 SLOAD SWAP1 PUSH20 0xFFFFFFFFFFFFFFFFFFFFFFFFFFFFFFFFFFFFFFFF MUL NOT AND SWAP1 SSTORE PUSH1 0x1 DUP3 ADD PUSH0 SWAP1 SSTORE PUSH1 0x2 DUP3 ADD PUSH0 PUSH2 0x100 EXP DUP2 SLOAD SWAP1 PUSH1 0xFF MUL NOT AND SWAP1 SSTORE POP POP PUSH0 DUP2 GT ISZERO PUSH2 0x1B51 JUMPI PUSH1 0x2 PUSH0 SWAP1 SLOAD SWAP1 PUSH2 0x100 EXP SWAP1 DIV PUSH20 0xFFFFFFFFFFFFFFFFFFFFFFFFFFFFFFFFFFFFFFFF AND PUSH20 0xFFFFFFFFFFFFFFFFFFFFFFFFFFFFFFFFFFFFFFFF AND PUSH4 0x117DE2FD DUP6 PUSH0 ADD MLOAD DUP4 PUSH1 0x40 MLOAD DUP4 PUSH4 0xFFFFFFFF AND PUSH1 0xE0 SHL DUP2 MSTORE PUSH1 0x4 ADD PUSH2 0x1AB2 SWAP3 SWAP2 SWAP1 PUSH2 0x254F JUMP JUMPDEST PUSH0 PUSH1 0x40 MLOAD DUP1 DUP4 SUB DUP2 PUSH0 DUP8 DUP1 EXTCODESIZE ISZERO DUP1 ISZERO PUSH2 0x1AC9 JUMPI PUSH0 PUSH0 REVERT JUMPDEST POP GAS CALL ISZERO DUP1 ISZERO PUSH2 0x1ADB JUMPI RETURNDATASIZE PUSH0 PUSH0 RETURNDATACOPY RETURNDATASIZE PUSH0 REVERT JUMPDEST POP POP POP POP DUP1 PUSH1 0xB PUSH0 DUP3 DUP3 SLOAD PUSH2 0x1AF0 SWAP2 SWAP1 PUSH2 0x225C JUMP JUMPDEST SWAP3 POP POP DUP2 SWAP1 SSTORE POP DUP1 PUSH1 0x7 PUSH0 DUP7 PUSH0 ADD MLOAD PUSH20 0xFFFFFFFFFFFFFFFFFFFFFFFFFFFFFFFFFFFFFFFF AND PUSH20 0xFFFFFFFFFFFFFFFFFFFFFFFFFFFFFFFFFFFFFFFF AND DUP2 MSTORE PUSH1 0x20 ADD SWAP1 DUP2 MSTORE PUSH1 0x20 ADD PUSH0 KECCAK256 PUSH1 0x1 ADD PUSH0 DUP3 DUP3 SLOAD PUSH2 0x1B49 SWAP2 SWAP1 PUSH2 0x225C JUMP JUMPDEST SWAP3 POP POP DUP2 SWAP1 SSTORE POP JUMPDEST PUSH1 0x2 PUSH0 SWAP1 SLOAD SWAP1 PUSH2 0x100 EXP SWAP1 DIV PUSH20 0xFFFFFFFFFFFFFFFFFFFFFFFFFFFFFFFFFFFFFFFF AND PUSH20 0xFFFFFFFFFFFFFFFFFFFFFFFFFFFFFFFFFFFFFFFF AND PUSH4 0xBFF8A36D DUP6 PUSH1 0x20 ADD MLOAD PUSH1 0x40 MLOAD DUP3 PUSH4 0xFFFFFFFF AND PUSH1 0xE0 SHL DUP2 MSTORE PUSH1 0x4 ADD PUSH2 0x1BAF SWAP2 SWAP1 PUSH2 0x20BC JUMP JUMPDEST PUSH0 PUSH1 0x40 MLOAD DUP1 DUP4 SUB DUP2 PUSH0 DUP8 DUP1 EXTCODESIZE ISZERO DUP1 ISZERO PUSH2 0x1BC6 JUMPI PUSH0 PUSH0 REVERT JUMPDEST POP GAS CALL ISZERO DUP1 ISZERO PUSH2 0x1BD8 JUMPI RETURNDATASIZE PUSH0 PUSH0 RETURNDATACOPY RETURNDATASIZE PUSH0 REVERT JUMPDEST POP POP POP POP DUP4 PUSH0 ADD MLOAD PUSH20 0xFFFFFFFFFFFFFFFFFFFFFFFFFFFFFFFFFFFFFFFF AND DUP8 PUSH32 0xF080CA67B108FBAD70BB5FBBF685238B9880F8ADF09F3B5838058B9645D2D6FB DUP5 DUP7 DUP9 PUSH1 0x20 ADD MLOAD DUP7 PUSH1 0x40 MLOAD PUSH2 0x1C30 SWAP5 SWAP4 SWAP3 SWAP2 SWAP1 PUSH2 0x2590 JUMP JUMPDEST PUSH1 0x40 MLOAD DUP1 SWAP2 SUB SWAP1 LOG3 POP POP POP POP POP POP POP JUMP JUMPDEST PUSH2 0x1C49 PUSH2 0x1DE1 JUMP JUMPDEST PUSH20 0xFFFFFFFFFFFFFFFFFFFFFFFFFFFFFFFFFFFFFFFF AND PUSH2 0x1C67 PUSH2 0xA1D JUMP JUMPDEST PUSH20 0xFFFFFFFFFFFFFFFFFFFFFFFFFFFFFFFFFFFFFFFF AND EQ PUSH2 0x1CC6 JUMPI PUSH2 0x1C8A PUSH2 0x1DE1 JUMP JUMPDEST PUSH1 0x40 MLOAD PUSH32 0x118CDAA700000000000000000000000000000000000000000000000000000000 DUP2 MSTORE PUSH1 0x4 ADD PUSH2 0x1CBD SWAP2 SWAP1 PUSH2 0x219A JUMP JUMPDEST PUSH1 0x40 MLOAD DUP1 SWAP2 SUB SWAP1 REVERT JUMPDEST JUMP JUMPDEST PUSH0 PUSH0 PUSH0 SWAP1 SLOAD SWAP1 PUSH2 0x100 EXP SWAP1 DIV PUSH20 0xFFFFFFFFFFFFFFFFFFFFFFFFFFFFFFFFFFFFFFFF AND SWAP1 POP DUP2 PUSH0 PUSH0 PUSH2 0x100 EXP DUP2 SLOAD DUP2 PUSH20 0xFFFFFFFFFFFFFFFFFFFFFFFFFFFFFFFFFFFFFFFF MUL NOT AND SWAP1 DUP4 PUSH20 0xFFFFFFFFFFFFFFFFFFFFFFFFFFFFFFFFFFFFFFFF AND MUL OR SWAP1 SSTORE POP DUP2 PUSH20 0xFFFFFFFFFFFFFFFFFFFFFFFFFFFFFFFFFFFFFFFF AND DUP2 PUSH20 0xFFFFFFFFFFFFFFFFFFFFFFFFFFFFFFFFFFFFFFFF AND PUSH32 0x8BE0079C531659141344CD1FD0A4F28419497F9722A3DAAFE3B4186F6B6457E0 PUSH1 0x40 MLOAD PUSH1 0x40 MLOAD DUP1 SWAP2 SUB SWAP1 LOG3 POP POP JUMP JUMPDEST PUSH1 0x2 PUSH1 0x1 SLOAD SUB PUSH2 0x1DCE JUMPI PUSH1 0x40 MLOAD PUSH32 0x8C379A000000000000000000000000000000000000000000000000000000000 DUP2 MSTORE PUSH1 0x4 ADD PUSH2 0x1DC5 SWAP1 PUSH2 0x262D JUMP JUMPDEST PUSH1 0x40 MLOAD DUP1 SWAP2 SUB SWAP1 REVERT JUMPDEST PUSH1 0x2 PUSH1 0x1 DUP2 SWAP1 SSTORE POP JUMP JUMPDEST PUSH1 0x1 DUP1 DUP2 SWAP1 SSTORE POP JUMP JUMPDEST PUSH0 CALLER SWAP1 POP SWAP1 JUMP JUMPDEST PUSH0 PUSH0 REVERT JUMPDEST PUSH0 PUSH0 REVERT JUMPDEST PUSH0 DUP2 SWAP1 POP SWAP2 SWAP1 POP JUMP JUMPDEST PUSH2 0x1E02 DUP2 PUSH2 0x1DF0 JUMP JUMPDEST DUP2 EQ PUSH2 0x1E0C JUMPI PUSH0 PUSH0 REVERT JUMPDEST POP JUMP JUMPDEST PUSH0 DUP2 CALLDATALOAD SWAP1 POP PUSH2 0x1E1D DUP2 PUSH2 0x1DF9 JUMP JUMPDEST SWAP3 SWAP2 POP POP JUMP JUMPDEST PUSH0 PUSH0 REVERT JUMPDEST PUSH0 PUSH0 REVERT JUMPDEST PUSH0 PUSH0 REVERT JUMPDEST PUSH0 PUSH0 DUP4 PUSH1 0x1F DUP5 ADD SLT PUSH2 0x1E44 JUMPI PUSH2 0x1E43 PUSH2 0x1E23 JUMP JUMPDEST JUMPDEST DUP3 CALLDATALOAD SWAP1 POP PUSH8 0xFFFFFFFFFFFFFFFF DUP2 GT ISZERO PUSH2 0x1E61 JUMPI PUSH2 0x1E60 PUSH2 0x1E27 JUMP JUMPDEST JUMPDEST PUSH1 0x20 DUP4 ADD SWAP2 POP DUP4 PUSH1 0x20 DUP3 MUL DUP4 ADD GT ISZERO PUSH2 0x1E7D JUMPI PUSH2 0x1E7C PUSH2 0x1E2B JUMP JUMPDEST JUMPDEST SWAP3 POP SWAP3 SWAP1 POP JUMP JUMPDEST PUSH0 PUSH0 PUSH0 PUSH1 0x40 DUP5 DUP7 SUB SLT ISZERO PUSH2 0x1E9B JUMPI PUSH2 0x1E9A PUSH2 0x1DE8 JUMP JUMPDEST JUMPDEST PUSH0 PUSH2 0x1EA8 DUP7 DUP3 DUP8 ADD PUSH2 0x1E0F JUMP JUMPDEST SWAP4 POP POP PUSH1 0x20 DUP5 ADD CALLDATALOAD PUSH8 0xFFFFFFFFFFFFFFFF DUP2 GT ISZERO PUSH2 0x1EC9 JUMPI PUSH2 0x1EC8 PUSH2 0x1DEC JUMP JUMPDEST JUMPDEST PUSH2 0x1ED5 DUP7 DUP3 DUP8 ADD PUSH2 0x1E2F JUMP JUMPDEST SWAP3 POP SWAP3 POP POP SWAP3 POP SWAP3 POP SWAP3 JUMP JUMPDEST PUSH0 PUSH1 0x20 DUP3 DUP5 SUB SLT ISZERO PUSH2 0x1EF6 JUMPI PUSH2 0x1EF5 PUSH2 0x1DE8 JUMP JUMPDEST JUMPDEST PUSH0 PUSH2 0x1F03 DUP5 DUP3 DUP6 ADD PUSH2 0x1E0F JUMP JUMPDEST SWAP2 POP POP SWAP3 SWAP2 POP POP JUMP JUMPDEST PUSH0 PUSH20 0xFFFFFFFFFFFFFFFFFFFFFFFFFFFFFFFFFFFFFFFF DUP3 AND SWAP1 POP SWAP2 SWAP1 POP JUMP JUMPDEST PUSH0 PUSH2 0x1F35 DUP3 PUSH2 0x1F0C JUMP JUMPDEST SWAP1 POP SWAP2 SWAP1 POP JUMP JUMPDEST PUSH2 0x1F45 DUP2 PUSH2 0x1F2B JUMP JUMPDEST DUP3 MSTORE POP POP JUMP JUMPDEST PUSH2 0x1F54 DUP2 PUSH2 0x1DF0 JUMP JUMPDEST DUP3 MSTORE POP POP JUMP JUMPDEST PUSH0 PUSH1 0xFF DUP3 AND SWAP1 POP SWAP2 SWAP1 POP JUMP JUMPDEST PUSH2 0x1F6F DUP2 PUSH2 0x1F5A JUMP JUMPDEST DUP3 MSTORE POP POP JUMP JUMPDEST PUSH0 PUSH1 0x60 DUP3 ADD SWAP1 POP PUSH2 0x1F88 PUSH0 DUP4 ADD DUP7 PUSH2 0x1F3C JUMP JUMPDEST PUSH2 0x1F95 PUSH1 0x20 DUP4 ADD DUP6 PUSH2 0x1F4B JUMP JUMPDEST PUSH2 0x1FA2 PUSH1 0x40 DUP4 ADD DUP5 PUSH2 0x1F66 JUMP JUMPDEST SWAP5 SWAP4 POP POP POP POP JUMP JUMPDEST PUSH0 DUP2 SWAP1 POP SWAP2 SWAP1 POP JUMP JUMPDEST PUSH2 0x1FBC DUP2 PUSH2 0x1FAA JUMP JUMPDEST DUP2 EQ PUSH2 0x1FC6 JUMPI PUSH0 PUSH0 REVERT JUMPDEST POP JUMP JUMPDEST PUSH0 DUP2 CALLDATALOAD SWAP1 POP PUSH2 0x1FD7 DUP2 PUSH2 0x1FB3 JUMP JUMPDEST SWAP3 SWAP2 POP POP JUMP JUMPDEST PUSH0 PUSH1 0x20 DUP3 DUP5 SUB SLT ISZERO PUSH2 0x1FF2 JUMPI PUSH2 0x1FF1 PUSH2 0x1DE8 JUMP JUMPDEST JUMPDEST PUSH0 PUSH2 0x1FFF DUP5 DUP3 DUP6 ADD PUSH2 0x1FC9 JUMP JUMPDEST SWAP2 POP POP SWAP3 SWAP2 POP POP JUMP JUMPDEST PUSH0 PUSH4 0xFFFFFFFF DUP3 AND SWAP1 POP SWAP2 SWAP1 POP JUMP JUMPDEST PUSH2 0x2020 DUP2 PUSH2 0x2008 JUMP JUMPDEST DUP3 MSTORE POP POP JUMP JUMPDEST PUSH0 PUSH1 0x20 DUP3 ADD SWAP1 POP PUSH2 0x2039 PUSH0 DUP4 ADD DUP5 PUSH2 0x2017 JUMP JUMPDEST SWAP3 SWAP2 POP POP JUMP JUMPDEST PUSH2 0x2048 DUP2 PUSH2 0x1F2B JUMP JUMPDEST DUP2 EQ PUSH2 0x2052 JUMPI PUSH0 PUSH0 REVERT JUMPDEST POP JUMP JUMPDEST PUSH0 DUP2 CALLDATALOAD SWAP1 POP PUSH2 0x2063 DUP2 PUSH2 0x203F JUMP JUMPDEST SWAP3 SWAP2 POP POP JUMP JUMPDEST PUSH0 PUSH1 0x20 DUP3 DUP5 SUB SLT ISZERO PUSH2 0x207E JUMPI PUSH2 0x207D PUSH2 0x1DE8 JUMP JUMPDEST JUMPDEST PUSH0 PUSH2 0x208B DUP5 DUP3 DUP6 ADD PUSH2 0x2055 JUMP JUMPDEST SWAP2 POP POP SWAP3 SWAP2 POP POP JUMP JUMPDEST PUSH2 0x209D DUP2 PUSH2 0x1FAA JUMP JUMPDEST DUP3 MSTORE POP POP JUMP JUMPDEST PUSH0 PUSH1 0x20 DUP3 ADD SWAP1 POP PUSH2 0x20B6 PUSH0 DUP4 ADD DUP5 PUSH2 0x2094 JUMP JUMPDEST SWAP3 SWAP2 POP POP JUMP JUMPDEST PUSH0 PUSH1 0x20 DUP3 ADD SWAP1 POP PUSH2 0x20CF PUSH0 DUP4 ADD DUP5 PUSH2 0x1F4B JUMP JUMPDEST SWAP3 SWAP2 POP POP JUMP JUMPDEST PUSH0 PUSH1 0xA0 DUP3 ADD SWAP1 POP PUSH2 0x20E8 PUSH0 DUP4 ADD DUP9 PUSH2 0x1F4B JUMP JUMPDEST PUSH2 0x20F5 PUSH1 0x20 DUP4 ADD DUP8 PUSH2 0x1F4B JUMP JUMPDEST PUSH2 0x2102 PUSH1 0x40 DUP4 ADD DUP7 PUSH2 0x1F4B JUMP JUMPDEST PUSH2 0x210F PUSH1 0x60 DUP4 ADD DUP6 PUSH2 0x1F4B JUMP JUMPDEST PUSH2 0x211C PUSH1 0x80 DUP4 ADD DUP5 PUSH2 0x1F4B JUMP JUMPDEST SWAP7 SWAP6 POP POP POP POP POP POP JUMP JUMPDEST PUSH0 DUP2 SWAP1 POP SWAP2 SWAP1 POP JUMP JUMPDEST PUSH0 PUSH2 0x2149 PUSH2 0x2144 PUSH2 0x213F DUP5 PUSH2 0x1F0C JUMP JUMPDEST PUSH2 0x2126 JUMP JUMPDEST PUSH2 0x1F0C JUMP JUMPDEST SWAP1 POP SWAP2 SWAP1 POP JUMP JUMPDEST PUSH0 PUSH2 0x215A DUP3 PUSH2 0x212F JUMP JUMPDEST SWAP1 POP SWAP2 SWAP1 POP JUMP JUMPDEST PUSH0 PUSH2 0x216B DUP3 PUSH2 0x2150 JUMP JUMPDEST SWAP1 POP SWAP2 SWAP1 POP JUMP JUMPDEST PUSH2 0x217B DUP2 PUSH2 0x2161 JUMP JUMPDEST DUP3 MSTORE POP POP JUMP JUMPDEST PUSH0 PUSH1 0x20 DUP3 ADD SWAP1 POP PUSH2 0x2194 PUSH0 DUP4 ADD DUP5 PUSH2 0x2172 JUMP JUMPDEST SWAP3 SWAP2 POP POP JUMP JUMPDEST PUSH0 PUSH1 0x20 DUP3 ADD SWAP1 POP PUSH2 0x21AD PUSH0 DUP4 ADD DUP5 PUSH2 0x1F3C JUMP JUMPDEST SWAP3 SWAP2 POP POP JUMP JUMPDEST PUSH2 0x21BC DUP2 PUSH2 0x1F5A JUMP JUMPDEST DUP2 EQ PUSH2 0x21C6 JUMPI PUSH0 PUSH0 REVERT JUMPDEST POP JUMP JUMPDEST PUSH0 DUP2 CALLDATALOAD SWAP1 POP PUSH2 0x21D7 DUP2 PUSH2 0x21B3 JUMP JUMPDEST SWAP3 SWAP2 POP POP JUMP JUMPDEST PUSH0 PUSH1 0x20 DUP3 DUP5 SUB SLT ISZERO PUSH2 0x21F2 JUMPI PUSH2 0x21F1 PUSH2 0x1DE8 JUMP JUMPDEST JUMPDEST PUSH0 PUSH2 0x21FF DUP5 DUP3 DUP6 ADD PUSH2 0x21C9 JUMP JUMPDEST SWAP2 POP POP SWAP3 SWAP2 POP POP JUMP JUMPDEST PUSH0 PUSH1 0x40 DUP3 ADD SWAP1 POP PUSH2 0x221B PUSH0 DUP4 ADD DUP6 PUSH2 0x1F3C JUMP JUMPDEST PUSH2 0x2228 PUSH1 0x20 DUP4 ADD DUP5 PUSH2 0x1F3C JUMP JUMPDEST SWAP4 SWAP3 POP POP POP JUMP JUMPDEST PUSH32 0x4E487B7100000000000000000000000000000000000000000000000000000000 PUSH0 MSTORE PUSH1 0x11 PUSH1 0x4 MSTORE PUSH1 0x24 PUSH0 REVERT JUMPDEST PUSH0 PUSH2 0x2266 DUP3 PUSH2 0x1DF0 JUMP JUMPDEST SWAP2 POP PUSH2 0x2271 DUP4 PUSH2 0x1DF0 JUMP JUMPDEST SWAP3 POP DUP3 DUP3 ADD SWAP1 POP DUP1 DUP3 GT ISZERO PUSH2 0x2289 JUMPI PUSH2 0x2288 PUSH2 0x222F JUMP JUMPDEST JUMPDEST SWAP3 SWAP2 POP POP JUMP JUMPDEST PUSH0 PUSH2 0x22A9 PUSH2 0x22A4 PUSH2 0x229F DUP5 PUSH2 0x2008 JUMP JUMPDEST PUSH2 0x2126 JUMP JUMPDEST PUSH2 0x1DF0 JUMP JUMPDEST SWAP1 POP SWAP2 SWAP1 POP JUMP JUMPDEST PUSH2 0x22B9 DUP2 PUSH2 0x228F JUMP JUMPDEST DUP3 MSTORE POP POP JUMP JUMPDEST PUSH0 PUSH1 0x20 DUP3 ADD SWAP1 POP PUSH2 0x22D2 PUSH0 DUP4 ADD DUP5 PUSH2 0x22B0 JUMP JUMPDEST SWAP3 SWAP2 POP POP JUMP JUMPDEST PUSH0 DUP2 MLOAD SWAP1 POP PUSH2 0x22E6 DUP2 PUSH2 0x1DF9 JUMP JUMPDEST SWAP3 SWAP2 POP POP JUMP JUMPDEST PUSH0 PUSH1 0x20 DUP3 DUP5 SUB SLT ISZERO PUSH2 0x2301 JUMPI PUSH2 0x2300 PUSH2 0x1DE8 JUMP JUMPDEST JUMPDEST PUSH0 PUSH2 0x230E DUP5 DUP3 DUP6 ADD PUSH2 0x22D8 JUMP JUMPDEST SWAP2 POP POP SWAP3 SWAP2 POP POP JUMP JUMPDEST PUSH0 PUSH2 0x2321 DUP3 PUSH2 0x1DF0 JUMP JUMPDEST SWAP2 POP PUSH2 0x232C DUP4 PUSH2 0x1DF0 JUMP JUMPDEST SWAP3 POP DUP3 DUP3 SUB SWAP1 POP DUP2 DUP2 GT ISZERO PUSH2 0x2344 JUMPI PUSH2 0x2343 PUSH2 0x222F JUMP JUMPDEST JUMPDEST SWAP3 SWAP2 POP POP JUMP JUMPDEST PUSH0 PUSH2 0x2354 DUP3 PUSH2 0x1F5A JUMP JUMPDEST SWAP2 POP PUSH2 0x235F DUP4 PUSH2 0x1F5A JUMP JUMPDEST SWAP3 POP DUP3 DUP3 SUB SWAP1 POP PUSH1 0xFF DUP2 GT ISZERO PUSH2 0x2378 JUMPI PUSH2 0x2377 PUSH2 0x222F JUMP JUMPDEST JUMPDEST SWAP3 SWAP2 POP POP JUMP JUMPDEST PUSH0 PUSH2 0x2388 DUP3 PUSH2 0x1DF0 JUMP JUMPDEST SWAP2 POP PUSH2 0x2393 DUP4 PUSH2 0x1DF0 JUMP JUMPDEST SWAP3 POP DUP3 DUP3 MUL PUSH2 0x23A1 DUP2 PUSH2 0x1DF0 JUMP JUMPDEST SWAP2 POP DUP3 DUP3 DIV DUP5 EQ DUP4 ISZERO OR PUSH2 0x23B8 JUMPI PUSH2 0x23B7 PUSH2 0x222F JUMP JUMPDEST JUMPDEST POP SWAP3 SWAP2 POP POP JUMP JUMPDEST PUSH32 0x4E487B7100000000000000000000000000000000000000000000000000000000 PUSH0 MSTORE PUSH1 0x12 PUSH1 0x4 MSTORE PUSH1 0x24 PUSH0 REVERT JUMPDEST PUSH0 PUSH2 0x23F6 DUP3 PUSH2 0x1DF0 JUMP JUMPDEST SWAP2 POP PUSH2 0x2401 DUP4 PUSH2 0x1DF0 JUMP JUMPDEST SWAP3 POP DUP3 PUSH2 0x2411 JUMPI PUSH2 0x2410 PUSH2 0x23BF JUMP JUMPDEST JUMPDEST DUP3 DUP3 DIV SWAP1 POP SWAP3 SWAP2 POP POP JUMP JUMPDEST PUSH0 DUP2 SWAP1 POP SWAP2 SWAP1 POP JUMP JUMPDEST PUSH0 PUSH2 0x243F PUSH2 0x243A PUSH2 0x2435 DUP5 PUSH2 0x241C JUMP JUMPDEST PUSH2 0x2126 JUMP JUMPDEST PUSH2 0x1DF0 JUMP JUMPDEST SWAP1 POP SWAP2 SWAP1 POP JUMP JUMPDEST PUSH2 0x244F DUP2 PUSH2 0x2425 JUMP JUMPDEST DUP3 MSTORE POP POP JUMP JUMPDEST PUSH0 PUSH1 0x60 DUP3 ADD SWAP1 POP PUSH2 0x2468 PUSH0 DUP4 ADD DUP7 PUSH2 0x22B0 JUMP JUMPDEST PUSH2 0x2475 PUSH1 0x20 DUP4 ADD DUP6 PUSH2 0x2446 JUMP JUMPDEST PUSH2 0x2482 PUSH1 0x40 DUP4 ADD DUP5 PUSH2 0x1F3C JUMP JUMPDEST SWAP5 SWAP4 POP POP POP POP JUMP JUMPDEST PUSH0 DUP2 SWAP1 POP SWAP3 SWAP2 POP POP JUMP JUMPDEST POP JUMP JUMPDEST PUSH0 PUSH2 0x24A2 PUSH0 DUP4 PUSH2 0x248A JUMP JUMPDEST SWAP2 POP PUSH2 0x24AD DUP3 PUSH2 0x2494 JUMP JUMPDEST PUSH0 DUP3 ADD SWAP1 POP SWAP2 SWAP1 POP JUMP JUMPDEST PUSH0 PUSH2 0x24C1 DUP3 PUSH2 0x2497 JUMP JUMPDEST SWAP2 POP DUP2 SWAP1 POP SWAP2 SWAP1 POP JUMP JUMPDEST PUSH0 PUSH1 0x40 DUP3 ADD SWAP1 POP PUSH2 0x24DE PUSH0 DUP4 ADD DUP6 PUSH2 0x1F4B JUMP JUMPDEST PUSH2 0x24EB PUSH1 0x20 DUP4 ADD DUP5 PUSH2 0x1F66 JUMP JUMPDEST SWAP4 SWAP3 POP POP POP JUMP JUMPDEST PUSH32 0x4E487B7100000000000000000000000000000000000000000000000000000000 PUSH0 MSTORE PUSH1 0x32 PUSH1 0x4 MSTORE PUSH1 0x24 PUSH0 REVERT JUMPDEST PUSH0 PUSH2 0x2529 DUP3 PUSH2 0x1DF0 JUMP JUMPDEST SWAP2 POP PUSH2 0x2534 DUP4 PUSH2 0x1DF0 JUMP JUMPDEST SWAP3 POP DUP3 PUSH2 0x2544 JUMPI PUSH2 0x2543 PUSH2 0x23BF JUMP JUMPDEST JUMPDEST DUP3 DUP3 MOD SWAP1 POP SWAP3 SWAP2 POP POP JUMP JUMPDEST PUSH0 PUSH1 0x40 DUP3 ADD SWAP1 POP PUSH2 0x2562 PUSH0 DUP4 ADD DUP6 PUSH2 0x1F3C JUMP JUMPDEST PUSH2 0x256F PUSH1 0x20 DUP4 ADD DUP5 PUSH2 0x1F4B JUMP JUMPDEST SWAP4 SWAP3 POP POP POP JUMP JUMPDEST PUSH0 DUP2 ISZERO ISZERO SWAP1 POP SWAP2 SWAP1 POP JUMP JUMPDEST PUSH2 0x258A DUP2 PUSH2 0x2576 JUMP JUMPDEST DUP3 MSTORE POP POP JUMP JUMPDEST PUSH0 PUSH1 0x80 DUP3 ADD SWAP1 POP PUSH2 0x25A3 PUSH0 DUP4 ADD DUP8 PUSH2 0x2581 JUMP JUMPDEST PUSH2 0x25B0 PUSH1 0x20 DUP4 ADD DUP7 PUSH2 0x1F4B JUMP JUMPDEST PUSH2 0x25BD PUSH1 0x40 DUP4 ADD DUP6 PUSH2 0x1F4B JUMP JUMPDEST PUSH2 0x25CA PUSH1 0x60 DUP4 ADD DUP5 PUSH2 0x1F4B JUMP JUMPDEST SWAP6 SWAP5 POP POP POP POP POP JUMP JUMPDEST PUSH0 DUP3 DUP3 MSTORE PUSH1 0x20 DUP3 ADD SWAP1 POP SWAP3 SWAP2 POP POP JUMP JUMPDEST PUSH32 0x5265656E7472616E637947756172643A207265656E7472616E742063616C6C00 PUSH0 DUP3 ADD MSTORE POP JUMP JUMPDEST PUSH0 PUSH2 0x2617 PUSH1 0x1F DUP4 PUSH2 0x25D3 JUMP JUMPDEST SWAP2 POP PUSH2 0x2622 DUP3 PUSH2 0x25E3 JUMP JUMPDEST PUSH1 0x20 DUP3 ADD SWAP1 POP SWAP2 SWAP1 POP JUMP JUMPDEST PUSH0 PUSH1 0x20 DUP3 ADD SWAP1 POP DUP2 DUP2 SUB PUSH0 DUP4 ADD MSTORE PUSH2 0x2644 DUP2 PUSH2 0x260B JUMP JUMPDEST SWAP1 POP SWAP2 SWAP1 POP JUMP INVALID LOG2 PUSH5 0x6970667358 0x22 SLT KECCAK256 DATALOADN 0x9251 MCOPY 0xC7 KECCAK256 PUSH2 0xB12 0xF SLOAD 0xC 0xC0 CALLDATASIZE 0xC6 ADDRESS 0x4C 0x28 DUP3 0xC1 0xB4 0x1F PUSH10 0x2100711FFE92DBED9B64 PUSH20 0x6F6C634300081E00330000000000000000000000 "
		},
		"gasEstimates": {
			"creation": {
				"codeDepositCost": "1971400",
				"executionCost": "infinite",
				"totalCost": "infinite"
			},
			"external": {
				"CALLBACK_GAS_LIMIT()": "421",
				"MAX_HOUSE_FEE_BPS()": "413",
				"MAX_PAYOUT_BPS()": "392",
				"applyReferralCode(bytes32)": "infinite",
				"bet(uint8)": "infinite",
				"bets(uint256)": "infinite",
				"createReferralCode(bytes32)": "51470",
				"getAddressByCode(bytes32)": "2962",
				"getReferralCodeOf(address)": "2874",
				"getReferrerOf(address)": "infinite",
				"houseFeeBps()": "2469",
				"liquidityVault()": "infinite",
				"maxPayoutBps()": "2493",
				"owner()": "2603",
				"playerInfo(address)": "infinite",
				"rawFulfillRandomWords(uint256,uint256[])": "infinite",
				"referralCodeOf(address)": "2914",
				"referralCodeOwner(bytes32)": "2894",
				"referrerOf(address)": "infinite",
				"renounceOwnership()": "infinite",
				"setHouseFee(uint256)": "infinite",
				"setMaxPayoutBps(uint256)": "infinite",
				"totalBets()": "2515",
				"totalGamesPlayed()": "2515",
				"totalGamesWon()": "2470",
				"totalPayout()": "2559",
				"transferOwnership(address)": "infinite"
			},
			"internal": {
				"_fulfillRandomWords(uint256,uint256[] calldata)": "infinite"
			}
		},
		"methodIdentifiers": {
			"CALLBACK_GAS_LIMIT()": "33d608f1",
			"MAX_HOUSE_FEE_BPS()": "f379469b",
			"MAX_PAYOUT_BPS()": "e231b0ef",
			"applyReferralCode(bytes32)": "bc6e8020",
			"bet(uint8)": "d0821b0e",
			"bets(uint256)": "22af00fa",
			"createReferralCode(bytes32)": "30330615",
			"getAddressByCode(bytes32)": "f68017cd",
			"getReferralCodeOf(address)": "d69fd7b9",
			"getReferrerOf(address)": "bc7f25e4",
			"houseFeeBps()": "ee59d240",
			"liquidityVault()": "708666ad",
			"maxPayoutBps()": "bdcf1753",
			"owner()": "8da5cb5b",
			"playerInfo(address)": "4b114691",
			"rawFulfillRandomWords(uint256,uint256[])": "1fe543e3",
			"referralCodeOf(address)": "44af2edb",
			"referralCodeOwner(bytes32)": "c4f343fd",
			"referrerOf(address)": "d21cacdf",
			"renounceOwnership()": "715018a6",
			"setHouseFee(uint256)": "5a09f2f4",
			"setMaxPayoutBps(uint256)": "e27ff2ba",
			"totalBets()": "befa1e2f",
			"totalGamesPlayed()": "5c492129",
			"totalGamesWon()": "c32b5373",
			"totalPayout()": "454f7b8f",
			"transferOwnership(address)": "f2fde38b"
		}
	},
	"abi": [
		{
			"inputs": [
				{
					"internalType": "address",
					"name": "vrfCoordinatorAddress",
					"type": "address"
				},
				{
					"internalType": "address",
					"name": "_vaultAddress",
					"type": "address"
				}
			],
			"stateMutability": "nonpayable",
			"type": "constructor"
		},
		{
			"inputs": [],
			"name": "BetNotFound",
			"type": "error"
		},
		{
			"inputs": [],
			"name": "BetTooSmall",
			"type": "error"
		},
		{
			"inputs": [],
			"name": "CannotBeOwnReferrer",
			"type": "error"
		},
		{
			"inputs": [],
			"name": "FailedToTransferStake",
			"type": "error"
		},
		{
			"inputs": [],
			"name": "FeeTooHigh",
			"type": "error"
		},
		{
			"inputs": [],
			"name": "InsufficientPayment",
			"type": "error"
		},
		{
			"inputs": [],
			"name": "InvalidBulletCount",
			"type": "error"
		},
		{
			"inputs": [],
			"name": "NewBPSExceedsMaxLimit",
			"type": "error"
		},
		{
			"inputs": [
				{
					"internalType": "address",
					"name": "sender",
					"type": "address"
				},
				{
					"internalType": "address",
					"name": "coordinator",
					"type": "address"
				}
			],
			"name": "OnlyVRFCoordinator",
			"type": "error"
		},
		{
			"inputs": [
				{
					"internalType": "address",
					"name": "owner",
					"type": "address"
				}
			],
			"name": "OwnableInvalidOwner",
			"type": "error"
		},
		{
			"inputs": [
				{
					"internalType": "address",
					"name": "account",
					"type": "address"
				}
			],
			"name": "OwnableUnauthorizedAccount",
			"type": "error"
		},
		{
			"inputs": [],
			"name": "PayoutExceedsLimit",
			"type": "error"
		},
		{
			"inputs": [],
			"name": "ReferralCodeAlreadyExists",
			"type": "error"
		},
		{
			"inputs": [],
			"name": "ReferralCodeNotFound",
			"type": "error"
		},
		{
			"inputs": [],
			"name": "ReferrerAlreadySet",
			"type": "error"
		},
		{
			"inputs": [],
			"name": "UserAlreadyHasCode",
			"type": "error"
		},
		{
			"anonymous": false,
			"inputs": [
				{
					"indexed": true,
					"internalType": "uint256",
					"name": "requestId",
					"type": "uint256"
				},
				{
					"indexed": true,
					"internalType": "address",
					"name": "player",
					"type": "address"
				},
				{
					"indexed": false,
					"internalType": "uint256",
					"name": "amount",
					"type": "uint256"
				},
				{
					"indexed": false,
					"internalType": "uint8",
					"name": "bullets",
					"type": "uint8"
				}
			],
			"name": "BetPlaced",
			"type": "event"
		},
		{
			"anonymous": false,
			"inputs": [
				{
					"indexed": true,
					"internalType": "uint256",
					"name": "requestId",
					"type": "uint256"
				},
				{
					"indexed": true,
					"internalType": "address",
					"name": "player",
					"type": "address"
				},
				{
					"indexed": false,
					"internalType": "bool",
					"name": "alive",
					"type": "bool"
				},
				{
					"indexed": false,
					"internalType": "uint256",
					"name": "spin",
					"type": "uint256"
				},
				{
					"indexed": false,
					"internalType": "uint256",
					"name": "amount",
					"type": "uint256"
				},
				{
					"indexed": false,
					"internalType": "uint256",
					"name": "payout",
					"type": "uint256"
				}
			],
			"name": "BetResult",
			"type": "event"
		},
		{
			"anonymous": false,
			"inputs": [
				{
					"indexed": true,
					"internalType": "address",
					"name": "previousOwner",
					"type": "address"
				},
				{
					"indexed": true,
					"internalType": "address",
					"name": "newOwner",
					"type": "address"
				}
			],
			"name": "OwnershipTransferred",
			"type": "event"
		},
		{
			"inputs": [],
			"name": "CALLBACK_GAS_LIMIT",
			"outputs": [
				{
					"internalType": "uint32",
					"name": "",
					"type": "uint32"
				}
			],
			"stateMutability": "view",
			"type": "function"
		},
		{
			"inputs": [],
			"name": "MAX_HOUSE_FEE_BPS",
			"outputs": [
				{
					"internalType": "uint256",
					"name": "",
					"type": "uint256"
				}
			],
			"stateMutability": "view",
			"type": "function"
		},
		{
			"inputs": [],
			"name": "MAX_PAYOUT_BPS",
			"outputs": [
				{
					"internalType": "uint256",
					"name": "",
					"type": "uint256"
				}
			],
			"stateMutability": "view",
			"type": "function"
		},
		{
			"inputs": [
				{
					"internalType": "bytes32",
					"name": "_code",
					"type": "bytes32"
				}
			],
			"name": "applyReferralCode",
			"outputs": [],
			"stateMutability": "nonpayable",
			"type": "function"
		},
		{
			"inputs": [
				{
					"internalType": "uint8",
					"name": "bullets",
					"type": "uint8"
				}
			],
			"name": "bet",
			"outputs": [
				{
					"internalType": "uint256",
					"name": "requestId",
					"type": "uint256"
				}
			],
			"stateMutability": "payable",
			"type": "function"
		},
		{
			"inputs": [
				{
					"internalType": "uint256",
					"name": "",
					"type": "uint256"
				}
			],
			"name": "bets",
			"outputs": [
				{
					"internalType": "address",
					"name": "player",
					"type": "address"
				},
				{
					"internalType": "uint256",
					"name": "amount",
					"type": "uint256"
				},
				{
					"internalType": "uint8",
					"name": "bullets",
					"type": "uint8"
				}
			],
			"stateMutability": "view",
			"type": "function"
		},
		{
			"inputs": [
				{
					"internalType": "bytes32",
					"name": "_code",
					"type": "bytes32"
				}
			],
			"name": "createReferralCode",
			"outputs": [],
			"stateMutability": "nonpayable",
			"type": "function"
		},
		{
			"inputs": [
				{
					"internalType": "bytes32",
					"name": "_code",
					"type": "bytes32"
				}
			],
			"name": "getAddressByCode",
			"outputs": [
				{
					"internalType": "address",
					"name": "",
					"type": "address"
				}
			],
			"stateMutability": "view",
			"type": "function"
		},
		{
			"inputs": [
				{
					"internalType": "address",
					"name": "_user",
					"type": "address"
				}
			],
			"name": "getReferralCodeOf",
			"outputs": [
				{
					"internalType": "bytes32",
					"name": "",
					"type": "bytes32"
				}
			],
			"stateMutability": "view",
			"type": "function"
		},
		{
			"inputs": [
				{
					"internalType": "address",
					"name": "_user",
					"type": "address"
				}
			],
			"name": "getReferrerOf",
			"outputs": [
				{
					"internalType": "address",
					"name": "",
					"type": "address"
				}
			],
			"stateMutability": "view",
			"type": "function"
		},
		{
			"inputs": [],
			"name": "houseFeeBps",
			"outputs": [
				{
					"internalType": "uint256",
					"name": "",
					"type": "uint256"
				}
			],
			"stateMutability": "view",
			"type": "function"
		},
		{
			"inputs": [],
			"name": "liquidityVault",
			"outputs": [
				{
					"internalType": "contract ILiquidityVault",
					"name": "",
					"type": "address"
				}
			],
			"stateMutability": "view",
			"type": "function"
		},
		{
			"inputs": [],
			"name": "maxPayoutBps",
			"outputs": [
				{
					"internalType": "uint256",
					"name": "",
					"type": "uint256"
				}
			],
			"stateMutability": "view",
			"type": "function"
		},
		{
			"inputs": [],
			"name": "owner",
			"outputs": [
				{
					"internalType": "address",
					"name": "",
					"type": "address"
				}
			],
			"stateMutability": "view",
			"type": "function"
		},
		{
			"inputs": [
				{
					"internalType": "address",
					"name": "",
					"type": "address"
				}
			],
			"name": "playerInfo",
			"outputs": [
				{
					"internalType": "uint256",
					"name": "totalBetsAmount",
					"type": "uint256"
				},
				{
					"internalType": "uint256",
					"name": "totalPayout",
					"type": "uint256"
				},
				{
					"internalType": "uint256",
					"name": "totalGamesPlayed",
					"type": "uint256"
				},
				{
					"internalType": "uint256",
					"name": "totalGamesWon",
					"type": "uint256"
				},
				{
					"internalType": "uint256",
					"name": "totalReferrals",
					"type": "uint256"
				}
			],
			"stateMutability": "view",
			"type": "function"
		},
		{
			"inputs": [
				{
					"internalType": "uint256",
					"name": "requestId",
					"type": "uint256"
				},
				{
					"internalType": "uint256[]",
					"name": "randomWords",
					"type": "uint256[]"
				}
			],
			"name": "rawFulfillRandomWords",
			"outputs": [],
			"stateMutability": "nonpayable",
			"type": "function"
		},
		{
			"inputs": [
				{
					"internalType": "address",
					"name": "",
					"type": "address"
				}
			],
			"name": "referralCodeOf",
			"outputs": [
				{
					"internalType": "bytes32",
					"name": "",
					"type": "bytes32"
				}
			],
			"stateMutability": "view",
			"type": "function"
		},
		{
			"inputs": [
				{
					"internalType": "bytes32",
					"name": "",
					"type": "bytes32"
				}
			],
			"name": "referralCodeOwner",
			"outputs": [
				{
					"internalType": "address",
					"name": "",
					"type": "address"
				}
			],
			"stateMutability": "view",
			"type": "function"
		},
		{
			"inputs": [
				{
					"internalType": "address",
					"name": "",
					"type": "address"
				}
			],
			"name": "referrerOf",
			"outputs": [
				{
					"internalType": "address",
					"name": "",
					"type": "address"
				}
			],
			"stateMutability": "view",
			"type": "function"
		},
		{
			"inputs": [],
			"name": "renounceOwnership",
			"outputs": [],
			"stateMutability": "nonpayable",
			"type": "function"
		},
		{
			"inputs": [
				{
					"internalType": "uint256",
					"name": "_newFeeBps",
					"type": "uint256"
				}
			],
			"name": "setHouseFee",
			"outputs": [],
			"stateMutability": "nonpayable",
			"type": "function"
		},
		{
			"inputs": [
				{
					"internalType": "uint256",
					"name": "_newBps",
					"type": "uint256"
				}
			],
			"name": "setMaxPayoutBps",
			"outputs": [],
			"stateMutability": "nonpayable",
			"type": "function"
		},
		{
			"inputs": [],
			"name": "totalBets",
			"outputs": [
				{
					"internalType": "uint256",
					"name": "",
					"type": "uint256"
				}
			],
			"stateMutability": "view",
			"type": "function"
		},
		{
			"inputs": [],
			"name": "totalGamesPlayed",
			"outputs": [
				{
					"internalType": "uint256",
					"name": "",
					"type": "uint256"
				}
			],
			"stateMutability": "view",
			"type": "function"
		},
		{
			"inputs": [],
			"name": "totalGamesWon",
			"outputs": [
				{
					"internalType": "uint256",
					"name": "",
					"type": "uint256"
				}
			],
			"stateMutability": "view",
			"type": "function"
		},
		{
			"inputs": [],
			"name": "totalPayout",
			"outputs": [
				{
					"internalType": "uint256",
					"name": "",
					"type": "uint256"
				}
			],
			"stateMutability": "view",
			"type": "function"
		},
		{
			"inputs": [
				{
					"internalType": "address",
					"name": "newOwner",
					"type": "address"
				}
			],
			"name": "transferOwnership",
			"outputs": [],
			"stateMutability": "nonpayable",
			"type": "function"
		}
	]
}